{"contracts/patientcontract.sol":{"PatientManagement":{"abi":[{"inputs":[],"stateMutability":"nonpayable","type":"constructor"},{"anonymous":false,"inputs":[{"indexed":true,"internalType":"address","name":"patient","type":"address"},{"indexed":true,"internalType":"address","name":"viewer","type":"address"},{"indexed":false,"internalType":"uint256","name":"expiry","type":"uint256"}],"name":"AccessGranted","type":"event"},{"anonymous":false,"inputs":[{"indexed":true,"internalType":"address","name":"patient","type":"address"},{"indexed":true,"internalType":"address","name":"viewer","type":"address"}],"name":"AccessRequested","type":"event"},{"anonymous":false,"inputs":[{"indexed":true,"internalType":"address","name":"patient","type":"address"},{"indexed":true,"internalType":"address","name":"viewer","type":"address"}],"name":"AccessRevoked","type":"event"},{"anonymous":false,"inputs":[{"indexed":true,"internalType":"address","name":"patientAddress","type":"address"},{"indexed":true,"internalType":"address","name":"doctorAddress","type":"address"},{"indexed":false,"internalType":"string","name":"ipfsHash","type":"string"},{"indexed":false,"internalType":"uint256","name":"timestamp","type":"uint256"},{"indexed":false,"internalType":"uint8","name":"privacyLevel","type":"uint8"}],"name":"MedicalRecordAdded","type":"event"},{"anonymous":false,"inputs":[{"indexed":true,"internalType":"address","name":"patientAddress","type":"address"},{"indexed":false,"internalType":"string","name":"oldIpfsHash","type":"string"},{"indexed":false,"internalType":"string","name":"newIpfsHash","type":"string"},{"indexed":false,"internalType":"uint256","name":"timestamp","type":"uint256"}],"name":"MedicalRecordUpdated","type":"event"},{"anonymous":false,"inputs":[{"indexed":true,"internalType":"address","name":"patientAddress","type":"address"},{"indexed":false,"internalType":"string","name":"username","type":"string"},{"indexed":false,"internalType":"string","name":"role","type":"string"}],"name":"PatientRegistered","type":"event"},{"inputs":[{"internalType":"address","name":"","type":"address"},{"internalType":"address","name":"","type":"address"}],"name":"accessExpiry","outputs":[{"internalType":"uint256","name":"","type":"uint256"}],"stateMutability":"view","type":"function"},{"inputs":[{"internalType":"address","name":"_patientAddress","type":"address"},{"internalType":"string","name":"_ipfsHash","type":"string"},{"internalType":"string","name":"_fileType","type":"string"},{"internalType":"string","name":"_fileName","type":"string"},{"internalType":"string","name":"_title","type":"string"},{"internalType":"string","name":"_resume","type":"string"},{"internalType":"string","name":"_previousVersion","type":"string"},{"internalType":"uint8","name":"_privacyLevel","type":"uint8"}],"name":"addMedicalRecord","outputs":[],"stateMutability":"nonpayable","type":"function"},{"inputs":[],"name":"admin","outputs":[{"internalType":"address","name":"","type":"address"}],"stateMutability":"view","type":"function"},{"inputs":[{"internalType":"uint256","name":"","type":"uint256"}],"name":"allPatients","outputs":[{"internalType":"address","name":"","type":"address"}],"stateMutability":"view","type":"function"},{"inputs":[],"name":"auditContractAddress","outputs":[{"internalType":"address","name":"","type":"address"}],"stateMutability":"view","type":"function"},{"inputs":[],"name":"doctorContractAddress","outputs":[{"internalType":"address","name":"","type":"address"}],"stateMutability":"view","type":"function"},{"inputs":[{"internalType":"address","name":"_patientAddress","type":"address"}],"name":"getActiveRecords","outputs":[{"components":[{"internalType":"string","name":"ipfsHash","type":"string"},{"internalType":"string","name":"fileType","type":"string"},{"internalType":"string","name":"fileName","type":"string"},{"internalType":"string","name":"title","type":"string"},{"internalType":"string","name":"resume","type":"string"},{"internalType":"uint256","name":"timestamp","type":"uint256"},{"internalType":"address","name":"doctor","type":"address"},{"internalType":"bool","name":"isActive","type":"bool"},{"internalType":"string","name":"previousVersion","type":"string"},{"internalType":"uint8","name":"privacyLevel","type":"uint8"}],"internalType":"struct PatientManagement.MedicalRecord[]","name":"","type":"tuple[]"}],"stateMutability":"view","type":"function"},{"inputs":[],"name":"getAllPatients","outputs":[{"internalType":"address[]","name":"","type":"address[]"}],"stateMutability":"view","type":"function"},{"inputs":[{"internalType":"address","name":"_patientAddress","type":"address"}],"name":"getMedicalRecords","outputs":[{"components":[{"internalType":"string","name":"ipfsHash","type":"string"},{"internalType":"string","name":"fileType","type":"string"},{"internalType":"string","name":"fileName","type":"string"},{"internalType":"string","name":"title","type":"string"},{"internalType":"string","name":"resume","type":"string"},{"internalType":"uint256","name":"timestamp","type":"uint256"},{"internalType":"address","name":"doctor","type":"address"},{"internalType":"bool","name":"isActive","type":"bool"},{"internalType":"string","name":"previousVersion","type":"string"},{"internalType":"uint8","name":"privacyLevel","type":"uint8"}],"internalType":"struct PatientManagement.MedicalRecord[]","name":"","type":"tuple[]"}],"stateMutability":"view","type":"function"},{"inputs":[{"internalType":"address","name":"_patientAddress","type":"address"}],"name":"getPatient","outputs":[{"internalType":"string","name":"username","type":"string"},{"internalType":"string","name":"role","type":"string"},{"internalType":"string","name":"phoneNumber","type":"string"}],"stateMutability":"view","type":"function"},{"inputs":[{"internalType":"address","name":"_patientAddress","type":"address"}],"name":"getPatientAccessRequests","outputs":[{"internalType":"address[]","name":"","type":"address[]"}],"stateMutability":"view","type":"function"},{"inputs":[{"internalType":"address","name":"_patientAddress","type":"address"}],"name":"getSharedRecords","outputs":[{"components":[{"internalType":"string","name":"ipfsHash","type":"string"},{"internalType":"string","name":"fileType","type":"string"},{"internalType":"string","name":"fileName","type":"string"},{"internalType":"string","name":"title","type":"string"},{"internalType":"string","name":"resume","type":"string"},{"internalType":"uint256","name":"timestamp","type":"uint256"},{"internalType":"address","name":"doctor","type":"address"},{"internalType":"bool","name":"isActive","type":"bool"},{"internalType":"string","name":"previousVersion","type":"string"},{"internalType":"uint8","name":"privacyLevel","type":"uint8"}],"internalType":"struct PatientManagement.MedicalRecord[]","name":"","type":"tuple[]"}],"stateMutability":"view","type":"function"},{"inputs":[{"internalType":"address","name":"_viewer","type":"address"},{"internalType":"uint256","name":"_durationSeconds","type":"uint256"}],"name":"grantAccess","outputs":[],"stateMutability":"nonpayable","type":"function"},{"inputs":[],"name":"insuranceContractAddress","outputs":[{"internalType":"address","name":"","type":"address"}],"stateMutability":"view","type":"function"},{"inputs":[{"internalType":"address","name":"","type":"address"},{"internalType":"uint256","name":"","type":"uint256"}],"name":"patientAccessRequests","outputs":[{"internalType":"address","name":"","type":"address"}],"stateMutability":"view","type":"function"},{"inputs":[{"internalType":"address","name":"","type":"address"},{"internalType":"uint256","name":"","type":"uint256"}],"name":"patientRecords","outputs":[{"internalType":"string","name":"ipfsHash","type":"string"},{"internalType":"string","name":"fileType","type":"string"},{"internalType":"string","name":"fileName","type":"string"},{"internalType":"string","name":"title","type":"string"},{"internalType":"string","name":"resume","type":"string"},{"internalType":"uint256","name":"timestamp","type":"uint256"},{"internalType":"address","name":"doctor","type":"address"},{"internalType":"bool","name":"isActive","type":"bool"},{"internalType":"string","name":"previousVersion","type":"string"},{"internalType":"uint8","name":"privacyLevel","type":"uint8"}],"stateMutability":"view","type":"function"},{"inputs":[{"internalType":"address","name":"","type":"address"}],"name":"patients","outputs":[{"internalType":"string","name":"username","type":"string"},{"internalType":"string","name":"role","type":"string"},{"internalType":"string","name":"phoneNumber","type":"string"},{"internalType":"bool","name":"isRegistered","type":"bool"}],"stateMutability":"view","type":"function"},{"inputs":[{"internalType":"address","name":"_patientAddress","type":"address"},{"internalType":"string","name":"_username","type":"string"},{"internalType":"string","name":"_role","type":"string"},{"internalType":"string","name":"_phoneNumber","type":"string"}],"name":"registerPatient","outputs":[],"stateMutability":"nonpayable","type":"function"},{"inputs":[{"internalType":"address","name":"_patientAddress","type":"address"}],"name":"requestAccess","outputs":[],"stateMutability":"nonpayable","type":"function"},{"inputs":[],"name":"researcherContractAddress","outputs":[{"internalType":"address","name":"","type":"address"}],"stateMutability":"view","type":"function"},{"inputs":[{"internalType":"address","name":"_viewer","type":"address"}],"name":"revokeAccess","outputs":[],"stateMutability":"nonpayable","type":"function"},{"inputs":[{"internalType":"address","name":"_auditContractAddress","type":"address"}],"name":"setAuditContractAddress","outputs":[],"stateMutability":"nonpayable","type":"function"},{"inputs":[{"internalType":"address","name":"_doctorContractAddress","type":"address"}],"name":"setDoctorContractAddress","outputs":[],"stateMutability":"nonpayable","type":"function"},{"inputs":[{"internalType":"address","name":"_insuranceContractAddress","type":"address"}],"name":"setInsuranceContractAddress","outputs":[],"stateMutability":"nonpayable","type":"function"},{"inputs":[{"internalType":"address","name":"_researcherContractAddress","type":"address"}],"name":"setResearcherContractAddress","outputs":[],"stateMutability":"nonpayable","type":"function"}],"evm":{"bytecode":{"linkReferences":{},"object":"60806040523480156200001157600080fd5b50600080546001600160a01b0319163390811782556040805160c0810182526005608082018181526430b236b4b760d91b60a084018190529083528351808501855291825260208281019190915280830191909152825180820184528581528284015260016060830181905293855292909252909120815181906200009790826200018e565b5060208201516001820190620000ae90826200018e565b5060408201516002820190620000c590826200018e565b50606091909101516003909101805460ff19169115159190911790556200025a565b634e487b7160e01b600052604160045260246000fd5b600181811c908216806200011257607f821691505b6020821081036200013357634e487b7160e01b600052602260045260246000fd5b50919050565b601f82111562000189576000816000526020600020601f850160051c81016020861015620001645750805b601f850160051c820191505b81811015620001855782815560010162000170565b5050505b505050565b81516001600160401b03811115620001aa57620001aa620000e7565b620001c281620001bb8454620000fd565b8462000139565b602080601f831160018114620001fa5760008415620001e15750858301515b600019600386901b1c1916600185901b17855562000185565b600085815260208120601f198616915b828110156200022b578886015182559484019460019091019084016200020a565b50858210156200024a5787850151600019600388901b60f8161c191681555b5050505050600190811b01905550565b613f84806200026a6000396000f3fe608060405234801561001057600080fd5b50600436106101735760003560e01c80639df89256116100de578063cb9b859f11610097578063e08b9d9c11610071578063e08b9d9c14610394578063eeaaa075146103a7578063f851a440146103ba578063fb6be4ec146103cd57600080fd5b8063cb9b859f1461035b578063cf2a221b1461036e578063d8f608df1461038157600080fd5b80639df89256146102cd578063a25b0bf0146102e0578063afd8297c146102f3578063b5368e2014610313578063b717a67c14610335578063bcbf71811461034857600080fd5b80636df32cd4116101305780636df32cd41461021f5780637933ef8b1461023257806385e685311461024557806389413f421461025857806391f205961461026b57806394f0df61146102a457600080fd5b8063022cb271146101785780630869cfbc1461018d5780630ac1f2c5146101b957806314c179c0146101e457806318a231a9146101f7578063197547a11461020c575b600080fd5b61018b61018636600461349b565b6103e0565b005b6101a061019b36600461349b565b61064f565b6040516101b0949392919061350d565b60405180910390f35b6006546101cc906001600160a01b031681565b6040516001600160a01b0390911681526020016101b0565b6007546101cc906001600160a01b031681565b6101ff610812565b6040516101b0919061355a565b61018b61021a36600461367d565b610874565b61018b61022d36600461349b565b610c38565b61018b61024036600461349b565b610c84565b61018b61025336600461349b565b610cd0565b61018b61026636600461349b565b610f82565b610296610279366004613795565b600560209081526000928352604080842090915290825290205481565b6040519081526020016101b0565b6102b76102b23660046137c8565b610fce565b6040516101b09a999897969594939291906137f2565b61018b6102db3660046137c8565b611385565b6008546101cc906001600160a01b031681565b61030661030136600461349b565b6117b6565b6040516101b091906138a5565b61032661032136600461349b565b611c14565b6040516101b0939291906139d8565b61030661034336600461349b565b611e57565b61030661035636600461349b565b61247f565b6009546101cc906001600160a01b031681565b61018b61037c366004613a1b565b612ed7565b6101cc61038f366004613ab4565b6130cf565b61018b6103a236600461349b565b6130f9565b6101ff6103b536600461349b565b613145565b6000546101cc906001600160a01b031681565b6101cc6103db3660046137c8565b613213565b6001600160a01b03811660009081526001602052604090206003015460ff166104245760405162461bcd60e51b815260040161041b90613acd565b60405180910390fd5b336001600160a01b0382160361047c5760405162461bcd60e51b815260206004820152601d60248201527f43616e6e6f7420726571756573742061636365737320746f2073656c66000000604482015260640161041b565b6001600160a01b03811660009081526005602090815260408083203384529091529020544210156104e45760405162461bcd60e51b8152602060048201526012602482015271416c7265616479206861732061636365737360701b604482015260640161041b565b6001600160a01b0381166000908152600a602090815260408083208054825181850281018501909352808352919290919083018282801561054e57602002820191906000526020600020905b81546001600160a01b03168152600190910190602001808311610530575b5050505050905060005b81518110156105e357336001600160a01b031682828151811061057d5761057d613afd565b60200260200101516001600160a01b0316036105db5760405162461bcd60e51b815260206004820152601760248201527f5265717565737420616c72656164792070656e64696e67000000000000000000604482015260640161041b565b600101610558565b506001600160a01b0382166000818152600a60209081526040808320805460018101825590845291832090910180546001600160a01b0319163390811790915590519092917f40c7749b16fdfb0d550f20273a7767875059d647af94f5a9610c63ad73dcc79f91a35050565b60016020526000908152604090208054819061066a90613b13565b80601f016020809104026020016040519081016040528092919081815260200182805461069690613b13565b80156106e35780601f106106b8576101008083540402835291602001916106e3565b820191906000526020600020905b8154815290600101906020018083116106c657829003601f168201915b5050505050908060010180546106f890613b13565b80601f016020809104026020016040519081016040528092919081815260200182805461072490613b13565b80156107715780601f1061074657610100808354040283529160200191610771565b820191906000526020600020905b81548152906001019060200180831161075457829003601f168201915b50505050509080600201805461078690613b13565b80601f01602080910402602001604051908101604052809291908181526020018280546107b290613b13565b80156107ff5780601f106107d4576101008083540402835291602001916107ff565b820191906000526020600020905b8154815290600101906020018083116107e257829003601f168201915b5050506003909301549192505060ff1684565b6060600280548060200260200160405190810160405280929190818152602001828054801561086a57602002820191906000526020600020905b81546001600160a01b0316815260019091019060200180831161084c575b5050505050905090565b6001600160a01b03881660009081526001602052604090206003015460ff166108af5760405162461bcd60e51b815260040161041b90613acd565b60028160ff1611156108fb5760405162461bcd60e51b8152602060048201526015602482015274125b9d985b1a59081c1c9a5d9858de481b195d995b605a1b604482015260640161041b565b8151156109cc5760006004836040516109149190613b4d565b90815260200160405180910390205490506000600360008b6001600160a01b03166001600160a01b03168152602001908152602001600020828154811061095d5761095d613afd565b906000526020600020906009020160060160146101000a81548160ff021916908315150217905550886001600160a01b03167f265a47e189bdaf1e4e75ca93474dba2ad21591bb54b62e3b8633029a440dcbf6848a426040516109c293929190613b69565b60405180910390a2505b6040805161014081018252888152602080820189905281830188905260608201879052608082018690524260a08301523360c0830152600160e08301819052610100830186905260ff85166101208401526001600160a01b038c1660009081526003835293842080549182018155845292208151919283926009909102909101908190610a599082613bef565b5060208201516001820190610a6e9082613bef565b5060408201516002820190610a839082613bef565b5060608201516003820190610a989082613bef565b5060808201516004820190610aad9082613bef565b5060a0820151600582015560c082015160068201805460e08501511515600160a01b026001600160a81b03199091166001600160a01b03909316929092179190911790556101008201516007820190610b069082613bef565b5061012091909101516008909101805460ff191660ff9092169190911790556001600160a01b038916600090815260036020526040902054610b4a90600190613cc5565b600489604051610b5a9190613b4d565b908152602001604051809103902081905550336001600160a01b0316896001600160a01b03167f77f7fbc747ad443f3ea5f507abbc21d187ecb84679a348cbd91c6fbcfd405c288a4286604051610bb393929190613cde565b60405180910390a36009546001600160a01b031615610c2d5760095460405163bff4513960e01b81526001600160a01b039091169063bff4513990610c009033908d908d90600401613d0a565b600060405180830381600087803b158015610c1a57600080fd5b505af1925050508015610c2b575060015b505b505050505050505050565b6000546001600160a01b03163314610c625760405162461bcd60e51b815260040161041b90613d63565b600780546001600160a01b0319166001600160a01b0392909216919091179055565b6000546001600160a01b03163314610cae5760405162461bcd60e51b815260040161041b90613d63565b600680546001600160a01b0319166001600160a01b0392909216919091179055565b3360009081526001602052604090206003015460ff16610d235760405162461bcd60e51b815260206004820152600e60248201526d14d95b99195c881a5b9d985b1a5960921b604482015260640161041b565b3360008181526005602090815260408083206001600160a01b0386168085529252808320839055519092917f825c8be24eb0df19500f63e86c29e7d0d951e73056b889b891d85e40938d9b6e91a36006546001600160a01b031615610de257600654604051630bbc386160e11b81526001600160a01b0383811660048301523360248301529091169063177870c290604401600060405180830381600087803b158015610dcf57600080fd5b505af1925050508015610de0575060015b505b6007546001600160a01b031615610e5357600754604051630bbc386160e11b81526001600160a01b0383811660048301523360248301529091169063177870c290604401600060405180830381600087803b158015610e4057600080fd5b505af1925050508015610e51575060015b505b6008546001600160a01b031615610ec457600854604051630bbc386160e11b81526001600160a01b0383811660048301523360248301529091169063177870c290604401600060405180830381600087803b158015610eb157600080fd5b505af1925050508015610ec2575060015b505b6009546001600160a01b031615610f7f5760095460405163bff4513960e01b815233600482015260806024820152600e60848201526d1050d0d154d4d7d4915593d2d15160921b60a48201526001600160a01b03838116604483015260c06064830152600d60c48301526c4d616e75616c205265766f6b6560981b60e48301529091169063bff451399061010401600060405180830381600087803b158015610f6c57600080fd5b505af1925050508015610f7d575060015b505b50565b6000546001600160a01b03163314610fac5760405162461bcd60e51b815260040161041b90613d63565b600980546001600160a01b0319166001600160a01b0392909216919091179055565b60036020528160005260406000208181548110610fea57600080fd5b90600052602060002090600902016000915091505080600001805461100e90613b13565b80601f016020809104026020016040519081016040528092919081815260200182805461103a90613b13565b80156110875780601f1061105c57610100808354040283529160200191611087565b820191906000526020600020905b81548152906001019060200180831161106a57829003601f168201915b50505050509080600101805461109c90613b13565b80601f01602080910402602001604051908101604052809291908181526020018280546110c890613b13565b80156111155780601f106110ea57610100808354040283529160200191611115565b820191906000526020600020905b8154815290600101906020018083116110f857829003601f168201915b50505050509080600201805461112a90613b13565b80601f016020809104026020016040519081016040528092919081815260200182805461115690613b13565b80156111a35780601f10611178576101008083540402835291602001916111a3565b820191906000526020600020905b81548152906001019060200180831161118657829003601f168201915b5050505050908060030180546111b890613b13565b80601f01602080910402602001604051908101604052809291908181526020018280546111e490613b13565b80156112315780601f1061120657610100808354040283529160200191611231565b820191906000526020600020905b81548152906001019060200180831161121457829003601f168201915b50505050509080600401805461124690613b13565b80601f016020809104026020016040519081016040528092919081815260200182805461127290613b13565b80156112bf5780601f10611294576101008083540402835291602001916112bf565b820191906000526020600020905b8154815290600101906020018083116112a257829003601f168201915b5050505060058301546006840154600785018054949592946001600160a01b0383169450600160a01b90920460ff1692916112f990613b13565b80601f016020809104026020016040519081016040528092919081815260200182805461132590613b13565b80156113725780601f1061134757610100808354040283529160200191611372565b820191906000526020600020905b81548152906001019060200180831161135557829003601f168201915b5050506008909301549192505060ff168a565b3360009081526001602052604090206003015460ff166113d85760405162461bcd60e51b815260206004820152600e60248201526d14d95b99195c881a5b9d985b1a5960921b604482015260640161041b565b6001600160a01b0382166114275760405162461bcd60e51b8152602060048201526016602482015275496e76616c696420766965776572206164647265737360501b604482015260640161041b565b6114318142613da4565b3360008181526005602090815260408083206001600160a01b0388168085529252909120929092557f65d0cc1e52d49938ca4ad9f423c79c1b84d914b9a683fbc5d3f93ac3cc5635f56114848442613da4565b60405190815260200160405180910390a36006546001600160a01b031615611506576006546040516301fe843160e31b81526001600160a01b03848116600483015233602483015290911690630ff4218890604401600060405180830381600087803b1580156114f357600080fd5b505af1925050508015611504575060015b505b6007546001600160a01b031615611577576007546040516301fe843160e31b81526001600160a01b03848116600483015233602483015290911690630ff4218890604401600060405180830381600087803b15801561156457600080fd5b505af1925050508015611575575060015b505b6008546001600160a01b0316156115e8576008546040516301fe843160e31b81526001600160a01b03848116600483015233602483015290911690630ff4218890604401600060405180830381600087803b1580156115d557600080fd5b505af19250505080156115e6575060015b505b336000908152600a60205260408120905b81548110156116f557836001600160a01b031682828154811061161e5761161e613afd565b6000918252602090912001546001600160a01b0316036116ed578154829061164890600190613cc5565b8154811061165857611658613afd565b9060005260206000200160009054906101000a90046001600160a01b031682828154811061168857611688613afd565b9060005260206000200160006101000a8154816001600160a01b0302191690836001600160a01b03160217905550818054806116c6576116c6613db7565b600082815260209020810160001990810180546001600160a01b03191690550190556116f5565b6001016115f9565b506009546001600160a01b0316156117b15760095460405163bff4513960e01b815233600482015260806024820152600e60848201526d1050d0d154d4d7d1d4905395115160921b60a48201526001600160a01b03858116604483015260c06064830152600d60c48301526c3720446179732041636365737360981b60e48301529091169063bff451399061010401600060405180830381600087803b15801561179e57600080fd5b505af19250505080156117af575060015b505b505050565b6001600160a01b03811660009081526001602052604090206003015460609060ff166117f45760405162461bcd60e51b815260040161041b90613acd565b6001600160a01b038216600090815260036020908152604080832080548251818502810185019093528083529193909284015b82821015611c0957838290600052602060002090600902016040518061014001604052908160008201805461185b90613b13565b80601f016020809104026020016040519081016040528092919081815260200182805461188790613b13565b80156118d45780601f106118a9576101008083540402835291602001916118d4565b820191906000526020600020905b8154815290600101906020018083116118b757829003601f168201915b505050505081526020016001820180546118ed90613b13565b80601f016020809104026020016040519081016040528092919081815260200182805461191990613b13565b80156119665780601f1061193b57610100808354040283529160200191611966565b820191906000526020600020905b81548152906001019060200180831161194957829003601f168201915b5050505050815260200160028201805461197f90613b13565b80601f01602080910402602001604051908101604052809291908181526020018280546119ab90613b13565b80156119f85780601f106119cd576101008083540402835291602001916119f8565b820191906000526020600020905b8154815290600101906020018083116119db57829003601f168201915b50505050508152602001600382018054611a1190613b13565b80601f0160208091040260200160405190810160405280929190818152602001828054611a3d90613b13565b8015611a8a5780601f10611a5f57610100808354040283529160200191611a8a565b820191906000526020600020905b815481529060010190602001808311611a6d57829003601f168201915b50505050508152602001600482018054611aa390613b13565b80601f0160208091040260200160405190810160405280929190818152602001828054611acf90613b13565b8015611b1c5780601f10611af157610100808354040283529160200191611b1c565b820191906000526020600020905b815481529060010190602001808311611aff57829003601f168201915b50505091835250506005820154602082015260068201546001600160a01b0381166040830152600160a01b900460ff1615156060820152600782018054608090920191611b6890613b13565b80601f0160208091040260200160405190810160405280929190818152602001828054611b9490613b13565b8015611be15780601f10611bb657610100808354040283529160200191611be1565b820191906000526020600020905b815481529060010190602001808311611bc457829003601f168201915b50505091835250506008919091015460ff166020918201529082526001929092019101611827565b505050509050919050565b6001600160a01b0381166000908152600160205260409020600301546060908190819060ff16611c565760405162461bcd60e51b815260040161041b90613acd565b6001600160a01b038416600090815260016020526040808220815160808101909252805482908290611c8790613b13565b80601f0160208091040260200160405190810160405280929190818152602001828054611cb390613b13565b8015611d005780601f10611cd557610100808354040283529160200191611d00565b820191906000526020600020905b815481529060010190602001808311611ce357829003601f168201915b50505050508152602001600182018054611d1990613b13565b80601f0160208091040260200160405190810160405280929190818152602001828054611d4590613b13565b8015611d925780601f10611d6757610100808354040283529160200191611d92565b820191906000526020600020905b815481529060010190602001808311611d7557829003601f168201915b50505050508152602001600282018054611dab90613b13565b80601f0160208091040260200160405190810160405280929190818152602001828054611dd790613b13565b8015611e245780601f10611df957610100808354040283529160200191611e24565b820191906000526020600020905b815481529060010190602001808311611e0757829003601f168201915b50505091835250506003919091015460ff1615156020918201528151908201516040909201519097919650945092505050565b6001600160a01b03811660009081526001602052604090206003015460609060ff16611e955760405162461bcd60e51b815260040161041b90613acd565b336001600160a01b03831614611efb5760405162461bcd60e51b815260206004820152602560248201527f41636365737320616c6c6f776564206f6e6c7920666f722070617469656e742060448201526437bbb732b960d91b606482015260840161041b565b6000805b6001600160a01b038416600090815260036020526040902054811015611f83576001600160a01b0384166000908152600360205260409020805482908110611f4957611f49613afd565b906000526020600020906009020160060160149054906101000a900460ff1615611f7b5781611f7781613dcd565b9250505b600101611eff565b5060008167ffffffffffffffff811115611f9f57611f9f6135a7565b604051908082528060200260200182016040528015611fd857816020015b611fc561341e565b815260200190600190039081611fbd5790505b5090506000805b6001600160a01b038616600090815260036020526040902054811015612475576001600160a01b038616600090815260036020526040902080548290811061202957612029613afd565b906000526020600020906009020160060160149054906101000a900460ff161561246d576001600160a01b038616600090815260036020526040902080548290811061207757612077613afd565b9060005260206000209060090201604051806101400160405290816000820180546120a190613b13565b80601f01602080910402602001604051908101604052809291908181526020018280546120cd90613b13565b801561211a5780601f106120ef5761010080835404028352916020019161211a565b820191906000526020600020905b8154815290600101906020018083116120fd57829003601f168201915b5050505050815260200160018201805461213390613b13565b80601f016020809104026020016040519081016040528092919081815260200182805461215f90613b13565b80156121ac5780601f10612181576101008083540402835291602001916121ac565b820191906000526020600020905b81548152906001019060200180831161218f57829003601f168201915b505050505081526020016002820180546121c590613b13565b80601f01602080910402602001604051908101604052809291908181526020018280546121f190613b13565b801561223e5780601f106122135761010080835404028352916020019161223e565b820191906000526020600020905b81548152906001019060200180831161222157829003601f168201915b5050505050815260200160038201805461225790613b13565b80601f016020809104026020016040519081016040528092919081815260200182805461228390613b13565b80156122d05780601f106122a5576101008083540402835291602001916122d0565b820191906000526020600020905b8154815290600101906020018083116122b357829003601f168201915b505050505081526020016004820180546122e990613b13565b80601f016020809104026020016040519081016040528092919081815260200182805461231590613b13565b80156123625780601f1061233757610100808354040283529160200191612362565b820191906000526020600020905b81548152906001019060200180831161234557829003601f168201915b50505091835250506005820154602082015260068201546001600160a01b0381166040830152600160a01b900460ff16151560608201526007820180546080909201916123ae90613b13565b80601f01602080910402602001604051908101604052809291908181526020018280546123da90613b13565b80156124275780601f106123fc57610100808354040283529160200191612427565b820191906000526020600020905b81548152906001019060200180831161240a57829003601f168201915b50505091835250506008919091015460ff16602090910152835184908490811061245357612453613afd565b6020026020010181905250818061246990613dcd565b9250505b600101611fdf565b5090949350505050565b6001600160a01b0381811660008181526005602090815260408083203380855292528220546006546060959490921493429091119291161561252f57600654604051630bc1381960e21b81523360048201526001600160a01b0390911690632f04e06490602401600060405180830381865afa92505050801561252457506040513d6000823e601f3d908101601f191682016040526125219190810190613e33565b60015b1561252f5793505050505b82806125385750815b806125405750805b61257c5760405162461bcd60e51b815260206004820152600d60248201526c1058d8d95cdcc819195b9a5959609a1b604482015260640161041b565b6000831561258c575060ff6125a6565b811561259a575060026125a6565b6125a33361324b565b90505b6000805b6001600160a01b0388166000908152600360205260409020548110156129fc576001600160a01b03881660009081526003602052604081208054839081106125f4576125f4613afd565b90600052602060002090600902016040518061014001604052908160008201805461261e90613b13565b80601f016020809104026020016040519081016040528092919081815260200182805461264a90613b13565b80156126975780601f1061266c57610100808354040283529160200191612697565b820191906000526020600020905b81548152906001019060200180831161267a57829003601f168201915b505050505081526020016001820180546126b090613b13565b80601f01602080910402602001604051908101604052809291908181526020018280546126dc90613b13565b80156127295780601f106126fe57610100808354040283529160200191612729565b820191906000526020600020905b81548152906001019060200180831161270c57829003601f168201915b5050505050815260200160028201805461274290613b13565b80601f016020809104026020016040519081016040528092919081815260200182805461276e90613b13565b80156127bb5780601f10612790576101008083540402835291602001916127bb565b820191906000526020600020905b81548152906001019060200180831161279e57829003601f168201915b505050505081526020016003820180546127d490613b13565b80601f016020809104026020016040519081016040528092919081815260200182805461280090613b13565b801561284d5780601f106128225761010080835404028352916020019161284d565b820191906000526020600020905b81548152906001019060200180831161283057829003601f168201915b5050505050815260200160048201805461286690613b13565b80601f016020809104026020016040519081016040528092919081815260200182805461289290613b13565b80156128df5780601f106128b4576101008083540402835291602001916128df565b820191906000526020600020905b8154815290600101906020018083116128c257829003601f168201915b50505091835250506005820154602082015260068201546001600160a01b0381166040830152600160a01b900460ff161515606082015260078201805460809092019161292b90613b13565b80601f016020809104026020016040519081016040528092919081815260200182805461295790613b13565b80156129a45780601f10612979576101008083540402835291602001916129a4565b820191906000526020600020905b81548152906001019060200180831161298757829003601f168201915b50505091835250506008919091015460ff1660209091015260e0810151909150156129f35786806129e057508360ff1681610120015160ff1611155b156129f357826129ef81613dcd565b9350505b506001016125aa565b5060008167ffffffffffffffff811115612a1857612a186135a7565b604051908082528060200260200182016040528015612a5157816020015b612a3e61341e565b815260200190600190039081612a365790505b5090506000805b6001600160a01b038a16600090815260036020526040902054811015612ec9576001600160a01b038a166000908152600360205260408120805483908110612aa257612aa2613afd565b906000526020600020906009020160405180610140016040529081600082018054612acc90613b13565b80601f0160208091040260200160405190810160405280929190818152602001828054612af890613b13565b8015612b455780601f10612b1a57610100808354040283529160200191612b45565b820191906000526020600020905b815481529060010190602001808311612b2857829003601f168201915b50505050508152602001600182018054612b5e90613b13565b80601f0160208091040260200160405190810160405280929190818152602001828054612b8a90613b13565b8015612bd75780601f10612bac57610100808354040283529160200191612bd7565b820191906000526020600020905b815481529060010190602001808311612bba57829003601f168201915b50505050508152602001600282018054612bf090613b13565b80601f0160208091040260200160405190810160405280929190818152602001828054612c1c90613b13565b8015612c695780601f10612c3e57610100808354040283529160200191612c69565b820191906000526020600020905b815481529060010190602001808311612c4c57829003601f168201915b50505050508152602001600382018054612c8290613b13565b80601f0160208091040260200160405190810160405280929190818152602001828054612cae90613b13565b8015612cfb5780601f10612cd057610100808354040283529160200191612cfb565b820191906000526020600020905b815481529060010190602001808311612cde57829003601f168201915b50505050508152602001600482018054612d1490613b13565b80601f0160208091040260200160405190810160405280929190818152602001828054612d4090613b13565b8015612d8d5780601f10612d6257610100808354040283529160200191612d8d565b820191906000526020600020905b815481529060010190602001808311612d7057829003601f168201915b50505091835250506005820154602082015260068201546001600160a01b0381166040830152600160a01b900460ff1615156060820152600782018054608090920191612dd990613b13565b80601f0160208091040260200160405190810160405280929190818152602001828054612e0590613b13565b8015612e525780601f10612e2757610100808354040283529160200191612e52565b820191906000526020600020905b815481529060010190602001808311612e3557829003601f168201915b50505091835250506008919091015460ff1660209091015260e081015190915015612ec0578880612e8e57508560ff1681610120015160ff1611155b15612ec05780848481518110612ea657612ea6613afd565b60200260200101819052508280612ebc90613dcd565b9350505b50600101612a58565b509098975050505050505050565b6001600160a01b03841660009081526001602052604090206003015460ff1615612f435760405162461bcd60e51b815260206004820152601a60248201527f50617469656e7420616c72656164792072656769737465726564000000000000604482015260640161041b565b6040805160808101825284815260208082018590528183018490526001606083018190526001600160a01b038816600090815291529190912081518190612f8a9082613bef565b5060208201516001820190612f9f9082613bef565b5060408201516002820190612fb49082613bef565b50606091909101516003909101805460ff1916911515919091179055600280546001810182556000919091527f405787fa12a823e0f2b7631cc41b3ba8828b3321ca811111fa75cd3aa3bb5ace0180546001600160a01b0319166001600160a01b0386169081179091556040517f5aad8bc7ad9861b16c6d01a65f54118dfe585a51e408ac2e7b9499148d515c41906130509086908690613ed3565b60405180910390a26009546001600160a01b0316156117af5760095460405163bff4513960e01b81526001600160a01b039091169063bff451399061309d90339088908890600401613ef8565b600060405180830381600087803b1580156130b757600080fd5b505af19250505080156130c8575060015b5050505050565b600281815481106130df57600080fd5b6000918252602090912001546001600160a01b0316905081565b6000546001600160a01b031633146131235760405162461bcd60e51b815260040161041b90613d63565b600880546001600160a01b0319166001600160a01b0392909216919091179055565b6060336001600160a01b0383161461319f5760405162461bcd60e51b815260206004820152601e60248201527f4f6e6c792070617469656e742063616e20766965772072657175657374730000604482015260640161041b565b6001600160a01b0382166000908152600a60209081526040918290208054835181840281018401909452808452909183018282801561320757602002820191906000526020600020905b81546001600160a01b031681526001909101906020018083116131e9575b50505050509050919050565b600a602052816000526040600020818154811061322f57600080fd5b6000918252602090912001546001600160a01b03169150829050565b6006546000906001600160a01b0316156132e657600654604051630bc1381960e21b81526001600160a01b03848116600483015290911690632f04e06490602401600060405180830381865afa9250505080156132ca57506040513d6000823e601f3d908101601f191682016040526132c79190810190613e33565b60015b156132e65780156132e15750600295945050505050565b505050505b6007546001600160a01b03161561337e576007546040516387e5979360e01b81526001600160a01b038481166004830152909116906387e5979390602401600060405180830381865afa92505050801561336257506040513d6000823e601f3d908101601f1916820160405261335f9190810190613e33565b60015b1561337e5780156133795750600195945050505050565b505050505b6008546001600160a01b031615613416576008546040516373f5d26160e11b81526001600160a01b0384811660048301529091169063e7eba4c290602401600060405180830381865afa9250505080156133fa57506040513d6000823e601f3d908101601f191682016040526133f79190810190613e33565b60015b156134165780156134115750600095945050505050565b505050505b506000919050565b60405180610140016040528060608152602001606081526020016060815260200160608152602001606081526020016000815260200160006001600160a01b0316815260200160001515815260200160608152602001600060ff1681525090565b80356001600160a01b038116811461349657600080fd5b919050565b6000602082840312156134ad57600080fd5b6134b68261347f565b9392505050565b60005b838110156134d85781810151838201526020016134c0565b50506000910152565b600081518084526134f98160208601602086016134bd565b601f01601f19169290920160200192915050565b60808152600061352060808301876134e1565b828103602084015261353281876134e1565b9050828103604084015261354681866134e1565b915050821515606083015295945050505050565b6020808252825182820181905260009190848201906040850190845b8181101561359b5783516001600160a01b031683529284019291840191600101613576565b50909695505050505050565b634e487b7160e01b600052604160045260246000fd5b604051601f8201601f1916810167ffffffffffffffff811182821017156135e6576135e66135a7565b604052919050565b600067ffffffffffffffff821115613608576136086135a7565b50601f01601f191660200190565b600082601f83011261362757600080fd5b813561363a613635826135ee565b6135bd565b81815284602083860101111561364f57600080fd5b816020850160208301376000918101602001919091529392505050565b803560ff8116811461349657600080fd5b600080600080600080600080610100898b03121561369a57600080fd5b6136a38961347f565b9750602089013567ffffffffffffffff808211156136c057600080fd5b6136cc8c838d01613616565b985060408b01359150808211156136e257600080fd5b6136ee8c838d01613616565b975060608b013591508082111561370457600080fd5b6137108c838d01613616565b965060808b013591508082111561372657600080fd5b6137328c838d01613616565b955060a08b013591508082111561374857600080fd5b6137548c838d01613616565b945060c08b013591508082111561376a57600080fd5b506137778b828c01613616565b92505061378660e08a0161366c565b90509295985092959890939650565b600080604083850312156137a857600080fd5b6137b18361347f565b91506137bf6020840161347f565b90509250929050565b600080604083850312156137db57600080fd5b6137e48361347f565b946020939093013593505050565b60006101408083526138068184018e6134e1565b9050828103602084015261381a818d6134e1565b9050828103604084015261382e818c6134e1565b90508281036060840152613842818b6134e1565b90508281036080840152613856818a6134e1565b60a084018990526001600160a01b03881660c085015286151560e0850152838103610100850152905061388981866134e1565b91505060ff83166101208301529b9a5050505050505050505050565b600060208083018184528085518083526040925060408601915060408160051b87010184880160005b83811015612ec957603f19898403018552815161014081518186526138f5828701826134e1565b915050888201518582038a87015261390d82826134e1565b915050878201518582038987015261392582826134e1565b9150506060808301518683038288015261393f83826134e1565b925050506080808301518683038288015261395a83826134e1565b9250505060a080830151818701525060c080830151613983828801826001600160a01b03169052565b505060e08281015115159086015261010080830151868303828801526139a983826134e1565b925050506101208083015192506139c48187018460ff169052565b5095880195935050908601906001016138ce565b6060815260006139eb60608301866134e1565b82810360208401526139fd81866134e1565b90508281036040840152613a1181856134e1565b9695505050505050565b60008060008060808587031215613a3157600080fd5b613a3a8561347f565b9350602085013567ffffffffffffffff80821115613a5757600080fd5b613a6388838901613616565b94506040870135915080821115613a7957600080fd5b613a8588838901613616565b93506060870135915080821115613a9b57600080fd5b50613aa887828801613616565b91505092959194509250565b600060208284031215613ac657600080fd5b5035919050565b60208082526016908201527514185d1a595b9d081b9bdd081c9959da5cdd195c995960521b604082015260600190565b634e487b7160e01b600052603260045260246000fd5b600181811c90821680613b2757607f821691505b602082108103613b4757634e487b7160e01b600052602260045260246000fd5b50919050565b60008251613b5f8184602087016134bd565b9190910192915050565b606081526000613b7c60608301866134e1565b8281036020840152613b8e81866134e1565b915050826040830152949350505050565b601f8211156117b1576000816000526020600020601f850160051c81016020861015613bc85750805b601f850160051c820191505b81811015613be757828155600101613bd4565b505050505050565b815167ffffffffffffffff811115613c0957613c096135a7565b613c1d81613c178454613b13565b84613b9f565b602080601f831160018114613c525760008415613c3a5750858301515b600019600386901b1c1916600185901b178555613be7565b600085815260208120601f198616915b82811015613c8157888601518255948401946001909101908401613c62565b5085821015613c9f5787850151600019600388901b60f8161c191681555b5050505050600190811b01905550565b634e487b7160e01b600052601160045260246000fd5b81810381811115613cd857613cd8613caf565b92915050565b606081526000613cf160608301866134e1565b905083602083015260ff83166040830152949350505050565b6001600160a01b038481168252608060208301819052600c908301526b149150d3d49117d05111115160a21b60a08301528316604082015260c060608201819052600090613d5a908301846134e1565b95945050505050565b60208082526021908201527f4f6e6c792061646d696e2063616e2063616c6c20746869732066756e6374696f6040820152603760f91b606082015260800190565b80820180821115613cd857613cd8613caf565b634e487b7160e01b600052603160045260246000fd5b600060018201613ddf57613ddf613caf565b5060010190565b600082601f830112613df757600080fd5b8151613e05613635826135ee565b818152846020838601011115613e1a57600080fd5b613e2b8260208301602087016134bd565b949350505050565b60008060008060808587031215613e4957600080fd5b845167ffffffffffffffff80821115613e6157600080fd5b613e6d88838901613de6565b95506020870151915080821115613e8357600080fd5b613e8f88838901613de6565b94506040870151915080821115613ea557600080fd5b50613eb287828801613de6565b92505060608501518015158114613ec857600080fd5b939692955090935050565b604081526000613ee660408301856134e1565b8281036020840152613d5a81856134e1565b6001600160a01b038481168252608060208301819052601290830152711410551251539517d49151d254d51154915160721b60a08301528316604082015260c060608201819052600090613d5a908301846134e156fea2646970667358221220446bc29a4f7315a15dc1acc1aee8b6c3f417bad12feb2d3007730617fcd1688864736f6c63430008180033","opcodes":"PUSH1 0x80 PUSH1 0x40 MSTORE CALLVALUE DUP1 ISZERO PUSH3 0x11 JUMPI PUSH1 0x0 DUP1 REVERT JUMPDEST POP PUSH1 0x0 DUP1 SLOAD PUSH1 0x1 PUSH1 0x1 PUSH1 0xA0 SHL SUB NOT AND CALLER SWAP1 DUP2 OR DUP3 SSTORE PUSH1 0x40 DUP1 MLOAD PUSH1 0xC0 DUP2 ADD DUP3 MSTORE PUSH1 0x5 PUSH1 0x80 DUP3 ADD DUP2 DUP2 MSTORE PUSH5 0x30B236B4B7 PUSH1 0xD9 SHL PUSH1 0xA0 DUP5 ADD DUP2 SWAP1 MSTORE SWAP1 DUP4 MSTORE DUP4 MLOAD DUP1 DUP6 ADD DUP6 MSTORE SWAP2 DUP3 MSTORE PUSH1 0x20 DUP3 DUP2 ADD SWAP2 SWAP1 SWAP2 MSTORE DUP1 DUP4 ADD SWAP2 SWAP1 SWAP2 MSTORE DUP3 MLOAD DUP1 DUP3 ADD DUP5 MSTORE DUP6 DUP2 MSTORE DUP3 DUP5 ADD MSTORE PUSH1 0x1 PUSH1 0x60 DUP4 ADD DUP2 SWAP1 MSTORE SWAP4 DUP6 MSTORE SWAP3 SWAP1 SWAP3 MSTORE SWAP1 SWAP2 KECCAK256 DUP2 MLOAD DUP2 SWAP1 PUSH3 0x97 SWAP1 DUP3 PUSH3 0x18E JUMP JUMPDEST POP PUSH1 0x20 DUP3 ADD MLOAD PUSH1 0x1 DUP3 ADD SWAP1 PUSH3 0xAE SWAP1 DUP3 PUSH3 0x18E JUMP JUMPDEST POP PUSH1 0x40 DUP3 ADD MLOAD PUSH1 0x2 DUP3 ADD SWAP1 PUSH3 0xC5 SWAP1 DUP3 PUSH3 0x18E JUMP JUMPDEST POP PUSH1 0x60 SWAP2 SWAP1 SWAP2 ADD MLOAD PUSH1 0x3 SWAP1 SWAP2 ADD DUP1 SLOAD PUSH1 0xFF NOT AND SWAP2 ISZERO ISZERO SWAP2 SWAP1 SWAP2 OR SWAP1 SSTORE PUSH3 0x25A JUMP JUMPDEST PUSH4 0x4E487B71 PUSH1 0xE0 SHL PUSH1 0x0 MSTORE PUSH1 0x41 PUSH1 0x4 MSTORE PUSH1 0x24 PUSH1 0x0 REVERT JUMPDEST PUSH1 0x1 DUP2 DUP2 SHR SWAP1 DUP3 AND DUP1 PUSH3 0x112 JUMPI PUSH1 0x7F DUP3 AND SWAP2 POP JUMPDEST PUSH1 0x20 DUP3 LT DUP2 SUB PUSH3 0x133 JUMPI PUSH4 0x4E487B71 PUSH1 0xE0 SHL PUSH1 0x0 MSTORE PUSH1 0x22 PUSH1 0x4 MSTORE PUSH1 0x24 PUSH1 0x0 REVERT JUMPDEST POP SWAP2 SWAP1 POP JUMP JUMPDEST PUSH1 0x1F DUP3 GT ISZERO PUSH3 0x189 JUMPI PUSH1 0x0 DUP2 PUSH1 0x0 MSTORE PUSH1 0x20 PUSH1 0x0 KECCAK256 PUSH1 0x1F DUP6 ADD PUSH1 0x5 SHR DUP2 ADD PUSH1 0x20 DUP7 LT ISZERO PUSH3 0x164 JUMPI POP DUP1 JUMPDEST PUSH1 0x1F DUP6 ADD PUSH1 0x5 SHR DUP3 ADD SWAP2 POP JUMPDEST DUP2 DUP2 LT ISZERO PUSH3 0x185 JUMPI DUP3 DUP2 SSTORE PUSH1 0x1 ADD PUSH3 0x170 JUMP JUMPDEST POP POP POP JUMPDEST POP POP POP JUMP JUMPDEST DUP2 MLOAD PUSH1 0x1 PUSH1 0x1 PUSH1 0x40 SHL SUB DUP2 GT ISZERO PUSH3 0x1AA JUMPI PUSH3 0x1AA PUSH3 0xE7 JUMP JUMPDEST PUSH3 0x1C2 DUP2 PUSH3 0x1BB DUP5 SLOAD PUSH3 0xFD JUMP JUMPDEST DUP5 PUSH3 0x139 JUMP JUMPDEST PUSH1 0x20 DUP1 PUSH1 0x1F DUP4 GT PUSH1 0x1 DUP2 EQ PUSH3 0x1FA JUMPI PUSH1 0x0 DUP5 ISZERO PUSH3 0x1E1 JUMPI POP DUP6 DUP4 ADD MLOAD JUMPDEST PUSH1 0x0 NOT PUSH1 0x3 DUP7 SWAP1 SHL SHR NOT AND PUSH1 0x1 DUP6 SWAP1 SHL OR DUP6 SSTORE PUSH3 0x185 JUMP JUMPDEST PUSH1 0x0 DUP6 DUP2 MSTORE PUSH1 0x20 DUP2 KECCAK256 PUSH1 0x1F NOT DUP7 AND SWAP2 JUMPDEST DUP3 DUP2 LT ISZERO PUSH3 0x22B JUMPI DUP9 DUP7 ADD MLOAD DUP3 SSTORE SWAP5 DUP5 ADD SWAP5 PUSH1 0x1 SWAP1 SWAP2 ADD SWAP1 DUP5 ADD PUSH3 0x20A JUMP JUMPDEST POP DUP6 DUP3 LT ISZERO PUSH3 0x24A JUMPI DUP8 DUP6 ADD MLOAD PUSH1 0x0 NOT PUSH1 0x3 DUP9 SWAP1 SHL PUSH1 0xF8 AND SHR NOT AND DUP2 SSTORE JUMPDEST POP POP POP POP POP PUSH1 0x1 SWAP1 DUP2 SHL ADD SWAP1 SSTORE POP JUMP JUMPDEST PUSH2 0x3F84 DUP1 PUSH3 0x26A PUSH1 0x0 CODECOPY PUSH1 0x0 RETURN INVALID PUSH1 0x80 PUSH1 0x40 MSTORE CALLVALUE DUP1 ISZERO PUSH2 0x10 JUMPI PUSH1 0x0 DUP1 REVERT JUMPDEST POP PUSH1 0x4 CALLDATASIZE LT PUSH2 0x173 JUMPI PUSH1 0x0 CALLDATALOAD PUSH1 0xE0 SHR DUP1 PUSH4 0x9DF89256 GT PUSH2 0xDE JUMPI DUP1 PUSH4 0xCB9B859F GT PUSH2 0x97 JUMPI DUP1 PUSH4 0xE08B9D9C GT PUSH2 0x71 JUMPI DUP1 PUSH4 0xE08B9D9C EQ PUSH2 0x394 JUMPI DUP1 PUSH4 0xEEAAA075 EQ PUSH2 0x3A7 JUMPI DUP1 PUSH4 0xF851A440 EQ PUSH2 0x3BA JUMPI DUP1 PUSH4 0xFB6BE4EC EQ PUSH2 0x3CD JUMPI PUSH1 0x0 DUP1 REVERT JUMPDEST DUP1 PUSH4 0xCB9B859F EQ PUSH2 0x35B JUMPI DUP1 PUSH4 0xCF2A221B EQ PUSH2 0x36E JUMPI DUP1 PUSH4 0xD8F608DF EQ PUSH2 0x381 JUMPI PUSH1 0x0 DUP1 REVERT JUMPDEST DUP1 PUSH4 0x9DF89256 EQ PUSH2 0x2CD JUMPI DUP1 PUSH4 0xA25B0BF0 EQ PUSH2 0x2E0 JUMPI DUP1 PUSH4 0xAFD8297C EQ PUSH2 0x2F3 JUMPI DUP1 PUSH4 0xB5368E20 EQ PUSH2 0x313 JUMPI DUP1 PUSH4 0xB717A67C EQ PUSH2 0x335 JUMPI DUP1 PUSH4 0xBCBF7181 EQ PUSH2 0x348 JUMPI PUSH1 0x0 DUP1 REVERT JUMPDEST DUP1 PUSH4 0x6DF32CD4 GT PUSH2 0x130 JUMPI DUP1 PUSH4 0x6DF32CD4 EQ PUSH2 0x21F JUMPI DUP1 PUSH4 0x7933EF8B EQ PUSH2 0x232 JUMPI DUP1 PUSH4 0x85E68531 EQ PUSH2 0x245 JUMPI DUP1 PUSH4 0x89413F42 EQ PUSH2 0x258 JUMPI DUP1 PUSH4 0x91F20596 EQ PUSH2 0x26B JUMPI DUP1 PUSH4 0x94F0DF61 EQ PUSH2 0x2A4 JUMPI PUSH1 0x0 DUP1 REVERT JUMPDEST DUP1 PUSH4 0x22CB271 EQ PUSH2 0x178 JUMPI DUP1 PUSH4 0x869CFBC EQ PUSH2 0x18D JUMPI DUP1 PUSH4 0xAC1F2C5 EQ PUSH2 0x1B9 JUMPI DUP1 PUSH4 0x14C179C0 EQ PUSH2 0x1E4 JUMPI DUP1 PUSH4 0x18A231A9 EQ PUSH2 0x1F7 JUMPI DUP1 PUSH4 0x197547A1 EQ PUSH2 0x20C JUMPI JUMPDEST PUSH1 0x0 DUP1 REVERT JUMPDEST PUSH2 0x18B PUSH2 0x186 CALLDATASIZE PUSH1 0x4 PUSH2 0x349B JUMP JUMPDEST PUSH2 0x3E0 JUMP JUMPDEST STOP JUMPDEST PUSH2 0x1A0 PUSH2 0x19B CALLDATASIZE PUSH1 0x4 PUSH2 0x349B JUMP JUMPDEST PUSH2 0x64F JUMP JUMPDEST PUSH1 0x40 MLOAD PUSH2 0x1B0 SWAP5 SWAP4 SWAP3 SWAP2 SWAP1 PUSH2 0x350D JUMP JUMPDEST PUSH1 0x40 MLOAD DUP1 SWAP2 SUB SWAP1 RETURN JUMPDEST PUSH1 0x6 SLOAD PUSH2 0x1CC SWAP1 PUSH1 0x1 PUSH1 0x1 PUSH1 0xA0 SHL SUB AND DUP2 JUMP JUMPDEST PUSH1 0x40 MLOAD PUSH1 0x1 PUSH1 0x1 PUSH1 0xA0 SHL SUB SWAP1 SWAP2 AND DUP2 MSTORE PUSH1 0x20 ADD PUSH2 0x1B0 JUMP JUMPDEST PUSH1 0x7 SLOAD PUSH2 0x1CC SWAP1 PUSH1 0x1 PUSH1 0x1 PUSH1 0xA0 SHL SUB AND DUP2 JUMP JUMPDEST PUSH2 0x1FF PUSH2 0x812 JUMP JUMPDEST PUSH1 0x40 MLOAD PUSH2 0x1B0 SWAP2 SWAP1 PUSH2 0x355A JUMP JUMPDEST PUSH2 0x18B PUSH2 0x21A CALLDATASIZE PUSH1 0x4 PUSH2 0x367D JUMP JUMPDEST PUSH2 0x874 JUMP JUMPDEST PUSH2 0x18B PUSH2 0x22D CALLDATASIZE PUSH1 0x4 PUSH2 0x349B JUMP JUMPDEST PUSH2 0xC38 JUMP JUMPDEST PUSH2 0x18B PUSH2 0x240 CALLDATASIZE PUSH1 0x4 PUSH2 0x349B JUMP JUMPDEST PUSH2 0xC84 JUMP JUMPDEST PUSH2 0x18B PUSH2 0x253 CALLDATASIZE PUSH1 0x4 PUSH2 0x349B JUMP JUMPDEST PUSH2 0xCD0 JUMP JUMPDEST PUSH2 0x18B PUSH2 0x266 CALLDATASIZE PUSH1 0x4 PUSH2 0x349B JUMP JUMPDEST PUSH2 0xF82 JUMP JUMPDEST PUSH2 0x296 PUSH2 0x279 CALLDATASIZE PUSH1 0x4 PUSH2 0x3795 JUMP JUMPDEST PUSH1 0x5 PUSH1 0x20 SWAP1 DUP2 MSTORE PUSH1 0x0 SWAP3 DUP4 MSTORE PUSH1 0x40 DUP1 DUP5 KECCAK256 SWAP1 SWAP2 MSTORE SWAP1 DUP3 MSTORE SWAP1 KECCAK256 SLOAD DUP2 JUMP JUMPDEST PUSH1 0x40 MLOAD SWAP1 DUP2 MSTORE PUSH1 0x20 ADD PUSH2 0x1B0 JUMP JUMPDEST PUSH2 0x2B7 PUSH2 0x2B2 CALLDATASIZE PUSH1 0x4 PUSH2 0x37C8 JUMP JUMPDEST PUSH2 0xFCE JUMP JUMPDEST PUSH1 0x40 MLOAD PUSH2 0x1B0 SWAP11 SWAP10 SWAP9 SWAP8 SWAP7 SWAP6 SWAP5 SWAP4 SWAP3 SWAP2 SWAP1 PUSH2 0x37F2 JUMP JUMPDEST PUSH2 0x18B PUSH2 0x2DB CALLDATASIZE PUSH1 0x4 PUSH2 0x37C8 JUMP JUMPDEST PUSH2 0x1385 JUMP JUMPDEST PUSH1 0x8 SLOAD PUSH2 0x1CC SWAP1 PUSH1 0x1 PUSH1 0x1 PUSH1 0xA0 SHL SUB AND DUP2 JUMP JUMPDEST PUSH2 0x306 PUSH2 0x301 CALLDATASIZE PUSH1 0x4 PUSH2 0x349B JUMP JUMPDEST PUSH2 0x17B6 JUMP JUMPDEST PUSH1 0x40 MLOAD PUSH2 0x1B0 SWAP2 SWAP1 PUSH2 0x38A5 JUMP JUMPDEST PUSH2 0x326 PUSH2 0x321 CALLDATASIZE PUSH1 0x4 PUSH2 0x349B JUMP JUMPDEST PUSH2 0x1C14 JUMP JUMPDEST PUSH1 0x40 MLOAD PUSH2 0x1B0 SWAP4 SWAP3 SWAP2 SWAP1 PUSH2 0x39D8 JUMP JUMPDEST PUSH2 0x306 PUSH2 0x343 CALLDATASIZE PUSH1 0x4 PUSH2 0x349B JUMP JUMPDEST PUSH2 0x1E57 JUMP JUMPDEST PUSH2 0x306 PUSH2 0x356 CALLDATASIZE PUSH1 0x4 PUSH2 0x349B JUMP JUMPDEST PUSH2 0x247F JUMP JUMPDEST PUSH1 0x9 SLOAD PUSH2 0x1CC SWAP1 PUSH1 0x1 PUSH1 0x1 PUSH1 0xA0 SHL SUB AND DUP2 JUMP JUMPDEST PUSH2 0x18B PUSH2 0x37C CALLDATASIZE PUSH1 0x4 PUSH2 0x3A1B JUMP JUMPDEST PUSH2 0x2ED7 JUMP JUMPDEST PUSH2 0x1CC PUSH2 0x38F CALLDATASIZE PUSH1 0x4 PUSH2 0x3AB4 JUMP JUMPDEST PUSH2 0x30CF JUMP JUMPDEST PUSH2 0x18B PUSH2 0x3A2 CALLDATASIZE PUSH1 0x4 PUSH2 0x349B JUMP JUMPDEST PUSH2 0x30F9 JUMP JUMPDEST PUSH2 0x1FF PUSH2 0x3B5 CALLDATASIZE PUSH1 0x4 PUSH2 0x349B JUMP JUMPDEST PUSH2 0x3145 JUMP JUMPDEST PUSH1 0x0 SLOAD PUSH2 0x1CC SWAP1 PUSH1 0x1 PUSH1 0x1 PUSH1 0xA0 SHL SUB AND DUP2 JUMP JUMPDEST PUSH2 0x1CC PUSH2 0x3DB CALLDATASIZE PUSH1 0x4 PUSH2 0x37C8 JUMP JUMPDEST PUSH2 0x3213 JUMP JUMPDEST PUSH1 0x1 PUSH1 0x1 PUSH1 0xA0 SHL SUB DUP2 AND PUSH1 0x0 SWAP1 DUP2 MSTORE PUSH1 0x1 PUSH1 0x20 MSTORE PUSH1 0x40 SWAP1 KECCAK256 PUSH1 0x3 ADD SLOAD PUSH1 0xFF AND PUSH2 0x424 JUMPI PUSH1 0x40 MLOAD PUSH3 0x461BCD PUSH1 0xE5 SHL DUP2 MSTORE PUSH1 0x4 ADD PUSH2 0x41B SWAP1 PUSH2 0x3ACD JUMP JUMPDEST PUSH1 0x40 MLOAD DUP1 SWAP2 SUB SWAP1 REVERT JUMPDEST CALLER PUSH1 0x1 PUSH1 0x1 PUSH1 0xA0 SHL SUB DUP3 AND SUB PUSH2 0x47C JUMPI PUSH1 0x40 MLOAD PUSH3 0x461BCD PUSH1 0xE5 SHL DUP2 MSTORE PUSH1 0x20 PUSH1 0x4 DUP3 ADD MSTORE PUSH1 0x1D PUSH1 0x24 DUP3 ADD MSTORE PUSH32 0x43616E6E6F7420726571756573742061636365737320746F2073656C66000000 PUSH1 0x44 DUP3 ADD MSTORE PUSH1 0x64 ADD PUSH2 0x41B JUMP JUMPDEST PUSH1 0x1 PUSH1 0x1 PUSH1 0xA0 SHL SUB DUP2 AND PUSH1 0x0 SWAP1 DUP2 MSTORE PUSH1 0x5 PUSH1 0x20 SWAP1 DUP2 MSTORE PUSH1 0x40 DUP1 DUP4 KECCAK256 CALLER DUP5 MSTORE SWAP1 SWAP2 MSTORE SWAP1 KECCAK256 SLOAD TIMESTAMP LT ISZERO PUSH2 0x4E4 JUMPI PUSH1 0x40 MLOAD PUSH3 0x461BCD PUSH1 0xE5 SHL DUP2 MSTORE PUSH1 0x20 PUSH1 0x4 DUP3 ADD MSTORE PUSH1 0x12 PUSH1 0x24 DUP3 ADD MSTORE PUSH18 0x416C72656164792068617320616363657373 PUSH1 0x70 SHL PUSH1 0x44 DUP3 ADD MSTORE PUSH1 0x64 ADD PUSH2 0x41B JUMP JUMPDEST PUSH1 0x1 PUSH1 0x1 PUSH1 0xA0 SHL SUB DUP2 AND PUSH1 0x0 SWAP1 DUP2 MSTORE PUSH1 0xA PUSH1 0x20 SWAP1 DUP2 MSTORE PUSH1 0x40 DUP1 DUP4 KECCAK256 DUP1 SLOAD DUP3 MLOAD DUP2 DUP6 MUL DUP2 ADD DUP6 ADD SWAP1 SWAP4 MSTORE DUP1 DUP4 MSTORE SWAP2 SWAP3 SWAP1 SWAP2 SWAP1 DUP4 ADD DUP3 DUP3 DUP1 ISZERO PUSH2 0x54E JUMPI PUSH1 0x20 MUL DUP3 ADD SWAP2 SWAP1 PUSH1 0x0 MSTORE PUSH1 0x20 PUSH1 0x0 KECCAK256 SWAP1 JUMPDEST DUP2 SLOAD PUSH1 0x1 PUSH1 0x1 PUSH1 0xA0 SHL SUB AND DUP2 MSTORE PUSH1 0x1 SWAP1 SWAP2 ADD SWAP1 PUSH1 0x20 ADD DUP1 DUP4 GT PUSH2 0x530 JUMPI JUMPDEST POP POP POP POP POP SWAP1 POP PUSH1 0x0 JUMPDEST DUP2 MLOAD DUP2 LT ISZERO PUSH2 0x5E3 JUMPI CALLER PUSH1 0x1 PUSH1 0x1 PUSH1 0xA0 SHL SUB AND DUP3 DUP3 DUP2 MLOAD DUP2 LT PUSH2 0x57D JUMPI PUSH2 0x57D PUSH2 0x3AFD JUMP JUMPDEST PUSH1 0x20 MUL PUSH1 0x20 ADD ADD MLOAD PUSH1 0x1 PUSH1 0x1 PUSH1 0xA0 SHL SUB AND SUB PUSH2 0x5DB JUMPI PUSH1 0x40 MLOAD PUSH3 0x461BCD PUSH1 0xE5 SHL DUP2 MSTORE PUSH1 0x20 PUSH1 0x4 DUP3 ADD MSTORE PUSH1 0x17 PUSH1 0x24 DUP3 ADD MSTORE PUSH32 0x5265717565737420616C72656164792070656E64696E67000000000000000000 PUSH1 0x44 DUP3 ADD MSTORE PUSH1 0x64 ADD PUSH2 0x41B JUMP JUMPDEST PUSH1 0x1 ADD PUSH2 0x558 JUMP JUMPDEST POP PUSH1 0x1 PUSH1 0x1 PUSH1 0xA0 SHL SUB DUP3 AND PUSH1 0x0 DUP2 DUP2 MSTORE PUSH1 0xA PUSH1 0x20 SWAP1 DUP2 MSTORE PUSH1 0x40 DUP1 DUP4 KECCAK256 DUP1 SLOAD PUSH1 0x1 DUP2 ADD DUP3 SSTORE SWAP1 DUP5 MSTORE SWAP2 DUP4 KECCAK256 SWAP1 SWAP2 ADD DUP1 SLOAD PUSH1 0x1 PUSH1 0x1 PUSH1 0xA0 SHL SUB NOT AND CALLER SWAP1 DUP2 OR SWAP1 SWAP2 SSTORE SWAP1 MLOAD SWAP1 SWAP3 SWAP2 PUSH32 0x40C7749B16FDFB0D550F20273A7767875059D647AF94F5A9610C63AD73DCC79F SWAP2 LOG3 POP POP JUMP JUMPDEST PUSH1 0x1 PUSH1 0x20 MSTORE PUSH1 0x0 SWAP1 DUP2 MSTORE PUSH1 0x40 SWAP1 KECCAK256 DUP1 SLOAD DUP2 SWAP1 PUSH2 0x66A SWAP1 PUSH2 0x3B13 JUMP JUMPDEST DUP1 PUSH1 0x1F ADD PUSH1 0x20 DUP1 SWAP2 DIV MUL PUSH1 0x20 ADD PUSH1 0x40 MLOAD SWAP1 DUP2 ADD PUSH1 0x40 MSTORE DUP1 SWAP3 SWAP2 SWAP1 DUP2 DUP2 MSTORE PUSH1 0x20 ADD DUP3 DUP1 SLOAD PUSH2 0x696 SWAP1 PUSH2 0x3B13 JUMP JUMPDEST DUP1 ISZERO PUSH2 0x6E3 JUMPI DUP1 PUSH1 0x1F LT PUSH2 0x6B8 JUMPI PUSH2 0x100 DUP1 DUP4 SLOAD DIV MUL DUP4 MSTORE SWAP2 PUSH1 0x20 ADD SWAP2 PUSH2 0x6E3 JUMP JUMPDEST DUP3 ADD SWAP2 SWAP1 PUSH1 0x0 MSTORE PUSH1 0x20 PUSH1 0x0 KECCAK256 SWAP1 JUMPDEST DUP2 SLOAD DUP2 MSTORE SWAP1 PUSH1 0x1 ADD SWAP1 PUSH1 0x20 ADD DUP1 DUP4 GT PUSH2 0x6C6 JUMPI DUP3 SWAP1 SUB PUSH1 0x1F AND DUP3 ADD SWAP2 JUMPDEST POP POP POP POP POP SWAP1 DUP1 PUSH1 0x1 ADD DUP1 SLOAD PUSH2 0x6F8 SWAP1 PUSH2 0x3B13 JUMP JUMPDEST DUP1 PUSH1 0x1F ADD PUSH1 0x20 DUP1 SWAP2 DIV MUL PUSH1 0x20 ADD PUSH1 0x40 MLOAD SWAP1 DUP2 ADD PUSH1 0x40 MSTORE DUP1 SWAP3 SWAP2 SWAP1 DUP2 DUP2 MSTORE PUSH1 0x20 ADD DUP3 DUP1 SLOAD PUSH2 0x724 SWAP1 PUSH2 0x3B13 JUMP JUMPDEST DUP1 ISZERO PUSH2 0x771 JUMPI DUP1 PUSH1 0x1F LT PUSH2 0x746 JUMPI PUSH2 0x100 DUP1 DUP4 SLOAD DIV MUL DUP4 MSTORE SWAP2 PUSH1 0x20 ADD SWAP2 PUSH2 0x771 JUMP JUMPDEST DUP3 ADD SWAP2 SWAP1 PUSH1 0x0 MSTORE PUSH1 0x20 PUSH1 0x0 KECCAK256 SWAP1 JUMPDEST DUP2 SLOAD DUP2 MSTORE SWAP1 PUSH1 0x1 ADD SWAP1 PUSH1 0x20 ADD DUP1 DUP4 GT PUSH2 0x754 JUMPI DUP3 SWAP1 SUB PUSH1 0x1F AND DUP3 ADD SWAP2 JUMPDEST POP POP POP POP POP SWAP1 DUP1 PUSH1 0x2 ADD DUP1 SLOAD PUSH2 0x786 SWAP1 PUSH2 0x3B13 JUMP JUMPDEST DUP1 PUSH1 0x1F ADD PUSH1 0x20 DUP1 SWAP2 DIV MUL PUSH1 0x20 ADD PUSH1 0x40 MLOAD SWAP1 DUP2 ADD PUSH1 0x40 MSTORE DUP1 SWAP3 SWAP2 SWAP1 DUP2 DUP2 MSTORE PUSH1 0x20 ADD DUP3 DUP1 SLOAD PUSH2 0x7B2 SWAP1 PUSH2 0x3B13 JUMP JUMPDEST DUP1 ISZERO PUSH2 0x7FF JUMPI DUP1 PUSH1 0x1F LT PUSH2 0x7D4 JUMPI PUSH2 0x100 DUP1 DUP4 SLOAD DIV MUL DUP4 MSTORE SWAP2 PUSH1 0x20 ADD SWAP2 PUSH2 0x7FF JUMP JUMPDEST DUP3 ADD SWAP2 SWAP1 PUSH1 0x0 MSTORE PUSH1 0x20 PUSH1 0x0 KECCAK256 SWAP1 JUMPDEST DUP2 SLOAD DUP2 MSTORE SWAP1 PUSH1 0x1 ADD SWAP1 PUSH1 0x20 ADD DUP1 DUP4 GT PUSH2 0x7E2 JUMPI DUP3 SWAP1 SUB PUSH1 0x1F AND DUP3 ADD SWAP2 JUMPDEST POP POP POP PUSH1 0x3 SWAP1 SWAP4 ADD SLOAD SWAP2 SWAP3 POP POP PUSH1 0xFF AND DUP5 JUMP JUMPDEST PUSH1 0x60 PUSH1 0x2 DUP1 SLOAD DUP1 PUSH1 0x20 MUL PUSH1 0x20 ADD PUSH1 0x40 MLOAD SWAP1 DUP2 ADD PUSH1 0x40 MSTORE DUP1 SWAP3 SWAP2 SWAP1 DUP2 DUP2 MSTORE PUSH1 0x20 ADD DUP3 DUP1 SLOAD DUP1 ISZERO PUSH2 0x86A JUMPI PUSH1 0x20 MUL DUP3 ADD SWAP2 SWAP1 PUSH1 0x0 MSTORE PUSH1 0x20 PUSH1 0x0 KECCAK256 SWAP1 JUMPDEST DUP2 SLOAD PUSH1 0x1 PUSH1 0x1 PUSH1 0xA0 SHL SUB AND DUP2 MSTORE PUSH1 0x1 SWAP1 SWAP2 ADD SWAP1 PUSH1 0x20 ADD DUP1 DUP4 GT PUSH2 0x84C JUMPI JUMPDEST POP POP POP POP POP SWAP1 POP SWAP1 JUMP JUMPDEST PUSH1 0x1 PUSH1 0x1 PUSH1 0xA0 SHL SUB DUP9 AND PUSH1 0x0 SWAP1 DUP2 MSTORE PUSH1 0x1 PUSH1 0x20 MSTORE PUSH1 0x40 SWAP1 KECCAK256 PUSH1 0x3 ADD SLOAD PUSH1 0xFF AND PUSH2 0x8AF JUMPI PUSH1 0x40 MLOAD PUSH3 0x461BCD PUSH1 0xE5 SHL DUP2 MSTORE PUSH1 0x4 ADD PUSH2 0x41B SWAP1 PUSH2 0x3ACD JUMP JUMPDEST PUSH1 0x2 DUP2 PUSH1 0xFF AND GT ISZERO PUSH2 0x8FB JUMPI PUSH1 0x40 MLOAD PUSH3 0x461BCD PUSH1 0xE5 SHL DUP2 MSTORE PUSH1 0x20 PUSH1 0x4 DUP3 ADD MSTORE PUSH1 0x15 PUSH1 0x24 DUP3 ADD MSTORE PUSH21 0x125B9D985B1A59081C1C9A5D9858DE481B195D995B PUSH1 0x5A SHL PUSH1 0x44 DUP3 ADD MSTORE PUSH1 0x64 ADD PUSH2 0x41B JUMP JUMPDEST DUP2 MLOAD ISZERO PUSH2 0x9CC JUMPI PUSH1 0x0 PUSH1 0x4 DUP4 PUSH1 0x40 MLOAD PUSH2 0x914 SWAP2 SWAP1 PUSH2 0x3B4D JUMP JUMPDEST SWAP1 DUP2 MSTORE PUSH1 0x20 ADD PUSH1 0x40 MLOAD DUP1 SWAP2 SUB SWAP1 KECCAK256 SLOAD SWAP1 POP PUSH1 0x0 PUSH1 0x3 PUSH1 0x0 DUP12 PUSH1 0x1 PUSH1 0x1 PUSH1 0xA0 SHL SUB AND PUSH1 0x1 PUSH1 0x1 PUSH1 0xA0 SHL SUB AND DUP2 MSTORE PUSH1 0x20 ADD SWAP1 DUP2 MSTORE PUSH1 0x20 ADD PUSH1 0x0 KECCAK256 DUP3 DUP2 SLOAD DUP2 LT PUSH2 0x95D JUMPI PUSH2 0x95D PUSH2 0x3AFD JUMP JUMPDEST SWAP1 PUSH1 0x0 MSTORE PUSH1 0x20 PUSH1 0x0 KECCAK256 SWAP1 PUSH1 0x9 MUL ADD PUSH1 0x6 ADD PUSH1 0x14 PUSH2 0x100 EXP DUP2 SLOAD DUP2 PUSH1 0xFF MUL NOT AND SWAP1 DUP4 ISZERO ISZERO MUL OR SWAP1 SSTORE POP DUP9 PUSH1 0x1 PUSH1 0x1 PUSH1 0xA0 SHL SUB AND PUSH32 0x265A47E189BDAF1E4E75CA93474DBA2AD21591BB54B62E3B8633029A440DCBF6 DUP5 DUP11 TIMESTAMP PUSH1 0x40 MLOAD PUSH2 0x9C2 SWAP4 SWAP3 SWAP2 SWAP1 PUSH2 0x3B69 JUMP JUMPDEST PUSH1 0x40 MLOAD DUP1 SWAP2 SUB SWAP1 LOG2 POP JUMPDEST PUSH1 0x40 DUP1 MLOAD PUSH2 0x140 DUP2 ADD DUP3 MSTORE DUP9 DUP2 MSTORE PUSH1 0x20 DUP1 DUP3 ADD DUP10 SWAP1 MSTORE DUP2 DUP4 ADD DUP9 SWAP1 MSTORE PUSH1 0x60 DUP3 ADD DUP8 SWAP1 MSTORE PUSH1 0x80 DUP3 ADD DUP7 SWAP1 MSTORE TIMESTAMP PUSH1 0xA0 DUP4 ADD MSTORE CALLER PUSH1 0xC0 DUP4 ADD MSTORE PUSH1 0x1 PUSH1 0xE0 DUP4 ADD DUP2 SWAP1 MSTORE PUSH2 0x100 DUP4 ADD DUP7 SWAP1 MSTORE PUSH1 0xFF DUP6 AND PUSH2 0x120 DUP5 ADD MSTORE PUSH1 0x1 PUSH1 0x1 PUSH1 0xA0 SHL SUB DUP13 AND PUSH1 0x0 SWAP1 DUP2 MSTORE PUSH1 0x3 DUP4 MSTORE SWAP4 DUP5 KECCAK256 DUP1 SLOAD SWAP2 DUP3 ADD DUP2 SSTORE DUP5 MSTORE SWAP3 KECCAK256 DUP2 MLOAD SWAP2 SWAP3 DUP4 SWAP3 PUSH1 0x9 SWAP1 SWAP2 MUL SWAP1 SWAP2 ADD SWAP1 DUP2 SWAP1 PUSH2 0xA59 SWAP1 DUP3 PUSH2 0x3BEF JUMP JUMPDEST POP PUSH1 0x20 DUP3 ADD MLOAD PUSH1 0x1 DUP3 ADD SWAP1 PUSH2 0xA6E SWAP1 DUP3 PUSH2 0x3BEF JUMP JUMPDEST POP PUSH1 0x40 DUP3 ADD MLOAD PUSH1 0x2 DUP3 ADD SWAP1 PUSH2 0xA83 SWAP1 DUP3 PUSH2 0x3BEF JUMP JUMPDEST POP PUSH1 0x60 DUP3 ADD MLOAD PUSH1 0x3 DUP3 ADD SWAP1 PUSH2 0xA98 SWAP1 DUP3 PUSH2 0x3BEF JUMP JUMPDEST POP PUSH1 0x80 DUP3 ADD MLOAD PUSH1 0x4 DUP3 ADD SWAP1 PUSH2 0xAAD SWAP1 DUP3 PUSH2 0x3BEF JUMP JUMPDEST POP PUSH1 0xA0 DUP3 ADD MLOAD PUSH1 0x5 DUP3 ADD SSTORE PUSH1 0xC0 DUP3 ADD MLOAD PUSH1 0x6 DUP3 ADD DUP1 SLOAD PUSH1 0xE0 DUP6 ADD MLOAD ISZERO ISZERO PUSH1 0x1 PUSH1 0xA0 SHL MUL PUSH1 0x1 PUSH1 0x1 PUSH1 0xA8 SHL SUB NOT SWAP1 SWAP2 AND PUSH1 0x1 PUSH1 0x1 PUSH1 0xA0 SHL SUB SWAP1 SWAP4 AND SWAP3 SWAP1 SWAP3 OR SWAP2 SWAP1 SWAP2 OR SWAP1 SSTORE PUSH2 0x100 DUP3 ADD MLOAD PUSH1 0x7 DUP3 ADD SWAP1 PUSH2 0xB06 SWAP1 DUP3 PUSH2 0x3BEF JUMP JUMPDEST POP PUSH2 0x120 SWAP2 SWAP1 SWAP2 ADD MLOAD PUSH1 0x8 SWAP1 SWAP2 ADD DUP1 SLOAD PUSH1 0xFF NOT AND PUSH1 0xFF SWAP1 SWAP3 AND SWAP2 SWAP1 SWAP2 OR SWAP1 SSTORE PUSH1 0x1 PUSH1 0x1 PUSH1 0xA0 SHL SUB DUP10 AND PUSH1 0x0 SWAP1 DUP2 MSTORE PUSH1 0x3 PUSH1 0x20 MSTORE PUSH1 0x40 SWAP1 KECCAK256 SLOAD PUSH2 0xB4A SWAP1 PUSH1 0x1 SWAP1 PUSH2 0x3CC5 JUMP JUMPDEST PUSH1 0x4 DUP10 PUSH1 0x40 MLOAD PUSH2 0xB5A SWAP2 SWAP1 PUSH2 0x3B4D JUMP JUMPDEST SWAP1 DUP2 MSTORE PUSH1 0x20 ADD PUSH1 0x40 MLOAD DUP1 SWAP2 SUB SWAP1 KECCAK256 DUP2 SWAP1 SSTORE POP CALLER PUSH1 0x1 PUSH1 0x1 PUSH1 0xA0 SHL SUB AND DUP10 PUSH1 0x1 PUSH1 0x1 PUSH1 0xA0 SHL SUB AND PUSH32 0x77F7FBC747AD443F3EA5F507ABBC21D187ECB84679A348CBD91C6FBCFD405C28 DUP11 TIMESTAMP DUP7 PUSH1 0x40 MLOAD PUSH2 0xBB3 SWAP4 SWAP3 SWAP2 SWAP1 PUSH2 0x3CDE JUMP JUMPDEST PUSH1 0x40 MLOAD DUP1 SWAP2 SUB SWAP1 LOG3 PUSH1 0x9 SLOAD PUSH1 0x1 PUSH1 0x1 PUSH1 0xA0 SHL SUB AND ISZERO PUSH2 0xC2D JUMPI PUSH1 0x9 SLOAD PUSH1 0x40 MLOAD PUSH4 0xBFF45139 PUSH1 0xE0 SHL DUP2 MSTORE PUSH1 0x1 PUSH1 0x1 PUSH1 0xA0 SHL SUB SWAP1 SWAP2 AND SWAP1 PUSH4 0xBFF45139 SWAP1 PUSH2 0xC00 SWAP1 CALLER SWAP1 DUP14 SWAP1 DUP14 SWAP1 PUSH1 0x4 ADD PUSH2 0x3D0A JUMP JUMPDEST PUSH1 0x0 PUSH1 0x40 MLOAD DUP1 DUP4 SUB DUP2 PUSH1 0x0 DUP8 DUP1 EXTCODESIZE ISZERO DUP1 ISZERO PUSH2 0xC1A JUMPI PUSH1 0x0 DUP1 REVERT JUMPDEST POP GAS CALL SWAP3 POP POP POP DUP1 ISZERO PUSH2 0xC2B JUMPI POP PUSH1 0x1 JUMPDEST POP JUMPDEST POP POP POP POP POP POP POP POP POP JUMP JUMPDEST PUSH1 0x0 SLOAD PUSH1 0x1 PUSH1 0x1 PUSH1 0xA0 SHL SUB AND CALLER EQ PUSH2 0xC62 JUMPI PUSH1 0x40 MLOAD PUSH3 0x461BCD PUSH1 0xE5 SHL DUP2 MSTORE PUSH1 0x4 ADD PUSH2 0x41B SWAP1 PUSH2 0x3D63 JUMP JUMPDEST PUSH1 0x7 DUP1 SLOAD PUSH1 0x1 PUSH1 0x1 PUSH1 0xA0 SHL SUB NOT AND PUSH1 0x1 PUSH1 0x1 PUSH1 0xA0 SHL SUB SWAP3 SWAP1 SWAP3 AND SWAP2 SWAP1 SWAP2 OR SWAP1 SSTORE JUMP JUMPDEST PUSH1 0x0 SLOAD PUSH1 0x1 PUSH1 0x1 PUSH1 0xA0 SHL SUB AND CALLER EQ PUSH2 0xCAE JUMPI PUSH1 0x40 MLOAD PUSH3 0x461BCD PUSH1 0xE5 SHL DUP2 MSTORE PUSH1 0x4 ADD PUSH2 0x41B SWAP1 PUSH2 0x3D63 JUMP JUMPDEST PUSH1 0x6 DUP1 SLOAD PUSH1 0x1 PUSH1 0x1 PUSH1 0xA0 SHL SUB NOT AND PUSH1 0x1 PUSH1 0x1 PUSH1 0xA0 SHL SUB SWAP3 SWAP1 SWAP3 AND SWAP2 SWAP1 SWAP2 OR SWAP1 SSTORE JUMP JUMPDEST CALLER PUSH1 0x0 SWAP1 DUP2 MSTORE PUSH1 0x1 PUSH1 0x20 MSTORE PUSH1 0x40 SWAP1 KECCAK256 PUSH1 0x3 ADD SLOAD PUSH1 0xFF AND PUSH2 0xD23 JUMPI PUSH1 0x40 MLOAD PUSH3 0x461BCD PUSH1 0xE5 SHL DUP2 MSTORE PUSH1 0x20 PUSH1 0x4 DUP3 ADD MSTORE PUSH1 0xE PUSH1 0x24 DUP3 ADD MSTORE PUSH14 0x14D95B99195C881A5B9D985B1A59 PUSH1 0x92 SHL PUSH1 0x44 DUP3 ADD MSTORE PUSH1 0x64 ADD PUSH2 0x41B JUMP JUMPDEST CALLER PUSH1 0x0 DUP2 DUP2 MSTORE PUSH1 0x5 PUSH1 0x20 SWAP1 DUP2 MSTORE PUSH1 0x40 DUP1 DUP4 KECCAK256 PUSH1 0x1 PUSH1 0x1 PUSH1 0xA0 SHL SUB DUP7 AND DUP1 DUP6 MSTORE SWAP3 MSTORE DUP1 DUP4 KECCAK256 DUP4 SWAP1 SSTORE MLOAD SWAP1 SWAP3 SWAP2 PUSH32 0x825C8BE24EB0DF19500F63E86C29E7D0D951E73056B889B891D85E40938D9B6E SWAP2 LOG3 PUSH1 0x6 SLOAD PUSH1 0x1 PUSH1 0x1 PUSH1 0xA0 SHL SUB AND ISZERO PUSH2 0xDE2 JUMPI PUSH1 0x6 SLOAD PUSH1 0x40 MLOAD PUSH4 0xBBC3861 PUSH1 0xE1 SHL DUP2 MSTORE PUSH1 0x1 PUSH1 0x1 PUSH1 0xA0 SHL SUB DUP4 DUP2 AND PUSH1 0x4 DUP4 ADD MSTORE CALLER PUSH1 0x24 DUP4 ADD MSTORE SWAP1 SWAP2 AND SWAP1 PUSH4 0x177870C2 SWAP1 PUSH1 0x44 ADD PUSH1 0x0 PUSH1 0x40 MLOAD DUP1 DUP4 SUB DUP2 PUSH1 0x0 DUP8 DUP1 EXTCODESIZE ISZERO DUP1 ISZERO PUSH2 0xDCF JUMPI PUSH1 0x0 DUP1 REVERT JUMPDEST POP GAS CALL SWAP3 POP POP POP DUP1 ISZERO PUSH2 0xDE0 JUMPI POP PUSH1 0x1 JUMPDEST POP JUMPDEST PUSH1 0x7 SLOAD PUSH1 0x1 PUSH1 0x1 PUSH1 0xA0 SHL SUB AND ISZERO PUSH2 0xE53 JUMPI PUSH1 0x7 SLOAD PUSH1 0x40 MLOAD PUSH4 0xBBC3861 PUSH1 0xE1 SHL DUP2 MSTORE PUSH1 0x1 PUSH1 0x1 PUSH1 0xA0 SHL SUB DUP4 DUP2 AND PUSH1 0x4 DUP4 ADD MSTORE CALLER PUSH1 0x24 DUP4 ADD MSTORE SWAP1 SWAP2 AND SWAP1 PUSH4 0x177870C2 SWAP1 PUSH1 0x44 ADD PUSH1 0x0 PUSH1 0x40 MLOAD DUP1 DUP4 SUB DUP2 PUSH1 0x0 DUP8 DUP1 EXTCODESIZE ISZERO DUP1 ISZERO PUSH2 0xE40 JUMPI PUSH1 0x0 DUP1 REVERT JUMPDEST POP GAS CALL SWAP3 POP POP POP DUP1 ISZERO PUSH2 0xE51 JUMPI POP PUSH1 0x1 JUMPDEST POP JUMPDEST PUSH1 0x8 SLOAD PUSH1 0x1 PUSH1 0x1 PUSH1 0xA0 SHL SUB AND ISZERO PUSH2 0xEC4 JUMPI PUSH1 0x8 SLOAD PUSH1 0x40 MLOAD PUSH4 0xBBC3861 PUSH1 0xE1 SHL DUP2 MSTORE PUSH1 0x1 PUSH1 0x1 PUSH1 0xA0 SHL SUB DUP4 DUP2 AND PUSH1 0x4 DUP4 ADD MSTORE CALLER PUSH1 0x24 DUP4 ADD MSTORE SWAP1 SWAP2 AND SWAP1 PUSH4 0x177870C2 SWAP1 PUSH1 0x44 ADD PUSH1 0x0 PUSH1 0x40 MLOAD DUP1 DUP4 SUB DUP2 PUSH1 0x0 DUP8 DUP1 EXTCODESIZE ISZERO DUP1 ISZERO PUSH2 0xEB1 JUMPI PUSH1 0x0 DUP1 REVERT JUMPDEST POP GAS CALL SWAP3 POP POP POP DUP1 ISZERO PUSH2 0xEC2 JUMPI POP PUSH1 0x1 JUMPDEST POP JUMPDEST PUSH1 0x9 SLOAD PUSH1 0x1 PUSH1 0x1 PUSH1 0xA0 SHL SUB AND ISZERO PUSH2 0xF7F JUMPI PUSH1 0x9 SLOAD PUSH1 0x40 MLOAD PUSH4 0xBFF45139 PUSH1 0xE0 SHL DUP2 MSTORE CALLER PUSH1 0x4 DUP3 ADD MSTORE PUSH1 0x80 PUSH1 0x24 DUP3 ADD MSTORE PUSH1 0xE PUSH1 0x84 DUP3 ADD MSTORE PUSH14 0x1050D0D154D4D7D4915593D2D151 PUSH1 0x92 SHL PUSH1 0xA4 DUP3 ADD MSTORE PUSH1 0x1 PUSH1 0x1 PUSH1 0xA0 SHL SUB DUP4 DUP2 AND PUSH1 0x44 DUP4 ADD MSTORE PUSH1 0xC0 PUSH1 0x64 DUP4 ADD MSTORE PUSH1 0xD PUSH1 0xC4 DUP4 ADD MSTORE PUSH13 0x4D616E75616C205265766F6B65 PUSH1 0x98 SHL PUSH1 0xE4 DUP4 ADD MSTORE SWAP1 SWAP2 AND SWAP1 PUSH4 0xBFF45139 SWAP1 PUSH2 0x104 ADD PUSH1 0x0 PUSH1 0x40 MLOAD DUP1 DUP4 SUB DUP2 PUSH1 0x0 DUP8 DUP1 EXTCODESIZE ISZERO DUP1 ISZERO PUSH2 0xF6C JUMPI PUSH1 0x0 DUP1 REVERT JUMPDEST POP GAS CALL SWAP3 POP POP POP DUP1 ISZERO PUSH2 0xF7D JUMPI POP PUSH1 0x1 JUMPDEST POP JUMPDEST POP JUMP JUMPDEST PUSH1 0x0 SLOAD PUSH1 0x1 PUSH1 0x1 PUSH1 0xA0 SHL SUB AND CALLER EQ PUSH2 0xFAC JUMPI PUSH1 0x40 MLOAD PUSH3 0x461BCD PUSH1 0xE5 SHL DUP2 MSTORE PUSH1 0x4 ADD PUSH2 0x41B SWAP1 PUSH2 0x3D63 JUMP JUMPDEST PUSH1 0x9 DUP1 SLOAD PUSH1 0x1 PUSH1 0x1 PUSH1 0xA0 SHL SUB NOT AND PUSH1 0x1 PUSH1 0x1 PUSH1 0xA0 SHL SUB SWAP3 SWAP1 SWAP3 AND SWAP2 SWAP1 SWAP2 OR SWAP1 SSTORE JUMP JUMPDEST PUSH1 0x3 PUSH1 0x20 MSTORE DUP2 PUSH1 0x0 MSTORE PUSH1 0x40 PUSH1 0x0 KECCAK256 DUP2 DUP2 SLOAD DUP2 LT PUSH2 0xFEA JUMPI PUSH1 0x0 DUP1 REVERT JUMPDEST SWAP1 PUSH1 0x0 MSTORE PUSH1 0x20 PUSH1 0x0 KECCAK256 SWAP1 PUSH1 0x9 MUL ADD PUSH1 0x0 SWAP2 POP SWAP2 POP POP DUP1 PUSH1 0x0 ADD DUP1 SLOAD PUSH2 0x100E SWAP1 PUSH2 0x3B13 JUMP JUMPDEST DUP1 PUSH1 0x1F ADD PUSH1 0x20 DUP1 SWAP2 DIV MUL PUSH1 0x20 ADD PUSH1 0x40 MLOAD SWAP1 DUP2 ADD PUSH1 0x40 MSTORE DUP1 SWAP3 SWAP2 SWAP1 DUP2 DUP2 MSTORE PUSH1 0x20 ADD DUP3 DUP1 SLOAD PUSH2 0x103A SWAP1 PUSH2 0x3B13 JUMP JUMPDEST DUP1 ISZERO PUSH2 0x1087 JUMPI DUP1 PUSH1 0x1F LT PUSH2 0x105C JUMPI PUSH2 0x100 DUP1 DUP4 SLOAD DIV MUL DUP4 MSTORE SWAP2 PUSH1 0x20 ADD SWAP2 PUSH2 0x1087 JUMP JUMPDEST DUP3 ADD SWAP2 SWAP1 PUSH1 0x0 MSTORE PUSH1 0x20 PUSH1 0x0 KECCAK256 SWAP1 JUMPDEST DUP2 SLOAD DUP2 MSTORE SWAP1 PUSH1 0x1 ADD SWAP1 PUSH1 0x20 ADD DUP1 DUP4 GT PUSH2 0x106A JUMPI DUP3 SWAP1 SUB PUSH1 0x1F AND DUP3 ADD SWAP2 JUMPDEST POP POP POP POP POP SWAP1 DUP1 PUSH1 0x1 ADD DUP1 SLOAD PUSH2 0x109C SWAP1 PUSH2 0x3B13 JUMP JUMPDEST DUP1 PUSH1 0x1F ADD PUSH1 0x20 DUP1 SWAP2 DIV MUL PUSH1 0x20 ADD PUSH1 0x40 MLOAD SWAP1 DUP2 ADD PUSH1 0x40 MSTORE DUP1 SWAP3 SWAP2 SWAP1 DUP2 DUP2 MSTORE PUSH1 0x20 ADD DUP3 DUP1 SLOAD PUSH2 0x10C8 SWAP1 PUSH2 0x3B13 JUMP JUMPDEST DUP1 ISZERO PUSH2 0x1115 JUMPI DUP1 PUSH1 0x1F LT PUSH2 0x10EA JUMPI PUSH2 0x100 DUP1 DUP4 SLOAD DIV MUL DUP4 MSTORE SWAP2 PUSH1 0x20 ADD SWAP2 PUSH2 0x1115 JUMP JUMPDEST DUP3 ADD SWAP2 SWAP1 PUSH1 0x0 MSTORE PUSH1 0x20 PUSH1 0x0 KECCAK256 SWAP1 JUMPDEST DUP2 SLOAD DUP2 MSTORE SWAP1 PUSH1 0x1 ADD SWAP1 PUSH1 0x20 ADD DUP1 DUP4 GT PUSH2 0x10F8 JUMPI DUP3 SWAP1 SUB PUSH1 0x1F AND DUP3 ADD SWAP2 JUMPDEST POP POP POP POP POP SWAP1 DUP1 PUSH1 0x2 ADD DUP1 SLOAD PUSH2 0x112A SWAP1 PUSH2 0x3B13 JUMP JUMPDEST DUP1 PUSH1 0x1F ADD PUSH1 0x20 DUP1 SWAP2 DIV MUL PUSH1 0x20 ADD PUSH1 0x40 MLOAD SWAP1 DUP2 ADD PUSH1 0x40 MSTORE DUP1 SWAP3 SWAP2 SWAP1 DUP2 DUP2 MSTORE PUSH1 0x20 ADD DUP3 DUP1 SLOAD PUSH2 0x1156 SWAP1 PUSH2 0x3B13 JUMP JUMPDEST DUP1 ISZERO PUSH2 0x11A3 JUMPI DUP1 PUSH1 0x1F LT PUSH2 0x1178 JUMPI PUSH2 0x100 DUP1 DUP4 SLOAD DIV MUL DUP4 MSTORE SWAP2 PUSH1 0x20 ADD SWAP2 PUSH2 0x11A3 JUMP JUMPDEST DUP3 ADD SWAP2 SWAP1 PUSH1 0x0 MSTORE PUSH1 0x20 PUSH1 0x0 KECCAK256 SWAP1 JUMPDEST DUP2 SLOAD DUP2 MSTORE SWAP1 PUSH1 0x1 ADD SWAP1 PUSH1 0x20 ADD DUP1 DUP4 GT PUSH2 0x1186 JUMPI DUP3 SWAP1 SUB PUSH1 0x1F AND DUP3 ADD SWAP2 JUMPDEST POP POP POP POP POP SWAP1 DUP1 PUSH1 0x3 ADD DUP1 SLOAD PUSH2 0x11B8 SWAP1 PUSH2 0x3B13 JUMP JUMPDEST DUP1 PUSH1 0x1F ADD PUSH1 0x20 DUP1 SWAP2 DIV MUL PUSH1 0x20 ADD PUSH1 0x40 MLOAD SWAP1 DUP2 ADD PUSH1 0x40 MSTORE DUP1 SWAP3 SWAP2 SWAP1 DUP2 DUP2 MSTORE PUSH1 0x20 ADD DUP3 DUP1 SLOAD PUSH2 0x11E4 SWAP1 PUSH2 0x3B13 JUMP JUMPDEST DUP1 ISZERO PUSH2 0x1231 JUMPI DUP1 PUSH1 0x1F LT PUSH2 0x1206 JUMPI PUSH2 0x100 DUP1 DUP4 SLOAD DIV MUL DUP4 MSTORE SWAP2 PUSH1 0x20 ADD SWAP2 PUSH2 0x1231 JUMP JUMPDEST DUP3 ADD SWAP2 SWAP1 PUSH1 0x0 MSTORE PUSH1 0x20 PUSH1 0x0 KECCAK256 SWAP1 JUMPDEST DUP2 SLOAD DUP2 MSTORE SWAP1 PUSH1 0x1 ADD SWAP1 PUSH1 0x20 ADD DUP1 DUP4 GT PUSH2 0x1214 JUMPI DUP3 SWAP1 SUB PUSH1 0x1F AND DUP3 ADD SWAP2 JUMPDEST POP POP POP POP POP SWAP1 DUP1 PUSH1 0x4 ADD DUP1 SLOAD PUSH2 0x1246 SWAP1 PUSH2 0x3B13 JUMP JUMPDEST DUP1 PUSH1 0x1F ADD PUSH1 0x20 DUP1 SWAP2 DIV MUL PUSH1 0x20 ADD PUSH1 0x40 MLOAD SWAP1 DUP2 ADD PUSH1 0x40 MSTORE DUP1 SWAP3 SWAP2 SWAP1 DUP2 DUP2 MSTORE PUSH1 0x20 ADD DUP3 DUP1 SLOAD PUSH2 0x1272 SWAP1 PUSH2 0x3B13 JUMP JUMPDEST DUP1 ISZERO PUSH2 0x12BF JUMPI DUP1 PUSH1 0x1F LT PUSH2 0x1294 JUMPI PUSH2 0x100 DUP1 DUP4 SLOAD DIV MUL DUP4 MSTORE SWAP2 PUSH1 0x20 ADD SWAP2 PUSH2 0x12BF JUMP JUMPDEST DUP3 ADD SWAP2 SWAP1 PUSH1 0x0 MSTORE PUSH1 0x20 PUSH1 0x0 KECCAK256 SWAP1 JUMPDEST DUP2 SLOAD DUP2 MSTORE SWAP1 PUSH1 0x1 ADD SWAP1 PUSH1 0x20 ADD DUP1 DUP4 GT PUSH2 0x12A2 JUMPI DUP3 SWAP1 SUB PUSH1 0x1F AND DUP3 ADD SWAP2 JUMPDEST POP POP POP POP PUSH1 0x5 DUP4 ADD SLOAD PUSH1 0x6 DUP5 ADD SLOAD PUSH1 0x7 DUP6 ADD DUP1 SLOAD SWAP5 SWAP6 SWAP3 SWAP5 PUSH1 0x1 PUSH1 0x1 PUSH1 0xA0 SHL SUB DUP4 AND SWAP5 POP PUSH1 0x1 PUSH1 0xA0 SHL SWAP1 SWAP3 DIV PUSH1 0xFF AND SWAP3 SWAP2 PUSH2 0x12F9 SWAP1 PUSH2 0x3B13 JUMP JUMPDEST DUP1 PUSH1 0x1F ADD PUSH1 0x20 DUP1 SWAP2 DIV MUL PUSH1 0x20 ADD PUSH1 0x40 MLOAD SWAP1 DUP2 ADD PUSH1 0x40 MSTORE DUP1 SWAP3 SWAP2 SWAP1 DUP2 DUP2 MSTORE PUSH1 0x20 ADD DUP3 DUP1 SLOAD PUSH2 0x1325 SWAP1 PUSH2 0x3B13 JUMP JUMPDEST DUP1 ISZERO PUSH2 0x1372 JUMPI DUP1 PUSH1 0x1F LT PUSH2 0x1347 JUMPI PUSH2 0x100 DUP1 DUP4 SLOAD DIV MUL DUP4 MSTORE SWAP2 PUSH1 0x20 ADD SWAP2 PUSH2 0x1372 JUMP JUMPDEST DUP3 ADD SWAP2 SWAP1 PUSH1 0x0 MSTORE PUSH1 0x20 PUSH1 0x0 KECCAK256 SWAP1 JUMPDEST DUP2 SLOAD DUP2 MSTORE SWAP1 PUSH1 0x1 ADD SWAP1 PUSH1 0x20 ADD DUP1 DUP4 GT PUSH2 0x1355 JUMPI DUP3 SWAP1 SUB PUSH1 0x1F AND DUP3 ADD SWAP2 JUMPDEST POP POP POP PUSH1 0x8 SWAP1 SWAP4 ADD SLOAD SWAP2 SWAP3 POP POP PUSH1 0xFF AND DUP11 JUMP JUMPDEST CALLER PUSH1 0x0 SWAP1 DUP2 MSTORE PUSH1 0x1 PUSH1 0x20 MSTORE PUSH1 0x40 SWAP1 KECCAK256 PUSH1 0x3 ADD SLOAD PUSH1 0xFF AND PUSH2 0x13D8 JUMPI PUSH1 0x40 MLOAD PUSH3 0x461BCD PUSH1 0xE5 SHL DUP2 MSTORE PUSH1 0x20 PUSH1 0x4 DUP3 ADD MSTORE PUSH1 0xE PUSH1 0x24 DUP3 ADD MSTORE PUSH14 0x14D95B99195C881A5B9D985B1A59 PUSH1 0x92 SHL PUSH1 0x44 DUP3 ADD MSTORE PUSH1 0x64 ADD PUSH2 0x41B JUMP JUMPDEST PUSH1 0x1 PUSH1 0x1 PUSH1 0xA0 SHL SUB DUP3 AND PUSH2 0x1427 JUMPI PUSH1 0x40 MLOAD PUSH3 0x461BCD PUSH1 0xE5 SHL DUP2 MSTORE PUSH1 0x20 PUSH1 0x4 DUP3 ADD MSTORE PUSH1 0x16 PUSH1 0x24 DUP3 ADD MSTORE PUSH22 0x496E76616C6964207669657765722061646472657373 PUSH1 0x50 SHL PUSH1 0x44 DUP3 ADD MSTORE PUSH1 0x64 ADD PUSH2 0x41B JUMP JUMPDEST PUSH2 0x1431 DUP2 TIMESTAMP PUSH2 0x3DA4 JUMP JUMPDEST CALLER PUSH1 0x0 DUP2 DUP2 MSTORE PUSH1 0x5 PUSH1 0x20 SWAP1 DUP2 MSTORE PUSH1 0x40 DUP1 DUP4 KECCAK256 PUSH1 0x1 PUSH1 0x1 PUSH1 0xA0 SHL SUB DUP9 AND DUP1 DUP6 MSTORE SWAP3 MSTORE SWAP1 SWAP2 KECCAK256 SWAP3 SWAP1 SWAP3 SSTORE PUSH32 0x65D0CC1E52D49938CA4AD9F423C79C1B84D914B9A683FBC5D3F93AC3CC5635F5 PUSH2 0x1484 DUP5 TIMESTAMP PUSH2 0x3DA4 JUMP JUMPDEST PUSH1 0x40 MLOAD SWAP1 DUP2 MSTORE PUSH1 0x20 ADD PUSH1 0x40 MLOAD DUP1 SWAP2 SUB SWAP1 LOG3 PUSH1 0x6 SLOAD PUSH1 0x1 PUSH1 0x1 PUSH1 0xA0 SHL SUB AND ISZERO PUSH2 0x1506 JUMPI PUSH1 0x6 SLOAD PUSH1 0x40 MLOAD PUSH4 0x1FE8431 PUSH1 0xE3 SHL DUP2 MSTORE PUSH1 0x1 PUSH1 0x1 PUSH1 0xA0 SHL SUB DUP5 DUP2 AND PUSH1 0x4 DUP4 ADD MSTORE CALLER PUSH1 0x24 DUP4 ADD MSTORE SWAP1 SWAP2 AND SWAP1 PUSH4 0xFF42188 SWAP1 PUSH1 0x44 ADD PUSH1 0x0 PUSH1 0x40 MLOAD DUP1 DUP4 SUB DUP2 PUSH1 0x0 DUP8 DUP1 EXTCODESIZE ISZERO DUP1 ISZERO PUSH2 0x14F3 JUMPI PUSH1 0x0 DUP1 REVERT JUMPDEST POP GAS CALL SWAP3 POP POP POP DUP1 ISZERO PUSH2 0x1504 JUMPI POP PUSH1 0x1 JUMPDEST POP JUMPDEST PUSH1 0x7 SLOAD PUSH1 0x1 PUSH1 0x1 PUSH1 0xA0 SHL SUB AND ISZERO PUSH2 0x1577 JUMPI PUSH1 0x7 SLOAD PUSH1 0x40 MLOAD PUSH4 0x1FE8431 PUSH1 0xE3 SHL DUP2 MSTORE PUSH1 0x1 PUSH1 0x1 PUSH1 0xA0 SHL SUB DUP5 DUP2 AND PUSH1 0x4 DUP4 ADD MSTORE CALLER PUSH1 0x24 DUP4 ADD MSTORE SWAP1 SWAP2 AND SWAP1 PUSH4 0xFF42188 SWAP1 PUSH1 0x44 ADD PUSH1 0x0 PUSH1 0x40 MLOAD DUP1 DUP4 SUB DUP2 PUSH1 0x0 DUP8 DUP1 EXTCODESIZE ISZERO DUP1 ISZERO PUSH2 0x1564 JUMPI PUSH1 0x0 DUP1 REVERT JUMPDEST POP GAS CALL SWAP3 POP POP POP DUP1 ISZERO PUSH2 0x1575 JUMPI POP PUSH1 0x1 JUMPDEST POP JUMPDEST PUSH1 0x8 SLOAD PUSH1 0x1 PUSH1 0x1 PUSH1 0xA0 SHL SUB AND ISZERO PUSH2 0x15E8 JUMPI PUSH1 0x8 SLOAD PUSH1 0x40 MLOAD PUSH4 0x1FE8431 PUSH1 0xE3 SHL DUP2 MSTORE PUSH1 0x1 PUSH1 0x1 PUSH1 0xA0 SHL SUB DUP5 DUP2 AND PUSH1 0x4 DUP4 ADD MSTORE CALLER PUSH1 0x24 DUP4 ADD MSTORE SWAP1 SWAP2 AND SWAP1 PUSH4 0xFF42188 SWAP1 PUSH1 0x44 ADD PUSH1 0x0 PUSH1 0x40 MLOAD DUP1 DUP4 SUB DUP2 PUSH1 0x0 DUP8 DUP1 EXTCODESIZE ISZERO DUP1 ISZERO PUSH2 0x15D5 JUMPI PUSH1 0x0 DUP1 REVERT JUMPDEST POP GAS CALL SWAP3 POP POP POP DUP1 ISZERO PUSH2 0x15E6 JUMPI POP PUSH1 0x1 JUMPDEST POP JUMPDEST CALLER PUSH1 0x0 SWAP1 DUP2 MSTORE PUSH1 0xA PUSH1 0x20 MSTORE PUSH1 0x40 DUP2 KECCAK256 SWAP1 JUMPDEST DUP2 SLOAD DUP2 LT ISZERO PUSH2 0x16F5 JUMPI DUP4 PUSH1 0x1 PUSH1 0x1 PUSH1 0xA0 SHL SUB AND DUP3 DUP3 DUP2 SLOAD DUP2 LT PUSH2 0x161E JUMPI PUSH2 0x161E PUSH2 0x3AFD JUMP JUMPDEST PUSH1 0x0 SWAP2 DUP3 MSTORE PUSH1 0x20 SWAP1 SWAP2 KECCAK256 ADD SLOAD PUSH1 0x1 PUSH1 0x1 PUSH1 0xA0 SHL SUB AND SUB PUSH2 0x16ED JUMPI DUP2 SLOAD DUP3 SWAP1 PUSH2 0x1648 SWAP1 PUSH1 0x1 SWAP1 PUSH2 0x3CC5 JUMP JUMPDEST DUP2 SLOAD DUP2 LT PUSH2 0x1658 JUMPI PUSH2 0x1658 PUSH2 0x3AFD JUMP JUMPDEST SWAP1 PUSH1 0x0 MSTORE PUSH1 0x20 PUSH1 0x0 KECCAK256 ADD PUSH1 0x0 SWAP1 SLOAD SWAP1 PUSH2 0x100 EXP SWAP1 DIV PUSH1 0x1 PUSH1 0x1 PUSH1 0xA0 SHL SUB AND DUP3 DUP3 DUP2 SLOAD DUP2 LT PUSH2 0x1688 JUMPI PUSH2 0x1688 PUSH2 0x3AFD JUMP JUMPDEST SWAP1 PUSH1 0x0 MSTORE PUSH1 0x20 PUSH1 0x0 KECCAK256 ADD PUSH1 0x0 PUSH2 0x100 EXP DUP2 SLOAD DUP2 PUSH1 0x1 PUSH1 0x1 PUSH1 0xA0 SHL SUB MUL NOT AND SWAP1 DUP4 PUSH1 0x1 PUSH1 0x1 PUSH1 0xA0 SHL SUB AND MUL OR SWAP1 SSTORE POP DUP2 DUP1 SLOAD DUP1 PUSH2 0x16C6 JUMPI PUSH2 0x16C6 PUSH2 0x3DB7 JUMP JUMPDEST PUSH1 0x0 DUP3 DUP2 MSTORE PUSH1 0x20 SWAP1 KECCAK256 DUP2 ADD PUSH1 0x0 NOT SWAP1 DUP2 ADD DUP1 SLOAD PUSH1 0x1 PUSH1 0x1 PUSH1 0xA0 SHL SUB NOT AND SWAP1 SSTORE ADD SWAP1 SSTORE PUSH2 0x16F5 JUMP JUMPDEST PUSH1 0x1 ADD PUSH2 0x15F9 JUMP JUMPDEST POP PUSH1 0x9 SLOAD PUSH1 0x1 PUSH1 0x1 PUSH1 0xA0 SHL SUB AND ISZERO PUSH2 0x17B1 JUMPI PUSH1 0x9 SLOAD PUSH1 0x40 MLOAD PUSH4 0xBFF45139 PUSH1 0xE0 SHL DUP2 MSTORE CALLER PUSH1 0x4 DUP3 ADD MSTORE PUSH1 0x80 PUSH1 0x24 DUP3 ADD MSTORE PUSH1 0xE PUSH1 0x84 DUP3 ADD MSTORE PUSH14 0x1050D0D154D4D7D1D49053951151 PUSH1 0x92 SHL PUSH1 0xA4 DUP3 ADD MSTORE PUSH1 0x1 PUSH1 0x1 PUSH1 0xA0 SHL SUB DUP6 DUP2 AND PUSH1 0x44 DUP4 ADD MSTORE PUSH1 0xC0 PUSH1 0x64 DUP4 ADD MSTORE PUSH1 0xD PUSH1 0xC4 DUP4 ADD MSTORE PUSH13 0x37204461797320416363657373 PUSH1 0x98 SHL PUSH1 0xE4 DUP4 ADD MSTORE SWAP1 SWAP2 AND SWAP1 PUSH4 0xBFF45139 SWAP1 PUSH2 0x104 ADD PUSH1 0x0 PUSH1 0x40 MLOAD DUP1 DUP4 SUB DUP2 PUSH1 0x0 DUP8 DUP1 EXTCODESIZE ISZERO DUP1 ISZERO PUSH2 0x179E JUMPI PUSH1 0x0 DUP1 REVERT JUMPDEST POP GAS CALL SWAP3 POP POP POP DUP1 ISZERO PUSH2 0x17AF JUMPI POP PUSH1 0x1 JUMPDEST POP JUMPDEST POP POP POP JUMP JUMPDEST PUSH1 0x1 PUSH1 0x1 PUSH1 0xA0 SHL SUB DUP2 AND PUSH1 0x0 SWAP1 DUP2 MSTORE PUSH1 0x1 PUSH1 0x20 MSTORE PUSH1 0x40 SWAP1 KECCAK256 PUSH1 0x3 ADD SLOAD PUSH1 0x60 SWAP1 PUSH1 0xFF AND PUSH2 0x17F4 JUMPI PUSH1 0x40 MLOAD PUSH3 0x461BCD PUSH1 0xE5 SHL DUP2 MSTORE PUSH1 0x4 ADD PUSH2 0x41B SWAP1 PUSH2 0x3ACD JUMP JUMPDEST PUSH1 0x1 PUSH1 0x1 PUSH1 0xA0 SHL SUB DUP3 AND PUSH1 0x0 SWAP1 DUP2 MSTORE PUSH1 0x3 PUSH1 0x20 SWAP1 DUP2 MSTORE PUSH1 0x40 DUP1 DUP4 KECCAK256 DUP1 SLOAD DUP3 MLOAD DUP2 DUP6 MUL DUP2 ADD DUP6 ADD SWAP1 SWAP4 MSTORE DUP1 DUP4 MSTORE SWAP2 SWAP4 SWAP1 SWAP3 DUP5 ADD JUMPDEST DUP3 DUP3 LT ISZERO PUSH2 0x1C09 JUMPI DUP4 DUP3 SWAP1 PUSH1 0x0 MSTORE PUSH1 0x20 PUSH1 0x0 KECCAK256 SWAP1 PUSH1 0x9 MUL ADD PUSH1 0x40 MLOAD DUP1 PUSH2 0x140 ADD PUSH1 0x40 MSTORE SWAP1 DUP2 PUSH1 0x0 DUP3 ADD DUP1 SLOAD PUSH2 0x185B SWAP1 PUSH2 0x3B13 JUMP JUMPDEST DUP1 PUSH1 0x1F ADD PUSH1 0x20 DUP1 SWAP2 DIV MUL PUSH1 0x20 ADD PUSH1 0x40 MLOAD SWAP1 DUP2 ADD PUSH1 0x40 MSTORE DUP1 SWAP3 SWAP2 SWAP1 DUP2 DUP2 MSTORE PUSH1 0x20 ADD DUP3 DUP1 SLOAD PUSH2 0x1887 SWAP1 PUSH2 0x3B13 JUMP JUMPDEST DUP1 ISZERO PUSH2 0x18D4 JUMPI DUP1 PUSH1 0x1F LT PUSH2 0x18A9 JUMPI PUSH2 0x100 DUP1 DUP4 SLOAD DIV MUL DUP4 MSTORE SWAP2 PUSH1 0x20 ADD SWAP2 PUSH2 0x18D4 JUMP JUMPDEST DUP3 ADD SWAP2 SWAP1 PUSH1 0x0 MSTORE PUSH1 0x20 PUSH1 0x0 KECCAK256 SWAP1 JUMPDEST DUP2 SLOAD DUP2 MSTORE SWAP1 PUSH1 0x1 ADD SWAP1 PUSH1 0x20 ADD DUP1 DUP4 GT PUSH2 0x18B7 JUMPI DUP3 SWAP1 SUB PUSH1 0x1F AND DUP3 ADD SWAP2 JUMPDEST POP POP POP POP POP DUP2 MSTORE PUSH1 0x20 ADD PUSH1 0x1 DUP3 ADD DUP1 SLOAD PUSH2 0x18ED SWAP1 PUSH2 0x3B13 JUMP JUMPDEST DUP1 PUSH1 0x1F ADD PUSH1 0x20 DUP1 SWAP2 DIV MUL PUSH1 0x20 ADD PUSH1 0x40 MLOAD SWAP1 DUP2 ADD PUSH1 0x40 MSTORE DUP1 SWAP3 SWAP2 SWAP1 DUP2 DUP2 MSTORE PUSH1 0x20 ADD DUP3 DUP1 SLOAD PUSH2 0x1919 SWAP1 PUSH2 0x3B13 JUMP JUMPDEST DUP1 ISZERO PUSH2 0x1966 JUMPI DUP1 PUSH1 0x1F LT PUSH2 0x193B JUMPI PUSH2 0x100 DUP1 DUP4 SLOAD DIV MUL DUP4 MSTORE SWAP2 PUSH1 0x20 ADD SWAP2 PUSH2 0x1966 JUMP JUMPDEST DUP3 ADD SWAP2 SWAP1 PUSH1 0x0 MSTORE PUSH1 0x20 PUSH1 0x0 KECCAK256 SWAP1 JUMPDEST DUP2 SLOAD DUP2 MSTORE SWAP1 PUSH1 0x1 ADD SWAP1 PUSH1 0x20 ADD DUP1 DUP4 GT PUSH2 0x1949 JUMPI DUP3 SWAP1 SUB PUSH1 0x1F AND DUP3 ADD SWAP2 JUMPDEST POP POP POP POP POP DUP2 MSTORE PUSH1 0x20 ADD PUSH1 0x2 DUP3 ADD DUP1 SLOAD PUSH2 0x197F SWAP1 PUSH2 0x3B13 JUMP JUMPDEST DUP1 PUSH1 0x1F ADD PUSH1 0x20 DUP1 SWAP2 DIV MUL PUSH1 0x20 ADD PUSH1 0x40 MLOAD SWAP1 DUP2 ADD PUSH1 0x40 MSTORE DUP1 SWAP3 SWAP2 SWAP1 DUP2 DUP2 MSTORE PUSH1 0x20 ADD DUP3 DUP1 SLOAD PUSH2 0x19AB SWAP1 PUSH2 0x3B13 JUMP JUMPDEST DUP1 ISZERO PUSH2 0x19F8 JUMPI DUP1 PUSH1 0x1F LT PUSH2 0x19CD JUMPI PUSH2 0x100 DUP1 DUP4 SLOAD DIV MUL DUP4 MSTORE SWAP2 PUSH1 0x20 ADD SWAP2 PUSH2 0x19F8 JUMP JUMPDEST DUP3 ADD SWAP2 SWAP1 PUSH1 0x0 MSTORE PUSH1 0x20 PUSH1 0x0 KECCAK256 SWAP1 JUMPDEST DUP2 SLOAD DUP2 MSTORE SWAP1 PUSH1 0x1 ADD SWAP1 PUSH1 0x20 ADD DUP1 DUP4 GT PUSH2 0x19DB JUMPI DUP3 SWAP1 SUB PUSH1 0x1F AND DUP3 ADD SWAP2 JUMPDEST POP POP POP POP POP DUP2 MSTORE PUSH1 0x20 ADD PUSH1 0x3 DUP3 ADD DUP1 SLOAD PUSH2 0x1A11 SWAP1 PUSH2 0x3B13 JUMP JUMPDEST DUP1 PUSH1 0x1F ADD PUSH1 0x20 DUP1 SWAP2 DIV MUL PUSH1 0x20 ADD PUSH1 0x40 MLOAD SWAP1 DUP2 ADD PUSH1 0x40 MSTORE DUP1 SWAP3 SWAP2 SWAP1 DUP2 DUP2 MSTORE PUSH1 0x20 ADD DUP3 DUP1 SLOAD PUSH2 0x1A3D SWAP1 PUSH2 0x3B13 JUMP JUMPDEST DUP1 ISZERO PUSH2 0x1A8A JUMPI DUP1 PUSH1 0x1F LT PUSH2 0x1A5F JUMPI PUSH2 0x100 DUP1 DUP4 SLOAD DIV MUL DUP4 MSTORE SWAP2 PUSH1 0x20 ADD SWAP2 PUSH2 0x1A8A JUMP JUMPDEST DUP3 ADD SWAP2 SWAP1 PUSH1 0x0 MSTORE PUSH1 0x20 PUSH1 0x0 KECCAK256 SWAP1 JUMPDEST DUP2 SLOAD DUP2 MSTORE SWAP1 PUSH1 0x1 ADD SWAP1 PUSH1 0x20 ADD DUP1 DUP4 GT PUSH2 0x1A6D JUMPI DUP3 SWAP1 SUB PUSH1 0x1F AND DUP3 ADD SWAP2 JUMPDEST POP POP POP POP POP DUP2 MSTORE PUSH1 0x20 ADD PUSH1 0x4 DUP3 ADD DUP1 SLOAD PUSH2 0x1AA3 SWAP1 PUSH2 0x3B13 JUMP JUMPDEST DUP1 PUSH1 0x1F ADD PUSH1 0x20 DUP1 SWAP2 DIV MUL PUSH1 0x20 ADD PUSH1 0x40 MLOAD SWAP1 DUP2 ADD PUSH1 0x40 MSTORE DUP1 SWAP3 SWAP2 SWAP1 DUP2 DUP2 MSTORE PUSH1 0x20 ADD DUP3 DUP1 SLOAD PUSH2 0x1ACF SWAP1 PUSH2 0x3B13 JUMP JUMPDEST DUP1 ISZERO PUSH2 0x1B1C JUMPI DUP1 PUSH1 0x1F LT PUSH2 0x1AF1 JUMPI PUSH2 0x100 DUP1 DUP4 SLOAD DIV MUL DUP4 MSTORE SWAP2 PUSH1 0x20 ADD SWAP2 PUSH2 0x1B1C JUMP JUMPDEST DUP3 ADD SWAP2 SWAP1 PUSH1 0x0 MSTORE PUSH1 0x20 PUSH1 0x0 KECCAK256 SWAP1 JUMPDEST DUP2 SLOAD DUP2 MSTORE SWAP1 PUSH1 0x1 ADD SWAP1 PUSH1 0x20 ADD DUP1 DUP4 GT PUSH2 0x1AFF JUMPI DUP3 SWAP1 SUB PUSH1 0x1F AND DUP3 ADD SWAP2 JUMPDEST POP POP POP SWAP2 DUP4 MSTORE POP POP PUSH1 0x5 DUP3 ADD SLOAD PUSH1 0x20 DUP3 ADD MSTORE PUSH1 0x6 DUP3 ADD SLOAD PUSH1 0x1 PUSH1 0x1 PUSH1 0xA0 SHL SUB DUP2 AND PUSH1 0x40 DUP4 ADD MSTORE PUSH1 0x1 PUSH1 0xA0 SHL SWAP1 DIV PUSH1 0xFF AND ISZERO ISZERO PUSH1 0x60 DUP3 ADD MSTORE PUSH1 0x7 DUP3 ADD DUP1 SLOAD PUSH1 0x80 SWAP1 SWAP3 ADD SWAP2 PUSH2 0x1B68 SWAP1 PUSH2 0x3B13 JUMP JUMPDEST DUP1 PUSH1 0x1F ADD PUSH1 0x20 DUP1 SWAP2 DIV MUL PUSH1 0x20 ADD PUSH1 0x40 MLOAD SWAP1 DUP2 ADD PUSH1 0x40 MSTORE DUP1 SWAP3 SWAP2 SWAP1 DUP2 DUP2 MSTORE PUSH1 0x20 ADD DUP3 DUP1 SLOAD PUSH2 0x1B94 SWAP1 PUSH2 0x3B13 JUMP JUMPDEST DUP1 ISZERO PUSH2 0x1BE1 JUMPI DUP1 PUSH1 0x1F LT PUSH2 0x1BB6 JUMPI PUSH2 0x100 DUP1 DUP4 SLOAD DIV MUL DUP4 MSTORE SWAP2 PUSH1 0x20 ADD SWAP2 PUSH2 0x1BE1 JUMP JUMPDEST DUP3 ADD SWAP2 SWAP1 PUSH1 0x0 MSTORE PUSH1 0x20 PUSH1 0x0 KECCAK256 SWAP1 JUMPDEST DUP2 SLOAD DUP2 MSTORE SWAP1 PUSH1 0x1 ADD SWAP1 PUSH1 0x20 ADD DUP1 DUP4 GT PUSH2 0x1BC4 JUMPI DUP3 SWAP1 SUB PUSH1 0x1F AND DUP3 ADD SWAP2 JUMPDEST POP POP POP SWAP2 DUP4 MSTORE POP POP PUSH1 0x8 SWAP2 SWAP1 SWAP2 ADD SLOAD PUSH1 0xFF AND PUSH1 0x20 SWAP2 DUP3 ADD MSTORE SWAP1 DUP3 MSTORE PUSH1 0x1 SWAP3 SWAP1 SWAP3 ADD SWAP2 ADD PUSH2 0x1827 JUMP JUMPDEST POP POP POP POP SWAP1 POP SWAP2 SWAP1 POP JUMP JUMPDEST PUSH1 0x1 PUSH1 0x1 PUSH1 0xA0 SHL SUB DUP2 AND PUSH1 0x0 SWAP1 DUP2 MSTORE PUSH1 0x1 PUSH1 0x20 MSTORE PUSH1 0x40 SWAP1 KECCAK256 PUSH1 0x3 ADD SLOAD PUSH1 0x60 SWAP1 DUP2 SWAP1 DUP2 SWAP1 PUSH1 0xFF AND PUSH2 0x1C56 JUMPI PUSH1 0x40 MLOAD PUSH3 0x461BCD PUSH1 0xE5 SHL DUP2 MSTORE PUSH1 0x4 ADD PUSH2 0x41B SWAP1 PUSH2 0x3ACD JUMP JUMPDEST PUSH1 0x1 PUSH1 0x1 PUSH1 0xA0 SHL SUB DUP5 AND PUSH1 0x0 SWAP1 DUP2 MSTORE PUSH1 0x1 PUSH1 0x20 MSTORE PUSH1 0x40 DUP1 DUP3 KECCAK256 DUP2 MLOAD PUSH1 0x80 DUP2 ADD SWAP1 SWAP3 MSTORE DUP1 SLOAD DUP3 SWAP1 DUP3 SWAP1 PUSH2 0x1C87 SWAP1 PUSH2 0x3B13 JUMP JUMPDEST DUP1 PUSH1 0x1F ADD PUSH1 0x20 DUP1 SWAP2 DIV MUL PUSH1 0x20 ADD PUSH1 0x40 MLOAD SWAP1 DUP2 ADD PUSH1 0x40 MSTORE DUP1 SWAP3 SWAP2 SWAP1 DUP2 DUP2 MSTORE PUSH1 0x20 ADD DUP3 DUP1 SLOAD PUSH2 0x1CB3 SWAP1 PUSH2 0x3B13 JUMP JUMPDEST DUP1 ISZERO PUSH2 0x1D00 JUMPI DUP1 PUSH1 0x1F LT PUSH2 0x1CD5 JUMPI PUSH2 0x100 DUP1 DUP4 SLOAD DIV MUL DUP4 MSTORE SWAP2 PUSH1 0x20 ADD SWAP2 PUSH2 0x1D00 JUMP JUMPDEST DUP3 ADD SWAP2 SWAP1 PUSH1 0x0 MSTORE PUSH1 0x20 PUSH1 0x0 KECCAK256 SWAP1 JUMPDEST DUP2 SLOAD DUP2 MSTORE SWAP1 PUSH1 0x1 ADD SWAP1 PUSH1 0x20 ADD DUP1 DUP4 GT PUSH2 0x1CE3 JUMPI DUP3 SWAP1 SUB PUSH1 0x1F AND DUP3 ADD SWAP2 JUMPDEST POP POP POP POP POP DUP2 MSTORE PUSH1 0x20 ADD PUSH1 0x1 DUP3 ADD DUP1 SLOAD PUSH2 0x1D19 SWAP1 PUSH2 0x3B13 JUMP JUMPDEST DUP1 PUSH1 0x1F ADD PUSH1 0x20 DUP1 SWAP2 DIV MUL PUSH1 0x20 ADD PUSH1 0x40 MLOAD SWAP1 DUP2 ADD PUSH1 0x40 MSTORE DUP1 SWAP3 SWAP2 SWAP1 DUP2 DUP2 MSTORE PUSH1 0x20 ADD DUP3 DUP1 SLOAD PUSH2 0x1D45 SWAP1 PUSH2 0x3B13 JUMP JUMPDEST DUP1 ISZERO PUSH2 0x1D92 JUMPI DUP1 PUSH1 0x1F LT PUSH2 0x1D67 JUMPI PUSH2 0x100 DUP1 DUP4 SLOAD DIV MUL DUP4 MSTORE SWAP2 PUSH1 0x20 ADD SWAP2 PUSH2 0x1D92 JUMP JUMPDEST DUP3 ADD SWAP2 SWAP1 PUSH1 0x0 MSTORE PUSH1 0x20 PUSH1 0x0 KECCAK256 SWAP1 JUMPDEST DUP2 SLOAD DUP2 MSTORE SWAP1 PUSH1 0x1 ADD SWAP1 PUSH1 0x20 ADD DUP1 DUP4 GT PUSH2 0x1D75 JUMPI DUP3 SWAP1 SUB PUSH1 0x1F AND DUP3 ADD SWAP2 JUMPDEST POP POP POP POP POP DUP2 MSTORE PUSH1 0x20 ADD PUSH1 0x2 DUP3 ADD DUP1 SLOAD PUSH2 0x1DAB SWAP1 PUSH2 0x3B13 JUMP JUMPDEST DUP1 PUSH1 0x1F ADD PUSH1 0x20 DUP1 SWAP2 DIV MUL PUSH1 0x20 ADD PUSH1 0x40 MLOAD SWAP1 DUP2 ADD PUSH1 0x40 MSTORE DUP1 SWAP3 SWAP2 SWAP1 DUP2 DUP2 MSTORE PUSH1 0x20 ADD DUP3 DUP1 SLOAD PUSH2 0x1DD7 SWAP1 PUSH2 0x3B13 JUMP JUMPDEST DUP1 ISZERO PUSH2 0x1E24 JUMPI DUP1 PUSH1 0x1F LT PUSH2 0x1DF9 JUMPI PUSH2 0x100 DUP1 DUP4 SLOAD DIV MUL DUP4 MSTORE SWAP2 PUSH1 0x20 ADD SWAP2 PUSH2 0x1E24 JUMP JUMPDEST DUP3 ADD SWAP2 SWAP1 PUSH1 0x0 MSTORE PUSH1 0x20 PUSH1 0x0 KECCAK256 SWAP1 JUMPDEST DUP2 SLOAD DUP2 MSTORE SWAP1 PUSH1 0x1 ADD SWAP1 PUSH1 0x20 ADD DUP1 DUP4 GT PUSH2 0x1E07 JUMPI DUP3 SWAP1 SUB PUSH1 0x1F AND DUP3 ADD SWAP2 JUMPDEST POP POP POP SWAP2 DUP4 MSTORE POP POP PUSH1 0x3 SWAP2 SWAP1 SWAP2 ADD SLOAD PUSH1 0xFF AND ISZERO ISZERO PUSH1 0x20 SWAP2 DUP3 ADD MSTORE DUP2 MLOAD SWAP1 DUP3 ADD MLOAD PUSH1 0x40 SWAP1 SWAP3 ADD MLOAD SWAP1 SWAP8 SWAP2 SWAP7 POP SWAP5 POP SWAP3 POP POP POP JUMP JUMPDEST PUSH1 0x1 PUSH1 0x1 PUSH1 0xA0 SHL SUB DUP2 AND PUSH1 0x0 SWAP1 DUP2 MSTORE PUSH1 0x1 PUSH1 0x20 MSTORE PUSH1 0x40 SWAP1 KECCAK256 PUSH1 0x3 ADD SLOAD PUSH1 0x60 SWAP1 PUSH1 0xFF AND PUSH2 0x1E95 JUMPI PUSH1 0x40 MLOAD PUSH3 0x461BCD PUSH1 0xE5 SHL DUP2 MSTORE PUSH1 0x4 ADD PUSH2 0x41B SWAP1 PUSH2 0x3ACD JUMP JUMPDEST CALLER PUSH1 0x1 PUSH1 0x1 PUSH1 0xA0 SHL SUB DUP4 AND EQ PUSH2 0x1EFB JUMPI PUSH1 0x40 MLOAD PUSH3 0x461BCD PUSH1 0xE5 SHL DUP2 MSTORE PUSH1 0x20 PUSH1 0x4 DUP3 ADD MSTORE PUSH1 0x25 PUSH1 0x24 DUP3 ADD MSTORE PUSH32 0x41636365737320616C6C6F776564206F6E6C7920666F722070617469656E7420 PUSH1 0x44 DUP3 ADD MSTORE PUSH5 0x37BBB732B9 PUSH1 0xD9 SHL PUSH1 0x64 DUP3 ADD MSTORE PUSH1 0x84 ADD PUSH2 0x41B JUMP JUMPDEST PUSH1 0x0 DUP1 JUMPDEST PUSH1 0x1 PUSH1 0x1 PUSH1 0xA0 SHL SUB DUP5 AND PUSH1 0x0 SWAP1 DUP2 MSTORE PUSH1 0x3 PUSH1 0x20 MSTORE PUSH1 0x40 SWAP1 KECCAK256 SLOAD DUP2 LT ISZERO PUSH2 0x1F83 JUMPI PUSH1 0x1 PUSH1 0x1 PUSH1 0xA0 SHL SUB DUP5 AND PUSH1 0x0 SWAP1 DUP2 MSTORE PUSH1 0x3 PUSH1 0x20 MSTORE PUSH1 0x40 SWAP1 KECCAK256 DUP1 SLOAD DUP3 SWAP1 DUP2 LT PUSH2 0x1F49 JUMPI PUSH2 0x1F49 PUSH2 0x3AFD JUMP JUMPDEST SWAP1 PUSH1 0x0 MSTORE PUSH1 0x20 PUSH1 0x0 KECCAK256 SWAP1 PUSH1 0x9 MUL ADD PUSH1 0x6 ADD PUSH1 0x14 SWAP1 SLOAD SWAP1 PUSH2 0x100 EXP SWAP1 DIV PUSH1 0xFF AND ISZERO PUSH2 0x1F7B JUMPI DUP2 PUSH2 0x1F77 DUP2 PUSH2 0x3DCD JUMP JUMPDEST SWAP3 POP POP JUMPDEST PUSH1 0x1 ADD PUSH2 0x1EFF JUMP JUMPDEST POP PUSH1 0x0 DUP2 PUSH8 0xFFFFFFFFFFFFFFFF DUP2 GT ISZERO PUSH2 0x1F9F JUMPI PUSH2 0x1F9F PUSH2 0x35A7 JUMP JUMPDEST PUSH1 0x40 MLOAD SWAP1 DUP1 DUP3 MSTORE DUP1 PUSH1 0x20 MUL PUSH1 0x20 ADD DUP3 ADD PUSH1 0x40 MSTORE DUP1 ISZERO PUSH2 0x1FD8 JUMPI DUP2 PUSH1 0x20 ADD JUMPDEST PUSH2 0x1FC5 PUSH2 0x341E JUMP JUMPDEST DUP2 MSTORE PUSH1 0x20 ADD SWAP1 PUSH1 0x1 SWAP1 SUB SWAP1 DUP2 PUSH2 0x1FBD JUMPI SWAP1 POP JUMPDEST POP SWAP1 POP PUSH1 0x0 DUP1 JUMPDEST PUSH1 0x1 PUSH1 0x1 PUSH1 0xA0 SHL SUB DUP7 AND PUSH1 0x0 SWAP1 DUP2 MSTORE PUSH1 0x3 PUSH1 0x20 MSTORE PUSH1 0x40 SWAP1 KECCAK256 SLOAD DUP2 LT ISZERO PUSH2 0x2475 JUMPI PUSH1 0x1 PUSH1 0x1 PUSH1 0xA0 SHL SUB DUP7 AND PUSH1 0x0 SWAP1 DUP2 MSTORE PUSH1 0x3 PUSH1 0x20 MSTORE PUSH1 0x40 SWAP1 KECCAK256 DUP1 SLOAD DUP3 SWAP1 DUP2 LT PUSH2 0x2029 JUMPI PUSH2 0x2029 PUSH2 0x3AFD JUMP JUMPDEST SWAP1 PUSH1 0x0 MSTORE PUSH1 0x20 PUSH1 0x0 KECCAK256 SWAP1 PUSH1 0x9 MUL ADD PUSH1 0x6 ADD PUSH1 0x14 SWAP1 SLOAD SWAP1 PUSH2 0x100 EXP SWAP1 DIV PUSH1 0xFF AND ISZERO PUSH2 0x246D JUMPI PUSH1 0x1 PUSH1 0x1 PUSH1 0xA0 SHL SUB DUP7 AND PUSH1 0x0 SWAP1 DUP2 MSTORE PUSH1 0x3 PUSH1 0x20 MSTORE PUSH1 0x40 SWAP1 KECCAK256 DUP1 SLOAD DUP3 SWAP1 DUP2 LT PUSH2 0x2077 JUMPI PUSH2 0x2077 PUSH2 0x3AFD JUMP JUMPDEST SWAP1 PUSH1 0x0 MSTORE PUSH1 0x20 PUSH1 0x0 KECCAK256 SWAP1 PUSH1 0x9 MUL ADD PUSH1 0x40 MLOAD DUP1 PUSH2 0x140 ADD PUSH1 0x40 MSTORE SWAP1 DUP2 PUSH1 0x0 DUP3 ADD DUP1 SLOAD PUSH2 0x20A1 SWAP1 PUSH2 0x3B13 JUMP JUMPDEST DUP1 PUSH1 0x1F ADD PUSH1 0x20 DUP1 SWAP2 DIV MUL PUSH1 0x20 ADD PUSH1 0x40 MLOAD SWAP1 DUP2 ADD PUSH1 0x40 MSTORE DUP1 SWAP3 SWAP2 SWAP1 DUP2 DUP2 MSTORE PUSH1 0x20 ADD DUP3 DUP1 SLOAD PUSH2 0x20CD SWAP1 PUSH2 0x3B13 JUMP JUMPDEST DUP1 ISZERO PUSH2 0x211A JUMPI DUP1 PUSH1 0x1F LT PUSH2 0x20EF JUMPI PUSH2 0x100 DUP1 DUP4 SLOAD DIV MUL DUP4 MSTORE SWAP2 PUSH1 0x20 ADD SWAP2 PUSH2 0x211A JUMP JUMPDEST DUP3 ADD SWAP2 SWAP1 PUSH1 0x0 MSTORE PUSH1 0x20 PUSH1 0x0 KECCAK256 SWAP1 JUMPDEST DUP2 SLOAD DUP2 MSTORE SWAP1 PUSH1 0x1 ADD SWAP1 PUSH1 0x20 ADD DUP1 DUP4 GT PUSH2 0x20FD JUMPI DUP3 SWAP1 SUB PUSH1 0x1F AND DUP3 ADD SWAP2 JUMPDEST POP POP POP POP POP DUP2 MSTORE PUSH1 0x20 ADD PUSH1 0x1 DUP3 ADD DUP1 SLOAD PUSH2 0x2133 SWAP1 PUSH2 0x3B13 JUMP JUMPDEST DUP1 PUSH1 0x1F ADD PUSH1 0x20 DUP1 SWAP2 DIV MUL PUSH1 0x20 ADD PUSH1 0x40 MLOAD SWAP1 DUP2 ADD PUSH1 0x40 MSTORE DUP1 SWAP3 SWAP2 SWAP1 DUP2 DUP2 MSTORE PUSH1 0x20 ADD DUP3 DUP1 SLOAD PUSH2 0x215F SWAP1 PUSH2 0x3B13 JUMP JUMPDEST DUP1 ISZERO PUSH2 0x21AC JUMPI DUP1 PUSH1 0x1F LT PUSH2 0x2181 JUMPI PUSH2 0x100 DUP1 DUP4 SLOAD DIV MUL DUP4 MSTORE SWAP2 PUSH1 0x20 ADD SWAP2 PUSH2 0x21AC JUMP JUMPDEST DUP3 ADD SWAP2 SWAP1 PUSH1 0x0 MSTORE PUSH1 0x20 PUSH1 0x0 KECCAK256 SWAP1 JUMPDEST DUP2 SLOAD DUP2 MSTORE SWAP1 PUSH1 0x1 ADD SWAP1 PUSH1 0x20 ADD DUP1 DUP4 GT PUSH2 0x218F JUMPI DUP3 SWAP1 SUB PUSH1 0x1F AND DUP3 ADD SWAP2 JUMPDEST POP POP POP POP POP DUP2 MSTORE PUSH1 0x20 ADD PUSH1 0x2 DUP3 ADD DUP1 SLOAD PUSH2 0x21C5 SWAP1 PUSH2 0x3B13 JUMP JUMPDEST DUP1 PUSH1 0x1F ADD PUSH1 0x20 DUP1 SWAP2 DIV MUL PUSH1 0x20 ADD PUSH1 0x40 MLOAD SWAP1 DUP2 ADD PUSH1 0x40 MSTORE DUP1 SWAP3 SWAP2 SWAP1 DUP2 DUP2 MSTORE PUSH1 0x20 ADD DUP3 DUP1 SLOAD PUSH2 0x21F1 SWAP1 PUSH2 0x3B13 JUMP JUMPDEST DUP1 ISZERO PUSH2 0x223E JUMPI DUP1 PUSH1 0x1F LT PUSH2 0x2213 JUMPI PUSH2 0x100 DUP1 DUP4 SLOAD DIV MUL DUP4 MSTORE SWAP2 PUSH1 0x20 ADD SWAP2 PUSH2 0x223E JUMP JUMPDEST DUP3 ADD SWAP2 SWAP1 PUSH1 0x0 MSTORE PUSH1 0x20 PUSH1 0x0 KECCAK256 SWAP1 JUMPDEST DUP2 SLOAD DUP2 MSTORE SWAP1 PUSH1 0x1 ADD SWAP1 PUSH1 0x20 ADD DUP1 DUP4 GT PUSH2 0x2221 JUMPI DUP3 SWAP1 SUB PUSH1 0x1F AND DUP3 ADD SWAP2 JUMPDEST POP POP POP POP POP DUP2 MSTORE PUSH1 0x20 ADD PUSH1 0x3 DUP3 ADD DUP1 SLOAD PUSH2 0x2257 SWAP1 PUSH2 0x3B13 JUMP JUMPDEST DUP1 PUSH1 0x1F ADD PUSH1 0x20 DUP1 SWAP2 DIV MUL PUSH1 0x20 ADD PUSH1 0x40 MLOAD SWAP1 DUP2 ADD PUSH1 0x40 MSTORE DUP1 SWAP3 SWAP2 SWAP1 DUP2 DUP2 MSTORE PUSH1 0x20 ADD DUP3 DUP1 SLOAD PUSH2 0x2283 SWAP1 PUSH2 0x3B13 JUMP JUMPDEST DUP1 ISZERO PUSH2 0x22D0 JUMPI DUP1 PUSH1 0x1F LT PUSH2 0x22A5 JUMPI PUSH2 0x100 DUP1 DUP4 SLOAD DIV MUL DUP4 MSTORE SWAP2 PUSH1 0x20 ADD SWAP2 PUSH2 0x22D0 JUMP JUMPDEST DUP3 ADD SWAP2 SWAP1 PUSH1 0x0 MSTORE PUSH1 0x20 PUSH1 0x0 KECCAK256 SWAP1 JUMPDEST DUP2 SLOAD DUP2 MSTORE SWAP1 PUSH1 0x1 ADD SWAP1 PUSH1 0x20 ADD DUP1 DUP4 GT PUSH2 0x22B3 JUMPI DUP3 SWAP1 SUB PUSH1 0x1F AND DUP3 ADD SWAP2 JUMPDEST POP POP POP POP POP DUP2 MSTORE PUSH1 0x20 ADD PUSH1 0x4 DUP3 ADD DUP1 SLOAD PUSH2 0x22E9 SWAP1 PUSH2 0x3B13 JUMP JUMPDEST DUP1 PUSH1 0x1F ADD PUSH1 0x20 DUP1 SWAP2 DIV MUL PUSH1 0x20 ADD PUSH1 0x40 MLOAD SWAP1 DUP2 ADD PUSH1 0x40 MSTORE DUP1 SWAP3 SWAP2 SWAP1 DUP2 DUP2 MSTORE PUSH1 0x20 ADD DUP3 DUP1 SLOAD PUSH2 0x2315 SWAP1 PUSH2 0x3B13 JUMP JUMPDEST DUP1 ISZERO PUSH2 0x2362 JUMPI DUP1 PUSH1 0x1F LT PUSH2 0x2337 JUMPI PUSH2 0x100 DUP1 DUP4 SLOAD DIV MUL DUP4 MSTORE SWAP2 PUSH1 0x20 ADD SWAP2 PUSH2 0x2362 JUMP JUMPDEST DUP3 ADD SWAP2 SWAP1 PUSH1 0x0 MSTORE PUSH1 0x20 PUSH1 0x0 KECCAK256 SWAP1 JUMPDEST DUP2 SLOAD DUP2 MSTORE SWAP1 PUSH1 0x1 ADD SWAP1 PUSH1 0x20 ADD DUP1 DUP4 GT PUSH2 0x2345 JUMPI DUP3 SWAP1 SUB PUSH1 0x1F AND DUP3 ADD SWAP2 JUMPDEST POP POP POP SWAP2 DUP4 MSTORE POP POP PUSH1 0x5 DUP3 ADD SLOAD PUSH1 0x20 DUP3 ADD MSTORE PUSH1 0x6 DUP3 ADD SLOAD PUSH1 0x1 PUSH1 0x1 PUSH1 0xA0 SHL SUB DUP2 AND PUSH1 0x40 DUP4 ADD MSTORE PUSH1 0x1 PUSH1 0xA0 SHL SWAP1 DIV PUSH1 0xFF AND ISZERO ISZERO PUSH1 0x60 DUP3 ADD MSTORE PUSH1 0x7 DUP3 ADD DUP1 SLOAD PUSH1 0x80 SWAP1 SWAP3 ADD SWAP2 PUSH2 0x23AE SWAP1 PUSH2 0x3B13 JUMP JUMPDEST DUP1 PUSH1 0x1F ADD PUSH1 0x20 DUP1 SWAP2 DIV MUL PUSH1 0x20 ADD PUSH1 0x40 MLOAD SWAP1 DUP2 ADD PUSH1 0x40 MSTORE DUP1 SWAP3 SWAP2 SWAP1 DUP2 DUP2 MSTORE PUSH1 0x20 ADD DUP3 DUP1 SLOAD PUSH2 0x23DA SWAP1 PUSH2 0x3B13 JUMP JUMPDEST DUP1 ISZERO PUSH2 0x2427 JUMPI DUP1 PUSH1 0x1F LT PUSH2 0x23FC JUMPI PUSH2 0x100 DUP1 DUP4 SLOAD DIV MUL DUP4 MSTORE SWAP2 PUSH1 0x20 ADD SWAP2 PUSH2 0x2427 JUMP JUMPDEST DUP3 ADD SWAP2 SWAP1 PUSH1 0x0 MSTORE PUSH1 0x20 PUSH1 0x0 KECCAK256 SWAP1 JUMPDEST DUP2 SLOAD DUP2 MSTORE SWAP1 PUSH1 0x1 ADD SWAP1 PUSH1 0x20 ADD DUP1 DUP4 GT PUSH2 0x240A JUMPI DUP3 SWAP1 SUB PUSH1 0x1F AND DUP3 ADD SWAP2 JUMPDEST POP POP POP SWAP2 DUP4 MSTORE POP POP PUSH1 0x8 SWAP2 SWAP1 SWAP2 ADD SLOAD PUSH1 0xFF AND PUSH1 0x20 SWAP1 SWAP2 ADD MSTORE DUP4 MLOAD DUP5 SWAP1 DUP5 SWAP1 DUP2 LT PUSH2 0x2453 JUMPI PUSH2 0x2453 PUSH2 0x3AFD JUMP JUMPDEST PUSH1 0x20 MUL PUSH1 0x20 ADD ADD DUP2 SWAP1 MSTORE POP DUP2 DUP1 PUSH2 0x2469 SWAP1 PUSH2 0x3DCD JUMP JUMPDEST SWAP3 POP POP JUMPDEST PUSH1 0x1 ADD PUSH2 0x1FDF JUMP JUMPDEST POP SWAP1 SWAP5 SWAP4 POP POP POP POP JUMP JUMPDEST PUSH1 0x1 PUSH1 0x1 PUSH1 0xA0 SHL SUB DUP2 DUP2 AND PUSH1 0x0 DUP2 DUP2 MSTORE PUSH1 0x5 PUSH1 0x20 SWAP1 DUP2 MSTORE PUSH1 0x40 DUP1 DUP4 KECCAK256 CALLER DUP1 DUP6 MSTORE SWAP3 MSTORE DUP3 KECCAK256 SLOAD PUSH1 0x6 SLOAD PUSH1 0x60 SWAP6 SWAP5 SWAP1 SWAP3 EQ SWAP4 TIMESTAMP SWAP1 SWAP2 GT SWAP3 SWAP2 AND ISZERO PUSH2 0x252F JUMPI PUSH1 0x6 SLOAD PUSH1 0x40 MLOAD PUSH4 0xBC13819 PUSH1 0xE2 SHL DUP2 MSTORE CALLER PUSH1 0x4 DUP3 ADD MSTORE PUSH1 0x1 PUSH1 0x1 PUSH1 0xA0 SHL SUB SWAP1 SWAP2 AND SWAP1 PUSH4 0x2F04E064 SWAP1 PUSH1 0x24 ADD PUSH1 0x0 PUSH1 0x40 MLOAD DUP1 DUP4 SUB DUP2 DUP7 GAS STATICCALL SWAP3 POP POP POP DUP1 ISZERO PUSH2 0x2524 JUMPI POP PUSH1 0x40 MLOAD RETURNDATASIZE PUSH1 0x0 DUP3 RETURNDATACOPY PUSH1 0x1F RETURNDATASIZE SWAP1 DUP2 ADD PUSH1 0x1F NOT AND DUP3 ADD PUSH1 0x40 MSTORE PUSH2 0x2521 SWAP2 SWAP1 DUP2 ADD SWAP1 PUSH2 0x3E33 JUMP JUMPDEST PUSH1 0x1 JUMPDEST ISZERO PUSH2 0x252F JUMPI SWAP4 POP POP POP POP JUMPDEST DUP3 DUP1 PUSH2 0x2538 JUMPI POP DUP2 JUMPDEST DUP1 PUSH2 0x2540 JUMPI POP DUP1 JUMPDEST PUSH2 0x257C JUMPI PUSH1 0x40 MLOAD PUSH3 0x461BCD PUSH1 0xE5 SHL DUP2 MSTORE PUSH1 0x20 PUSH1 0x4 DUP3 ADD MSTORE PUSH1 0xD PUSH1 0x24 DUP3 ADD MSTORE PUSH13 0x1058D8D95CDCC819195B9A5959 PUSH1 0x9A SHL PUSH1 0x44 DUP3 ADD MSTORE PUSH1 0x64 ADD PUSH2 0x41B JUMP JUMPDEST PUSH1 0x0 DUP4 ISZERO PUSH2 0x258C JUMPI POP PUSH1 0xFF PUSH2 0x25A6 JUMP JUMPDEST DUP2 ISZERO PUSH2 0x259A JUMPI POP PUSH1 0x2 PUSH2 0x25A6 JUMP JUMPDEST PUSH2 0x25A3 CALLER PUSH2 0x324B JUMP JUMPDEST SWAP1 POP JUMPDEST PUSH1 0x0 DUP1 JUMPDEST PUSH1 0x1 PUSH1 0x1 PUSH1 0xA0 SHL SUB DUP9 AND PUSH1 0x0 SWAP1 DUP2 MSTORE PUSH1 0x3 PUSH1 0x20 MSTORE PUSH1 0x40 SWAP1 KECCAK256 SLOAD DUP2 LT ISZERO PUSH2 0x29FC JUMPI PUSH1 0x1 PUSH1 0x1 PUSH1 0xA0 SHL SUB DUP9 AND PUSH1 0x0 SWAP1 DUP2 MSTORE PUSH1 0x3 PUSH1 0x20 MSTORE PUSH1 0x40 DUP2 KECCAK256 DUP1 SLOAD DUP4 SWAP1 DUP2 LT PUSH2 0x25F4 JUMPI PUSH2 0x25F4 PUSH2 0x3AFD JUMP JUMPDEST SWAP1 PUSH1 0x0 MSTORE PUSH1 0x20 PUSH1 0x0 KECCAK256 SWAP1 PUSH1 0x9 MUL ADD PUSH1 0x40 MLOAD DUP1 PUSH2 0x140 ADD PUSH1 0x40 MSTORE SWAP1 DUP2 PUSH1 0x0 DUP3 ADD DUP1 SLOAD PUSH2 0x261E SWAP1 PUSH2 0x3B13 JUMP JUMPDEST DUP1 PUSH1 0x1F ADD PUSH1 0x20 DUP1 SWAP2 DIV MUL PUSH1 0x20 ADD PUSH1 0x40 MLOAD SWAP1 DUP2 ADD PUSH1 0x40 MSTORE DUP1 SWAP3 SWAP2 SWAP1 DUP2 DUP2 MSTORE PUSH1 0x20 ADD DUP3 DUP1 SLOAD PUSH2 0x264A SWAP1 PUSH2 0x3B13 JUMP JUMPDEST DUP1 ISZERO PUSH2 0x2697 JUMPI DUP1 PUSH1 0x1F LT PUSH2 0x266C JUMPI PUSH2 0x100 DUP1 DUP4 SLOAD DIV MUL DUP4 MSTORE SWAP2 PUSH1 0x20 ADD SWAP2 PUSH2 0x2697 JUMP JUMPDEST DUP3 ADD SWAP2 SWAP1 PUSH1 0x0 MSTORE PUSH1 0x20 PUSH1 0x0 KECCAK256 SWAP1 JUMPDEST DUP2 SLOAD DUP2 MSTORE SWAP1 PUSH1 0x1 ADD SWAP1 PUSH1 0x20 ADD DUP1 DUP4 GT PUSH2 0x267A JUMPI DUP3 SWAP1 SUB PUSH1 0x1F AND DUP3 ADD SWAP2 JUMPDEST POP POP POP POP POP DUP2 MSTORE PUSH1 0x20 ADD PUSH1 0x1 DUP3 ADD DUP1 SLOAD PUSH2 0x26B0 SWAP1 PUSH2 0x3B13 JUMP JUMPDEST DUP1 PUSH1 0x1F ADD PUSH1 0x20 DUP1 SWAP2 DIV MUL PUSH1 0x20 ADD PUSH1 0x40 MLOAD SWAP1 DUP2 ADD PUSH1 0x40 MSTORE DUP1 SWAP3 SWAP2 SWAP1 DUP2 DUP2 MSTORE PUSH1 0x20 ADD DUP3 DUP1 SLOAD PUSH2 0x26DC SWAP1 PUSH2 0x3B13 JUMP JUMPDEST DUP1 ISZERO PUSH2 0x2729 JUMPI DUP1 PUSH1 0x1F LT PUSH2 0x26FE JUMPI PUSH2 0x100 DUP1 DUP4 SLOAD DIV MUL DUP4 MSTORE SWAP2 PUSH1 0x20 ADD SWAP2 PUSH2 0x2729 JUMP JUMPDEST DUP3 ADD SWAP2 SWAP1 PUSH1 0x0 MSTORE PUSH1 0x20 PUSH1 0x0 KECCAK256 SWAP1 JUMPDEST DUP2 SLOAD DUP2 MSTORE SWAP1 PUSH1 0x1 ADD SWAP1 PUSH1 0x20 ADD DUP1 DUP4 GT PUSH2 0x270C JUMPI DUP3 SWAP1 SUB PUSH1 0x1F AND DUP3 ADD SWAP2 JUMPDEST POP POP POP POP POP DUP2 MSTORE PUSH1 0x20 ADD PUSH1 0x2 DUP3 ADD DUP1 SLOAD PUSH2 0x2742 SWAP1 PUSH2 0x3B13 JUMP JUMPDEST DUP1 PUSH1 0x1F ADD PUSH1 0x20 DUP1 SWAP2 DIV MUL PUSH1 0x20 ADD PUSH1 0x40 MLOAD SWAP1 DUP2 ADD PUSH1 0x40 MSTORE DUP1 SWAP3 SWAP2 SWAP1 DUP2 DUP2 MSTORE PUSH1 0x20 ADD DUP3 DUP1 SLOAD PUSH2 0x276E SWAP1 PUSH2 0x3B13 JUMP JUMPDEST DUP1 ISZERO PUSH2 0x27BB JUMPI DUP1 PUSH1 0x1F LT PUSH2 0x2790 JUMPI PUSH2 0x100 DUP1 DUP4 SLOAD DIV MUL DUP4 MSTORE SWAP2 PUSH1 0x20 ADD SWAP2 PUSH2 0x27BB JUMP JUMPDEST DUP3 ADD SWAP2 SWAP1 PUSH1 0x0 MSTORE PUSH1 0x20 PUSH1 0x0 KECCAK256 SWAP1 JUMPDEST DUP2 SLOAD DUP2 MSTORE SWAP1 PUSH1 0x1 ADD SWAP1 PUSH1 0x20 ADD DUP1 DUP4 GT PUSH2 0x279E JUMPI DUP3 SWAP1 SUB PUSH1 0x1F AND DUP3 ADD SWAP2 JUMPDEST POP POP POP POP POP DUP2 MSTORE PUSH1 0x20 ADD PUSH1 0x3 DUP3 ADD DUP1 SLOAD PUSH2 0x27D4 SWAP1 PUSH2 0x3B13 JUMP JUMPDEST DUP1 PUSH1 0x1F ADD PUSH1 0x20 DUP1 SWAP2 DIV MUL PUSH1 0x20 ADD PUSH1 0x40 MLOAD SWAP1 DUP2 ADD PUSH1 0x40 MSTORE DUP1 SWAP3 SWAP2 SWAP1 DUP2 DUP2 MSTORE PUSH1 0x20 ADD DUP3 DUP1 SLOAD PUSH2 0x2800 SWAP1 PUSH2 0x3B13 JUMP JUMPDEST DUP1 ISZERO PUSH2 0x284D JUMPI DUP1 PUSH1 0x1F LT PUSH2 0x2822 JUMPI PUSH2 0x100 DUP1 DUP4 SLOAD DIV MUL DUP4 MSTORE SWAP2 PUSH1 0x20 ADD SWAP2 PUSH2 0x284D JUMP JUMPDEST DUP3 ADD SWAP2 SWAP1 PUSH1 0x0 MSTORE PUSH1 0x20 PUSH1 0x0 KECCAK256 SWAP1 JUMPDEST DUP2 SLOAD DUP2 MSTORE SWAP1 PUSH1 0x1 ADD SWAP1 PUSH1 0x20 ADD DUP1 DUP4 GT PUSH2 0x2830 JUMPI DUP3 SWAP1 SUB PUSH1 0x1F AND DUP3 ADD SWAP2 JUMPDEST POP POP POP POP POP DUP2 MSTORE PUSH1 0x20 ADD PUSH1 0x4 DUP3 ADD DUP1 SLOAD PUSH2 0x2866 SWAP1 PUSH2 0x3B13 JUMP JUMPDEST DUP1 PUSH1 0x1F ADD PUSH1 0x20 DUP1 SWAP2 DIV MUL PUSH1 0x20 ADD PUSH1 0x40 MLOAD SWAP1 DUP2 ADD PUSH1 0x40 MSTORE DUP1 SWAP3 SWAP2 SWAP1 DUP2 DUP2 MSTORE PUSH1 0x20 ADD DUP3 DUP1 SLOAD PUSH2 0x2892 SWAP1 PUSH2 0x3B13 JUMP JUMPDEST DUP1 ISZERO PUSH2 0x28DF JUMPI DUP1 PUSH1 0x1F LT PUSH2 0x28B4 JUMPI PUSH2 0x100 DUP1 DUP4 SLOAD DIV MUL DUP4 MSTORE SWAP2 PUSH1 0x20 ADD SWAP2 PUSH2 0x28DF JUMP JUMPDEST DUP3 ADD SWAP2 SWAP1 PUSH1 0x0 MSTORE PUSH1 0x20 PUSH1 0x0 KECCAK256 SWAP1 JUMPDEST DUP2 SLOAD DUP2 MSTORE SWAP1 PUSH1 0x1 ADD SWAP1 PUSH1 0x20 ADD DUP1 DUP4 GT PUSH2 0x28C2 JUMPI DUP3 SWAP1 SUB PUSH1 0x1F AND DUP3 ADD SWAP2 JUMPDEST POP POP POP SWAP2 DUP4 MSTORE POP POP PUSH1 0x5 DUP3 ADD SLOAD PUSH1 0x20 DUP3 ADD MSTORE PUSH1 0x6 DUP3 ADD SLOAD PUSH1 0x1 PUSH1 0x1 PUSH1 0xA0 SHL SUB DUP2 AND PUSH1 0x40 DUP4 ADD MSTORE PUSH1 0x1 PUSH1 0xA0 SHL SWAP1 DIV PUSH1 0xFF AND ISZERO ISZERO PUSH1 0x60 DUP3 ADD MSTORE PUSH1 0x7 DUP3 ADD DUP1 SLOAD PUSH1 0x80 SWAP1 SWAP3 ADD SWAP2 PUSH2 0x292B SWAP1 PUSH2 0x3B13 JUMP JUMPDEST DUP1 PUSH1 0x1F ADD PUSH1 0x20 DUP1 SWAP2 DIV MUL PUSH1 0x20 ADD PUSH1 0x40 MLOAD SWAP1 DUP2 ADD PUSH1 0x40 MSTORE DUP1 SWAP3 SWAP2 SWAP1 DUP2 DUP2 MSTORE PUSH1 0x20 ADD DUP3 DUP1 SLOAD PUSH2 0x2957 SWAP1 PUSH2 0x3B13 JUMP JUMPDEST DUP1 ISZERO PUSH2 0x29A4 JUMPI DUP1 PUSH1 0x1F LT PUSH2 0x2979 JUMPI PUSH2 0x100 DUP1 DUP4 SLOAD DIV MUL DUP4 MSTORE SWAP2 PUSH1 0x20 ADD SWAP2 PUSH2 0x29A4 JUMP JUMPDEST DUP3 ADD SWAP2 SWAP1 PUSH1 0x0 MSTORE PUSH1 0x20 PUSH1 0x0 KECCAK256 SWAP1 JUMPDEST DUP2 SLOAD DUP2 MSTORE SWAP1 PUSH1 0x1 ADD SWAP1 PUSH1 0x20 ADD DUP1 DUP4 GT PUSH2 0x2987 JUMPI DUP3 SWAP1 SUB PUSH1 0x1F AND DUP3 ADD SWAP2 JUMPDEST POP POP POP SWAP2 DUP4 MSTORE POP POP PUSH1 0x8 SWAP2 SWAP1 SWAP2 ADD SLOAD PUSH1 0xFF AND PUSH1 0x20 SWAP1 SWAP2 ADD MSTORE PUSH1 0xE0 DUP2 ADD MLOAD SWAP1 SWAP2 POP ISZERO PUSH2 0x29F3 JUMPI DUP7 DUP1 PUSH2 0x29E0 JUMPI POP DUP4 PUSH1 0xFF AND DUP2 PUSH2 0x120 ADD MLOAD PUSH1 0xFF AND GT ISZERO JUMPDEST ISZERO PUSH2 0x29F3 JUMPI DUP3 PUSH2 0x29EF DUP2 PUSH2 0x3DCD JUMP JUMPDEST SWAP4 POP POP JUMPDEST POP PUSH1 0x1 ADD PUSH2 0x25AA JUMP JUMPDEST POP PUSH1 0x0 DUP2 PUSH8 0xFFFFFFFFFFFFFFFF DUP2 GT ISZERO PUSH2 0x2A18 JUMPI PUSH2 0x2A18 PUSH2 0x35A7 JUMP JUMPDEST PUSH1 0x40 MLOAD SWAP1 DUP1 DUP3 MSTORE DUP1 PUSH1 0x20 MUL PUSH1 0x20 ADD DUP3 ADD PUSH1 0x40 MSTORE DUP1 ISZERO PUSH2 0x2A51 JUMPI DUP2 PUSH1 0x20 ADD JUMPDEST PUSH2 0x2A3E PUSH2 0x341E JUMP JUMPDEST DUP2 MSTORE PUSH1 0x20 ADD SWAP1 PUSH1 0x1 SWAP1 SUB SWAP1 DUP2 PUSH2 0x2A36 JUMPI SWAP1 POP JUMPDEST POP SWAP1 POP PUSH1 0x0 DUP1 JUMPDEST PUSH1 0x1 PUSH1 0x1 PUSH1 0xA0 SHL SUB DUP11 AND PUSH1 0x0 SWAP1 DUP2 MSTORE PUSH1 0x3 PUSH1 0x20 MSTORE PUSH1 0x40 SWAP1 KECCAK256 SLOAD DUP2 LT ISZERO PUSH2 0x2EC9 JUMPI PUSH1 0x1 PUSH1 0x1 PUSH1 0xA0 SHL SUB DUP11 AND PUSH1 0x0 SWAP1 DUP2 MSTORE PUSH1 0x3 PUSH1 0x20 MSTORE PUSH1 0x40 DUP2 KECCAK256 DUP1 SLOAD DUP4 SWAP1 DUP2 LT PUSH2 0x2AA2 JUMPI PUSH2 0x2AA2 PUSH2 0x3AFD JUMP JUMPDEST SWAP1 PUSH1 0x0 MSTORE PUSH1 0x20 PUSH1 0x0 KECCAK256 SWAP1 PUSH1 0x9 MUL ADD PUSH1 0x40 MLOAD DUP1 PUSH2 0x140 ADD PUSH1 0x40 MSTORE SWAP1 DUP2 PUSH1 0x0 DUP3 ADD DUP1 SLOAD PUSH2 0x2ACC SWAP1 PUSH2 0x3B13 JUMP JUMPDEST DUP1 PUSH1 0x1F ADD PUSH1 0x20 DUP1 SWAP2 DIV MUL PUSH1 0x20 ADD PUSH1 0x40 MLOAD SWAP1 DUP2 ADD PUSH1 0x40 MSTORE DUP1 SWAP3 SWAP2 SWAP1 DUP2 DUP2 MSTORE PUSH1 0x20 ADD DUP3 DUP1 SLOAD PUSH2 0x2AF8 SWAP1 PUSH2 0x3B13 JUMP JUMPDEST DUP1 ISZERO PUSH2 0x2B45 JUMPI DUP1 PUSH1 0x1F LT PUSH2 0x2B1A JUMPI PUSH2 0x100 DUP1 DUP4 SLOAD DIV MUL DUP4 MSTORE SWAP2 PUSH1 0x20 ADD SWAP2 PUSH2 0x2B45 JUMP JUMPDEST DUP3 ADD SWAP2 SWAP1 PUSH1 0x0 MSTORE PUSH1 0x20 PUSH1 0x0 KECCAK256 SWAP1 JUMPDEST DUP2 SLOAD DUP2 MSTORE SWAP1 PUSH1 0x1 ADD SWAP1 PUSH1 0x20 ADD DUP1 DUP4 GT PUSH2 0x2B28 JUMPI DUP3 SWAP1 SUB PUSH1 0x1F AND DUP3 ADD SWAP2 JUMPDEST POP POP POP POP POP DUP2 MSTORE PUSH1 0x20 ADD PUSH1 0x1 DUP3 ADD DUP1 SLOAD PUSH2 0x2B5E SWAP1 PUSH2 0x3B13 JUMP JUMPDEST DUP1 PUSH1 0x1F ADD PUSH1 0x20 DUP1 SWAP2 DIV MUL PUSH1 0x20 ADD PUSH1 0x40 MLOAD SWAP1 DUP2 ADD PUSH1 0x40 MSTORE DUP1 SWAP3 SWAP2 SWAP1 DUP2 DUP2 MSTORE PUSH1 0x20 ADD DUP3 DUP1 SLOAD PUSH2 0x2B8A SWAP1 PUSH2 0x3B13 JUMP JUMPDEST DUP1 ISZERO PUSH2 0x2BD7 JUMPI DUP1 PUSH1 0x1F LT PUSH2 0x2BAC JUMPI PUSH2 0x100 DUP1 DUP4 SLOAD DIV MUL DUP4 MSTORE SWAP2 PUSH1 0x20 ADD SWAP2 PUSH2 0x2BD7 JUMP JUMPDEST DUP3 ADD SWAP2 SWAP1 PUSH1 0x0 MSTORE PUSH1 0x20 PUSH1 0x0 KECCAK256 SWAP1 JUMPDEST DUP2 SLOAD DUP2 MSTORE SWAP1 PUSH1 0x1 ADD SWAP1 PUSH1 0x20 ADD DUP1 DUP4 GT PUSH2 0x2BBA JUMPI DUP3 SWAP1 SUB PUSH1 0x1F AND DUP3 ADD SWAP2 JUMPDEST POP POP POP POP POP DUP2 MSTORE PUSH1 0x20 ADD PUSH1 0x2 DUP3 ADD DUP1 SLOAD PUSH2 0x2BF0 SWAP1 PUSH2 0x3B13 JUMP JUMPDEST DUP1 PUSH1 0x1F ADD PUSH1 0x20 DUP1 SWAP2 DIV MUL PUSH1 0x20 ADD PUSH1 0x40 MLOAD SWAP1 DUP2 ADD PUSH1 0x40 MSTORE DUP1 SWAP3 SWAP2 SWAP1 DUP2 DUP2 MSTORE PUSH1 0x20 ADD DUP3 DUP1 SLOAD PUSH2 0x2C1C SWAP1 PUSH2 0x3B13 JUMP JUMPDEST DUP1 ISZERO PUSH2 0x2C69 JUMPI DUP1 PUSH1 0x1F LT PUSH2 0x2C3E JUMPI PUSH2 0x100 DUP1 DUP4 SLOAD DIV MUL DUP4 MSTORE SWAP2 PUSH1 0x20 ADD SWAP2 PUSH2 0x2C69 JUMP JUMPDEST DUP3 ADD SWAP2 SWAP1 PUSH1 0x0 MSTORE PUSH1 0x20 PUSH1 0x0 KECCAK256 SWAP1 JUMPDEST DUP2 SLOAD DUP2 MSTORE SWAP1 PUSH1 0x1 ADD SWAP1 PUSH1 0x20 ADD DUP1 DUP4 GT PUSH2 0x2C4C JUMPI DUP3 SWAP1 SUB PUSH1 0x1F AND DUP3 ADD SWAP2 JUMPDEST POP POP POP POP POP DUP2 MSTORE PUSH1 0x20 ADD PUSH1 0x3 DUP3 ADD DUP1 SLOAD PUSH2 0x2C82 SWAP1 PUSH2 0x3B13 JUMP JUMPDEST DUP1 PUSH1 0x1F ADD PUSH1 0x20 DUP1 SWAP2 DIV MUL PUSH1 0x20 ADD PUSH1 0x40 MLOAD SWAP1 DUP2 ADD PUSH1 0x40 MSTORE DUP1 SWAP3 SWAP2 SWAP1 DUP2 DUP2 MSTORE PUSH1 0x20 ADD DUP3 DUP1 SLOAD PUSH2 0x2CAE SWAP1 PUSH2 0x3B13 JUMP JUMPDEST DUP1 ISZERO PUSH2 0x2CFB JUMPI DUP1 PUSH1 0x1F LT PUSH2 0x2CD0 JUMPI PUSH2 0x100 DUP1 DUP4 SLOAD DIV MUL DUP4 MSTORE SWAP2 PUSH1 0x20 ADD SWAP2 PUSH2 0x2CFB JUMP JUMPDEST DUP3 ADD SWAP2 SWAP1 PUSH1 0x0 MSTORE PUSH1 0x20 PUSH1 0x0 KECCAK256 SWAP1 JUMPDEST DUP2 SLOAD DUP2 MSTORE SWAP1 PUSH1 0x1 ADD SWAP1 PUSH1 0x20 ADD DUP1 DUP4 GT PUSH2 0x2CDE JUMPI DUP3 SWAP1 SUB PUSH1 0x1F AND DUP3 ADD SWAP2 JUMPDEST POP POP POP POP POP DUP2 MSTORE PUSH1 0x20 ADD PUSH1 0x4 DUP3 ADD DUP1 SLOAD PUSH2 0x2D14 SWAP1 PUSH2 0x3B13 JUMP JUMPDEST DUP1 PUSH1 0x1F ADD PUSH1 0x20 DUP1 SWAP2 DIV MUL PUSH1 0x20 ADD PUSH1 0x40 MLOAD SWAP1 DUP2 ADD PUSH1 0x40 MSTORE DUP1 SWAP3 SWAP2 SWAP1 DUP2 DUP2 MSTORE PUSH1 0x20 ADD DUP3 DUP1 SLOAD PUSH2 0x2D40 SWAP1 PUSH2 0x3B13 JUMP JUMPDEST DUP1 ISZERO PUSH2 0x2D8D JUMPI DUP1 PUSH1 0x1F LT PUSH2 0x2D62 JUMPI PUSH2 0x100 DUP1 DUP4 SLOAD DIV MUL DUP4 MSTORE SWAP2 PUSH1 0x20 ADD SWAP2 PUSH2 0x2D8D JUMP JUMPDEST DUP3 ADD SWAP2 SWAP1 PUSH1 0x0 MSTORE PUSH1 0x20 PUSH1 0x0 KECCAK256 SWAP1 JUMPDEST DUP2 SLOAD DUP2 MSTORE SWAP1 PUSH1 0x1 ADD SWAP1 PUSH1 0x20 ADD DUP1 DUP4 GT PUSH2 0x2D70 JUMPI DUP3 SWAP1 SUB PUSH1 0x1F AND DUP3 ADD SWAP2 JUMPDEST POP POP POP SWAP2 DUP4 MSTORE POP POP PUSH1 0x5 DUP3 ADD SLOAD PUSH1 0x20 DUP3 ADD MSTORE PUSH1 0x6 DUP3 ADD SLOAD PUSH1 0x1 PUSH1 0x1 PUSH1 0xA0 SHL SUB DUP2 AND PUSH1 0x40 DUP4 ADD MSTORE PUSH1 0x1 PUSH1 0xA0 SHL SWAP1 DIV PUSH1 0xFF AND ISZERO ISZERO PUSH1 0x60 DUP3 ADD MSTORE PUSH1 0x7 DUP3 ADD DUP1 SLOAD PUSH1 0x80 SWAP1 SWAP3 ADD SWAP2 PUSH2 0x2DD9 SWAP1 PUSH2 0x3B13 JUMP JUMPDEST DUP1 PUSH1 0x1F ADD PUSH1 0x20 DUP1 SWAP2 DIV MUL PUSH1 0x20 ADD PUSH1 0x40 MLOAD SWAP1 DUP2 ADD PUSH1 0x40 MSTORE DUP1 SWAP3 SWAP2 SWAP1 DUP2 DUP2 MSTORE PUSH1 0x20 ADD DUP3 DUP1 SLOAD PUSH2 0x2E05 SWAP1 PUSH2 0x3B13 JUMP JUMPDEST DUP1 ISZERO PUSH2 0x2E52 JUMPI DUP1 PUSH1 0x1F LT PUSH2 0x2E27 JUMPI PUSH2 0x100 DUP1 DUP4 SLOAD DIV MUL DUP4 MSTORE SWAP2 PUSH1 0x20 ADD SWAP2 PUSH2 0x2E52 JUMP JUMPDEST DUP3 ADD SWAP2 SWAP1 PUSH1 0x0 MSTORE PUSH1 0x20 PUSH1 0x0 KECCAK256 SWAP1 JUMPDEST DUP2 SLOAD DUP2 MSTORE SWAP1 PUSH1 0x1 ADD SWAP1 PUSH1 0x20 ADD DUP1 DUP4 GT PUSH2 0x2E35 JUMPI DUP3 SWAP1 SUB PUSH1 0x1F AND DUP3 ADD SWAP2 JUMPDEST POP POP POP SWAP2 DUP4 MSTORE POP POP PUSH1 0x8 SWAP2 SWAP1 SWAP2 ADD SLOAD PUSH1 0xFF AND PUSH1 0x20 SWAP1 SWAP2 ADD MSTORE PUSH1 0xE0 DUP2 ADD MLOAD SWAP1 SWAP2 POP ISZERO PUSH2 0x2EC0 JUMPI DUP9 DUP1 PUSH2 0x2E8E JUMPI POP DUP6 PUSH1 0xFF AND DUP2 PUSH2 0x120 ADD MLOAD PUSH1 0xFF AND GT ISZERO JUMPDEST ISZERO PUSH2 0x2EC0 JUMPI DUP1 DUP5 DUP5 DUP2 MLOAD DUP2 LT PUSH2 0x2EA6 JUMPI PUSH2 0x2EA6 PUSH2 0x3AFD JUMP JUMPDEST PUSH1 0x20 MUL PUSH1 0x20 ADD ADD DUP2 SWAP1 MSTORE POP DUP3 DUP1 PUSH2 0x2EBC SWAP1 PUSH2 0x3DCD JUMP JUMPDEST SWAP4 POP POP JUMPDEST POP PUSH1 0x1 ADD PUSH2 0x2A58 JUMP JUMPDEST POP SWAP1 SWAP9 SWAP8 POP POP POP POP POP POP POP POP JUMP JUMPDEST PUSH1 0x1 PUSH1 0x1 PUSH1 0xA0 SHL SUB DUP5 AND PUSH1 0x0 SWAP1 DUP2 MSTORE PUSH1 0x1 PUSH1 0x20 MSTORE PUSH1 0x40 SWAP1 KECCAK256 PUSH1 0x3 ADD SLOAD PUSH1 0xFF AND ISZERO PUSH2 0x2F43 JUMPI PUSH1 0x40 MLOAD PUSH3 0x461BCD PUSH1 0xE5 SHL DUP2 MSTORE PUSH1 0x20 PUSH1 0x4 DUP3 ADD MSTORE PUSH1 0x1A PUSH1 0x24 DUP3 ADD MSTORE PUSH32 0x50617469656E7420616C72656164792072656769737465726564000000000000 PUSH1 0x44 DUP3 ADD MSTORE PUSH1 0x64 ADD PUSH2 0x41B JUMP JUMPDEST PUSH1 0x40 DUP1 MLOAD PUSH1 0x80 DUP2 ADD DUP3 MSTORE DUP5 DUP2 MSTORE PUSH1 0x20 DUP1 DUP3 ADD DUP6 SWAP1 MSTORE DUP2 DUP4 ADD DUP5 SWAP1 MSTORE PUSH1 0x1 PUSH1 0x60 DUP4 ADD DUP2 SWAP1 MSTORE PUSH1 0x1 PUSH1 0x1 PUSH1 0xA0 SHL SUB DUP9 AND PUSH1 0x0 SWAP1 DUP2 MSTORE SWAP2 MSTORE SWAP2 SWAP1 SWAP2 KECCAK256 DUP2 MLOAD DUP2 SWAP1 PUSH2 0x2F8A SWAP1 DUP3 PUSH2 0x3BEF JUMP JUMPDEST POP PUSH1 0x20 DUP3 ADD MLOAD PUSH1 0x1 DUP3 ADD SWAP1 PUSH2 0x2F9F SWAP1 DUP3 PUSH2 0x3BEF JUMP JUMPDEST POP PUSH1 0x40 DUP3 ADD MLOAD PUSH1 0x2 DUP3 ADD SWAP1 PUSH2 0x2FB4 SWAP1 DUP3 PUSH2 0x3BEF JUMP JUMPDEST POP PUSH1 0x60 SWAP2 SWAP1 SWAP2 ADD MLOAD PUSH1 0x3 SWAP1 SWAP2 ADD DUP1 SLOAD PUSH1 0xFF NOT AND SWAP2 ISZERO ISZERO SWAP2 SWAP1 SWAP2 OR SWAP1 SSTORE PUSH1 0x2 DUP1 SLOAD PUSH1 0x1 DUP2 ADD DUP3 SSTORE PUSH1 0x0 SWAP2 SWAP1 SWAP2 MSTORE PUSH32 0x405787FA12A823E0F2B7631CC41B3BA8828B3321CA811111FA75CD3AA3BB5ACE ADD DUP1 SLOAD PUSH1 0x1 PUSH1 0x1 PUSH1 0xA0 SHL SUB NOT AND PUSH1 0x1 PUSH1 0x1 PUSH1 0xA0 SHL SUB DUP7 AND SWAP1 DUP2 OR SWAP1 SWAP2 SSTORE PUSH1 0x40 MLOAD PUSH32 0x5AAD8BC7AD9861B16C6D01A65F54118DFE585A51E408AC2E7B9499148D515C41 SWAP1 PUSH2 0x3050 SWAP1 DUP7 SWAP1 DUP7 SWAP1 PUSH2 0x3ED3 JUMP JUMPDEST PUSH1 0x40 MLOAD DUP1 SWAP2 SUB SWAP1 LOG2 PUSH1 0x9 SLOAD PUSH1 0x1 PUSH1 0x1 PUSH1 0xA0 SHL SUB AND ISZERO PUSH2 0x17AF JUMPI PUSH1 0x9 SLOAD PUSH1 0x40 MLOAD PUSH4 0xBFF45139 PUSH1 0xE0 SHL DUP2 MSTORE PUSH1 0x1 PUSH1 0x1 PUSH1 0xA0 SHL SUB SWAP1 SWAP2 AND SWAP1 PUSH4 0xBFF45139 SWAP1 PUSH2 0x309D SWAP1 CALLER SWAP1 DUP9 SWAP1 DUP9 SWAP1 PUSH1 0x4 ADD PUSH2 0x3EF8 JUMP JUMPDEST PUSH1 0x0 PUSH1 0x40 MLOAD DUP1 DUP4 SUB DUP2 PUSH1 0x0 DUP8 DUP1 EXTCODESIZE ISZERO DUP1 ISZERO PUSH2 0x30B7 JUMPI PUSH1 0x0 DUP1 REVERT JUMPDEST POP GAS CALL SWAP3 POP POP POP DUP1 ISZERO PUSH2 0x30C8 JUMPI POP PUSH1 0x1 JUMPDEST POP POP POP POP POP JUMP JUMPDEST PUSH1 0x2 DUP2 DUP2 SLOAD DUP2 LT PUSH2 0x30DF JUMPI PUSH1 0x0 DUP1 REVERT JUMPDEST PUSH1 0x0 SWAP2 DUP3 MSTORE PUSH1 0x20 SWAP1 SWAP2 KECCAK256 ADD SLOAD PUSH1 0x1 PUSH1 0x1 PUSH1 0xA0 SHL SUB AND SWAP1 POP DUP2 JUMP JUMPDEST PUSH1 0x0 SLOAD PUSH1 0x1 PUSH1 0x1 PUSH1 0xA0 SHL SUB AND CALLER EQ PUSH2 0x3123 JUMPI PUSH1 0x40 MLOAD PUSH3 0x461BCD PUSH1 0xE5 SHL DUP2 MSTORE PUSH1 0x4 ADD PUSH2 0x41B SWAP1 PUSH2 0x3D63 JUMP JUMPDEST PUSH1 0x8 DUP1 SLOAD PUSH1 0x1 PUSH1 0x1 PUSH1 0xA0 SHL SUB NOT AND PUSH1 0x1 PUSH1 0x1 PUSH1 0xA0 SHL SUB SWAP3 SWAP1 SWAP3 AND SWAP2 SWAP1 SWAP2 OR SWAP1 SSTORE JUMP JUMPDEST PUSH1 0x60 CALLER PUSH1 0x1 PUSH1 0x1 PUSH1 0xA0 SHL SUB DUP4 AND EQ PUSH2 0x319F JUMPI PUSH1 0x40 MLOAD PUSH3 0x461BCD PUSH1 0xE5 SHL DUP2 MSTORE PUSH1 0x20 PUSH1 0x4 DUP3 ADD MSTORE PUSH1 0x1E PUSH1 0x24 DUP3 ADD MSTORE PUSH32 0x4F6E6C792070617469656E742063616E20766965772072657175657374730000 PUSH1 0x44 DUP3 ADD MSTORE PUSH1 0x64 ADD PUSH2 0x41B JUMP JUMPDEST PUSH1 0x1 PUSH1 0x1 PUSH1 0xA0 SHL SUB DUP3 AND PUSH1 0x0 SWAP1 DUP2 MSTORE PUSH1 0xA PUSH1 0x20 SWAP1 DUP2 MSTORE PUSH1 0x40 SWAP2 DUP3 SWAP1 KECCAK256 DUP1 SLOAD DUP4 MLOAD DUP2 DUP5 MUL DUP2 ADD DUP5 ADD SWAP1 SWAP5 MSTORE DUP1 DUP5 MSTORE SWAP1 SWAP2 DUP4 ADD DUP3 DUP3 DUP1 ISZERO PUSH2 0x3207 JUMPI PUSH1 0x20 MUL DUP3 ADD SWAP2 SWAP1 PUSH1 0x0 MSTORE PUSH1 0x20 PUSH1 0x0 KECCAK256 SWAP1 JUMPDEST DUP2 SLOAD PUSH1 0x1 PUSH1 0x1 PUSH1 0xA0 SHL SUB AND DUP2 MSTORE PUSH1 0x1 SWAP1 SWAP2 ADD SWAP1 PUSH1 0x20 ADD DUP1 DUP4 GT PUSH2 0x31E9 JUMPI JUMPDEST POP POP POP POP POP SWAP1 POP SWAP2 SWAP1 POP JUMP JUMPDEST PUSH1 0xA PUSH1 0x20 MSTORE DUP2 PUSH1 0x0 MSTORE PUSH1 0x40 PUSH1 0x0 KECCAK256 DUP2 DUP2 SLOAD DUP2 LT PUSH2 0x322F JUMPI PUSH1 0x0 DUP1 REVERT JUMPDEST PUSH1 0x0 SWAP2 DUP3 MSTORE PUSH1 0x20 SWAP1 SWAP2 KECCAK256 ADD SLOAD PUSH1 0x1 PUSH1 0x1 PUSH1 0xA0 SHL SUB AND SWAP2 POP DUP3 SWAP1 POP JUMP JUMPDEST PUSH1 0x6 SLOAD PUSH1 0x0 SWAP1 PUSH1 0x1 PUSH1 0x1 PUSH1 0xA0 SHL SUB AND ISZERO PUSH2 0x32E6 JUMPI PUSH1 0x6 SLOAD PUSH1 0x40 MLOAD PUSH4 0xBC13819 PUSH1 0xE2 SHL DUP2 MSTORE PUSH1 0x1 PUSH1 0x1 PUSH1 0xA0 SHL SUB DUP5 DUP2 AND PUSH1 0x4 DUP4 ADD MSTORE SWAP1 SWAP2 AND SWAP1 PUSH4 0x2F04E064 SWAP1 PUSH1 0x24 ADD PUSH1 0x0 PUSH1 0x40 MLOAD DUP1 DUP4 SUB DUP2 DUP7 GAS STATICCALL SWAP3 POP POP POP DUP1 ISZERO PUSH2 0x32CA JUMPI POP PUSH1 0x40 MLOAD RETURNDATASIZE PUSH1 0x0 DUP3 RETURNDATACOPY PUSH1 0x1F RETURNDATASIZE SWAP1 DUP2 ADD PUSH1 0x1F NOT AND DUP3 ADD PUSH1 0x40 MSTORE PUSH2 0x32C7 SWAP2 SWAP1 DUP2 ADD SWAP1 PUSH2 0x3E33 JUMP JUMPDEST PUSH1 0x1 JUMPDEST ISZERO PUSH2 0x32E6 JUMPI DUP1 ISZERO PUSH2 0x32E1 JUMPI POP PUSH1 0x2 SWAP6 SWAP5 POP POP POP POP POP JUMP JUMPDEST POP POP POP POP JUMPDEST PUSH1 0x7 SLOAD PUSH1 0x1 PUSH1 0x1 PUSH1 0xA0 SHL SUB AND ISZERO PUSH2 0x337E JUMPI PUSH1 0x7 SLOAD PUSH1 0x40 MLOAD PUSH4 0x87E59793 PUSH1 0xE0 SHL DUP2 MSTORE PUSH1 0x1 PUSH1 0x1 PUSH1 0xA0 SHL SUB DUP5 DUP2 AND PUSH1 0x4 DUP4 ADD MSTORE SWAP1 SWAP2 AND SWAP1 PUSH4 0x87E59793 SWAP1 PUSH1 0x24 ADD PUSH1 0x0 PUSH1 0x40 MLOAD DUP1 DUP4 SUB DUP2 DUP7 GAS STATICCALL SWAP3 POP POP POP DUP1 ISZERO PUSH2 0x3362 JUMPI POP PUSH1 0x40 MLOAD RETURNDATASIZE PUSH1 0x0 DUP3 RETURNDATACOPY PUSH1 0x1F RETURNDATASIZE SWAP1 DUP2 ADD PUSH1 0x1F NOT AND DUP3 ADD PUSH1 0x40 MSTORE PUSH2 0x335F SWAP2 SWAP1 DUP2 ADD SWAP1 PUSH2 0x3E33 JUMP JUMPDEST PUSH1 0x1 JUMPDEST ISZERO PUSH2 0x337E JUMPI DUP1 ISZERO PUSH2 0x3379 JUMPI POP PUSH1 0x1 SWAP6 SWAP5 POP POP POP POP POP JUMP JUMPDEST POP POP POP POP JUMPDEST PUSH1 0x8 SLOAD PUSH1 0x1 PUSH1 0x1 PUSH1 0xA0 SHL SUB AND ISZERO PUSH2 0x3416 JUMPI PUSH1 0x8 SLOAD PUSH1 0x40 MLOAD PUSH4 0x73F5D261 PUSH1 0xE1 SHL DUP2 MSTORE PUSH1 0x1 PUSH1 0x1 PUSH1 0xA0 SHL SUB DUP5 DUP2 AND PUSH1 0x4 DUP4 ADD MSTORE SWAP1 SWAP2 AND SWAP1 PUSH4 0xE7EBA4C2 SWAP1 PUSH1 0x24 ADD PUSH1 0x0 PUSH1 0x40 MLOAD DUP1 DUP4 SUB DUP2 DUP7 GAS STATICCALL SWAP3 POP POP POP DUP1 ISZERO PUSH2 0x33FA JUMPI POP PUSH1 0x40 MLOAD RETURNDATASIZE PUSH1 0x0 DUP3 RETURNDATACOPY PUSH1 0x1F RETURNDATASIZE SWAP1 DUP2 ADD PUSH1 0x1F NOT AND DUP3 ADD PUSH1 0x40 MSTORE PUSH2 0x33F7 SWAP2 SWAP1 DUP2 ADD SWAP1 PUSH2 0x3E33 JUMP JUMPDEST PUSH1 0x1 JUMPDEST ISZERO PUSH2 0x3416 JUMPI DUP1 ISZERO PUSH2 0x3411 JUMPI POP PUSH1 0x0 SWAP6 SWAP5 POP POP POP POP POP JUMP JUMPDEST POP POP POP POP JUMPDEST POP PUSH1 0x0 SWAP2 SWAP1 POP JUMP JUMPDEST PUSH1 0x40 MLOAD DUP1 PUSH2 0x140 ADD PUSH1 0x40 MSTORE DUP1 PUSH1 0x60 DUP2 MSTORE PUSH1 0x20 ADD PUSH1 0x60 DUP2 MSTORE PUSH1 0x20 ADD PUSH1 0x60 DUP2 MSTORE PUSH1 0x20 ADD PUSH1 0x60 DUP2 MSTORE PUSH1 0x20 ADD PUSH1 0x60 DUP2 MSTORE PUSH1 0x20 ADD PUSH1 0x0 DUP2 MSTORE PUSH1 0x20 ADD PUSH1 0x0 PUSH1 0x1 PUSH1 0x1 PUSH1 0xA0 SHL SUB AND DUP2 MSTORE PUSH1 0x20 ADD PUSH1 0x0 ISZERO ISZERO DUP2 MSTORE PUSH1 0x20 ADD PUSH1 0x60 DUP2 MSTORE PUSH1 0x20 ADD PUSH1 0x0 PUSH1 0xFF AND DUP2 MSTORE POP SWAP1 JUMP JUMPDEST DUP1 CALLDATALOAD PUSH1 0x1 PUSH1 0x1 PUSH1 0xA0 SHL SUB DUP2 AND DUP2 EQ PUSH2 0x3496 JUMPI PUSH1 0x0 DUP1 REVERT JUMPDEST SWAP2 SWAP1 POP JUMP JUMPDEST PUSH1 0x0 PUSH1 0x20 DUP3 DUP5 SUB SLT ISZERO PUSH2 0x34AD JUMPI PUSH1 0x0 DUP1 REVERT JUMPDEST PUSH2 0x34B6 DUP3 PUSH2 0x347F JUMP JUMPDEST SWAP4 SWAP3 POP POP POP JUMP JUMPDEST PUSH1 0x0 JUMPDEST DUP4 DUP2 LT ISZERO PUSH2 0x34D8 JUMPI DUP2 DUP2 ADD MLOAD DUP4 DUP3 ADD MSTORE PUSH1 0x20 ADD PUSH2 0x34C0 JUMP JUMPDEST POP POP PUSH1 0x0 SWAP2 ADD MSTORE JUMP JUMPDEST PUSH1 0x0 DUP2 MLOAD DUP1 DUP5 MSTORE PUSH2 0x34F9 DUP2 PUSH1 0x20 DUP7 ADD PUSH1 0x20 DUP7 ADD PUSH2 0x34BD JUMP JUMPDEST PUSH1 0x1F ADD PUSH1 0x1F NOT AND SWAP3 SWAP1 SWAP3 ADD PUSH1 0x20 ADD SWAP3 SWAP2 POP POP JUMP JUMPDEST PUSH1 0x80 DUP2 MSTORE PUSH1 0x0 PUSH2 0x3520 PUSH1 0x80 DUP4 ADD DUP8 PUSH2 0x34E1 JUMP JUMPDEST DUP3 DUP2 SUB PUSH1 0x20 DUP5 ADD MSTORE PUSH2 0x3532 DUP2 DUP8 PUSH2 0x34E1 JUMP JUMPDEST SWAP1 POP DUP3 DUP2 SUB PUSH1 0x40 DUP5 ADD MSTORE PUSH2 0x3546 DUP2 DUP7 PUSH2 0x34E1 JUMP JUMPDEST SWAP2 POP POP DUP3 ISZERO ISZERO PUSH1 0x60 DUP4 ADD MSTORE SWAP6 SWAP5 POP POP POP POP POP JUMP JUMPDEST PUSH1 0x20 DUP1 DUP3 MSTORE DUP3 MLOAD DUP3 DUP3 ADD DUP2 SWAP1 MSTORE PUSH1 0x0 SWAP2 SWAP1 DUP5 DUP3 ADD SWAP1 PUSH1 0x40 DUP6 ADD SWAP1 DUP5 JUMPDEST DUP2 DUP2 LT ISZERO PUSH2 0x359B JUMPI DUP4 MLOAD PUSH1 0x1 PUSH1 0x1 PUSH1 0xA0 SHL SUB AND DUP4 MSTORE SWAP3 DUP5 ADD SWAP3 SWAP2 DUP5 ADD SWAP2 PUSH1 0x1 ADD PUSH2 0x3576 JUMP JUMPDEST POP SWAP1 SWAP7 SWAP6 POP POP POP POP POP POP JUMP JUMPDEST PUSH4 0x4E487B71 PUSH1 0xE0 SHL PUSH1 0x0 MSTORE PUSH1 0x41 PUSH1 0x4 MSTORE PUSH1 0x24 PUSH1 0x0 REVERT JUMPDEST PUSH1 0x40 MLOAD PUSH1 0x1F DUP3 ADD PUSH1 0x1F NOT AND DUP2 ADD PUSH8 0xFFFFFFFFFFFFFFFF DUP2 GT DUP3 DUP3 LT OR ISZERO PUSH2 0x35E6 JUMPI PUSH2 0x35E6 PUSH2 0x35A7 JUMP JUMPDEST PUSH1 0x40 MSTORE SWAP2 SWAP1 POP JUMP JUMPDEST PUSH1 0x0 PUSH8 0xFFFFFFFFFFFFFFFF DUP3 GT ISZERO PUSH2 0x3608 JUMPI PUSH2 0x3608 PUSH2 0x35A7 JUMP JUMPDEST POP PUSH1 0x1F ADD PUSH1 0x1F NOT AND PUSH1 0x20 ADD SWAP1 JUMP JUMPDEST PUSH1 0x0 DUP3 PUSH1 0x1F DUP4 ADD SLT PUSH2 0x3627 JUMPI PUSH1 0x0 DUP1 REVERT JUMPDEST DUP2 CALLDATALOAD PUSH2 0x363A PUSH2 0x3635 DUP3 PUSH2 0x35EE JUMP JUMPDEST PUSH2 0x35BD JUMP JUMPDEST DUP2 DUP2 MSTORE DUP5 PUSH1 0x20 DUP4 DUP7 ADD ADD GT ISZERO PUSH2 0x364F JUMPI PUSH1 0x0 DUP1 REVERT JUMPDEST DUP2 PUSH1 0x20 DUP6 ADD PUSH1 0x20 DUP4 ADD CALLDATACOPY PUSH1 0x0 SWAP2 DUP2 ADD PUSH1 0x20 ADD SWAP2 SWAP1 SWAP2 MSTORE SWAP4 SWAP3 POP POP POP JUMP JUMPDEST DUP1 CALLDATALOAD PUSH1 0xFF DUP2 AND DUP2 EQ PUSH2 0x3496 JUMPI PUSH1 0x0 DUP1 REVERT JUMPDEST PUSH1 0x0 DUP1 PUSH1 0x0 DUP1 PUSH1 0x0 DUP1 PUSH1 0x0 DUP1 PUSH2 0x100 DUP10 DUP12 SUB SLT ISZERO PUSH2 0x369A JUMPI PUSH1 0x0 DUP1 REVERT JUMPDEST PUSH2 0x36A3 DUP10 PUSH2 0x347F JUMP JUMPDEST SWAP8 POP PUSH1 0x20 DUP10 ADD CALLDATALOAD PUSH8 0xFFFFFFFFFFFFFFFF DUP1 DUP3 GT ISZERO PUSH2 0x36C0 JUMPI PUSH1 0x0 DUP1 REVERT JUMPDEST PUSH2 0x36CC DUP13 DUP4 DUP14 ADD PUSH2 0x3616 JUMP JUMPDEST SWAP9 POP PUSH1 0x40 DUP12 ADD CALLDATALOAD SWAP2 POP DUP1 DUP3 GT ISZERO PUSH2 0x36E2 JUMPI PUSH1 0x0 DUP1 REVERT JUMPDEST PUSH2 0x36EE DUP13 DUP4 DUP14 ADD PUSH2 0x3616 JUMP JUMPDEST SWAP8 POP PUSH1 0x60 DUP12 ADD CALLDATALOAD SWAP2 POP DUP1 DUP3 GT ISZERO PUSH2 0x3704 JUMPI PUSH1 0x0 DUP1 REVERT JUMPDEST PUSH2 0x3710 DUP13 DUP4 DUP14 ADD PUSH2 0x3616 JUMP JUMPDEST SWAP7 POP PUSH1 0x80 DUP12 ADD CALLDATALOAD SWAP2 POP DUP1 DUP3 GT ISZERO PUSH2 0x3726 JUMPI PUSH1 0x0 DUP1 REVERT JUMPDEST PUSH2 0x3732 DUP13 DUP4 DUP14 ADD PUSH2 0x3616 JUMP JUMPDEST SWAP6 POP PUSH1 0xA0 DUP12 ADD CALLDATALOAD SWAP2 POP DUP1 DUP3 GT ISZERO PUSH2 0x3748 JUMPI PUSH1 0x0 DUP1 REVERT JUMPDEST PUSH2 0x3754 DUP13 DUP4 DUP14 ADD PUSH2 0x3616 JUMP JUMPDEST SWAP5 POP PUSH1 0xC0 DUP12 ADD CALLDATALOAD SWAP2 POP DUP1 DUP3 GT ISZERO PUSH2 0x376A JUMPI PUSH1 0x0 DUP1 REVERT JUMPDEST POP PUSH2 0x3777 DUP12 DUP3 DUP13 ADD PUSH2 0x3616 JUMP JUMPDEST SWAP3 POP POP PUSH2 0x3786 PUSH1 0xE0 DUP11 ADD PUSH2 0x366C JUMP JUMPDEST SWAP1 POP SWAP3 SWAP6 SWAP9 POP SWAP3 SWAP6 SWAP9 SWAP1 SWAP4 SWAP7 POP JUMP JUMPDEST PUSH1 0x0 DUP1 PUSH1 0x40 DUP4 DUP6 SUB SLT ISZERO PUSH2 0x37A8 JUMPI PUSH1 0x0 DUP1 REVERT JUMPDEST PUSH2 0x37B1 DUP4 PUSH2 0x347F JUMP JUMPDEST SWAP2 POP PUSH2 0x37BF PUSH1 0x20 DUP5 ADD PUSH2 0x347F JUMP JUMPDEST SWAP1 POP SWAP3 POP SWAP3 SWAP1 POP JUMP JUMPDEST PUSH1 0x0 DUP1 PUSH1 0x40 DUP4 DUP6 SUB SLT ISZERO PUSH2 0x37DB JUMPI PUSH1 0x0 DUP1 REVERT JUMPDEST PUSH2 0x37E4 DUP4 PUSH2 0x347F JUMP JUMPDEST SWAP5 PUSH1 0x20 SWAP4 SWAP1 SWAP4 ADD CALLDATALOAD SWAP4 POP POP POP JUMP JUMPDEST PUSH1 0x0 PUSH2 0x140 DUP1 DUP4 MSTORE PUSH2 0x3806 DUP2 DUP5 ADD DUP15 PUSH2 0x34E1 JUMP JUMPDEST SWAP1 POP DUP3 DUP2 SUB PUSH1 0x20 DUP5 ADD MSTORE PUSH2 0x381A DUP2 DUP14 PUSH2 0x34E1 JUMP JUMPDEST SWAP1 POP DUP3 DUP2 SUB PUSH1 0x40 DUP5 ADD MSTORE PUSH2 0x382E DUP2 DUP13 PUSH2 0x34E1 JUMP JUMPDEST SWAP1 POP DUP3 DUP2 SUB PUSH1 0x60 DUP5 ADD MSTORE PUSH2 0x3842 DUP2 DUP12 PUSH2 0x34E1 JUMP JUMPDEST SWAP1 POP DUP3 DUP2 SUB PUSH1 0x80 DUP5 ADD MSTORE PUSH2 0x3856 DUP2 DUP11 PUSH2 0x34E1 JUMP JUMPDEST PUSH1 0xA0 DUP5 ADD DUP10 SWAP1 MSTORE PUSH1 0x1 PUSH1 0x1 PUSH1 0xA0 SHL SUB DUP9 AND PUSH1 0xC0 DUP6 ADD MSTORE DUP7 ISZERO ISZERO PUSH1 0xE0 DUP6 ADD MSTORE DUP4 DUP2 SUB PUSH2 0x100 DUP6 ADD MSTORE SWAP1 POP PUSH2 0x3889 DUP2 DUP7 PUSH2 0x34E1 JUMP JUMPDEST SWAP2 POP POP PUSH1 0xFF DUP4 AND PUSH2 0x120 DUP4 ADD MSTORE SWAP12 SWAP11 POP POP POP POP POP POP POP POP POP POP POP JUMP JUMPDEST PUSH1 0x0 PUSH1 0x20 DUP1 DUP4 ADD DUP2 DUP5 MSTORE DUP1 DUP6 MLOAD DUP1 DUP4 MSTORE PUSH1 0x40 SWAP3 POP PUSH1 0x40 DUP7 ADD SWAP2 POP PUSH1 0x40 DUP2 PUSH1 0x5 SHL DUP8 ADD ADD DUP5 DUP9 ADD PUSH1 0x0 JUMPDEST DUP4 DUP2 LT ISZERO PUSH2 0x2EC9 JUMPI PUSH1 0x3F NOT DUP10 DUP5 SUB ADD DUP6 MSTORE DUP2 MLOAD PUSH2 0x140 DUP2 MLOAD DUP2 DUP7 MSTORE PUSH2 0x38F5 DUP3 DUP8 ADD DUP3 PUSH2 0x34E1 JUMP JUMPDEST SWAP2 POP POP DUP9 DUP3 ADD MLOAD DUP6 DUP3 SUB DUP11 DUP8 ADD MSTORE PUSH2 0x390D DUP3 DUP3 PUSH2 0x34E1 JUMP JUMPDEST SWAP2 POP POP DUP8 DUP3 ADD MLOAD DUP6 DUP3 SUB DUP10 DUP8 ADD MSTORE PUSH2 0x3925 DUP3 DUP3 PUSH2 0x34E1 JUMP JUMPDEST SWAP2 POP POP PUSH1 0x60 DUP1 DUP4 ADD MLOAD DUP7 DUP4 SUB DUP3 DUP9 ADD MSTORE PUSH2 0x393F DUP4 DUP3 PUSH2 0x34E1 JUMP JUMPDEST SWAP3 POP POP POP PUSH1 0x80 DUP1 DUP4 ADD MLOAD DUP7 DUP4 SUB DUP3 DUP9 ADD MSTORE PUSH2 0x395A DUP4 DUP3 PUSH2 0x34E1 JUMP JUMPDEST SWAP3 POP POP POP PUSH1 0xA0 DUP1 DUP4 ADD MLOAD DUP2 DUP8 ADD MSTORE POP PUSH1 0xC0 DUP1 DUP4 ADD MLOAD PUSH2 0x3983 DUP3 DUP9 ADD DUP3 PUSH1 0x1 PUSH1 0x1 PUSH1 0xA0 SHL SUB AND SWAP1 MSTORE JUMP JUMPDEST POP POP PUSH1 0xE0 DUP3 DUP2 ADD MLOAD ISZERO ISZERO SWAP1 DUP7 ADD MSTORE PUSH2 0x100 DUP1 DUP4 ADD MLOAD DUP7 DUP4 SUB DUP3 DUP9 ADD MSTORE PUSH2 0x39A9 DUP4 DUP3 PUSH2 0x34E1 JUMP JUMPDEST SWAP3 POP POP POP PUSH2 0x120 DUP1 DUP4 ADD MLOAD SWAP3 POP PUSH2 0x39C4 DUP2 DUP8 ADD DUP5 PUSH1 0xFF AND SWAP1 MSTORE JUMP JUMPDEST POP SWAP6 DUP9 ADD SWAP6 SWAP4 POP POP SWAP1 DUP7 ADD SWAP1 PUSH1 0x1 ADD PUSH2 0x38CE JUMP JUMPDEST PUSH1 0x60 DUP2 MSTORE PUSH1 0x0 PUSH2 0x39EB PUSH1 0x60 DUP4 ADD DUP7 PUSH2 0x34E1 JUMP JUMPDEST DUP3 DUP2 SUB PUSH1 0x20 DUP5 ADD MSTORE PUSH2 0x39FD DUP2 DUP7 PUSH2 0x34E1 JUMP JUMPDEST SWAP1 POP DUP3 DUP2 SUB PUSH1 0x40 DUP5 ADD MSTORE PUSH2 0x3A11 DUP2 DUP6 PUSH2 0x34E1 JUMP JUMPDEST SWAP7 SWAP6 POP POP POP POP POP POP JUMP JUMPDEST PUSH1 0x0 DUP1 PUSH1 0x0 DUP1 PUSH1 0x80 DUP6 DUP8 SUB SLT ISZERO PUSH2 0x3A31 JUMPI PUSH1 0x0 DUP1 REVERT JUMPDEST PUSH2 0x3A3A DUP6 PUSH2 0x347F JUMP JUMPDEST SWAP4 POP PUSH1 0x20 DUP6 ADD CALLDATALOAD PUSH8 0xFFFFFFFFFFFFFFFF DUP1 DUP3 GT ISZERO PUSH2 0x3A57 JUMPI PUSH1 0x0 DUP1 REVERT JUMPDEST PUSH2 0x3A63 DUP9 DUP4 DUP10 ADD PUSH2 0x3616 JUMP JUMPDEST SWAP5 POP PUSH1 0x40 DUP8 ADD CALLDATALOAD SWAP2 POP DUP1 DUP3 GT ISZERO PUSH2 0x3A79 JUMPI PUSH1 0x0 DUP1 REVERT JUMPDEST PUSH2 0x3A85 DUP9 DUP4 DUP10 ADD PUSH2 0x3616 JUMP JUMPDEST SWAP4 POP PUSH1 0x60 DUP8 ADD CALLDATALOAD SWAP2 POP DUP1 DUP3 GT ISZERO PUSH2 0x3A9B JUMPI PUSH1 0x0 DUP1 REVERT JUMPDEST POP PUSH2 0x3AA8 DUP8 DUP3 DUP9 ADD PUSH2 0x3616 JUMP JUMPDEST SWAP2 POP POP SWAP3 SWAP6 SWAP2 SWAP5 POP SWAP3 POP JUMP JUMPDEST PUSH1 0x0 PUSH1 0x20 DUP3 DUP5 SUB SLT ISZERO PUSH2 0x3AC6 JUMPI PUSH1 0x0 DUP1 REVERT JUMPDEST POP CALLDATALOAD SWAP2 SWAP1 POP JUMP JUMPDEST PUSH1 0x20 DUP1 DUP3 MSTORE PUSH1 0x16 SWAP1 DUP3 ADD MSTORE PUSH22 0x14185D1A595B9D081B9BDD081C9959DA5CDD195C9959 PUSH1 0x52 SHL PUSH1 0x40 DUP3 ADD MSTORE PUSH1 0x60 ADD SWAP1 JUMP JUMPDEST PUSH4 0x4E487B71 PUSH1 0xE0 SHL PUSH1 0x0 MSTORE PUSH1 0x32 PUSH1 0x4 MSTORE PUSH1 0x24 PUSH1 0x0 REVERT JUMPDEST PUSH1 0x1 DUP2 DUP2 SHR SWAP1 DUP3 AND DUP1 PUSH2 0x3B27 JUMPI PUSH1 0x7F DUP3 AND SWAP2 POP JUMPDEST PUSH1 0x20 DUP3 LT DUP2 SUB PUSH2 0x3B47 JUMPI PUSH4 0x4E487B71 PUSH1 0xE0 SHL PUSH1 0x0 MSTORE PUSH1 0x22 PUSH1 0x4 MSTORE PUSH1 0x24 PUSH1 0x0 REVERT JUMPDEST POP SWAP2 SWAP1 POP JUMP JUMPDEST PUSH1 0x0 DUP3 MLOAD PUSH2 0x3B5F DUP2 DUP5 PUSH1 0x20 DUP8 ADD PUSH2 0x34BD JUMP JUMPDEST SWAP2 SWAP1 SWAP2 ADD SWAP3 SWAP2 POP POP JUMP JUMPDEST PUSH1 0x60 DUP2 MSTORE PUSH1 0x0 PUSH2 0x3B7C PUSH1 0x60 DUP4 ADD DUP7 PUSH2 0x34E1 JUMP JUMPDEST DUP3 DUP2 SUB PUSH1 0x20 DUP5 ADD MSTORE PUSH2 0x3B8E DUP2 DUP7 PUSH2 0x34E1 JUMP JUMPDEST SWAP2 POP POP DUP3 PUSH1 0x40 DUP4 ADD MSTORE SWAP5 SWAP4 POP POP POP POP JUMP JUMPDEST PUSH1 0x1F DUP3 GT ISZERO PUSH2 0x17B1 JUMPI PUSH1 0x0 DUP2 PUSH1 0x0 MSTORE PUSH1 0x20 PUSH1 0x0 KECCAK256 PUSH1 0x1F DUP6 ADD PUSH1 0x5 SHR DUP2 ADD PUSH1 0x20 DUP7 LT ISZERO PUSH2 0x3BC8 JUMPI POP DUP1 JUMPDEST PUSH1 0x1F DUP6 ADD PUSH1 0x5 SHR DUP3 ADD SWAP2 POP JUMPDEST DUP2 DUP2 LT ISZERO PUSH2 0x3BE7 JUMPI DUP3 DUP2 SSTORE PUSH1 0x1 ADD PUSH2 0x3BD4 JUMP JUMPDEST POP POP POP POP POP POP JUMP JUMPDEST DUP2 MLOAD PUSH8 0xFFFFFFFFFFFFFFFF DUP2 GT ISZERO PUSH2 0x3C09 JUMPI PUSH2 0x3C09 PUSH2 0x35A7 JUMP JUMPDEST PUSH2 0x3C1D DUP2 PUSH2 0x3C17 DUP5 SLOAD PUSH2 0x3B13 JUMP JUMPDEST DUP5 PUSH2 0x3B9F JUMP JUMPDEST PUSH1 0x20 DUP1 PUSH1 0x1F DUP4 GT PUSH1 0x1 DUP2 EQ PUSH2 0x3C52 JUMPI PUSH1 0x0 DUP5 ISZERO PUSH2 0x3C3A JUMPI POP DUP6 DUP4 ADD MLOAD JUMPDEST PUSH1 0x0 NOT PUSH1 0x3 DUP7 SWAP1 SHL SHR NOT AND PUSH1 0x1 DUP6 SWAP1 SHL OR DUP6 SSTORE PUSH2 0x3BE7 JUMP JUMPDEST PUSH1 0x0 DUP6 DUP2 MSTORE PUSH1 0x20 DUP2 KECCAK256 PUSH1 0x1F NOT DUP7 AND SWAP2 JUMPDEST DUP3 DUP2 LT ISZERO PUSH2 0x3C81 JUMPI DUP9 DUP7 ADD MLOAD DUP3 SSTORE SWAP5 DUP5 ADD SWAP5 PUSH1 0x1 SWAP1 SWAP2 ADD SWAP1 DUP5 ADD PUSH2 0x3C62 JUMP JUMPDEST POP DUP6 DUP3 LT ISZERO PUSH2 0x3C9F JUMPI DUP8 DUP6 ADD MLOAD PUSH1 0x0 NOT PUSH1 0x3 DUP9 SWAP1 SHL PUSH1 0xF8 AND SHR NOT AND DUP2 SSTORE JUMPDEST POP POP POP POP POP PUSH1 0x1 SWAP1 DUP2 SHL ADD SWAP1 SSTORE POP JUMP JUMPDEST PUSH4 0x4E487B71 PUSH1 0xE0 SHL PUSH1 0x0 MSTORE PUSH1 0x11 PUSH1 0x4 MSTORE PUSH1 0x24 PUSH1 0x0 REVERT JUMPDEST DUP2 DUP2 SUB DUP2 DUP2 GT ISZERO PUSH2 0x3CD8 JUMPI PUSH2 0x3CD8 PUSH2 0x3CAF JUMP JUMPDEST SWAP3 SWAP2 POP POP JUMP JUMPDEST PUSH1 0x60 DUP2 MSTORE PUSH1 0x0 PUSH2 0x3CF1 PUSH1 0x60 DUP4 ADD DUP7 PUSH2 0x34E1 JUMP JUMPDEST SWAP1 POP DUP4 PUSH1 0x20 DUP4 ADD MSTORE PUSH1 0xFF DUP4 AND PUSH1 0x40 DUP4 ADD MSTORE SWAP5 SWAP4 POP POP POP POP JUMP JUMPDEST PUSH1 0x1 PUSH1 0x1 PUSH1 0xA0 SHL SUB DUP5 DUP2 AND DUP3 MSTORE PUSH1 0x80 PUSH1 0x20 DUP4 ADD DUP2 SWAP1 MSTORE PUSH1 0xC SWAP1 DUP4 ADD MSTORE PUSH12 0x149150D3D49117D051111151 PUSH1 0xA2 SHL PUSH1 0xA0 DUP4 ADD MSTORE DUP4 AND PUSH1 0x40 DUP3 ADD MSTORE PUSH1 0xC0 PUSH1 0x60 DUP3 ADD DUP2 SWAP1 MSTORE PUSH1 0x0 SWAP1 PUSH2 0x3D5A SWAP1 DUP4 ADD DUP5 PUSH2 0x34E1 JUMP JUMPDEST SWAP6 SWAP5 POP POP POP POP POP JUMP JUMPDEST PUSH1 0x20 DUP1 DUP3 MSTORE PUSH1 0x21 SWAP1 DUP3 ADD MSTORE PUSH32 0x4F6E6C792061646D696E2063616E2063616C6C20746869732066756E6374696F PUSH1 0x40 DUP3 ADD MSTORE PUSH1 0x37 PUSH1 0xF9 SHL PUSH1 0x60 DUP3 ADD MSTORE PUSH1 0x80 ADD SWAP1 JUMP JUMPDEST DUP1 DUP3 ADD DUP1 DUP3 GT ISZERO PUSH2 0x3CD8 JUMPI PUSH2 0x3CD8 PUSH2 0x3CAF JUMP JUMPDEST PUSH4 0x4E487B71 PUSH1 0xE0 SHL PUSH1 0x0 MSTORE PUSH1 0x31 PUSH1 0x4 MSTORE PUSH1 0x24 PUSH1 0x0 REVERT JUMPDEST PUSH1 0x0 PUSH1 0x1 DUP3 ADD PUSH2 0x3DDF JUMPI PUSH2 0x3DDF PUSH2 0x3CAF JUMP JUMPDEST POP PUSH1 0x1 ADD SWAP1 JUMP JUMPDEST PUSH1 0x0 DUP3 PUSH1 0x1F DUP4 ADD SLT PUSH2 0x3DF7 JUMPI PUSH1 0x0 DUP1 REVERT JUMPDEST DUP2 MLOAD PUSH2 0x3E05 PUSH2 0x3635 DUP3 PUSH2 0x35EE JUMP JUMPDEST DUP2 DUP2 MSTORE DUP5 PUSH1 0x20 DUP4 DUP7 ADD ADD GT ISZERO PUSH2 0x3E1A JUMPI PUSH1 0x0 DUP1 REVERT JUMPDEST PUSH2 0x3E2B DUP3 PUSH1 0x20 DUP4 ADD PUSH1 0x20 DUP8 ADD PUSH2 0x34BD JUMP JUMPDEST SWAP5 SWAP4 POP POP POP POP JUMP JUMPDEST PUSH1 0x0 DUP1 PUSH1 0x0 DUP1 PUSH1 0x80 DUP6 DUP8 SUB SLT ISZERO PUSH2 0x3E49 JUMPI PUSH1 0x0 DUP1 REVERT JUMPDEST DUP5 MLOAD PUSH8 0xFFFFFFFFFFFFFFFF DUP1 DUP3 GT ISZERO PUSH2 0x3E61 JUMPI PUSH1 0x0 DUP1 REVERT JUMPDEST PUSH2 0x3E6D DUP9 DUP4 DUP10 ADD PUSH2 0x3DE6 JUMP JUMPDEST SWAP6 POP PUSH1 0x20 DUP8 ADD MLOAD SWAP2 POP DUP1 DUP3 GT ISZERO PUSH2 0x3E83 JUMPI PUSH1 0x0 DUP1 REVERT JUMPDEST PUSH2 0x3E8F DUP9 DUP4 DUP10 ADD PUSH2 0x3DE6 JUMP JUMPDEST SWAP5 POP PUSH1 0x40 DUP8 ADD MLOAD SWAP2 POP DUP1 DUP3 GT ISZERO PUSH2 0x3EA5 JUMPI PUSH1 0x0 DUP1 REVERT JUMPDEST POP PUSH2 0x3EB2 DUP8 DUP3 DUP9 ADD PUSH2 0x3DE6 JUMP JUMPDEST SWAP3 POP POP PUSH1 0x60 DUP6 ADD MLOAD DUP1 ISZERO ISZERO DUP2 EQ PUSH2 0x3EC8 JUMPI PUSH1 0x0 DUP1 REVERT JUMPDEST SWAP4 SWAP7 SWAP3 SWAP6 POP SWAP1 SWAP4 POP POP JUMP JUMPDEST PUSH1 0x40 DUP2 MSTORE PUSH1 0x0 PUSH2 0x3EE6 PUSH1 0x40 DUP4 ADD DUP6 PUSH2 0x34E1 JUMP JUMPDEST DUP3 DUP2 SUB PUSH1 0x20 DUP5 ADD MSTORE PUSH2 0x3D5A DUP2 DUP6 PUSH2 0x34E1 JUMP JUMPDEST PUSH1 0x1 PUSH1 0x1 PUSH1 0xA0 SHL SUB DUP5 DUP2 AND DUP3 MSTORE PUSH1 0x80 PUSH1 0x20 DUP4 ADD DUP2 SWAP1 MSTORE PUSH1 0x12 SWAP1 DUP4 ADD MSTORE PUSH18 0x1410551251539517D49151D254D511549151 PUSH1 0x72 SHL PUSH1 0xA0 DUP4 ADD MSTORE DUP4 AND PUSH1 0x40 DUP3 ADD MSTORE PUSH1 0xC0 PUSH1 0x60 DUP3 ADD DUP2 SWAP1 MSTORE PUSH1 0x0 SWAP1 PUSH2 0x3D5A SWAP1 DUP4 ADD DUP5 PUSH2 0x34E1 JUMP INVALID LOG2 PUSH5 0x6970667358 0x22 SLT KECCAK256 PREVRANDAO PUSH12 0xC29A4F7315A15DC1ACC1AEE8 0xB6 0xC3 DELEGATECALL OR 0xBA 0xD1 0x2F 0xEB 0x2D ADDRESS SMOD PUSH20 0x617FCD1688864736F6C63430008180033000000 "},"methodIdentifiers":{"accessExpiry(address,address)":"91f20596","addMedicalRecord(address,string,string,string,string,string,string,uint8)":"197547a1","admin()":"f851a440","allPatients(uint256)":"d8f608df","auditContractAddress()":"cb9b859f","doctorContractAddress()":"0ac1f2c5","getActiveRecords(address)":"b717a67c","getAllPatients()":"18a231a9","getMedicalRecords(address)":"afd8297c","getPatient(address)":"b5368e20","getPatientAccessRequests(address)":"eeaaa075","getSharedRecords(address)":"bcbf7181","grantAccess(address,uint256)":"9df89256","insuranceContractAddress()":"14c179c0","patientAccessRequests(address,uint256)":"fb6be4ec","patientRecords(address,uint256)":"94f0df61","patients(address)":"0869cfbc","registerPatient(address,string,string,string)":"cf2a221b","requestAccess(address)":"022cb271","researcherContractAddress()":"a25b0bf0","revokeAccess(address)":"85e68531","setAuditContractAddress(address)":"89413f42","setDoctorContractAddress(address)":"7933ef8b","setInsuranceContractAddress(address)":"6df32cd4","setResearcherContractAddress(address)":"e08b9d9c"}}}}}