{"contracts/doctorcontract.sol":{"DoctorManagement":{"abi":[{"inputs":[],"stateMutability":"nonpayable","type":"constructor"},{"anonymous":false,"inputs":[{"indexed":true,"internalType":"address","name":"doctorAddress","type":"address"},{"indexed":false,"internalType":"string","name":"username","type":"string"},{"indexed":false,"internalType":"string","name":"role","type":"string"}],"name":"DoctorRegistered","type":"event"},{"anonymous":false,"inputs":[{"indexed":true,"internalType":"address","name":"doctorAddress","type":"address"},{"indexed":true,"internalType":"address","name":"patientAddress","type":"address"}],"name":"PatientAccessGranted","type":"event"},{"anonymous":false,"inputs":[{"indexed":true,"internalType":"address","name":"doctorAddress","type":"address"},{"indexed":true,"internalType":"address","name":"patientAddress","type":"address"}],"name":"PatientAccessRevoked","type":"event"},{"inputs":[{"internalType":"address","name":"_doctorAddress","type":"address"},{"internalType":"address","name":"_patientAddress","type":"address"}],"name":"addPatientAccess","outputs":[],"stateMutability":"nonpayable","type":"function"},{"inputs":[],"name":"admin","outputs":[{"internalType":"address","name":"","type":"address"}],"stateMutability":"view","type":"function"},{"inputs":[{"internalType":"address","name":"","type":"address"},{"internalType":"address","name":"","type":"address"}],"name":"doctorPatientAccess","outputs":[{"internalType":"bool","name":"","type":"bool"}],"stateMutability":"view","type":"function"},{"inputs":[{"internalType":"address","name":"","type":"address"},{"internalType":"uint256","name":"","type":"uint256"}],"name":"doctorPatients","outputs":[{"internalType":"address","name":"","type":"address"}],"stateMutability":"view","type":"function"},{"inputs":[{"internalType":"address","name":"","type":"address"}],"name":"doctors","outputs":[{"internalType":"string","name":"username","type":"string"},{"internalType":"string","name":"role","type":"string"},{"internalType":"string","name":"phoneNumber","type":"string"},{"internalType":"bool","name":"isRegistered","type":"bool"}],"stateMutability":"view","type":"function"},{"inputs":[],"name":"getAllDoctors","outputs":[{"internalType":"address[]","name":"","type":"address[]"}],"stateMutability":"view","type":"function"},{"inputs":[{"internalType":"address","name":"_doctorAddress","type":"address"}],"name":"getAuthorizedPatients","outputs":[{"internalType":"address[]","name":"","type":"address[]"}],"stateMutability":"view","type":"function"},{"inputs":[{"internalType":"address","name":"_doctorAddress","type":"address"}],"name":"getDoctor","outputs":[{"internalType":"string","name":"username","type":"string"},{"internalType":"string","name":"role","type":"string"},{"internalType":"string","name":"phoneNumber","type":"string"},{"internalType":"bool","name":"isRegistered","type":"bool"}],"stateMutability":"view","type":"function"},{"inputs":[{"internalType":"address","name":"_doctorAddress","type":"address"},{"internalType":"address","name":"_patientAddress","type":"address"}],"name":"isAuthorized","outputs":[{"internalType":"bool","name":"","type":"bool"}],"stateMutability":"view","type":"function"},{"inputs":[],"name":"patientContractAddress","outputs":[{"internalType":"address","name":"","type":"address"}],"stateMutability":"view","type":"function"},{"inputs":[{"internalType":"address","name":"_doctorAddress","type":"address"},{"internalType":"string","name":"_username","type":"string"},{"internalType":"string","name":"_role","type":"string"},{"internalType":"string","name":"_phoneNumber","type":"string"}],"name":"registerDoctor","outputs":[],"stateMutability":"nonpayable","type":"function"},{"inputs":[{"internalType":"address","name":"_doctorAddress","type":"address"},{"internalType":"address","name":"_patientAddress","type":"address"}],"name":"revokePatientAccess","outputs":[],"stateMutability":"nonpayable","type":"function"},{"inputs":[{"internalType":"address","name":"_patientContractAddress","type":"address"}],"name":"setPatientContractAddress","outputs":[],"stateMutability":"nonpayable","type":"function"}],"evm":{"bytecode":{"linkReferences":{},"object":"60806040523480156200001157600080fd5b50600080546001600160a01b0319163390811782556040805160c0810182526005608082018181526430b236b4b760d91b60a08401819052908352835180850185529182526020828101919091528083019190915282518082018452858152828401526001606083018190529385529290925290912081518190620000979082620001d2565b5060208201516001820190620000ae9082620001d2565b5060408201516002820190620000c59082620001d2565b50606091909101516003909101805491151560ff19909216919091179055600280546001810182556000919091527f405787fa12a823e0f2b7631cc41b3ba8828b3321ca811111fa75cd3aa3bb5ace0180546001600160a01b031916331790556200029e565b634e487b7160e01b600052604160045260246000fd5b600181811c908216806200015657607f821691505b6020821081036200017757634e487b7160e01b600052602260045260246000fd5b50919050565b601f821115620001cd576000816000526020600020601f850160051c81016020861015620001a85750805b601f850160051c820191505b81811015620001c957828155600101620001b4565b5050505b505050565b81516001600160401b03811115620001ee57620001ee6200012b565b6200020681620001ff845462000141565b846200017d565b602080601f8311600181146200023e5760008415620002255750858301515b600019600386901b1c1916600185901b178555620001c9565b600085815260208120601f198616915b828110156200026f578886015182559484019460019091019084016200024e565b50858210156200028e5787850151600019600388901b60f8161c191681555b5050505050600190811b01905550565b6112d080620002ae6000396000f3fe608060405234801561001057600080fd5b50600436106100cf5760003560e01c80637c8b24e61161008c578063a9583c2211610066578063a9583c22146101e6578063d7b578cd146101f9578063f0d950901461020c578063f851a4401461021457600080fd5b80637c8b24e61461018557806393c095ff146101a5578063a133b27e146101b857600080fd5b80630ff42188146100d4578063177870c2146100e9578063191d52c6146100fc5780632f04e0641461012c5780634ac9e3001461014f57806365e4ad9e14610162575b600080fd5b6100e76100e2366004610e0a565b610227565b005b6100e76100f7366004610e0a565b6103e8565b60055461010f906001600160a01b031681565b6040516001600160a01b0390911681526020015b60405180910390f35b61013f61013a366004610e3d565b610692565b6040516101239493929190610ea5565b61010f61015d366004610ef2565b6108de565b610175610170366004610e0a565b610916565b6040519015158152602001610123565b610198610193366004610e3d565b610946565b6040516101239190610f1c565b6100e76101b336600461100c565b6109bc565b6101756101c6366004610e0a565b600460209081526000928352604080842090915290825290205460ff1681565b61013f6101f4366004610e3d565b610b43565b6100e7610207366004610e3d565b610d06565b610198610d8c565b60005461010f906001600160a01b031681565b6001600160a01b03821660009081526001602052604090206003015460ff1661026b5760405162461bcd60e51b8152600401610262906110a5565b60405180910390fd5b6001600160a01b0380831660009081526004602090815260408083209385168352929052205460ff16156102da5760405162461bcd60e51b81526020600482015260166024820152751058d8d95cdcc8185b1c9958591e4819dc985b9d195960521b6044820152606401610262565b336001600160a01b03821614806102fb57506005546001600160a01b031633145b6103605760405162461bcd60e51b815260206004820152603060248201527f4f6e6c792070617469656e74206f722050617469656e74436f6e74726163742060448201526f63616e206772616e742061636365737360801b6064820152608401610262565b6001600160a01b0382811660008181526003602090815260408083208054600180820183559185528385200180546001600160a01b031916968816968717905584845260048352818420868552909252808320805460ff1916909217909155517fa8d30211503e661fc2de68b2101d6be49294343e7f07c162a69eff23898ef0c19190a35050565b6001600160a01b03821660009081526001602052604090206003015460ff166104235760405162461bcd60e51b8152600401610262906110a5565b6001600160a01b0380831660009081526004602090815260408083209385168352929052205460ff1661048d5760405162461bcd60e51b81526020600482015260126024820152711058d8d95cdcc81b9bdd0819dc985b9d195960721b6044820152606401610262565b336001600160a01b03821614806104ae57506005546001600160a01b031633145b6105145760405162461bcd60e51b815260206004820152603160248201527f4f6e6c792070617469656e74206f722050617469656e74436f6e74726163742060448201527063616e207265766f6b652061636365737360781b6064820152608401610262565b6001600160a01b0380831660008181526004602090815260408083209486168352938152838220805460ff191690559181526003909152908120905b815481101561064c57826001600160a01b0316828281548110610575576105756110d4565b6000918252602090912001546001600160a01b031603610644578154829061059f906001906110ea565b815481106105af576105af6110d4565b9060005260206000200160009054906101000a90046001600160a01b03168282815481106105df576105df6110d4565b9060005260206000200160006101000a8154816001600160a01b0302191690836001600160a01b031602179055508180548061061d5761061d61110b565b600082815260209020810160001990810180546001600160a01b031916905501905561064c565b600101610550565b50816001600160a01b0316836001600160a01b03167f6869da424d3514d77420cdfa92bf9041b88dc6c70941bd7446fb7f013f95ddf160405160405180910390a3505050565b6001600160a01b038116600090815260016020526040812060030154606091829182919060ff166106d55760405162461bcd60e51b8152600401610262906110a5565b6001600160a01b03851660009081526001602052604080822081516080810190925280548290829061070690611121565b80601f016020809104026020016040519081016040528092919081815260200182805461073290611121565b801561077f5780601f106107545761010080835404028352916020019161077f565b820191906000526020600020905b81548152906001019060200180831161076257829003601f168201915b5050505050815260200160018201805461079890611121565b80601f01602080910402602001604051908101604052809291908181526020018280546107c490611121565b80156108115780601f106107e657610100808354040283529160200191610811565b820191906000526020600020905b8154815290600101906020018083116107f457829003601f168201915b5050505050815260200160028201805461082a90611121565b80601f016020809104026020016040519081016040528092919081815260200182805461085690611121565b80156108a35780601f10610878576101008083540402835291602001916108a3565b820191906000526020600020905b81548152906001019060200180831161088657829003601f168201915b50505091835250506003919091015460ff16151560209182015281519082015160408301516060909301519199909850919650945092505050565b600360205281600052604060002081815481106108fa57600080fd5b6000918252602090912001546001600160a01b03169150829050565b6001600160a01b0380831660009081526004602090815260408083209385168352929052205460ff165b92915050565b6001600160a01b0381166000908152600360209081526040918290208054835181840281018401909452808452606093928301828280156109b057602002820191906000526020600020905b81546001600160a01b03168152600190910190602001808311610992575b50505050509050919050565b6001600160a01b03841660009081526001602052604090206003015460ff1615610a285760405162461bcd60e51b815260206004820152601960248201527f446f63746f7220616c72656164792072656769737465726564000000000000006044820152606401610262565b6040805160808101825284815260208082018590528183018490526001606083018190526001600160a01b038816600090815291529190912081518190610a6f90826111ac565b5060208201516001820190610a8490826111ac565b5060408201516002820190610a9990826111ac565b50606091909101516003909101805460ff1916911515919091179055600280546001810182556000919091527f405787fa12a823e0f2b7631cc41b3ba8828b3321ca811111fa75cd3aa3bb5ace0180546001600160a01b0319166001600160a01b0386169081179091556040517fbc3a5b2aeb1bc52e3d56d3fd3423dd66cea5ecff8ae1f3bd0d75a0e608da7b8590610b35908690869061126c565b60405180910390a250505050565b600160205260009081526040902080548190610b5e90611121565b80601f0160208091040260200160405190810160405280929190818152602001828054610b8a90611121565b8015610bd75780601f10610bac57610100808354040283529160200191610bd7565b820191906000526020600020905b815481529060010190602001808311610bba57829003601f168201915b505050505090806001018054610bec90611121565b80601f0160208091040260200160405190810160405280929190818152602001828054610c1890611121565b8015610c655780601f10610c3a57610100808354040283529160200191610c65565b820191906000526020600020905b815481529060010190602001808311610c4857829003601f168201915b505050505090806002018054610c7a90611121565b80601f0160208091040260200160405190810160405280929190818152602001828054610ca690611121565b8015610cf35780601f10610cc857610100808354040283529160200191610cf3565b820191906000526020600020905b815481529060010190602001808311610cd657829003601f168201915b5050506003909301549192505060ff1684565b6000546001600160a01b03163314610d6a5760405162461bcd60e51b815260206004820152602160248201527f4f6e6c792061646d696e2063616e2063616c6c20746869732066756e6374696f6044820152603760f91b6064820152608401610262565b600580546001600160a01b0319166001600160a01b0392909216919091179055565b60606002805480602002602001604051908101604052809291908181526020018280548015610de457602002820191906000526020600020905b81546001600160a01b03168152600190910190602001808311610dc6575b5050505050905090565b80356001600160a01b0381168114610e0557600080fd5b919050565b60008060408385031215610e1d57600080fd5b610e2683610dee565b9150610e3460208401610dee565b90509250929050565b600060208284031215610e4f57600080fd5b610e5882610dee565b9392505050565b6000815180845260005b81811015610e8557602081850181015186830182015201610e69565b506000602082860101526020601f19601f83011685010191505092915050565b608081526000610eb86080830187610e5f565b8281036020840152610eca8187610e5f565b90508281036040840152610ede8186610e5f565b915050821515606083015295945050505050565b60008060408385031215610f0557600080fd5b610f0e83610dee565b946020939093013593505050565b6020808252825182820181905260009190848201906040850190845b81811015610f5d5783516001600160a01b031683529284019291840191600101610f38565b50909695505050505050565b634e487b7160e01b600052604160045260246000fd5b600082601f830112610f9057600080fd5b813567ffffffffffffffff80821115610fab57610fab610f69565b604051601f8301601f19908116603f01168101908282118183101715610fd357610fd3610f69565b81604052838152866020858801011115610fec57600080fd5b836020870160208301376000602085830101528094505050505092915050565b6000806000806080858703121561102257600080fd5b61102b85610dee565b9350602085013567ffffffffffffffff8082111561104857600080fd5b61105488838901610f7f565b9450604087013591508082111561106a57600080fd5b61107688838901610f7f565b9350606087013591508082111561108c57600080fd5b5061109987828801610f7f565b91505092959194509250565b602080825260159082015274111bd8dd1bdc881b9bdd081c9959da5cdd195c9959605a1b604082015260600190565b634e487b7160e01b600052603260045260246000fd5b8181038181111561094057634e487b7160e01b600052601160045260246000fd5b634e487b7160e01b600052603160045260246000fd5b600181811c9082168061113557607f821691505b60208210810361115557634e487b7160e01b600052602260045260246000fd5b50919050565b601f8211156111a7576000816000526020600020601f850160051c810160208610156111845750805b601f850160051c820191505b818110156111a357828155600101611190565b5050505b505050565b815167ffffffffffffffff8111156111c6576111c6610f69565b6111da816111d48454611121565b8461115b565b602080601f83116001811461120f57600084156111f75750858301515b600019600386901b1c1916600185901b1785556111a3565b600085815260208120601f198616915b8281101561123e5788860151825594840194600190910190840161121f565b508582101561125c5787850151600019600388901b60f8161c191681555b5050505050600190811b01905550565b60408152600061127f6040830185610e5f565b82810360208401526112918185610e5f565b9594505050505056fea26469706673582212204e893accc34f2fdbeda7e22cea55d2069d8b7f1c7237bef01c5db9ede51ab09564736f6c63430008180033","opcodes":"PUSH1 0x80 PUSH1 0x40 MSTORE CALLVALUE DUP1 ISZERO PUSH3 0x11 JUMPI PUSH1 0x0 DUP1 REVERT JUMPDEST POP PUSH1 0x0 DUP1 SLOAD PUSH1 0x1 PUSH1 0x1 PUSH1 0xA0 SHL SUB NOT AND CALLER SWAP1 DUP2 OR DUP3 SSTORE PUSH1 0x40 DUP1 MLOAD PUSH1 0xC0 DUP2 ADD DUP3 MSTORE PUSH1 0x5 PUSH1 0x80 DUP3 ADD DUP2 DUP2 MSTORE PUSH5 0x30B236B4B7 PUSH1 0xD9 SHL PUSH1 0xA0 DUP5 ADD DUP2 SWAP1 MSTORE SWAP1 DUP4 MSTORE DUP4 MLOAD DUP1 DUP6 ADD DUP6 MSTORE SWAP2 DUP3 MSTORE PUSH1 0x20 DUP3 DUP2 ADD SWAP2 SWAP1 SWAP2 MSTORE DUP1 DUP4 ADD SWAP2 SWAP1 SWAP2 MSTORE DUP3 MLOAD DUP1 DUP3 ADD DUP5 MSTORE DUP6 DUP2 MSTORE DUP3 DUP5 ADD MSTORE PUSH1 0x1 PUSH1 0x60 DUP4 ADD DUP2 SWAP1 MSTORE SWAP4 DUP6 MSTORE SWAP3 SWAP1 SWAP3 MSTORE SWAP1 SWAP2 KECCAK256 DUP2 MLOAD DUP2 SWAP1 PUSH3 0x97 SWAP1 DUP3 PUSH3 0x1D2 JUMP JUMPDEST POP PUSH1 0x20 DUP3 ADD MLOAD PUSH1 0x1 DUP3 ADD SWAP1 PUSH3 0xAE SWAP1 DUP3 PUSH3 0x1D2 JUMP JUMPDEST POP PUSH1 0x40 DUP3 ADD MLOAD PUSH1 0x2 DUP3 ADD SWAP1 PUSH3 0xC5 SWAP1 DUP3 PUSH3 0x1D2 JUMP JUMPDEST POP PUSH1 0x60 SWAP2 SWAP1 SWAP2 ADD MLOAD PUSH1 0x3 SWAP1 SWAP2 ADD DUP1 SLOAD SWAP2 ISZERO ISZERO PUSH1 0xFF NOT SWAP1 SWAP3 AND SWAP2 SWAP1 SWAP2 OR SWAP1 SSTORE PUSH1 0x2 DUP1 SLOAD PUSH1 0x1 DUP2 ADD DUP3 SSTORE PUSH1 0x0 SWAP2 SWAP1 SWAP2 MSTORE PUSH32 0x405787FA12A823E0F2B7631CC41B3BA8828B3321CA811111FA75CD3AA3BB5ACE ADD DUP1 SLOAD PUSH1 0x1 PUSH1 0x1 PUSH1 0xA0 SHL SUB NOT AND CALLER OR SWAP1 SSTORE PUSH3 0x29E JUMP JUMPDEST PUSH4 0x4E487B71 PUSH1 0xE0 SHL PUSH1 0x0 MSTORE PUSH1 0x41 PUSH1 0x4 MSTORE PUSH1 0x24 PUSH1 0x0 REVERT JUMPDEST PUSH1 0x1 DUP2 DUP2 SHR SWAP1 DUP3 AND DUP1 PUSH3 0x156 JUMPI PUSH1 0x7F DUP3 AND SWAP2 POP JUMPDEST PUSH1 0x20 DUP3 LT DUP2 SUB PUSH3 0x177 JUMPI PUSH4 0x4E487B71 PUSH1 0xE0 SHL PUSH1 0x0 MSTORE PUSH1 0x22 PUSH1 0x4 MSTORE PUSH1 0x24 PUSH1 0x0 REVERT JUMPDEST POP SWAP2 SWAP1 POP JUMP JUMPDEST PUSH1 0x1F DUP3 GT ISZERO PUSH3 0x1CD JUMPI PUSH1 0x0 DUP2 PUSH1 0x0 MSTORE PUSH1 0x20 PUSH1 0x0 KECCAK256 PUSH1 0x1F DUP6 ADD PUSH1 0x5 SHR DUP2 ADD PUSH1 0x20 DUP7 LT ISZERO PUSH3 0x1A8 JUMPI POP DUP1 JUMPDEST PUSH1 0x1F DUP6 ADD PUSH1 0x5 SHR DUP3 ADD SWAP2 POP JUMPDEST DUP2 DUP2 LT ISZERO PUSH3 0x1C9 JUMPI DUP3 DUP2 SSTORE PUSH1 0x1 ADD PUSH3 0x1B4 JUMP JUMPDEST POP POP POP JUMPDEST POP POP POP JUMP JUMPDEST DUP2 MLOAD PUSH1 0x1 PUSH1 0x1 PUSH1 0x40 SHL SUB DUP2 GT ISZERO PUSH3 0x1EE JUMPI PUSH3 0x1EE PUSH3 0x12B JUMP JUMPDEST PUSH3 0x206 DUP2 PUSH3 0x1FF DUP5 SLOAD PUSH3 0x141 JUMP JUMPDEST DUP5 PUSH3 0x17D JUMP JUMPDEST PUSH1 0x20 DUP1 PUSH1 0x1F DUP4 GT PUSH1 0x1 DUP2 EQ PUSH3 0x23E JUMPI PUSH1 0x0 DUP5 ISZERO PUSH3 0x225 JUMPI POP DUP6 DUP4 ADD MLOAD JUMPDEST PUSH1 0x0 NOT PUSH1 0x3 DUP7 SWAP1 SHL SHR NOT AND PUSH1 0x1 DUP6 SWAP1 SHL OR DUP6 SSTORE PUSH3 0x1C9 JUMP JUMPDEST PUSH1 0x0 DUP6 DUP2 MSTORE PUSH1 0x20 DUP2 KECCAK256 PUSH1 0x1F NOT DUP7 AND SWAP2 JUMPDEST DUP3 DUP2 LT ISZERO PUSH3 0x26F JUMPI DUP9 DUP7 ADD MLOAD DUP3 SSTORE SWAP5 DUP5 ADD SWAP5 PUSH1 0x1 SWAP1 SWAP2 ADD SWAP1 DUP5 ADD PUSH3 0x24E JUMP JUMPDEST POP DUP6 DUP3 LT ISZERO PUSH3 0x28E JUMPI DUP8 DUP6 ADD MLOAD PUSH1 0x0 NOT PUSH1 0x3 DUP9 SWAP1 SHL PUSH1 0xF8 AND SHR NOT AND DUP2 SSTORE JUMPDEST POP POP POP POP POP PUSH1 0x1 SWAP1 DUP2 SHL ADD SWAP1 SSTORE POP JUMP JUMPDEST PUSH2 0x12D0 DUP1 PUSH3 0x2AE PUSH1 0x0 CODECOPY PUSH1 0x0 RETURN INVALID PUSH1 0x80 PUSH1 0x40 MSTORE CALLVALUE DUP1 ISZERO PUSH2 0x10 JUMPI PUSH1 0x0 DUP1 REVERT JUMPDEST POP PUSH1 0x4 CALLDATASIZE LT PUSH2 0xCF JUMPI PUSH1 0x0 CALLDATALOAD PUSH1 0xE0 SHR DUP1 PUSH4 0x7C8B24E6 GT PUSH2 0x8C JUMPI DUP1 PUSH4 0xA9583C22 GT PUSH2 0x66 JUMPI DUP1 PUSH4 0xA9583C22 EQ PUSH2 0x1E6 JUMPI DUP1 PUSH4 0xD7B578CD EQ PUSH2 0x1F9 JUMPI DUP1 PUSH4 0xF0D95090 EQ PUSH2 0x20C JUMPI DUP1 PUSH4 0xF851A440 EQ PUSH2 0x214 JUMPI PUSH1 0x0 DUP1 REVERT JUMPDEST DUP1 PUSH4 0x7C8B24E6 EQ PUSH2 0x185 JUMPI DUP1 PUSH4 0x93C095FF EQ PUSH2 0x1A5 JUMPI DUP1 PUSH4 0xA133B27E EQ PUSH2 0x1B8 JUMPI PUSH1 0x0 DUP1 REVERT JUMPDEST DUP1 PUSH4 0xFF42188 EQ PUSH2 0xD4 JUMPI DUP1 PUSH4 0x177870C2 EQ PUSH2 0xE9 JUMPI DUP1 PUSH4 0x191D52C6 EQ PUSH2 0xFC JUMPI DUP1 PUSH4 0x2F04E064 EQ PUSH2 0x12C JUMPI DUP1 PUSH4 0x4AC9E300 EQ PUSH2 0x14F JUMPI DUP1 PUSH4 0x65E4AD9E EQ PUSH2 0x162 JUMPI JUMPDEST PUSH1 0x0 DUP1 REVERT JUMPDEST PUSH2 0xE7 PUSH2 0xE2 CALLDATASIZE PUSH1 0x4 PUSH2 0xE0A JUMP JUMPDEST PUSH2 0x227 JUMP JUMPDEST STOP JUMPDEST PUSH2 0xE7 PUSH2 0xF7 CALLDATASIZE PUSH1 0x4 PUSH2 0xE0A JUMP JUMPDEST PUSH2 0x3E8 JUMP JUMPDEST PUSH1 0x5 SLOAD PUSH2 0x10F SWAP1 PUSH1 0x1 PUSH1 0x1 PUSH1 0xA0 SHL SUB AND DUP2 JUMP JUMPDEST PUSH1 0x40 MLOAD PUSH1 0x1 PUSH1 0x1 PUSH1 0xA0 SHL SUB SWAP1 SWAP2 AND DUP2 MSTORE PUSH1 0x20 ADD JUMPDEST PUSH1 0x40 MLOAD DUP1 SWAP2 SUB SWAP1 RETURN JUMPDEST PUSH2 0x13F PUSH2 0x13A CALLDATASIZE PUSH1 0x4 PUSH2 0xE3D JUMP JUMPDEST PUSH2 0x692 JUMP JUMPDEST PUSH1 0x40 MLOAD PUSH2 0x123 SWAP5 SWAP4 SWAP3 SWAP2 SWAP1 PUSH2 0xEA5 JUMP JUMPDEST PUSH2 0x10F PUSH2 0x15D CALLDATASIZE PUSH1 0x4 PUSH2 0xEF2 JUMP JUMPDEST PUSH2 0x8DE JUMP JUMPDEST PUSH2 0x175 PUSH2 0x170 CALLDATASIZE PUSH1 0x4 PUSH2 0xE0A JUMP JUMPDEST PUSH2 0x916 JUMP JUMPDEST PUSH1 0x40 MLOAD SWAP1 ISZERO ISZERO DUP2 MSTORE PUSH1 0x20 ADD PUSH2 0x123 JUMP JUMPDEST PUSH2 0x198 PUSH2 0x193 CALLDATASIZE PUSH1 0x4 PUSH2 0xE3D JUMP JUMPDEST PUSH2 0x946 JUMP JUMPDEST PUSH1 0x40 MLOAD PUSH2 0x123 SWAP2 SWAP1 PUSH2 0xF1C JUMP JUMPDEST PUSH2 0xE7 PUSH2 0x1B3 CALLDATASIZE PUSH1 0x4 PUSH2 0x100C JUMP JUMPDEST PUSH2 0x9BC JUMP JUMPDEST PUSH2 0x175 PUSH2 0x1C6 CALLDATASIZE PUSH1 0x4 PUSH2 0xE0A JUMP JUMPDEST PUSH1 0x4 PUSH1 0x20 SWAP1 DUP2 MSTORE PUSH1 0x0 SWAP3 DUP4 MSTORE PUSH1 0x40 DUP1 DUP5 KECCAK256 SWAP1 SWAP2 MSTORE SWAP1 DUP3 MSTORE SWAP1 KECCAK256 SLOAD PUSH1 0xFF AND DUP2 JUMP JUMPDEST PUSH2 0x13F PUSH2 0x1F4 CALLDATASIZE PUSH1 0x4 PUSH2 0xE3D JUMP JUMPDEST PUSH2 0xB43 JUMP JUMPDEST PUSH2 0xE7 PUSH2 0x207 CALLDATASIZE PUSH1 0x4 PUSH2 0xE3D JUMP JUMPDEST PUSH2 0xD06 JUMP JUMPDEST PUSH2 0x198 PUSH2 0xD8C JUMP JUMPDEST PUSH1 0x0 SLOAD PUSH2 0x10F SWAP1 PUSH1 0x1 PUSH1 0x1 PUSH1 0xA0 SHL SUB AND DUP2 JUMP JUMPDEST PUSH1 0x1 PUSH1 0x1 PUSH1 0xA0 SHL SUB DUP3 AND PUSH1 0x0 SWAP1 DUP2 MSTORE PUSH1 0x1 PUSH1 0x20 MSTORE PUSH1 0x40 SWAP1 KECCAK256 PUSH1 0x3 ADD SLOAD PUSH1 0xFF AND PUSH2 0x26B JUMPI PUSH1 0x40 MLOAD PUSH3 0x461BCD PUSH1 0xE5 SHL DUP2 MSTORE PUSH1 0x4 ADD PUSH2 0x262 SWAP1 PUSH2 0x10A5 JUMP JUMPDEST PUSH1 0x40 MLOAD DUP1 SWAP2 SUB SWAP1 REVERT JUMPDEST PUSH1 0x1 PUSH1 0x1 PUSH1 0xA0 SHL SUB DUP1 DUP4 AND PUSH1 0x0 SWAP1 DUP2 MSTORE PUSH1 0x4 PUSH1 0x20 SWAP1 DUP2 MSTORE PUSH1 0x40 DUP1 DUP4 KECCAK256 SWAP4 DUP6 AND DUP4 MSTORE SWAP3 SWAP1 MSTORE KECCAK256 SLOAD PUSH1 0xFF AND ISZERO PUSH2 0x2DA JUMPI PUSH1 0x40 MLOAD PUSH3 0x461BCD PUSH1 0xE5 SHL DUP2 MSTORE PUSH1 0x20 PUSH1 0x4 DUP3 ADD MSTORE PUSH1 0x16 PUSH1 0x24 DUP3 ADD MSTORE PUSH22 0x1058D8D95CDCC8185B1C9958591E4819DC985B9D1959 PUSH1 0x52 SHL PUSH1 0x44 DUP3 ADD MSTORE PUSH1 0x64 ADD PUSH2 0x262 JUMP JUMPDEST CALLER PUSH1 0x1 PUSH1 0x1 PUSH1 0xA0 SHL SUB DUP3 AND EQ DUP1 PUSH2 0x2FB JUMPI POP PUSH1 0x5 SLOAD PUSH1 0x1 PUSH1 0x1 PUSH1 0xA0 SHL SUB AND CALLER EQ JUMPDEST PUSH2 0x360 JUMPI PUSH1 0x40 MLOAD PUSH3 0x461BCD PUSH1 0xE5 SHL DUP2 MSTORE PUSH1 0x20 PUSH1 0x4 DUP3 ADD MSTORE PUSH1 0x30 PUSH1 0x24 DUP3 ADD MSTORE PUSH32 0x4F6E6C792070617469656E74206F722050617469656E74436F6E747261637420 PUSH1 0x44 DUP3 ADD MSTORE PUSH16 0x63616E206772616E7420616363657373 PUSH1 0x80 SHL PUSH1 0x64 DUP3 ADD MSTORE PUSH1 0x84 ADD PUSH2 0x262 JUMP JUMPDEST PUSH1 0x1 PUSH1 0x1 PUSH1 0xA0 SHL SUB DUP3 DUP2 AND PUSH1 0x0 DUP2 DUP2 MSTORE PUSH1 0x3 PUSH1 0x20 SWAP1 DUP2 MSTORE PUSH1 0x40 DUP1 DUP4 KECCAK256 DUP1 SLOAD PUSH1 0x1 DUP1 DUP3 ADD DUP4 SSTORE SWAP2 DUP6 MSTORE DUP4 DUP6 KECCAK256 ADD DUP1 SLOAD PUSH1 0x1 PUSH1 0x1 PUSH1 0xA0 SHL SUB NOT AND SWAP7 DUP9 AND SWAP7 DUP8 OR SWAP1 SSTORE DUP5 DUP5 MSTORE PUSH1 0x4 DUP4 MSTORE DUP2 DUP5 KECCAK256 DUP7 DUP6 MSTORE SWAP1 SWAP3 MSTORE DUP1 DUP4 KECCAK256 DUP1 SLOAD PUSH1 0xFF NOT AND SWAP1 SWAP3 OR SWAP1 SWAP2 SSTORE MLOAD PUSH32 0xA8D30211503E661FC2DE68B2101D6BE49294343E7F07C162A69EFF23898EF0C1 SWAP2 SWAP1 LOG3 POP POP JUMP JUMPDEST PUSH1 0x1 PUSH1 0x1 PUSH1 0xA0 SHL SUB DUP3 AND PUSH1 0x0 SWAP1 DUP2 MSTORE PUSH1 0x1 PUSH1 0x20 MSTORE PUSH1 0x40 SWAP1 KECCAK256 PUSH1 0x3 ADD SLOAD PUSH1 0xFF AND PUSH2 0x423 JUMPI PUSH1 0x40 MLOAD PUSH3 0x461BCD PUSH1 0xE5 SHL DUP2 MSTORE PUSH1 0x4 ADD PUSH2 0x262 SWAP1 PUSH2 0x10A5 JUMP JUMPDEST PUSH1 0x1 PUSH1 0x1 PUSH1 0xA0 SHL SUB DUP1 DUP4 AND PUSH1 0x0 SWAP1 DUP2 MSTORE PUSH1 0x4 PUSH1 0x20 SWAP1 DUP2 MSTORE PUSH1 0x40 DUP1 DUP4 KECCAK256 SWAP4 DUP6 AND DUP4 MSTORE SWAP3 SWAP1 MSTORE KECCAK256 SLOAD PUSH1 0xFF AND PUSH2 0x48D JUMPI PUSH1 0x40 MLOAD PUSH3 0x461BCD PUSH1 0xE5 SHL DUP2 MSTORE PUSH1 0x20 PUSH1 0x4 DUP3 ADD MSTORE PUSH1 0x12 PUSH1 0x24 DUP3 ADD MSTORE PUSH18 0x1058D8D95CDCC81B9BDD0819DC985B9D1959 PUSH1 0x72 SHL PUSH1 0x44 DUP3 ADD MSTORE PUSH1 0x64 ADD PUSH2 0x262 JUMP JUMPDEST CALLER PUSH1 0x1 PUSH1 0x1 PUSH1 0xA0 SHL SUB DUP3 AND EQ DUP1 PUSH2 0x4AE JUMPI POP PUSH1 0x5 SLOAD PUSH1 0x1 PUSH1 0x1 PUSH1 0xA0 SHL SUB AND CALLER EQ JUMPDEST PUSH2 0x514 JUMPI PUSH1 0x40 MLOAD PUSH3 0x461BCD PUSH1 0xE5 SHL DUP2 MSTORE PUSH1 0x20 PUSH1 0x4 DUP3 ADD MSTORE PUSH1 0x31 PUSH1 0x24 DUP3 ADD MSTORE PUSH32 0x4F6E6C792070617469656E74206F722050617469656E74436F6E747261637420 PUSH1 0x44 DUP3 ADD MSTORE PUSH17 0x63616E207265766F6B6520616363657373 PUSH1 0x78 SHL PUSH1 0x64 DUP3 ADD MSTORE PUSH1 0x84 ADD PUSH2 0x262 JUMP JUMPDEST PUSH1 0x1 PUSH1 0x1 PUSH1 0xA0 SHL SUB DUP1 DUP4 AND PUSH1 0x0 DUP2 DUP2 MSTORE PUSH1 0x4 PUSH1 0x20 SWAP1 DUP2 MSTORE PUSH1 0x40 DUP1 DUP4 KECCAK256 SWAP5 DUP7 AND DUP4 MSTORE SWAP4 DUP2 MSTORE DUP4 DUP3 KECCAK256 DUP1 SLOAD PUSH1 0xFF NOT AND SWAP1 SSTORE SWAP2 DUP2 MSTORE PUSH1 0x3 SWAP1 SWAP2 MSTORE SWAP1 DUP2 KECCAK256 SWAP1 JUMPDEST DUP2 SLOAD DUP2 LT ISZERO PUSH2 0x64C JUMPI DUP3 PUSH1 0x1 PUSH1 0x1 PUSH1 0xA0 SHL SUB AND DUP3 DUP3 DUP2 SLOAD DUP2 LT PUSH2 0x575 JUMPI PUSH2 0x575 PUSH2 0x10D4 JUMP JUMPDEST PUSH1 0x0 SWAP2 DUP3 MSTORE PUSH1 0x20 SWAP1 SWAP2 KECCAK256 ADD SLOAD PUSH1 0x1 PUSH1 0x1 PUSH1 0xA0 SHL SUB AND SUB PUSH2 0x644 JUMPI DUP2 SLOAD DUP3 SWAP1 PUSH2 0x59F SWAP1 PUSH1 0x1 SWAP1 PUSH2 0x10EA JUMP JUMPDEST DUP2 SLOAD DUP2 LT PUSH2 0x5AF JUMPI PUSH2 0x5AF PUSH2 0x10D4 JUMP JUMPDEST SWAP1 PUSH1 0x0 MSTORE PUSH1 0x20 PUSH1 0x0 KECCAK256 ADD PUSH1 0x0 SWAP1 SLOAD SWAP1 PUSH2 0x100 EXP SWAP1 DIV PUSH1 0x1 PUSH1 0x1 PUSH1 0xA0 SHL SUB AND DUP3 DUP3 DUP2 SLOAD DUP2 LT PUSH2 0x5DF JUMPI PUSH2 0x5DF PUSH2 0x10D4 JUMP JUMPDEST SWAP1 PUSH1 0x0 MSTORE PUSH1 0x20 PUSH1 0x0 KECCAK256 ADD PUSH1 0x0 PUSH2 0x100 EXP DUP2 SLOAD DUP2 PUSH1 0x1 PUSH1 0x1 PUSH1 0xA0 SHL SUB MUL NOT AND SWAP1 DUP4 PUSH1 0x1 PUSH1 0x1 PUSH1 0xA0 SHL SUB AND MUL OR SWAP1 SSTORE POP DUP2 DUP1 SLOAD DUP1 PUSH2 0x61D JUMPI PUSH2 0x61D PUSH2 0x110B JUMP JUMPDEST PUSH1 0x0 DUP3 DUP2 MSTORE PUSH1 0x20 SWAP1 KECCAK256 DUP2 ADD PUSH1 0x0 NOT SWAP1 DUP2 ADD DUP1 SLOAD PUSH1 0x1 PUSH1 0x1 PUSH1 0xA0 SHL SUB NOT AND SWAP1 SSTORE ADD SWAP1 SSTORE PUSH2 0x64C JUMP JUMPDEST PUSH1 0x1 ADD PUSH2 0x550 JUMP JUMPDEST POP DUP2 PUSH1 0x1 PUSH1 0x1 PUSH1 0xA0 SHL SUB AND DUP4 PUSH1 0x1 PUSH1 0x1 PUSH1 0xA0 SHL SUB AND PUSH32 0x6869DA424D3514D77420CDFA92BF9041B88DC6C70941BD7446FB7F013F95DDF1 PUSH1 0x40 MLOAD PUSH1 0x40 MLOAD DUP1 SWAP2 SUB SWAP1 LOG3 POP POP POP JUMP JUMPDEST PUSH1 0x1 PUSH1 0x1 PUSH1 0xA0 SHL SUB DUP2 AND PUSH1 0x0 SWAP1 DUP2 MSTORE PUSH1 0x1 PUSH1 0x20 MSTORE PUSH1 0x40 DUP2 KECCAK256 PUSH1 0x3 ADD SLOAD PUSH1 0x60 SWAP2 DUP3 SWAP2 DUP3 SWAP2 SWAP1 PUSH1 0xFF AND PUSH2 0x6D5 JUMPI PUSH1 0x40 MLOAD PUSH3 0x461BCD PUSH1 0xE5 SHL DUP2 MSTORE PUSH1 0x4 ADD PUSH2 0x262 SWAP1 PUSH2 0x10A5 JUMP JUMPDEST PUSH1 0x1 PUSH1 0x1 PUSH1 0xA0 SHL SUB DUP6 AND PUSH1 0x0 SWAP1 DUP2 MSTORE PUSH1 0x1 PUSH1 0x20 MSTORE PUSH1 0x40 DUP1 DUP3 KECCAK256 DUP2 MLOAD PUSH1 0x80 DUP2 ADD SWAP1 SWAP3 MSTORE DUP1 SLOAD DUP3 SWAP1 DUP3 SWAP1 PUSH2 0x706 SWAP1 PUSH2 0x1121 JUMP JUMPDEST DUP1 PUSH1 0x1F ADD PUSH1 0x20 DUP1 SWAP2 DIV MUL PUSH1 0x20 ADD PUSH1 0x40 MLOAD SWAP1 DUP2 ADD PUSH1 0x40 MSTORE DUP1 SWAP3 SWAP2 SWAP1 DUP2 DUP2 MSTORE PUSH1 0x20 ADD DUP3 DUP1 SLOAD PUSH2 0x732 SWAP1 PUSH2 0x1121 JUMP JUMPDEST DUP1 ISZERO PUSH2 0x77F JUMPI DUP1 PUSH1 0x1F LT PUSH2 0x754 JUMPI PUSH2 0x100 DUP1 DUP4 SLOAD DIV MUL DUP4 MSTORE SWAP2 PUSH1 0x20 ADD SWAP2 PUSH2 0x77F JUMP JUMPDEST DUP3 ADD SWAP2 SWAP1 PUSH1 0x0 MSTORE PUSH1 0x20 PUSH1 0x0 KECCAK256 SWAP1 JUMPDEST DUP2 SLOAD DUP2 MSTORE SWAP1 PUSH1 0x1 ADD SWAP1 PUSH1 0x20 ADD DUP1 DUP4 GT PUSH2 0x762 JUMPI DUP3 SWAP1 SUB PUSH1 0x1F AND DUP3 ADD SWAP2 JUMPDEST POP POP POP POP POP DUP2 MSTORE PUSH1 0x20 ADD PUSH1 0x1 DUP3 ADD DUP1 SLOAD PUSH2 0x798 SWAP1 PUSH2 0x1121 JUMP JUMPDEST DUP1 PUSH1 0x1F ADD PUSH1 0x20 DUP1 SWAP2 DIV MUL PUSH1 0x20 ADD PUSH1 0x40 MLOAD SWAP1 DUP2 ADD PUSH1 0x40 MSTORE DUP1 SWAP3 SWAP2 SWAP1 DUP2 DUP2 MSTORE PUSH1 0x20 ADD DUP3 DUP1 SLOAD PUSH2 0x7C4 SWAP1 PUSH2 0x1121 JUMP JUMPDEST DUP1 ISZERO PUSH2 0x811 JUMPI DUP1 PUSH1 0x1F LT PUSH2 0x7E6 JUMPI PUSH2 0x100 DUP1 DUP4 SLOAD DIV MUL DUP4 MSTORE SWAP2 PUSH1 0x20 ADD SWAP2 PUSH2 0x811 JUMP JUMPDEST DUP3 ADD SWAP2 SWAP1 PUSH1 0x0 MSTORE PUSH1 0x20 PUSH1 0x0 KECCAK256 SWAP1 JUMPDEST DUP2 SLOAD DUP2 MSTORE SWAP1 PUSH1 0x1 ADD SWAP1 PUSH1 0x20 ADD DUP1 DUP4 GT PUSH2 0x7F4 JUMPI DUP3 SWAP1 SUB PUSH1 0x1F AND DUP3 ADD SWAP2 JUMPDEST POP POP POP POP POP DUP2 MSTORE PUSH1 0x20 ADD PUSH1 0x2 DUP3 ADD DUP1 SLOAD PUSH2 0x82A SWAP1 PUSH2 0x1121 JUMP JUMPDEST DUP1 PUSH1 0x1F ADD PUSH1 0x20 DUP1 SWAP2 DIV MUL PUSH1 0x20 ADD PUSH1 0x40 MLOAD SWAP1 DUP2 ADD PUSH1 0x40 MSTORE DUP1 SWAP3 SWAP2 SWAP1 DUP2 DUP2 MSTORE PUSH1 0x20 ADD DUP3 DUP1 SLOAD PUSH2 0x856 SWAP1 PUSH2 0x1121 JUMP JUMPDEST DUP1 ISZERO PUSH2 0x8A3 JUMPI DUP1 PUSH1 0x1F LT PUSH2 0x878 JUMPI PUSH2 0x100 DUP1 DUP4 SLOAD DIV MUL DUP4 MSTORE SWAP2 PUSH1 0x20 ADD SWAP2 PUSH2 0x8A3 JUMP JUMPDEST DUP3 ADD SWAP2 SWAP1 PUSH1 0x0 MSTORE PUSH1 0x20 PUSH1 0x0 KECCAK256 SWAP1 JUMPDEST DUP2 SLOAD DUP2 MSTORE SWAP1 PUSH1 0x1 ADD SWAP1 PUSH1 0x20 ADD DUP1 DUP4 GT PUSH2 0x886 JUMPI DUP3 SWAP1 SUB PUSH1 0x1F AND DUP3 ADD SWAP2 JUMPDEST POP POP POP SWAP2 DUP4 MSTORE POP POP PUSH1 0x3 SWAP2 SWAP1 SWAP2 ADD SLOAD PUSH1 0xFF AND ISZERO ISZERO PUSH1 0x20 SWAP2 DUP3 ADD MSTORE DUP2 MLOAD SWAP1 DUP3 ADD MLOAD PUSH1 0x40 DUP4 ADD MLOAD PUSH1 0x60 SWAP1 SWAP4 ADD MLOAD SWAP2 SWAP10 SWAP1 SWAP9 POP SWAP2 SWAP7 POP SWAP5 POP SWAP3 POP POP POP JUMP JUMPDEST PUSH1 0x3 PUSH1 0x20 MSTORE DUP2 PUSH1 0x0 MSTORE PUSH1 0x40 PUSH1 0x0 KECCAK256 DUP2 DUP2 SLOAD DUP2 LT PUSH2 0x8FA JUMPI PUSH1 0x0 DUP1 REVERT JUMPDEST PUSH1 0x0 SWAP2 DUP3 MSTORE PUSH1 0x20 SWAP1 SWAP2 KECCAK256 ADD SLOAD PUSH1 0x1 PUSH1 0x1 PUSH1 0xA0 SHL SUB AND SWAP2 POP DUP3 SWAP1 POP JUMP JUMPDEST PUSH1 0x1 PUSH1 0x1 PUSH1 0xA0 SHL SUB DUP1 DUP4 AND PUSH1 0x0 SWAP1 DUP2 MSTORE PUSH1 0x4 PUSH1 0x20 SWAP1 DUP2 MSTORE PUSH1 0x40 DUP1 DUP4 KECCAK256 SWAP4 DUP6 AND DUP4 MSTORE SWAP3 SWAP1 MSTORE KECCAK256 SLOAD PUSH1 0xFF AND JUMPDEST SWAP3 SWAP2 POP POP JUMP JUMPDEST PUSH1 0x1 PUSH1 0x1 PUSH1 0xA0 SHL SUB DUP2 AND PUSH1 0x0 SWAP1 DUP2 MSTORE PUSH1 0x3 PUSH1 0x20 SWAP1 DUP2 MSTORE PUSH1 0x40 SWAP2 DUP3 SWAP1 KECCAK256 DUP1 SLOAD DUP4 MLOAD DUP2 DUP5 MUL DUP2 ADD DUP5 ADD SWAP1 SWAP5 MSTORE DUP1 DUP5 MSTORE PUSH1 0x60 SWAP4 SWAP3 DUP4 ADD DUP3 DUP3 DUP1 ISZERO PUSH2 0x9B0 JUMPI PUSH1 0x20 MUL DUP3 ADD SWAP2 SWAP1 PUSH1 0x0 MSTORE PUSH1 0x20 PUSH1 0x0 KECCAK256 SWAP1 JUMPDEST DUP2 SLOAD PUSH1 0x1 PUSH1 0x1 PUSH1 0xA0 SHL SUB AND DUP2 MSTORE PUSH1 0x1 SWAP1 SWAP2 ADD SWAP1 PUSH1 0x20 ADD DUP1 DUP4 GT PUSH2 0x992 JUMPI JUMPDEST POP POP POP POP POP SWAP1 POP SWAP2 SWAP1 POP JUMP JUMPDEST PUSH1 0x1 PUSH1 0x1 PUSH1 0xA0 SHL SUB DUP5 AND PUSH1 0x0 SWAP1 DUP2 MSTORE PUSH1 0x1 PUSH1 0x20 MSTORE PUSH1 0x40 SWAP1 KECCAK256 PUSH1 0x3 ADD SLOAD PUSH1 0xFF AND ISZERO PUSH2 0xA28 JUMPI PUSH1 0x40 MLOAD PUSH3 0x461BCD PUSH1 0xE5 SHL DUP2 MSTORE PUSH1 0x20 PUSH1 0x4 DUP3 ADD MSTORE PUSH1 0x19 PUSH1 0x24 DUP3 ADD MSTORE PUSH32 0x446F63746F7220616C7265616479207265676973746572656400000000000000 PUSH1 0x44 DUP3 ADD MSTORE PUSH1 0x64 ADD PUSH2 0x262 JUMP JUMPDEST PUSH1 0x40 DUP1 MLOAD PUSH1 0x80 DUP2 ADD DUP3 MSTORE DUP5 DUP2 MSTORE PUSH1 0x20 DUP1 DUP3 ADD DUP6 SWAP1 MSTORE DUP2 DUP4 ADD DUP5 SWAP1 MSTORE PUSH1 0x1 PUSH1 0x60 DUP4 ADD DUP2 SWAP1 MSTORE PUSH1 0x1 PUSH1 0x1 PUSH1 0xA0 SHL SUB DUP9 AND PUSH1 0x0 SWAP1 DUP2 MSTORE SWAP2 MSTORE SWAP2 SWAP1 SWAP2 KECCAK256 DUP2 MLOAD DUP2 SWAP1 PUSH2 0xA6F SWAP1 DUP3 PUSH2 0x11AC JUMP JUMPDEST POP PUSH1 0x20 DUP3 ADD MLOAD PUSH1 0x1 DUP3 ADD SWAP1 PUSH2 0xA84 SWAP1 DUP3 PUSH2 0x11AC JUMP JUMPDEST POP PUSH1 0x40 DUP3 ADD MLOAD PUSH1 0x2 DUP3 ADD SWAP1 PUSH2 0xA99 SWAP1 DUP3 PUSH2 0x11AC JUMP JUMPDEST POP PUSH1 0x60 SWAP2 SWAP1 SWAP2 ADD MLOAD PUSH1 0x3 SWAP1 SWAP2 ADD DUP1 SLOAD PUSH1 0xFF NOT AND SWAP2 ISZERO ISZERO SWAP2 SWAP1 SWAP2 OR SWAP1 SSTORE PUSH1 0x2 DUP1 SLOAD PUSH1 0x1 DUP2 ADD DUP3 SSTORE PUSH1 0x0 SWAP2 SWAP1 SWAP2 MSTORE PUSH32 0x405787FA12A823E0F2B7631CC41B3BA8828B3321CA811111FA75CD3AA3BB5ACE ADD DUP1 SLOAD PUSH1 0x1 PUSH1 0x1 PUSH1 0xA0 SHL SUB NOT AND PUSH1 0x1 PUSH1 0x1 PUSH1 0xA0 SHL SUB DUP7 AND SWAP1 DUP2 OR SWAP1 SWAP2 SSTORE PUSH1 0x40 MLOAD PUSH32 0xBC3A5B2AEB1BC52E3D56D3FD3423DD66CEA5ECFF8AE1F3BD0D75A0E608DA7B85 SWAP1 PUSH2 0xB35 SWAP1 DUP7 SWAP1 DUP7 SWAP1 PUSH2 0x126C JUMP JUMPDEST PUSH1 0x40 MLOAD DUP1 SWAP2 SUB SWAP1 LOG2 POP POP POP POP JUMP JUMPDEST PUSH1 0x1 PUSH1 0x20 MSTORE PUSH1 0x0 SWAP1 DUP2 MSTORE PUSH1 0x40 SWAP1 KECCAK256 DUP1 SLOAD DUP2 SWAP1 PUSH2 0xB5E SWAP1 PUSH2 0x1121 JUMP JUMPDEST DUP1 PUSH1 0x1F ADD PUSH1 0x20 DUP1 SWAP2 DIV MUL PUSH1 0x20 ADD PUSH1 0x40 MLOAD SWAP1 DUP2 ADD PUSH1 0x40 MSTORE DUP1 SWAP3 SWAP2 SWAP1 DUP2 DUP2 MSTORE PUSH1 0x20 ADD DUP3 DUP1 SLOAD PUSH2 0xB8A SWAP1 PUSH2 0x1121 JUMP JUMPDEST DUP1 ISZERO PUSH2 0xBD7 JUMPI DUP1 PUSH1 0x1F LT PUSH2 0xBAC JUMPI PUSH2 0x100 DUP1 DUP4 SLOAD DIV MUL DUP4 MSTORE SWAP2 PUSH1 0x20 ADD SWAP2 PUSH2 0xBD7 JUMP JUMPDEST DUP3 ADD SWAP2 SWAP1 PUSH1 0x0 MSTORE PUSH1 0x20 PUSH1 0x0 KECCAK256 SWAP1 JUMPDEST DUP2 SLOAD DUP2 MSTORE SWAP1 PUSH1 0x1 ADD SWAP1 PUSH1 0x20 ADD DUP1 DUP4 GT PUSH2 0xBBA JUMPI DUP3 SWAP1 SUB PUSH1 0x1F AND DUP3 ADD SWAP2 JUMPDEST POP POP POP POP POP SWAP1 DUP1 PUSH1 0x1 ADD DUP1 SLOAD PUSH2 0xBEC SWAP1 PUSH2 0x1121 JUMP JUMPDEST DUP1 PUSH1 0x1F ADD PUSH1 0x20 DUP1 SWAP2 DIV MUL PUSH1 0x20 ADD PUSH1 0x40 MLOAD SWAP1 DUP2 ADD PUSH1 0x40 MSTORE DUP1 SWAP3 SWAP2 SWAP1 DUP2 DUP2 MSTORE PUSH1 0x20 ADD DUP3 DUP1 SLOAD PUSH2 0xC18 SWAP1 PUSH2 0x1121 JUMP JUMPDEST DUP1 ISZERO PUSH2 0xC65 JUMPI DUP1 PUSH1 0x1F LT PUSH2 0xC3A JUMPI PUSH2 0x100 DUP1 DUP4 SLOAD DIV MUL DUP4 MSTORE SWAP2 PUSH1 0x20 ADD SWAP2 PUSH2 0xC65 JUMP JUMPDEST DUP3 ADD SWAP2 SWAP1 PUSH1 0x0 MSTORE PUSH1 0x20 PUSH1 0x0 KECCAK256 SWAP1 JUMPDEST DUP2 SLOAD DUP2 MSTORE SWAP1 PUSH1 0x1 ADD SWAP1 PUSH1 0x20 ADD DUP1 DUP4 GT PUSH2 0xC48 JUMPI DUP3 SWAP1 SUB PUSH1 0x1F AND DUP3 ADD SWAP2 JUMPDEST POP POP POP POP POP SWAP1 DUP1 PUSH1 0x2 ADD DUP1 SLOAD PUSH2 0xC7A SWAP1 PUSH2 0x1121 JUMP JUMPDEST DUP1 PUSH1 0x1F ADD PUSH1 0x20 DUP1 SWAP2 DIV MUL PUSH1 0x20 ADD PUSH1 0x40 MLOAD SWAP1 DUP2 ADD PUSH1 0x40 MSTORE DUP1 SWAP3 SWAP2 SWAP1 DUP2 DUP2 MSTORE PUSH1 0x20 ADD DUP3 DUP1 SLOAD PUSH2 0xCA6 SWAP1 PUSH2 0x1121 JUMP JUMPDEST DUP1 ISZERO PUSH2 0xCF3 JUMPI DUP1 PUSH1 0x1F LT PUSH2 0xCC8 JUMPI PUSH2 0x100 DUP1 DUP4 SLOAD DIV MUL DUP4 MSTORE SWAP2 PUSH1 0x20 ADD SWAP2 PUSH2 0xCF3 JUMP JUMPDEST DUP3 ADD SWAP2 SWAP1 PUSH1 0x0 MSTORE PUSH1 0x20 PUSH1 0x0 KECCAK256 SWAP1 JUMPDEST DUP2 SLOAD DUP2 MSTORE SWAP1 PUSH1 0x1 ADD SWAP1 PUSH1 0x20 ADD DUP1 DUP4 GT PUSH2 0xCD6 JUMPI DUP3 SWAP1 SUB PUSH1 0x1F AND DUP3 ADD SWAP2 JUMPDEST POP POP POP PUSH1 0x3 SWAP1 SWAP4 ADD SLOAD SWAP2 SWAP3 POP POP PUSH1 0xFF AND DUP5 JUMP JUMPDEST PUSH1 0x0 SLOAD PUSH1 0x1 PUSH1 0x1 PUSH1 0xA0 SHL SUB AND CALLER EQ PUSH2 0xD6A JUMPI PUSH1 0x40 MLOAD PUSH3 0x461BCD PUSH1 0xE5 SHL DUP2 MSTORE PUSH1 0x20 PUSH1 0x4 DUP3 ADD MSTORE PUSH1 0x21 PUSH1 0x24 DUP3 ADD MSTORE PUSH32 0x4F6E6C792061646D696E2063616E2063616C6C20746869732066756E6374696F PUSH1 0x44 DUP3 ADD MSTORE PUSH1 0x37 PUSH1 0xF9 SHL PUSH1 0x64 DUP3 ADD MSTORE PUSH1 0x84 ADD PUSH2 0x262 JUMP JUMPDEST PUSH1 0x5 DUP1 SLOAD PUSH1 0x1 PUSH1 0x1 PUSH1 0xA0 SHL SUB NOT AND PUSH1 0x1 PUSH1 0x1 PUSH1 0xA0 SHL SUB SWAP3 SWAP1 SWAP3 AND SWAP2 SWAP1 SWAP2 OR SWAP1 SSTORE JUMP JUMPDEST PUSH1 0x60 PUSH1 0x2 DUP1 SLOAD DUP1 PUSH1 0x20 MUL PUSH1 0x20 ADD PUSH1 0x40 MLOAD SWAP1 DUP2 ADD PUSH1 0x40 MSTORE DUP1 SWAP3 SWAP2 SWAP1 DUP2 DUP2 MSTORE PUSH1 0x20 ADD DUP3 DUP1 SLOAD DUP1 ISZERO PUSH2 0xDE4 JUMPI PUSH1 0x20 MUL DUP3 ADD SWAP2 SWAP1 PUSH1 0x0 MSTORE PUSH1 0x20 PUSH1 0x0 KECCAK256 SWAP1 JUMPDEST DUP2 SLOAD PUSH1 0x1 PUSH1 0x1 PUSH1 0xA0 SHL SUB AND DUP2 MSTORE PUSH1 0x1 SWAP1 SWAP2 ADD SWAP1 PUSH1 0x20 ADD DUP1 DUP4 GT PUSH2 0xDC6 JUMPI JUMPDEST POP POP POP POP POP SWAP1 POP SWAP1 JUMP JUMPDEST DUP1 CALLDATALOAD PUSH1 0x1 PUSH1 0x1 PUSH1 0xA0 SHL SUB DUP2 AND DUP2 EQ PUSH2 0xE05 JUMPI PUSH1 0x0 DUP1 REVERT JUMPDEST SWAP2 SWAP1 POP JUMP JUMPDEST PUSH1 0x0 DUP1 PUSH1 0x40 DUP4 DUP6 SUB SLT ISZERO PUSH2 0xE1D JUMPI PUSH1 0x0 DUP1 REVERT JUMPDEST PUSH2 0xE26 DUP4 PUSH2 0xDEE JUMP JUMPDEST SWAP2 POP PUSH2 0xE34 PUSH1 0x20 DUP5 ADD PUSH2 0xDEE JUMP JUMPDEST SWAP1 POP SWAP3 POP SWAP3 SWAP1 POP JUMP JUMPDEST PUSH1 0x0 PUSH1 0x20 DUP3 DUP5 SUB SLT ISZERO PUSH2 0xE4F JUMPI PUSH1 0x0 DUP1 REVERT JUMPDEST PUSH2 0xE58 DUP3 PUSH2 0xDEE JUMP JUMPDEST SWAP4 SWAP3 POP POP POP JUMP JUMPDEST PUSH1 0x0 DUP2 MLOAD DUP1 DUP5 MSTORE PUSH1 0x0 JUMPDEST DUP2 DUP2 LT ISZERO PUSH2 0xE85 JUMPI PUSH1 0x20 DUP2 DUP6 ADD DUP2 ADD MLOAD DUP7 DUP4 ADD DUP3 ADD MSTORE ADD PUSH2 0xE69 JUMP JUMPDEST POP PUSH1 0x0 PUSH1 0x20 DUP3 DUP7 ADD ADD MSTORE PUSH1 0x20 PUSH1 0x1F NOT PUSH1 0x1F DUP4 ADD AND DUP6 ADD ADD SWAP2 POP POP SWAP3 SWAP2 POP POP JUMP JUMPDEST PUSH1 0x80 DUP2 MSTORE PUSH1 0x0 PUSH2 0xEB8 PUSH1 0x80 DUP4 ADD DUP8 PUSH2 0xE5F JUMP JUMPDEST DUP3 DUP2 SUB PUSH1 0x20 DUP5 ADD MSTORE PUSH2 0xECA DUP2 DUP8 PUSH2 0xE5F JUMP JUMPDEST SWAP1 POP DUP3 DUP2 SUB PUSH1 0x40 DUP5 ADD MSTORE PUSH2 0xEDE DUP2 DUP7 PUSH2 0xE5F JUMP JUMPDEST SWAP2 POP POP DUP3 ISZERO ISZERO PUSH1 0x60 DUP4 ADD MSTORE SWAP6 SWAP5 POP POP POP POP POP JUMP JUMPDEST PUSH1 0x0 DUP1 PUSH1 0x40 DUP4 DUP6 SUB SLT ISZERO PUSH2 0xF05 JUMPI PUSH1 0x0 DUP1 REVERT JUMPDEST PUSH2 0xF0E DUP4 PUSH2 0xDEE JUMP JUMPDEST SWAP5 PUSH1 0x20 SWAP4 SWAP1 SWAP4 ADD CALLDATALOAD SWAP4 POP POP POP JUMP JUMPDEST PUSH1 0x20 DUP1 DUP3 MSTORE DUP3 MLOAD DUP3 DUP3 ADD DUP2 SWAP1 MSTORE PUSH1 0x0 SWAP2 SWAP1 DUP5 DUP3 ADD SWAP1 PUSH1 0x40 DUP6 ADD SWAP1 DUP5 JUMPDEST DUP2 DUP2 LT ISZERO PUSH2 0xF5D JUMPI DUP4 MLOAD PUSH1 0x1 PUSH1 0x1 PUSH1 0xA0 SHL SUB AND DUP4 MSTORE SWAP3 DUP5 ADD SWAP3 SWAP2 DUP5 ADD SWAP2 PUSH1 0x1 ADD PUSH2 0xF38 JUMP JUMPDEST POP SWAP1 SWAP7 SWAP6 POP POP POP POP POP POP JUMP JUMPDEST PUSH4 0x4E487B71 PUSH1 0xE0 SHL PUSH1 0x0 MSTORE PUSH1 0x41 PUSH1 0x4 MSTORE PUSH1 0x24 PUSH1 0x0 REVERT JUMPDEST PUSH1 0x0 DUP3 PUSH1 0x1F DUP4 ADD SLT PUSH2 0xF90 JUMPI PUSH1 0x0 DUP1 REVERT JUMPDEST DUP2 CALLDATALOAD PUSH8 0xFFFFFFFFFFFFFFFF DUP1 DUP3 GT ISZERO PUSH2 0xFAB JUMPI PUSH2 0xFAB PUSH2 0xF69 JUMP JUMPDEST PUSH1 0x40 MLOAD PUSH1 0x1F DUP4 ADD PUSH1 0x1F NOT SWAP1 DUP2 AND PUSH1 0x3F ADD AND DUP2 ADD SWAP1 DUP3 DUP3 GT DUP2 DUP4 LT OR ISZERO PUSH2 0xFD3 JUMPI PUSH2 0xFD3 PUSH2 0xF69 JUMP JUMPDEST DUP2 PUSH1 0x40 MSTORE DUP4 DUP2 MSTORE DUP7 PUSH1 0x20 DUP6 DUP9 ADD ADD GT ISZERO PUSH2 0xFEC JUMPI PUSH1 0x0 DUP1 REVERT JUMPDEST DUP4 PUSH1 0x20 DUP8 ADD PUSH1 0x20 DUP4 ADD CALLDATACOPY PUSH1 0x0 PUSH1 0x20 DUP6 DUP4 ADD ADD MSTORE DUP1 SWAP5 POP POP POP POP POP SWAP3 SWAP2 POP POP JUMP JUMPDEST PUSH1 0x0 DUP1 PUSH1 0x0 DUP1 PUSH1 0x80 DUP6 DUP8 SUB SLT ISZERO PUSH2 0x1022 JUMPI PUSH1 0x0 DUP1 REVERT JUMPDEST PUSH2 0x102B DUP6 PUSH2 0xDEE JUMP JUMPDEST SWAP4 POP PUSH1 0x20 DUP6 ADD CALLDATALOAD PUSH8 0xFFFFFFFFFFFFFFFF DUP1 DUP3 GT ISZERO PUSH2 0x1048 JUMPI PUSH1 0x0 DUP1 REVERT JUMPDEST PUSH2 0x1054 DUP9 DUP4 DUP10 ADD PUSH2 0xF7F JUMP JUMPDEST SWAP5 POP PUSH1 0x40 DUP8 ADD CALLDATALOAD SWAP2 POP DUP1 DUP3 GT ISZERO PUSH2 0x106A JUMPI PUSH1 0x0 DUP1 REVERT JUMPDEST PUSH2 0x1076 DUP9 DUP4 DUP10 ADD PUSH2 0xF7F JUMP JUMPDEST SWAP4 POP PUSH1 0x60 DUP8 ADD CALLDATALOAD SWAP2 POP DUP1 DUP3 GT ISZERO PUSH2 0x108C JUMPI PUSH1 0x0 DUP1 REVERT JUMPDEST POP PUSH2 0x1099 DUP8 DUP3 DUP9 ADD PUSH2 0xF7F JUMP JUMPDEST SWAP2 POP POP SWAP3 SWAP6 SWAP2 SWAP5 POP SWAP3 POP JUMP JUMPDEST PUSH1 0x20 DUP1 DUP3 MSTORE PUSH1 0x15 SWAP1 DUP3 ADD MSTORE PUSH21 0x111BD8DD1BDC881B9BDD081C9959DA5CDD195C9959 PUSH1 0x5A SHL PUSH1 0x40 DUP3 ADD MSTORE PUSH1 0x60 ADD SWAP1 JUMP JUMPDEST PUSH4 0x4E487B71 PUSH1 0xE0 SHL PUSH1 0x0 MSTORE PUSH1 0x32 PUSH1 0x4 MSTORE PUSH1 0x24 PUSH1 0x0 REVERT JUMPDEST DUP2 DUP2 SUB DUP2 DUP2 GT ISZERO PUSH2 0x940 JUMPI PUSH4 0x4E487B71 PUSH1 0xE0 SHL PUSH1 0x0 MSTORE PUSH1 0x11 PUSH1 0x4 MSTORE PUSH1 0x24 PUSH1 0x0 REVERT JUMPDEST PUSH4 0x4E487B71 PUSH1 0xE0 SHL PUSH1 0x0 MSTORE PUSH1 0x31 PUSH1 0x4 MSTORE PUSH1 0x24 PUSH1 0x0 REVERT JUMPDEST PUSH1 0x1 DUP2 DUP2 SHR SWAP1 DUP3 AND DUP1 PUSH2 0x1135 JUMPI PUSH1 0x7F DUP3 AND SWAP2 POP JUMPDEST PUSH1 0x20 DUP3 LT DUP2 SUB PUSH2 0x1155 JUMPI PUSH4 0x4E487B71 PUSH1 0xE0 SHL PUSH1 0x0 MSTORE PUSH1 0x22 PUSH1 0x4 MSTORE PUSH1 0x24 PUSH1 0x0 REVERT JUMPDEST POP SWAP2 SWAP1 POP JUMP JUMPDEST PUSH1 0x1F DUP3 GT ISZERO PUSH2 0x11A7 JUMPI PUSH1 0x0 DUP2 PUSH1 0x0 MSTORE PUSH1 0x20 PUSH1 0x0 KECCAK256 PUSH1 0x1F DUP6 ADD PUSH1 0x5 SHR DUP2 ADD PUSH1 0x20 DUP7 LT ISZERO PUSH2 0x1184 JUMPI POP DUP1 JUMPDEST PUSH1 0x1F DUP6 ADD PUSH1 0x5 SHR DUP3 ADD SWAP2 POP JUMPDEST DUP2 DUP2 LT ISZERO PUSH2 0x11A3 JUMPI DUP3 DUP2 SSTORE PUSH1 0x1 ADD PUSH2 0x1190 JUMP JUMPDEST POP POP POP JUMPDEST POP POP POP JUMP JUMPDEST DUP2 MLOAD PUSH8 0xFFFFFFFFFFFFFFFF DUP2 GT ISZERO PUSH2 0x11C6 JUMPI PUSH2 0x11C6 PUSH2 0xF69 JUMP JUMPDEST PUSH2 0x11DA DUP2 PUSH2 0x11D4 DUP5 SLOAD PUSH2 0x1121 JUMP JUMPDEST DUP5 PUSH2 0x115B JUMP JUMPDEST PUSH1 0x20 DUP1 PUSH1 0x1F DUP4 GT PUSH1 0x1 DUP2 EQ PUSH2 0x120F JUMPI PUSH1 0x0 DUP5 ISZERO PUSH2 0x11F7 JUMPI POP DUP6 DUP4 ADD MLOAD JUMPDEST PUSH1 0x0 NOT PUSH1 0x3 DUP7 SWAP1 SHL SHR NOT AND PUSH1 0x1 DUP6 SWAP1 SHL OR DUP6 SSTORE PUSH2 0x11A3 JUMP JUMPDEST PUSH1 0x0 DUP6 DUP2 MSTORE PUSH1 0x20 DUP2 KECCAK256 PUSH1 0x1F NOT DUP7 AND SWAP2 JUMPDEST DUP3 DUP2 LT ISZERO PUSH2 0x123E JUMPI DUP9 DUP7 ADD MLOAD DUP3 SSTORE SWAP5 DUP5 ADD SWAP5 PUSH1 0x1 SWAP1 SWAP2 ADD SWAP1 DUP5 ADD PUSH2 0x121F JUMP JUMPDEST POP DUP6 DUP3 LT ISZERO PUSH2 0x125C JUMPI DUP8 DUP6 ADD MLOAD PUSH1 0x0 NOT PUSH1 0x3 DUP9 SWAP1 SHL PUSH1 0xF8 AND SHR NOT AND DUP2 SSTORE JUMPDEST POP POP POP POP POP PUSH1 0x1 SWAP1 DUP2 SHL ADD SWAP1 SSTORE POP JUMP JUMPDEST PUSH1 0x40 DUP2 MSTORE PUSH1 0x0 PUSH2 0x127F PUSH1 0x40 DUP4 ADD DUP6 PUSH2 0xE5F JUMP JUMPDEST DUP3 DUP2 SUB PUSH1 0x20 DUP5 ADD MSTORE PUSH2 0x1291 DUP2 DUP6 PUSH2 0xE5F JUMP JUMPDEST SWAP6 SWAP5 POP POP POP POP POP JUMP INVALID LOG2 PUSH5 0x6970667358 0x22 SLT KECCAK256 0x4E DUP10 GASPRICE 0xCC 0xC3 0x4F 0x2F 0xDB 0xED 0xA7 0xE2 0x2C 0xEA SSTORE 0xD2 MOD SWAP14 DUP12 PUSH32 0x1C7237BEF01C5DB9EDE51AB09564736F6C634300081800330000000000000000 "},"methodIdentifiers":{"addPatientAccess(address,address)":"0ff42188","admin()":"f851a440","doctorPatientAccess(address,address)":"a133b27e","doctorPatients(address,uint256)":"4ac9e300","doctors(address)":"a9583c22","getAllDoctors()":"f0d95090","getAuthorizedPatients(address)":"7c8b24e6","getDoctor(address)":"2f04e064","isAuthorized(address,address)":"65e4ad9e","patientContractAddress()":"191d52c6","registerDoctor(address,string,string,string)":"93c095ff","revokePatientAccess(address,address)":"177870c2","setPatientContractAddress(address)":"d7b578cd"}}}}}