{"contracts/patientcontract.sol":{"PatientManagement":{"abi":[{"inputs":[],"stateMutability":"nonpayable","type":"constructor"},{"anonymous":false,"inputs":[{"indexed":true,"internalType":"address","name":"patient","type":"address"},{"indexed":true,"internalType":"address","name":"viewer","type":"address"},{"indexed":false,"internalType":"uint256","name":"expiry","type":"uint256"}],"name":"AccessGranted","type":"event"},{"anonymous":false,"inputs":[{"indexed":true,"internalType":"address","name":"patient","type":"address"},{"indexed":true,"internalType":"address","name":"viewer","type":"address"}],"name":"AccessRequested","type":"event"},{"anonymous":false,"inputs":[{"indexed":true,"internalType":"address","name":"patient","type":"address"},{"indexed":true,"internalType":"address","name":"viewer","type":"address"}],"name":"AccessRevoked","type":"event"},{"anonymous":false,"inputs":[{"indexed":true,"internalType":"address","name":"patientAddress","type":"address"},{"indexed":true,"internalType":"address","name":"doctorAddress","type":"address"},{"indexed":false,"internalType":"string","name":"ipfsHash","type":"string"},{"indexed":false,"internalType":"uint256","name":"timestamp","type":"uint256"},{"indexed":false,"internalType":"uint8","name":"privacyLevel","type":"uint8"}],"name":"MedicalRecordAdded","type":"event"},{"anonymous":false,"inputs":[{"indexed":true,"internalType":"address","name":"patientAddress","type":"address"},{"indexed":false,"internalType":"string","name":"oldIpfsHash","type":"string"},{"indexed":false,"internalType":"string","name":"newIpfsHash","type":"string"},{"indexed":false,"internalType":"uint256","name":"timestamp","type":"uint256"}],"name":"MedicalRecordUpdated","type":"event"},{"anonymous":false,"inputs":[{"indexed":true,"internalType":"address","name":"patientAddress","type":"address"},{"indexed":false,"internalType":"string","name":"username","type":"string"},{"indexed":false,"internalType":"string","name":"role","type":"string"}],"name":"PatientRegistered","type":"event"},{"inputs":[{"internalType":"address","name":"","type":"address"},{"internalType":"address","name":"","type":"address"}],"name":"accessExpiry","outputs":[{"internalType":"uint256","name":"","type":"uint256"}],"stateMutability":"view","type":"function"},{"inputs":[{"internalType":"address","name":"_patientAddress","type":"address"},{"internalType":"string","name":"_ipfsHash","type":"string"},{"internalType":"string","name":"_fileType","type":"string"},{"internalType":"string","name":"_fileName","type":"string"},{"internalType":"string","name":"_title","type":"string"},{"internalType":"string","name":"_resume","type":"string"},{"internalType":"string","name":"_previousVersion","type":"string"},{"internalType":"uint8","name":"_privacyLevel","type":"uint8"}],"name":"addMedicalRecord","outputs":[],"stateMutability":"nonpayable","type":"function"},{"inputs":[],"name":"admin","outputs":[{"internalType":"address","name":"","type":"address"}],"stateMutability":"view","type":"function"},{"inputs":[{"internalType":"uint256","name":"","type":"uint256"}],"name":"allPatients","outputs":[{"internalType":"address","name":"","type":"address"}],"stateMutability":"view","type":"function"},{"inputs":[],"name":"auditContractAddress","outputs":[{"internalType":"address","name":"","type":"address"}],"stateMutability":"view","type":"function"},{"inputs":[],"name":"doctorContractAddress","outputs":[{"internalType":"address","name":"","type":"address"}],"stateMutability":"view","type":"function"},{"inputs":[{"internalType":"address","name":"_patientAddress","type":"address"}],"name":"getActiveRecords","outputs":[{"components":[{"internalType":"string","name":"ipfsHash","type":"string"},{"internalType":"string","name":"fileType","type":"string"},{"internalType":"string","name":"fileName","type":"string"},{"internalType":"string","name":"title","type":"string"},{"internalType":"string","name":"resume","type":"string"},{"internalType":"uint256","name":"timestamp","type":"uint256"},{"internalType":"address","name":"doctor","type":"address"},{"internalType":"bool","name":"isActive","type":"bool"},{"internalType":"string","name":"previousVersion","type":"string"},{"internalType":"uint8","name":"privacyLevel","type":"uint8"}],"internalType":"struct PatientManagement.MedicalRecord[]","name":"","type":"tuple[]"}],"stateMutability":"view","type":"function"},{"inputs":[],"name":"getAllPatients","outputs":[{"internalType":"address[]","name":"","type":"address[]"}],"stateMutability":"view","type":"function"},{"inputs":[{"internalType":"address","name":"_patientAddress","type":"address"}],"name":"getMedicalRecords","outputs":[{"components":[{"internalType":"string","name":"ipfsHash","type":"string"},{"internalType":"string","name":"fileType","type":"string"},{"internalType":"string","name":"fileName","type":"string"},{"internalType":"string","name":"title","type":"string"},{"internalType":"string","name":"resume","type":"string"},{"internalType":"uint256","name":"timestamp","type":"uint256"},{"internalType":"address","name":"doctor","type":"address"},{"internalType":"bool","name":"isActive","type":"bool"},{"internalType":"string","name":"previousVersion","type":"string"},{"internalType":"uint8","name":"privacyLevel","type":"uint8"}],"internalType":"struct PatientManagement.MedicalRecord[]","name":"","type":"tuple[]"}],"stateMutability":"view","type":"function"},{"inputs":[{"internalType":"address","name":"_patientAddress","type":"address"}],"name":"getPatient","outputs":[{"internalType":"string","name":"username","type":"string"},{"internalType":"string","name":"role","type":"string"}],"stateMutability":"view","type":"function"},{"inputs":[{"internalType":"address","name":"_patientAddress","type":"address"}],"name":"getPatientAccessRequests","outputs":[{"internalType":"address[]","name":"","type":"address[]"}],"stateMutability":"view","type":"function"},{"inputs":[{"internalType":"address","name":"_patientAddress","type":"address"}],"name":"getSharedRecords","outputs":[{"components":[{"internalType":"string","name":"ipfsHash","type":"string"},{"internalType":"string","name":"fileType","type":"string"},{"internalType":"string","name":"fileName","type":"string"},{"internalType":"string","name":"title","type":"string"},{"internalType":"string","name":"resume","type":"string"},{"internalType":"uint256","name":"timestamp","type":"uint256"},{"internalType":"address","name":"doctor","type":"address"},{"internalType":"bool","name":"isActive","type":"bool"},{"internalType":"string","name":"previousVersion","type":"string"},{"internalType":"uint8","name":"privacyLevel","type":"uint8"}],"internalType":"struct PatientManagement.MedicalRecord[]","name":"","type":"tuple[]"}],"stateMutability":"view","type":"function"},{"inputs":[{"internalType":"address","name":"_viewer","type":"address"},{"internalType":"uint256","name":"_durationSeconds","type":"uint256"}],"name":"grantAccess","outputs":[],"stateMutability":"nonpayable","type":"function"},{"inputs":[],"name":"insuranceContractAddress","outputs":[{"internalType":"address","name":"","type":"address"}],"stateMutability":"view","type":"function"},{"inputs":[{"internalType":"address","name":"","type":"address"},{"internalType":"uint256","name":"","type":"uint256"}],"name":"patientAccessRequests","outputs":[{"internalType":"address","name":"","type":"address"}],"stateMutability":"view","type":"function"},{"inputs":[{"internalType":"address","name":"","type":"address"},{"internalType":"uint256","name":"","type":"uint256"}],"name":"patientRecords","outputs":[{"internalType":"string","name":"ipfsHash","type":"string"},{"internalType":"string","name":"fileType","type":"string"},{"internalType":"string","name":"fileName","type":"string"},{"internalType":"string","name":"title","type":"string"},{"internalType":"string","name":"resume","type":"string"},{"internalType":"uint256","name":"timestamp","type":"uint256"},{"internalType":"address","name":"doctor","type":"address"},{"internalType":"bool","name":"isActive","type":"bool"},{"internalType":"string","name":"previousVersion","type":"string"},{"internalType":"uint8","name":"privacyLevel","type":"uint8"}],"stateMutability":"view","type":"function"},{"inputs":[{"internalType":"address","name":"","type":"address"}],"name":"patients","outputs":[{"internalType":"string","name":"username","type":"string"},{"internalType":"string","name":"role","type":"string"},{"internalType":"bool","name":"isRegistered","type":"bool"}],"stateMutability":"view","type":"function"},{"inputs":[{"internalType":"address","name":"_patientAddress","type":"address"},{"internalType":"string","name":"_username","type":"string"},{"internalType":"string","name":"_role","type":"string"}],"name":"registerPatient","outputs":[],"stateMutability":"nonpayable","type":"function"},{"inputs":[{"internalType":"address","name":"_patientAddress","type":"address"}],"name":"requestAccess","outputs":[],"stateMutability":"nonpayable","type":"function"},{"inputs":[],"name":"researcherContractAddress","outputs":[{"internalType":"address","name":"","type":"address"}],"stateMutability":"view","type":"function"},{"inputs":[{"internalType":"address","name":"_viewer","type":"address"}],"name":"revokeAccess","outputs":[],"stateMutability":"nonpayable","type":"function"},{"inputs":[{"internalType":"address","name":"_auditContractAddress","type":"address"}],"name":"setAuditContractAddress","outputs":[],"stateMutability":"nonpayable","type":"function"},{"inputs":[{"internalType":"address","name":"_doctorContractAddress","type":"address"}],"name":"setDoctorContractAddress","outputs":[],"stateMutability":"nonpayable","type":"function"},{"inputs":[{"internalType":"address","name":"_insuranceContractAddress","type":"address"}],"name":"setInsuranceContractAddress","outputs":[],"stateMutability":"nonpayable","type":"function"},{"inputs":[{"internalType":"address","name":"_researcherContractAddress","type":"address"}],"name":"setResearcherContractAddress","outputs":[],"stateMutability":"nonpayable","type":"function"}],"evm":{"bytecode":{"linkReferences":{},"object":"60806040523480156200001157600080fd5b50600080546001600160a01b0319163390811782556040805160a0810182526005606082018181526430b236b4b760d91b6080840181905290835283518085018552918252602082810191909152808301919091526001828401819052938552929092529091208151819062000088908262000168565b50602082015160018201906200009f908262000168565b50604091909101516002909101805460ff191691151591909117905562000234565b634e487b7160e01b600052604160045260246000fd5b600181811c90821680620000ec57607f821691505b6020821081036200010d57634e487b7160e01b600052602260045260246000fd5b50919050565b601f82111562000163576000816000526020600020601f850160051c810160208610156200013e5750805b601f850160051c820191505b818110156200015f578281556001016200014a565b5050505b505050565b81516001600160401b03811115620001845762000184620000c1565b6200019c81620001958454620000d7565b8462000113565b602080601f831160018114620001d45760008415620001bb5750858301515b600019600386901b1c1916600185901b1785556200015f565b600085815260208120601f198616915b828110156200020557888601518255948401946001909101908401620001e4565b5085821015620002245787850151600019600388901b60f8161c191681555b5050505050600190811b01905550565b613d8d80620002446000396000f3fe608060405234801561001057600080fd5b50600436106101735760003560e01c806394f0df61116100de578063bcbf718111610097578063e08b9d9c11610071578063e08b9d9c14610392578063eeaaa075146103a5578063f851a440146103b8578063fb6be4ec146103cb57600080fd5b8063bcbf718114610359578063cb9b859f1461036c578063d8f608df1461037f57600080fd5b806394f0df61146102b65780639df89256146102df578063a25b0bf0146102f2578063afd8297c14610305578063b5368e2014610325578063b717a67c1461034657600080fd5b806337d917991161013057806337d917991461021e5780636df32cd4146102315780637933ef8b1461024457806385e685311461025757806389413f421461026a57806391f205961461027d57600080fd5b8063022cb271146101785780630869cfbc1461018d5780630ac1f2c5146101b857806314c179c0146101e357806318a231a9146101f6578063197547a11461020b575b600080fd5b61018b610186366004613344565b6103de565b005b6101a061019b366004613344565b61064d565b6040516101af939291906133b6565b60405180910390f35b6006546101cb906001600160a01b031681565b6040516001600160a01b0390911681526020016101af565b6007546101cb906001600160a01b031681565b6101fe610782565b6040516101af91906133ee565b61018b610219366004613511565b6107e4565b61018b61022c366004613629565b610ba8565b61018b61023f366004613344565b610daa565b61018b610252366004613344565b610df6565b61018b610265366004613344565b610e42565b61018b610278366004613344565b6110f4565b6102a861028b36600461369d565b600560209081526000928352604080842090915290825290205481565b6040519081526020016101af565b6102c96102c43660046136d0565b611140565b6040516101af9a999897969594939291906136fa565b61018b6102ed3660046136d0565b6114f7565b6008546101cb906001600160a01b031681565b610318610313366004613344565b6118fb565b6040516101af91906137ad565b610338610333366004613344565b611d59565b6040516101af9291906138e0565b610318610354366004613344565b611eff565b610318610367366004613344565b612527565b6009546101cb906001600160a01b031681565b6101cb61038d36600461390e565b612f7e565b61018b6103a0366004613344565b612fa8565b6101fe6103b3366004613344565b612ff4565b6000546101cb906001600160a01b031681565b6101cb6103d93660046136d0565b6130c2565b6001600160a01b03811660009081526001602052604090206002015460ff166104225760405162461bcd60e51b815260040161041990613927565b60405180910390fd5b336001600160a01b0382160361047a5760405162461bcd60e51b815260206004820152601d60248201527f43616e6e6f7420726571756573742061636365737320746f2073656c660000006044820152606401610419565b6001600160a01b03811660009081526005602090815260408083203384529091529020544210156104e25760405162461bcd60e51b8152602060048201526012602482015271416c7265616479206861732061636365737360701b6044820152606401610419565b6001600160a01b0381166000908152600a602090815260408083208054825181850281018501909352808352919290919083018282801561054c57602002820191906000526020600020905b81546001600160a01b0316815260019091019060200180831161052e575b5050505050905060005b81518110156105e157336001600160a01b031682828151811061057b5761057b613957565b60200260200101516001600160a01b0316036105d95760405162461bcd60e51b815260206004820152601760248201527f5265717565737420616c72656164792070656e64696e670000000000000000006044820152606401610419565b600101610556565b506001600160a01b0382166000818152600a60209081526040808320805460018101825590845291832090910180546001600160a01b0319163390811790915590519092917f40c7749b16fdfb0d550f20273a7767875059d647af94f5a9610c63ad73dcc79f91a35050565b6001602052600090815260409020805481906106689061396d565b80601f01602080910402602001604051908101604052809291908181526020018280546106949061396d565b80156106e15780601f106106b6576101008083540402835291602001916106e1565b820191906000526020600020905b8154815290600101906020018083116106c457829003601f168201915b5050505050908060010180546106f69061396d565b80601f01602080910402602001604051908101604052809291908181526020018280546107229061396d565b801561076f5780601f106107445761010080835404028352916020019161076f565b820191906000526020600020905b81548152906001019060200180831161075257829003601f168201915b5050506002909301549192505060ff1683565b606060028054806020026020016040519081016040528092919081815260200182805480156107da57602002820191906000526020600020905b81546001600160a01b031681526001909101906020018083116107bc575b5050505050905090565b6001600160a01b03881660009081526001602052604090206002015460ff1661081f5760405162461bcd60e51b815260040161041990613927565b60028160ff16111561086b5760405162461bcd60e51b8152602060048201526015602482015274125b9d985b1a59081c1c9a5d9858de481b195d995b605a1b6044820152606401610419565b81511561093c57600060048360405161088491906139a7565b90815260200160405180910390205490506000600360008b6001600160a01b03166001600160a01b0316815260200190815260200160002082815481106108cd576108cd613957565b906000526020600020906009020160060160146101000a81548160ff021916908315150217905550886001600160a01b03167f265a47e189bdaf1e4e75ca93474dba2ad21591bb54b62e3b8633029a440dcbf6848a42604051610932939291906139c3565b60405180910390a2505b6040805161014081018252888152602080820189905281830188905260608201879052608082018690524260a08301523360c0830152600160e08301819052610100830186905260ff85166101208401526001600160a01b038c16600090815260038352938420805491820181558452922081519192839260099091029091019081906109c99082613a49565b50602082015160018201906109de9082613a49565b50604082015160028201906109f39082613a49565b5060608201516003820190610a089082613a49565b5060808201516004820190610a1d9082613a49565b5060a0820151600582015560c082015160068201805460e08501511515600160a01b026001600160a81b03199091166001600160a01b03909316929092179190911790556101008201516007820190610a769082613a49565b5061012091909101516008909101805460ff191660ff9092169190911790556001600160a01b038916600090815260036020526040902054610aba90600190613b1f565b600489604051610aca91906139a7565b908152602001604051809103902081905550336001600160a01b0316896001600160a01b03167f77f7fbc747ad443f3ea5f507abbc21d187ecb84679a348cbd91c6fbcfd405c288a4286604051610b2393929190613b38565b60405180910390a36009546001600160a01b031615610b9d5760095460405163bff4513960e01b81526001600160a01b039091169063bff4513990610b709033908d908d90600401613b64565b600060405180830381600087803b158015610b8a57600080fd5b505af1925050508015610b9b575060015b505b505050505050505050565b6000546001600160a01b03163314610bd25760405162461bcd60e51b815260040161041990613bb4565b6001600160a01b03831660009081526001602052604090206002015460ff1615610c3e5760405162461bcd60e51b815260206004820152601a60248201527f50617469656e7420616c726561647920726567697374657265640000000000006044820152606401610419565b60408051606081018252838152602080820184905260018284018190526001600160a01b038716600090815291529190912081518190610c7e9082613a49565b5060208201516001820190610c939082613a49565b506040918201516002918201805460ff191691151591909117905580546001810182556000919091527f405787fa12a823e0f2b7631cc41b3ba8828b3321ca811111fa75cd3aa3bb5ace0180546001600160a01b0319166001600160a01b03861690811790915590517f5aad8bc7ad9861b16c6d01a65f54118dfe585a51e408ac2e7b9499148d515c4190610d2b90859085906138e0565b60405180910390a26009546001600160a01b031615610da55760095460405163bff4513960e01b81526001600160a01b039091169063bff4513990610d7890339087908790600401613bf5565b600060405180830381600087803b158015610d9257600080fd5b505af1925050508015610da3575060015b505b505050565b6000546001600160a01b03163314610dd45760405162461bcd60e51b815260040161041990613bb4565b600780546001600160a01b0319166001600160a01b0392909216919091179055565b6000546001600160a01b03163314610e205760405162461bcd60e51b815260040161041990613bb4565b600680546001600160a01b0319166001600160a01b0392909216919091179055565b3360009081526001602052604090206002015460ff16610e955760405162461bcd60e51b815260206004820152600e60248201526d14d95b99195c881a5b9d985b1a5960921b6044820152606401610419565b3360008181526005602090815260408083206001600160a01b0386168085529252808320839055519092917f825c8be24eb0df19500f63e86c29e7d0d951e73056b889b891d85e40938d9b6e91a36006546001600160a01b031615610f5457600654604051630bbc386160e11b81526001600160a01b0383811660048301523360248301529091169063177870c290604401600060405180830381600087803b158015610f4157600080fd5b505af1925050508015610f52575060015b505b6007546001600160a01b031615610fc557600754604051630bbc386160e11b81526001600160a01b0383811660048301523360248301529091169063177870c290604401600060405180830381600087803b158015610fb257600080fd5b505af1925050508015610fc3575060015b505b6008546001600160a01b03161561103657600854604051630bbc386160e11b81526001600160a01b0383811660048301523360248301529091169063177870c290604401600060405180830381600087803b15801561102357600080fd5b505af1925050508015611034575060015b505b6009546001600160a01b0316156110f15760095460405163bff4513960e01b815233600482015260806024820152600e60848201526d1050d0d154d4d7d4915593d2d15160921b60a48201526001600160a01b03838116604483015260c06064830152600d60c48301526c4d616e75616c205265766f6b6560981b60e48301529091169063bff451399061010401600060405180830381600087803b1580156110de57600080fd5b505af19250505080156110ef575060015b505b50565b6000546001600160a01b0316331461111e5760405162461bcd60e51b815260040161041990613bb4565b600980546001600160a01b0319166001600160a01b0392909216919091179055565b6003602052816000526040600020818154811061115c57600080fd5b9060005260206000209060090201600091509150508060000180546111809061396d565b80601f01602080910402602001604051908101604052809291908181526020018280546111ac9061396d565b80156111f95780601f106111ce576101008083540402835291602001916111f9565b820191906000526020600020905b8154815290600101906020018083116111dc57829003601f168201915b50505050509080600101805461120e9061396d565b80601f016020809104026020016040519081016040528092919081815260200182805461123a9061396d565b80156112875780601f1061125c57610100808354040283529160200191611287565b820191906000526020600020905b81548152906001019060200180831161126a57829003601f168201915b50505050509080600201805461129c9061396d565b80601f01602080910402602001604051908101604052809291908181526020018280546112c89061396d565b80156113155780601f106112ea57610100808354040283529160200191611315565b820191906000526020600020905b8154815290600101906020018083116112f857829003601f168201915b50505050509080600301805461132a9061396d565b80601f01602080910402602001604051908101604052809291908181526020018280546113569061396d565b80156113a35780601f10611378576101008083540402835291602001916113a3565b820191906000526020600020905b81548152906001019060200180831161138657829003601f168201915b5050505050908060040180546113b89061396d565b80601f01602080910402602001604051908101604052809291908181526020018280546113e49061396d565b80156114315780601f1061140657610100808354040283529160200191611431565b820191906000526020600020905b81548152906001019060200180831161141457829003601f168201915b5050505060058301546006840154600785018054949592946001600160a01b0383169450600160a01b90920460ff16929161146b9061396d565b80601f01602080910402602001604051908101604052809291908181526020018280546114979061396d565b80156114e45780601f106114b9576101008083540402835291602001916114e4565b820191906000526020600020905b8154815290600101906020018083116114c757829003601f168201915b5050506008909301549192505060ff168a565b3360009081526001602052604090206002015460ff1661154a5760405162461bcd60e51b815260206004820152600e60248201526d14d95b99195c881a5b9d985b1a5960921b6044820152606401610419565b6001600160a01b0382166115995760405162461bcd60e51b8152602060048201526016602482015275496e76616c696420766965776572206164647265737360501b6044820152606401610419565b6115a38142613c4b565b3360008181526005602090815260408083206001600160a01b0388168085529252909120929092557f65d0cc1e52d49938ca4ad9f423c79c1b84d914b9a683fbc5d3f93ac3cc5635f56115f68442613c4b565b60405190815260200160405180910390a36006546001600160a01b031615611678576006546040516301fe843160e31b81526001600160a01b03848116600483015233602483015290911690630ff4218890604401600060405180830381600087803b15801561166557600080fd5b505af1925050508015611676575060015b505b6007546001600160a01b0316156116e9576007546040516301fe843160e31b81526001600160a01b03848116600483015233602483015290911690630ff4218890604401600060405180830381600087803b1580156116d657600080fd5b505af19250505080156116e7575060015b505b6008546001600160a01b03161561175a576008546040516301fe843160e31b81526001600160a01b03848116600483015233602483015290911690630ff4218890604401600060405180830381600087803b15801561174757600080fd5b505af1925050508015611758575060015b505b336000908152600a60205260408120905b815481101561186757836001600160a01b031682828154811061179057611790613957565b6000918252602090912001546001600160a01b03160361185f57815482906117ba90600190613b1f565b815481106117ca576117ca613957565b9060005260206000200160009054906101000a90046001600160a01b03168282815481106117fa576117fa613957565b9060005260206000200160006101000a8154816001600160a01b0302191690836001600160a01b031602179055508180548061183857611838613c5e565b600082815260209020810160001990810180546001600160a01b0319169055019055611867565b60010161176b565b506009546001600160a01b031615610da55760095460405163bff4513960e01b815233600482015260806024820152600e60848201526d1050d0d154d4d7d1d4905395115160921b60a48201526001600160a01b03858116604483015260c06064830152600d60c48301526c3720446179732041636365737360981b60e48301529091169063bff451399061010401610d78565b6001600160a01b03811660009081526001602052604090206002015460609060ff166119395760405162461bcd60e51b815260040161041990613927565b6001600160a01b038216600090815260036020908152604080832080548251818502810185019093528083529193909284015b82821015611d4e5783829060005260206000209060090201604051806101400160405290816000820180546119a09061396d565b80601f01602080910402602001604051908101604052809291908181526020018280546119cc9061396d565b8015611a195780601f106119ee57610100808354040283529160200191611a19565b820191906000526020600020905b8154815290600101906020018083116119fc57829003601f168201915b50505050508152602001600182018054611a329061396d565b80601f0160208091040260200160405190810160405280929190818152602001828054611a5e9061396d565b8015611aab5780601f10611a8057610100808354040283529160200191611aab565b820191906000526020600020905b815481529060010190602001808311611a8e57829003601f168201915b50505050508152602001600282018054611ac49061396d565b80601f0160208091040260200160405190810160405280929190818152602001828054611af09061396d565b8015611b3d5780601f10611b1257610100808354040283529160200191611b3d565b820191906000526020600020905b815481529060010190602001808311611b2057829003601f168201915b50505050508152602001600382018054611b569061396d565b80601f0160208091040260200160405190810160405280929190818152602001828054611b829061396d565b8015611bcf5780601f10611ba457610100808354040283529160200191611bcf565b820191906000526020600020905b815481529060010190602001808311611bb257829003601f168201915b50505050508152602001600482018054611be89061396d565b80601f0160208091040260200160405190810160405280929190818152602001828054611c149061396d565b8015611c615780601f10611c3657610100808354040283529160200191611c61565b820191906000526020600020905b815481529060010190602001808311611c4457829003601f168201915b50505091835250506005820154602082015260068201546001600160a01b0381166040830152600160a01b900460ff1615156060820152600782018054608090920191611cad9061396d565b80601f0160208091040260200160405190810160405280929190818152602001828054611cd99061396d565b8015611d265780601f10611cfb57610100808354040283529160200191611d26565b820191906000526020600020905b815481529060010190602001808311611d0957829003601f168201915b50505091835250506008919091015460ff16602091820152908252600192909201910161196c565b505050509050919050565b6001600160a01b038116600090815260016020526040902060020154606090819060ff16611d995760405162461bcd60e51b815260040161041990613927565b6001600160a01b038316600090815260016020526040808220815160608101909252805482908290611dca9061396d565b80601f0160208091040260200160405190810160405280929190818152602001828054611df69061396d565b8015611e435780601f10611e1857610100808354040283529160200191611e43565b820191906000526020600020905b815481529060010190602001808311611e2657829003601f168201915b50505050508152602001600182018054611e5c9061396d565b80601f0160208091040260200160405190810160405280929190818152602001828054611e889061396d565b8015611ed55780601f10611eaa57610100808354040283529160200191611ed5565b820191906000526020600020905b815481529060010190602001808311611eb857829003601f168201915b50505091835250506002919091015460ff1615156020918201528151910151909590945092505050565b6001600160a01b03811660009081526001602052604090206002015460609060ff16611f3d5760405162461bcd60e51b815260040161041990613927565b336001600160a01b03831614611fa35760405162461bcd60e51b815260206004820152602560248201527f41636365737320616c6c6f776564206f6e6c7920666f722070617469656e742060448201526437bbb732b960d91b6064820152608401610419565b6000805b6001600160a01b03841660009081526003602052604090205481101561202b576001600160a01b0384166000908152600360205260409020805482908110611ff157611ff1613957565b906000526020600020906009020160060160149054906101000a900460ff1615612023578161201f81613c74565b9250505b600101611fa7565b5060008167ffffffffffffffff8111156120475761204761343b565b60405190808252806020026020018201604052801561208057816020015b61206d6132c7565b8152602001906001900390816120655790505b5090506000805b6001600160a01b03861660009081526003602052604090205481101561251d576001600160a01b03861660009081526003602052604090208054829081106120d1576120d1613957565b906000526020600020906009020160060160149054906101000a900460ff1615612515576001600160a01b038616600090815260036020526040902080548290811061211f5761211f613957565b9060005260206000209060090201604051806101400160405290816000820180546121499061396d565b80601f01602080910402602001604051908101604052809291908181526020018280546121759061396d565b80156121c25780601f10612197576101008083540402835291602001916121c2565b820191906000526020600020905b8154815290600101906020018083116121a557829003601f168201915b505050505081526020016001820180546121db9061396d565b80601f01602080910402602001604051908101604052809291908181526020018280546122079061396d565b80156122545780601f1061222957610100808354040283529160200191612254565b820191906000526020600020905b81548152906001019060200180831161223757829003601f168201915b5050505050815260200160028201805461226d9061396d565b80601f01602080910402602001604051908101604052809291908181526020018280546122999061396d565b80156122e65780601f106122bb576101008083540402835291602001916122e6565b820191906000526020600020905b8154815290600101906020018083116122c957829003601f168201915b505050505081526020016003820180546122ff9061396d565b80601f016020809104026020016040519081016040528092919081815260200182805461232b9061396d565b80156123785780601f1061234d57610100808354040283529160200191612378565b820191906000526020600020905b81548152906001019060200180831161235b57829003601f168201915b505050505081526020016004820180546123919061396d565b80601f01602080910402602001604051908101604052809291908181526020018280546123bd9061396d565b801561240a5780601f106123df5761010080835404028352916020019161240a565b820191906000526020600020905b8154815290600101906020018083116123ed57829003601f168201915b50505091835250506005820154602082015260068201546001600160a01b0381166040830152600160a01b900460ff16151560608201526007820180546080909201916124569061396d565b80601f01602080910402602001604051908101604052809291908181526020018280546124829061396d565b80156124cf5780601f106124a4576101008083540402835291602001916124cf565b820191906000526020600020905b8154815290600101906020018083116124b257829003601f168201915b50505091835250506008919091015460ff1660209091015283518490849081106124fb576124fb613957565b6020026020010181905250818061251190613c74565b9250505b600101612087565b5090949350505050565b6001600160a01b038181166000818152600560209081526040808320338085529252822054600654606095949092149342909111929116156125d657600654604051630bc1381960e21b81523360048201526001600160a01b0390911690632f04e06490602401600060405180830381865afa9250505080156125cc57506040513d6000823e601f3d908101601f191682016040526125c99190810190613cda565b60015b156125d657925050505b82806125df5750815b806125e75750805b6126235760405162461bcd60e51b815260206004820152600d60248201526c1058d8d95cdcc819195b9a5959609a1b6044820152606401610419565b60008315612633575060ff61264d565b81156126415750600261264d565b61264a336130fa565b90505b6000805b6001600160a01b038816600090815260036020526040902054811015612aa3576001600160a01b038816600090815260036020526040812080548390811061269b5761269b613957565b9060005260206000209060090201604051806101400160405290816000820180546126c59061396d565b80601f01602080910402602001604051908101604052809291908181526020018280546126f19061396d565b801561273e5780601f106127135761010080835404028352916020019161273e565b820191906000526020600020905b81548152906001019060200180831161272157829003601f168201915b505050505081526020016001820180546127579061396d565b80601f01602080910402602001604051908101604052809291908181526020018280546127839061396d565b80156127d05780601f106127a5576101008083540402835291602001916127d0565b820191906000526020600020905b8154815290600101906020018083116127b357829003601f168201915b505050505081526020016002820180546127e99061396d565b80601f01602080910402602001604051908101604052809291908181526020018280546128159061396d565b80156128625780601f1061283757610100808354040283529160200191612862565b820191906000526020600020905b81548152906001019060200180831161284557829003601f168201915b5050505050815260200160038201805461287b9061396d565b80601f01602080910402602001604051908101604052809291908181526020018280546128a79061396d565b80156128f45780601f106128c9576101008083540402835291602001916128f4565b820191906000526020600020905b8154815290600101906020018083116128d757829003601f168201915b5050505050815260200160048201805461290d9061396d565b80601f01602080910402602001604051908101604052809291908181526020018280546129399061396d565b80156129865780601f1061295b57610100808354040283529160200191612986565b820191906000526020600020905b81548152906001019060200180831161296957829003601f168201915b50505091835250506005820154602082015260068201546001600160a01b0381166040830152600160a01b900460ff16151560608201526007820180546080909201916129d29061396d565b80601f01602080910402602001604051908101604052809291908181526020018280546129fe9061396d565b8015612a4b5780601f10612a2057610100808354040283529160200191612a4b565b820191906000526020600020905b815481529060010190602001808311612a2e57829003601f168201915b50505091835250506008919091015460ff1660209091015260e081015190915015612a9a578680612a8757508360ff1681610120015160ff1611155b15612a9a5782612a9681613c74565b9350505b50600101612651565b5060008167ffffffffffffffff811115612abf57612abf61343b565b604051908082528060200260200182016040528015612af857816020015b612ae56132c7565b815260200190600190039081612add5790505b5090506000805b6001600160a01b038a16600090815260036020526040902054811015612f70576001600160a01b038a166000908152600360205260408120805483908110612b4957612b49613957565b906000526020600020906009020160405180610140016040529081600082018054612b739061396d565b80601f0160208091040260200160405190810160405280929190818152602001828054612b9f9061396d565b8015612bec5780601f10612bc157610100808354040283529160200191612bec565b820191906000526020600020905b815481529060010190602001808311612bcf57829003601f168201915b50505050508152602001600182018054612c059061396d565b80601f0160208091040260200160405190810160405280929190818152602001828054612c319061396d565b8015612c7e5780601f10612c5357610100808354040283529160200191612c7e565b820191906000526020600020905b815481529060010190602001808311612c6157829003601f168201915b50505050508152602001600282018054612c979061396d565b80601f0160208091040260200160405190810160405280929190818152602001828054612cc39061396d565b8015612d105780601f10612ce557610100808354040283529160200191612d10565b820191906000526020600020905b815481529060010190602001808311612cf357829003601f168201915b50505050508152602001600382018054612d299061396d565b80601f0160208091040260200160405190810160405280929190818152602001828054612d559061396d565b8015612da25780601f10612d7757610100808354040283529160200191612da2565b820191906000526020600020905b815481529060010190602001808311612d8557829003601f168201915b50505050508152602001600482018054612dbb9061396d565b80601f0160208091040260200160405190810160405280929190818152602001828054612de79061396d565b8015612e345780601f10612e0957610100808354040283529160200191612e34565b820191906000526020600020905b815481529060010190602001808311612e1757829003601f168201915b50505091835250506005820154602082015260068201546001600160a01b0381166040830152600160a01b900460ff1615156060820152600782018054608090920191612e809061396d565b80601f0160208091040260200160405190810160405280929190818152602001828054612eac9061396d565b8015612ef95780601f10612ece57610100808354040283529160200191612ef9565b820191906000526020600020905b815481529060010190602001808311612edc57829003601f168201915b50505091835250506008919091015460ff1660209091015260e081015190915015612f67578880612f3557508560ff1681610120015160ff1611155b15612f675780848481518110612f4d57612f4d613957565b60200260200101819052508280612f6390613c74565b9350505b50600101612aff565b509098975050505050505050565b60028181548110612f8e57600080fd5b6000918252602090912001546001600160a01b0316905081565b6000546001600160a01b03163314612fd25760405162461bcd60e51b815260040161041990613bb4565b600880546001600160a01b0319166001600160a01b0392909216919091179055565b6060336001600160a01b0383161461304e5760405162461bcd60e51b815260206004820152601e60248201527f4f6e6c792070617469656e742063616e207669657720726571756573747300006044820152606401610419565b6001600160a01b0382166000908152600a6020908152604091829020805483518184028101840190945280845290918301828280156130b657602002820191906000526020600020905b81546001600160a01b03168152600190910190602001808311613098575b50505050509050919050565b600a60205281600052604060002081815481106130de57600080fd5b6000918252602090912001546001600160a01b03169150829050565b6006546000906001600160a01b03161561319357600654604051630bc1381960e21b81526001600160a01b03848116600483015290911690632f04e06490602401600060405180830381865afa92505050801561317957506040513d6000823e601f3d908101601f191682016040526131769190810190613cda565b60015b1561319357801561318f57506002949350505050565b5050505b6007546001600160a01b031615613229576007546040516387e5979360e01b81526001600160a01b038481166004830152909116906387e5979390602401600060405180830381865afa92505050801561320f57506040513d6000823e601f3d908101601f1916820160405261320c9190810190613cda565b60015b1561322957801561322557506001949350505050565b5050505b6008546001600160a01b0316156132bf576008546040516373f5d26160e11b81526001600160a01b0384811660048301529091169063e7eba4c290602401600060405180830381865afa9250505080156132a557506040513d6000823e601f3d908101601f191682016040526132a29190810190613cda565b60015b156132bf5780156132bb57506000949350505050565b5050505b506000919050565b60405180610140016040528060608152602001606081526020016060815260200160608152602001606081526020016000815260200160006001600160a01b0316815260200160001515815260200160608152602001600060ff1681525090565b80356001600160a01b038116811461333f57600080fd5b919050565b60006020828403121561335657600080fd5b61335f82613328565b9392505050565b60005b83811015613381578181015183820152602001613369565b50506000910152565b600081518084526133a2816020860160208601613366565b601f01601f19169290920160200192915050565b6060815260006133c9606083018661338a565b82810360208401526133db818661338a565b9150508215156040830152949350505050565b6020808252825182820181905260009190848201906040850190845b8181101561342f5783516001600160a01b03168352928401929184019160010161340a565b50909695505050505050565b634e487b7160e01b600052604160045260246000fd5b604051601f8201601f1916810167ffffffffffffffff8111828210171561347a5761347a61343b565b604052919050565b600067ffffffffffffffff82111561349c5761349c61343b565b50601f01601f191660200190565b600082601f8301126134bb57600080fd5b81356134ce6134c982613482565b613451565b8181528460208386010111156134e357600080fd5b816020850160208301376000918101602001919091529392505050565b803560ff8116811461333f57600080fd5b600080600080600080600080610100898b03121561352e57600080fd5b61353789613328565b9750602089013567ffffffffffffffff8082111561355457600080fd5b6135608c838d016134aa565b985060408b013591508082111561357657600080fd5b6135828c838d016134aa565b975060608b013591508082111561359857600080fd5b6135a48c838d016134aa565b965060808b01359150808211156135ba57600080fd5b6135c68c838d016134aa565b955060a08b01359150808211156135dc57600080fd5b6135e88c838d016134aa565b945060c08b01359150808211156135fe57600080fd5b5061360b8b828c016134aa565b92505061361a60e08a01613500565b90509295985092959890939650565b60008060006060848603121561363e57600080fd5b61364784613328565b9250602084013567ffffffffffffffff8082111561366457600080fd5b613670878388016134aa565b9350604086013591508082111561368657600080fd5b50613693868287016134aa565b9150509250925092565b600080604083850312156136b057600080fd5b6136b983613328565b91506136c760208401613328565b90509250929050565b600080604083850312156136e357600080fd5b6136ec83613328565b946020939093013593505050565b600061014080835261370e8184018e61338a565b90508281036020840152613722818d61338a565b90508281036040840152613736818c61338a565b9050828103606084015261374a818b61338a565b9050828103608084015261375e818a61338a565b60a084018990526001600160a01b03881660c085015286151560e08501528381036101008501529050613791818661338a565b91505060ff83166101208301529b9a5050505050505050505050565b600060208083018184528085518083526040925060408601915060408160051b87010184880160005b83811015612f7057603f19898403018552815161014081518186526137fd8287018261338a565b915050888201518582038a870152613815828261338a565b915050878201518582038987015261382d828261338a565b91505060608083015186830382880152613847838261338a565b9250505060808083015186830382880152613862838261338a565b9250505060a080830151818701525060c08083015161388b828801826001600160a01b03169052565b505060e08281015115159086015261010080830151868303828801526138b1838261338a565b925050506101208083015192506138cc8187018460ff169052565b5095880195935050908601906001016137d6565b6040815260006138f3604083018561338a565b8281036020840152613905818561338a565b95945050505050565b60006020828403121561392057600080fd5b5035919050565b60208082526016908201527514185d1a595b9d081b9bdd081c9959da5cdd195c995960521b604082015260600190565b634e487b7160e01b600052603260045260246000fd5b600181811c9082168061398157607f821691505b6020821081036139a157634e487b7160e01b600052602260045260246000fd5b50919050565b600082516139b9818460208701613366565b9190910192915050565b6060815260006139d6606083018661338a565b82810360208401526139e8818661338a565b915050826040830152949350505050565b601f821115610da5576000816000526020600020601f850160051c81016020861015613a225750805b601f850160051c820191505b81811015613a4157828155600101613a2e565b505050505050565b815167ffffffffffffffff811115613a6357613a6361343b565b613a7781613a71845461396d565b846139f9565b602080601f831160018114613aac5760008415613a945750858301515b600019600386901b1c1916600185901b178555613a41565b600085815260208120601f198616915b82811015613adb57888601518255948401946001909101908401613abc565b5085821015613af95787850151600019600388901b60f8161c191681555b5050505050600190811b01905550565b634e487b7160e01b600052601160045260246000fd5b81810381811115613b3257613b32613b09565b92915050565b606081526000613b4b606083018661338a565b905083602083015260ff83166040830152949350505050565b6001600160a01b038481168252608060208301819052600c908301526b149150d3d49117d05111115160a21b60a08301528316604082015260c0606082018190526000906139059083018461338a565b60208082526021908201527f4f6e6c792061646d696e2063616e2063616c6c20746869732066756e6374696f6040820152603760f91b606082015260800190565b6001600160a01b038481168252608060208301819052601290830152711410551251539517d49151d254d51154915160721b60a08301528316604082015260c0606082018190526000906139059083018461338a565b80820180821115613b3257613b32613b09565b634e487b7160e01b600052603160045260246000fd5b600060018201613c8657613c86613b09565b5060010190565b600082601f830112613c9e57600080fd5b8151613cac6134c982613482565b818152846020838601011115613cc157600080fd5b613cd2826020830160208701613366565b949350505050565b600080600060608486031215613cef57600080fd5b835167ffffffffffffffff80821115613d0757600080fd5b613d1387838801613c8d565b94506020860151915080821115613d2957600080fd5b50613d3686828701613c8d565b92505060408401518015158114613d4c57600080fd5b80915050925092509256fea2646970667358221220336fc17154a15e568a90cd1a6311cdf1bbbb6056d7f0d67f9283ab0d729dd9e564736f6c63430008180033","opcodes":"PUSH1 0x80 PUSH1 0x40 MSTORE CALLVALUE DUP1 ISZERO PUSH3 0x11 JUMPI PUSH1 0x0 DUP1 REVERT JUMPDEST POP PUSH1 0x0 DUP1 SLOAD PUSH1 0x1 PUSH1 0x1 PUSH1 0xA0 SHL SUB NOT AND CALLER SWAP1 DUP2 OR DUP3 SSTORE PUSH1 0x40 DUP1 MLOAD PUSH1 0xA0 DUP2 ADD DUP3 MSTORE PUSH1 0x5 PUSH1 0x60 DUP3 ADD DUP2 DUP2 MSTORE PUSH5 0x30B236B4B7 PUSH1 0xD9 SHL PUSH1 0x80 DUP5 ADD DUP2 SWAP1 MSTORE SWAP1 DUP4 MSTORE DUP4 MLOAD DUP1 DUP6 ADD DUP6 MSTORE SWAP2 DUP3 MSTORE PUSH1 0x20 DUP3 DUP2 ADD SWAP2 SWAP1 SWAP2 MSTORE DUP1 DUP4 ADD SWAP2 SWAP1 SWAP2 MSTORE PUSH1 0x1 DUP3 DUP5 ADD DUP2 SWAP1 MSTORE SWAP4 DUP6 MSTORE SWAP3 SWAP1 SWAP3 MSTORE SWAP1 SWAP2 KECCAK256 DUP2 MLOAD DUP2 SWAP1 PUSH3 0x88 SWAP1 DUP3 PUSH3 0x168 JUMP JUMPDEST POP PUSH1 0x20 DUP3 ADD MLOAD PUSH1 0x1 DUP3 ADD SWAP1 PUSH3 0x9F SWAP1 DUP3 PUSH3 0x168 JUMP JUMPDEST POP PUSH1 0x40 SWAP2 SWAP1 SWAP2 ADD MLOAD PUSH1 0x2 SWAP1 SWAP2 ADD DUP1 SLOAD PUSH1 0xFF NOT AND SWAP2 ISZERO ISZERO SWAP2 SWAP1 SWAP2 OR SWAP1 SSTORE PUSH3 0x234 JUMP JUMPDEST PUSH4 0x4E487B71 PUSH1 0xE0 SHL PUSH1 0x0 MSTORE PUSH1 0x41 PUSH1 0x4 MSTORE PUSH1 0x24 PUSH1 0x0 REVERT JUMPDEST PUSH1 0x1 DUP2 DUP2 SHR SWAP1 DUP3 AND DUP1 PUSH3 0xEC JUMPI PUSH1 0x7F DUP3 AND SWAP2 POP JUMPDEST PUSH1 0x20 DUP3 LT DUP2 SUB PUSH3 0x10D JUMPI PUSH4 0x4E487B71 PUSH1 0xE0 SHL PUSH1 0x0 MSTORE PUSH1 0x22 PUSH1 0x4 MSTORE PUSH1 0x24 PUSH1 0x0 REVERT JUMPDEST POP SWAP2 SWAP1 POP JUMP JUMPDEST PUSH1 0x1F DUP3 GT ISZERO PUSH3 0x163 JUMPI PUSH1 0x0 DUP2 PUSH1 0x0 MSTORE PUSH1 0x20 PUSH1 0x0 KECCAK256 PUSH1 0x1F DUP6 ADD PUSH1 0x5 SHR DUP2 ADD PUSH1 0x20 DUP7 LT ISZERO PUSH3 0x13E JUMPI POP DUP1 JUMPDEST PUSH1 0x1F DUP6 ADD PUSH1 0x5 SHR DUP3 ADD SWAP2 POP JUMPDEST DUP2 DUP2 LT ISZERO PUSH3 0x15F JUMPI DUP3 DUP2 SSTORE PUSH1 0x1 ADD PUSH3 0x14A JUMP JUMPDEST POP POP POP JUMPDEST POP POP POP JUMP JUMPDEST DUP2 MLOAD PUSH1 0x1 PUSH1 0x1 PUSH1 0x40 SHL SUB DUP2 GT ISZERO PUSH3 0x184 JUMPI PUSH3 0x184 PUSH3 0xC1 JUMP JUMPDEST PUSH3 0x19C DUP2 PUSH3 0x195 DUP5 SLOAD PUSH3 0xD7 JUMP JUMPDEST DUP5 PUSH3 0x113 JUMP JUMPDEST PUSH1 0x20 DUP1 PUSH1 0x1F DUP4 GT PUSH1 0x1 DUP2 EQ PUSH3 0x1D4 JUMPI PUSH1 0x0 DUP5 ISZERO PUSH3 0x1BB JUMPI POP DUP6 DUP4 ADD MLOAD JUMPDEST PUSH1 0x0 NOT PUSH1 0x3 DUP7 SWAP1 SHL SHR NOT AND PUSH1 0x1 DUP6 SWAP1 SHL OR DUP6 SSTORE PUSH3 0x15F JUMP JUMPDEST PUSH1 0x0 DUP6 DUP2 MSTORE PUSH1 0x20 DUP2 KECCAK256 PUSH1 0x1F NOT DUP7 AND SWAP2 JUMPDEST DUP3 DUP2 LT ISZERO PUSH3 0x205 JUMPI DUP9 DUP7 ADD MLOAD DUP3 SSTORE SWAP5 DUP5 ADD SWAP5 PUSH1 0x1 SWAP1 SWAP2 ADD SWAP1 DUP5 ADD PUSH3 0x1E4 JUMP JUMPDEST POP DUP6 DUP3 LT ISZERO PUSH3 0x224 JUMPI DUP8 DUP6 ADD MLOAD PUSH1 0x0 NOT PUSH1 0x3 DUP9 SWAP1 SHL PUSH1 0xF8 AND SHR NOT AND DUP2 SSTORE JUMPDEST POP POP POP POP POP PUSH1 0x1 SWAP1 DUP2 SHL ADD SWAP1 SSTORE POP JUMP JUMPDEST PUSH2 0x3D8D DUP1 PUSH3 0x244 PUSH1 0x0 CODECOPY PUSH1 0x0 RETURN INVALID PUSH1 0x80 PUSH1 0x40 MSTORE CALLVALUE DUP1 ISZERO PUSH2 0x10 JUMPI PUSH1 0x0 DUP1 REVERT JUMPDEST POP PUSH1 0x4 CALLDATASIZE LT PUSH2 0x173 JUMPI PUSH1 0x0 CALLDATALOAD PUSH1 0xE0 SHR DUP1 PUSH4 0x94F0DF61 GT PUSH2 0xDE JUMPI DUP1 PUSH4 0xBCBF7181 GT PUSH2 0x97 JUMPI DUP1 PUSH4 0xE08B9D9C GT PUSH2 0x71 JUMPI DUP1 PUSH4 0xE08B9D9C EQ PUSH2 0x392 JUMPI DUP1 PUSH4 0xEEAAA075 EQ PUSH2 0x3A5 JUMPI DUP1 PUSH4 0xF851A440 EQ PUSH2 0x3B8 JUMPI DUP1 PUSH4 0xFB6BE4EC EQ PUSH2 0x3CB JUMPI PUSH1 0x0 DUP1 REVERT JUMPDEST DUP1 PUSH4 0xBCBF7181 EQ PUSH2 0x359 JUMPI DUP1 PUSH4 0xCB9B859F EQ PUSH2 0x36C JUMPI DUP1 PUSH4 0xD8F608DF EQ PUSH2 0x37F JUMPI PUSH1 0x0 DUP1 REVERT JUMPDEST DUP1 PUSH4 0x94F0DF61 EQ PUSH2 0x2B6 JUMPI DUP1 PUSH4 0x9DF89256 EQ PUSH2 0x2DF JUMPI DUP1 PUSH4 0xA25B0BF0 EQ PUSH2 0x2F2 JUMPI DUP1 PUSH4 0xAFD8297C EQ PUSH2 0x305 JUMPI DUP1 PUSH4 0xB5368E20 EQ PUSH2 0x325 JUMPI DUP1 PUSH4 0xB717A67C EQ PUSH2 0x346 JUMPI PUSH1 0x0 DUP1 REVERT JUMPDEST DUP1 PUSH4 0x37D91799 GT PUSH2 0x130 JUMPI DUP1 PUSH4 0x37D91799 EQ PUSH2 0x21E JUMPI DUP1 PUSH4 0x6DF32CD4 EQ PUSH2 0x231 JUMPI DUP1 PUSH4 0x7933EF8B EQ PUSH2 0x244 JUMPI DUP1 PUSH4 0x85E68531 EQ PUSH2 0x257 JUMPI DUP1 PUSH4 0x89413F42 EQ PUSH2 0x26A JUMPI DUP1 PUSH4 0x91F20596 EQ PUSH2 0x27D JUMPI PUSH1 0x0 DUP1 REVERT JUMPDEST DUP1 PUSH4 0x22CB271 EQ PUSH2 0x178 JUMPI DUP1 PUSH4 0x869CFBC EQ PUSH2 0x18D JUMPI DUP1 PUSH4 0xAC1F2C5 EQ PUSH2 0x1B8 JUMPI DUP1 PUSH4 0x14C179C0 EQ PUSH2 0x1E3 JUMPI DUP1 PUSH4 0x18A231A9 EQ PUSH2 0x1F6 JUMPI DUP1 PUSH4 0x197547A1 EQ PUSH2 0x20B JUMPI JUMPDEST PUSH1 0x0 DUP1 REVERT JUMPDEST PUSH2 0x18B PUSH2 0x186 CALLDATASIZE PUSH1 0x4 PUSH2 0x3344 JUMP JUMPDEST PUSH2 0x3DE JUMP JUMPDEST STOP JUMPDEST PUSH2 0x1A0 PUSH2 0x19B CALLDATASIZE PUSH1 0x4 PUSH2 0x3344 JUMP JUMPDEST PUSH2 0x64D JUMP JUMPDEST PUSH1 0x40 MLOAD PUSH2 0x1AF SWAP4 SWAP3 SWAP2 SWAP1 PUSH2 0x33B6 JUMP JUMPDEST PUSH1 0x40 MLOAD DUP1 SWAP2 SUB SWAP1 RETURN JUMPDEST PUSH1 0x6 SLOAD PUSH2 0x1CB SWAP1 PUSH1 0x1 PUSH1 0x1 PUSH1 0xA0 SHL SUB AND DUP2 JUMP JUMPDEST PUSH1 0x40 MLOAD PUSH1 0x1 PUSH1 0x1 PUSH1 0xA0 SHL SUB SWAP1 SWAP2 AND DUP2 MSTORE PUSH1 0x20 ADD PUSH2 0x1AF JUMP JUMPDEST PUSH1 0x7 SLOAD PUSH2 0x1CB SWAP1 PUSH1 0x1 PUSH1 0x1 PUSH1 0xA0 SHL SUB AND DUP2 JUMP JUMPDEST PUSH2 0x1FE PUSH2 0x782 JUMP JUMPDEST PUSH1 0x40 MLOAD PUSH2 0x1AF SWAP2 SWAP1 PUSH2 0x33EE JUMP JUMPDEST PUSH2 0x18B PUSH2 0x219 CALLDATASIZE PUSH1 0x4 PUSH2 0x3511 JUMP JUMPDEST PUSH2 0x7E4 JUMP JUMPDEST PUSH2 0x18B PUSH2 0x22C CALLDATASIZE PUSH1 0x4 PUSH2 0x3629 JUMP JUMPDEST PUSH2 0xBA8 JUMP JUMPDEST PUSH2 0x18B PUSH2 0x23F CALLDATASIZE PUSH1 0x4 PUSH2 0x3344 JUMP JUMPDEST PUSH2 0xDAA JUMP JUMPDEST PUSH2 0x18B PUSH2 0x252 CALLDATASIZE PUSH1 0x4 PUSH2 0x3344 JUMP JUMPDEST PUSH2 0xDF6 JUMP JUMPDEST PUSH2 0x18B PUSH2 0x265 CALLDATASIZE PUSH1 0x4 PUSH2 0x3344 JUMP JUMPDEST PUSH2 0xE42 JUMP JUMPDEST PUSH2 0x18B PUSH2 0x278 CALLDATASIZE PUSH1 0x4 PUSH2 0x3344 JUMP JUMPDEST PUSH2 0x10F4 JUMP JUMPDEST PUSH2 0x2A8 PUSH2 0x28B CALLDATASIZE PUSH1 0x4 PUSH2 0x369D JUMP JUMPDEST PUSH1 0x5 PUSH1 0x20 SWAP1 DUP2 MSTORE PUSH1 0x0 SWAP3 DUP4 MSTORE PUSH1 0x40 DUP1 DUP5 KECCAK256 SWAP1 SWAP2 MSTORE SWAP1 DUP3 MSTORE SWAP1 KECCAK256 SLOAD DUP2 JUMP JUMPDEST PUSH1 0x40 MLOAD SWAP1 DUP2 MSTORE PUSH1 0x20 ADD PUSH2 0x1AF JUMP JUMPDEST PUSH2 0x2C9 PUSH2 0x2C4 CALLDATASIZE PUSH1 0x4 PUSH2 0x36D0 JUMP JUMPDEST PUSH2 0x1140 JUMP JUMPDEST PUSH1 0x40 MLOAD PUSH2 0x1AF SWAP11 SWAP10 SWAP9 SWAP8 SWAP7 SWAP6 SWAP5 SWAP4 SWAP3 SWAP2 SWAP1 PUSH2 0x36FA JUMP JUMPDEST PUSH2 0x18B PUSH2 0x2ED CALLDATASIZE PUSH1 0x4 PUSH2 0x36D0 JUMP JUMPDEST PUSH2 0x14F7 JUMP JUMPDEST PUSH1 0x8 SLOAD PUSH2 0x1CB SWAP1 PUSH1 0x1 PUSH1 0x1 PUSH1 0xA0 SHL SUB AND DUP2 JUMP JUMPDEST PUSH2 0x318 PUSH2 0x313 CALLDATASIZE PUSH1 0x4 PUSH2 0x3344 JUMP JUMPDEST PUSH2 0x18FB JUMP JUMPDEST PUSH1 0x40 MLOAD PUSH2 0x1AF SWAP2 SWAP1 PUSH2 0x37AD JUMP JUMPDEST PUSH2 0x338 PUSH2 0x333 CALLDATASIZE PUSH1 0x4 PUSH2 0x3344 JUMP JUMPDEST PUSH2 0x1D59 JUMP JUMPDEST PUSH1 0x40 MLOAD PUSH2 0x1AF SWAP3 SWAP2 SWAP1 PUSH2 0x38E0 JUMP JUMPDEST PUSH2 0x318 PUSH2 0x354 CALLDATASIZE PUSH1 0x4 PUSH2 0x3344 JUMP JUMPDEST PUSH2 0x1EFF JUMP JUMPDEST PUSH2 0x318 PUSH2 0x367 CALLDATASIZE PUSH1 0x4 PUSH2 0x3344 JUMP JUMPDEST PUSH2 0x2527 JUMP JUMPDEST PUSH1 0x9 SLOAD PUSH2 0x1CB SWAP1 PUSH1 0x1 PUSH1 0x1 PUSH1 0xA0 SHL SUB AND DUP2 JUMP JUMPDEST PUSH2 0x1CB PUSH2 0x38D CALLDATASIZE PUSH1 0x4 PUSH2 0x390E JUMP JUMPDEST PUSH2 0x2F7E JUMP JUMPDEST PUSH2 0x18B PUSH2 0x3A0 CALLDATASIZE PUSH1 0x4 PUSH2 0x3344 JUMP JUMPDEST PUSH2 0x2FA8 JUMP JUMPDEST PUSH2 0x1FE PUSH2 0x3B3 CALLDATASIZE PUSH1 0x4 PUSH2 0x3344 JUMP JUMPDEST PUSH2 0x2FF4 JUMP JUMPDEST PUSH1 0x0 SLOAD PUSH2 0x1CB SWAP1 PUSH1 0x1 PUSH1 0x1 PUSH1 0xA0 SHL SUB AND DUP2 JUMP JUMPDEST PUSH2 0x1CB PUSH2 0x3D9 CALLDATASIZE PUSH1 0x4 PUSH2 0x36D0 JUMP JUMPDEST PUSH2 0x30C2 JUMP JUMPDEST PUSH1 0x1 PUSH1 0x1 PUSH1 0xA0 SHL SUB DUP2 AND PUSH1 0x0 SWAP1 DUP2 MSTORE PUSH1 0x1 PUSH1 0x20 MSTORE PUSH1 0x40 SWAP1 KECCAK256 PUSH1 0x2 ADD SLOAD PUSH1 0xFF AND PUSH2 0x422 JUMPI PUSH1 0x40 MLOAD PUSH3 0x461BCD PUSH1 0xE5 SHL DUP2 MSTORE PUSH1 0x4 ADD PUSH2 0x419 SWAP1 PUSH2 0x3927 JUMP JUMPDEST PUSH1 0x40 MLOAD DUP1 SWAP2 SUB SWAP1 REVERT JUMPDEST CALLER PUSH1 0x1 PUSH1 0x1 PUSH1 0xA0 SHL SUB DUP3 AND SUB PUSH2 0x47A JUMPI PUSH1 0x40 MLOAD PUSH3 0x461BCD PUSH1 0xE5 SHL DUP2 MSTORE PUSH1 0x20 PUSH1 0x4 DUP3 ADD MSTORE PUSH1 0x1D PUSH1 0x24 DUP3 ADD MSTORE PUSH32 0x43616E6E6F7420726571756573742061636365737320746F2073656C66000000 PUSH1 0x44 DUP3 ADD MSTORE PUSH1 0x64 ADD PUSH2 0x419 JUMP JUMPDEST PUSH1 0x1 PUSH1 0x1 PUSH1 0xA0 SHL SUB DUP2 AND PUSH1 0x0 SWAP1 DUP2 MSTORE PUSH1 0x5 PUSH1 0x20 SWAP1 DUP2 MSTORE PUSH1 0x40 DUP1 DUP4 KECCAK256 CALLER DUP5 MSTORE SWAP1 SWAP2 MSTORE SWAP1 KECCAK256 SLOAD TIMESTAMP LT ISZERO PUSH2 0x4E2 JUMPI PUSH1 0x40 MLOAD PUSH3 0x461BCD PUSH1 0xE5 SHL DUP2 MSTORE PUSH1 0x20 PUSH1 0x4 DUP3 ADD MSTORE PUSH1 0x12 PUSH1 0x24 DUP3 ADD MSTORE PUSH18 0x416C72656164792068617320616363657373 PUSH1 0x70 SHL PUSH1 0x44 DUP3 ADD MSTORE PUSH1 0x64 ADD PUSH2 0x419 JUMP JUMPDEST PUSH1 0x1 PUSH1 0x1 PUSH1 0xA0 SHL SUB DUP2 AND PUSH1 0x0 SWAP1 DUP2 MSTORE PUSH1 0xA PUSH1 0x20 SWAP1 DUP2 MSTORE PUSH1 0x40 DUP1 DUP4 KECCAK256 DUP1 SLOAD DUP3 MLOAD DUP2 DUP6 MUL DUP2 ADD DUP6 ADD SWAP1 SWAP4 MSTORE DUP1 DUP4 MSTORE SWAP2 SWAP3 SWAP1 SWAP2 SWAP1 DUP4 ADD DUP3 DUP3 DUP1 ISZERO PUSH2 0x54C JUMPI PUSH1 0x20 MUL DUP3 ADD SWAP2 SWAP1 PUSH1 0x0 MSTORE PUSH1 0x20 PUSH1 0x0 KECCAK256 SWAP1 JUMPDEST DUP2 SLOAD PUSH1 0x1 PUSH1 0x1 PUSH1 0xA0 SHL SUB AND DUP2 MSTORE PUSH1 0x1 SWAP1 SWAP2 ADD SWAP1 PUSH1 0x20 ADD DUP1 DUP4 GT PUSH2 0x52E JUMPI JUMPDEST POP POP POP POP POP SWAP1 POP PUSH1 0x0 JUMPDEST DUP2 MLOAD DUP2 LT ISZERO PUSH2 0x5E1 JUMPI CALLER PUSH1 0x1 PUSH1 0x1 PUSH1 0xA0 SHL SUB AND DUP3 DUP3 DUP2 MLOAD DUP2 LT PUSH2 0x57B JUMPI PUSH2 0x57B PUSH2 0x3957 JUMP JUMPDEST PUSH1 0x20 MUL PUSH1 0x20 ADD ADD MLOAD PUSH1 0x1 PUSH1 0x1 PUSH1 0xA0 SHL SUB AND SUB PUSH2 0x5D9 JUMPI PUSH1 0x40 MLOAD PUSH3 0x461BCD PUSH1 0xE5 SHL DUP2 MSTORE PUSH1 0x20 PUSH1 0x4 DUP3 ADD MSTORE PUSH1 0x17 PUSH1 0x24 DUP3 ADD MSTORE PUSH32 0x5265717565737420616C72656164792070656E64696E67000000000000000000 PUSH1 0x44 DUP3 ADD MSTORE PUSH1 0x64 ADD PUSH2 0x419 JUMP JUMPDEST PUSH1 0x1 ADD PUSH2 0x556 JUMP JUMPDEST POP PUSH1 0x1 PUSH1 0x1 PUSH1 0xA0 SHL SUB DUP3 AND PUSH1 0x0 DUP2 DUP2 MSTORE PUSH1 0xA PUSH1 0x20 SWAP1 DUP2 MSTORE PUSH1 0x40 DUP1 DUP4 KECCAK256 DUP1 SLOAD PUSH1 0x1 DUP2 ADD DUP3 SSTORE SWAP1 DUP5 MSTORE SWAP2 DUP4 KECCAK256 SWAP1 SWAP2 ADD DUP1 SLOAD PUSH1 0x1 PUSH1 0x1 PUSH1 0xA0 SHL SUB NOT AND CALLER SWAP1 DUP2 OR SWAP1 SWAP2 SSTORE SWAP1 MLOAD SWAP1 SWAP3 SWAP2 PUSH32 0x40C7749B16FDFB0D550F20273A7767875059D647AF94F5A9610C63AD73DCC79F SWAP2 LOG3 POP POP JUMP JUMPDEST PUSH1 0x1 PUSH1 0x20 MSTORE PUSH1 0x0 SWAP1 DUP2 MSTORE PUSH1 0x40 SWAP1 KECCAK256 DUP1 SLOAD DUP2 SWAP1 PUSH2 0x668 SWAP1 PUSH2 0x396D JUMP JUMPDEST DUP1 PUSH1 0x1F ADD PUSH1 0x20 DUP1 SWAP2 DIV MUL PUSH1 0x20 ADD PUSH1 0x40 MLOAD SWAP1 DUP2 ADD PUSH1 0x40 MSTORE DUP1 SWAP3 SWAP2 SWAP1 DUP2 DUP2 MSTORE PUSH1 0x20 ADD DUP3 DUP1 SLOAD PUSH2 0x694 SWAP1 PUSH2 0x396D JUMP JUMPDEST DUP1 ISZERO PUSH2 0x6E1 JUMPI DUP1 PUSH1 0x1F LT PUSH2 0x6B6 JUMPI PUSH2 0x100 DUP1 DUP4 SLOAD DIV MUL DUP4 MSTORE SWAP2 PUSH1 0x20 ADD SWAP2 PUSH2 0x6E1 JUMP JUMPDEST DUP3 ADD SWAP2 SWAP1 PUSH1 0x0 MSTORE PUSH1 0x20 PUSH1 0x0 KECCAK256 SWAP1 JUMPDEST DUP2 SLOAD DUP2 MSTORE SWAP1 PUSH1 0x1 ADD SWAP1 PUSH1 0x20 ADD DUP1 DUP4 GT PUSH2 0x6C4 JUMPI DUP3 SWAP1 SUB PUSH1 0x1F AND DUP3 ADD SWAP2 JUMPDEST POP POP POP POP POP SWAP1 DUP1 PUSH1 0x1 ADD DUP1 SLOAD PUSH2 0x6F6 SWAP1 PUSH2 0x396D JUMP JUMPDEST DUP1 PUSH1 0x1F ADD PUSH1 0x20 DUP1 SWAP2 DIV MUL PUSH1 0x20 ADD PUSH1 0x40 MLOAD SWAP1 DUP2 ADD PUSH1 0x40 MSTORE DUP1 SWAP3 SWAP2 SWAP1 DUP2 DUP2 MSTORE PUSH1 0x20 ADD DUP3 DUP1 SLOAD PUSH2 0x722 SWAP1 PUSH2 0x396D JUMP JUMPDEST DUP1 ISZERO PUSH2 0x76F JUMPI DUP1 PUSH1 0x1F LT PUSH2 0x744 JUMPI PUSH2 0x100 DUP1 DUP4 SLOAD DIV MUL DUP4 MSTORE SWAP2 PUSH1 0x20 ADD SWAP2 PUSH2 0x76F JUMP JUMPDEST DUP3 ADD SWAP2 SWAP1 PUSH1 0x0 MSTORE PUSH1 0x20 PUSH1 0x0 KECCAK256 SWAP1 JUMPDEST DUP2 SLOAD DUP2 MSTORE SWAP1 PUSH1 0x1 ADD SWAP1 PUSH1 0x20 ADD DUP1 DUP4 GT PUSH2 0x752 JUMPI DUP3 SWAP1 SUB PUSH1 0x1F AND DUP3 ADD SWAP2 JUMPDEST POP POP POP PUSH1 0x2 SWAP1 SWAP4 ADD SLOAD SWAP2 SWAP3 POP POP PUSH1 0xFF AND DUP4 JUMP JUMPDEST PUSH1 0x60 PUSH1 0x2 DUP1 SLOAD DUP1 PUSH1 0x20 MUL PUSH1 0x20 ADD PUSH1 0x40 MLOAD SWAP1 DUP2 ADD PUSH1 0x40 MSTORE DUP1 SWAP3 SWAP2 SWAP1 DUP2 DUP2 MSTORE PUSH1 0x20 ADD DUP3 DUP1 SLOAD DUP1 ISZERO PUSH2 0x7DA JUMPI PUSH1 0x20 MUL DUP3 ADD SWAP2 SWAP1 PUSH1 0x0 MSTORE PUSH1 0x20 PUSH1 0x0 KECCAK256 SWAP1 JUMPDEST DUP2 SLOAD PUSH1 0x1 PUSH1 0x1 PUSH1 0xA0 SHL SUB AND DUP2 MSTORE PUSH1 0x1 SWAP1 SWAP2 ADD SWAP1 PUSH1 0x20 ADD DUP1 DUP4 GT PUSH2 0x7BC JUMPI JUMPDEST POP POP POP POP POP SWAP1 POP SWAP1 JUMP JUMPDEST PUSH1 0x1 PUSH1 0x1 PUSH1 0xA0 SHL SUB DUP9 AND PUSH1 0x0 SWAP1 DUP2 MSTORE PUSH1 0x1 PUSH1 0x20 MSTORE PUSH1 0x40 SWAP1 KECCAK256 PUSH1 0x2 ADD SLOAD PUSH1 0xFF AND PUSH2 0x81F JUMPI PUSH1 0x40 MLOAD PUSH3 0x461BCD PUSH1 0xE5 SHL DUP2 MSTORE PUSH1 0x4 ADD PUSH2 0x419 SWAP1 PUSH2 0x3927 JUMP JUMPDEST PUSH1 0x2 DUP2 PUSH1 0xFF AND GT ISZERO PUSH2 0x86B JUMPI PUSH1 0x40 MLOAD PUSH3 0x461BCD PUSH1 0xE5 SHL DUP2 MSTORE PUSH1 0x20 PUSH1 0x4 DUP3 ADD MSTORE PUSH1 0x15 PUSH1 0x24 DUP3 ADD MSTORE PUSH21 0x125B9D985B1A59081C1C9A5D9858DE481B195D995B PUSH1 0x5A SHL PUSH1 0x44 DUP3 ADD MSTORE PUSH1 0x64 ADD PUSH2 0x419 JUMP JUMPDEST DUP2 MLOAD ISZERO PUSH2 0x93C JUMPI PUSH1 0x0 PUSH1 0x4 DUP4 PUSH1 0x40 MLOAD PUSH2 0x884 SWAP2 SWAP1 PUSH2 0x39A7 JUMP JUMPDEST SWAP1 DUP2 MSTORE PUSH1 0x20 ADD PUSH1 0x40 MLOAD DUP1 SWAP2 SUB SWAP1 KECCAK256 SLOAD SWAP1 POP PUSH1 0x0 PUSH1 0x3 PUSH1 0x0 DUP12 PUSH1 0x1 PUSH1 0x1 PUSH1 0xA0 SHL SUB AND PUSH1 0x1 PUSH1 0x1 PUSH1 0xA0 SHL SUB AND DUP2 MSTORE PUSH1 0x20 ADD SWAP1 DUP2 MSTORE PUSH1 0x20 ADD PUSH1 0x0 KECCAK256 DUP3 DUP2 SLOAD DUP2 LT PUSH2 0x8CD JUMPI PUSH2 0x8CD PUSH2 0x3957 JUMP JUMPDEST SWAP1 PUSH1 0x0 MSTORE PUSH1 0x20 PUSH1 0x0 KECCAK256 SWAP1 PUSH1 0x9 MUL ADD PUSH1 0x6 ADD PUSH1 0x14 PUSH2 0x100 EXP DUP2 SLOAD DUP2 PUSH1 0xFF MUL NOT AND SWAP1 DUP4 ISZERO ISZERO MUL OR SWAP1 SSTORE POP DUP9 PUSH1 0x1 PUSH1 0x1 PUSH1 0xA0 SHL SUB AND PUSH32 0x265A47E189BDAF1E4E75CA93474DBA2AD21591BB54B62E3B8633029A440DCBF6 DUP5 DUP11 TIMESTAMP PUSH1 0x40 MLOAD PUSH2 0x932 SWAP4 SWAP3 SWAP2 SWAP1 PUSH2 0x39C3 JUMP JUMPDEST PUSH1 0x40 MLOAD DUP1 SWAP2 SUB SWAP1 LOG2 POP JUMPDEST PUSH1 0x40 DUP1 MLOAD PUSH2 0x140 DUP2 ADD DUP3 MSTORE DUP9 DUP2 MSTORE PUSH1 0x20 DUP1 DUP3 ADD DUP10 SWAP1 MSTORE DUP2 DUP4 ADD DUP9 SWAP1 MSTORE PUSH1 0x60 DUP3 ADD DUP8 SWAP1 MSTORE PUSH1 0x80 DUP3 ADD DUP7 SWAP1 MSTORE TIMESTAMP PUSH1 0xA0 DUP4 ADD MSTORE CALLER PUSH1 0xC0 DUP4 ADD MSTORE PUSH1 0x1 PUSH1 0xE0 DUP4 ADD DUP2 SWAP1 MSTORE PUSH2 0x100 DUP4 ADD DUP7 SWAP1 MSTORE PUSH1 0xFF DUP6 AND PUSH2 0x120 DUP5 ADD MSTORE PUSH1 0x1 PUSH1 0x1 PUSH1 0xA0 SHL SUB DUP13 AND PUSH1 0x0 SWAP1 DUP2 MSTORE PUSH1 0x3 DUP4 MSTORE SWAP4 DUP5 KECCAK256 DUP1 SLOAD SWAP2 DUP3 ADD DUP2 SSTORE DUP5 MSTORE SWAP3 KECCAK256 DUP2 MLOAD SWAP2 SWAP3 DUP4 SWAP3 PUSH1 0x9 SWAP1 SWAP2 MUL SWAP1 SWAP2 ADD SWAP1 DUP2 SWAP1 PUSH2 0x9C9 SWAP1 DUP3 PUSH2 0x3A49 JUMP JUMPDEST POP PUSH1 0x20 DUP3 ADD MLOAD PUSH1 0x1 DUP3 ADD SWAP1 PUSH2 0x9DE SWAP1 DUP3 PUSH2 0x3A49 JUMP JUMPDEST POP PUSH1 0x40 DUP3 ADD MLOAD PUSH1 0x2 DUP3 ADD SWAP1 PUSH2 0x9F3 SWAP1 DUP3 PUSH2 0x3A49 JUMP JUMPDEST POP PUSH1 0x60 DUP3 ADD MLOAD PUSH1 0x3 DUP3 ADD SWAP1 PUSH2 0xA08 SWAP1 DUP3 PUSH2 0x3A49 JUMP JUMPDEST POP PUSH1 0x80 DUP3 ADD MLOAD PUSH1 0x4 DUP3 ADD SWAP1 PUSH2 0xA1D SWAP1 DUP3 PUSH2 0x3A49 JUMP JUMPDEST POP PUSH1 0xA0 DUP3 ADD MLOAD PUSH1 0x5 DUP3 ADD SSTORE PUSH1 0xC0 DUP3 ADD MLOAD PUSH1 0x6 DUP3 ADD DUP1 SLOAD PUSH1 0xE0 DUP6 ADD MLOAD ISZERO ISZERO PUSH1 0x1 PUSH1 0xA0 SHL MUL PUSH1 0x1 PUSH1 0x1 PUSH1 0xA8 SHL SUB NOT SWAP1 SWAP2 AND PUSH1 0x1 PUSH1 0x1 PUSH1 0xA0 SHL SUB SWAP1 SWAP4 AND SWAP3 SWAP1 SWAP3 OR SWAP2 SWAP1 SWAP2 OR SWAP1 SSTORE PUSH2 0x100 DUP3 ADD MLOAD PUSH1 0x7 DUP3 ADD SWAP1 PUSH2 0xA76 SWAP1 DUP3 PUSH2 0x3A49 JUMP JUMPDEST POP PUSH2 0x120 SWAP2 SWAP1 SWAP2 ADD MLOAD PUSH1 0x8 SWAP1 SWAP2 ADD DUP1 SLOAD PUSH1 0xFF NOT AND PUSH1 0xFF SWAP1 SWAP3 AND SWAP2 SWAP1 SWAP2 OR SWAP1 SSTORE PUSH1 0x1 PUSH1 0x1 PUSH1 0xA0 SHL SUB DUP10 AND PUSH1 0x0 SWAP1 DUP2 MSTORE PUSH1 0x3 PUSH1 0x20 MSTORE PUSH1 0x40 SWAP1 KECCAK256 SLOAD PUSH2 0xABA SWAP1 PUSH1 0x1 SWAP1 PUSH2 0x3B1F JUMP JUMPDEST PUSH1 0x4 DUP10 PUSH1 0x40 MLOAD PUSH2 0xACA SWAP2 SWAP1 PUSH2 0x39A7 JUMP JUMPDEST SWAP1 DUP2 MSTORE PUSH1 0x20 ADD PUSH1 0x40 MLOAD DUP1 SWAP2 SUB SWAP1 KECCAK256 DUP2 SWAP1 SSTORE POP CALLER PUSH1 0x1 PUSH1 0x1 PUSH1 0xA0 SHL SUB AND DUP10 PUSH1 0x1 PUSH1 0x1 PUSH1 0xA0 SHL SUB AND PUSH32 0x77F7FBC747AD443F3EA5F507ABBC21D187ECB84679A348CBD91C6FBCFD405C28 DUP11 TIMESTAMP DUP7 PUSH1 0x40 MLOAD PUSH2 0xB23 SWAP4 SWAP3 SWAP2 SWAP1 PUSH2 0x3B38 JUMP JUMPDEST PUSH1 0x40 MLOAD DUP1 SWAP2 SUB SWAP1 LOG3 PUSH1 0x9 SLOAD PUSH1 0x1 PUSH1 0x1 PUSH1 0xA0 SHL SUB AND ISZERO PUSH2 0xB9D JUMPI PUSH1 0x9 SLOAD PUSH1 0x40 MLOAD PUSH4 0xBFF45139 PUSH1 0xE0 SHL DUP2 MSTORE PUSH1 0x1 PUSH1 0x1 PUSH1 0xA0 SHL SUB SWAP1 SWAP2 AND SWAP1 PUSH4 0xBFF45139 SWAP1 PUSH2 0xB70 SWAP1 CALLER SWAP1 DUP14 SWAP1 DUP14 SWAP1 PUSH1 0x4 ADD PUSH2 0x3B64 JUMP JUMPDEST PUSH1 0x0 PUSH1 0x40 MLOAD DUP1 DUP4 SUB DUP2 PUSH1 0x0 DUP8 DUP1 EXTCODESIZE ISZERO DUP1 ISZERO PUSH2 0xB8A JUMPI PUSH1 0x0 DUP1 REVERT JUMPDEST POP GAS CALL SWAP3 POP POP POP DUP1 ISZERO PUSH2 0xB9B JUMPI POP PUSH1 0x1 JUMPDEST POP JUMPDEST POP POP POP POP POP POP POP POP POP JUMP JUMPDEST PUSH1 0x0 SLOAD PUSH1 0x1 PUSH1 0x1 PUSH1 0xA0 SHL SUB AND CALLER EQ PUSH2 0xBD2 JUMPI PUSH1 0x40 MLOAD PUSH3 0x461BCD PUSH1 0xE5 SHL DUP2 MSTORE PUSH1 0x4 ADD PUSH2 0x419 SWAP1 PUSH2 0x3BB4 JUMP JUMPDEST PUSH1 0x1 PUSH1 0x1 PUSH1 0xA0 SHL SUB DUP4 AND PUSH1 0x0 SWAP1 DUP2 MSTORE PUSH1 0x1 PUSH1 0x20 MSTORE PUSH1 0x40 SWAP1 KECCAK256 PUSH1 0x2 ADD SLOAD PUSH1 0xFF AND ISZERO PUSH2 0xC3E JUMPI PUSH1 0x40 MLOAD PUSH3 0x461BCD PUSH1 0xE5 SHL DUP2 MSTORE PUSH1 0x20 PUSH1 0x4 DUP3 ADD MSTORE PUSH1 0x1A PUSH1 0x24 DUP3 ADD MSTORE PUSH32 0x50617469656E7420616C72656164792072656769737465726564000000000000 PUSH1 0x44 DUP3 ADD MSTORE PUSH1 0x64 ADD PUSH2 0x419 JUMP JUMPDEST PUSH1 0x40 DUP1 MLOAD PUSH1 0x60 DUP2 ADD DUP3 MSTORE DUP4 DUP2 MSTORE PUSH1 0x20 DUP1 DUP3 ADD DUP5 SWAP1 MSTORE PUSH1 0x1 DUP3 DUP5 ADD DUP2 SWAP1 MSTORE PUSH1 0x1 PUSH1 0x1 PUSH1 0xA0 SHL SUB DUP8 AND PUSH1 0x0 SWAP1 DUP2 MSTORE SWAP2 MSTORE SWAP2 SWAP1 SWAP2 KECCAK256 DUP2 MLOAD DUP2 SWAP1 PUSH2 0xC7E SWAP1 DUP3 PUSH2 0x3A49 JUMP JUMPDEST POP PUSH1 0x20 DUP3 ADD MLOAD PUSH1 0x1 DUP3 ADD SWAP1 PUSH2 0xC93 SWAP1 DUP3 PUSH2 0x3A49 JUMP JUMPDEST POP PUSH1 0x40 SWAP2 DUP3 ADD MLOAD PUSH1 0x2 SWAP2 DUP3 ADD DUP1 SLOAD PUSH1 0xFF NOT AND SWAP2 ISZERO ISZERO SWAP2 SWAP1 SWAP2 OR SWAP1 SSTORE DUP1 SLOAD PUSH1 0x1 DUP2 ADD DUP3 SSTORE PUSH1 0x0 SWAP2 SWAP1 SWAP2 MSTORE PUSH32 0x405787FA12A823E0F2B7631CC41B3BA8828B3321CA811111FA75CD3AA3BB5ACE ADD DUP1 SLOAD PUSH1 0x1 PUSH1 0x1 PUSH1 0xA0 SHL SUB NOT AND PUSH1 0x1 PUSH1 0x1 PUSH1 0xA0 SHL SUB DUP7 AND SWAP1 DUP2 OR SWAP1 SWAP2 SSTORE SWAP1 MLOAD PUSH32 0x5AAD8BC7AD9861B16C6D01A65F54118DFE585A51E408AC2E7B9499148D515C41 SWAP1 PUSH2 0xD2B SWAP1 DUP6 SWAP1 DUP6 SWAP1 PUSH2 0x38E0 JUMP JUMPDEST PUSH1 0x40 MLOAD DUP1 SWAP2 SUB SWAP1 LOG2 PUSH1 0x9 SLOAD PUSH1 0x1 PUSH1 0x1 PUSH1 0xA0 SHL SUB AND ISZERO PUSH2 0xDA5 JUMPI PUSH1 0x9 SLOAD PUSH1 0x40 MLOAD PUSH4 0xBFF45139 PUSH1 0xE0 SHL DUP2 MSTORE PUSH1 0x1 PUSH1 0x1 PUSH1 0xA0 SHL SUB SWAP1 SWAP2 AND SWAP1 PUSH4 0xBFF45139 SWAP1 PUSH2 0xD78 SWAP1 CALLER SWAP1 DUP8 SWAP1 DUP8 SWAP1 PUSH1 0x4 ADD PUSH2 0x3BF5 JUMP JUMPDEST PUSH1 0x0 PUSH1 0x40 MLOAD DUP1 DUP4 SUB DUP2 PUSH1 0x0 DUP8 DUP1 EXTCODESIZE ISZERO DUP1 ISZERO PUSH2 0xD92 JUMPI PUSH1 0x0 DUP1 REVERT JUMPDEST POP GAS CALL SWAP3 POP POP POP DUP1 ISZERO PUSH2 0xDA3 JUMPI POP PUSH1 0x1 JUMPDEST POP JUMPDEST POP POP POP JUMP JUMPDEST PUSH1 0x0 SLOAD PUSH1 0x1 PUSH1 0x1 PUSH1 0xA0 SHL SUB AND CALLER EQ PUSH2 0xDD4 JUMPI PUSH1 0x40 MLOAD PUSH3 0x461BCD PUSH1 0xE5 SHL DUP2 MSTORE PUSH1 0x4 ADD PUSH2 0x419 SWAP1 PUSH2 0x3BB4 JUMP JUMPDEST PUSH1 0x7 DUP1 SLOAD PUSH1 0x1 PUSH1 0x1 PUSH1 0xA0 SHL SUB NOT AND PUSH1 0x1 PUSH1 0x1 PUSH1 0xA0 SHL SUB SWAP3 SWAP1 SWAP3 AND SWAP2 SWAP1 SWAP2 OR SWAP1 SSTORE JUMP JUMPDEST PUSH1 0x0 SLOAD PUSH1 0x1 PUSH1 0x1 PUSH1 0xA0 SHL SUB AND CALLER EQ PUSH2 0xE20 JUMPI PUSH1 0x40 MLOAD PUSH3 0x461BCD PUSH1 0xE5 SHL DUP2 MSTORE PUSH1 0x4 ADD PUSH2 0x419 SWAP1 PUSH2 0x3BB4 JUMP JUMPDEST PUSH1 0x6 DUP1 SLOAD PUSH1 0x1 PUSH1 0x1 PUSH1 0xA0 SHL SUB NOT AND PUSH1 0x1 PUSH1 0x1 PUSH1 0xA0 SHL SUB SWAP3 SWAP1 SWAP3 AND SWAP2 SWAP1 SWAP2 OR SWAP1 SSTORE JUMP JUMPDEST CALLER PUSH1 0x0 SWAP1 DUP2 MSTORE PUSH1 0x1 PUSH1 0x20 MSTORE PUSH1 0x40 SWAP1 KECCAK256 PUSH1 0x2 ADD SLOAD PUSH1 0xFF AND PUSH2 0xE95 JUMPI PUSH1 0x40 MLOAD PUSH3 0x461BCD PUSH1 0xE5 SHL DUP2 MSTORE PUSH1 0x20 PUSH1 0x4 DUP3 ADD MSTORE PUSH1 0xE PUSH1 0x24 DUP3 ADD MSTORE PUSH14 0x14D95B99195C881A5B9D985B1A59 PUSH1 0x92 SHL PUSH1 0x44 DUP3 ADD MSTORE PUSH1 0x64 ADD PUSH2 0x419 JUMP JUMPDEST CALLER PUSH1 0x0 DUP2 DUP2 MSTORE PUSH1 0x5 PUSH1 0x20 SWAP1 DUP2 MSTORE PUSH1 0x40 DUP1 DUP4 KECCAK256 PUSH1 0x1 PUSH1 0x1 PUSH1 0xA0 SHL SUB DUP7 AND DUP1 DUP6 MSTORE SWAP3 MSTORE DUP1 DUP4 KECCAK256 DUP4 SWAP1 SSTORE MLOAD SWAP1 SWAP3 SWAP2 PUSH32 0x825C8BE24EB0DF19500F63E86C29E7D0D951E73056B889B891D85E40938D9B6E SWAP2 LOG3 PUSH1 0x6 SLOAD PUSH1 0x1 PUSH1 0x1 PUSH1 0xA0 SHL SUB AND ISZERO PUSH2 0xF54 JUMPI PUSH1 0x6 SLOAD PUSH1 0x40 MLOAD PUSH4 0xBBC3861 PUSH1 0xE1 SHL DUP2 MSTORE PUSH1 0x1 PUSH1 0x1 PUSH1 0xA0 SHL SUB DUP4 DUP2 AND PUSH1 0x4 DUP4 ADD MSTORE CALLER PUSH1 0x24 DUP4 ADD MSTORE SWAP1 SWAP2 AND SWAP1 PUSH4 0x177870C2 SWAP1 PUSH1 0x44 ADD PUSH1 0x0 PUSH1 0x40 MLOAD DUP1 DUP4 SUB DUP2 PUSH1 0x0 DUP8 DUP1 EXTCODESIZE ISZERO DUP1 ISZERO PUSH2 0xF41 JUMPI PUSH1 0x0 DUP1 REVERT JUMPDEST POP GAS CALL SWAP3 POP POP POP DUP1 ISZERO PUSH2 0xF52 JUMPI POP PUSH1 0x1 JUMPDEST POP JUMPDEST PUSH1 0x7 SLOAD PUSH1 0x1 PUSH1 0x1 PUSH1 0xA0 SHL SUB AND ISZERO PUSH2 0xFC5 JUMPI PUSH1 0x7 SLOAD PUSH1 0x40 MLOAD PUSH4 0xBBC3861 PUSH1 0xE1 SHL DUP2 MSTORE PUSH1 0x1 PUSH1 0x1 PUSH1 0xA0 SHL SUB DUP4 DUP2 AND PUSH1 0x4 DUP4 ADD MSTORE CALLER PUSH1 0x24 DUP4 ADD MSTORE SWAP1 SWAP2 AND SWAP1 PUSH4 0x177870C2 SWAP1 PUSH1 0x44 ADD PUSH1 0x0 PUSH1 0x40 MLOAD DUP1 DUP4 SUB DUP2 PUSH1 0x0 DUP8 DUP1 EXTCODESIZE ISZERO DUP1 ISZERO PUSH2 0xFB2 JUMPI PUSH1 0x0 DUP1 REVERT JUMPDEST POP GAS CALL SWAP3 POP POP POP DUP1 ISZERO PUSH2 0xFC3 JUMPI POP PUSH1 0x1 JUMPDEST POP JUMPDEST PUSH1 0x8 SLOAD PUSH1 0x1 PUSH1 0x1 PUSH1 0xA0 SHL SUB AND ISZERO PUSH2 0x1036 JUMPI PUSH1 0x8 SLOAD PUSH1 0x40 MLOAD PUSH4 0xBBC3861 PUSH1 0xE1 SHL DUP2 MSTORE PUSH1 0x1 PUSH1 0x1 PUSH1 0xA0 SHL SUB DUP4 DUP2 AND PUSH1 0x4 DUP4 ADD MSTORE CALLER PUSH1 0x24 DUP4 ADD MSTORE SWAP1 SWAP2 AND SWAP1 PUSH4 0x177870C2 SWAP1 PUSH1 0x44 ADD PUSH1 0x0 PUSH1 0x40 MLOAD DUP1 DUP4 SUB DUP2 PUSH1 0x0 DUP8 DUP1 EXTCODESIZE ISZERO DUP1 ISZERO PUSH2 0x1023 JUMPI PUSH1 0x0 DUP1 REVERT JUMPDEST POP GAS CALL SWAP3 POP POP POP DUP1 ISZERO PUSH2 0x1034 JUMPI POP PUSH1 0x1 JUMPDEST POP JUMPDEST PUSH1 0x9 SLOAD PUSH1 0x1 PUSH1 0x1 PUSH1 0xA0 SHL SUB AND ISZERO PUSH2 0x10F1 JUMPI PUSH1 0x9 SLOAD PUSH1 0x40 MLOAD PUSH4 0xBFF45139 PUSH1 0xE0 SHL DUP2 MSTORE CALLER PUSH1 0x4 DUP3 ADD MSTORE PUSH1 0x80 PUSH1 0x24 DUP3 ADD MSTORE PUSH1 0xE PUSH1 0x84 DUP3 ADD MSTORE PUSH14 0x1050D0D154D4D7D4915593D2D151 PUSH1 0x92 SHL PUSH1 0xA4 DUP3 ADD MSTORE PUSH1 0x1 PUSH1 0x1 PUSH1 0xA0 SHL SUB DUP4 DUP2 AND PUSH1 0x44 DUP4 ADD MSTORE PUSH1 0xC0 PUSH1 0x64 DUP4 ADD MSTORE PUSH1 0xD PUSH1 0xC4 DUP4 ADD MSTORE PUSH13 0x4D616E75616C205265766F6B65 PUSH1 0x98 SHL PUSH1 0xE4 DUP4 ADD MSTORE SWAP1 SWAP2 AND SWAP1 PUSH4 0xBFF45139 SWAP1 PUSH2 0x104 ADD PUSH1 0x0 PUSH1 0x40 MLOAD DUP1 DUP4 SUB DUP2 PUSH1 0x0 DUP8 DUP1 EXTCODESIZE ISZERO DUP1 ISZERO PUSH2 0x10DE JUMPI PUSH1 0x0 DUP1 REVERT JUMPDEST POP GAS CALL SWAP3 POP POP POP DUP1 ISZERO PUSH2 0x10EF JUMPI POP PUSH1 0x1 JUMPDEST POP JUMPDEST POP JUMP JUMPDEST PUSH1 0x0 SLOAD PUSH1 0x1 PUSH1 0x1 PUSH1 0xA0 SHL SUB AND CALLER EQ PUSH2 0x111E JUMPI PUSH1 0x40 MLOAD PUSH3 0x461BCD PUSH1 0xE5 SHL DUP2 MSTORE PUSH1 0x4 ADD PUSH2 0x419 SWAP1 PUSH2 0x3BB4 JUMP JUMPDEST PUSH1 0x9 DUP1 SLOAD PUSH1 0x1 PUSH1 0x1 PUSH1 0xA0 SHL SUB NOT AND PUSH1 0x1 PUSH1 0x1 PUSH1 0xA0 SHL SUB SWAP3 SWAP1 SWAP3 AND SWAP2 SWAP1 SWAP2 OR SWAP1 SSTORE JUMP JUMPDEST PUSH1 0x3 PUSH1 0x20 MSTORE DUP2 PUSH1 0x0 MSTORE PUSH1 0x40 PUSH1 0x0 KECCAK256 DUP2 DUP2 SLOAD DUP2 LT PUSH2 0x115C JUMPI PUSH1 0x0 DUP1 REVERT JUMPDEST SWAP1 PUSH1 0x0 MSTORE PUSH1 0x20 PUSH1 0x0 KECCAK256 SWAP1 PUSH1 0x9 MUL ADD PUSH1 0x0 SWAP2 POP SWAP2 POP POP DUP1 PUSH1 0x0 ADD DUP1 SLOAD PUSH2 0x1180 SWAP1 PUSH2 0x396D JUMP JUMPDEST DUP1 PUSH1 0x1F ADD PUSH1 0x20 DUP1 SWAP2 DIV MUL PUSH1 0x20 ADD PUSH1 0x40 MLOAD SWAP1 DUP2 ADD PUSH1 0x40 MSTORE DUP1 SWAP3 SWAP2 SWAP1 DUP2 DUP2 MSTORE PUSH1 0x20 ADD DUP3 DUP1 SLOAD PUSH2 0x11AC SWAP1 PUSH2 0x396D JUMP JUMPDEST DUP1 ISZERO PUSH2 0x11F9 JUMPI DUP1 PUSH1 0x1F LT PUSH2 0x11CE JUMPI PUSH2 0x100 DUP1 DUP4 SLOAD DIV MUL DUP4 MSTORE SWAP2 PUSH1 0x20 ADD SWAP2 PUSH2 0x11F9 JUMP JUMPDEST DUP3 ADD SWAP2 SWAP1 PUSH1 0x0 MSTORE PUSH1 0x20 PUSH1 0x0 KECCAK256 SWAP1 JUMPDEST DUP2 SLOAD DUP2 MSTORE SWAP1 PUSH1 0x1 ADD SWAP1 PUSH1 0x20 ADD DUP1 DUP4 GT PUSH2 0x11DC JUMPI DUP3 SWAP1 SUB PUSH1 0x1F AND DUP3 ADD SWAP2 JUMPDEST POP POP POP POP POP SWAP1 DUP1 PUSH1 0x1 ADD DUP1 SLOAD PUSH2 0x120E SWAP1 PUSH2 0x396D JUMP JUMPDEST DUP1 PUSH1 0x1F ADD PUSH1 0x20 DUP1 SWAP2 DIV MUL PUSH1 0x20 ADD PUSH1 0x40 MLOAD SWAP1 DUP2 ADD PUSH1 0x40 MSTORE DUP1 SWAP3 SWAP2 SWAP1 DUP2 DUP2 MSTORE PUSH1 0x20 ADD DUP3 DUP1 SLOAD PUSH2 0x123A SWAP1 PUSH2 0x396D JUMP JUMPDEST DUP1 ISZERO PUSH2 0x1287 JUMPI DUP1 PUSH1 0x1F LT PUSH2 0x125C JUMPI PUSH2 0x100 DUP1 DUP4 SLOAD DIV MUL DUP4 MSTORE SWAP2 PUSH1 0x20 ADD SWAP2 PUSH2 0x1287 JUMP JUMPDEST DUP3 ADD SWAP2 SWAP1 PUSH1 0x0 MSTORE PUSH1 0x20 PUSH1 0x0 KECCAK256 SWAP1 JUMPDEST DUP2 SLOAD DUP2 MSTORE SWAP1 PUSH1 0x1 ADD SWAP1 PUSH1 0x20 ADD DUP1 DUP4 GT PUSH2 0x126A JUMPI DUP3 SWAP1 SUB PUSH1 0x1F AND DUP3 ADD SWAP2 JUMPDEST POP POP POP POP POP SWAP1 DUP1 PUSH1 0x2 ADD DUP1 SLOAD PUSH2 0x129C SWAP1 PUSH2 0x396D JUMP JUMPDEST DUP1 PUSH1 0x1F ADD PUSH1 0x20 DUP1 SWAP2 DIV MUL PUSH1 0x20 ADD PUSH1 0x40 MLOAD SWAP1 DUP2 ADD PUSH1 0x40 MSTORE DUP1 SWAP3 SWAP2 SWAP1 DUP2 DUP2 MSTORE PUSH1 0x20 ADD DUP3 DUP1 SLOAD PUSH2 0x12C8 SWAP1 PUSH2 0x396D JUMP JUMPDEST DUP1 ISZERO PUSH2 0x1315 JUMPI DUP1 PUSH1 0x1F LT PUSH2 0x12EA JUMPI PUSH2 0x100 DUP1 DUP4 SLOAD DIV MUL DUP4 MSTORE SWAP2 PUSH1 0x20 ADD SWAP2 PUSH2 0x1315 JUMP JUMPDEST DUP3 ADD SWAP2 SWAP1 PUSH1 0x0 MSTORE PUSH1 0x20 PUSH1 0x0 KECCAK256 SWAP1 JUMPDEST DUP2 SLOAD DUP2 MSTORE SWAP1 PUSH1 0x1 ADD SWAP1 PUSH1 0x20 ADD DUP1 DUP4 GT PUSH2 0x12F8 JUMPI DUP3 SWAP1 SUB PUSH1 0x1F AND DUP3 ADD SWAP2 JUMPDEST POP POP POP POP POP SWAP1 DUP1 PUSH1 0x3 ADD DUP1 SLOAD PUSH2 0x132A SWAP1 PUSH2 0x396D JUMP JUMPDEST DUP1 PUSH1 0x1F ADD PUSH1 0x20 DUP1 SWAP2 DIV MUL PUSH1 0x20 ADD PUSH1 0x40 MLOAD SWAP1 DUP2 ADD PUSH1 0x40 MSTORE DUP1 SWAP3 SWAP2 SWAP1 DUP2 DUP2 MSTORE PUSH1 0x20 ADD DUP3 DUP1 SLOAD PUSH2 0x1356 SWAP1 PUSH2 0x396D JUMP JUMPDEST DUP1 ISZERO PUSH2 0x13A3 JUMPI DUP1 PUSH1 0x1F LT PUSH2 0x1378 JUMPI PUSH2 0x100 DUP1 DUP4 SLOAD DIV MUL DUP4 MSTORE SWAP2 PUSH1 0x20 ADD SWAP2 PUSH2 0x13A3 JUMP JUMPDEST DUP3 ADD SWAP2 SWAP1 PUSH1 0x0 MSTORE PUSH1 0x20 PUSH1 0x0 KECCAK256 SWAP1 JUMPDEST DUP2 SLOAD DUP2 MSTORE SWAP1 PUSH1 0x1 ADD SWAP1 PUSH1 0x20 ADD DUP1 DUP4 GT PUSH2 0x1386 JUMPI DUP3 SWAP1 SUB PUSH1 0x1F AND DUP3 ADD SWAP2 JUMPDEST POP POP POP POP POP SWAP1 DUP1 PUSH1 0x4 ADD DUP1 SLOAD PUSH2 0x13B8 SWAP1 PUSH2 0x396D JUMP JUMPDEST DUP1 PUSH1 0x1F ADD PUSH1 0x20 DUP1 SWAP2 DIV MUL PUSH1 0x20 ADD PUSH1 0x40 MLOAD SWAP1 DUP2 ADD PUSH1 0x40 MSTORE DUP1 SWAP3 SWAP2 SWAP1 DUP2 DUP2 MSTORE PUSH1 0x20 ADD DUP3 DUP1 SLOAD PUSH2 0x13E4 SWAP1 PUSH2 0x396D JUMP JUMPDEST DUP1 ISZERO PUSH2 0x1431 JUMPI DUP1 PUSH1 0x1F LT PUSH2 0x1406 JUMPI PUSH2 0x100 DUP1 DUP4 SLOAD DIV MUL DUP4 MSTORE SWAP2 PUSH1 0x20 ADD SWAP2 PUSH2 0x1431 JUMP JUMPDEST DUP3 ADD SWAP2 SWAP1 PUSH1 0x0 MSTORE PUSH1 0x20 PUSH1 0x0 KECCAK256 SWAP1 JUMPDEST DUP2 SLOAD DUP2 MSTORE SWAP1 PUSH1 0x1 ADD SWAP1 PUSH1 0x20 ADD DUP1 DUP4 GT PUSH2 0x1414 JUMPI DUP3 SWAP1 SUB PUSH1 0x1F AND DUP3 ADD SWAP2 JUMPDEST POP POP POP POP PUSH1 0x5 DUP4 ADD SLOAD PUSH1 0x6 DUP5 ADD SLOAD PUSH1 0x7 DUP6 ADD DUP1 SLOAD SWAP5 SWAP6 SWAP3 SWAP5 PUSH1 0x1 PUSH1 0x1 PUSH1 0xA0 SHL SUB DUP4 AND SWAP5 POP PUSH1 0x1 PUSH1 0xA0 SHL SWAP1 SWAP3 DIV PUSH1 0xFF AND SWAP3 SWAP2 PUSH2 0x146B SWAP1 PUSH2 0x396D JUMP JUMPDEST DUP1 PUSH1 0x1F ADD PUSH1 0x20 DUP1 SWAP2 DIV MUL PUSH1 0x20 ADD PUSH1 0x40 MLOAD SWAP1 DUP2 ADD PUSH1 0x40 MSTORE DUP1 SWAP3 SWAP2 SWAP1 DUP2 DUP2 MSTORE PUSH1 0x20 ADD DUP3 DUP1 SLOAD PUSH2 0x1497 SWAP1 PUSH2 0x396D JUMP JUMPDEST DUP1 ISZERO PUSH2 0x14E4 JUMPI DUP1 PUSH1 0x1F LT PUSH2 0x14B9 JUMPI PUSH2 0x100 DUP1 DUP4 SLOAD DIV MUL DUP4 MSTORE SWAP2 PUSH1 0x20 ADD SWAP2 PUSH2 0x14E4 JUMP JUMPDEST DUP3 ADD SWAP2 SWAP1 PUSH1 0x0 MSTORE PUSH1 0x20 PUSH1 0x0 KECCAK256 SWAP1 JUMPDEST DUP2 SLOAD DUP2 MSTORE SWAP1 PUSH1 0x1 ADD SWAP1 PUSH1 0x20 ADD DUP1 DUP4 GT PUSH2 0x14C7 JUMPI DUP3 SWAP1 SUB PUSH1 0x1F AND DUP3 ADD SWAP2 JUMPDEST POP POP POP PUSH1 0x8 SWAP1 SWAP4 ADD SLOAD SWAP2 SWAP3 POP POP PUSH1 0xFF AND DUP11 JUMP JUMPDEST CALLER PUSH1 0x0 SWAP1 DUP2 MSTORE PUSH1 0x1 PUSH1 0x20 MSTORE PUSH1 0x40 SWAP1 KECCAK256 PUSH1 0x2 ADD SLOAD PUSH1 0xFF AND PUSH2 0x154A JUMPI PUSH1 0x40 MLOAD PUSH3 0x461BCD PUSH1 0xE5 SHL DUP2 MSTORE PUSH1 0x20 PUSH1 0x4 DUP3 ADD MSTORE PUSH1 0xE PUSH1 0x24 DUP3 ADD MSTORE PUSH14 0x14D95B99195C881A5B9D985B1A59 PUSH1 0x92 SHL PUSH1 0x44 DUP3 ADD MSTORE PUSH1 0x64 ADD PUSH2 0x419 JUMP JUMPDEST PUSH1 0x1 PUSH1 0x1 PUSH1 0xA0 SHL SUB DUP3 AND PUSH2 0x1599 JUMPI PUSH1 0x40 MLOAD PUSH3 0x461BCD PUSH1 0xE5 SHL DUP2 MSTORE PUSH1 0x20 PUSH1 0x4 DUP3 ADD MSTORE PUSH1 0x16 PUSH1 0x24 DUP3 ADD MSTORE PUSH22 0x496E76616C6964207669657765722061646472657373 PUSH1 0x50 SHL PUSH1 0x44 DUP3 ADD MSTORE PUSH1 0x64 ADD PUSH2 0x419 JUMP JUMPDEST PUSH2 0x15A3 DUP2 TIMESTAMP PUSH2 0x3C4B JUMP JUMPDEST CALLER PUSH1 0x0 DUP2 DUP2 MSTORE PUSH1 0x5 PUSH1 0x20 SWAP1 DUP2 MSTORE PUSH1 0x40 DUP1 DUP4 KECCAK256 PUSH1 0x1 PUSH1 0x1 PUSH1 0xA0 SHL SUB DUP9 AND DUP1 DUP6 MSTORE SWAP3 MSTORE SWAP1 SWAP2 KECCAK256 SWAP3 SWAP1 SWAP3 SSTORE PUSH32 0x65D0CC1E52D49938CA4AD9F423C79C1B84D914B9A683FBC5D3F93AC3CC5635F5 PUSH2 0x15F6 DUP5 TIMESTAMP PUSH2 0x3C4B JUMP JUMPDEST PUSH1 0x40 MLOAD SWAP1 DUP2 MSTORE PUSH1 0x20 ADD PUSH1 0x40 MLOAD DUP1 SWAP2 SUB SWAP1 LOG3 PUSH1 0x6 SLOAD PUSH1 0x1 PUSH1 0x1 PUSH1 0xA0 SHL SUB AND ISZERO PUSH2 0x1678 JUMPI PUSH1 0x6 SLOAD PUSH1 0x40 MLOAD PUSH4 0x1FE8431 PUSH1 0xE3 SHL DUP2 MSTORE PUSH1 0x1 PUSH1 0x1 PUSH1 0xA0 SHL SUB DUP5 DUP2 AND PUSH1 0x4 DUP4 ADD MSTORE CALLER PUSH1 0x24 DUP4 ADD MSTORE SWAP1 SWAP2 AND SWAP1 PUSH4 0xFF42188 SWAP1 PUSH1 0x44 ADD PUSH1 0x0 PUSH1 0x40 MLOAD DUP1 DUP4 SUB DUP2 PUSH1 0x0 DUP8 DUP1 EXTCODESIZE ISZERO DUP1 ISZERO PUSH2 0x1665 JUMPI PUSH1 0x0 DUP1 REVERT JUMPDEST POP GAS CALL SWAP3 POP POP POP DUP1 ISZERO PUSH2 0x1676 JUMPI POP PUSH1 0x1 JUMPDEST POP JUMPDEST PUSH1 0x7 SLOAD PUSH1 0x1 PUSH1 0x1 PUSH1 0xA0 SHL SUB AND ISZERO PUSH2 0x16E9 JUMPI PUSH1 0x7 SLOAD PUSH1 0x40 MLOAD PUSH4 0x1FE8431 PUSH1 0xE3 SHL DUP2 MSTORE PUSH1 0x1 PUSH1 0x1 PUSH1 0xA0 SHL SUB DUP5 DUP2 AND PUSH1 0x4 DUP4 ADD MSTORE CALLER PUSH1 0x24 DUP4 ADD MSTORE SWAP1 SWAP2 AND SWAP1 PUSH4 0xFF42188 SWAP1 PUSH1 0x44 ADD PUSH1 0x0 PUSH1 0x40 MLOAD DUP1 DUP4 SUB DUP2 PUSH1 0x0 DUP8 DUP1 EXTCODESIZE ISZERO DUP1 ISZERO PUSH2 0x16D6 JUMPI PUSH1 0x0 DUP1 REVERT JUMPDEST POP GAS CALL SWAP3 POP POP POP DUP1 ISZERO PUSH2 0x16E7 JUMPI POP PUSH1 0x1 JUMPDEST POP JUMPDEST PUSH1 0x8 SLOAD PUSH1 0x1 PUSH1 0x1 PUSH1 0xA0 SHL SUB AND ISZERO PUSH2 0x175A JUMPI PUSH1 0x8 SLOAD PUSH1 0x40 MLOAD PUSH4 0x1FE8431 PUSH1 0xE3 SHL DUP2 MSTORE PUSH1 0x1 PUSH1 0x1 PUSH1 0xA0 SHL SUB DUP5 DUP2 AND PUSH1 0x4 DUP4 ADD MSTORE CALLER PUSH1 0x24 DUP4 ADD MSTORE SWAP1 SWAP2 AND SWAP1 PUSH4 0xFF42188 SWAP1 PUSH1 0x44 ADD PUSH1 0x0 PUSH1 0x40 MLOAD DUP1 DUP4 SUB DUP2 PUSH1 0x0 DUP8 DUP1 EXTCODESIZE ISZERO DUP1 ISZERO PUSH2 0x1747 JUMPI PUSH1 0x0 DUP1 REVERT JUMPDEST POP GAS CALL SWAP3 POP POP POP DUP1 ISZERO PUSH2 0x1758 JUMPI POP PUSH1 0x1 JUMPDEST POP JUMPDEST CALLER PUSH1 0x0 SWAP1 DUP2 MSTORE PUSH1 0xA PUSH1 0x20 MSTORE PUSH1 0x40 DUP2 KECCAK256 SWAP1 JUMPDEST DUP2 SLOAD DUP2 LT ISZERO PUSH2 0x1867 JUMPI DUP4 PUSH1 0x1 PUSH1 0x1 PUSH1 0xA0 SHL SUB AND DUP3 DUP3 DUP2 SLOAD DUP2 LT PUSH2 0x1790 JUMPI PUSH2 0x1790 PUSH2 0x3957 JUMP JUMPDEST PUSH1 0x0 SWAP2 DUP3 MSTORE PUSH1 0x20 SWAP1 SWAP2 KECCAK256 ADD SLOAD PUSH1 0x1 PUSH1 0x1 PUSH1 0xA0 SHL SUB AND SUB PUSH2 0x185F JUMPI DUP2 SLOAD DUP3 SWAP1 PUSH2 0x17BA SWAP1 PUSH1 0x1 SWAP1 PUSH2 0x3B1F JUMP JUMPDEST DUP2 SLOAD DUP2 LT PUSH2 0x17CA JUMPI PUSH2 0x17CA PUSH2 0x3957 JUMP JUMPDEST SWAP1 PUSH1 0x0 MSTORE PUSH1 0x20 PUSH1 0x0 KECCAK256 ADD PUSH1 0x0 SWAP1 SLOAD SWAP1 PUSH2 0x100 EXP SWAP1 DIV PUSH1 0x1 PUSH1 0x1 PUSH1 0xA0 SHL SUB AND DUP3 DUP3 DUP2 SLOAD DUP2 LT PUSH2 0x17FA JUMPI PUSH2 0x17FA PUSH2 0x3957 JUMP JUMPDEST SWAP1 PUSH1 0x0 MSTORE PUSH1 0x20 PUSH1 0x0 KECCAK256 ADD PUSH1 0x0 PUSH2 0x100 EXP DUP2 SLOAD DUP2 PUSH1 0x1 PUSH1 0x1 PUSH1 0xA0 SHL SUB MUL NOT AND SWAP1 DUP4 PUSH1 0x1 PUSH1 0x1 PUSH1 0xA0 SHL SUB AND MUL OR SWAP1 SSTORE POP DUP2 DUP1 SLOAD DUP1 PUSH2 0x1838 JUMPI PUSH2 0x1838 PUSH2 0x3C5E JUMP JUMPDEST PUSH1 0x0 DUP3 DUP2 MSTORE PUSH1 0x20 SWAP1 KECCAK256 DUP2 ADD PUSH1 0x0 NOT SWAP1 DUP2 ADD DUP1 SLOAD PUSH1 0x1 PUSH1 0x1 PUSH1 0xA0 SHL SUB NOT AND SWAP1 SSTORE ADD SWAP1 SSTORE PUSH2 0x1867 JUMP JUMPDEST PUSH1 0x1 ADD PUSH2 0x176B JUMP JUMPDEST POP PUSH1 0x9 SLOAD PUSH1 0x1 PUSH1 0x1 PUSH1 0xA0 SHL SUB AND ISZERO PUSH2 0xDA5 JUMPI PUSH1 0x9 SLOAD PUSH1 0x40 MLOAD PUSH4 0xBFF45139 PUSH1 0xE0 SHL DUP2 MSTORE CALLER PUSH1 0x4 DUP3 ADD MSTORE PUSH1 0x80 PUSH1 0x24 DUP3 ADD MSTORE PUSH1 0xE PUSH1 0x84 DUP3 ADD MSTORE PUSH14 0x1050D0D154D4D7D1D49053951151 PUSH1 0x92 SHL PUSH1 0xA4 DUP3 ADD MSTORE PUSH1 0x1 PUSH1 0x1 PUSH1 0xA0 SHL SUB DUP6 DUP2 AND PUSH1 0x44 DUP4 ADD MSTORE PUSH1 0xC0 PUSH1 0x64 DUP4 ADD MSTORE PUSH1 0xD PUSH1 0xC4 DUP4 ADD MSTORE PUSH13 0x37204461797320416363657373 PUSH1 0x98 SHL PUSH1 0xE4 DUP4 ADD MSTORE SWAP1 SWAP2 AND SWAP1 PUSH4 0xBFF45139 SWAP1 PUSH2 0x104 ADD PUSH2 0xD78 JUMP JUMPDEST PUSH1 0x1 PUSH1 0x1 PUSH1 0xA0 SHL SUB DUP2 AND PUSH1 0x0 SWAP1 DUP2 MSTORE PUSH1 0x1 PUSH1 0x20 MSTORE PUSH1 0x40 SWAP1 KECCAK256 PUSH1 0x2 ADD SLOAD PUSH1 0x60 SWAP1 PUSH1 0xFF AND PUSH2 0x1939 JUMPI PUSH1 0x40 MLOAD PUSH3 0x461BCD PUSH1 0xE5 SHL DUP2 MSTORE PUSH1 0x4 ADD PUSH2 0x419 SWAP1 PUSH2 0x3927 JUMP JUMPDEST PUSH1 0x1 PUSH1 0x1 PUSH1 0xA0 SHL SUB DUP3 AND PUSH1 0x0 SWAP1 DUP2 MSTORE PUSH1 0x3 PUSH1 0x20 SWAP1 DUP2 MSTORE PUSH1 0x40 DUP1 DUP4 KECCAK256 DUP1 SLOAD DUP3 MLOAD DUP2 DUP6 MUL DUP2 ADD DUP6 ADD SWAP1 SWAP4 MSTORE DUP1 DUP4 MSTORE SWAP2 SWAP4 SWAP1 SWAP3 DUP5 ADD JUMPDEST DUP3 DUP3 LT ISZERO PUSH2 0x1D4E JUMPI DUP4 DUP3 SWAP1 PUSH1 0x0 MSTORE PUSH1 0x20 PUSH1 0x0 KECCAK256 SWAP1 PUSH1 0x9 MUL ADD PUSH1 0x40 MLOAD DUP1 PUSH2 0x140 ADD PUSH1 0x40 MSTORE SWAP1 DUP2 PUSH1 0x0 DUP3 ADD DUP1 SLOAD PUSH2 0x19A0 SWAP1 PUSH2 0x396D JUMP JUMPDEST DUP1 PUSH1 0x1F ADD PUSH1 0x20 DUP1 SWAP2 DIV MUL PUSH1 0x20 ADD PUSH1 0x40 MLOAD SWAP1 DUP2 ADD PUSH1 0x40 MSTORE DUP1 SWAP3 SWAP2 SWAP1 DUP2 DUP2 MSTORE PUSH1 0x20 ADD DUP3 DUP1 SLOAD PUSH2 0x19CC SWAP1 PUSH2 0x396D JUMP JUMPDEST DUP1 ISZERO PUSH2 0x1A19 JUMPI DUP1 PUSH1 0x1F LT PUSH2 0x19EE JUMPI PUSH2 0x100 DUP1 DUP4 SLOAD DIV MUL DUP4 MSTORE SWAP2 PUSH1 0x20 ADD SWAP2 PUSH2 0x1A19 JUMP JUMPDEST DUP3 ADD SWAP2 SWAP1 PUSH1 0x0 MSTORE PUSH1 0x20 PUSH1 0x0 KECCAK256 SWAP1 JUMPDEST DUP2 SLOAD DUP2 MSTORE SWAP1 PUSH1 0x1 ADD SWAP1 PUSH1 0x20 ADD DUP1 DUP4 GT PUSH2 0x19FC JUMPI DUP3 SWAP1 SUB PUSH1 0x1F AND DUP3 ADD SWAP2 JUMPDEST POP POP POP POP POP DUP2 MSTORE PUSH1 0x20 ADD PUSH1 0x1 DUP3 ADD DUP1 SLOAD PUSH2 0x1A32 SWAP1 PUSH2 0x396D JUMP JUMPDEST DUP1 PUSH1 0x1F ADD PUSH1 0x20 DUP1 SWAP2 DIV MUL PUSH1 0x20 ADD PUSH1 0x40 MLOAD SWAP1 DUP2 ADD PUSH1 0x40 MSTORE DUP1 SWAP3 SWAP2 SWAP1 DUP2 DUP2 MSTORE PUSH1 0x20 ADD DUP3 DUP1 SLOAD PUSH2 0x1A5E SWAP1 PUSH2 0x396D JUMP JUMPDEST DUP1 ISZERO PUSH2 0x1AAB JUMPI DUP1 PUSH1 0x1F LT PUSH2 0x1A80 JUMPI PUSH2 0x100 DUP1 DUP4 SLOAD DIV MUL DUP4 MSTORE SWAP2 PUSH1 0x20 ADD SWAP2 PUSH2 0x1AAB JUMP JUMPDEST DUP3 ADD SWAP2 SWAP1 PUSH1 0x0 MSTORE PUSH1 0x20 PUSH1 0x0 KECCAK256 SWAP1 JUMPDEST DUP2 SLOAD DUP2 MSTORE SWAP1 PUSH1 0x1 ADD SWAP1 PUSH1 0x20 ADD DUP1 DUP4 GT PUSH2 0x1A8E JUMPI DUP3 SWAP1 SUB PUSH1 0x1F AND DUP3 ADD SWAP2 JUMPDEST POP POP POP POP POP DUP2 MSTORE PUSH1 0x20 ADD PUSH1 0x2 DUP3 ADD DUP1 SLOAD PUSH2 0x1AC4 SWAP1 PUSH2 0x396D JUMP JUMPDEST DUP1 PUSH1 0x1F ADD PUSH1 0x20 DUP1 SWAP2 DIV MUL PUSH1 0x20 ADD PUSH1 0x40 MLOAD SWAP1 DUP2 ADD PUSH1 0x40 MSTORE DUP1 SWAP3 SWAP2 SWAP1 DUP2 DUP2 MSTORE PUSH1 0x20 ADD DUP3 DUP1 SLOAD PUSH2 0x1AF0 SWAP1 PUSH2 0x396D JUMP JUMPDEST DUP1 ISZERO PUSH2 0x1B3D JUMPI DUP1 PUSH1 0x1F LT PUSH2 0x1B12 JUMPI PUSH2 0x100 DUP1 DUP4 SLOAD DIV MUL DUP4 MSTORE SWAP2 PUSH1 0x20 ADD SWAP2 PUSH2 0x1B3D JUMP JUMPDEST DUP3 ADD SWAP2 SWAP1 PUSH1 0x0 MSTORE PUSH1 0x20 PUSH1 0x0 KECCAK256 SWAP1 JUMPDEST DUP2 SLOAD DUP2 MSTORE SWAP1 PUSH1 0x1 ADD SWAP1 PUSH1 0x20 ADD DUP1 DUP4 GT PUSH2 0x1B20 JUMPI DUP3 SWAP1 SUB PUSH1 0x1F AND DUP3 ADD SWAP2 JUMPDEST POP POP POP POP POP DUP2 MSTORE PUSH1 0x20 ADD PUSH1 0x3 DUP3 ADD DUP1 SLOAD PUSH2 0x1B56 SWAP1 PUSH2 0x396D JUMP JUMPDEST DUP1 PUSH1 0x1F ADD PUSH1 0x20 DUP1 SWAP2 DIV MUL PUSH1 0x20 ADD PUSH1 0x40 MLOAD SWAP1 DUP2 ADD PUSH1 0x40 MSTORE DUP1 SWAP3 SWAP2 SWAP1 DUP2 DUP2 MSTORE PUSH1 0x20 ADD DUP3 DUP1 SLOAD PUSH2 0x1B82 SWAP1 PUSH2 0x396D JUMP JUMPDEST DUP1 ISZERO PUSH2 0x1BCF JUMPI DUP1 PUSH1 0x1F LT PUSH2 0x1BA4 JUMPI PUSH2 0x100 DUP1 DUP4 SLOAD DIV MUL DUP4 MSTORE SWAP2 PUSH1 0x20 ADD SWAP2 PUSH2 0x1BCF JUMP JUMPDEST DUP3 ADD SWAP2 SWAP1 PUSH1 0x0 MSTORE PUSH1 0x20 PUSH1 0x0 KECCAK256 SWAP1 JUMPDEST DUP2 SLOAD DUP2 MSTORE SWAP1 PUSH1 0x1 ADD SWAP1 PUSH1 0x20 ADD DUP1 DUP4 GT PUSH2 0x1BB2 JUMPI DUP3 SWAP1 SUB PUSH1 0x1F AND DUP3 ADD SWAP2 JUMPDEST POP POP POP POP POP DUP2 MSTORE PUSH1 0x20 ADD PUSH1 0x4 DUP3 ADD DUP1 SLOAD PUSH2 0x1BE8 SWAP1 PUSH2 0x396D JUMP JUMPDEST DUP1 PUSH1 0x1F ADD PUSH1 0x20 DUP1 SWAP2 DIV MUL PUSH1 0x20 ADD PUSH1 0x40 MLOAD SWAP1 DUP2 ADD PUSH1 0x40 MSTORE DUP1 SWAP3 SWAP2 SWAP1 DUP2 DUP2 MSTORE PUSH1 0x20 ADD DUP3 DUP1 SLOAD PUSH2 0x1C14 SWAP1 PUSH2 0x396D JUMP JUMPDEST DUP1 ISZERO PUSH2 0x1C61 JUMPI DUP1 PUSH1 0x1F LT PUSH2 0x1C36 JUMPI PUSH2 0x100 DUP1 DUP4 SLOAD DIV MUL DUP4 MSTORE SWAP2 PUSH1 0x20 ADD SWAP2 PUSH2 0x1C61 JUMP JUMPDEST DUP3 ADD SWAP2 SWAP1 PUSH1 0x0 MSTORE PUSH1 0x20 PUSH1 0x0 KECCAK256 SWAP1 JUMPDEST DUP2 SLOAD DUP2 MSTORE SWAP1 PUSH1 0x1 ADD SWAP1 PUSH1 0x20 ADD DUP1 DUP4 GT PUSH2 0x1C44 JUMPI DUP3 SWAP1 SUB PUSH1 0x1F AND DUP3 ADD SWAP2 JUMPDEST POP POP POP SWAP2 DUP4 MSTORE POP POP PUSH1 0x5 DUP3 ADD SLOAD PUSH1 0x20 DUP3 ADD MSTORE PUSH1 0x6 DUP3 ADD SLOAD PUSH1 0x1 PUSH1 0x1 PUSH1 0xA0 SHL SUB DUP2 AND PUSH1 0x40 DUP4 ADD MSTORE PUSH1 0x1 PUSH1 0xA0 SHL SWAP1 DIV PUSH1 0xFF AND ISZERO ISZERO PUSH1 0x60 DUP3 ADD MSTORE PUSH1 0x7 DUP3 ADD DUP1 SLOAD PUSH1 0x80 SWAP1 SWAP3 ADD SWAP2 PUSH2 0x1CAD SWAP1 PUSH2 0x396D JUMP JUMPDEST DUP1 PUSH1 0x1F ADD PUSH1 0x20 DUP1 SWAP2 DIV MUL PUSH1 0x20 ADD PUSH1 0x40 MLOAD SWAP1 DUP2 ADD PUSH1 0x40 MSTORE DUP1 SWAP3 SWAP2 SWAP1 DUP2 DUP2 MSTORE PUSH1 0x20 ADD DUP3 DUP1 SLOAD PUSH2 0x1CD9 SWAP1 PUSH2 0x396D JUMP JUMPDEST DUP1 ISZERO PUSH2 0x1D26 JUMPI DUP1 PUSH1 0x1F LT PUSH2 0x1CFB JUMPI PUSH2 0x100 DUP1 DUP4 SLOAD DIV MUL DUP4 MSTORE SWAP2 PUSH1 0x20 ADD SWAP2 PUSH2 0x1D26 JUMP JUMPDEST DUP3 ADD SWAP2 SWAP1 PUSH1 0x0 MSTORE PUSH1 0x20 PUSH1 0x0 KECCAK256 SWAP1 JUMPDEST DUP2 SLOAD DUP2 MSTORE SWAP1 PUSH1 0x1 ADD SWAP1 PUSH1 0x20 ADD DUP1 DUP4 GT PUSH2 0x1D09 JUMPI DUP3 SWAP1 SUB PUSH1 0x1F AND DUP3 ADD SWAP2 JUMPDEST POP POP POP SWAP2 DUP4 MSTORE POP POP PUSH1 0x8 SWAP2 SWAP1 SWAP2 ADD SLOAD PUSH1 0xFF AND PUSH1 0x20 SWAP2 DUP3 ADD MSTORE SWAP1 DUP3 MSTORE PUSH1 0x1 SWAP3 SWAP1 SWAP3 ADD SWAP2 ADD PUSH2 0x196C JUMP JUMPDEST POP POP POP POP SWAP1 POP SWAP2 SWAP1 POP JUMP JUMPDEST PUSH1 0x1 PUSH1 0x1 PUSH1 0xA0 SHL SUB DUP2 AND PUSH1 0x0 SWAP1 DUP2 MSTORE PUSH1 0x1 PUSH1 0x20 MSTORE PUSH1 0x40 SWAP1 KECCAK256 PUSH1 0x2 ADD SLOAD PUSH1 0x60 SWAP1 DUP2 SWAP1 PUSH1 0xFF AND PUSH2 0x1D99 JUMPI PUSH1 0x40 MLOAD PUSH3 0x461BCD PUSH1 0xE5 SHL DUP2 MSTORE PUSH1 0x4 ADD PUSH2 0x419 SWAP1 PUSH2 0x3927 JUMP JUMPDEST PUSH1 0x1 PUSH1 0x1 PUSH1 0xA0 SHL SUB DUP4 AND PUSH1 0x0 SWAP1 DUP2 MSTORE PUSH1 0x1 PUSH1 0x20 MSTORE PUSH1 0x40 DUP1 DUP3 KECCAK256 DUP2 MLOAD PUSH1 0x60 DUP2 ADD SWAP1 SWAP3 MSTORE DUP1 SLOAD DUP3 SWAP1 DUP3 SWAP1 PUSH2 0x1DCA SWAP1 PUSH2 0x396D JUMP JUMPDEST DUP1 PUSH1 0x1F ADD PUSH1 0x20 DUP1 SWAP2 DIV MUL PUSH1 0x20 ADD PUSH1 0x40 MLOAD SWAP1 DUP2 ADD PUSH1 0x40 MSTORE DUP1 SWAP3 SWAP2 SWAP1 DUP2 DUP2 MSTORE PUSH1 0x20 ADD DUP3 DUP1 SLOAD PUSH2 0x1DF6 SWAP1 PUSH2 0x396D JUMP JUMPDEST DUP1 ISZERO PUSH2 0x1E43 JUMPI DUP1 PUSH1 0x1F LT PUSH2 0x1E18 JUMPI PUSH2 0x100 DUP1 DUP4 SLOAD DIV MUL DUP4 MSTORE SWAP2 PUSH1 0x20 ADD SWAP2 PUSH2 0x1E43 JUMP JUMPDEST DUP3 ADD SWAP2 SWAP1 PUSH1 0x0 MSTORE PUSH1 0x20 PUSH1 0x0 KECCAK256 SWAP1 JUMPDEST DUP2 SLOAD DUP2 MSTORE SWAP1 PUSH1 0x1 ADD SWAP1 PUSH1 0x20 ADD DUP1 DUP4 GT PUSH2 0x1E26 JUMPI DUP3 SWAP1 SUB PUSH1 0x1F AND DUP3 ADD SWAP2 JUMPDEST POP POP POP POP POP DUP2 MSTORE PUSH1 0x20 ADD PUSH1 0x1 DUP3 ADD DUP1 SLOAD PUSH2 0x1E5C SWAP1 PUSH2 0x396D JUMP JUMPDEST DUP1 PUSH1 0x1F ADD PUSH1 0x20 DUP1 SWAP2 DIV MUL PUSH1 0x20 ADD PUSH1 0x40 MLOAD SWAP1 DUP2 ADD PUSH1 0x40 MSTORE DUP1 SWAP3 SWAP2 SWAP1 DUP2 DUP2 MSTORE PUSH1 0x20 ADD DUP3 DUP1 SLOAD PUSH2 0x1E88 SWAP1 PUSH2 0x396D JUMP JUMPDEST DUP1 ISZERO PUSH2 0x1ED5 JUMPI DUP1 PUSH1 0x1F LT PUSH2 0x1EAA JUMPI PUSH2 0x100 DUP1 DUP4 SLOAD DIV MUL DUP4 MSTORE SWAP2 PUSH1 0x20 ADD SWAP2 PUSH2 0x1ED5 JUMP JUMPDEST DUP3 ADD SWAP2 SWAP1 PUSH1 0x0 MSTORE PUSH1 0x20 PUSH1 0x0 KECCAK256 SWAP1 JUMPDEST DUP2 SLOAD DUP2 MSTORE SWAP1 PUSH1 0x1 ADD SWAP1 PUSH1 0x20 ADD DUP1 DUP4 GT PUSH2 0x1EB8 JUMPI DUP3 SWAP1 SUB PUSH1 0x1F AND DUP3 ADD SWAP2 JUMPDEST POP POP POP SWAP2 DUP4 MSTORE POP POP PUSH1 0x2 SWAP2 SWAP1 SWAP2 ADD SLOAD PUSH1 0xFF AND ISZERO ISZERO PUSH1 0x20 SWAP2 DUP3 ADD MSTORE DUP2 MLOAD SWAP2 ADD MLOAD SWAP1 SWAP6 SWAP1 SWAP5 POP SWAP3 POP POP POP JUMP JUMPDEST PUSH1 0x1 PUSH1 0x1 PUSH1 0xA0 SHL SUB DUP2 AND PUSH1 0x0 SWAP1 DUP2 MSTORE PUSH1 0x1 PUSH1 0x20 MSTORE PUSH1 0x40 SWAP1 KECCAK256 PUSH1 0x2 ADD SLOAD PUSH1 0x60 SWAP1 PUSH1 0xFF AND PUSH2 0x1F3D JUMPI PUSH1 0x40 MLOAD PUSH3 0x461BCD PUSH1 0xE5 SHL DUP2 MSTORE PUSH1 0x4 ADD PUSH2 0x419 SWAP1 PUSH2 0x3927 JUMP JUMPDEST CALLER PUSH1 0x1 PUSH1 0x1 PUSH1 0xA0 SHL SUB DUP4 AND EQ PUSH2 0x1FA3 JUMPI PUSH1 0x40 MLOAD PUSH3 0x461BCD PUSH1 0xE5 SHL DUP2 MSTORE PUSH1 0x20 PUSH1 0x4 DUP3 ADD MSTORE PUSH1 0x25 PUSH1 0x24 DUP3 ADD MSTORE PUSH32 0x41636365737320616C6C6F776564206F6E6C7920666F722070617469656E7420 PUSH1 0x44 DUP3 ADD MSTORE PUSH5 0x37BBB732B9 PUSH1 0xD9 SHL PUSH1 0x64 DUP3 ADD MSTORE PUSH1 0x84 ADD PUSH2 0x419 JUMP JUMPDEST PUSH1 0x0 DUP1 JUMPDEST PUSH1 0x1 PUSH1 0x1 PUSH1 0xA0 SHL SUB DUP5 AND PUSH1 0x0 SWAP1 DUP2 MSTORE PUSH1 0x3 PUSH1 0x20 MSTORE PUSH1 0x40 SWAP1 KECCAK256 SLOAD DUP2 LT ISZERO PUSH2 0x202B JUMPI PUSH1 0x1 PUSH1 0x1 PUSH1 0xA0 SHL SUB DUP5 AND PUSH1 0x0 SWAP1 DUP2 MSTORE PUSH1 0x3 PUSH1 0x20 MSTORE PUSH1 0x40 SWAP1 KECCAK256 DUP1 SLOAD DUP3 SWAP1 DUP2 LT PUSH2 0x1FF1 JUMPI PUSH2 0x1FF1 PUSH2 0x3957 JUMP JUMPDEST SWAP1 PUSH1 0x0 MSTORE PUSH1 0x20 PUSH1 0x0 KECCAK256 SWAP1 PUSH1 0x9 MUL ADD PUSH1 0x6 ADD PUSH1 0x14 SWAP1 SLOAD SWAP1 PUSH2 0x100 EXP SWAP1 DIV PUSH1 0xFF AND ISZERO PUSH2 0x2023 JUMPI DUP2 PUSH2 0x201F DUP2 PUSH2 0x3C74 JUMP JUMPDEST SWAP3 POP POP JUMPDEST PUSH1 0x1 ADD PUSH2 0x1FA7 JUMP JUMPDEST POP PUSH1 0x0 DUP2 PUSH8 0xFFFFFFFFFFFFFFFF DUP2 GT ISZERO PUSH2 0x2047 JUMPI PUSH2 0x2047 PUSH2 0x343B JUMP JUMPDEST PUSH1 0x40 MLOAD SWAP1 DUP1 DUP3 MSTORE DUP1 PUSH1 0x20 MUL PUSH1 0x20 ADD DUP3 ADD PUSH1 0x40 MSTORE DUP1 ISZERO PUSH2 0x2080 JUMPI DUP2 PUSH1 0x20 ADD JUMPDEST PUSH2 0x206D PUSH2 0x32C7 JUMP JUMPDEST DUP2 MSTORE PUSH1 0x20 ADD SWAP1 PUSH1 0x1 SWAP1 SUB SWAP1 DUP2 PUSH2 0x2065 JUMPI SWAP1 POP JUMPDEST POP SWAP1 POP PUSH1 0x0 DUP1 JUMPDEST PUSH1 0x1 PUSH1 0x1 PUSH1 0xA0 SHL SUB DUP7 AND PUSH1 0x0 SWAP1 DUP2 MSTORE PUSH1 0x3 PUSH1 0x20 MSTORE PUSH1 0x40 SWAP1 KECCAK256 SLOAD DUP2 LT ISZERO PUSH2 0x251D JUMPI PUSH1 0x1 PUSH1 0x1 PUSH1 0xA0 SHL SUB DUP7 AND PUSH1 0x0 SWAP1 DUP2 MSTORE PUSH1 0x3 PUSH1 0x20 MSTORE PUSH1 0x40 SWAP1 KECCAK256 DUP1 SLOAD DUP3 SWAP1 DUP2 LT PUSH2 0x20D1 JUMPI PUSH2 0x20D1 PUSH2 0x3957 JUMP JUMPDEST SWAP1 PUSH1 0x0 MSTORE PUSH1 0x20 PUSH1 0x0 KECCAK256 SWAP1 PUSH1 0x9 MUL ADD PUSH1 0x6 ADD PUSH1 0x14 SWAP1 SLOAD SWAP1 PUSH2 0x100 EXP SWAP1 DIV PUSH1 0xFF AND ISZERO PUSH2 0x2515 JUMPI PUSH1 0x1 PUSH1 0x1 PUSH1 0xA0 SHL SUB DUP7 AND PUSH1 0x0 SWAP1 DUP2 MSTORE PUSH1 0x3 PUSH1 0x20 MSTORE PUSH1 0x40 SWAP1 KECCAK256 DUP1 SLOAD DUP3 SWAP1 DUP2 LT PUSH2 0x211F JUMPI PUSH2 0x211F PUSH2 0x3957 JUMP JUMPDEST SWAP1 PUSH1 0x0 MSTORE PUSH1 0x20 PUSH1 0x0 KECCAK256 SWAP1 PUSH1 0x9 MUL ADD PUSH1 0x40 MLOAD DUP1 PUSH2 0x140 ADD PUSH1 0x40 MSTORE SWAP1 DUP2 PUSH1 0x0 DUP3 ADD DUP1 SLOAD PUSH2 0x2149 SWAP1 PUSH2 0x396D JUMP JUMPDEST DUP1 PUSH1 0x1F ADD PUSH1 0x20 DUP1 SWAP2 DIV MUL PUSH1 0x20 ADD PUSH1 0x40 MLOAD SWAP1 DUP2 ADD PUSH1 0x40 MSTORE DUP1 SWAP3 SWAP2 SWAP1 DUP2 DUP2 MSTORE PUSH1 0x20 ADD DUP3 DUP1 SLOAD PUSH2 0x2175 SWAP1 PUSH2 0x396D JUMP JUMPDEST DUP1 ISZERO PUSH2 0x21C2 JUMPI DUP1 PUSH1 0x1F LT PUSH2 0x2197 JUMPI PUSH2 0x100 DUP1 DUP4 SLOAD DIV MUL DUP4 MSTORE SWAP2 PUSH1 0x20 ADD SWAP2 PUSH2 0x21C2 JUMP JUMPDEST DUP3 ADD SWAP2 SWAP1 PUSH1 0x0 MSTORE PUSH1 0x20 PUSH1 0x0 KECCAK256 SWAP1 JUMPDEST DUP2 SLOAD DUP2 MSTORE SWAP1 PUSH1 0x1 ADD SWAP1 PUSH1 0x20 ADD DUP1 DUP4 GT PUSH2 0x21A5 JUMPI DUP3 SWAP1 SUB PUSH1 0x1F AND DUP3 ADD SWAP2 JUMPDEST POP POP POP POP POP DUP2 MSTORE PUSH1 0x20 ADD PUSH1 0x1 DUP3 ADD DUP1 SLOAD PUSH2 0x21DB SWAP1 PUSH2 0x396D JUMP JUMPDEST DUP1 PUSH1 0x1F ADD PUSH1 0x20 DUP1 SWAP2 DIV MUL PUSH1 0x20 ADD PUSH1 0x40 MLOAD SWAP1 DUP2 ADD PUSH1 0x40 MSTORE DUP1 SWAP3 SWAP2 SWAP1 DUP2 DUP2 MSTORE PUSH1 0x20 ADD DUP3 DUP1 SLOAD PUSH2 0x2207 SWAP1 PUSH2 0x396D JUMP JUMPDEST DUP1 ISZERO PUSH2 0x2254 JUMPI DUP1 PUSH1 0x1F LT PUSH2 0x2229 JUMPI PUSH2 0x100 DUP1 DUP4 SLOAD DIV MUL DUP4 MSTORE SWAP2 PUSH1 0x20 ADD SWAP2 PUSH2 0x2254 JUMP JUMPDEST DUP3 ADD SWAP2 SWAP1 PUSH1 0x0 MSTORE PUSH1 0x20 PUSH1 0x0 KECCAK256 SWAP1 JUMPDEST DUP2 SLOAD DUP2 MSTORE SWAP1 PUSH1 0x1 ADD SWAP1 PUSH1 0x20 ADD DUP1 DUP4 GT PUSH2 0x2237 JUMPI DUP3 SWAP1 SUB PUSH1 0x1F AND DUP3 ADD SWAP2 JUMPDEST POP POP POP POP POP DUP2 MSTORE PUSH1 0x20 ADD PUSH1 0x2 DUP3 ADD DUP1 SLOAD PUSH2 0x226D SWAP1 PUSH2 0x396D JUMP JUMPDEST DUP1 PUSH1 0x1F ADD PUSH1 0x20 DUP1 SWAP2 DIV MUL PUSH1 0x20 ADD PUSH1 0x40 MLOAD SWAP1 DUP2 ADD PUSH1 0x40 MSTORE DUP1 SWAP3 SWAP2 SWAP1 DUP2 DUP2 MSTORE PUSH1 0x20 ADD DUP3 DUP1 SLOAD PUSH2 0x2299 SWAP1 PUSH2 0x396D JUMP JUMPDEST DUP1 ISZERO PUSH2 0x22E6 JUMPI DUP1 PUSH1 0x1F LT PUSH2 0x22BB JUMPI PUSH2 0x100 DUP1 DUP4 SLOAD DIV MUL DUP4 MSTORE SWAP2 PUSH1 0x20 ADD SWAP2 PUSH2 0x22E6 JUMP JUMPDEST DUP3 ADD SWAP2 SWAP1 PUSH1 0x0 MSTORE PUSH1 0x20 PUSH1 0x0 KECCAK256 SWAP1 JUMPDEST DUP2 SLOAD DUP2 MSTORE SWAP1 PUSH1 0x1 ADD SWAP1 PUSH1 0x20 ADD DUP1 DUP4 GT PUSH2 0x22C9 JUMPI DUP3 SWAP1 SUB PUSH1 0x1F AND DUP3 ADD SWAP2 JUMPDEST POP POP POP POP POP DUP2 MSTORE PUSH1 0x20 ADD PUSH1 0x3 DUP3 ADD DUP1 SLOAD PUSH2 0x22FF SWAP1 PUSH2 0x396D JUMP JUMPDEST DUP1 PUSH1 0x1F ADD PUSH1 0x20 DUP1 SWAP2 DIV MUL PUSH1 0x20 ADD PUSH1 0x40 MLOAD SWAP1 DUP2 ADD PUSH1 0x40 MSTORE DUP1 SWAP3 SWAP2 SWAP1 DUP2 DUP2 MSTORE PUSH1 0x20 ADD DUP3 DUP1 SLOAD PUSH2 0x232B SWAP1 PUSH2 0x396D JUMP JUMPDEST DUP1 ISZERO PUSH2 0x2378 JUMPI DUP1 PUSH1 0x1F LT PUSH2 0x234D JUMPI PUSH2 0x100 DUP1 DUP4 SLOAD DIV MUL DUP4 MSTORE SWAP2 PUSH1 0x20 ADD SWAP2 PUSH2 0x2378 JUMP JUMPDEST DUP3 ADD SWAP2 SWAP1 PUSH1 0x0 MSTORE PUSH1 0x20 PUSH1 0x0 KECCAK256 SWAP1 JUMPDEST DUP2 SLOAD DUP2 MSTORE SWAP1 PUSH1 0x1 ADD SWAP1 PUSH1 0x20 ADD DUP1 DUP4 GT PUSH2 0x235B JUMPI DUP3 SWAP1 SUB PUSH1 0x1F AND DUP3 ADD SWAP2 JUMPDEST POP POP POP POP POP DUP2 MSTORE PUSH1 0x20 ADD PUSH1 0x4 DUP3 ADD DUP1 SLOAD PUSH2 0x2391 SWAP1 PUSH2 0x396D JUMP JUMPDEST DUP1 PUSH1 0x1F ADD PUSH1 0x20 DUP1 SWAP2 DIV MUL PUSH1 0x20 ADD PUSH1 0x40 MLOAD SWAP1 DUP2 ADD PUSH1 0x40 MSTORE DUP1 SWAP3 SWAP2 SWAP1 DUP2 DUP2 MSTORE PUSH1 0x20 ADD DUP3 DUP1 SLOAD PUSH2 0x23BD SWAP1 PUSH2 0x396D JUMP JUMPDEST DUP1 ISZERO PUSH2 0x240A JUMPI DUP1 PUSH1 0x1F LT PUSH2 0x23DF JUMPI PUSH2 0x100 DUP1 DUP4 SLOAD DIV MUL DUP4 MSTORE SWAP2 PUSH1 0x20 ADD SWAP2 PUSH2 0x240A JUMP JUMPDEST DUP3 ADD SWAP2 SWAP1 PUSH1 0x0 MSTORE PUSH1 0x20 PUSH1 0x0 KECCAK256 SWAP1 JUMPDEST DUP2 SLOAD DUP2 MSTORE SWAP1 PUSH1 0x1 ADD SWAP1 PUSH1 0x20 ADD DUP1 DUP4 GT PUSH2 0x23ED JUMPI DUP3 SWAP1 SUB PUSH1 0x1F AND DUP3 ADD SWAP2 JUMPDEST POP POP POP SWAP2 DUP4 MSTORE POP POP PUSH1 0x5 DUP3 ADD SLOAD PUSH1 0x20 DUP3 ADD MSTORE PUSH1 0x6 DUP3 ADD SLOAD PUSH1 0x1 PUSH1 0x1 PUSH1 0xA0 SHL SUB DUP2 AND PUSH1 0x40 DUP4 ADD MSTORE PUSH1 0x1 PUSH1 0xA0 SHL SWAP1 DIV PUSH1 0xFF AND ISZERO ISZERO PUSH1 0x60 DUP3 ADD MSTORE PUSH1 0x7 DUP3 ADD DUP1 SLOAD PUSH1 0x80 SWAP1 SWAP3 ADD SWAP2 PUSH2 0x2456 SWAP1 PUSH2 0x396D JUMP JUMPDEST DUP1 PUSH1 0x1F ADD PUSH1 0x20 DUP1 SWAP2 DIV MUL PUSH1 0x20 ADD PUSH1 0x40 MLOAD SWAP1 DUP2 ADD PUSH1 0x40 MSTORE DUP1 SWAP3 SWAP2 SWAP1 DUP2 DUP2 MSTORE PUSH1 0x20 ADD DUP3 DUP1 SLOAD PUSH2 0x2482 SWAP1 PUSH2 0x396D JUMP JUMPDEST DUP1 ISZERO PUSH2 0x24CF JUMPI DUP1 PUSH1 0x1F LT PUSH2 0x24A4 JUMPI PUSH2 0x100 DUP1 DUP4 SLOAD DIV MUL DUP4 MSTORE SWAP2 PUSH1 0x20 ADD SWAP2 PUSH2 0x24CF JUMP JUMPDEST DUP3 ADD SWAP2 SWAP1 PUSH1 0x0 MSTORE PUSH1 0x20 PUSH1 0x0 KECCAK256 SWAP1 JUMPDEST DUP2 SLOAD DUP2 MSTORE SWAP1 PUSH1 0x1 ADD SWAP1 PUSH1 0x20 ADD DUP1 DUP4 GT PUSH2 0x24B2 JUMPI DUP3 SWAP1 SUB PUSH1 0x1F AND DUP3 ADD SWAP2 JUMPDEST POP POP POP SWAP2 DUP4 MSTORE POP POP PUSH1 0x8 SWAP2 SWAP1 SWAP2 ADD SLOAD PUSH1 0xFF AND PUSH1 0x20 SWAP1 SWAP2 ADD MSTORE DUP4 MLOAD DUP5 SWAP1 DUP5 SWAP1 DUP2 LT PUSH2 0x24FB JUMPI PUSH2 0x24FB PUSH2 0x3957 JUMP JUMPDEST PUSH1 0x20 MUL PUSH1 0x20 ADD ADD DUP2 SWAP1 MSTORE POP DUP2 DUP1 PUSH2 0x2511 SWAP1 PUSH2 0x3C74 JUMP JUMPDEST SWAP3 POP POP JUMPDEST PUSH1 0x1 ADD PUSH2 0x2087 JUMP JUMPDEST POP SWAP1 SWAP5 SWAP4 POP POP POP POP JUMP JUMPDEST PUSH1 0x1 PUSH1 0x1 PUSH1 0xA0 SHL SUB DUP2 DUP2 AND PUSH1 0x0 DUP2 DUP2 MSTORE PUSH1 0x5 PUSH1 0x20 SWAP1 DUP2 MSTORE PUSH1 0x40 DUP1 DUP4 KECCAK256 CALLER DUP1 DUP6 MSTORE SWAP3 MSTORE DUP3 KECCAK256 SLOAD PUSH1 0x6 SLOAD PUSH1 0x60 SWAP6 SWAP5 SWAP1 SWAP3 EQ SWAP4 TIMESTAMP SWAP1 SWAP2 GT SWAP3 SWAP2 AND ISZERO PUSH2 0x25D6 JUMPI PUSH1 0x6 SLOAD PUSH1 0x40 MLOAD PUSH4 0xBC13819 PUSH1 0xE2 SHL DUP2 MSTORE CALLER PUSH1 0x4 DUP3 ADD MSTORE PUSH1 0x1 PUSH1 0x1 PUSH1 0xA0 SHL SUB SWAP1 SWAP2 AND SWAP1 PUSH4 0x2F04E064 SWAP1 PUSH1 0x24 ADD PUSH1 0x0 PUSH1 0x40 MLOAD DUP1 DUP4 SUB DUP2 DUP7 GAS STATICCALL SWAP3 POP POP POP DUP1 ISZERO PUSH2 0x25CC JUMPI POP PUSH1 0x40 MLOAD RETURNDATASIZE PUSH1 0x0 DUP3 RETURNDATACOPY PUSH1 0x1F RETURNDATASIZE SWAP1 DUP2 ADD PUSH1 0x1F NOT AND DUP3 ADD PUSH1 0x40 MSTORE PUSH2 0x25C9 SWAP2 SWAP1 DUP2 ADD SWAP1 PUSH2 0x3CDA JUMP JUMPDEST PUSH1 0x1 JUMPDEST ISZERO PUSH2 0x25D6 JUMPI SWAP3 POP POP POP JUMPDEST DUP3 DUP1 PUSH2 0x25DF JUMPI POP DUP2 JUMPDEST DUP1 PUSH2 0x25E7 JUMPI POP DUP1 JUMPDEST PUSH2 0x2623 JUMPI PUSH1 0x40 MLOAD PUSH3 0x461BCD PUSH1 0xE5 SHL DUP2 MSTORE PUSH1 0x20 PUSH1 0x4 DUP3 ADD MSTORE PUSH1 0xD PUSH1 0x24 DUP3 ADD MSTORE PUSH13 0x1058D8D95CDCC819195B9A5959 PUSH1 0x9A SHL PUSH1 0x44 DUP3 ADD MSTORE PUSH1 0x64 ADD PUSH2 0x419 JUMP JUMPDEST PUSH1 0x0 DUP4 ISZERO PUSH2 0x2633 JUMPI POP PUSH1 0xFF PUSH2 0x264D JUMP JUMPDEST DUP2 ISZERO PUSH2 0x2641 JUMPI POP PUSH1 0x2 PUSH2 0x264D JUMP JUMPDEST PUSH2 0x264A CALLER PUSH2 0x30FA JUMP JUMPDEST SWAP1 POP JUMPDEST PUSH1 0x0 DUP1 JUMPDEST PUSH1 0x1 PUSH1 0x1 PUSH1 0xA0 SHL SUB DUP9 AND PUSH1 0x0 SWAP1 DUP2 MSTORE PUSH1 0x3 PUSH1 0x20 MSTORE PUSH1 0x40 SWAP1 KECCAK256 SLOAD DUP2 LT ISZERO PUSH2 0x2AA3 JUMPI PUSH1 0x1 PUSH1 0x1 PUSH1 0xA0 SHL SUB DUP9 AND PUSH1 0x0 SWAP1 DUP2 MSTORE PUSH1 0x3 PUSH1 0x20 MSTORE PUSH1 0x40 DUP2 KECCAK256 DUP1 SLOAD DUP4 SWAP1 DUP2 LT PUSH2 0x269B JUMPI PUSH2 0x269B PUSH2 0x3957 JUMP JUMPDEST SWAP1 PUSH1 0x0 MSTORE PUSH1 0x20 PUSH1 0x0 KECCAK256 SWAP1 PUSH1 0x9 MUL ADD PUSH1 0x40 MLOAD DUP1 PUSH2 0x140 ADD PUSH1 0x40 MSTORE SWAP1 DUP2 PUSH1 0x0 DUP3 ADD DUP1 SLOAD PUSH2 0x26C5 SWAP1 PUSH2 0x396D JUMP JUMPDEST DUP1 PUSH1 0x1F ADD PUSH1 0x20 DUP1 SWAP2 DIV MUL PUSH1 0x20 ADD PUSH1 0x40 MLOAD SWAP1 DUP2 ADD PUSH1 0x40 MSTORE DUP1 SWAP3 SWAP2 SWAP1 DUP2 DUP2 MSTORE PUSH1 0x20 ADD DUP3 DUP1 SLOAD PUSH2 0x26F1 SWAP1 PUSH2 0x396D JUMP JUMPDEST DUP1 ISZERO PUSH2 0x273E JUMPI DUP1 PUSH1 0x1F LT PUSH2 0x2713 JUMPI PUSH2 0x100 DUP1 DUP4 SLOAD DIV MUL DUP4 MSTORE SWAP2 PUSH1 0x20 ADD SWAP2 PUSH2 0x273E JUMP JUMPDEST DUP3 ADD SWAP2 SWAP1 PUSH1 0x0 MSTORE PUSH1 0x20 PUSH1 0x0 KECCAK256 SWAP1 JUMPDEST DUP2 SLOAD DUP2 MSTORE SWAP1 PUSH1 0x1 ADD SWAP1 PUSH1 0x20 ADD DUP1 DUP4 GT PUSH2 0x2721 JUMPI DUP3 SWAP1 SUB PUSH1 0x1F AND DUP3 ADD SWAP2 JUMPDEST POP POP POP POP POP DUP2 MSTORE PUSH1 0x20 ADD PUSH1 0x1 DUP3 ADD DUP1 SLOAD PUSH2 0x2757 SWAP1 PUSH2 0x396D JUMP JUMPDEST DUP1 PUSH1 0x1F ADD PUSH1 0x20 DUP1 SWAP2 DIV MUL PUSH1 0x20 ADD PUSH1 0x40 MLOAD SWAP1 DUP2 ADD PUSH1 0x40 MSTORE DUP1 SWAP3 SWAP2 SWAP1 DUP2 DUP2 MSTORE PUSH1 0x20 ADD DUP3 DUP1 SLOAD PUSH2 0x2783 SWAP1 PUSH2 0x396D JUMP JUMPDEST DUP1 ISZERO PUSH2 0x27D0 JUMPI DUP1 PUSH1 0x1F LT PUSH2 0x27A5 JUMPI PUSH2 0x100 DUP1 DUP4 SLOAD DIV MUL DUP4 MSTORE SWAP2 PUSH1 0x20 ADD SWAP2 PUSH2 0x27D0 JUMP JUMPDEST DUP3 ADD SWAP2 SWAP1 PUSH1 0x0 MSTORE PUSH1 0x20 PUSH1 0x0 KECCAK256 SWAP1 JUMPDEST DUP2 SLOAD DUP2 MSTORE SWAP1 PUSH1 0x1 ADD SWAP1 PUSH1 0x20 ADD DUP1 DUP4 GT PUSH2 0x27B3 JUMPI DUP3 SWAP1 SUB PUSH1 0x1F AND DUP3 ADD SWAP2 JUMPDEST POP POP POP POP POP DUP2 MSTORE PUSH1 0x20 ADD PUSH1 0x2 DUP3 ADD DUP1 SLOAD PUSH2 0x27E9 SWAP1 PUSH2 0x396D JUMP JUMPDEST DUP1 PUSH1 0x1F ADD PUSH1 0x20 DUP1 SWAP2 DIV MUL PUSH1 0x20 ADD PUSH1 0x40 MLOAD SWAP1 DUP2 ADD PUSH1 0x40 MSTORE DUP1 SWAP3 SWAP2 SWAP1 DUP2 DUP2 MSTORE PUSH1 0x20 ADD DUP3 DUP1 SLOAD PUSH2 0x2815 SWAP1 PUSH2 0x396D JUMP JUMPDEST DUP1 ISZERO PUSH2 0x2862 JUMPI DUP1 PUSH1 0x1F LT PUSH2 0x2837 JUMPI PUSH2 0x100 DUP1 DUP4 SLOAD DIV MUL DUP4 MSTORE SWAP2 PUSH1 0x20 ADD SWAP2 PUSH2 0x2862 JUMP JUMPDEST DUP3 ADD SWAP2 SWAP1 PUSH1 0x0 MSTORE PUSH1 0x20 PUSH1 0x0 KECCAK256 SWAP1 JUMPDEST DUP2 SLOAD DUP2 MSTORE SWAP1 PUSH1 0x1 ADD SWAP1 PUSH1 0x20 ADD DUP1 DUP4 GT PUSH2 0x2845 JUMPI DUP3 SWAP1 SUB PUSH1 0x1F AND DUP3 ADD SWAP2 JUMPDEST POP POP POP POP POP DUP2 MSTORE PUSH1 0x20 ADD PUSH1 0x3 DUP3 ADD DUP1 SLOAD PUSH2 0x287B SWAP1 PUSH2 0x396D JUMP JUMPDEST DUP1 PUSH1 0x1F ADD PUSH1 0x20 DUP1 SWAP2 DIV MUL PUSH1 0x20 ADD PUSH1 0x40 MLOAD SWAP1 DUP2 ADD PUSH1 0x40 MSTORE DUP1 SWAP3 SWAP2 SWAP1 DUP2 DUP2 MSTORE PUSH1 0x20 ADD DUP3 DUP1 SLOAD PUSH2 0x28A7 SWAP1 PUSH2 0x396D JUMP JUMPDEST DUP1 ISZERO PUSH2 0x28F4 JUMPI DUP1 PUSH1 0x1F LT PUSH2 0x28C9 JUMPI PUSH2 0x100 DUP1 DUP4 SLOAD DIV MUL DUP4 MSTORE SWAP2 PUSH1 0x20 ADD SWAP2 PUSH2 0x28F4 JUMP JUMPDEST DUP3 ADD SWAP2 SWAP1 PUSH1 0x0 MSTORE PUSH1 0x20 PUSH1 0x0 KECCAK256 SWAP1 JUMPDEST DUP2 SLOAD DUP2 MSTORE SWAP1 PUSH1 0x1 ADD SWAP1 PUSH1 0x20 ADD DUP1 DUP4 GT PUSH2 0x28D7 JUMPI DUP3 SWAP1 SUB PUSH1 0x1F AND DUP3 ADD SWAP2 JUMPDEST POP POP POP POP POP DUP2 MSTORE PUSH1 0x20 ADD PUSH1 0x4 DUP3 ADD DUP1 SLOAD PUSH2 0x290D SWAP1 PUSH2 0x396D JUMP JUMPDEST DUP1 PUSH1 0x1F ADD PUSH1 0x20 DUP1 SWAP2 DIV MUL PUSH1 0x20 ADD PUSH1 0x40 MLOAD SWAP1 DUP2 ADD PUSH1 0x40 MSTORE DUP1 SWAP3 SWAP2 SWAP1 DUP2 DUP2 MSTORE PUSH1 0x20 ADD DUP3 DUP1 SLOAD PUSH2 0x2939 SWAP1 PUSH2 0x396D JUMP JUMPDEST DUP1 ISZERO PUSH2 0x2986 JUMPI DUP1 PUSH1 0x1F LT PUSH2 0x295B JUMPI PUSH2 0x100 DUP1 DUP4 SLOAD DIV MUL DUP4 MSTORE SWAP2 PUSH1 0x20 ADD SWAP2 PUSH2 0x2986 JUMP JUMPDEST DUP3 ADD SWAP2 SWAP1 PUSH1 0x0 MSTORE PUSH1 0x20 PUSH1 0x0 KECCAK256 SWAP1 JUMPDEST DUP2 SLOAD DUP2 MSTORE SWAP1 PUSH1 0x1 ADD SWAP1 PUSH1 0x20 ADD DUP1 DUP4 GT PUSH2 0x2969 JUMPI DUP3 SWAP1 SUB PUSH1 0x1F AND DUP3 ADD SWAP2 JUMPDEST POP POP POP SWAP2 DUP4 MSTORE POP POP PUSH1 0x5 DUP3 ADD SLOAD PUSH1 0x20 DUP3 ADD MSTORE PUSH1 0x6 DUP3 ADD SLOAD PUSH1 0x1 PUSH1 0x1 PUSH1 0xA0 SHL SUB DUP2 AND PUSH1 0x40 DUP4 ADD MSTORE PUSH1 0x1 PUSH1 0xA0 SHL SWAP1 DIV PUSH1 0xFF AND ISZERO ISZERO PUSH1 0x60 DUP3 ADD MSTORE PUSH1 0x7 DUP3 ADD DUP1 SLOAD PUSH1 0x80 SWAP1 SWAP3 ADD SWAP2 PUSH2 0x29D2 SWAP1 PUSH2 0x396D JUMP JUMPDEST DUP1 PUSH1 0x1F ADD PUSH1 0x20 DUP1 SWAP2 DIV MUL PUSH1 0x20 ADD PUSH1 0x40 MLOAD SWAP1 DUP2 ADD PUSH1 0x40 MSTORE DUP1 SWAP3 SWAP2 SWAP1 DUP2 DUP2 MSTORE PUSH1 0x20 ADD DUP3 DUP1 SLOAD PUSH2 0x29FE SWAP1 PUSH2 0x396D JUMP JUMPDEST DUP1 ISZERO PUSH2 0x2A4B JUMPI DUP1 PUSH1 0x1F LT PUSH2 0x2A20 JUMPI PUSH2 0x100 DUP1 DUP4 SLOAD DIV MUL DUP4 MSTORE SWAP2 PUSH1 0x20 ADD SWAP2 PUSH2 0x2A4B JUMP JUMPDEST DUP3 ADD SWAP2 SWAP1 PUSH1 0x0 MSTORE PUSH1 0x20 PUSH1 0x0 KECCAK256 SWAP1 JUMPDEST DUP2 SLOAD DUP2 MSTORE SWAP1 PUSH1 0x1 ADD SWAP1 PUSH1 0x20 ADD DUP1 DUP4 GT PUSH2 0x2A2E JUMPI DUP3 SWAP1 SUB PUSH1 0x1F AND DUP3 ADD SWAP2 JUMPDEST POP POP POP SWAP2 DUP4 MSTORE POP POP PUSH1 0x8 SWAP2 SWAP1 SWAP2 ADD SLOAD PUSH1 0xFF AND PUSH1 0x20 SWAP1 SWAP2 ADD MSTORE PUSH1 0xE0 DUP2 ADD MLOAD SWAP1 SWAP2 POP ISZERO PUSH2 0x2A9A JUMPI DUP7 DUP1 PUSH2 0x2A87 JUMPI POP DUP4 PUSH1 0xFF AND DUP2 PUSH2 0x120 ADD MLOAD PUSH1 0xFF AND GT ISZERO JUMPDEST ISZERO PUSH2 0x2A9A JUMPI DUP3 PUSH2 0x2A96 DUP2 PUSH2 0x3C74 JUMP JUMPDEST SWAP4 POP POP JUMPDEST POP PUSH1 0x1 ADD PUSH2 0x2651 JUMP JUMPDEST POP PUSH1 0x0 DUP2 PUSH8 0xFFFFFFFFFFFFFFFF DUP2 GT ISZERO PUSH2 0x2ABF JUMPI PUSH2 0x2ABF PUSH2 0x343B JUMP JUMPDEST PUSH1 0x40 MLOAD SWAP1 DUP1 DUP3 MSTORE DUP1 PUSH1 0x20 MUL PUSH1 0x20 ADD DUP3 ADD PUSH1 0x40 MSTORE DUP1 ISZERO PUSH2 0x2AF8 JUMPI DUP2 PUSH1 0x20 ADD JUMPDEST PUSH2 0x2AE5 PUSH2 0x32C7 JUMP JUMPDEST DUP2 MSTORE PUSH1 0x20 ADD SWAP1 PUSH1 0x1 SWAP1 SUB SWAP1 DUP2 PUSH2 0x2ADD JUMPI SWAP1 POP JUMPDEST POP SWAP1 POP PUSH1 0x0 DUP1 JUMPDEST PUSH1 0x1 PUSH1 0x1 PUSH1 0xA0 SHL SUB DUP11 AND PUSH1 0x0 SWAP1 DUP2 MSTORE PUSH1 0x3 PUSH1 0x20 MSTORE PUSH1 0x40 SWAP1 KECCAK256 SLOAD DUP2 LT ISZERO PUSH2 0x2F70 JUMPI PUSH1 0x1 PUSH1 0x1 PUSH1 0xA0 SHL SUB DUP11 AND PUSH1 0x0 SWAP1 DUP2 MSTORE PUSH1 0x3 PUSH1 0x20 MSTORE PUSH1 0x40 DUP2 KECCAK256 DUP1 SLOAD DUP4 SWAP1 DUP2 LT PUSH2 0x2B49 JUMPI PUSH2 0x2B49 PUSH2 0x3957 JUMP JUMPDEST SWAP1 PUSH1 0x0 MSTORE PUSH1 0x20 PUSH1 0x0 KECCAK256 SWAP1 PUSH1 0x9 MUL ADD PUSH1 0x40 MLOAD DUP1 PUSH2 0x140 ADD PUSH1 0x40 MSTORE SWAP1 DUP2 PUSH1 0x0 DUP3 ADD DUP1 SLOAD PUSH2 0x2B73 SWAP1 PUSH2 0x396D JUMP JUMPDEST DUP1 PUSH1 0x1F ADD PUSH1 0x20 DUP1 SWAP2 DIV MUL PUSH1 0x20 ADD PUSH1 0x40 MLOAD SWAP1 DUP2 ADD PUSH1 0x40 MSTORE DUP1 SWAP3 SWAP2 SWAP1 DUP2 DUP2 MSTORE PUSH1 0x20 ADD DUP3 DUP1 SLOAD PUSH2 0x2B9F SWAP1 PUSH2 0x396D JUMP JUMPDEST DUP1 ISZERO PUSH2 0x2BEC JUMPI DUP1 PUSH1 0x1F LT PUSH2 0x2BC1 JUMPI PUSH2 0x100 DUP1 DUP4 SLOAD DIV MUL DUP4 MSTORE SWAP2 PUSH1 0x20 ADD SWAP2 PUSH2 0x2BEC JUMP JUMPDEST DUP3 ADD SWAP2 SWAP1 PUSH1 0x0 MSTORE PUSH1 0x20 PUSH1 0x0 KECCAK256 SWAP1 JUMPDEST DUP2 SLOAD DUP2 MSTORE SWAP1 PUSH1 0x1 ADD SWAP1 PUSH1 0x20 ADD DUP1 DUP4 GT PUSH2 0x2BCF JUMPI DUP3 SWAP1 SUB PUSH1 0x1F AND DUP3 ADD SWAP2 JUMPDEST POP POP POP POP POP DUP2 MSTORE PUSH1 0x20 ADD PUSH1 0x1 DUP3 ADD DUP1 SLOAD PUSH2 0x2C05 SWAP1 PUSH2 0x396D JUMP JUMPDEST DUP1 PUSH1 0x1F ADD PUSH1 0x20 DUP1 SWAP2 DIV MUL PUSH1 0x20 ADD PUSH1 0x40 MLOAD SWAP1 DUP2 ADD PUSH1 0x40 MSTORE DUP1 SWAP3 SWAP2 SWAP1 DUP2 DUP2 MSTORE PUSH1 0x20 ADD DUP3 DUP1 SLOAD PUSH2 0x2C31 SWAP1 PUSH2 0x396D JUMP JUMPDEST DUP1 ISZERO PUSH2 0x2C7E JUMPI DUP1 PUSH1 0x1F LT PUSH2 0x2C53 JUMPI PUSH2 0x100 DUP1 DUP4 SLOAD DIV MUL DUP4 MSTORE SWAP2 PUSH1 0x20 ADD SWAP2 PUSH2 0x2C7E JUMP JUMPDEST DUP3 ADD SWAP2 SWAP1 PUSH1 0x0 MSTORE PUSH1 0x20 PUSH1 0x0 KECCAK256 SWAP1 JUMPDEST DUP2 SLOAD DUP2 MSTORE SWAP1 PUSH1 0x1 ADD SWAP1 PUSH1 0x20 ADD DUP1 DUP4 GT PUSH2 0x2C61 JUMPI DUP3 SWAP1 SUB PUSH1 0x1F AND DUP3 ADD SWAP2 JUMPDEST POP POP POP POP POP DUP2 MSTORE PUSH1 0x20 ADD PUSH1 0x2 DUP3 ADD DUP1 SLOAD PUSH2 0x2C97 SWAP1 PUSH2 0x396D JUMP JUMPDEST DUP1 PUSH1 0x1F ADD PUSH1 0x20 DUP1 SWAP2 DIV MUL PUSH1 0x20 ADD PUSH1 0x40 MLOAD SWAP1 DUP2 ADD PUSH1 0x40 MSTORE DUP1 SWAP3 SWAP2 SWAP1 DUP2 DUP2 MSTORE PUSH1 0x20 ADD DUP3 DUP1 SLOAD PUSH2 0x2CC3 SWAP1 PUSH2 0x396D JUMP JUMPDEST DUP1 ISZERO PUSH2 0x2D10 JUMPI DUP1 PUSH1 0x1F LT PUSH2 0x2CE5 JUMPI PUSH2 0x100 DUP1 DUP4 SLOAD DIV MUL DUP4 MSTORE SWAP2 PUSH1 0x20 ADD SWAP2 PUSH2 0x2D10 JUMP JUMPDEST DUP3 ADD SWAP2 SWAP1 PUSH1 0x0 MSTORE PUSH1 0x20 PUSH1 0x0 KECCAK256 SWAP1 JUMPDEST DUP2 SLOAD DUP2 MSTORE SWAP1 PUSH1 0x1 ADD SWAP1 PUSH1 0x20 ADD DUP1 DUP4 GT PUSH2 0x2CF3 JUMPI DUP3 SWAP1 SUB PUSH1 0x1F AND DUP3 ADD SWAP2 JUMPDEST POP POP POP POP POP DUP2 MSTORE PUSH1 0x20 ADD PUSH1 0x3 DUP3 ADD DUP1 SLOAD PUSH2 0x2D29 SWAP1 PUSH2 0x396D JUMP JUMPDEST DUP1 PUSH1 0x1F ADD PUSH1 0x20 DUP1 SWAP2 DIV MUL PUSH1 0x20 ADD PUSH1 0x40 MLOAD SWAP1 DUP2 ADD PUSH1 0x40 MSTORE DUP1 SWAP3 SWAP2 SWAP1 DUP2 DUP2 MSTORE PUSH1 0x20 ADD DUP3 DUP1 SLOAD PUSH2 0x2D55 SWAP1 PUSH2 0x396D JUMP JUMPDEST DUP1 ISZERO PUSH2 0x2DA2 JUMPI DUP1 PUSH1 0x1F LT PUSH2 0x2D77 JUMPI PUSH2 0x100 DUP1 DUP4 SLOAD DIV MUL DUP4 MSTORE SWAP2 PUSH1 0x20 ADD SWAP2 PUSH2 0x2DA2 JUMP JUMPDEST DUP3 ADD SWAP2 SWAP1 PUSH1 0x0 MSTORE PUSH1 0x20 PUSH1 0x0 KECCAK256 SWAP1 JUMPDEST DUP2 SLOAD DUP2 MSTORE SWAP1 PUSH1 0x1 ADD SWAP1 PUSH1 0x20 ADD DUP1 DUP4 GT PUSH2 0x2D85 JUMPI DUP3 SWAP1 SUB PUSH1 0x1F AND DUP3 ADD SWAP2 JUMPDEST POP POP POP POP POP DUP2 MSTORE PUSH1 0x20 ADD PUSH1 0x4 DUP3 ADD DUP1 SLOAD PUSH2 0x2DBB SWAP1 PUSH2 0x396D JUMP JUMPDEST DUP1 PUSH1 0x1F ADD PUSH1 0x20 DUP1 SWAP2 DIV MUL PUSH1 0x20 ADD PUSH1 0x40 MLOAD SWAP1 DUP2 ADD PUSH1 0x40 MSTORE DUP1 SWAP3 SWAP2 SWAP1 DUP2 DUP2 MSTORE PUSH1 0x20 ADD DUP3 DUP1 SLOAD PUSH2 0x2DE7 SWAP1 PUSH2 0x396D JUMP JUMPDEST DUP1 ISZERO PUSH2 0x2E34 JUMPI DUP1 PUSH1 0x1F LT PUSH2 0x2E09 JUMPI PUSH2 0x100 DUP1 DUP4 SLOAD DIV MUL DUP4 MSTORE SWAP2 PUSH1 0x20 ADD SWAP2 PUSH2 0x2E34 JUMP JUMPDEST DUP3 ADD SWAP2 SWAP1 PUSH1 0x0 MSTORE PUSH1 0x20 PUSH1 0x0 KECCAK256 SWAP1 JUMPDEST DUP2 SLOAD DUP2 MSTORE SWAP1 PUSH1 0x1 ADD SWAP1 PUSH1 0x20 ADD DUP1 DUP4 GT PUSH2 0x2E17 JUMPI DUP3 SWAP1 SUB PUSH1 0x1F AND DUP3 ADD SWAP2 JUMPDEST POP POP POP SWAP2 DUP4 MSTORE POP POP PUSH1 0x5 DUP3 ADD SLOAD PUSH1 0x20 DUP3 ADD MSTORE PUSH1 0x6 DUP3 ADD SLOAD PUSH1 0x1 PUSH1 0x1 PUSH1 0xA0 SHL SUB DUP2 AND PUSH1 0x40 DUP4 ADD MSTORE PUSH1 0x1 PUSH1 0xA0 SHL SWAP1 DIV PUSH1 0xFF AND ISZERO ISZERO PUSH1 0x60 DUP3 ADD MSTORE PUSH1 0x7 DUP3 ADD DUP1 SLOAD PUSH1 0x80 SWAP1 SWAP3 ADD SWAP2 PUSH2 0x2E80 SWAP1 PUSH2 0x396D JUMP JUMPDEST DUP1 PUSH1 0x1F ADD PUSH1 0x20 DUP1 SWAP2 DIV MUL PUSH1 0x20 ADD PUSH1 0x40 MLOAD SWAP1 DUP2 ADD PUSH1 0x40 MSTORE DUP1 SWAP3 SWAP2 SWAP1 DUP2 DUP2 MSTORE PUSH1 0x20 ADD DUP3 DUP1 SLOAD PUSH2 0x2EAC SWAP1 PUSH2 0x396D JUMP JUMPDEST DUP1 ISZERO PUSH2 0x2EF9 JUMPI DUP1 PUSH1 0x1F LT PUSH2 0x2ECE JUMPI PUSH2 0x100 DUP1 DUP4 SLOAD DIV MUL DUP4 MSTORE SWAP2 PUSH1 0x20 ADD SWAP2 PUSH2 0x2EF9 JUMP JUMPDEST DUP3 ADD SWAP2 SWAP1 PUSH1 0x0 MSTORE PUSH1 0x20 PUSH1 0x0 KECCAK256 SWAP1 JUMPDEST DUP2 SLOAD DUP2 MSTORE SWAP1 PUSH1 0x1 ADD SWAP1 PUSH1 0x20 ADD DUP1 DUP4 GT PUSH2 0x2EDC JUMPI DUP3 SWAP1 SUB PUSH1 0x1F AND DUP3 ADD SWAP2 JUMPDEST POP POP POP SWAP2 DUP4 MSTORE POP POP PUSH1 0x8 SWAP2 SWAP1 SWAP2 ADD SLOAD PUSH1 0xFF AND PUSH1 0x20 SWAP1 SWAP2 ADD MSTORE PUSH1 0xE0 DUP2 ADD MLOAD SWAP1 SWAP2 POP ISZERO PUSH2 0x2F67 JUMPI DUP9 DUP1 PUSH2 0x2F35 JUMPI POP DUP6 PUSH1 0xFF AND DUP2 PUSH2 0x120 ADD MLOAD PUSH1 0xFF AND GT ISZERO JUMPDEST ISZERO PUSH2 0x2F67 JUMPI DUP1 DUP5 DUP5 DUP2 MLOAD DUP2 LT PUSH2 0x2F4D JUMPI PUSH2 0x2F4D PUSH2 0x3957 JUMP JUMPDEST PUSH1 0x20 MUL PUSH1 0x20 ADD ADD DUP2 SWAP1 MSTORE POP DUP3 DUP1 PUSH2 0x2F63 SWAP1 PUSH2 0x3C74 JUMP JUMPDEST SWAP4 POP POP JUMPDEST POP PUSH1 0x1 ADD PUSH2 0x2AFF JUMP JUMPDEST POP SWAP1 SWAP9 SWAP8 POP POP POP POP POP POP POP POP JUMP JUMPDEST PUSH1 0x2 DUP2 DUP2 SLOAD DUP2 LT PUSH2 0x2F8E JUMPI PUSH1 0x0 DUP1 REVERT JUMPDEST PUSH1 0x0 SWAP2 DUP3 MSTORE PUSH1 0x20 SWAP1 SWAP2 KECCAK256 ADD SLOAD PUSH1 0x1 PUSH1 0x1 PUSH1 0xA0 SHL SUB AND SWAP1 POP DUP2 JUMP JUMPDEST PUSH1 0x0 SLOAD PUSH1 0x1 PUSH1 0x1 PUSH1 0xA0 SHL SUB AND CALLER EQ PUSH2 0x2FD2 JUMPI PUSH1 0x40 MLOAD PUSH3 0x461BCD PUSH1 0xE5 SHL DUP2 MSTORE PUSH1 0x4 ADD PUSH2 0x419 SWAP1 PUSH2 0x3BB4 JUMP JUMPDEST PUSH1 0x8 DUP1 SLOAD PUSH1 0x1 PUSH1 0x1 PUSH1 0xA0 SHL SUB NOT AND PUSH1 0x1 PUSH1 0x1 PUSH1 0xA0 SHL SUB SWAP3 SWAP1 SWAP3 AND SWAP2 SWAP1 SWAP2 OR SWAP1 SSTORE JUMP JUMPDEST PUSH1 0x60 CALLER PUSH1 0x1 PUSH1 0x1 PUSH1 0xA0 SHL SUB DUP4 AND EQ PUSH2 0x304E JUMPI PUSH1 0x40 MLOAD PUSH3 0x461BCD PUSH1 0xE5 SHL DUP2 MSTORE PUSH1 0x20 PUSH1 0x4 DUP3 ADD MSTORE PUSH1 0x1E PUSH1 0x24 DUP3 ADD MSTORE PUSH32 0x4F6E6C792070617469656E742063616E20766965772072657175657374730000 PUSH1 0x44 DUP3 ADD MSTORE PUSH1 0x64 ADD PUSH2 0x419 JUMP JUMPDEST PUSH1 0x1 PUSH1 0x1 PUSH1 0xA0 SHL SUB DUP3 AND PUSH1 0x0 SWAP1 DUP2 MSTORE PUSH1 0xA PUSH1 0x20 SWAP1 DUP2 MSTORE PUSH1 0x40 SWAP2 DUP3 SWAP1 KECCAK256 DUP1 SLOAD DUP4 MLOAD DUP2 DUP5 MUL DUP2 ADD DUP5 ADD SWAP1 SWAP5 MSTORE DUP1 DUP5 MSTORE SWAP1 SWAP2 DUP4 ADD DUP3 DUP3 DUP1 ISZERO PUSH2 0x30B6 JUMPI PUSH1 0x20 MUL DUP3 ADD SWAP2 SWAP1 PUSH1 0x0 MSTORE PUSH1 0x20 PUSH1 0x0 KECCAK256 SWAP1 JUMPDEST DUP2 SLOAD PUSH1 0x1 PUSH1 0x1 PUSH1 0xA0 SHL SUB AND DUP2 MSTORE PUSH1 0x1 SWAP1 SWAP2 ADD SWAP1 PUSH1 0x20 ADD DUP1 DUP4 GT PUSH2 0x3098 JUMPI JUMPDEST POP POP POP POP POP SWAP1 POP SWAP2 SWAP1 POP JUMP JUMPDEST PUSH1 0xA PUSH1 0x20 MSTORE DUP2 PUSH1 0x0 MSTORE PUSH1 0x40 PUSH1 0x0 KECCAK256 DUP2 DUP2 SLOAD DUP2 LT PUSH2 0x30DE JUMPI PUSH1 0x0 DUP1 REVERT JUMPDEST PUSH1 0x0 SWAP2 DUP3 MSTORE PUSH1 0x20 SWAP1 SWAP2 KECCAK256 ADD SLOAD PUSH1 0x1 PUSH1 0x1 PUSH1 0xA0 SHL SUB AND SWAP2 POP DUP3 SWAP1 POP JUMP JUMPDEST PUSH1 0x6 SLOAD PUSH1 0x0 SWAP1 PUSH1 0x1 PUSH1 0x1 PUSH1 0xA0 SHL SUB AND ISZERO PUSH2 0x3193 JUMPI PUSH1 0x6 SLOAD PUSH1 0x40 MLOAD PUSH4 0xBC13819 PUSH1 0xE2 SHL DUP2 MSTORE PUSH1 0x1 PUSH1 0x1 PUSH1 0xA0 SHL SUB DUP5 DUP2 AND PUSH1 0x4 DUP4 ADD MSTORE SWAP1 SWAP2 AND SWAP1 PUSH4 0x2F04E064 SWAP1 PUSH1 0x24 ADD PUSH1 0x0 PUSH1 0x40 MLOAD DUP1 DUP4 SUB DUP2 DUP7 GAS STATICCALL SWAP3 POP POP POP DUP1 ISZERO PUSH2 0x3179 JUMPI POP PUSH1 0x40 MLOAD RETURNDATASIZE PUSH1 0x0 DUP3 RETURNDATACOPY PUSH1 0x1F RETURNDATASIZE SWAP1 DUP2 ADD PUSH1 0x1F NOT AND DUP3 ADD PUSH1 0x40 MSTORE PUSH2 0x3176 SWAP2 SWAP1 DUP2 ADD SWAP1 PUSH2 0x3CDA JUMP JUMPDEST PUSH1 0x1 JUMPDEST ISZERO PUSH2 0x3193 JUMPI DUP1 ISZERO PUSH2 0x318F JUMPI POP PUSH1 0x2 SWAP5 SWAP4 POP POP POP POP JUMP JUMPDEST POP POP POP JUMPDEST PUSH1 0x7 SLOAD PUSH1 0x1 PUSH1 0x1 PUSH1 0xA0 SHL SUB AND ISZERO PUSH2 0x3229 JUMPI PUSH1 0x7 SLOAD PUSH1 0x40 MLOAD PUSH4 0x87E59793 PUSH1 0xE0 SHL DUP2 MSTORE PUSH1 0x1 PUSH1 0x1 PUSH1 0xA0 SHL SUB DUP5 DUP2 AND PUSH1 0x4 DUP4 ADD MSTORE SWAP1 SWAP2 AND SWAP1 PUSH4 0x87E59793 SWAP1 PUSH1 0x24 ADD PUSH1 0x0 PUSH1 0x40 MLOAD DUP1 DUP4 SUB DUP2 DUP7 GAS STATICCALL SWAP3 POP POP POP DUP1 ISZERO PUSH2 0x320F JUMPI POP PUSH1 0x40 MLOAD RETURNDATASIZE PUSH1 0x0 DUP3 RETURNDATACOPY PUSH1 0x1F RETURNDATASIZE SWAP1 DUP2 ADD PUSH1 0x1F NOT AND DUP3 ADD PUSH1 0x40 MSTORE PUSH2 0x320C SWAP2 SWAP1 DUP2 ADD SWAP1 PUSH2 0x3CDA JUMP JUMPDEST PUSH1 0x1 JUMPDEST ISZERO PUSH2 0x3229 JUMPI DUP1 ISZERO PUSH2 0x3225 JUMPI POP PUSH1 0x1 SWAP5 SWAP4 POP POP POP POP JUMP JUMPDEST POP POP POP JUMPDEST PUSH1 0x8 SLOAD PUSH1 0x1 PUSH1 0x1 PUSH1 0xA0 SHL SUB AND ISZERO PUSH2 0x32BF JUMPI PUSH1 0x8 SLOAD PUSH1 0x40 MLOAD PUSH4 0x73F5D261 PUSH1 0xE1 SHL DUP2 MSTORE PUSH1 0x1 PUSH1 0x1 PUSH1 0xA0 SHL SUB DUP5 DUP2 AND PUSH1 0x4 DUP4 ADD MSTORE SWAP1 SWAP2 AND SWAP1 PUSH4 0xE7EBA4C2 SWAP1 PUSH1 0x24 ADD PUSH1 0x0 PUSH1 0x40 MLOAD DUP1 DUP4 SUB DUP2 DUP7 GAS STATICCALL SWAP3 POP POP POP DUP1 ISZERO PUSH2 0x32A5 JUMPI POP PUSH1 0x40 MLOAD RETURNDATASIZE PUSH1 0x0 DUP3 RETURNDATACOPY PUSH1 0x1F RETURNDATASIZE SWAP1 DUP2 ADD PUSH1 0x1F NOT AND DUP3 ADD PUSH1 0x40 MSTORE PUSH2 0x32A2 SWAP2 SWAP1 DUP2 ADD SWAP1 PUSH2 0x3CDA JUMP JUMPDEST PUSH1 0x1 JUMPDEST ISZERO PUSH2 0x32BF JUMPI DUP1 ISZERO PUSH2 0x32BB JUMPI POP PUSH1 0x0 SWAP5 SWAP4 POP POP POP POP JUMP JUMPDEST POP POP POP JUMPDEST POP PUSH1 0x0 SWAP2 SWAP1 POP JUMP JUMPDEST PUSH1 0x40 MLOAD DUP1 PUSH2 0x140 ADD PUSH1 0x40 MSTORE DUP1 PUSH1 0x60 DUP2 MSTORE PUSH1 0x20 ADD PUSH1 0x60 DUP2 MSTORE PUSH1 0x20 ADD PUSH1 0x60 DUP2 MSTORE PUSH1 0x20 ADD PUSH1 0x60 DUP2 MSTORE PUSH1 0x20 ADD PUSH1 0x60 DUP2 MSTORE PUSH1 0x20 ADD PUSH1 0x0 DUP2 MSTORE PUSH1 0x20 ADD PUSH1 0x0 PUSH1 0x1 PUSH1 0x1 PUSH1 0xA0 SHL SUB AND DUP2 MSTORE PUSH1 0x20 ADD PUSH1 0x0 ISZERO ISZERO DUP2 MSTORE PUSH1 0x20 ADD PUSH1 0x60 DUP2 MSTORE PUSH1 0x20 ADD PUSH1 0x0 PUSH1 0xFF AND DUP2 MSTORE POP SWAP1 JUMP JUMPDEST DUP1 CALLDATALOAD PUSH1 0x1 PUSH1 0x1 PUSH1 0xA0 SHL SUB DUP2 AND DUP2 EQ PUSH2 0x333F JUMPI PUSH1 0x0 DUP1 REVERT JUMPDEST SWAP2 SWAP1 POP JUMP JUMPDEST PUSH1 0x0 PUSH1 0x20 DUP3 DUP5 SUB SLT ISZERO PUSH2 0x3356 JUMPI PUSH1 0x0 DUP1 REVERT JUMPDEST PUSH2 0x335F DUP3 PUSH2 0x3328 JUMP JUMPDEST SWAP4 SWAP3 POP POP POP JUMP JUMPDEST PUSH1 0x0 JUMPDEST DUP4 DUP2 LT ISZERO PUSH2 0x3381 JUMPI DUP2 DUP2 ADD MLOAD DUP4 DUP3 ADD MSTORE PUSH1 0x20 ADD PUSH2 0x3369 JUMP JUMPDEST POP POP PUSH1 0x0 SWAP2 ADD MSTORE JUMP JUMPDEST PUSH1 0x0 DUP2 MLOAD DUP1 DUP5 MSTORE PUSH2 0x33A2 DUP2 PUSH1 0x20 DUP7 ADD PUSH1 0x20 DUP7 ADD PUSH2 0x3366 JUMP JUMPDEST PUSH1 0x1F ADD PUSH1 0x1F NOT AND SWAP3 SWAP1 SWAP3 ADD PUSH1 0x20 ADD SWAP3 SWAP2 POP POP JUMP JUMPDEST PUSH1 0x60 DUP2 MSTORE PUSH1 0x0 PUSH2 0x33C9 PUSH1 0x60 DUP4 ADD DUP7 PUSH2 0x338A JUMP JUMPDEST DUP3 DUP2 SUB PUSH1 0x20 DUP5 ADD MSTORE PUSH2 0x33DB DUP2 DUP7 PUSH2 0x338A JUMP JUMPDEST SWAP2 POP POP DUP3 ISZERO ISZERO PUSH1 0x40 DUP4 ADD MSTORE SWAP5 SWAP4 POP POP POP POP JUMP JUMPDEST PUSH1 0x20 DUP1 DUP3 MSTORE DUP3 MLOAD DUP3 DUP3 ADD DUP2 SWAP1 MSTORE PUSH1 0x0 SWAP2 SWAP1 DUP5 DUP3 ADD SWAP1 PUSH1 0x40 DUP6 ADD SWAP1 DUP5 JUMPDEST DUP2 DUP2 LT ISZERO PUSH2 0x342F JUMPI DUP4 MLOAD PUSH1 0x1 PUSH1 0x1 PUSH1 0xA0 SHL SUB AND DUP4 MSTORE SWAP3 DUP5 ADD SWAP3 SWAP2 DUP5 ADD SWAP2 PUSH1 0x1 ADD PUSH2 0x340A JUMP JUMPDEST POP SWAP1 SWAP7 SWAP6 POP POP POP POP POP POP JUMP JUMPDEST PUSH4 0x4E487B71 PUSH1 0xE0 SHL PUSH1 0x0 MSTORE PUSH1 0x41 PUSH1 0x4 MSTORE PUSH1 0x24 PUSH1 0x0 REVERT JUMPDEST PUSH1 0x40 MLOAD PUSH1 0x1F DUP3 ADD PUSH1 0x1F NOT AND DUP2 ADD PUSH8 0xFFFFFFFFFFFFFFFF DUP2 GT DUP3 DUP3 LT OR ISZERO PUSH2 0x347A JUMPI PUSH2 0x347A PUSH2 0x343B JUMP JUMPDEST PUSH1 0x40 MSTORE SWAP2 SWAP1 POP JUMP JUMPDEST PUSH1 0x0 PUSH8 0xFFFFFFFFFFFFFFFF DUP3 GT ISZERO PUSH2 0x349C JUMPI PUSH2 0x349C PUSH2 0x343B JUMP JUMPDEST POP PUSH1 0x1F ADD PUSH1 0x1F NOT AND PUSH1 0x20 ADD SWAP1 JUMP JUMPDEST PUSH1 0x0 DUP3 PUSH1 0x1F DUP4 ADD SLT PUSH2 0x34BB JUMPI PUSH1 0x0 DUP1 REVERT JUMPDEST DUP2 CALLDATALOAD PUSH2 0x34CE PUSH2 0x34C9 DUP3 PUSH2 0x3482 JUMP JUMPDEST PUSH2 0x3451 JUMP JUMPDEST DUP2 DUP2 MSTORE DUP5 PUSH1 0x20 DUP4 DUP7 ADD ADD GT ISZERO PUSH2 0x34E3 JUMPI PUSH1 0x0 DUP1 REVERT JUMPDEST DUP2 PUSH1 0x20 DUP6 ADD PUSH1 0x20 DUP4 ADD CALLDATACOPY PUSH1 0x0 SWAP2 DUP2 ADD PUSH1 0x20 ADD SWAP2 SWAP1 SWAP2 MSTORE SWAP4 SWAP3 POP POP POP JUMP JUMPDEST DUP1 CALLDATALOAD PUSH1 0xFF DUP2 AND DUP2 EQ PUSH2 0x333F JUMPI PUSH1 0x0 DUP1 REVERT JUMPDEST PUSH1 0x0 DUP1 PUSH1 0x0 DUP1 PUSH1 0x0 DUP1 PUSH1 0x0 DUP1 PUSH2 0x100 DUP10 DUP12 SUB SLT ISZERO PUSH2 0x352E JUMPI PUSH1 0x0 DUP1 REVERT JUMPDEST PUSH2 0x3537 DUP10 PUSH2 0x3328 JUMP JUMPDEST SWAP8 POP PUSH1 0x20 DUP10 ADD CALLDATALOAD PUSH8 0xFFFFFFFFFFFFFFFF DUP1 DUP3 GT ISZERO PUSH2 0x3554 JUMPI PUSH1 0x0 DUP1 REVERT JUMPDEST PUSH2 0x3560 DUP13 DUP4 DUP14 ADD PUSH2 0x34AA JUMP JUMPDEST SWAP9 POP PUSH1 0x40 DUP12 ADD CALLDATALOAD SWAP2 POP DUP1 DUP3 GT ISZERO PUSH2 0x3576 JUMPI PUSH1 0x0 DUP1 REVERT JUMPDEST PUSH2 0x3582 DUP13 DUP4 DUP14 ADD PUSH2 0x34AA JUMP JUMPDEST SWAP8 POP PUSH1 0x60 DUP12 ADD CALLDATALOAD SWAP2 POP DUP1 DUP3 GT ISZERO PUSH2 0x3598 JUMPI PUSH1 0x0 DUP1 REVERT JUMPDEST PUSH2 0x35A4 DUP13 DUP4 DUP14 ADD PUSH2 0x34AA JUMP JUMPDEST SWAP7 POP PUSH1 0x80 DUP12 ADD CALLDATALOAD SWAP2 POP DUP1 DUP3 GT ISZERO PUSH2 0x35BA JUMPI PUSH1 0x0 DUP1 REVERT JUMPDEST PUSH2 0x35C6 DUP13 DUP4 DUP14 ADD PUSH2 0x34AA JUMP JUMPDEST SWAP6 POP PUSH1 0xA0 DUP12 ADD CALLDATALOAD SWAP2 POP DUP1 DUP3 GT ISZERO PUSH2 0x35DC JUMPI PUSH1 0x0 DUP1 REVERT JUMPDEST PUSH2 0x35E8 DUP13 DUP4 DUP14 ADD PUSH2 0x34AA JUMP JUMPDEST SWAP5 POP PUSH1 0xC0 DUP12 ADD CALLDATALOAD SWAP2 POP DUP1 DUP3 GT ISZERO PUSH2 0x35FE JUMPI PUSH1 0x0 DUP1 REVERT JUMPDEST POP PUSH2 0x360B DUP12 DUP3 DUP13 ADD PUSH2 0x34AA JUMP JUMPDEST SWAP3 POP POP PUSH2 0x361A PUSH1 0xE0 DUP11 ADD PUSH2 0x3500 JUMP JUMPDEST SWAP1 POP SWAP3 SWAP6 SWAP9 POP SWAP3 SWAP6 SWAP9 SWAP1 SWAP4 SWAP7 POP JUMP JUMPDEST PUSH1 0x0 DUP1 PUSH1 0x0 PUSH1 0x60 DUP5 DUP7 SUB SLT ISZERO PUSH2 0x363E JUMPI PUSH1 0x0 DUP1 REVERT JUMPDEST PUSH2 0x3647 DUP5 PUSH2 0x3328 JUMP JUMPDEST SWAP3 POP PUSH1 0x20 DUP5 ADD CALLDATALOAD PUSH8 0xFFFFFFFFFFFFFFFF DUP1 DUP3 GT ISZERO PUSH2 0x3664 JUMPI PUSH1 0x0 DUP1 REVERT JUMPDEST PUSH2 0x3670 DUP8 DUP4 DUP9 ADD PUSH2 0x34AA JUMP JUMPDEST SWAP4 POP PUSH1 0x40 DUP7 ADD CALLDATALOAD SWAP2 POP DUP1 DUP3 GT ISZERO PUSH2 0x3686 JUMPI PUSH1 0x0 DUP1 REVERT JUMPDEST POP PUSH2 0x3693 DUP7 DUP3 DUP8 ADD PUSH2 0x34AA JUMP JUMPDEST SWAP2 POP POP SWAP3 POP SWAP3 POP SWAP3 JUMP JUMPDEST PUSH1 0x0 DUP1 PUSH1 0x40 DUP4 DUP6 SUB SLT ISZERO PUSH2 0x36B0 JUMPI PUSH1 0x0 DUP1 REVERT JUMPDEST PUSH2 0x36B9 DUP4 PUSH2 0x3328 JUMP JUMPDEST SWAP2 POP PUSH2 0x36C7 PUSH1 0x20 DUP5 ADD PUSH2 0x3328 JUMP JUMPDEST SWAP1 POP SWAP3 POP SWAP3 SWAP1 POP JUMP JUMPDEST PUSH1 0x0 DUP1 PUSH1 0x40 DUP4 DUP6 SUB SLT ISZERO PUSH2 0x36E3 JUMPI PUSH1 0x0 DUP1 REVERT JUMPDEST PUSH2 0x36EC DUP4 PUSH2 0x3328 JUMP JUMPDEST SWAP5 PUSH1 0x20 SWAP4 SWAP1 SWAP4 ADD CALLDATALOAD SWAP4 POP POP POP JUMP JUMPDEST PUSH1 0x0 PUSH2 0x140 DUP1 DUP4 MSTORE PUSH2 0x370E DUP2 DUP5 ADD DUP15 PUSH2 0x338A JUMP JUMPDEST SWAP1 POP DUP3 DUP2 SUB PUSH1 0x20 DUP5 ADD MSTORE PUSH2 0x3722 DUP2 DUP14 PUSH2 0x338A JUMP JUMPDEST SWAP1 POP DUP3 DUP2 SUB PUSH1 0x40 DUP5 ADD MSTORE PUSH2 0x3736 DUP2 DUP13 PUSH2 0x338A JUMP JUMPDEST SWAP1 POP DUP3 DUP2 SUB PUSH1 0x60 DUP5 ADD MSTORE PUSH2 0x374A DUP2 DUP12 PUSH2 0x338A JUMP JUMPDEST SWAP1 POP DUP3 DUP2 SUB PUSH1 0x80 DUP5 ADD MSTORE PUSH2 0x375E DUP2 DUP11 PUSH2 0x338A JUMP JUMPDEST PUSH1 0xA0 DUP5 ADD DUP10 SWAP1 MSTORE PUSH1 0x1 PUSH1 0x1 PUSH1 0xA0 SHL SUB DUP9 AND PUSH1 0xC0 DUP6 ADD MSTORE DUP7 ISZERO ISZERO PUSH1 0xE0 DUP6 ADD MSTORE DUP4 DUP2 SUB PUSH2 0x100 DUP6 ADD MSTORE SWAP1 POP PUSH2 0x3791 DUP2 DUP7 PUSH2 0x338A JUMP JUMPDEST SWAP2 POP POP PUSH1 0xFF DUP4 AND PUSH2 0x120 DUP4 ADD MSTORE SWAP12 SWAP11 POP POP POP POP POP POP POP POP POP POP POP JUMP JUMPDEST PUSH1 0x0 PUSH1 0x20 DUP1 DUP4 ADD DUP2 DUP5 MSTORE DUP1 DUP6 MLOAD DUP1 DUP4 MSTORE PUSH1 0x40 SWAP3 POP PUSH1 0x40 DUP7 ADD SWAP2 POP PUSH1 0x40 DUP2 PUSH1 0x5 SHL DUP8 ADD ADD DUP5 DUP9 ADD PUSH1 0x0 JUMPDEST DUP4 DUP2 LT ISZERO PUSH2 0x2F70 JUMPI PUSH1 0x3F NOT DUP10 DUP5 SUB ADD DUP6 MSTORE DUP2 MLOAD PUSH2 0x140 DUP2 MLOAD DUP2 DUP7 MSTORE PUSH2 0x37FD DUP3 DUP8 ADD DUP3 PUSH2 0x338A JUMP JUMPDEST SWAP2 POP POP DUP9 DUP3 ADD MLOAD DUP6 DUP3 SUB DUP11 DUP8 ADD MSTORE PUSH2 0x3815 DUP3 DUP3 PUSH2 0x338A JUMP JUMPDEST SWAP2 POP POP DUP8 DUP3 ADD MLOAD DUP6 DUP3 SUB DUP10 DUP8 ADD MSTORE PUSH2 0x382D DUP3 DUP3 PUSH2 0x338A JUMP JUMPDEST SWAP2 POP POP PUSH1 0x60 DUP1 DUP4 ADD MLOAD DUP7 DUP4 SUB DUP3 DUP9 ADD MSTORE PUSH2 0x3847 DUP4 DUP3 PUSH2 0x338A JUMP JUMPDEST SWAP3 POP POP POP PUSH1 0x80 DUP1 DUP4 ADD MLOAD DUP7 DUP4 SUB DUP3 DUP9 ADD MSTORE PUSH2 0x3862 DUP4 DUP3 PUSH2 0x338A JUMP JUMPDEST SWAP3 POP POP POP PUSH1 0xA0 DUP1 DUP4 ADD MLOAD DUP2 DUP8 ADD MSTORE POP PUSH1 0xC0 DUP1 DUP4 ADD MLOAD PUSH2 0x388B DUP3 DUP9 ADD DUP3 PUSH1 0x1 PUSH1 0x1 PUSH1 0xA0 SHL SUB AND SWAP1 MSTORE JUMP JUMPDEST POP POP PUSH1 0xE0 DUP3 DUP2 ADD MLOAD ISZERO ISZERO SWAP1 DUP7 ADD MSTORE PUSH2 0x100 DUP1 DUP4 ADD MLOAD DUP7 DUP4 SUB DUP3 DUP9 ADD MSTORE PUSH2 0x38B1 DUP4 DUP3 PUSH2 0x338A JUMP JUMPDEST SWAP3 POP POP POP PUSH2 0x120 DUP1 DUP4 ADD MLOAD SWAP3 POP PUSH2 0x38CC DUP2 DUP8 ADD DUP5 PUSH1 0xFF AND SWAP1 MSTORE JUMP JUMPDEST POP SWAP6 DUP9 ADD SWAP6 SWAP4 POP POP SWAP1 DUP7 ADD SWAP1 PUSH1 0x1 ADD PUSH2 0x37D6 JUMP JUMPDEST PUSH1 0x40 DUP2 MSTORE PUSH1 0x0 PUSH2 0x38F3 PUSH1 0x40 DUP4 ADD DUP6 PUSH2 0x338A JUMP JUMPDEST DUP3 DUP2 SUB PUSH1 0x20 DUP5 ADD MSTORE PUSH2 0x3905 DUP2 DUP6 PUSH2 0x338A JUMP JUMPDEST SWAP6 SWAP5 POP POP POP POP POP JUMP JUMPDEST PUSH1 0x0 PUSH1 0x20 DUP3 DUP5 SUB SLT ISZERO PUSH2 0x3920 JUMPI PUSH1 0x0 DUP1 REVERT JUMPDEST POP CALLDATALOAD SWAP2 SWAP1 POP JUMP JUMPDEST PUSH1 0x20 DUP1 DUP3 MSTORE PUSH1 0x16 SWAP1 DUP3 ADD MSTORE PUSH22 0x14185D1A595B9D081B9BDD081C9959DA5CDD195C9959 PUSH1 0x52 SHL PUSH1 0x40 DUP3 ADD MSTORE PUSH1 0x60 ADD SWAP1 JUMP JUMPDEST PUSH4 0x4E487B71 PUSH1 0xE0 SHL PUSH1 0x0 MSTORE PUSH1 0x32 PUSH1 0x4 MSTORE PUSH1 0x24 PUSH1 0x0 REVERT JUMPDEST PUSH1 0x1 DUP2 DUP2 SHR SWAP1 DUP3 AND DUP1 PUSH2 0x3981 JUMPI PUSH1 0x7F DUP3 AND SWAP2 POP JUMPDEST PUSH1 0x20 DUP3 LT DUP2 SUB PUSH2 0x39A1 JUMPI PUSH4 0x4E487B71 PUSH1 0xE0 SHL PUSH1 0x0 MSTORE PUSH1 0x22 PUSH1 0x4 MSTORE PUSH1 0x24 PUSH1 0x0 REVERT JUMPDEST POP SWAP2 SWAP1 POP JUMP JUMPDEST PUSH1 0x0 DUP3 MLOAD PUSH2 0x39B9 DUP2 DUP5 PUSH1 0x20 DUP8 ADD PUSH2 0x3366 JUMP JUMPDEST SWAP2 SWAP1 SWAP2 ADD SWAP3 SWAP2 POP POP JUMP JUMPDEST PUSH1 0x60 DUP2 MSTORE PUSH1 0x0 PUSH2 0x39D6 PUSH1 0x60 DUP4 ADD DUP7 PUSH2 0x338A JUMP JUMPDEST DUP3 DUP2 SUB PUSH1 0x20 DUP5 ADD MSTORE PUSH2 0x39E8 DUP2 DUP7 PUSH2 0x338A JUMP JUMPDEST SWAP2 POP POP DUP3 PUSH1 0x40 DUP4 ADD MSTORE SWAP5 SWAP4 POP POP POP POP JUMP JUMPDEST PUSH1 0x1F DUP3 GT ISZERO PUSH2 0xDA5 JUMPI PUSH1 0x0 DUP2 PUSH1 0x0 MSTORE PUSH1 0x20 PUSH1 0x0 KECCAK256 PUSH1 0x1F DUP6 ADD PUSH1 0x5 SHR DUP2 ADD PUSH1 0x20 DUP7 LT ISZERO PUSH2 0x3A22 JUMPI POP DUP1 JUMPDEST PUSH1 0x1F DUP6 ADD PUSH1 0x5 SHR DUP3 ADD SWAP2 POP JUMPDEST DUP2 DUP2 LT ISZERO PUSH2 0x3A41 JUMPI DUP3 DUP2 SSTORE PUSH1 0x1 ADD PUSH2 0x3A2E JUMP JUMPDEST POP POP POP POP POP POP JUMP JUMPDEST DUP2 MLOAD PUSH8 0xFFFFFFFFFFFFFFFF DUP2 GT ISZERO PUSH2 0x3A63 JUMPI PUSH2 0x3A63 PUSH2 0x343B JUMP JUMPDEST PUSH2 0x3A77 DUP2 PUSH2 0x3A71 DUP5 SLOAD PUSH2 0x396D JUMP JUMPDEST DUP5 PUSH2 0x39F9 JUMP JUMPDEST PUSH1 0x20 DUP1 PUSH1 0x1F DUP4 GT PUSH1 0x1 DUP2 EQ PUSH2 0x3AAC JUMPI PUSH1 0x0 DUP5 ISZERO PUSH2 0x3A94 JUMPI POP DUP6 DUP4 ADD MLOAD JUMPDEST PUSH1 0x0 NOT PUSH1 0x3 DUP7 SWAP1 SHL SHR NOT AND PUSH1 0x1 DUP6 SWAP1 SHL OR DUP6 SSTORE PUSH2 0x3A41 JUMP JUMPDEST PUSH1 0x0 DUP6 DUP2 MSTORE PUSH1 0x20 DUP2 KECCAK256 PUSH1 0x1F NOT DUP7 AND SWAP2 JUMPDEST DUP3 DUP2 LT ISZERO PUSH2 0x3ADB JUMPI DUP9 DUP7 ADD MLOAD DUP3 SSTORE SWAP5 DUP5 ADD SWAP5 PUSH1 0x1 SWAP1 SWAP2 ADD SWAP1 DUP5 ADD PUSH2 0x3ABC JUMP JUMPDEST POP DUP6 DUP3 LT ISZERO PUSH2 0x3AF9 JUMPI DUP8 DUP6 ADD MLOAD PUSH1 0x0 NOT PUSH1 0x3 DUP9 SWAP1 SHL PUSH1 0xF8 AND SHR NOT AND DUP2 SSTORE JUMPDEST POP POP POP POP POP PUSH1 0x1 SWAP1 DUP2 SHL ADD SWAP1 SSTORE POP JUMP JUMPDEST PUSH4 0x4E487B71 PUSH1 0xE0 SHL PUSH1 0x0 MSTORE PUSH1 0x11 PUSH1 0x4 MSTORE PUSH1 0x24 PUSH1 0x0 REVERT JUMPDEST DUP2 DUP2 SUB DUP2 DUP2 GT ISZERO PUSH2 0x3B32 JUMPI PUSH2 0x3B32 PUSH2 0x3B09 JUMP JUMPDEST SWAP3 SWAP2 POP POP JUMP JUMPDEST PUSH1 0x60 DUP2 MSTORE PUSH1 0x0 PUSH2 0x3B4B PUSH1 0x60 DUP4 ADD DUP7 PUSH2 0x338A JUMP JUMPDEST SWAP1 POP DUP4 PUSH1 0x20 DUP4 ADD MSTORE PUSH1 0xFF DUP4 AND PUSH1 0x40 DUP4 ADD MSTORE SWAP5 SWAP4 POP POP POP POP JUMP JUMPDEST PUSH1 0x1 PUSH1 0x1 PUSH1 0xA0 SHL SUB DUP5 DUP2 AND DUP3 MSTORE PUSH1 0x80 PUSH1 0x20 DUP4 ADD DUP2 SWAP1 MSTORE PUSH1 0xC SWAP1 DUP4 ADD MSTORE PUSH12 0x149150D3D49117D051111151 PUSH1 0xA2 SHL PUSH1 0xA0 DUP4 ADD MSTORE DUP4 AND PUSH1 0x40 DUP3 ADD MSTORE PUSH1 0xC0 PUSH1 0x60 DUP3 ADD DUP2 SWAP1 MSTORE PUSH1 0x0 SWAP1 PUSH2 0x3905 SWAP1 DUP4 ADD DUP5 PUSH2 0x338A JUMP JUMPDEST PUSH1 0x20 DUP1 DUP3 MSTORE PUSH1 0x21 SWAP1 DUP3 ADD MSTORE PUSH32 0x4F6E6C792061646D696E2063616E2063616C6C20746869732066756E6374696F PUSH1 0x40 DUP3 ADD MSTORE PUSH1 0x37 PUSH1 0xF9 SHL PUSH1 0x60 DUP3 ADD MSTORE PUSH1 0x80 ADD SWAP1 JUMP JUMPDEST PUSH1 0x1 PUSH1 0x1 PUSH1 0xA0 SHL SUB DUP5 DUP2 AND DUP3 MSTORE PUSH1 0x80 PUSH1 0x20 DUP4 ADD DUP2 SWAP1 MSTORE PUSH1 0x12 SWAP1 DUP4 ADD MSTORE PUSH18 0x1410551251539517D49151D254D511549151 PUSH1 0x72 SHL PUSH1 0xA0 DUP4 ADD MSTORE DUP4 AND PUSH1 0x40 DUP3 ADD MSTORE PUSH1 0xC0 PUSH1 0x60 DUP3 ADD DUP2 SWAP1 MSTORE PUSH1 0x0 SWAP1 PUSH2 0x3905 SWAP1 DUP4 ADD DUP5 PUSH2 0x338A JUMP JUMPDEST DUP1 DUP3 ADD DUP1 DUP3 GT ISZERO PUSH2 0x3B32 JUMPI PUSH2 0x3B32 PUSH2 0x3B09 JUMP JUMPDEST PUSH4 0x4E487B71 PUSH1 0xE0 SHL PUSH1 0x0 MSTORE PUSH1 0x31 PUSH1 0x4 MSTORE PUSH1 0x24 PUSH1 0x0 REVERT JUMPDEST PUSH1 0x0 PUSH1 0x1 DUP3 ADD PUSH2 0x3C86 JUMPI PUSH2 0x3C86 PUSH2 0x3B09 JUMP JUMPDEST POP PUSH1 0x1 ADD SWAP1 JUMP JUMPDEST PUSH1 0x0 DUP3 PUSH1 0x1F DUP4 ADD SLT PUSH2 0x3C9E JUMPI PUSH1 0x0 DUP1 REVERT JUMPDEST DUP2 MLOAD PUSH2 0x3CAC PUSH2 0x34C9 DUP3 PUSH2 0x3482 JUMP JUMPDEST DUP2 DUP2 MSTORE DUP5 PUSH1 0x20 DUP4 DUP7 ADD ADD GT ISZERO PUSH2 0x3CC1 JUMPI PUSH1 0x0 DUP1 REVERT JUMPDEST PUSH2 0x3CD2 DUP3 PUSH1 0x20 DUP4 ADD PUSH1 0x20 DUP8 ADD PUSH2 0x3366 JUMP JUMPDEST SWAP5 SWAP4 POP POP POP POP JUMP JUMPDEST PUSH1 0x0 DUP1 PUSH1 0x0 PUSH1 0x60 DUP5 DUP7 SUB SLT ISZERO PUSH2 0x3CEF JUMPI PUSH1 0x0 DUP1 REVERT JUMPDEST DUP4 MLOAD PUSH8 0xFFFFFFFFFFFFFFFF DUP1 DUP3 GT ISZERO PUSH2 0x3D07 JUMPI PUSH1 0x0 DUP1 REVERT JUMPDEST PUSH2 0x3D13 DUP8 DUP4 DUP9 ADD PUSH2 0x3C8D JUMP JUMPDEST SWAP5 POP PUSH1 0x20 DUP7 ADD MLOAD SWAP2 POP DUP1 DUP3 GT ISZERO PUSH2 0x3D29 JUMPI PUSH1 0x0 DUP1 REVERT JUMPDEST POP PUSH2 0x3D36 DUP7 DUP3 DUP8 ADD PUSH2 0x3C8D JUMP JUMPDEST SWAP3 POP POP PUSH1 0x40 DUP5 ADD MLOAD DUP1 ISZERO ISZERO DUP2 EQ PUSH2 0x3D4C JUMPI PUSH1 0x0 DUP1 REVERT JUMPDEST DUP1 SWAP2 POP POP SWAP3 POP SWAP3 POP SWAP3 JUMP INVALID LOG2 PUSH5 0x6970667358 0x22 SLT KECCAK256 CALLER PUSH16 0xC17154A15E568A90CD1A6311CDF1BBBB PUSH1 0x56 0xD7 CREATE 0xD6 PUSH32 0x9283AB0D729DD9E564736F6C6343000818003300000000000000000000000000 "},"methodIdentifiers":{"accessExpiry(address,address)":"91f20596","addMedicalRecord(address,string,string,string,string,string,string,uint8)":"197547a1","admin()":"f851a440","allPatients(uint256)":"d8f608df","auditContractAddress()":"cb9b859f","doctorContractAddress()":"0ac1f2c5","getActiveRecords(address)":"b717a67c","getAllPatients()":"18a231a9","getMedicalRecords(address)":"afd8297c","getPatient(address)":"b5368e20","getPatientAccessRequests(address)":"eeaaa075","getSharedRecords(address)":"bcbf7181","grantAccess(address,uint256)":"9df89256","insuranceContractAddress()":"14c179c0","patientAccessRequests(address,uint256)":"fb6be4ec","patientRecords(address,uint256)":"94f0df61","patients(address)":"0869cfbc","registerPatient(address,string,string)":"37d91799","requestAccess(address)":"022cb271","researcherContractAddress()":"a25b0bf0","revokeAccess(address)":"85e68531","setAuditContractAddress(address)":"89413f42","setDoctorContractAddress(address)":"7933ef8b","setInsuranceContractAddress(address)":"6df32cd4","setResearcherContractAddress(address)":"e08b9d9c"}}}}}