{
  "_format": "hh-sol-artifact-1",
  "contractName": "DoctorManagement",
  "sourceName": "contracts/doctorcontract.sol",
  "abi": [
    {
      "inputs": [],
      "stateMutability": "nonpayable",
      "type": "constructor"
    },
    {
      "anonymous": false,
      "inputs": [
        {
          "indexed": true,
          "internalType": "address",
          "name": "doctorAddress",
          "type": "address"
        },
        {
          "indexed": false,
          "internalType": "string",
          "name": "username",
          "type": "string"
        },
        {
          "indexed": false,
          "internalType": "string",
          "name": "role",
          "type": "string"
        }
      ],
      "name": "DoctorRegistered",
      "type": "event"
    },
    {
      "anonymous": false,
      "inputs": [
        {
          "indexed": true,
          "internalType": "address",
          "name": "doctorAddress",
          "type": "address"
        },
        {
          "indexed": true,
          "internalType": "address",
          "name": "patientAddress",
          "type": "address"
        }
      ],
      "name": "PatientAccessGranted",
      "type": "event"
    },
    {
      "anonymous": false,
      "inputs": [
        {
          "indexed": true,
          "internalType": "address",
          "name": "doctorAddress",
          "type": "address"
        },
        {
          "indexed": true,
          "internalType": "address",
          "name": "patientAddress",
          "type": "address"
        }
      ],
      "name": "PatientAccessRevoked",
      "type": "event"
    },
    {
      "inputs": [
        {
          "internalType": "address",
          "name": "_doctorAddress",
          "type": "address"
        },
        {
          "internalType": "address",
          "name": "_patientAddress",
          "type": "address"
        }
      ],
      "name": "addPatientAccess",
      "outputs": [],
      "stateMutability": "nonpayable",
      "type": "function"
    },
    {
      "inputs": [],
      "name": "admin",
      "outputs": [
        {
          "internalType": "address",
          "name": "",
          "type": "address"
        }
      ],
      "stateMutability": "view",
      "type": "function"
    },
    {
      "inputs": [
        {
          "internalType": "address",
          "name": "",
          "type": "address"
        },
        {
          "internalType": "address",
          "name": "",
          "type": "address"
        }
      ],
      "name": "doctorPatientAccess",
      "outputs": [
        {
          "internalType": "bool",
          "name": "",
          "type": "bool"
        }
      ],
      "stateMutability": "view",
      "type": "function"
    },
    {
      "inputs": [
        {
          "internalType": "address",
          "name": "",
          "type": "address"
        },
        {
          "internalType": "uint256",
          "name": "",
          "type": "uint256"
        }
      ],
      "name": "doctorPatients",
      "outputs": [
        {
          "internalType": "address",
          "name": "",
          "type": "address"
        }
      ],
      "stateMutability": "view",
      "type": "function"
    },
    {
      "inputs": [
        {
          "internalType": "address",
          "name": "",
          "type": "address"
        }
      ],
      "name": "doctors",
      "outputs": [
        {
          "internalType": "string",
          "name": "username",
          "type": "string"
        },
        {
          "internalType": "string",
          "name": "role",
          "type": "string"
        },
        {
          "internalType": "bool",
          "name": "isRegistered",
          "type": "bool"
        }
      ],
      "stateMutability": "view",
      "type": "function"
    },
    {
      "inputs": [],
      "name": "getAllDoctors",
      "outputs": [
        {
          "internalType": "address[]",
          "name": "",
          "type": "address[]"
        }
      ],
      "stateMutability": "view",
      "type": "function"
    },
    {
      "inputs": [
        {
          "internalType": "address",
          "name": "_doctorAddress",
          "type": "address"
        }
      ],
      "name": "getAuthorizedPatients",
      "outputs": [
        {
          "internalType": "address[]",
          "name": "",
          "type": "address[]"
        }
      ],
      "stateMutability": "view",
      "type": "function"
    },
    {
      "inputs": [
        {
          "internalType": "address",
          "name": "_doctorAddress",
          "type": "address"
        }
      ],
      "name": "getDoctor",
      "outputs": [
        {
          "internalType": "string",
          "name": "username",
          "type": "string"
        },
        {
          "internalType": "string",
          "name": "role",
          "type": "string"
        }
      ],
      "stateMutability": "view",
      "type": "function"
    },
    {
      "inputs": [
        {
          "internalType": "address",
          "name": "_doctorAddress",
          "type": "address"
        },
        {
          "internalType": "address",
          "name": "_patientAddress",
          "type": "address"
        }
      ],
      "name": "isAuthorized",
      "outputs": [
        {
          "internalType": "bool",
          "name": "",
          "type": "bool"
        }
      ],
      "stateMutability": "view",
      "type": "function"
    },
    {
      "inputs": [
        {
          "internalType": "address",
          "name": "_doctorAddress",
          "type": "address"
        },
        {
          "internalType": "string",
          "name": "_username",
          "type": "string"
        },
        {
          "internalType": "string",
          "name": "_role",
          "type": "string"
        }
      ],
      "name": "registerDoctor",
      "outputs": [],
      "stateMutability": "nonpayable",
      "type": "function"
    },
    {
      "inputs": [
        {
          "internalType": "address",
          "name": "_doctorAddress",
          "type": "address"
        },
        {
          "internalType": "address",
          "name": "_patientAddress",
          "type": "address"
        }
      ],
      "name": "revokePatientAccess",
      "outputs": [],
      "stateMutability": "nonpayable",
      "type": "function"
    }
  ],
  "bytecode": "0x60806040523480156200001157600080fd5b50336000806101000a81548173ffffffffffffffffffffffffffffffffffffffff021916908373ffffffffffffffffffffffffffffffffffffffff16021790555060405180606001604052806040518060400160405280600581526020017f61646d696e00000000000000000000000000000000000000000000000000000081525081526020016040518060400160405280600581526020017f61646d696e000000000000000000000000000000000000000000000000000000815250815260200160011515815250600160003373ffffffffffffffffffffffffffffffffffffffff1673ffffffffffffffffffffffffffffffffffffffff16815260200190815260200160002060008201518160000190816200013091906200044f565b5060208201518160010190816200014891906200044f565b5060408201518160020160006101000a81548160ff0219169083151502179055509050506002339080600181540180825580915050600190039060005260206000200160009091909190916101000a81548173ffffffffffffffffffffffffffffffffffffffff021916908373ffffffffffffffffffffffffffffffffffffffff16021790555062000536565b600081519050919050565b7f4e487b7100000000000000000000000000000000000000000000000000000000600052604160045260246000fd5b7f4e487b7100000000000000000000000000000000000000000000000000000000600052602260045260246000fd5b600060028204905060018216806200025757607f821691505b6020821081036200026d576200026c6200020f565b5b50919050565b60008190508160005260206000209050919050565b60006020601f8301049050919050565b600082821b905092915050565b600060088302620002d77fffffffffffffffffffffffffffffffffffffffffffffffffffffffffffffffff8262000298565b620002e3868362000298565b95508019841693508086168417925050509392505050565b6000819050919050565b6000819050919050565b6000620003306200032a6200032484620002fb565b62000305565b620002fb565b9050919050565b6000819050919050565b6200034c836200030f565b620003646200035b8262000337565b848454620002a5565b825550505050565b600090565b6200037b6200036c565b6200038881848462000341565b505050565b5b81811015620003b057620003a460008262000371565b6001810190506200038e565b5050565b601f821115620003ff57620003c98162000273565b620003d48462000288565b81016020851015620003e4578190505b620003fc620003f38562000288565b8301826200038d565b50505b505050565b600082821c905092915050565b6000620004246000198460080262000404565b1980831691505092915050565b60006200043f838362000411565b9150826002028217905092915050565b6200045a82620001d5565b67ffffffffffffffff811115620004765762000475620001e0565b5b6200048282546200023e565b6200048f828285620003b4565b600060209050601f831160018114620004c75760008415620004b2578287015190505b620004be858262000431565b8655506200052e565b601f198416620004d78662000273565b60005b828110156200050157848901518255600182019150602085019450602081019050620004da565b868310156200052157848901516200051d601f89168262000411565b8355505b6001600288020188555050505b505050505050565b611e3b80620005466000396000f3fe608060405234801561001057600080fd5b50600436106100a95760003560e01c806365e4ad9e1161007157806365e4ad9e146101635780637c8b24e614610193578063a133b27e146101c3578063a9583c22146101f3578063f0d9509014610225578063f851a44014610243576100a9565b80630ff42188146100ae578063177870c2146100ca5780632f04e064146100e65780634ac9e3001461011757806353d08ef414610147575b600080fd5b6100c860048036038101906100c391906112c9565b610261565b005b6100e460048036038101906100df91906112c9565b61054d565b005b61010060048036038101906100fb9190611309565b6109cb565b60405161010e9291906113c6565b60405180910390f35b610131600480360381019061012c9190611433565b610bfe565b60405161013e9190611482565b60405180910390f35b610161600480360381019061015c91906115d2565b610c4c565b005b61017d600480360381019061017891906112c9565b610ece565b60405161018a9190611678565b60405180910390f35b6101ad60048036038101906101a89190611309565b610f62565b6040516101ba9190611751565b60405180910390f35b6101dd60048036038101906101d891906112c9565b61102f565b6040516101ea9190611678565b60405180910390f35b61020d60048036038101906102089190611309565b61105e565b60405161021c93929190611773565b60405180910390f35b61022d6111a5565b60405161023a9190611751565b60405180910390f35b61024b611233565b6040516102589190611482565b60405180910390f35b600160008373ffffffffffffffffffffffffffffffffffffffff1673ffffffffffffffffffffffffffffffffffffffff16815260200190815260200160002060020160009054906101000a900460ff166102f0576040517f08c379a00000000000000000000000000000000000000000000000000000000081526004016102e790611804565b60405180910390fd5b600460008373ffffffffffffffffffffffffffffffffffffffff1673ffffffffffffffffffffffffffffffffffffffff16815260200190815260200160002060008273ffffffffffffffffffffffffffffffffffffffff1673ffffffffffffffffffffffffffffffffffffffff16815260200190815260200160002060009054906101000a900460ff16156103ba576040517f08c379a00000000000000000000000000000000000000000000000000000000081526004016103b190611870565b60405180910390fd5b600360008373ffffffffffffffffffffffffffffffffffffffff1673ffffffffffffffffffffffffffffffffffffffff168152602001908152602001600020819080600181540180825580915050600190039060005260206000200160009091909190916101000a81548173ffffffffffffffffffffffffffffffffffffffff021916908373ffffffffffffffffffffffffffffffffffffffff1602179055506001600460008473ffffffffffffffffffffffffffffffffffffffff1673ffffffffffffffffffffffffffffffffffffffff16815260200190815260200160002060008373ffffffffffffffffffffffffffffffffffffffff1673ffffffffffffffffffffffffffffffffffffffff16815260200190815260200160002060006101000a81548160ff0219169083151502179055508073ffffffffffffffffffffffffffffffffffffffff168273ffffffffffffffffffffffffffffffffffffffff167fa8d30211503e661fc2de68b2101d6be49294343e7f07c162a69eff23898ef0c160405160405180910390a35050565b600160008373ffffffffffffffffffffffffffffffffffffffff1673ffffffffffffffffffffffffffffffffffffffff16815260200190815260200160002060020160009054906101000a900460ff166105dc576040517f08c379a00000000000000000000000000000000000000000000000000000000081526004016105d390611804565b60405180910390fd5b600460008373ffffffffffffffffffffffffffffffffffffffff1673ffffffffffffffffffffffffffffffffffffffff16815260200190815260200160002060008273ffffffffffffffffffffffffffffffffffffffff1673ffffffffffffffffffffffffffffffffffffffff16815260200190815260200160002060009054906101000a900460ff166106a5576040517f08c379a000000000000000000000000000000000000000000000000000000000815260040161069c906118dc565b60405180910390fd5b8073ffffffffffffffffffffffffffffffffffffffff163373ffffffffffffffffffffffffffffffffffffffff1614610713576040517f08c379a000000000000000000000000000000000000000000000000000000000815260040161070a90611948565b60405180910390fd5b6000600460008473ffffffffffffffffffffffffffffffffffffffff1673ffffffffffffffffffffffffffffffffffffffff16815260200190815260200160002060008373ffffffffffffffffffffffffffffffffffffffff1673ffffffffffffffffffffffffffffffffffffffff16815260200190815260200160002060006101000a81548160ff0219169083151502179055506000600360008473ffffffffffffffffffffffffffffffffffffffff1673ffffffffffffffffffffffffffffffffffffffff168152602001908152602001600020905060005b818054905081101561096b578273ffffffffffffffffffffffffffffffffffffffff1682828154811061082457610823611968565b5b9060005260206000200160009054906101000a900473ffffffffffffffffffffffffffffffffffffffff1673ffffffffffffffffffffffffffffffffffffffff160361095e57816001838054905061087c91906119c6565b8154811061088d5761088c611968565b5b9060005260206000200160009054906101000a900473ffffffffffffffffffffffffffffffffffffffff168282815481106108cb576108ca611968565b5b9060005260206000200160006101000a81548173ffffffffffffffffffffffffffffffffffffffff021916908373ffffffffffffffffffffffffffffffffffffffff16021790555081805480610924576109236119fa565b5b6001900381819060005260206000200160006101000a81549073ffffffffffffffffffffffffffffffffffffffff0219169055905561096b565b80806001019150506107ee565b508173ffffffffffffffffffffffffffffffffffffffff168373ffffffffffffffffffffffffffffffffffffffff167f6869da424d3514d77420cdfa92bf9041b88dc6c70941bd7446fb7f013f95ddf160405160405180910390a3505050565b606080600160008473ffffffffffffffffffffffffffffffffffffffff1673ffffffffffffffffffffffffffffffffffffffff16815260200190815260200160002060020160009054906101000a900460ff16610a5d576040517f08c379a0000000000000000000000000000000000000000000000000000000008152600401610a5490611804565b60405180910390fd5b6000600160008573ffffffffffffffffffffffffffffffffffffffff1673ffffffffffffffffffffffffffffffffffffffff168152602001908152602001600020604051806060016040529081600082018054610ab990611a58565b80601f0160208091040260200160405190810160405280929190818152602001828054610ae590611a58565b8015610b325780601f10610b0757610100808354040283529160200191610b32565b820191906000526020600020905b815481529060010190602001808311610b1557829003601f168201915b50505050508152602001600182018054610b4b90611a58565b80601f0160208091040260200160405190810160405280929190818152602001828054610b7790611a58565b8015610bc45780601f10610b9957610100808354040283529160200191610bc4565b820191906000526020600020905b815481529060010190602001808311610ba757829003601f168201915b505050505081526020016002820160009054906101000a900460ff1615151515815250509050806000015181602001519250925050915091565b60036020528160005260406000208181548110610c1a57600080fd5b906000526020600020016000915091509054906101000a900473ffffffffffffffffffffffffffffffffffffffff1681565b60008054906101000a900473ffffffffffffffffffffffffffffffffffffffff1673ffffffffffffffffffffffffffffffffffffffff163373ffffffffffffffffffffffffffffffffffffffff1614610cda576040517f08c379a0000000000000000000000000000000000000000000000000000000008152600401610cd190611afb565b60405180910390fd5b600160008473ffffffffffffffffffffffffffffffffffffffff1673ffffffffffffffffffffffffffffffffffffffff16815260200190815260200160002060020160009054906101000a900460ff1615610d6a576040517f08c379a0000000000000000000000000000000000000000000000000000000008152600401610d6190611b67565b60405180910390fd5b604051806060016040528083815260200182815260200160011515815250600160008573ffffffffffffffffffffffffffffffffffffffff1673ffffffffffffffffffffffffffffffffffffffff1681526020019081526020016000206000820151816000019081610ddc9190611d33565b506020820151816001019081610df29190611d33565b5060408201518160020160006101000a81548160ff0219169083151502179055509050506002839080600181540180825580915050600190039060005260206000200160009091909190916101000a81548173ffffffffffffffffffffffffffffffffffffffff021916908373ffffffffffffffffffffffffffffffffffffffff1602179055508273ffffffffffffffffffffffffffffffffffffffff167fbc3a5b2aeb1bc52e3d56d3fd3423dd66cea5ecff8ae1f3bd0d75a0e608da7b858383604051610ec19291906113c6565b60405180910390a2505050565b6000600460008473ffffffffffffffffffffffffffffffffffffffff1673ffffffffffffffffffffffffffffffffffffffff16815260200190815260200160002060008373ffffffffffffffffffffffffffffffffffffffff1673ffffffffffffffffffffffffffffffffffffffff16815260200190815260200160002060009054906101000a900460ff16905092915050565b6060600360008373ffffffffffffffffffffffffffffffffffffffff1673ffffffffffffffffffffffffffffffffffffffff16815260200190815260200160002080548060200260200160405190810160405280929190818152602001828054801561102357602002820191906000526020600020905b8160009054906101000a900473ffffffffffffffffffffffffffffffffffffffff1673ffffffffffffffffffffffffffffffffffffffff1681526020019060010190808311610fd9575b50505050509050919050565b60046020528160005260406000206020528060005260406000206000915091509054906101000a900460ff1681565b600160205280600052604060002060009150905080600001805461108190611a58565b80601f01602080910402602001604051908101604052809291908181526020018280546110ad90611a58565b80156110fa5780601f106110cf576101008083540402835291602001916110fa565b820191906000526020600020905b8154815290600101906020018083116110dd57829003601f168201915b50505050509080600101805461110f90611a58565b80601f016020809104026020016040519081016040528092919081815260200182805461113b90611a58565b80156111885780601f1061115d57610100808354040283529160200191611188565b820191906000526020600020905b81548152906001019060200180831161116b57829003601f168201915b5050505050908060020160009054906101000a900460ff16905083565b6060600280548060200260200160405190810160405280929190818152602001828054801561122957602002820191906000526020600020905b8160009054906101000a900473ffffffffffffffffffffffffffffffffffffffff1673ffffffffffffffffffffffffffffffffffffffff16815260200190600101908083116111df575b5050505050905090565b60008054906101000a900473ffffffffffffffffffffffffffffffffffffffff1681565b6000604051905090565b600080fd5b600080fd5b600073ffffffffffffffffffffffffffffffffffffffff82169050919050565b60006112968261126b565b9050919050565b6112a68161128b565b81146112b157600080fd5b50565b6000813590506112c38161129d565b92915050565b600080604083850312156112e0576112df611261565b5b60006112ee858286016112b4565b92505060206112ff858286016112b4565b9150509250929050565b60006020828403121561131f5761131e611261565b5b600061132d848285016112b4565b91505092915050565b600081519050919050565b600082825260208201905092915050565b60005b83811015611370578082015181840152602081019050611355565b60008484015250505050565b6000601f19601f8301169050919050565b600061139882611336565b6113a28185611341565b93506113b2818560208601611352565b6113bb8161137c565b840191505092915050565b600060408201905081810360008301526113e0818561138d565b905081810360208301526113f4818461138d565b90509392505050565b6000819050919050565b611410816113fd565b811461141b57600080fd5b50565b60008135905061142d81611407565b92915050565b6000806040838503121561144a57611449611261565b5b6000611458858286016112b4565b92505060206114698582860161141e565b9150509250929050565b61147c8161128b565b82525050565b60006020820190506114976000830184611473565b92915050565b600080fd5b600080fd5b7f4e487b7100000000000000000000000000000000000000000000000000000000600052604160045260246000fd5b6114df8261137c565b810181811067ffffffffffffffff821117156114fe576114fd6114a7565b5b80604052505050565b6000611511611257565b905061151d82826114d6565b919050565b600067ffffffffffffffff82111561153d5761153c6114a7565b5b6115468261137c565b9050602081019050919050565b82818337600083830152505050565b600061157561157084611522565b611507565b905082815260208101848484011115611591576115906114a2565b5b61159c848285611553565b509392505050565b600082601f8301126115b9576115b861149d565b5b81356115c9848260208601611562565b91505092915050565b6000806000606084860312156115eb576115ea611261565b5b60006115f9868287016112b4565b935050602084013567ffffffffffffffff81111561161a57611619611266565b5b611626868287016115a4565b925050604084013567ffffffffffffffff81111561164757611646611266565b5b611653868287016115a4565b9150509250925092565b60008115159050919050565b6116728161165d565b82525050565b600060208201905061168d6000830184611669565b92915050565b600081519050919050565b600082825260208201905092915050565b6000819050602082019050919050565b6116c88161128b565b82525050565b60006116da83836116bf565b60208301905092915050565b6000602082019050919050565b60006116fe82611693565b611708818561169e565b9350611713836116af565b8060005b8381101561174457815161172b88826116ce565b9750611736836116e6565b925050600181019050611717565b5085935050505092915050565b6000602082019050818103600083015261176b81846116f3565b905092915050565b6000606082019050818103600083015261178d818661138d565b905081810360208301526117a1818561138d565b90506117b06040830184611669565b949350505050565b7f446f63746f72206e6f7420726567697374657265640000000000000000000000600082015250565b60006117ee601583611341565b91506117f9826117b8565b602082019050919050565b6000602082019050818103600083015261181d816117e1565b9050919050565b7f41636365737320616c7265616479206772616e74656400000000000000000000600082015250565b600061185a601683611341565b915061186582611824565b602082019050919050565b600060208201905081810360008301526118898161184d565b9050919050565b7f416363657373206e6f74206772616e7465640000000000000000000000000000600082015250565b60006118c6601283611341565b91506118d182611890565b602082019050919050565b600060208201905081810360008301526118f5816118b9565b9050919050565b7f4f6e6c792070617469656e742063616e207265766f6b65206163636573730000600082015250565b6000611932601e83611341565b915061193d826118fc565b602082019050919050565b6000602082019050818103600083015261196181611925565b9050919050565b7f4e487b7100000000000000000000000000000000000000000000000000000000600052603260045260246000fd5b7f4e487b7100000000000000000000000000000000000000000000000000000000600052601160045260246000fd5b60006119d1826113fd565b91506119dc836113fd565b92508282039050818111156119f4576119f3611997565b5b92915050565b7f4e487b7100000000000000000000000000000000000000000000000000000000600052603160045260246000fd5b7f4e487b7100000000000000000000000000000000000000000000000000000000600052602260045260246000fd5b60006002820490506001821680611a7057607f821691505b602082108103611a8357611a82611a29565b5b50919050565b7f4f6e6c792061646d696e2063616e2063616c6c20746869732066756e6374696f60008201527f6e00000000000000000000000000000000000000000000000000000000000000602082015250565b6000611ae5602183611341565b9150611af082611a89565b604082019050919050565b60006020820190508181036000830152611b1481611ad8565b9050919050565b7f446f63746f7220616c7265616479207265676973746572656400000000000000600082015250565b6000611b51601983611341565b9150611b5c82611b1b565b602082019050919050565b60006020820190508181036000830152611b8081611b44565b9050919050565b60008190508160005260206000209050919050565b60006020601f8301049050919050565b600082821b905092915050565b600060088302611be97fffffffffffffffffffffffffffffffffffffffffffffffffffffffffffffffff82611bac565b611bf38683611bac565b95508019841693508086168417925050509392505050565b6000819050919050565b6000611c30611c2b611c26846113fd565b611c0b565b6113fd565b9050919050565b6000819050919050565b611c4a83611c15565b611c5e611c5682611c37565b848454611bb9565b825550505050565b600090565b611c73611c66565b611c7e818484611c41565b505050565b5b81811015611ca257611c97600082611c6b565b600181019050611c84565b5050565b601f821115611ce757611cb881611b87565b611cc184611b9c565b81016020851015611cd0578190505b611ce4611cdc85611b9c565b830182611c83565b50505b505050565b600082821c905092915050565b6000611d0a60001984600802611cec565b1980831691505092915050565b6000611d238383611cf9565b9150826002028217905092915050565b611d3c82611336565b67ffffffffffffffff811115611d5557611d546114a7565b5b611d5f8254611a58565b611d6a828285611ca6565b600060209050601f831160018114611d9d5760008415611d8b578287015190505b611d958582611d17565b865550611dfd565b601f198416611dab86611b87565b60005b82811015611dd357848901518255600182019150602085019450602081019050611dae565b86831015611df05784890151611dec601f891682611cf9565b8355505b6001600288020188555050505b50505050505056fea264697066735822122064824d4f2fa3f0afcff1f871ded6afeab5040c044e527e57c70c3aa34869602864736f6c63430008180033",
  "linkReferences": {},
  "deployedLinkReferences": {}
}