{
  "_format": "hh-sol-artifact-1",
  "contractName": "PatientManagement",
  "sourceName": "contracts/patientcontract.sol",
  "abi": [
    {
      "inputs": [],
      "stateMutability": "nonpayable",
      "type": "constructor"
    },
    {
      "anonymous": false,
      "inputs": [
        {
          "indexed": true,
          "internalType": "address",
          "name": "patientAddress",
          "type": "address"
        },
        {
          "indexed": true,
          "internalType": "address",
          "name": "doctorAddress",
          "type": "address"
        },
        {
          "indexed": false,
          "internalType": "string",
          "name": "ipfsHash",
          "type": "string"
        },
        {
          "indexed": false,
          "internalType": "uint256",
          "name": "timestamp",
          "type": "uint256"
        }
      ],
      "name": "MedicalRecordAdded",
      "type": "event"
    },
    {
      "anonymous": false,
      "inputs": [
        {
          "indexed": true,
          "internalType": "address",
          "name": "patientAddress",
          "type": "address"
        },
        {
          "indexed": false,
          "internalType": "string",
          "name": "oldIpfsHash",
          "type": "string"
        },
        {
          "indexed": false,
          "internalType": "string",
          "name": "newIpfsHash",
          "type": "string"
        },
        {
          "indexed": false,
          "internalType": "uint256",
          "name": "timestamp",
          "type": "uint256"
        }
      ],
      "name": "MedicalRecordUpdated",
      "type": "event"
    },
    {
      "anonymous": false,
      "inputs": [
        {
          "indexed": true,
          "internalType": "address",
          "name": "patientAddress",
          "type": "address"
        },
        {
          "indexed": false,
          "internalType": "string",
          "name": "username",
          "type": "string"
        },
        {
          "indexed": false,
          "internalType": "string",
          "name": "role",
          "type": "string"
        }
      ],
      "name": "PatientRegistered",
      "type": "event"
    },
    {
      "inputs": [
        {
          "internalType": "address",
          "name": "_patientAddress",
          "type": "address"
        },
        {
          "internalType": "string",
          "name": "_ipfsHash",
          "type": "string"
        },
        {
          "internalType": "string",
          "name": "_fileType",
          "type": "string"
        },
        {
          "internalType": "string",
          "name": "_fileName",
          "type": "string"
        },
        {
          "internalType": "string",
          "name": "_title",
          "type": "string"
        },
        {
          "internalType": "string",
          "name": "_resume",
          "type": "string"
        },
        {
          "internalType": "string",
          "name": "_previousVersion",
          "type": "string"
        }
      ],
      "name": "addMedicalRecord",
      "outputs": [],
      "stateMutability": "nonpayable",
      "type": "function"
    },
    {
      "inputs": [],
      "name": "admin",
      "outputs": [
        {
          "internalType": "address",
          "name": "",
          "type": "address"
        }
      ],
      "stateMutability": "view",
      "type": "function"
    },
    {
      "inputs": [
        {
          "internalType": "address",
          "name": "_patientAddress",
          "type": "address"
        }
      ],
      "name": "getActiveRecords",
      "outputs": [
        {
          "components": [
            {
              "internalType": "string",
              "name": "ipfsHash",
              "type": "string"
            },
            {
              "internalType": "string",
              "name": "fileType",
              "type": "string"
            },
            {
              "internalType": "string",
              "name": "fileName",
              "type": "string"
            },
            {
              "internalType": "string",
              "name": "title",
              "type": "string"
            },
            {
              "internalType": "string",
              "name": "resume",
              "type": "string"
            },
            {
              "internalType": "uint256",
              "name": "timestamp",
              "type": "uint256"
            },
            {
              "internalType": "address",
              "name": "doctor",
              "type": "address"
            },
            {
              "internalType": "bool",
              "name": "isActive",
              "type": "bool"
            },
            {
              "internalType": "string",
              "name": "previousVersion",
              "type": "string"
            }
          ],
          "internalType": "struct PatientManagement.MedicalRecord[]",
          "name": "",
          "type": "tuple[]"
        }
      ],
      "stateMutability": "view",
      "type": "function"
    },
    {
      "inputs": [
        {
          "internalType": "address",
          "name": "_patientAddress",
          "type": "address"
        }
      ],
      "name": "getMedicalRecords",
      "outputs": [
        {
          "components": [
            {
              "internalType": "string",
              "name": "ipfsHash",
              "type": "string"
            },
            {
              "internalType": "string",
              "name": "fileType",
              "type": "string"
            },
            {
              "internalType": "string",
              "name": "fileName",
              "type": "string"
            },
            {
              "internalType": "string",
              "name": "title",
              "type": "string"
            },
            {
              "internalType": "string",
              "name": "resume",
              "type": "string"
            },
            {
              "internalType": "uint256",
              "name": "timestamp",
              "type": "uint256"
            },
            {
              "internalType": "address",
              "name": "doctor",
              "type": "address"
            },
            {
              "internalType": "bool",
              "name": "isActive",
              "type": "bool"
            },
            {
              "internalType": "string",
              "name": "previousVersion",
              "type": "string"
            }
          ],
          "internalType": "struct PatientManagement.MedicalRecord[]",
          "name": "",
          "type": "tuple[]"
        }
      ],
      "stateMutability": "view",
      "type": "function"
    },
    {
      "inputs": [
        {
          "internalType": "address",
          "name": "_patientAddress",
          "type": "address"
        }
      ],
      "name": "getPatient",
      "outputs": [
        {
          "internalType": "string",
          "name": "username",
          "type": "string"
        },
        {
          "internalType": "string",
          "name": "role",
          "type": "string"
        }
      ],
      "stateMutability": "view",
      "type": "function"
    },
    {
      "inputs": [
        {
          "internalType": "address",
          "name": "",
          "type": "address"
        },
        {
          "internalType": "uint256",
          "name": "",
          "type": "uint256"
        }
      ],
      "name": "patientRecords",
      "outputs": [
        {
          "internalType": "string",
          "name": "ipfsHash",
          "type": "string"
        },
        {
          "internalType": "string",
          "name": "fileType",
          "type": "string"
        },
        {
          "internalType": "string",
          "name": "fileName",
          "type": "string"
        },
        {
          "internalType": "string",
          "name": "title",
          "type": "string"
        },
        {
          "internalType": "string",
          "name": "resume",
          "type": "string"
        },
        {
          "internalType": "uint256",
          "name": "timestamp",
          "type": "uint256"
        },
        {
          "internalType": "address",
          "name": "doctor",
          "type": "address"
        },
        {
          "internalType": "bool",
          "name": "isActive",
          "type": "bool"
        },
        {
          "internalType": "string",
          "name": "previousVersion",
          "type": "string"
        }
      ],
      "stateMutability": "view",
      "type": "function"
    },
    {
      "inputs": [
        {
          "internalType": "address",
          "name": "",
          "type": "address"
        }
      ],
      "name": "patients",
      "outputs": [
        {
          "internalType": "string",
          "name": "username",
          "type": "string"
        },
        {
          "internalType": "string",
          "name": "role",
          "type": "string"
        },
        {
          "internalType": "bool",
          "name": "isRegistered",
          "type": "bool"
        }
      ],
      "stateMutability": "view",
      "type": "function"
    },
    {
      "inputs": [
        {
          "internalType": "address",
          "name": "_patientAddress",
          "type": "address"
        },
        {
          "internalType": "string",
          "name": "_username",
          "type": "string"
        },
        {
          "internalType": "string",
          "name": "_role",
          "type": "string"
        }
      ],
      "name": "registerPatient",
      "outputs": [],
      "stateMutability": "nonpayable",
      "type": "function"
    }
  ],
  "bytecode": "0x60806040523480156200001157600080fd5b50336000806101000a81548173ffffffffffffffffffffffffffffffffffffffff021916908373ffffffffffffffffffffffffffffffffffffffff16021790555060405180606001604052806040518060400160405280600581526020017f61646d696e00000000000000000000000000000000000000000000000000000081525081526020016040518060400160405280600581526020017f61646d696e000000000000000000000000000000000000000000000000000000815250815260200160011515815250600160003373ffffffffffffffffffffffffffffffffffffffff1673ffffffffffffffffffffffffffffffffffffffff1681526020019081526020016000206000820151816000019081620001309190620003ec565b506020820151816001019081620001489190620003ec565b5060408201518160020160006101000a81548160ff021916908315150217905550905050620004d3565b600081519050919050565b7f4e487b7100000000000000000000000000000000000000000000000000000000600052604160045260246000fd5b7f4e487b7100000000000000000000000000000000000000000000000000000000600052602260045260246000fd5b60006002820490506001821680620001f457607f821691505b6020821081036200020a5762000209620001ac565b5b50919050565b60008190508160005260206000209050919050565b60006020601f8301049050919050565b600082821b905092915050565b600060088302620002747fffffffffffffffffffffffffffffffffffffffffffffffffffffffffffffffff8262000235565b62000280868362000235565b95508019841693508086168417925050509392505050565b6000819050919050565b6000819050919050565b6000620002cd620002c7620002c18462000298565b620002a2565b62000298565b9050919050565b6000819050919050565b620002e983620002ac565b62000301620002f882620002d4565b84845462000242565b825550505050565b600090565b6200031862000309565b62000325818484620002de565b505050565b5b818110156200034d57620003416000826200030e565b6001810190506200032b565b5050565b601f8211156200039c57620003668162000210565b620003718462000225565b8101602085101562000381578190505b62000399620003908562000225565b8301826200032a565b50505b505050565b600082821c905092915050565b6000620003c160001984600802620003a1565b1980831691505092915050565b6000620003dc8383620003ae565b9150826002028217905092915050565b620003f78262000172565b67ffffffffffffffff8111156200041357620004126200017d565b5b6200041f8254620001db565b6200042c82828562000351565b600060209050601f8311600181146200046457600084156200044f578287015190505b6200045b8582620003ce565b865550620004cb565b601f198416620004748662000210565b60005b828110156200049e5784890151825560018201915060208501945060208101905062000477565b86831015620004be5784890151620004ba601f891682620003ae565b8355505b6001600288020188555050505b505050505050565b612ac480620004e36000396000f3fe608060405234801561001057600080fd5b50600436106100885760003560e01c8063afd8297c1161005b578063afd8297c1461012f578063b5368e201461015f578063b717a67c14610190578063f851a440146101c057610088565b80630869cfbc1461008d57806337d91799146100bf5780636bc75e24146100db57806394f0df61146100f7575b600080fd5b6100a760048036038101906100a29190611c9d565b6101de565b6040516100b693929190611d75565b60405180910390f35b6100d960048036038101906100d49190611eef565b610325565b005b6100f560048036038101906100f09190611f7a565b610544565b005b610111600480360381019061010c91906120fa565b61096f565b60405161012699989796959493929190612158565b60405180910390f35b61014960048036038101906101449190611c9d565b610d37565b6040516101569190612430565b60405180910390f35b61017960048036038101906101749190611c9d565b61124c565b604051610187929190612452565b60405180910390f35b6101aa60048036038101906101a59190611c9d565b61147f565b6040516101b79190612430565b60405180910390f35b6101c8611ba3565b6040516101d59190612489565b60405180910390f35b6001602052806000526040600020600091509050806000018054610201906124d3565b80601f016020809104026020016040519081016040528092919081815260200182805461022d906124d3565b801561027a5780601f1061024f5761010080835404028352916020019161027a565b820191906000526020600020905b81548152906001019060200180831161025d57829003601f168201915b50505050509080600101805461028f906124d3565b80601f01602080910402602001604051908101604052809291908181526020018280546102bb906124d3565b80156103085780601f106102dd57610100808354040283529160200191610308565b820191906000526020600020905b8154815290600101906020018083116102eb57829003601f168201915b5050505050908060020160009054906101000a900460ff16905083565b60008054906101000a900473ffffffffffffffffffffffffffffffffffffffff1673ffffffffffffffffffffffffffffffffffffffff163373ffffffffffffffffffffffffffffffffffffffff16146103b3576040517f08c379a00000000000000000000000000000000000000000000000000000000081526004016103aa90612576565b60405180910390fd5b600160008473ffffffffffffffffffffffffffffffffffffffff1673ffffffffffffffffffffffffffffffffffffffff16815260200190815260200160002060020160009054906101000a900460ff1615610443576040517f08c379a000000000000000000000000000000000000000000000000000000000815260040161043a906125e2565b60405180910390fd5b604051806060016040528083815260200182815260200160011515815250600160008573ffffffffffffffffffffffffffffffffffffffff1673ffffffffffffffffffffffffffffffffffffffff16815260200190815260200160002060008201518160000190816104b591906127ae565b5060208201518160010190816104cb91906127ae565b5060408201518160020160006101000a81548160ff0219169083151502179055509050508273ffffffffffffffffffffffffffffffffffffffff167f5aad8bc7ad9861b16c6d01a65f54118dfe585a51e408ac2e7b9499148d515c418383604051610537929190612452565b60405180910390a2505050565b600160008873ffffffffffffffffffffffffffffffffffffffff1673ffffffffffffffffffffffffffffffffffffffff16815260200190815260200160002060020160009054906101000a900460ff166105d3576040517f08c379a00000000000000000000000000000000000000000000000000000000081526004016105ca906128cc565b60405180910390fd5b6000815111156106cf5760006003826040516105ef9190612928565b90815260200160405180910390205490506000600260008a73ffffffffffffffffffffffffffffffffffffffff1673ffffffffffffffffffffffffffffffffffffffff16815260200190815260200160002082815481106106535761065261293f565b5b906000526020600020906008020160060160146101000a81548160ff0219169083151502179055508773ffffffffffffffffffffffffffffffffffffffff167f265a47e189bdaf1e4e75ca93474dba2ad21591bb54b62e3b8633029a440dcbf68389426040516106c59392919061296e565b60405180910390a2505b60006040518061012001604052808881526020018781526020018681526020018581526020018481526020014281526020013373ffffffffffffffffffffffffffffffffffffffff168152602001600115158152602001838152509050600260008973ffffffffffffffffffffffffffffffffffffffff1673ffffffffffffffffffffffffffffffffffffffff16815260200190815260200160002081908060018154018082558091505060019003906000526020600020906008020160009091909190915060008201518160000190816107aa91906127ae565b5060208201518160010190816107c091906127ae565b5060408201518160020190816107d691906127ae565b5060608201518160030190816107ec91906127ae565b50608082015181600401908161080291906127ae565b5060a0820151816005015560c08201518160060160006101000a81548173ffffffffffffffffffffffffffffffffffffffff021916908373ffffffffffffffffffffffffffffffffffffffff16021790555060e08201518160060160146101000a81548160ff02191690831515021790555061010082015181600701908161088a91906127ae565b5050506001600260008a73ffffffffffffffffffffffffffffffffffffffff1673ffffffffffffffffffffffffffffffffffffffff168152602001908152602001600020805490506108dc91906129e2565b6003886040516108ec9190612928565b9081526020016040518091039020819055503373ffffffffffffffffffffffffffffffffffffffff168873ffffffffffffffffffffffffffffffffffffffff167f3b557cf6e59b06b2be083cba1999cdbf37ecfe98219c0ca02b7a608470419fd1894260405161095d929190612a16565b60405180910390a35050505050505050565b6002602052816000526040600020818154811061098b57600080fd5b9060005260206000209060080201600091509150508060000180546109af906124d3565b80601f01602080910402602001604051908101604052809291908181526020018280546109db906124d3565b8015610a285780601f106109fd57610100808354040283529160200191610a28565b820191906000526020600020905b815481529060010190602001808311610a0b57829003601f168201915b505050505090806001018054610a3d906124d3565b80601f0160208091040260200160405190810160405280929190818152602001828054610a69906124d3565b8015610ab65780601f10610a8b57610100808354040283529160200191610ab6565b820191906000526020600020905b815481529060010190602001808311610a9957829003601f168201915b505050505090806002018054610acb906124d3565b80601f0160208091040260200160405190810160405280929190818152602001828054610af7906124d3565b8015610b445780601f10610b1957610100808354040283529160200191610b44565b820191906000526020600020905b815481529060010190602001808311610b2757829003601f168201915b505050505090806003018054610b59906124d3565b80601f0160208091040260200160405190810160405280929190818152602001828054610b85906124d3565b8015610bd25780601f10610ba757610100808354040283529160200191610bd2565b820191906000526020600020905b815481529060010190602001808311610bb557829003601f168201915b505050505090806004018054610be7906124d3565b80601f0160208091040260200160405190810160405280929190818152602001828054610c13906124d3565b8015610c605780601f10610c3557610100808354040283529160200191610c60565b820191906000526020600020905b815481529060010190602001808311610c4357829003601f168201915b5050505050908060050154908060060160009054906101000a900473ffffffffffffffffffffffffffffffffffffffff16908060060160149054906101000a900460ff1690806007018054610cb4906124d3565b80601f0160208091040260200160405190810160405280929190818152602001828054610ce0906124d3565b8015610d2d5780601f10610d0257610100808354040283529160200191610d2d565b820191906000526020600020905b815481529060010190602001808311610d1057829003601f168201915b5050505050905089565b6060600160008373ffffffffffffffffffffffffffffffffffffffff1673ffffffffffffffffffffffffffffffffffffffff16815260200190815260200160002060020160009054906101000a900460ff16610dc8576040517f08c379a0000000000000000000000000000000000000000000000000000000008152600401610dbf906128cc565b60405180910390fd5b600260008373ffffffffffffffffffffffffffffffffffffffff1673ffffffffffffffffffffffffffffffffffffffff168152602001908152602001600020805480602002602001604051908101604052809291908181526020016000905b82821015611241578382906000526020600020906008020160405180610120016040529081600082018054610e5b906124d3565b80601f0160208091040260200160405190810160405280929190818152602001828054610e87906124d3565b8015610ed45780601f10610ea957610100808354040283529160200191610ed4565b820191906000526020600020905b815481529060010190602001808311610eb757829003601f168201915b50505050508152602001600182018054610eed906124d3565b80601f0160208091040260200160405190810160405280929190818152602001828054610f19906124d3565b8015610f665780601f10610f3b57610100808354040283529160200191610f66565b820191906000526020600020905b815481529060010190602001808311610f4957829003601f168201915b50505050508152602001600282018054610f7f906124d3565b80601f0160208091040260200160405190810160405280929190818152602001828054610fab906124d3565b8015610ff85780601f10610fcd57610100808354040283529160200191610ff8565b820191906000526020600020905b815481529060010190602001808311610fdb57829003601f168201915b50505050508152602001600382018054611011906124d3565b80601f016020809104026020016040519081016040528092919081815260200182805461103d906124d3565b801561108a5780601f1061105f5761010080835404028352916020019161108a565b820191906000526020600020905b81548152906001019060200180831161106d57829003601f168201915b505050505081526020016004820180546110a3906124d3565b80601f01602080910402602001604051908101604052809291908181526020018280546110cf906124d3565b801561111c5780601f106110f15761010080835404028352916020019161111c565b820191906000526020600020905b8154815290600101906020018083116110ff57829003601f168201915b50505050508152602001600582015481526020016006820160009054906101000a900473ffffffffffffffffffffffffffffffffffffffff1673ffffffffffffffffffffffffffffffffffffffff1673ffffffffffffffffffffffffffffffffffffffff1681526020016006820160149054906101000a900460ff161515151581526020016007820180546111b0906124d3565b80601f01602080910402602001604051908101604052809291908181526020018280546111dc906124d3565b80156112295780601f106111fe57610100808354040283529160200191611229565b820191906000526020600020905b81548152906001019060200180831161120c57829003601f168201915b50505050508152505081526020019060010190610e27565b505050509050919050565b606080600160008473ffffffffffffffffffffffffffffffffffffffff1673ffffffffffffffffffffffffffffffffffffffff16815260200190815260200160002060020160009054906101000a900460ff166112de576040517f08c379a00000000000000000000000000000000000000000000000000000000081526004016112d5906128cc565b60405180910390fd5b6000600160008573ffffffffffffffffffffffffffffffffffffffff1673ffffffffffffffffffffffffffffffffffffffff16815260200190815260200160002060405180606001604052908160008201805461133a906124d3565b80601f0160208091040260200160405190810160405280929190818152602001828054611366906124d3565b80156113b35780601f10611388576101008083540402835291602001916113b3565b820191906000526020600020905b81548152906001019060200180831161139657829003601f168201915b505050505081526020016001820180546113cc906124d3565b80601f01602080910402602001604051908101604052809291908181526020018280546113f8906124d3565b80156114455780601f1061141a57610100808354040283529160200191611445565b820191906000526020600020905b81548152906001019060200180831161142857829003601f168201915b505050505081526020016002820160009054906101000a900460ff1615151515815250509050806000015181602001519250925050915091565b6060600160008373ffffffffffffffffffffffffffffffffffffffff1673ffffffffffffffffffffffffffffffffffffffff16815260200190815260200160002060020160009054906101000a900460ff16611510576040517f08c379a0000000000000000000000000000000000000000000000000000000008152600401611507906128cc565b60405180910390fd5b6000805b600260008573ffffffffffffffffffffffffffffffffffffffff1673ffffffffffffffffffffffffffffffffffffffff168152602001908152602001600020805490508110156115ef57600260008573ffffffffffffffffffffffffffffffffffffffff1673ffffffffffffffffffffffffffffffffffffffff16815260200190815260200160002081815481106115af576115ae61293f565b5b906000526020600020906008020160060160149054906101000a900460ff16156115e25781806115de90612a46565b9250505b8080600101915050611514565b5060008167ffffffffffffffff81111561160c5761160b611dc4565b5b60405190808252806020026020018201604052801561164557816020015b611632611bc7565b81526020019060019003908161162a5790505b5090506000805b600260008773ffffffffffffffffffffffffffffffffffffffff1673ffffffffffffffffffffffffffffffffffffffff16815260200190815260200160002080549050811015611b9757600260008773ffffffffffffffffffffffffffffffffffffffff1673ffffffffffffffffffffffffffffffffffffffff16815260200190815260200160002081815481106116e7576116e661293f565b5b906000526020600020906008020160060160149054906101000a900460ff1615611b8a57600260008773ffffffffffffffffffffffffffffffffffffffff1673ffffffffffffffffffffffffffffffffffffffff168152602001908152602001600020818154811061175c5761175b61293f565b5b906000526020600020906008020160405180610120016040529081600082018054611786906124d3565b80601f01602080910402602001604051908101604052809291908181526020018280546117b2906124d3565b80156117ff5780601f106117d4576101008083540402835291602001916117ff565b820191906000526020600020905b8154815290600101906020018083116117e257829003601f168201915b50505050508152602001600182018054611818906124d3565b80601f0160208091040260200160405190810160405280929190818152602001828054611844906124d3565b80156118915780601f1061186657610100808354040283529160200191611891565b820191906000526020600020905b81548152906001019060200180831161187457829003601f168201915b505050505081526020016002820180546118aa906124d3565b80601f01602080910402602001604051908101604052809291908181526020018280546118d6906124d3565b80156119235780601f106118f857610100808354040283529160200191611923565b820191906000526020600020905b81548152906001019060200180831161190657829003601f168201915b5050505050815260200160038201805461193c906124d3565b80601f0160208091040260200160405190810160405280929190818152602001828054611968906124d3565b80156119b55780601f1061198a576101008083540402835291602001916119b5565b820191906000526020600020905b81548152906001019060200180831161199857829003601f168201915b505050505081526020016004820180546119ce906124d3565b80601f01602080910402602001604051908101604052809291908181526020018280546119fa906124d3565b8015611a475780601f10611a1c57610100808354040283529160200191611a47565b820191906000526020600020905b815481529060010190602001808311611a2a57829003601f168201915b50505050508152602001600582015481526020016006820160009054906101000a900473ffffffffffffffffffffffffffffffffffffffff1673ffffffffffffffffffffffffffffffffffffffff1673ffffffffffffffffffffffffffffffffffffffff1681526020016006820160149054906101000a900460ff16151515158152602001600782018054611adb906124d3565b80601f0160208091040260200160405190810160405280929190818152602001828054611b07906124d3565b8015611b545780601f10611b2957610100808354040283529160200191611b54565b820191906000526020600020905b815481529060010190602001808311611b3757829003601f168201915b505050505081525050838381518110611b7057611b6f61293f565b5b60200260200101819052508180611b8690612a46565b9250505b808060010191505061164c565b50819350505050919050565b60008054906101000a900473ffffffffffffffffffffffffffffffffffffffff1681565b604051806101200160405280606081526020016060815260200160608152602001606081526020016060815260200160008152602001600073ffffffffffffffffffffffffffffffffffffffff168152602001600015158152602001606081525090565b6000604051905090565b600080fd5b600080fd5b600073ffffffffffffffffffffffffffffffffffffffff82169050919050565b6000611c6a82611c3f565b9050919050565b611c7a81611c5f565b8114611c8557600080fd5b50565b600081359050611c9781611c71565b92915050565b600060208284031215611cb357611cb2611c35565b5b6000611cc184828501611c88565b91505092915050565b600081519050919050565b600082825260208201905092915050565b60005b83811015611d04578082015181840152602081019050611ce9565b60008484015250505050565b6000601f19601f8301169050919050565b6000611d2c82611cca565b611d368185611cd5565b9350611d46818560208601611ce6565b611d4f81611d10565b840191505092915050565b60008115159050919050565b611d6f81611d5a565b82525050565b60006060820190508181036000830152611d8f8186611d21565b90508181036020830152611da38185611d21565b9050611db26040830184611d66565b949350505050565b600080fd5b600080fd5b7f4e487b7100000000000000000000000000000000000000000000000000000000600052604160045260246000fd5b611dfc82611d10565b810181811067ffffffffffffffff82111715611e1b57611e1a611dc4565b5b80604052505050565b6000611e2e611c2b565b9050611e3a8282611df3565b919050565b600067ffffffffffffffff821115611e5a57611e59611dc4565b5b611e6382611d10565b9050602081019050919050565b82818337600083830152505050565b6000611e92611e8d84611e3f565b611e24565b905082815260208101848484011115611eae57611ead611dbf565b5b611eb9848285611e70565b509392505050565b600082601f830112611ed657611ed5611dba565b5b8135611ee6848260208601611e7f565b91505092915050565b600080600060608486031215611f0857611f07611c35565b5b6000611f1686828701611c88565b935050602084013567ffffffffffffffff811115611f3757611f36611c3a565b5b611f4386828701611ec1565b925050604084013567ffffffffffffffff811115611f6457611f63611c3a565b5b611f7086828701611ec1565b9150509250925092565b600080600080600080600060e0888a031215611f9957611f98611c35565b5b6000611fa78a828b01611c88565b975050602088013567ffffffffffffffff811115611fc857611fc7611c3a565b5b611fd48a828b01611ec1565b965050604088013567ffffffffffffffff811115611ff557611ff4611c3a565b5b6120018a828b01611ec1565b955050606088013567ffffffffffffffff81111561202257612021611c3a565b5b61202e8a828b01611ec1565b945050608088013567ffffffffffffffff81111561204f5761204e611c3a565b5b61205b8a828b01611ec1565b93505060a088013567ffffffffffffffff81111561207c5761207b611c3a565b5b6120888a828b01611ec1565b92505060c088013567ffffffffffffffff8111156120a9576120a8611c3a565b5b6120b58a828b01611ec1565b91505092959891949750929550565b6000819050919050565b6120d7816120c4565b81146120e257600080fd5b50565b6000813590506120f4816120ce565b92915050565b6000806040838503121561211157612110611c35565b5b600061211f85828601611c88565b9250506020612130858286016120e5565b9150509250929050565b612143816120c4565b82525050565b61215281611c5f565b82525050565b6000610120820190508181036000830152612173818c611d21565b90508181036020830152612187818b611d21565b9050818103604083015261219b818a611d21565b905081810360608301526121af8189611d21565b905081810360808301526121c38188611d21565b90506121d260a083018761213a565b6121df60c0830186612149565b6121ec60e0830185611d66565b8181036101008301526121ff8184611d21565b90509a9950505050505050505050565b600081519050919050565b600082825260208201905092915050565b6000819050602082019050919050565b600082825260208201905092915050565b600061225782611cca565b612261818561223b565b9350612271818560208601611ce6565b61227a81611d10565b840191505092915050565b61228e816120c4565b82525050565b61229d81611c5f565b82525050565b6122ac81611d5a565b82525050565b60006101208301600083015184820360008601526122d0828261224c565b915050602083015184820360208601526122ea828261224c565b91505060408301518482036040860152612304828261224c565b9150506060830151848203606086015261231e828261224c565b91505060808301518482036080860152612338828261224c565b91505060a083015161234d60a0860182612285565b5060c083015161236060c0860182612294565b5060e083015161237360e08601826122a3565b5061010083015184820361010086015261238d828261224c565b9150508091505092915050565b60006123a683836122b2565b905092915050565b6000602082019050919050565b60006123c68261220f565b6123d0818561221a565b9350836020820285016123e28561222b565b8060005b8581101561241e57848403895281516123ff858261239a565b945061240a836123ae565b925060208a019950506001810190506123e6565b50829750879550505050505092915050565b6000602082019050818103600083015261244a81846123bb565b905092915050565b6000604082019050818103600083015261246c8185611d21565b905081810360208301526124808184611d21565b90509392505050565b600060208201905061249e6000830184612149565b92915050565b7f4e487b7100000000000000000000000000000000000000000000000000000000600052602260045260246000fd5b600060028204905060018216806124eb57607f821691505b6020821081036124fe576124fd6124a4565b5b50919050565b7f4f6e6c792061646d696e2063616e2063616c6c20746869732066756e6374696f60008201527f6e00000000000000000000000000000000000000000000000000000000000000602082015250565b6000612560602183611cd5565b915061256b82612504565b604082019050919050565b6000602082019050818103600083015261258f81612553565b9050919050565b7f50617469656e7420616c72656164792072656769737465726564000000000000600082015250565b60006125cc601a83611cd5565b91506125d782612596565b602082019050919050565b600060208201905081810360008301526125fb816125bf565b9050919050565b60008190508160005260206000209050919050565b60006020601f8301049050919050565b600082821b905092915050565b6000600883026126647fffffffffffffffffffffffffffffffffffffffffffffffffffffffffffffffff82612627565b61266e8683612627565b95508019841693508086168417925050509392505050565b6000819050919050565b60006126ab6126a66126a1846120c4565b612686565b6120c4565b9050919050565b6000819050919050565b6126c583612690565b6126d96126d1826126b2565b848454612634565b825550505050565b600090565b6126ee6126e1565b6126f98184846126bc565b505050565b5b8181101561271d576127126000826126e6565b6001810190506126ff565b5050565b601f8211156127625761273381612602565b61273c84612617565b8101602085101561274b578190505b61275f61275785612617565b8301826126fe565b50505b505050565b600082821c905092915050565b600061278560001984600802612767565b1980831691505092915050565b600061279e8383612774565b9150826002028217905092915050565b6127b782611cca565b67ffffffffffffffff8111156127d0576127cf611dc4565b5b6127da82546124d3565b6127e5828285612721565b600060209050601f8311600181146128185760008415612806578287015190505b6128108582612792565b865550612878565b601f19841661282686612602565b60005b8281101561284e57848901518255600182019150602085019450602081019050612829565b8683101561286b5784890151612867601f891682612774565b8355505b6001600288020188555050505b505050505050565b7f50617469656e74206e6f74207265676973746572656400000000000000000000600082015250565b60006128b6601683611cd5565b91506128c182612880565b602082019050919050565b600060208201905081810360008301526128e5816128a9565b9050919050565b600081905092915050565b600061290282611cca565b61290c81856128ec565b935061291c818560208601611ce6565b80840191505092915050565b600061293482846128f7565b915081905092915050565b7f4e487b7100000000000000000000000000000000000000000000000000000000600052603260045260246000fd5b600060608201905081810360008301526129888186611d21565b9050818103602083015261299c8185611d21565b90506129ab604083018461213a565b949350505050565b7f4e487b7100000000000000000000000000000000000000000000000000000000600052601160045260246000fd5b60006129ed826120c4565b91506129f8836120c4565b9250828203905081811115612a1057612a0f6129b3565b5b92915050565b60006040820190508181036000830152612a308185611d21565b9050612a3f602083018461213a565b9392505050565b6000612a51826120c4565b91507fffffffffffffffffffffffffffffffffffffffffffffffffffffffffffffffff8203612a8357612a826129b3565b5b60018201905091905056fea26469706673582212205c1f348279e4b4aa535f01cd9c121423bb5df9f29b71e8ee5669b04772f1e5a964736f6c63430008180033",
  "linkReferences": {},
  "deployedLinkReferences": {}
}