{
  "_format": "hh-sol-artifact-1",
  "contractName": "PatientManagement",
  "sourceName": "contracts/patientcontract.sol",
  "abi": [
    {
      "inputs": [],
      "stateMutability": "nonpayable",
      "type": "constructor"
    },
    {
      "anonymous": false,
      "inputs": [
        {
          "indexed": true,
          "internalType": "address",
          "name": "patient",
          "type": "address"
        },
        {
          "indexed": true,
          "internalType": "address",
          "name": "viewer",
          "type": "address"
        },
        {
          "indexed": false,
          "internalType": "uint256",
          "name": "expiry",
          "type": "uint256"
        }
      ],
      "name": "AccessGranted",
      "type": "event"
    },
    {
      "anonymous": false,
      "inputs": [
        {
          "indexed": true,
          "internalType": "address",
          "name": "patient",
          "type": "address"
        },
        {
          "indexed": true,
          "internalType": "address",
          "name": "viewer",
          "type": "address"
        }
      ],
      "name": "AccessRequested",
      "type": "event"
    },
    {
      "anonymous": false,
      "inputs": [
        {
          "indexed": true,
          "internalType": "address",
          "name": "patient",
          "type": "address"
        },
        {
          "indexed": true,
          "internalType": "address",
          "name": "viewer",
          "type": "address"
        }
      ],
      "name": "AccessRevoked",
      "type": "event"
    },
    {
      "anonymous": false,
      "inputs": [
        {
          "indexed": true,
          "internalType": "address",
          "name": "patientAddress",
          "type": "address"
        },
        {
          "indexed": true,
          "internalType": "address",
          "name": "doctorAddress",
          "type": "address"
        },
        {
          "indexed": false,
          "internalType": "string",
          "name": "ipfsHash",
          "type": "string"
        },
        {
          "indexed": false,
          "internalType": "uint256",
          "name": "timestamp",
          "type": "uint256"
        }
      ],
      "name": "MedicalRecordAdded",
      "type": "event"
    },
    {
      "anonymous": false,
      "inputs": [
        {
          "indexed": true,
          "internalType": "address",
          "name": "patientAddress",
          "type": "address"
        },
        {
          "indexed": false,
          "internalType": "string",
          "name": "oldIpfsHash",
          "type": "string"
        },
        {
          "indexed": false,
          "internalType": "string",
          "name": "newIpfsHash",
          "type": "string"
        },
        {
          "indexed": false,
          "internalType": "uint256",
          "name": "timestamp",
          "type": "uint256"
        }
      ],
      "name": "MedicalRecordUpdated",
      "type": "event"
    },
    {
      "anonymous": false,
      "inputs": [
        {
          "indexed": true,
          "internalType": "address",
          "name": "patientAddress",
          "type": "address"
        },
        {
          "indexed": false,
          "internalType": "string",
          "name": "username",
          "type": "string"
        },
        {
          "indexed": false,
          "internalType": "string",
          "name": "role",
          "type": "string"
        }
      ],
      "name": "PatientRegistered",
      "type": "event"
    },
    {
      "inputs": [
        {
          "internalType": "address",
          "name": "",
          "type": "address"
        },
        {
          "internalType": "address",
          "name": "",
          "type": "address"
        }
      ],
      "name": "accessExpiry",
      "outputs": [
        {
          "internalType": "uint256",
          "name": "",
          "type": "uint256"
        }
      ],
      "stateMutability": "view",
      "type": "function"
    },
    {
      "inputs": [
        {
          "internalType": "address",
          "name": "_patientAddress",
          "type": "address"
        },
        {
          "internalType": "string",
          "name": "_ipfsHash",
          "type": "string"
        },
        {
          "internalType": "string",
          "name": "_fileType",
          "type": "string"
        },
        {
          "internalType": "string",
          "name": "_fileName",
          "type": "string"
        },
        {
          "internalType": "string",
          "name": "_title",
          "type": "string"
        },
        {
          "internalType": "string",
          "name": "_resume",
          "type": "string"
        },
        {
          "internalType": "string",
          "name": "_previousVersion",
          "type": "string"
        }
      ],
      "name": "addMedicalRecord",
      "outputs": [],
      "stateMutability": "nonpayable",
      "type": "function"
    },
    {
      "inputs": [],
      "name": "admin",
      "outputs": [
        {
          "internalType": "address",
          "name": "",
          "type": "address"
        }
      ],
      "stateMutability": "view",
      "type": "function"
    },
    {
      "inputs": [],
      "name": "doctorContractAddress",
      "outputs": [
        {
          "internalType": "address",
          "name": "",
          "type": "address"
        }
      ],
      "stateMutability": "view",
      "type": "function"
    },
    {
      "inputs": [
        {
          "internalType": "address",
          "name": "_patientAddress",
          "type": "address"
        }
      ],
      "name": "getActiveRecords",
      "outputs": [
        {
          "components": [
            {
              "internalType": "string",
              "name": "ipfsHash",
              "type": "string"
            },
            {
              "internalType": "string",
              "name": "fileType",
              "type": "string"
            },
            {
              "internalType": "string",
              "name": "fileName",
              "type": "string"
            },
            {
              "internalType": "string",
              "name": "title",
              "type": "string"
            },
            {
              "internalType": "string",
              "name": "resume",
              "type": "string"
            },
            {
              "internalType": "uint256",
              "name": "timestamp",
              "type": "uint256"
            },
            {
              "internalType": "address",
              "name": "doctor",
              "type": "address"
            },
            {
              "internalType": "bool",
              "name": "isActive",
              "type": "bool"
            },
            {
              "internalType": "string",
              "name": "previousVersion",
              "type": "string"
            }
          ],
          "internalType": "struct PatientManagement.MedicalRecord[]",
          "name": "",
          "type": "tuple[]"
        }
      ],
      "stateMutability": "view",
      "type": "function"
    },
    {
      "inputs": [
        {
          "internalType": "address",
          "name": "_patientAddress",
          "type": "address"
        }
      ],
      "name": "getMedicalRecords",
      "outputs": [
        {
          "components": [
            {
              "internalType": "string",
              "name": "ipfsHash",
              "type": "string"
            },
            {
              "internalType": "string",
              "name": "fileType",
              "type": "string"
            },
            {
              "internalType": "string",
              "name": "fileName",
              "type": "string"
            },
            {
              "internalType": "string",
              "name": "title",
              "type": "string"
            },
            {
              "internalType": "string",
              "name": "resume",
              "type": "string"
            },
            {
              "internalType": "uint256",
              "name": "timestamp",
              "type": "uint256"
            },
            {
              "internalType": "address",
              "name": "doctor",
              "type": "address"
            },
            {
              "internalType": "bool",
              "name": "isActive",
              "type": "bool"
            },
            {
              "internalType": "string",
              "name": "previousVersion",
              "type": "string"
            }
          ],
          "internalType": "struct PatientManagement.MedicalRecord[]",
          "name": "",
          "type": "tuple[]"
        }
      ],
      "stateMutability": "view",
      "type": "function"
    },
    {
      "inputs": [
        {
          "internalType": "address",
          "name": "_patientAddress",
          "type": "address"
        }
      ],
      "name": "getPatient",
      "outputs": [
        {
          "internalType": "string",
          "name": "username",
          "type": "string"
        },
        {
          "internalType": "string",
          "name": "role",
          "type": "string"
        }
      ],
      "stateMutability": "view",
      "type": "function"
    },
    {
      "inputs": [
        {
          "internalType": "address",
          "name": "_patientAddress",
          "type": "address"
        }
      ],
      "name": "getPatientAccessRequests",
      "outputs": [
        {
          "internalType": "address[]",
          "name": "",
          "type": "address[]"
        }
      ],
      "stateMutability": "view",
      "type": "function"
    },
    {
      "inputs": [
        {
          "internalType": "address",
          "name": "_patientAddress",
          "type": "address"
        }
      ],
      "name": "getSharedRecords",
      "outputs": [
        {
          "components": [
            {
              "internalType": "string",
              "name": "ipfsHash",
              "type": "string"
            },
            {
              "internalType": "string",
              "name": "fileType",
              "type": "string"
            },
            {
              "internalType": "string",
              "name": "fileName",
              "type": "string"
            },
            {
              "internalType": "string",
              "name": "title",
              "type": "string"
            },
            {
              "internalType": "string",
              "name": "resume",
              "type": "string"
            },
            {
              "internalType": "uint256",
              "name": "timestamp",
              "type": "uint256"
            },
            {
              "internalType": "address",
              "name": "doctor",
              "type": "address"
            },
            {
              "internalType": "bool",
              "name": "isActive",
              "type": "bool"
            },
            {
              "internalType": "string",
              "name": "previousVersion",
              "type": "string"
            }
          ],
          "internalType": "struct PatientManagement.MedicalRecord[]",
          "name": "",
          "type": "tuple[]"
        }
      ],
      "stateMutability": "view",
      "type": "function"
    },
    {
      "inputs": [
        {
          "internalType": "address",
          "name": "_viewer",
          "type": "address"
        },
        {
          "internalType": "uint256",
          "name": "_durationSeconds",
          "type": "uint256"
        }
      ],
      "name": "grantAccess",
      "outputs": [],
      "stateMutability": "nonpayable",
      "type": "function"
    },
    {
      "inputs": [
        {
          "internalType": "address",
          "name": "",
          "type": "address"
        },
        {
          "internalType": "uint256",
          "name": "",
          "type": "uint256"
        }
      ],
      "name": "patientAccessRequests",
      "outputs": [
        {
          "internalType": "address",
          "name": "",
          "type": "address"
        }
      ],
      "stateMutability": "view",
      "type": "function"
    },
    {
      "inputs": [
        {
          "internalType": "address",
          "name": "",
          "type": "address"
        },
        {
          "internalType": "uint256",
          "name": "",
          "type": "uint256"
        }
      ],
      "name": "patientRecords",
      "outputs": [
        {
          "internalType": "string",
          "name": "ipfsHash",
          "type": "string"
        },
        {
          "internalType": "string",
          "name": "fileType",
          "type": "string"
        },
        {
          "internalType": "string",
          "name": "fileName",
          "type": "string"
        },
        {
          "internalType": "string",
          "name": "title",
          "type": "string"
        },
        {
          "internalType": "string",
          "name": "resume",
          "type": "string"
        },
        {
          "internalType": "uint256",
          "name": "timestamp",
          "type": "uint256"
        },
        {
          "internalType": "address",
          "name": "doctor",
          "type": "address"
        },
        {
          "internalType": "bool",
          "name": "isActive",
          "type": "bool"
        },
        {
          "internalType": "string",
          "name": "previousVersion",
          "type": "string"
        }
      ],
      "stateMutability": "view",
      "type": "function"
    },
    {
      "inputs": [
        {
          "internalType": "address",
          "name": "",
          "type": "address"
        }
      ],
      "name": "patients",
      "outputs": [
        {
          "internalType": "string",
          "name": "username",
          "type": "string"
        },
        {
          "internalType": "string",
          "name": "role",
          "type": "string"
        },
        {
          "internalType": "bool",
          "name": "isRegistered",
          "type": "bool"
        }
      ],
      "stateMutability": "view",
      "type": "function"
    },
    {
      "inputs": [
        {
          "internalType": "address",
          "name": "_patientAddress",
          "type": "address"
        },
        {
          "internalType": "string",
          "name": "_username",
          "type": "string"
        },
        {
          "internalType": "string",
          "name": "_role",
          "type": "string"
        }
      ],
      "name": "registerPatient",
      "outputs": [],
      "stateMutability": "nonpayable",
      "type": "function"
    },
    {
      "inputs": [
        {
          "internalType": "address",
          "name": "_patientAddress",
          "type": "address"
        }
      ],
      "name": "requestAccess",
      "outputs": [],
      "stateMutability": "nonpayable",
      "type": "function"
    },
    {
      "inputs": [
        {
          "internalType": "address",
          "name": "_viewer",
          "type": "address"
        }
      ],
      "name": "revokeAccess",
      "outputs": [],
      "stateMutability": "nonpayable",
      "type": "function"
    },
    {
      "inputs": [
        {
          "internalType": "address",
          "name": "_doctorContractAddress",
          "type": "address"
        }
      ],
      "name": "setDoctorContractAddress",
      "outputs": [],
      "stateMutability": "nonpayable",
      "type": "function"
    }
  ],
  "bytecode": "0x60806040523480156200001157600080fd5b50336000806101000a81548173ffffffffffffffffffffffffffffffffffffffff021916908373ffffffffffffffffffffffffffffffffffffffff16021790555060405180606001604052806040518060400160405280600581526020017f61646d696e00000000000000000000000000000000000000000000000000000081525081526020016040518060400160405280600581526020017f61646d696e000000000000000000000000000000000000000000000000000000815250815260200160011515815250600160003373ffffffffffffffffffffffffffffffffffffffff1673ffffffffffffffffffffffffffffffffffffffff1681526020019081526020016000206000820151816000019081620001309190620003ec565b506020820151816001019081620001489190620003ec565b5060408201518160020160006101000a81548160ff021916908315150217905550905050620004d3565b600081519050919050565b7f4e487b7100000000000000000000000000000000000000000000000000000000600052604160045260246000fd5b7f4e487b7100000000000000000000000000000000000000000000000000000000600052602260045260246000fd5b60006002820490506001821680620001f457607f821691505b6020821081036200020a5762000209620001ac565b5b50919050565b60008190508160005260206000209050919050565b60006020601f8301049050919050565b600082821b905092915050565b600060088302620002747fffffffffffffffffffffffffffffffffffffffffffffffffffffffffffffffff8262000235565b62000280868362000235565b95508019841693508086168417925050509392505050565b6000819050919050565b6000819050919050565b6000620002cd620002c7620002c18462000298565b620002a2565b62000298565b9050919050565b6000819050919050565b620002e983620002ac565b62000301620002f882620002d4565b84845462000242565b825550505050565b600090565b6200031862000309565b62000325818484620002de565b505050565b5b818110156200034d57620003416000826200030e565b6001810190506200032b565b5050565b601f8211156200039c57620003668162000210565b620003718462000225565b8101602085101562000381578190505b62000399620003908562000225565b8301826200032a565b50505b505050565b600082821c905092915050565b6000620003c160001984600802620003a1565b1980831691505092915050565b6000620003dc8383620003ae565b9150826002028217905092915050565b620003f78262000172565b67ffffffffffffffff8111156200041357620004126200017d565b5b6200041f8254620001db565b6200042c82828562000351565b600060209050601f8311600181146200046457600084156200044f578287015190505b6200045b8582620003ce565b865550620004cb565b601f198416620004748662000210565b60005b828110156200049e5784890151825560018201915060208501945060208101905062000477565b86831015620004be5784890151620004ba601f891682620003ae565b8355505b6001600288020188555050505b505050505050565b61479180620004e36000396000f3fe608060405234801561001057600080fd5b506004361061010b5760003560e01c806394f0df61116100a2578063b717a67c11610071578063b717a67c146102d1578063bcbf718114610301578063eeaaa07514610331578063f851a44014610361578063fb6be4ec1461037f5761010b565b806394f0df611461021c5780639df8925614610254578063afd8297c14610270578063b5368e20146102a05761010b565b80636bc75e24116100de5780636bc75e24146101985780637933ef8b146101b457806385e68531146101d057806391f20596146101ec5761010b565b8063022cb271146101105780630869cfbc1461012c5780630ac1f2c51461015e57806337d917991461017c575b600080fd5b61012a6004803603810190610125919061342c565b6103af565b005b6101466004803603810190610141919061342c565b6107d3565b60405161015593929190613504565b60405180910390f35b61016661091a565b6040516101739190613558565b60405180910390f35b610196600480360381019061019191906136a8565b610940565b005b6101b260048036038101906101ad9190613733565b610b5f565b005b6101ce60048036038101906101c9919061342c565b610f8a565b005b6101ea60048036038101906101e5919061342c565b61105c565b005b6102066004803603810190610201919061387d565b6112aa565b60405161021391906138d6565b60405180910390f35b6102366004803603810190610231919061391d565b6112cf565b60405161024b9998979695949392919061395d565b60405180910390f35b61026e6004803603810190610269919061391d565b611697565b005b61028a6004803603810190610285919061342c565b611b3a565b6040516102979190613c35565b60405180910390f35b6102ba60048036038101906102b5919061342c565b61204f565b6040516102c8929190613c57565b60405180910390f35b6102eb60048036038101906102e6919061342c565b612282565b6040516102f89190613c35565b60405180910390f35b61031b6004803603810190610316919061342c565b612a14565b6040516103289190613c35565b60405180910390f35b61034b6004803603810190610346919061342c565b6131a9565b6040516103589190613d3d565b60405180910390f35b6103696132e4565b6040516103769190613558565b60405180910390f35b6103996004803603810190610394919061391d565b613308565b6040516103a69190613558565b60405180910390f35b600160008273ffffffffffffffffffffffffffffffffffffffff1673ffffffffffffffffffffffffffffffffffffffff16815260200190815260200160002060020160009054906101000a900460ff1661043e576040517f08c379a000000000000000000000000000000000000000000000000000000000815260040161043590613dab565b60405180910390fd5b3373ffffffffffffffffffffffffffffffffffffffff168173ffffffffffffffffffffffffffffffffffffffff16036104ac576040517f08c379a00000000000000000000000000000000000000000000000000000000081526004016104a390613e17565b60405180910390fd5b42600460008373ffffffffffffffffffffffffffffffffffffffff1673ffffffffffffffffffffffffffffffffffffffff16815260200190815260200160002060003373ffffffffffffffffffffffffffffffffffffffff1673ffffffffffffffffffffffffffffffffffffffff16815260200190815260200160002054111561056b576040517f08c379a000000000000000000000000000000000000000000000000000000000815260040161056290613e83565b60405180910390fd5b6000600660008373ffffffffffffffffffffffffffffffffffffffff1673ffffffffffffffffffffffffffffffffffffffff16815260200190815260200160002080548060200260200160405190810160405280929190818152602001828054801561062c57602002820191906000526020600020905b8160009054906101000a900473ffffffffffffffffffffffffffffffffffffffff1673ffffffffffffffffffffffffffffffffffffffff16815260200190600101908083116105e2575b5050505050905060005b81518110156106d4573373ffffffffffffffffffffffffffffffffffffffff1682828151811061066957610668613ea3565b5b602002602001015173ffffffffffffffffffffffffffffffffffffffff16036106c7576040517f08c379a00000000000000000000000000000000000000000000000000000000081526004016106be90613f1e565b60405180910390fd5b8080600101915050610636565b50600660008373ffffffffffffffffffffffffffffffffffffffff1673ffffffffffffffffffffffffffffffffffffffff168152602001908152602001600020339080600181540180825580915050600190039060005260206000200160009091909190916101000a81548173ffffffffffffffffffffffffffffffffffffffff021916908373ffffffffffffffffffffffffffffffffffffffff1602179055503373ffffffffffffffffffffffffffffffffffffffff168273ffffffffffffffffffffffffffffffffffffffff167f40c7749b16fdfb0d550f20273a7767875059d647af94f5a9610c63ad73dcc79f60405160405180910390a35050565b60016020528060005260406000206000915090508060000180546107f690613f6d565b80601f016020809104026020016040519081016040528092919081815260200182805461082290613f6d565b801561086f5780601f106108445761010080835404028352916020019161086f565b820191906000526020600020905b81548152906001019060200180831161085257829003601f168201915b50505050509080600101805461088490613f6d565b80601f01602080910402602001604051908101604052809291908181526020018280546108b090613f6d565b80156108fd5780601f106108d2576101008083540402835291602001916108fd565b820191906000526020600020905b8154815290600101906020018083116108e057829003601f168201915b5050505050908060020160009054906101000a900460ff16905083565b600560009054906101000a900473ffffffffffffffffffffffffffffffffffffffff1681565b60008054906101000a900473ffffffffffffffffffffffffffffffffffffffff1673ffffffffffffffffffffffffffffffffffffffff163373ffffffffffffffffffffffffffffffffffffffff16146109ce576040517f08c379a00000000000000000000000000000000000000000000000000000000081526004016109c590614010565b60405180910390fd5b600160008473ffffffffffffffffffffffffffffffffffffffff1673ffffffffffffffffffffffffffffffffffffffff16815260200190815260200160002060020160009054906101000a900460ff1615610a5e576040517f08c379a0000000000000000000000000000000000000000000000000000000008152600401610a559061407c565b60405180910390fd5b604051806060016040528083815260200182815260200160011515815250600160008573ffffffffffffffffffffffffffffffffffffffff1673ffffffffffffffffffffffffffffffffffffffff1681526020019081526020016000206000820151816000019081610ad09190614248565b506020820151816001019081610ae69190614248565b5060408201518160020160006101000a81548160ff0219169083151502179055509050508273ffffffffffffffffffffffffffffffffffffffff167f5aad8bc7ad9861b16c6d01a65f54118dfe585a51e408ac2e7b9499148d515c418383604051610b52929190613c57565b60405180910390a2505050565b600160008873ffffffffffffffffffffffffffffffffffffffff1673ffffffffffffffffffffffffffffffffffffffff16815260200190815260200160002060020160009054906101000a900460ff16610bee576040517f08c379a0000000000000000000000000000000000000000000000000000000008152600401610be590613dab565b60405180910390fd5b600081511115610cea576000600382604051610c0a9190614356565b90815260200160405180910390205490506000600260008a73ffffffffffffffffffffffffffffffffffffffff1673ffffffffffffffffffffffffffffffffffffffff1681526020019081526020016000208281548110610c6e57610c6d613ea3565b5b906000526020600020906008020160060160146101000a81548160ff0219169083151502179055508773ffffffffffffffffffffffffffffffffffffffff167f265a47e189bdaf1e4e75ca93474dba2ad21591bb54b62e3b8633029a440dcbf6838942604051610ce09392919061436d565b60405180910390a2505b60006040518061012001604052808881526020018781526020018681526020018581526020018481526020014281526020013373ffffffffffffffffffffffffffffffffffffffff168152602001600115158152602001838152509050600260008973ffffffffffffffffffffffffffffffffffffffff1673ffffffffffffffffffffffffffffffffffffffff1681526020019081526020016000208190806001815401808255809150506001900390600052602060002090600802016000909190919091506000820151816000019081610dc59190614248565b506020820151816001019081610ddb9190614248565b506040820151816002019081610df19190614248565b506060820151816003019081610e079190614248565b506080820151816004019081610e1d9190614248565b5060a0820151816005015560c08201518160060160006101000a81548173ffffffffffffffffffffffffffffffffffffffff021916908373ffffffffffffffffffffffffffffffffffffffff16021790555060e08201518160060160146101000a81548160ff021916908315150217905550610100820151816007019081610ea59190614248565b5050506001600260008a73ffffffffffffffffffffffffffffffffffffffff1673ffffffffffffffffffffffffffffffffffffffff16815260200190815260200160002080549050610ef791906143e1565b600388604051610f079190614356565b9081526020016040518091039020819055503373ffffffffffffffffffffffffffffffffffffffff168873ffffffffffffffffffffffffffffffffffffffff167f3b557cf6e59b06b2be083cba1999cdbf37ecfe98219c0ca02b7a608470419fd18942604051610f78929190614415565b60405180910390a35050505050505050565b60008054906101000a900473ffffffffffffffffffffffffffffffffffffffff1673ffffffffffffffffffffffffffffffffffffffff163373ffffffffffffffffffffffffffffffffffffffff1614611018576040517f08c379a000000000000000000000000000000000000000000000000000000000815260040161100f90614010565b60405180910390fd5b80600560006101000a81548173ffffffffffffffffffffffffffffffffffffffff021916908373ffffffffffffffffffffffffffffffffffffffff16021790555050565b600160003373ffffffffffffffffffffffffffffffffffffffff1673ffffffffffffffffffffffffffffffffffffffff16815260200190815260200160002060020160009054906101000a900460ff166110eb576040517f08c379a00000000000000000000000000000000000000000000000000000000081526004016110e290614491565b60405180910390fd5b6000600460003373ffffffffffffffffffffffffffffffffffffffff1673ffffffffffffffffffffffffffffffffffffffff16815260200190815260200160002060008373ffffffffffffffffffffffffffffffffffffffff1673ffffffffffffffffffffffffffffffffffffffff168152602001908152602001600020819055508073ffffffffffffffffffffffffffffffffffffffff163373ffffffffffffffffffffffffffffffffffffffff167f825c8be24eb0df19500f63e86c29e7d0d951e73056b889b891d85e40938d9b6e60405160405180910390a3600073ffffffffffffffffffffffffffffffffffffffff16600560009054906101000a900473ffffffffffffffffffffffffffffffffffffffff1673ffffffffffffffffffffffffffffffffffffffff16146112a757600560009054906101000a900473ffffffffffffffffffffffffffffffffffffffff1673ffffffffffffffffffffffffffffffffffffffff1663177870c282336040518363ffffffff1660e01b815260040161127a9291906144b1565b600060405180830381600087803b15801561129457600080fd5b505af19250505080156112a5575060015b505b50565b6004602052816000526040600020602052806000526040600020600091509150505481565b600260205281600052604060002081815481106112eb57600080fd5b90600052602060002090600802016000915091505080600001805461130f90613f6d565b80601f016020809104026020016040519081016040528092919081815260200182805461133b90613f6d565b80156113885780601f1061135d57610100808354040283529160200191611388565b820191906000526020600020905b81548152906001019060200180831161136b57829003601f168201915b50505050509080600101805461139d90613f6d565b80601f01602080910402602001604051908101604052809291908181526020018280546113c990613f6d565b80156114165780601f106113eb57610100808354040283529160200191611416565b820191906000526020600020905b8154815290600101906020018083116113f957829003601f168201915b50505050509080600201805461142b90613f6d565b80601f016020809104026020016040519081016040528092919081815260200182805461145790613f6d565b80156114a45780601f10611479576101008083540402835291602001916114a4565b820191906000526020600020905b81548152906001019060200180831161148757829003601f168201915b5050505050908060030180546114b990613f6d565b80601f01602080910402602001604051908101604052809291908181526020018280546114e590613f6d565b80156115325780601f1061150757610100808354040283529160200191611532565b820191906000526020600020905b81548152906001019060200180831161151557829003601f168201915b50505050509080600401805461154790613f6d565b80601f016020809104026020016040519081016040528092919081815260200182805461157390613f6d565b80156115c05780601f10611595576101008083540402835291602001916115c0565b820191906000526020600020905b8154815290600101906020018083116115a357829003601f168201915b5050505050908060050154908060060160009054906101000a900473ffffffffffffffffffffffffffffffffffffffff16908060060160149054906101000a900460ff169080600701805461161490613f6d565b80601f016020809104026020016040519081016040528092919081815260200182805461164090613f6d565b801561168d5780601f106116625761010080835404028352916020019161168d565b820191906000526020600020905b81548152906001019060200180831161167057829003601f168201915b5050505050905089565b600160003373ffffffffffffffffffffffffffffffffffffffff1673ffffffffffffffffffffffffffffffffffffffff16815260200190815260200160002060020160009054906101000a900460ff16611726576040517f08c379a000000000000000000000000000000000000000000000000000000000815260040161171d90614491565b60405180910390fd5b600073ffffffffffffffffffffffffffffffffffffffff168273ffffffffffffffffffffffffffffffffffffffff1603611795576040517f08c379a000000000000000000000000000000000000000000000000000000000815260040161178c90614526565b60405180910390fd5b80426117a19190614546565b600460003373ffffffffffffffffffffffffffffffffffffffff1673ffffffffffffffffffffffffffffffffffffffff16815260200190815260200160002060008473ffffffffffffffffffffffffffffffffffffffff1673ffffffffffffffffffffffffffffffffffffffff168152602001908152602001600020819055508173ffffffffffffffffffffffffffffffffffffffff163373ffffffffffffffffffffffffffffffffffffffff167f65d0cc1e52d49938ca4ad9f423c79c1b84d914b9a683fbc5d3f93ac3cc5635f5834261187c9190614546565b60405161188991906138d6565b60405180910390a3600073ffffffffffffffffffffffffffffffffffffffff16600560009054906101000a900473ffffffffffffffffffffffffffffffffffffffff1673ffffffffffffffffffffffffffffffffffffffff161461197157600560009054906101000a900473ffffffffffffffffffffffffffffffffffffffff1673ffffffffffffffffffffffffffffffffffffffff16630ff4218883336040518363ffffffff1660e01b81526004016119449291906144b1565b600060405180830381600087803b15801561195e57600080fd5b505af192505050801561196f575060015b505b6000600660003373ffffffffffffffffffffffffffffffffffffffff1673ffffffffffffffffffffffffffffffffffffffff168152602001908152602001600020905060005b8180549050811015611b34578373ffffffffffffffffffffffffffffffffffffffff168282815481106119ed576119ec613ea3565b5b9060005260206000200160009054906101000a900473ffffffffffffffffffffffffffffffffffffffff1673ffffffffffffffffffffffffffffffffffffffff1603611b27578160018380549050611a4591906143e1565b81548110611a5657611a55613ea3565b5b9060005260206000200160009054906101000a900473ffffffffffffffffffffffffffffffffffffffff16828281548110611a9457611a93613ea3565b5b9060005260206000200160006101000a81548173ffffffffffffffffffffffffffffffffffffffff021916908373ffffffffffffffffffffffffffffffffffffffff16021790555081805480611aed57611aec61457a565b5b6001900381819060005260206000200160006101000a81549073ffffffffffffffffffffffffffffffffffffffff02191690559055611b34565b80806001019150506119b7565b50505050565b6060600160008373ffffffffffffffffffffffffffffffffffffffff1673ffffffffffffffffffffffffffffffffffffffff16815260200190815260200160002060020160009054906101000a900460ff16611bcb576040517f08c379a0000000000000000000000000000000000000000000000000000000008152600401611bc290613dab565b60405180910390fd5b600260008373ffffffffffffffffffffffffffffffffffffffff1673ffffffffffffffffffffffffffffffffffffffff168152602001908152602001600020805480602002602001604051908101604052809291908181526020016000905b82821015612044578382906000526020600020906008020160405180610120016040529081600082018054611c5e90613f6d565b80601f0160208091040260200160405190810160405280929190818152602001828054611c8a90613f6d565b8015611cd75780601f10611cac57610100808354040283529160200191611cd7565b820191906000526020600020905b815481529060010190602001808311611cba57829003601f168201915b50505050508152602001600182018054611cf090613f6d565b80601f0160208091040260200160405190810160405280929190818152602001828054611d1c90613f6d565b8015611d695780601f10611d3e57610100808354040283529160200191611d69565b820191906000526020600020905b815481529060010190602001808311611d4c57829003601f168201915b50505050508152602001600282018054611d8290613f6d565b80601f0160208091040260200160405190810160405280929190818152602001828054611dae90613f6d565b8015611dfb5780601f10611dd057610100808354040283529160200191611dfb565b820191906000526020600020905b815481529060010190602001808311611dde57829003601f168201915b50505050508152602001600382018054611e1490613f6d565b80601f0160208091040260200160405190810160405280929190818152602001828054611e4090613f6d565b8015611e8d5780601f10611e6257610100808354040283529160200191611e8d565b820191906000526020600020905b815481529060010190602001808311611e7057829003601f168201915b50505050508152602001600482018054611ea690613f6d565b80601f0160208091040260200160405190810160405280929190818152602001828054611ed290613f6d565b8015611f1f5780601f10611ef457610100808354040283529160200191611f1f565b820191906000526020600020905b815481529060010190602001808311611f0257829003601f168201915b50505050508152602001600582015481526020016006820160009054906101000a900473ffffffffffffffffffffffffffffffffffffffff1673ffffffffffffffffffffffffffffffffffffffff1673ffffffffffffffffffffffffffffffffffffffff1681526020016006820160149054906101000a900460ff16151515158152602001600782018054611fb390613f6d565b80601f0160208091040260200160405190810160405280929190818152602001828054611fdf90613f6d565b801561202c5780601f106120015761010080835404028352916020019161202c565b820191906000526020600020905b81548152906001019060200180831161200f57829003601f168201915b50505050508152505081526020019060010190611c2a565b505050509050919050565b606080600160008473ffffffffffffffffffffffffffffffffffffffff1673ffffffffffffffffffffffffffffffffffffffff16815260200190815260200160002060020160009054906101000a900460ff166120e1576040517f08c379a00000000000000000000000000000000000000000000000000000000081526004016120d890613dab565b60405180910390fd5b6000600160008573ffffffffffffffffffffffffffffffffffffffff1673ffffffffffffffffffffffffffffffffffffffff16815260200190815260200160002060405180606001604052908160008201805461213d90613f6d565b80601f016020809104026020016040519081016040528092919081815260200182805461216990613f6d565b80156121b65780601f1061218b576101008083540402835291602001916121b6565b820191906000526020600020905b81548152906001019060200180831161219957829003601f168201915b505050505081526020016001820180546121cf90613f6d565b80601f01602080910402602001604051908101604052809291908181526020018280546121fb90613f6d565b80156122485780601f1061221d57610100808354040283529160200191612248565b820191906000526020600020905b81548152906001019060200180831161222b57829003601f168201915b505050505081526020016002820160009054906101000a900460ff1615151515815250509050806000015181602001519250925050915091565b6060600160008373ffffffffffffffffffffffffffffffffffffffff1673ffffffffffffffffffffffffffffffffffffffff16815260200190815260200160002060020160009054906101000a900460ff16612313576040517f08c379a000000000000000000000000000000000000000000000000000000000815260040161230a90613dab565b60405180910390fd5b8173ffffffffffffffffffffffffffffffffffffffff163373ffffffffffffffffffffffffffffffffffffffff1614612381576040517f08c379a00000000000000000000000000000000000000000000000000000000081526004016123789061461b565b60405180910390fd5b6000805b600260008573ffffffffffffffffffffffffffffffffffffffff1673ffffffffffffffffffffffffffffffffffffffff1681526020019081526020016000208054905081101561246057600260008573ffffffffffffffffffffffffffffffffffffffff1673ffffffffffffffffffffffffffffffffffffffff16815260200190815260200160002081815481106124205761241f613ea3565b5b906000526020600020906008020160060160149054906101000a900460ff161561245357818061244f9061463b565b9250505b8080600101915050612385565b5060008167ffffffffffffffff81111561247d5761247c61357d565b5b6040519080825280602002602001820160405280156124b657816020015b6124a3613356565b81526020019060019003908161249b5790505b5090506000805b600260008773ffffffffffffffffffffffffffffffffffffffff1673ffffffffffffffffffffffffffffffffffffffff16815260200190815260200160002080549050811015612a0857600260008773ffffffffffffffffffffffffffffffffffffffff1673ffffffffffffffffffffffffffffffffffffffff168152602001908152602001600020818154811061255857612557613ea3565b5b906000526020600020906008020160060160149054906101000a900460ff16156129fb57600260008773ffffffffffffffffffffffffffffffffffffffff1673ffffffffffffffffffffffffffffffffffffffff16815260200190815260200160002081815481106125cd576125cc613ea3565b5b9060005260206000209060080201604051806101200160405290816000820180546125f790613f6d565b80601f016020809104026020016040519081016040528092919081815260200182805461262390613f6d565b80156126705780601f1061264557610100808354040283529160200191612670565b820191906000526020600020905b81548152906001019060200180831161265357829003601f168201915b5050505050815260200160018201805461268990613f6d565b80601f01602080910402602001604051908101604052809291908181526020018280546126b590613f6d565b80156127025780601f106126d757610100808354040283529160200191612702565b820191906000526020600020905b8154815290600101906020018083116126e557829003601f168201915b5050505050815260200160028201805461271b90613f6d565b80601f016020809104026020016040519081016040528092919081815260200182805461274790613f6d565b80156127945780601f1061276957610100808354040283529160200191612794565b820191906000526020600020905b81548152906001019060200180831161277757829003601f168201915b505050505081526020016003820180546127ad90613f6d565b80601f01602080910402602001604051908101604052809291908181526020018280546127d990613f6d565b80156128265780601f106127fb57610100808354040283529160200191612826565b820191906000526020600020905b81548152906001019060200180831161280957829003601f168201915b5050505050815260200160048201805461283f90613f6d565b80601f016020809104026020016040519081016040528092919081815260200182805461286b90613f6d565b80156128b85780601f1061288d576101008083540402835291602001916128b8565b820191906000526020600020905b81548152906001019060200180831161289b57829003601f168201915b50505050508152602001600582015481526020016006820160009054906101000a900473ffffffffffffffffffffffffffffffffffffffff1673ffffffffffffffffffffffffffffffffffffffff1673ffffffffffffffffffffffffffffffffffffffff1681526020016006820160149054906101000a900460ff1615151515815260200160078201805461294c90613f6d565b80601f016020809104026020016040519081016040528092919081815260200182805461297890613f6d565b80156129c55780601f1061299a576101008083540402835291602001916129c5565b820191906000526020600020905b8154815290600101906020018083116129a857829003601f168201915b5050505050815250508383815181106129e1576129e0613ea3565b5b602002602001018190525081806129f79061463b565b9250505b80806001019150506124bd565b50819350505050919050565b606060003373ffffffffffffffffffffffffffffffffffffffff168373ffffffffffffffffffffffffffffffffffffffff16149050600042600460008673ffffffffffffffffffffffffffffffffffffffff1673ffffffffffffffffffffffffffffffffffffffff16815260200190815260200160002060003373ffffffffffffffffffffffffffffffffffffffff1673ffffffffffffffffffffffffffffffffffffffff168152602001908152602001600020541190508180612ad55750805b612b14576040517f08c379a0000000000000000000000000000000000000000000000000000000008152600401612b0b906146cf565b60405180910390fd5b6000805b600260008773ffffffffffffffffffffffffffffffffffffffff1673ffffffffffffffffffffffffffffffffffffffff16815260200190815260200160002080549050811015612bf357600260008773ffffffffffffffffffffffffffffffffffffffff1673ffffffffffffffffffffffffffffffffffffffff1681526020019081526020016000208181548110612bb357612bb2613ea3565b5b906000526020600020906008020160060160149054906101000a900460ff1615612be6578180612be29061463b565b9250505b8080600101915050612b18565b5060008167ffffffffffffffff811115612c1057612c0f61357d565b5b604051908082528060200260200182016040528015612c4957816020015b612c36613356565b815260200190600190039081612c2e5790505b5090506000805b600260008973ffffffffffffffffffffffffffffffffffffffff1673ffffffffffffffffffffffffffffffffffffffff1681526020019081526020016000208054905081101561319b57600260008973ffffffffffffffffffffffffffffffffffffffff1673ffffffffffffffffffffffffffffffffffffffff1681526020019081526020016000208181548110612ceb57612cea613ea3565b5b906000526020600020906008020160060160149054906101000a900460ff161561318e57600260008973ffffffffffffffffffffffffffffffffffffffff1673ffffffffffffffffffffffffffffffffffffffff1681526020019081526020016000208181548110612d6057612d5f613ea3565b5b906000526020600020906008020160405180610120016040529081600082018054612d8a90613f6d565b80601f0160208091040260200160405190810160405280929190818152602001828054612db690613f6d565b8015612e035780601f10612dd857610100808354040283529160200191612e03565b820191906000526020600020905b815481529060010190602001808311612de657829003601f168201915b50505050508152602001600182018054612e1c90613f6d565b80601f0160208091040260200160405190810160405280929190818152602001828054612e4890613f6d565b8015612e955780601f10612e6a57610100808354040283529160200191612e95565b820191906000526020600020905b815481529060010190602001808311612e7857829003601f168201915b50505050508152602001600282018054612eae90613f6d565b80601f0160208091040260200160405190810160405280929190818152602001828054612eda90613f6d565b8015612f275780601f10612efc57610100808354040283529160200191612f27565b820191906000526020600020905b815481529060010190602001808311612f0a57829003601f168201915b50505050508152602001600382018054612f4090613f6d565b80601f0160208091040260200160405190810160405280929190818152602001828054612f6c90613f6d565b8015612fb95780601f10612f8e57610100808354040283529160200191612fb9565b820191906000526020600020905b815481529060010190602001808311612f9c57829003601f168201915b50505050508152602001600482018054612fd290613f6d565b80601f0160208091040260200160405190810160405280929190818152602001828054612ffe90613f6d565b801561304b5780601f106130205761010080835404028352916020019161304b565b820191906000526020600020905b81548152906001019060200180831161302e57829003601f168201915b50505050508152602001600582015481526020016006820160009054906101000a900473ffffffffffffffffffffffffffffffffffffffff1673ffffffffffffffffffffffffffffffffffffffff1673ffffffffffffffffffffffffffffffffffffffff1681526020016006820160149054906101000a900460ff161515151581526020016007820180546130df90613f6d565b80601f016020809104026020016040519081016040528092919081815260200182805461310b90613f6d565b80156131585780601f1061312d57610100808354040283529160200191613158565b820191906000526020600020905b81548152906001019060200180831161313b57829003601f168201915b50505050508152505083838151811061317457613173613ea3565b5b6020026020010181905250818061318a9061463b565b9250505b8080600101915050612c50565b508195505050505050919050565b60608173ffffffffffffffffffffffffffffffffffffffff163373ffffffffffffffffffffffffffffffffffffffff1614613219576040517f08c379a00000000000000000000000000000000000000000000000000000000081526004016132109061473b565b60405180910390fd5b600660008373ffffffffffffffffffffffffffffffffffffffff1673ffffffffffffffffffffffffffffffffffffffff1681526020019081526020016000208054806020026020016040519081016040528092919081815260200182805480156132d857602002820191906000526020600020905b8160009054906101000a900473ffffffffffffffffffffffffffffffffffffffff1673ffffffffffffffffffffffffffffffffffffffff168152602001906001019080831161328e575b50505050509050919050565b60008054906101000a900473ffffffffffffffffffffffffffffffffffffffff1681565b6006602052816000526040600020818154811061332457600080fd5b906000526020600020016000915091509054906101000a900473ffffffffffffffffffffffffffffffffffffffff1681565b604051806101200160405280606081526020016060815260200160608152602001606081526020016060815260200160008152602001600073ffffffffffffffffffffffffffffffffffffffff168152602001600015158152602001606081525090565b6000604051905090565b600080fd5b600080fd5b600073ffffffffffffffffffffffffffffffffffffffff82169050919050565b60006133f9826133ce565b9050919050565b613409816133ee565b811461341457600080fd5b50565b60008135905061342681613400565b92915050565b600060208284031215613442576134416133c4565b5b600061345084828501613417565b91505092915050565b600081519050919050565b600082825260208201905092915050565b60005b83811015613493578082015181840152602081019050613478565b60008484015250505050565b6000601f19601f8301169050919050565b60006134bb82613459565b6134c58185613464565b93506134d5818560208601613475565b6134de8161349f565b840191505092915050565b60008115159050919050565b6134fe816134e9565b82525050565b6000606082019050818103600083015261351e81866134b0565b9050818103602083015261353281856134b0565b905061354160408301846134f5565b949350505050565b613552816133ee565b82525050565b600060208201905061356d6000830184613549565b92915050565b600080fd5b600080fd5b7f4e487b7100000000000000000000000000000000000000000000000000000000600052604160045260246000fd5b6135b58261349f565b810181811067ffffffffffffffff821117156135d4576135d361357d565b5b80604052505050565b60006135e76133ba565b90506135f382826135ac565b919050565b600067ffffffffffffffff8211156136135761361261357d565b5b61361c8261349f565b9050602081019050919050565b82818337600083830152505050565b600061364b613646846135f8565b6135dd565b90508281526020810184848401111561366757613666613578565b5b613672848285613629565b509392505050565b600082601f83011261368f5761368e613573565b5b813561369f848260208601613638565b91505092915050565b6000806000606084860312156136c1576136c06133c4565b5b60006136cf86828701613417565b935050602084013567ffffffffffffffff8111156136f0576136ef6133c9565b5b6136fc8682870161367a565b925050604084013567ffffffffffffffff81111561371d5761371c6133c9565b5b6137298682870161367a565b9150509250925092565b600080600080600080600060e0888a031215613752576137516133c4565b5b60006137608a828b01613417565b975050602088013567ffffffffffffffff811115613781576137806133c9565b5b61378d8a828b0161367a565b965050604088013567ffffffffffffffff8111156137ae576137ad6133c9565b5b6137ba8a828b0161367a565b955050606088013567ffffffffffffffff8111156137db576137da6133c9565b5b6137e78a828b0161367a565b945050608088013567ffffffffffffffff811115613808576138076133c9565b5b6138148a828b0161367a565b93505060a088013567ffffffffffffffff811115613835576138346133c9565b5b6138418a828b0161367a565b92505060c088013567ffffffffffffffff811115613862576138616133c9565b5b61386e8a828b0161367a565b91505092959891949750929550565b60008060408385031215613894576138936133c4565b5b60006138a285828601613417565b92505060206138b385828601613417565b9150509250929050565b6000819050919050565b6138d0816138bd565b82525050565b60006020820190506138eb60008301846138c7565b92915050565b6138fa816138bd565b811461390557600080fd5b50565b600081359050613917816138f1565b92915050565b60008060408385031215613934576139336133c4565b5b600061394285828601613417565b925050602061395385828601613908565b9150509250929050565b6000610120820190508181036000830152613978818c6134b0565b9050818103602083015261398c818b6134b0565b905081810360408301526139a0818a6134b0565b905081810360608301526139b481896134b0565b905081810360808301526139c881886134b0565b90506139d760a08301876138c7565b6139e460c0830186613549565b6139f160e08301856134f5565b818103610100830152613a0481846134b0565b90509a9950505050505050505050565b600081519050919050565b600082825260208201905092915050565b6000819050602082019050919050565b600082825260208201905092915050565b6000613a5c82613459565b613a668185613a40565b9350613a76818560208601613475565b613a7f8161349f565b840191505092915050565b613a93816138bd565b82525050565b613aa2816133ee565b82525050565b613ab1816134e9565b82525050565b6000610120830160008301518482036000860152613ad58282613a51565b91505060208301518482036020860152613aef8282613a51565b91505060408301518482036040860152613b098282613a51565b91505060608301518482036060860152613b238282613a51565b91505060808301518482036080860152613b3d8282613a51565b91505060a0830151613b5260a0860182613a8a565b5060c0830151613b6560c0860182613a99565b5060e0830151613b7860e0860182613aa8565b50610100830151848203610100860152613b928282613a51565b9150508091505092915050565b6000613bab8383613ab7565b905092915050565b6000602082019050919050565b6000613bcb82613a14565b613bd58185613a1f565b935083602082028501613be785613a30565b8060005b85811015613c235784840389528151613c048582613b9f565b9450613c0f83613bb3565b925060208a01995050600181019050613beb565b50829750879550505050505092915050565b60006020820190508181036000830152613c4f8184613bc0565b905092915050565b60006040820190508181036000830152613c7181856134b0565b90508181036020830152613c8581846134b0565b90509392505050565b600081519050919050565b600082825260208201905092915050565b6000819050602082019050919050565b6000613cc68383613a99565b60208301905092915050565b6000602082019050919050565b6000613cea82613c8e565b613cf48185613c99565b9350613cff83613caa565b8060005b83811015613d30578151613d178882613cba565b9750613d2283613cd2565b925050600181019050613d03565b5085935050505092915050565b60006020820190508181036000830152613d578184613cdf565b905092915050565b7f50617469656e74206e6f74207265676973746572656400000000000000000000600082015250565b6000613d95601683613464565b9150613da082613d5f565b602082019050919050565b60006020820190508181036000830152613dc481613d88565b9050919050565b7f43616e6e6f7420726571756573742061636365737320746f2073656c66000000600082015250565b6000613e01601d83613464565b9150613e0c82613dcb565b602082019050919050565b60006020820190508181036000830152613e3081613df4565b9050919050565b7f416c726561647920686173206163636573730000000000000000000000000000600082015250565b6000613e6d601283613464565b9150613e7882613e37565b602082019050919050565b60006020820190508181036000830152613e9c81613e60565b9050919050565b7f4e487b7100000000000000000000000000000000000000000000000000000000600052603260045260246000fd5b7f5265717565737420616c72656164792070656e64696e67000000000000000000600082015250565b6000613f08601783613464565b9150613f1382613ed2565b602082019050919050565b60006020820190508181036000830152613f3781613efb565b9050919050565b7f4e487b7100000000000000000000000000000000000000000000000000000000600052602260045260246000fd5b60006002820490506001821680613f8557607f821691505b602082108103613f9857613f97613f3e565b5b50919050565b7f4f6e6c792061646d696e2063616e2063616c6c20746869732066756e6374696f60008201527f6e00000000000000000000000000000000000000000000000000000000000000602082015250565b6000613ffa602183613464565b915061400582613f9e565b604082019050919050565b6000602082019050818103600083015261402981613fed565b9050919050565b7f50617469656e7420616c72656164792072656769737465726564000000000000600082015250565b6000614066601a83613464565b915061407182614030565b602082019050919050565b6000602082019050818103600083015261409581614059565b9050919050565b60008190508160005260206000209050919050565b60006020601f8301049050919050565b600082821b905092915050565b6000600883026140fe7fffffffffffffffffffffffffffffffffffffffffffffffffffffffffffffffff826140c1565b61410886836140c1565b95508019841693508086168417925050509392505050565b6000819050919050565b600061414561414061413b846138bd565b614120565b6138bd565b9050919050565b6000819050919050565b61415f8361412a565b61417361416b8261414c565b8484546140ce565b825550505050565b600090565b61418861417b565b614193818484614156565b505050565b5b818110156141b7576141ac600082614180565b600181019050614199565b5050565b601f8211156141fc576141cd8161409c565b6141d6846140b1565b810160208510156141e5578190505b6141f96141f1856140b1565b830182614198565b50505b505050565b600082821c905092915050565b600061421f60001984600802614201565b1980831691505092915050565b6000614238838361420e565b9150826002028217905092915050565b61425182613459565b67ffffffffffffffff81111561426a5761426961357d565b5b6142748254613f6d565b61427f8282856141bb565b600060209050601f8311600181146142b257600084156142a0578287015190505b6142aa858261422c565b865550614312565b601f1984166142c08661409c565b60005b828110156142e8578489015182556001820191506020850194506020810190506142c3565b868310156143055784890151614301601f89168261420e565b8355505b6001600288020188555050505b505050505050565b600081905092915050565b600061433082613459565b61433a818561431a565b935061434a818560208601613475565b80840191505092915050565b60006143628284614325565b915081905092915050565b6000606082019050818103600083015261438781866134b0565b9050818103602083015261439b81856134b0565b90506143aa60408301846138c7565b949350505050565b7f4e487b7100000000000000000000000000000000000000000000000000000000600052601160045260246000fd5b60006143ec826138bd565b91506143f7836138bd565b925082820390508181111561440f5761440e6143b2565b5b92915050565b6000604082019050818103600083015261442f81856134b0565b905061443e60208301846138c7565b9392505050565b7f53656e64657220696e76616c6964000000000000000000000000000000000000600082015250565b600061447b600e83613464565b915061448682614445565b602082019050919050565b600060208201905081810360008301526144aa8161446e565b9050919050565b60006040820190506144c66000830185613549565b6144d36020830184613549565b9392505050565b7f496e76616c696420766965776572206164647265737300000000000000000000600082015250565b6000614510601683613464565b915061451b826144da565b602082019050919050565b6000602082019050818103600083015261453f81614503565b9050919050565b6000614551826138bd565b915061455c836138bd565b9250828201905080821115614574576145736143b2565b5b92915050565b7f4e487b7100000000000000000000000000000000000000000000000000000000600052603160045260246000fd5b7f41636365737320616c6c6f776564206f6e6c7920666f722070617469656e742060008201527f6f776e6572000000000000000000000000000000000000000000000000000000602082015250565b6000614605602583613464565b9150614610826145a9565b604082019050919050565b60006020820190508181036000830152614634816145f8565b9050919050565b6000614646826138bd565b91507fffffffffffffffffffffffffffffffffffffffffffffffffffffffffffffffff8203614678576146776143b2565b5b600182019050919050565b7f4163636573732064656e69656400000000000000000000000000000000000000600082015250565b60006146b9600d83613464565b91506146c482614683565b602082019050919050565b600060208201905081810360008301526146e8816146ac565b9050919050565b7f4f6e6c792070617469656e742063616e20766965772072657175657374730000600082015250565b6000614725601e83613464565b9150614730826146ef565b602082019050919050565b6000602082019050818103600083015261475481614718565b905091905056fea26469706673582212206a4a88e8eabf6b9139d870a3c51193a5edf361a71093670dfa39ed738226dac364736f6c63430008180033",
  "linkReferences": {},
  "deployedLinkReferences": {}
}