{
  "_format": "hh-sol-artifact-1",
  "contractName": "ResearcherManagement",
  "sourceName": "contracts/ResearcherManagement.sol",
  "abi": [
    {
      "inputs": [],
      "stateMutability": "nonpayable",
      "type": "constructor"
    },
    {
      "anonymous": false,
      "inputs": [
        {
          "indexed": true,
          "internalType": "address",
          "name": "researcherAddress",
          "type": "address"
        },
        {
          "indexed": true,
          "internalType": "address",
          "name": "patientAddress",
          "type": "address"
        }
      ],
      "name": "PatientAccessGranted",
      "type": "event"
    },
    {
      "anonymous": false,
      "inputs": [
        {
          "indexed": true,
          "internalType": "address",
          "name": "researcherAddress",
          "type": "address"
        },
        {
          "indexed": true,
          "internalType": "address",
          "name": "patientAddress",
          "type": "address"
        }
      ],
      "name": "PatientAccessRevoked",
      "type": "event"
    },
    {
      "anonymous": false,
      "inputs": [
        {
          "indexed": true,
          "internalType": "address",
          "name": "researcherAddress",
          "type": "address"
        },
        {
          "indexed": false,
          "internalType": "string",
          "name": "username",
          "type": "string"
        },
        {
          "indexed": false,
          "internalType": "string",
          "name": "role",
          "type": "string"
        }
      ],
      "name": "ResearcherRegistered",
      "type": "event"
    },
    {
      "inputs": [
        {
          "internalType": "address",
          "name": "_researcherAddress",
          "type": "address"
        },
        {
          "internalType": "address",
          "name": "_patientAddress",
          "type": "address"
        }
      ],
      "name": "addPatientAccess",
      "outputs": [],
      "stateMutability": "nonpayable",
      "type": "function"
    },
    {
      "inputs": [],
      "name": "admin",
      "outputs": [
        {
          "internalType": "address",
          "name": "",
          "type": "address"
        }
      ],
      "stateMutability": "view",
      "type": "function"
    },
    {
      "inputs": [],
      "name": "getAllResearchers",
      "outputs": [
        {
          "internalType": "address[]",
          "name": "",
          "type": "address[]"
        }
      ],
      "stateMutability": "view",
      "type": "function"
    },
    {
      "inputs": [
        {
          "internalType": "address",
          "name": "_researcherAddress",
          "type": "address"
        }
      ],
      "name": "getAuthorizedPatients",
      "outputs": [
        {
          "internalType": "address[]",
          "name": "",
          "type": "address[]"
        }
      ],
      "stateMutability": "view",
      "type": "function"
    },
    {
      "inputs": [
        {
          "internalType": "address",
          "name": "_researcherAddress",
          "type": "address"
        }
      ],
      "name": "getResearcher",
      "outputs": [
        {
          "internalType": "string",
          "name": "username",
          "type": "string"
        },
        {
          "internalType": "string",
          "name": "role",
          "type": "string"
        },
        {
          "internalType": "bool",
          "name": "isRegistered",
          "type": "bool"
        }
      ],
      "stateMutability": "view",
      "type": "function"
    },
    {
      "inputs": [
        {
          "internalType": "address",
          "name": "_researcherAddress",
          "type": "address"
        },
        {
          "internalType": "address",
          "name": "_patientAddress",
          "type": "address"
        }
      ],
      "name": "isAuthorized",
      "outputs": [
        {
          "internalType": "bool",
          "name": "",
          "type": "bool"
        }
      ],
      "stateMutability": "view",
      "type": "function"
    },
    {
      "inputs": [],
      "name": "patientContractAddress",
      "outputs": [
        {
          "internalType": "address",
          "name": "",
          "type": "address"
        }
      ],
      "stateMutability": "view",
      "type": "function"
    },
    {
      "inputs": [
        {
          "internalType": "address",
          "name": "_researcherAddress",
          "type": "address"
        },
        {
          "internalType": "string",
          "name": "_username",
          "type": "string"
        },
        {
          "internalType": "string",
          "name": "_role",
          "type": "string"
        }
      ],
      "name": "registerResearcher",
      "outputs": [],
      "stateMutability": "nonpayable",
      "type": "function"
    },
    {
      "inputs": [
        {
          "internalType": "address",
          "name": "",
          "type": "address"
        },
        {
          "internalType": "address",
          "name": "",
          "type": "address"
        }
      ],
      "name": "researcherPatientAccess",
      "outputs": [
        {
          "internalType": "bool",
          "name": "",
          "type": "bool"
        }
      ],
      "stateMutability": "view",
      "type": "function"
    },
    {
      "inputs": [
        {
          "internalType": "address",
          "name": "",
          "type": "address"
        },
        {
          "internalType": "uint256",
          "name": "",
          "type": "uint256"
        }
      ],
      "name": "researcherPatients",
      "outputs": [
        {
          "internalType": "address",
          "name": "",
          "type": "address"
        }
      ],
      "stateMutability": "view",
      "type": "function"
    },
    {
      "inputs": [
        {
          "internalType": "address",
          "name": "",
          "type": "address"
        }
      ],
      "name": "researchers",
      "outputs": [
        {
          "internalType": "string",
          "name": "username",
          "type": "string"
        },
        {
          "internalType": "string",
          "name": "role",
          "type": "string"
        },
        {
          "internalType": "bool",
          "name": "isRegistered",
          "type": "bool"
        }
      ],
      "stateMutability": "view",
      "type": "function"
    },
    {
      "inputs": [
        {
          "internalType": "address",
          "name": "_researcherAddress",
          "type": "address"
        },
        {
          "internalType": "address",
          "name": "_patientAddress",
          "type": "address"
        }
      ],
      "name": "revokePatientAccess",
      "outputs": [],
      "stateMutability": "nonpayable",
      "type": "function"
    },
    {
      "inputs": [
        {
          "internalType": "address",
          "name": "_patientContractAddress",
          "type": "address"
        }
      ],
      "name": "setPatientContractAddress",
      "outputs": [],
      "stateMutability": "nonpayable",
      "type": "function"
    }
  ],
  "bytecode": "0x60806040523480156200001157600080fd5b50600080546001600160a01b0319163390811782556040805160a0810182526005606082018181526430b236b4b760d91b60808401819052908352835180850185529182526020828101919091528083019190915260018284018190529385529290925290912081518190620000889082620001aa565b50602082015160018201906200009f9082620001aa565b50604091909101516002918201805491151560ff1990921691909117905580546001810182556000919091527f405787fa12a823e0f2b7631cc41b3ba8828b3321ca811111fa75cd3aa3bb5ace0180546001600160a01b0319163317905562000276565b634e487b7160e01b600052604160045260246000fd5b600181811c908216806200012e57607f821691505b6020821081036200014f57634e487b7160e01b600052602260045260246000fd5b50919050565b601f821115620001a5576000816000526020600020601f850160051c81016020861015620001805750805b601f850160051c820191505b81811015620001a1578281556001016200018c565b5050505b505050565b81516001600160401b03811115620001c657620001c662000103565b620001de81620001d7845462000119565b8462000155565b602080601f831160018114620002165760008415620001fd5750858301515b600019600386901b1c1916600185901b178555620001a1565b600085815260208120601f198616915b82811015620002475788860151825594840194600190910190840162000226565b5085821015620002665787850151600019600388901b60f8161c191681555b5050505050600190811b01905550565b61118680620002866000396000f3fe608060405234801561001057600080fd5b50600436106100cf5760003560e01c806365e4ad9e1161008c578063ba6a844011610066578063ba6a8440146101de578063d7b578cd146101f1578063e7eba4c214610204578063f851a4401461021757600080fd5b806365e4ad9e1461017a5780637c8b24e61461019d57806398caabdb146101b057600080fd5b806301bc237d146100d45780630ff42188146100ff578063177870c214610114578063191d52c614610127578063356b35b5146101525780633d3f8c4b14610165575b600080fd5b6100e76100e2366004610cb1565b61022a565b6040516100f693929190610d19565b60405180910390f35b61011261010d366004610d51565b61035f565b005b610112610122366004610d51565b610520565b60055461013a906001600160a01b031681565b6040516001600160a01b0390911681526020016100f6565b61013a610160366004610d84565b6107ca565b61016d610802565b6040516100f69190610dae565b61018d610188366004610d51565b610864565b60405190151581526020016100f6565b61016d6101ab366004610cb1565b610894565b61018d6101be366004610d51565b600460209081526000928352604080842090915290825290205460ff1681565b6101126101ec366004610e9e565b61090a565b6101126101ff366004610cb1565b610a9a565b6100e7610212366004610cb1565b610ae6565b60005461013a906001600160a01b031681565b60016020526000908152604090208054819061024590610f12565b80601f016020809104026020016040519081016040528092919081815260200182805461027190610f12565b80156102be5780601f10610293576101008083540402835291602001916102be565b820191906000526020600020905b8154815290600101906020018083116102a157829003601f168201915b5050505050908060010180546102d390610f12565b80601f01602080910402602001604051908101604052809291908181526020018280546102ff90610f12565b801561034c5780601f106103215761010080835404028352916020019161034c565b820191906000526020600020905b81548152906001019060200180831161032f57829003601f168201915b5050506002909301549192505060ff1683565b6001600160a01b03821660009081526001602052604090206002015460ff166103a35760405162461bcd60e51b815260040161039a90610f4c565b60405180910390fd5b6001600160a01b0380831660009081526004602090815260408083209385168352929052205460ff16156104125760405162461bcd60e51b81526020600482015260166024820152751058d8d95cdcc8185b1c9958591e4819dc985b9d195960521b604482015260640161039a565b336001600160a01b038216148061043357506005546001600160a01b031633145b6104985760405162461bcd60e51b815260206004820152603060248201527f4f6e6c792070617469656e74206f722050617469656e74436f6e74726163742060448201526f63616e206772616e742061636365737360801b606482015260840161039a565b6001600160a01b0382811660008181526003602090815260408083208054600180820183559185528385200180546001600160a01b031916968816968717905584845260048352818420868552909252808320805460ff1916909217909155517fa8d30211503e661fc2de68b2101d6be49294343e7f07c162a69eff23898ef0c19190a35050565b6001600160a01b03821660009081526001602052604090206002015460ff1661055b5760405162461bcd60e51b815260040161039a90610f4c565b6001600160a01b0380831660009081526004602090815260408083209385168352929052205460ff166105c55760405162461bcd60e51b81526020600482015260126024820152711058d8d95cdcc81b9bdd0819dc985b9d195960721b604482015260640161039a565b336001600160a01b03821614806105e657506005546001600160a01b031633145b61064c5760405162461bcd60e51b815260206004820152603160248201527f4f6e6c792070617469656e74206f722050617469656e74436f6e74726163742060448201527063616e207265766f6b652061636365737360781b606482015260840161039a565b6001600160a01b0380831660008181526004602090815260408083209486168352938152838220805460ff191690559181526003909152908120905b815481101561078457826001600160a01b03168282815481106106ad576106ad610f83565b6000918252602090912001546001600160a01b03160361077c57815482906106d790600190610f99565b815481106106e7576106e7610f83565b9060005260206000200160009054906101000a90046001600160a01b031682828154811061071757610717610f83565b9060005260206000200160006101000a8154816001600160a01b0302191690836001600160a01b031602179055508180548061075557610755610fba565b600082815260209020810160001990810180546001600160a01b0319169055019055610784565b600101610688565b50816001600160a01b0316836001600160a01b03167f6869da424d3514d77420cdfa92bf9041b88dc6c70941bd7446fb7f013f95ddf160405160405180910390a3505050565b600360205281600052604060002081815481106107e657600080fd5b6000918252602090912001546001600160a01b03169150829050565b6060600280548060200260200160405190810160405280929190818152602001828054801561085a57602002820191906000526020600020905b81546001600160a01b0316815260019091019060200180831161083c575b5050505050905090565b6001600160a01b0380831660009081526004602090815260408083209385168352929052205460ff165b92915050565b6001600160a01b0381166000908152600360209081526040918290208054835181840281018401909452808452606093928301828280156108fe57602002820191906000526020600020905b81546001600160a01b031681526001909101906020018083116108e0575b50505050509050919050565b6000546001600160a01b031633146109345760405162461bcd60e51b815260040161039a90610fd0565b6001600160a01b03831660009081526001602052604090206002015460ff16156109a05760405162461bcd60e51b815260206004820152601d60248201527f5265736561726368657220616c72656164792072656769737465726564000000604482015260640161039a565b60408051606081018252838152602080820184905260018284018190526001600160a01b0387166000908152915291909120815181906109e09082611062565b50602082015160018201906109f59082611062565b506040918201516002918201805460ff191691151591909117905580546001810182556000919091527f405787fa12a823e0f2b7631cc41b3ba8828b3321ca811111fa75cd3aa3bb5ace0180546001600160a01b0319166001600160a01b03861690811790915590517f2f0a9268cd645aeab901e327b054361a5beff93727092980d07f1bc28ace26c790610a8d9085908590611122565b60405180910390a2505050565b6000546001600160a01b03163314610ac45760405162461bcd60e51b815260040161039a90610fd0565b600580546001600160a01b0319166001600160a01b0392909216919091179055565b6001600160a01b038116600090815260016020526040812060020154606091829160ff16610b265760405162461bcd60e51b815260040161039a90610f4c565b6001600160a01b038416600090815260016020526040808220815160608101909252805482908290610b5790610f12565b80601f0160208091040260200160405190810160405280929190818152602001828054610b8390610f12565b8015610bd05780601f10610ba557610100808354040283529160200191610bd0565b820191906000526020600020905b815481529060010190602001808311610bb357829003601f168201915b50505050508152602001600182018054610be990610f12565b80601f0160208091040260200160405190810160405280929190818152602001828054610c1590610f12565b8015610c625780601f10610c3757610100808354040283529160200191610c62565b820191906000526020600020905b815481529060010190602001808311610c4557829003601f168201915b50505091835250506002919091015460ff1615156020918201528151908201516040909201519097919650945092505050565b80356001600160a01b0381168114610cac57600080fd5b919050565b600060208284031215610cc357600080fd5b610ccc82610c95565b9392505050565b6000815180845260005b81811015610cf957602081850181015186830182015201610cdd565b506000602082860101526020601f19601f83011685010191505092915050565b606081526000610d2c6060830186610cd3565b8281036020840152610d3e8186610cd3565b9150508215156040830152949350505050565b60008060408385031215610d6457600080fd5b610d6d83610c95565b9150610d7b60208401610c95565b90509250929050565b60008060408385031215610d9757600080fd5b610da083610c95565b946020939093013593505050565b6020808252825182820181905260009190848201906040850190845b81811015610def5783516001600160a01b031683529284019291840191600101610dca565b50909695505050505050565b634e487b7160e01b600052604160045260246000fd5b600082601f830112610e2257600080fd5b813567ffffffffffffffff80821115610e3d57610e3d610dfb565b604051601f8301601f19908116603f01168101908282118183101715610e6557610e65610dfb565b81604052838152866020858801011115610e7e57600080fd5b836020870160208301376000602085830101528094505050505092915050565b600080600060608486031215610eb357600080fd5b610ebc84610c95565b9250602084013567ffffffffffffffff80821115610ed957600080fd5b610ee587838801610e11565b93506040860135915080821115610efb57600080fd5b50610f0886828701610e11565b9150509250925092565b600181811c90821680610f2657607f821691505b602082108103610f4657634e487b7160e01b600052602260045260246000fd5b50919050565b60208082526019908201527f52657365617263686572206e6f74207265676973746572656400000000000000604082015260600190565b634e487b7160e01b600052603260045260246000fd5b8181038181111561088e57634e487b7160e01b600052601160045260246000fd5b634e487b7160e01b600052603160045260246000fd5b60208082526021908201527f4f6e6c792061646d696e2063616e2063616c6c20746869732066756e6374696f6040820152603760f91b606082015260800190565b601f82111561105d576000816000526020600020601f850160051c8101602086101561103a5750805b601f850160051c820191505b8181101561105957828155600101611046565b5050505b505050565b815167ffffffffffffffff81111561107c5761107c610dfb565b6110908161108a8454610f12565b84611011565b602080601f8311600181146110c557600084156110ad5750858301515b600019600386901b1c1916600185901b178555611059565b600085815260208120601f198616915b828110156110f4578886015182559484019460019091019084016110d5565b50858210156111125787850151600019600388901b60f8161c191681555b5050505050600190811b01905550565b6040815260006111356040830185610cd3565b82810360208401526111478185610cd3565b9594505050505056fea2646970667358221220ad74289009f5e810c40db541bfc46f14d49772366cf57c170c05ad03e2e207db64736f6c63430008180033",
  "linkReferences": {},
  "deployedLinkReferences": {}
}