{
  "_format": "hh-sol-artifact-1",
  "contractName": "HealthcareAudit",
  "sourceName": "contracts/HealthcareAudit.sol",
  "abi": [
    {
      "inputs": [],
      "stateMutability": "nonpayable",
      "type": "constructor"
    },
    {
      "anonymous": false,
      "inputs": [
        {
          "indexed": true,
          "internalType": "address",
          "name": "actor",
          "type": "address"
        },
        {
          "indexed": false,
          "internalType": "string",
          "name": "actionType",
          "type": "string"
        },
        {
          "indexed": true,
          "internalType": "address",
          "name": "subject",
          "type": "address"
        },
        {
          "indexed": false,
          "internalType": "string",
          "name": "details",
          "type": "string"
        },
        {
          "indexed": false,
          "internalType": "uint256",
          "name": "timestamp",
          "type": "uint256"
        }
      ],
      "name": "AuditLogAdded",
      "type": "event"
    },
    {
      "inputs": [],
      "name": "ACCESS_GRANTED",
      "outputs": [
        {
          "internalType": "string",
          "name": "",
          "type": "string"
        }
      ],
      "stateMutability": "view",
      "type": "function"
    },
    {
      "inputs": [],
      "name": "DOCTOR_REGISTERED",
      "outputs": [
        {
          "internalType": "string",
          "name": "",
          "type": "string"
        }
      ],
      "stateMutability": "view",
      "type": "function"
    },
    {
      "inputs": [],
      "name": "PATIENT_REGISTERED",
      "outputs": [
        {
          "internalType": "string",
          "name": "",
          "type": "string"
        }
      ],
      "stateMutability": "view",
      "type": "function"
    },
    {
      "inputs": [],
      "name": "RECORD_ADDED",
      "outputs": [
        {
          "internalType": "string",
          "name": "",
          "type": "string"
        }
      ],
      "stateMutability": "view",
      "type": "function"
    },
    {
      "inputs": [
        {
          "internalType": "address",
          "name": "_actor",
          "type": "address"
        },
        {
          "internalType": "string",
          "name": "_actionType",
          "type": "string"
        },
        {
          "internalType": "address",
          "name": "_subject",
          "type": "address"
        },
        {
          "internalType": "string",
          "name": "_details",
          "type": "string"
        }
      ],
      "name": "addAuditLog",
      "outputs": [],
      "stateMutability": "nonpayable",
      "type": "function"
    },
    {
      "inputs": [],
      "name": "admin",
      "outputs": [
        {
          "internalType": "address",
          "name": "",
          "type": "address"
        }
      ],
      "stateMutability": "view",
      "type": "function"
    },
    {
      "inputs": [
        {
          "internalType": "uint256",
          "name": "",
          "type": "uint256"
        }
      ],
      "name": "auditTrail",
      "outputs": [
        {
          "internalType": "address",
          "name": "actor",
          "type": "address"
        },
        {
          "internalType": "string",
          "name": "actionType",
          "type": "string"
        },
        {
          "internalType": "address",
          "name": "subject",
          "type": "address"
        },
        {
          "internalType": "string",
          "name": "details",
          "type": "string"
        },
        {
          "internalType": "uint256",
          "name": "timestamp",
          "type": "uint256"
        }
      ],
      "stateMutability": "view",
      "type": "function"
    },
    {
      "inputs": [],
      "name": "getAuditTrail",
      "outputs": [
        {
          "components": [
            {
              "internalType": "address",
              "name": "actor",
              "type": "address"
            },
            {
              "internalType": "string",
              "name": "actionType",
              "type": "string"
            },
            {
              "internalType": "address",
              "name": "subject",
              "type": "address"
            },
            {
              "internalType": "string",
              "name": "details",
              "type": "string"
            },
            {
              "internalType": "uint256",
              "name": "timestamp",
              "type": "uint256"
            }
          ],
          "internalType": "struct HealthcareAudit.AuditRecord[]",
          "name": "",
          "type": "tuple[]"
        }
      ],
      "stateMutability": "view",
      "type": "function"
    },
    {
      "inputs": [
        {
          "internalType": "address",
          "name": "_actor",
          "type": "address"
        }
      ],
      "name": "getAuditTrailByActor",
      "outputs": [
        {
          "components": [
            {
              "internalType": "address",
              "name": "actor",
              "type": "address"
            },
            {
              "internalType": "string",
              "name": "actionType",
              "type": "string"
            },
            {
              "internalType": "address",
              "name": "subject",
              "type": "address"
            },
            {
              "internalType": "string",
              "name": "details",
              "type": "string"
            },
            {
              "internalType": "uint256",
              "name": "timestamp",
              "type": "uint256"
            }
          ],
          "internalType": "struct HealthcareAudit.AuditRecord[]",
          "name": "",
          "type": "tuple[]"
        }
      ],
      "stateMutability": "view",
      "type": "function"
    },
    {
      "inputs": [
        {
          "internalType": "address",
          "name": "_subject",
          "type": "address"
        }
      ],
      "name": "getAuditTrailBySubject",
      "outputs": [
        {
          "components": [
            {
              "internalType": "address",
              "name": "actor",
              "type": "address"
            },
            {
              "internalType": "string",
              "name": "actionType",
              "type": "string"
            },
            {
              "internalType": "address",
              "name": "subject",
              "type": "address"
            },
            {
              "internalType": "string",
              "name": "details",
              "type": "string"
            },
            {
              "internalType": "uint256",
              "name": "timestamp",
              "type": "uint256"
            }
          ],
          "internalType": "struct HealthcareAudit.AuditRecord[]",
          "name": "",
          "type": "tuple[]"
        }
      ],
      "stateMutability": "view",
      "type": "function"
    }
  ],
  "bytecode": "0x608060405234801561001057600080fd5b50336000806101000a81548173ffffffffffffffffffffffffffffffffffffffff021916908373ffffffffffffffffffffffffffffffffffffffff160217905550611a88806100606000396000f3fe608060405234801561001057600080fd5b506004361061009e5760003560e01c8063c3ed7c7e11610066578063c3ed7c7e1461015b578063c71e600614610179578063dc01df3714610197578063ddaf0929146101b5578063f851a440146101e95761009e565b80632fcc27a4146100a3578063391e4690146100c15780639904855a146100f1578063aa1d8bba14610121578063bff451391461013f575b600080fd5b6100ab610207565b6040516100b891906112c7565b60405180910390f35b6100db60048036038101906100d69190611329565b610440565b6040516100e891906112c7565b60405180910390f35b61010b60048036038101906101069190611329565b610816565b60405161011891906112c7565b60405180910390f35b610129610bec565b60405161013691906113a0565b60405180910390f35b610159600480360381019061015491906114f7565b610c25565b005b610163610dde565b60405161017091906113a0565b60405180910390f35b610181610e17565b60405161018e91906113a0565b60405180910390f35b61019f610e50565b6040516101ac91906113a0565b60405180910390f35b6101cf60048036038101906101ca91906115c2565b610e89565b6040516101e095949392919061160d565b60405180910390f35b6101f161101f565b6040516101fe919061166e565b60405180910390f35b60606001805480602002602001604051908101604052809291908181526020016000905b8282101561043757838290600052602060002090600502016040518060a00160405290816000820160009054906101000a900473ffffffffffffffffffffffffffffffffffffffff1673ffffffffffffffffffffffffffffffffffffffff1673ffffffffffffffffffffffffffffffffffffffff1681526020016001820180546102b4906116b8565b80601f01602080910402602001604051908101604052809291908181526020018280546102e0906116b8565b801561032d5780601f106103025761010080835404028352916020019161032d565b820191906000526020600020905b81548152906001019060200180831161031057829003601f168201915b505050505081526020016002820160009054906101000a900473ffffffffffffffffffffffffffffffffffffffff1673ffffffffffffffffffffffffffffffffffffffff1673ffffffffffffffffffffffffffffffffffffffff16815260200160038201805461039c906116b8565b80601f01602080910402602001604051908101604052809291908181526020018280546103c8906116b8565b80156104155780601f106103ea57610100808354040283529160200191610415565b820191906000526020600020905b8154815290600101906020018083116103f857829003601f168201915b505050505081526020016004820154815250508152602001906001019061022b565b50505050905090565b60606000805b6001805490508110156104e7578373ffffffffffffffffffffffffffffffffffffffff166001828154811061047e5761047d6116e9565b5b906000526020600020906005020160000160009054906101000a900473ffffffffffffffffffffffffffffffffffffffff1673ffffffffffffffffffffffffffffffffffffffff16036104da5781806104d690611747565b9250505b8080600101915050610446565b5060008167ffffffffffffffff811115610504576105036113cc565b5b60405190808252806020026020018201604052801561053d57816020015b61052a611043565b8152602001906001900390816105225790505b5090506000805b60018054905081101561080a578573ffffffffffffffffffffffffffffffffffffffff166001828154811061057c5761057b6116e9565b5b906000526020600020906005020160000160009054906101000a900473ffffffffffffffffffffffffffffffffffffffff1673ffffffffffffffffffffffffffffffffffffffff16036107fd57600181815481106105dd576105dc6116e9565b5b90600052602060002090600502016040518060a00160405290816000820160009054906101000a900473ffffffffffffffffffffffffffffffffffffffff1673ffffffffffffffffffffffffffffffffffffffff1673ffffffffffffffffffffffffffffffffffffffff16815260200160018201805461065c906116b8565b80601f0160208091040260200160405190810160405280929190818152602001828054610688906116b8565b80156106d55780601f106106aa576101008083540402835291602001916106d5565b820191906000526020600020905b8154815290600101906020018083116106b857829003601f168201915b505050505081526020016002820160009054906101000a900473ffffffffffffffffffffffffffffffffffffffff1673ffffffffffffffffffffffffffffffffffffffff1673ffffffffffffffffffffffffffffffffffffffff168152602001600382018054610744906116b8565b80601f0160208091040260200160405190810160405280929190818152602001828054610770906116b8565b80156107bd5780601f10610792576101008083540402835291602001916107bd565b820191906000526020600020905b8154815290600101906020018083116107a057829003601f168201915b505050505081526020016004820154815250508383815181106107e3576107e26116e9565b5b602002602001018190525081806107f990611747565b9250505b8080600101915050610544565b50819350505050919050565b60606000805b6001805490508110156108bd578373ffffffffffffffffffffffffffffffffffffffff1660018281548110610854576108536116e9565b5b906000526020600020906005020160020160009054906101000a900473ffffffffffffffffffffffffffffffffffffffff1673ffffffffffffffffffffffffffffffffffffffff16036108b05781806108ac90611747565b9250505b808060010191505061081c565b5060008167ffffffffffffffff8111156108da576108d96113cc565b5b60405190808252806020026020018201604052801561091357816020015b610900611043565b8152602001906001900390816108f85790505b5090506000805b600180549050811015610be0578573ffffffffffffffffffffffffffffffffffffffff1660018281548110610952576109516116e9565b5b906000526020600020906005020160020160009054906101000a900473ffffffffffffffffffffffffffffffffffffffff1673ffffffffffffffffffffffffffffffffffffffff1603610bd357600181815481106109b3576109b26116e9565b5b90600052602060002090600502016040518060a00160405290816000820160009054906101000a900473ffffffffffffffffffffffffffffffffffffffff1673ffffffffffffffffffffffffffffffffffffffff1673ffffffffffffffffffffffffffffffffffffffff168152602001600182018054610a32906116b8565b80601f0160208091040260200160405190810160405280929190818152602001828054610a5e906116b8565b8015610aab5780601f10610a8057610100808354040283529160200191610aab565b820191906000526020600020905b815481529060010190602001808311610a8e57829003601f168201915b505050505081526020016002820160009054906101000a900473ffffffffffffffffffffffffffffffffffffffff1673ffffffffffffffffffffffffffffffffffffffff1673ffffffffffffffffffffffffffffffffffffffff168152602001600382018054610b1a906116b8565b80601f0160208091040260200160405190810160405280929190818152602001828054610b46906116b8565b8015610b935780601f10610b6857610100808354040283529160200191610b93565b820191906000526020600020905b815481529060010190602001808311610b7657829003601f168201915b50505050508152602001600482015481525050838381518110610bb957610bb86116e9565b5b60200260200101819052508180610bcf90611747565b9250505b808060010191505061091a565b50819350505050919050565b6040518060400160405280601181526020017f444f43544f525f5245474953544552454400000000000000000000000000000081525081565b60006040518060a001604052808673ffffffffffffffffffffffffffffffffffffffff1681526020018581526020018473ffffffffffffffffffffffffffffffffffffffff168152602001838152602001428152509050600181908060018154018082558091505060019003906000526020600020906005020160009091909190915060008201518160000160006101000a81548173ffffffffffffffffffffffffffffffffffffffff021916908373ffffffffffffffffffffffffffffffffffffffff1602179055506020820151816001019081610d04919061193b565b5060408201518160020160006101000a81548173ffffffffffffffffffffffffffffffffffffffff021916908373ffffffffffffffffffffffffffffffffffffffff1602179055506060820151816003019081610d61919061193b565b506080820151816004015550508273ffffffffffffffffffffffffffffffffffffffff168573ffffffffffffffffffffffffffffffffffffffff167f037285f0826ec906016d3796cf211684bb6d1ac3c9a549aa9f1133bb14cf4694868542604051610dcf93929190611a0d565b60405180910390a35050505050565b6040518060400160405280600e81526020017f4143434553535f4752414e54454400000000000000000000000000000000000081525081565b6040518060400160405280601281526020017f50415449454e545f52454749535445524544000000000000000000000000000081525081565b6040518060400160405280600c81526020017f5245434f52445f4144444544000000000000000000000000000000000000000081525081565b60018181548110610e9957600080fd5b90600052602060002090600502016000915090508060000160009054906101000a900473ffffffffffffffffffffffffffffffffffffffff1690806001018054610ee2906116b8565b80601f0160208091040260200160405190810160405280929190818152602001828054610f0e906116b8565b8015610f5b5780601f10610f3057610100808354040283529160200191610f5b565b820191906000526020600020905b815481529060010190602001808311610f3e57829003601f168201915b5050505050908060020160009054906101000a900473ffffffffffffffffffffffffffffffffffffffff1690806003018054610f96906116b8565b80601f0160208091040260200160405190810160405280929190818152602001828054610fc2906116b8565b801561100f5780601f10610fe45761010080835404028352916020019161100f565b820191906000526020600020905b815481529060010190602001808311610ff257829003601f168201915b5050505050908060040154905085565b60008054906101000a900473ffffffffffffffffffffffffffffffffffffffff1681565b6040518060a00160405280600073ffffffffffffffffffffffffffffffffffffffff16815260200160608152602001600073ffffffffffffffffffffffffffffffffffffffff16815260200160608152602001600081525090565b600081519050919050565b600082825260208201905092915050565b6000819050602082019050919050565b600073ffffffffffffffffffffffffffffffffffffffff82169050919050565b60006110f5826110ca565b9050919050565b611105816110ea565b82525050565b600081519050919050565b600082825260208201905092915050565b60005b8381101561114557808201518184015260208101905061112a565b60008484015250505050565b6000601f19601f8301169050919050565b600061116d8261110b565b6111778185611116565b9350611187818560208601611127565b61119081611151565b840191505092915050565b6000819050919050565b6111ae8161119b565b82525050565b600060a0830160008301516111cc60008601826110fc565b50602083015184820360208601526111e48282611162565b91505060408301516111f960408601826110fc565b50606083015184820360608601526112118282611162565b915050608083015161122660808601826111a5565b508091505092915050565b600061123d83836111b4565b905092915050565b6000602082019050919050565b600061125d8261109e565b61126781856110a9565b935083602082028501611279856110ba565b8060005b858110156112b557848403895281516112968582611231565b94506112a183611245565b925060208a0199505060018101905061127d565b50829750879550505050505092915050565b600060208201905081810360008301526112e18184611252565b905092915050565b6000604051905090565b600080fd5b600080fd5b611306816110ea565b811461131157600080fd5b50565b600081359050611323816112fd565b92915050565b60006020828403121561133f5761133e6112f3565b5b600061134d84828501611314565b91505092915050565b600082825260208201905092915050565b60006113728261110b565b61137c8185611356565b935061138c818560208601611127565b61139581611151565b840191505092915050565b600060208201905081810360008301526113ba8184611367565b905092915050565b600080fd5b600080fd5b7f4e487b7100000000000000000000000000000000000000000000000000000000600052604160045260246000fd5b61140482611151565b810181811067ffffffffffffffff82111715611423576114226113cc565b5b80604052505050565b60006114366112e9565b905061144282826113fb565b919050565b600067ffffffffffffffff821115611462576114616113cc565b5b61146b82611151565b9050602081019050919050565b82818337600083830152505050565b600061149a61149584611447565b61142c565b9050828152602081018484840111156114b6576114b56113c7565b5b6114c1848285611478565b509392505050565b600082601f8301126114de576114dd6113c2565b5b81356114ee848260208601611487565b91505092915050565b60008060008060808587031215611511576115106112f3565b5b600061151f87828801611314565b945050602085013567ffffffffffffffff8111156115405761153f6112f8565b5b61154c878288016114c9565b935050604061155d87828801611314565b925050606085013567ffffffffffffffff81111561157e5761157d6112f8565b5b61158a878288016114c9565b91505092959194509250565b61159f8161119b565b81146115aa57600080fd5b50565b6000813590506115bc81611596565b92915050565b6000602082840312156115d8576115d76112f3565b5b60006115e6848285016115ad565b91505092915050565b6115f8816110ea565b82525050565b6116078161119b565b82525050565b600060a08201905061162260008301886115ef565b81810360208301526116348187611367565b905061164360408301866115ef565b81810360608301526116558185611367565b905061166460808301846115fe565b9695505050505050565b600060208201905061168360008301846115ef565b92915050565b7f4e487b7100000000000000000000000000000000000000000000000000000000600052602260045260246000fd5b600060028204905060018216806116d057607f821691505b6020821081036116e3576116e2611689565b5b50919050565b7f4e487b7100000000000000000000000000000000000000000000000000000000600052603260045260246000fd5b7f4e487b7100000000000000000000000000000000000000000000000000000000600052601160045260246000fd5b60006117528261119b565b91507fffffffffffffffffffffffffffffffffffffffffffffffffffffffffffffffff820361178457611783611718565b5b600182019050919050565b60008190508160005260206000209050919050565b60006020601f8301049050919050565b600082821b905092915050565b6000600883026117f17fffffffffffffffffffffffffffffffffffffffffffffffffffffffffffffffff826117b4565b6117fb86836117b4565b95508019841693508086168417925050509392505050565b6000819050919050565b600061183861183361182e8461119b565b611813565b61119b565b9050919050565b6000819050919050565b6118528361181d565b61186661185e8261183f565b8484546117c1565b825550505050565b600090565b61187b61186e565b611886818484611849565b505050565b5b818110156118aa5761189f600082611873565b60018101905061188c565b5050565b601f8211156118ef576118c08161178f565b6118c9846117a4565b810160208510156118d8578190505b6118ec6118e4856117a4565b83018261188b565b50505b505050565b600082821c905092915050565b6000611912600019846008026118f4565b1980831691505092915050565b600061192b8383611901565b9150826002028217905092915050565b6119448261110b565b67ffffffffffffffff81111561195d5761195c6113cc565b5b61196782546116b8565b6119728282856118ae565b600060209050601f8311600181146119a55760008415611993578287015190505b61199d858261191f565b865550611a05565b601f1984166119b38661178f565b60005b828110156119db578489015182556001820191506020850194506020810190506119b6565b868310156119f857848901516119f4601f891682611901565b8355505b6001600288020188555050505b505050505050565b60006060820190508181036000830152611a278186611367565b90508181036020830152611a3b8185611367565b9050611a4a60408301846115fe565b94935050505056fea2646970667358221220817001746488443f42c9533e889453565c0810b75aa281daf71a5bc98f0a293f64736f6c63430008180033",
  "linkReferences": {},
  "deployedLinkReferences": {}
}