{
  "_format": "hh-sol-artifact-1",
  "contractName": "PatientManagement",
  "sourceName": "contracts/patientcontract.sol",
  "abi": [
    {
      "inputs": [],
      "stateMutability": "nonpayable",
      "type": "constructor"
    },
    {
      "anonymous": false,
      "inputs": [
        {
          "indexed": true,
          "internalType": "address",
          "name": "patient",
          "type": "address"
        },
        {
          "indexed": true,
          "internalType": "address",
          "name": "viewer",
          "type": "address"
        },
        {
          "indexed": false,
          "internalType": "uint256",
          "name": "expiry",
          "type": "uint256"
        }
      ],
      "name": "AccessGranted",
      "type": "event"
    },
    {
      "anonymous": false,
      "inputs": [
        {
          "indexed": true,
          "internalType": "address",
          "name": "patient",
          "type": "address"
        },
        {
          "indexed": true,
          "internalType": "address",
          "name": "viewer",
          "type": "address"
        }
      ],
      "name": "AccessRequested",
      "type": "event"
    },
    {
      "anonymous": false,
      "inputs": [
        {
          "indexed": true,
          "internalType": "address",
          "name": "patient",
          "type": "address"
        },
        {
          "indexed": true,
          "internalType": "address",
          "name": "viewer",
          "type": "address"
        }
      ],
      "name": "AccessRevoked",
      "type": "event"
    },
    {
      "anonymous": false,
      "inputs": [
        {
          "indexed": true,
          "internalType": "address",
          "name": "patientAddress",
          "type": "address"
        },
        {
          "indexed": true,
          "internalType": "address",
          "name": "doctorAddress",
          "type": "address"
        },
        {
          "indexed": false,
          "internalType": "string",
          "name": "ipfsHash",
          "type": "string"
        },
        {
          "indexed": false,
          "internalType": "uint256",
          "name": "timestamp",
          "type": "uint256"
        },
        {
          "indexed": false,
          "internalType": "uint8",
          "name": "privacyLevel",
          "type": "uint8"
        }
      ],
      "name": "MedicalRecordAdded",
      "type": "event"
    },
    {
      "anonymous": false,
      "inputs": [
        {
          "indexed": true,
          "internalType": "address",
          "name": "patientAddress",
          "type": "address"
        },
        {
          "indexed": false,
          "internalType": "string",
          "name": "oldIpfsHash",
          "type": "string"
        },
        {
          "indexed": false,
          "internalType": "string",
          "name": "newIpfsHash",
          "type": "string"
        },
        {
          "indexed": false,
          "internalType": "uint256",
          "name": "timestamp",
          "type": "uint256"
        }
      ],
      "name": "MedicalRecordUpdated",
      "type": "event"
    },
    {
      "anonymous": false,
      "inputs": [
        {
          "indexed": true,
          "internalType": "address",
          "name": "patientAddress",
          "type": "address"
        },
        {
          "indexed": false,
          "internalType": "string",
          "name": "username",
          "type": "string"
        },
        {
          "indexed": false,
          "internalType": "string",
          "name": "role",
          "type": "string"
        }
      ],
      "name": "PatientRegistered",
      "type": "event"
    },
    {
      "inputs": [
        {
          "internalType": "address",
          "name": "",
          "type": "address"
        },
        {
          "internalType": "address",
          "name": "",
          "type": "address"
        }
      ],
      "name": "accessExpiry",
      "outputs": [
        {
          "internalType": "uint256",
          "name": "",
          "type": "uint256"
        }
      ],
      "stateMutability": "view",
      "type": "function"
    },
    {
      "inputs": [
        {
          "internalType": "address",
          "name": "_patientAddress",
          "type": "address"
        },
        {
          "internalType": "string",
          "name": "_ipfsHash",
          "type": "string"
        },
        {
          "internalType": "string",
          "name": "_fileType",
          "type": "string"
        },
        {
          "internalType": "string",
          "name": "_fileName",
          "type": "string"
        },
        {
          "internalType": "string",
          "name": "_title",
          "type": "string"
        },
        {
          "internalType": "string",
          "name": "_resume",
          "type": "string"
        },
        {
          "internalType": "string",
          "name": "_previousVersion",
          "type": "string"
        },
        {
          "internalType": "uint8",
          "name": "_privacyLevel",
          "type": "uint8"
        }
      ],
      "name": "addMedicalRecord",
      "outputs": [],
      "stateMutability": "nonpayable",
      "type": "function"
    },
    {
      "inputs": [],
      "name": "admin",
      "outputs": [
        {
          "internalType": "address",
          "name": "",
          "type": "address"
        }
      ],
      "stateMutability": "view",
      "type": "function"
    },
    {
      "inputs": [
        {
          "internalType": "uint256",
          "name": "",
          "type": "uint256"
        }
      ],
      "name": "allPatients",
      "outputs": [
        {
          "internalType": "address",
          "name": "",
          "type": "address"
        }
      ],
      "stateMutability": "view",
      "type": "function"
    },
    {
      "inputs": [],
      "name": "auditContractAddress",
      "outputs": [
        {
          "internalType": "address",
          "name": "",
          "type": "address"
        }
      ],
      "stateMutability": "view",
      "type": "function"
    },
    {
      "inputs": [],
      "name": "doctorContractAddress",
      "outputs": [
        {
          "internalType": "address",
          "name": "",
          "type": "address"
        }
      ],
      "stateMutability": "view",
      "type": "function"
    },
    {
      "inputs": [
        {
          "internalType": "address",
          "name": "_patientAddress",
          "type": "address"
        }
      ],
      "name": "getActiveRecords",
      "outputs": [
        {
          "components": [
            {
              "internalType": "string",
              "name": "ipfsHash",
              "type": "string"
            },
            {
              "internalType": "string",
              "name": "fileType",
              "type": "string"
            },
            {
              "internalType": "string",
              "name": "fileName",
              "type": "string"
            },
            {
              "internalType": "string",
              "name": "title",
              "type": "string"
            },
            {
              "internalType": "string",
              "name": "resume",
              "type": "string"
            },
            {
              "internalType": "uint256",
              "name": "timestamp",
              "type": "uint256"
            },
            {
              "internalType": "address",
              "name": "doctor",
              "type": "address"
            },
            {
              "internalType": "bool",
              "name": "isActive",
              "type": "bool"
            },
            {
              "internalType": "string",
              "name": "previousVersion",
              "type": "string"
            },
            {
              "internalType": "uint8",
              "name": "privacyLevel",
              "type": "uint8"
            }
          ],
          "internalType": "struct PatientManagement.MedicalRecord[]",
          "name": "",
          "type": "tuple[]"
        }
      ],
      "stateMutability": "view",
      "type": "function"
    },
    {
      "inputs": [],
      "name": "getAllPatients",
      "outputs": [
        {
          "internalType": "address[]",
          "name": "",
          "type": "address[]"
        }
      ],
      "stateMutability": "view",
      "type": "function"
    },
    {
      "inputs": [
        {
          "internalType": "address",
          "name": "_patientAddress",
          "type": "address"
        }
      ],
      "name": "getMedicalRecords",
      "outputs": [
        {
          "components": [
            {
              "internalType": "string",
              "name": "ipfsHash",
              "type": "string"
            },
            {
              "internalType": "string",
              "name": "fileType",
              "type": "string"
            },
            {
              "internalType": "string",
              "name": "fileName",
              "type": "string"
            },
            {
              "internalType": "string",
              "name": "title",
              "type": "string"
            },
            {
              "internalType": "string",
              "name": "resume",
              "type": "string"
            },
            {
              "internalType": "uint256",
              "name": "timestamp",
              "type": "uint256"
            },
            {
              "internalType": "address",
              "name": "doctor",
              "type": "address"
            },
            {
              "internalType": "bool",
              "name": "isActive",
              "type": "bool"
            },
            {
              "internalType": "string",
              "name": "previousVersion",
              "type": "string"
            },
            {
              "internalType": "uint8",
              "name": "privacyLevel",
              "type": "uint8"
            }
          ],
          "internalType": "struct PatientManagement.MedicalRecord[]",
          "name": "",
          "type": "tuple[]"
        }
      ],
      "stateMutability": "view",
      "type": "function"
    },
    {
      "inputs": [
        {
          "internalType": "address",
          "name": "_patientAddress",
          "type": "address"
        }
      ],
      "name": "getPatient",
      "outputs": [
        {
          "internalType": "string",
          "name": "username",
          "type": "string"
        },
        {
          "internalType": "string",
          "name": "role",
          "type": "string"
        },
        {
          "internalType": "string",
          "name": "phoneNumber",
          "type": "string"
        }
      ],
      "stateMutability": "view",
      "type": "function"
    },
    {
      "inputs": [
        {
          "internalType": "address",
          "name": "_patientAddress",
          "type": "address"
        }
      ],
      "name": "getPatientAccessRequests",
      "outputs": [
        {
          "internalType": "address[]",
          "name": "",
          "type": "address[]"
        }
      ],
      "stateMutability": "view",
      "type": "function"
    },
    {
      "inputs": [
        {
          "internalType": "address",
          "name": "_patientAddress",
          "type": "address"
        }
      ],
      "name": "getSharedRecords",
      "outputs": [
        {
          "components": [
            {
              "internalType": "string",
              "name": "ipfsHash",
              "type": "string"
            },
            {
              "internalType": "string",
              "name": "fileType",
              "type": "string"
            },
            {
              "internalType": "string",
              "name": "fileName",
              "type": "string"
            },
            {
              "internalType": "string",
              "name": "title",
              "type": "string"
            },
            {
              "internalType": "string",
              "name": "resume",
              "type": "string"
            },
            {
              "internalType": "uint256",
              "name": "timestamp",
              "type": "uint256"
            },
            {
              "internalType": "address",
              "name": "doctor",
              "type": "address"
            },
            {
              "internalType": "bool",
              "name": "isActive",
              "type": "bool"
            },
            {
              "internalType": "string",
              "name": "previousVersion",
              "type": "string"
            },
            {
              "internalType": "uint8",
              "name": "privacyLevel",
              "type": "uint8"
            }
          ],
          "internalType": "struct PatientManagement.MedicalRecord[]",
          "name": "",
          "type": "tuple[]"
        }
      ],
      "stateMutability": "view",
      "type": "function"
    },
    {
      "inputs": [
        {
          "internalType": "address",
          "name": "_viewer",
          "type": "address"
        },
        {
          "internalType": "uint256",
          "name": "_durationSeconds",
          "type": "uint256"
        }
      ],
      "name": "grantAccess",
      "outputs": [],
      "stateMutability": "nonpayable",
      "type": "function"
    },
    {
      "inputs": [],
      "name": "insuranceContractAddress",
      "outputs": [
        {
          "internalType": "address",
          "name": "",
          "type": "address"
        }
      ],
      "stateMutability": "view",
      "type": "function"
    },
    {
      "inputs": [
        {
          "internalType": "address",
          "name": "",
          "type": "address"
        },
        {
          "internalType": "uint256",
          "name": "",
          "type": "uint256"
        }
      ],
      "name": "patientAccessRequests",
      "outputs": [
        {
          "internalType": "address",
          "name": "",
          "type": "address"
        }
      ],
      "stateMutability": "view",
      "type": "function"
    },
    {
      "inputs": [
        {
          "internalType": "address",
          "name": "",
          "type": "address"
        },
        {
          "internalType": "uint256",
          "name": "",
          "type": "uint256"
        }
      ],
      "name": "patientRecords",
      "outputs": [
        {
          "internalType": "string",
          "name": "ipfsHash",
          "type": "string"
        },
        {
          "internalType": "string",
          "name": "fileType",
          "type": "string"
        },
        {
          "internalType": "string",
          "name": "fileName",
          "type": "string"
        },
        {
          "internalType": "string",
          "name": "title",
          "type": "string"
        },
        {
          "internalType": "string",
          "name": "resume",
          "type": "string"
        },
        {
          "internalType": "uint256",
          "name": "timestamp",
          "type": "uint256"
        },
        {
          "internalType": "address",
          "name": "doctor",
          "type": "address"
        },
        {
          "internalType": "bool",
          "name": "isActive",
          "type": "bool"
        },
        {
          "internalType": "string",
          "name": "previousVersion",
          "type": "string"
        },
        {
          "internalType": "uint8",
          "name": "privacyLevel",
          "type": "uint8"
        }
      ],
      "stateMutability": "view",
      "type": "function"
    },
    {
      "inputs": [
        {
          "internalType": "address",
          "name": "",
          "type": "address"
        }
      ],
      "name": "patients",
      "outputs": [
        {
          "internalType": "string",
          "name": "username",
          "type": "string"
        },
        {
          "internalType": "string",
          "name": "role",
          "type": "string"
        },
        {
          "internalType": "string",
          "name": "phoneNumber",
          "type": "string"
        },
        {
          "internalType": "bool",
          "name": "isRegistered",
          "type": "bool"
        }
      ],
      "stateMutability": "view",
      "type": "function"
    },
    {
      "inputs": [
        {
          "internalType": "address",
          "name": "_patientAddress",
          "type": "address"
        },
        {
          "internalType": "string",
          "name": "_username",
          "type": "string"
        },
        {
          "internalType": "string",
          "name": "_role",
          "type": "string"
        },
        {
          "internalType": "string",
          "name": "_phoneNumber",
          "type": "string"
        }
      ],
      "name": "registerPatient",
      "outputs": [],
      "stateMutability": "nonpayable",
      "type": "function"
    },
    {
      "inputs": [
        {
          "internalType": "address",
          "name": "_patientAddress",
          "type": "address"
        }
      ],
      "name": "requestAccess",
      "outputs": [],
      "stateMutability": "nonpayable",
      "type": "function"
    },
    {
      "inputs": [],
      "name": "researcherContractAddress",
      "outputs": [
        {
          "internalType": "address",
          "name": "",
          "type": "address"
        }
      ],
      "stateMutability": "view",
      "type": "function"
    },
    {
      "inputs": [
        {
          "internalType": "address",
          "name": "_viewer",
          "type": "address"
        }
      ],
      "name": "revokeAccess",
      "outputs": [],
      "stateMutability": "nonpayable",
      "type": "function"
    },
    {
      "inputs": [
        {
          "internalType": "address",
          "name": "_auditContractAddress",
          "type": "address"
        }
      ],
      "name": "setAuditContractAddress",
      "outputs": [],
      "stateMutability": "nonpayable",
      "type": "function"
    },
    {
      "inputs": [
        {
          "internalType": "address",
          "name": "_doctorContractAddress",
          "type": "address"
        }
      ],
      "name": "setDoctorContractAddress",
      "outputs": [],
      "stateMutability": "nonpayable",
      "type": "function"
    },
    {
      "inputs": [
        {
          "internalType": "address",
          "name": "_insuranceContractAddress",
          "type": "address"
        }
      ],
      "name": "setInsuranceContractAddress",
      "outputs": [],
      "stateMutability": "nonpayable",
      "type": "function"
    },
    {
      "inputs": [
        {
          "internalType": "address",
          "name": "_researcherContractAddress",
          "type": "address"
        }
      ],
      "name": "setResearcherContractAddress",
      "outputs": [],
      "stateMutability": "nonpayable",
      "type": "function"
    }
  ],
  "bytecode": "0x60806040523480156200001157600080fd5b50600080546001600160a01b0319163390811782556040805160c0810182526005608082018181526430b236b4b760d91b60a084018190529083528351808501855291825260208281019190915280830191909152825180820184528581528284015260016060830181905293855292909252909120815181906200009790826200018e565b5060208201516001820190620000ae90826200018e565b5060408201516002820190620000c590826200018e565b50606091909101516003909101805460ff19169115159190911790556200025a565b634e487b7160e01b600052604160045260246000fd5b600181811c908216806200011257607f821691505b6020821081036200013357634e487b7160e01b600052602260045260246000fd5b50919050565b601f82111562000189576000816000526020600020601f850160051c81016020861015620001645750805b601f850160051c820191505b81811015620001855782815560010162000170565b5050505b505050565b81516001600160401b03811115620001aa57620001aa620000e7565b620001c281620001bb8454620000fd565b8462000139565b602080601f831160018114620001fa5760008415620001e15750858301515b600019600386901b1c1916600185901b17855562000185565b600085815260208120601f198616915b828110156200022b578886015182559484019460019091019084016200020a565b50858210156200024a5787850151600019600388901b60f8161c191681555b5050505050600190811b01905550565b613f84806200026a6000396000f3fe608060405234801561001057600080fd5b50600436106101735760003560e01c80639df89256116100de578063cb9b859f11610097578063e08b9d9c11610071578063e08b9d9c14610394578063eeaaa075146103a7578063f851a440146103ba578063fb6be4ec146103cd57600080fd5b8063cb9b859f1461035b578063cf2a221b1461036e578063d8f608df1461038157600080fd5b80639df89256146102cd578063a25b0bf0146102e0578063afd8297c146102f3578063b5368e2014610313578063b717a67c14610335578063bcbf71811461034857600080fd5b80636df32cd4116101305780636df32cd41461021f5780637933ef8b1461023257806385e685311461024557806389413f421461025857806391f205961461026b57806394f0df61146102a457600080fd5b8063022cb271146101785780630869cfbc1461018d5780630ac1f2c5146101b957806314c179c0146101e457806318a231a9146101f7578063197547a11461020c575b600080fd5b61018b6101863660046134be565b6103e0565b005b6101a061019b3660046134be565b61064f565b6040516101b09493929190613530565b60405180910390f35b6006546101cc906001600160a01b031681565b6040516001600160a01b0390911681526020016101b0565b6007546101cc906001600160a01b031681565b6101ff610812565b6040516101b0919061357d565b61018b61021a3660046136a0565b610874565b61018b61022d3660046134be565b610c38565b61018b6102403660046134be565b610c84565b61018b6102533660046134be565b610cd0565b61018b6102663660046134be565b610f82565b6102966102793660046137b8565b600560209081526000928352604080842090915290825290205481565b6040519081526020016101b0565b6102b76102b23660046137eb565b610fce565b6040516101b09a99989796959493929190613815565b61018b6102db3660046137eb565b611385565b6008546101cc906001600160a01b031681565b6103066103013660046134be565b6117b6565b6040516101b091906138c8565b6103266103213660046134be565b611c14565b6040516101b0939291906139fb565b6103066103433660046134be565b611e57565b6103066103563660046134be565b61247f565b6009546101cc906001600160a01b031681565b61018b61037c366004613a3e565b612ed6565b6101cc61038f366004613ad7565b6130f8565b61018b6103a23660046134be565b613122565b6101ff6103b53660046134be565b61316e565b6000546101cc906001600160a01b031681565b6101cc6103db3660046137eb565b61323c565b6001600160a01b03811660009081526001602052604090206003015460ff166104245760405162461bcd60e51b815260040161041b90613af0565b60405180910390fd5b336001600160a01b0382160361047c5760405162461bcd60e51b815260206004820152601d60248201527f43616e6e6f7420726571756573742061636365737320746f2073656c66000000604482015260640161041b565b6001600160a01b03811660009081526005602090815260408083203384529091529020544210156104e45760405162461bcd60e51b8152602060048201526012602482015271416c7265616479206861732061636365737360701b604482015260640161041b565b6001600160a01b0381166000908152600a602090815260408083208054825181850281018501909352808352919290919083018282801561054e57602002820191906000526020600020905b81546001600160a01b03168152600190910190602001808311610530575b5050505050905060005b81518110156105e357336001600160a01b031682828151811061057d5761057d613b20565b60200260200101516001600160a01b0316036105db5760405162461bcd60e51b815260206004820152601760248201527f5265717565737420616c72656164792070656e64696e67000000000000000000604482015260640161041b565b600101610558565b506001600160a01b0382166000818152600a60209081526040808320805460018101825590845291832090910180546001600160a01b0319163390811790915590519092917f40c7749b16fdfb0d550f20273a7767875059d647af94f5a9610c63ad73dcc79f91a35050565b60016020526000908152604090208054819061066a90613b36565b80601f016020809104026020016040519081016040528092919081815260200182805461069690613b36565b80156106e35780601f106106b8576101008083540402835291602001916106e3565b820191906000526020600020905b8154815290600101906020018083116106c657829003601f168201915b5050505050908060010180546106f890613b36565b80601f016020809104026020016040519081016040528092919081815260200182805461072490613b36565b80156107715780601f1061074657610100808354040283529160200191610771565b820191906000526020600020905b81548152906001019060200180831161075457829003601f168201915b50505050509080600201805461078690613b36565b80601f01602080910402602001604051908101604052809291908181526020018280546107b290613b36565b80156107ff5780601f106107d4576101008083540402835291602001916107ff565b820191906000526020600020905b8154815290600101906020018083116107e257829003601f168201915b5050506003909301549192505060ff1684565b6060600280548060200260200160405190810160405280929190818152602001828054801561086a57602002820191906000526020600020905b81546001600160a01b0316815260019091019060200180831161084c575b5050505050905090565b6001600160a01b03881660009081526001602052604090206003015460ff166108af5760405162461bcd60e51b815260040161041b90613af0565b60028160ff1611156108fb5760405162461bcd60e51b8152602060048201526015602482015274125b9d985b1a59081c1c9a5d9858de481b195d995b605a1b604482015260640161041b565b8151156109cc5760006004836040516109149190613b70565b90815260200160405180910390205490506000600360008b6001600160a01b03166001600160a01b03168152602001908152602001600020828154811061095d5761095d613b20565b906000526020600020906009020160060160146101000a81548160ff021916908315150217905550886001600160a01b03167f265a47e189bdaf1e4e75ca93474dba2ad21591bb54b62e3b8633029a440dcbf6848a426040516109c293929190613b8c565b60405180910390a2505b6040805161014081018252888152602080820189905281830188905260608201879052608082018690524260a08301523360c0830152600160e08301819052610100830186905260ff85166101208401526001600160a01b038c1660009081526003835293842080549182018155845292208151919283926009909102909101908190610a599082613c12565b5060208201516001820190610a6e9082613c12565b5060408201516002820190610a839082613c12565b5060608201516003820190610a989082613c12565b5060808201516004820190610aad9082613c12565b5060a0820151600582015560c082015160068201805460e08501511515600160a01b026001600160a81b03199091166001600160a01b03909316929092179190911790556101008201516007820190610b069082613c12565b5061012091909101516008909101805460ff191660ff9092169190911790556001600160a01b038916600090815260036020526040902054610b4a90600190613ce8565b600489604051610b5a9190613b70565b908152602001604051809103902081905550336001600160a01b0316896001600160a01b03167f77f7fbc747ad443f3ea5f507abbc21d187ecb84679a348cbd91c6fbcfd405c288a4286604051610bb393929190613d01565b60405180910390a36009546001600160a01b031615610c2d5760095460405163bff4513960e01b81526001600160a01b039091169063bff4513990610c009033908d908d90600401613d2d565b600060405180830381600087803b158015610c1a57600080fd5b505af1925050508015610c2b575060015b505b505050505050505050565b6000546001600160a01b03163314610c625760405162461bcd60e51b815260040161041b90613d86565b600780546001600160a01b0319166001600160a01b0392909216919091179055565b6000546001600160a01b03163314610cae5760405162461bcd60e51b815260040161041b90613d86565b600680546001600160a01b0319166001600160a01b0392909216919091179055565b3360009081526001602052604090206003015460ff16610d235760405162461bcd60e51b815260206004820152600e60248201526d14d95b99195c881a5b9d985b1a5960921b604482015260640161041b565b3360008181526005602090815260408083206001600160a01b0386168085529252808320839055519092917f825c8be24eb0df19500f63e86c29e7d0d951e73056b889b891d85e40938d9b6e91a36006546001600160a01b031615610de257600654604051630bbc386160e11b81526001600160a01b0383811660048301523360248301529091169063177870c290604401600060405180830381600087803b158015610dcf57600080fd5b505af1925050508015610de0575060015b505b6007546001600160a01b031615610e5357600754604051630bbc386160e11b81526001600160a01b0383811660048301523360248301529091169063177870c290604401600060405180830381600087803b158015610e4057600080fd5b505af1925050508015610e51575060015b505b6008546001600160a01b031615610ec457600854604051630bbc386160e11b81526001600160a01b0383811660048301523360248301529091169063177870c290604401600060405180830381600087803b158015610eb157600080fd5b505af1925050508015610ec2575060015b505b6009546001600160a01b031615610f7f5760095460405163bff4513960e01b815233600482015260806024820152600e60848201526d1050d0d154d4d7d4915593d2d15160921b60a48201526001600160a01b03838116604483015260c06064830152600d60c48301526c4d616e75616c205265766f6b6560981b60e48301529091169063bff451399061010401600060405180830381600087803b158015610f6c57600080fd5b505af1925050508015610f7d575060015b505b50565b6000546001600160a01b03163314610fac5760405162461bcd60e51b815260040161041b90613d86565b600980546001600160a01b0319166001600160a01b0392909216919091179055565b60036020528160005260406000208181548110610fea57600080fd5b90600052602060002090600902016000915091505080600001805461100e90613b36565b80601f016020809104026020016040519081016040528092919081815260200182805461103a90613b36565b80156110875780601f1061105c57610100808354040283529160200191611087565b820191906000526020600020905b81548152906001019060200180831161106a57829003601f168201915b50505050509080600101805461109c90613b36565b80601f01602080910402602001604051908101604052809291908181526020018280546110c890613b36565b80156111155780601f106110ea57610100808354040283529160200191611115565b820191906000526020600020905b8154815290600101906020018083116110f857829003601f168201915b50505050509080600201805461112a90613b36565b80601f016020809104026020016040519081016040528092919081815260200182805461115690613b36565b80156111a35780601f10611178576101008083540402835291602001916111a3565b820191906000526020600020905b81548152906001019060200180831161118657829003601f168201915b5050505050908060030180546111b890613b36565b80601f01602080910402602001604051908101604052809291908181526020018280546111e490613b36565b80156112315780601f1061120657610100808354040283529160200191611231565b820191906000526020600020905b81548152906001019060200180831161121457829003601f168201915b50505050509080600401805461124690613b36565b80601f016020809104026020016040519081016040528092919081815260200182805461127290613b36565b80156112bf5780601f10611294576101008083540402835291602001916112bf565b820191906000526020600020905b8154815290600101906020018083116112a257829003601f168201915b5050505060058301546006840154600785018054949592946001600160a01b0383169450600160a01b90920460ff1692916112f990613b36565b80601f016020809104026020016040519081016040528092919081815260200182805461132590613b36565b80156113725780601f1061134757610100808354040283529160200191611372565b820191906000526020600020905b81548152906001019060200180831161135557829003601f168201915b5050506008909301549192505060ff168a565b3360009081526001602052604090206003015460ff166113d85760405162461bcd60e51b815260206004820152600e60248201526d14d95b99195c881a5b9d985b1a5960921b604482015260640161041b565b6001600160a01b0382166114275760405162461bcd60e51b8152602060048201526016602482015275496e76616c696420766965776572206164647265737360501b604482015260640161041b565b6114318142613dc7565b3360008181526005602090815260408083206001600160a01b0388168085529252909120929092557f65d0cc1e52d49938ca4ad9f423c79c1b84d914b9a683fbc5d3f93ac3cc5635f56114848442613dc7565b60405190815260200160405180910390a36006546001600160a01b031615611506576006546040516301fe843160e31b81526001600160a01b03848116600483015233602483015290911690630ff4218890604401600060405180830381600087803b1580156114f357600080fd5b505af1925050508015611504575060015b505b6007546001600160a01b031615611577576007546040516301fe843160e31b81526001600160a01b03848116600483015233602483015290911690630ff4218890604401600060405180830381600087803b15801561156457600080fd5b505af1925050508015611575575060015b505b6008546001600160a01b0316156115e8576008546040516301fe843160e31b81526001600160a01b03848116600483015233602483015290911690630ff4218890604401600060405180830381600087803b1580156115d557600080fd5b505af19250505080156115e6575060015b505b336000908152600a60205260408120905b81548110156116f557836001600160a01b031682828154811061161e5761161e613b20565b6000918252602090912001546001600160a01b0316036116ed578154829061164890600190613ce8565b8154811061165857611658613b20565b9060005260206000200160009054906101000a90046001600160a01b031682828154811061168857611688613b20565b9060005260206000200160006101000a8154816001600160a01b0302191690836001600160a01b03160217905550818054806116c6576116c6613dda565b600082815260209020810160001990810180546001600160a01b03191690550190556116f5565b6001016115f9565b506009546001600160a01b0316156117b15760095460405163bff4513960e01b815233600482015260806024820152600e60848201526d1050d0d154d4d7d1d4905395115160921b60a48201526001600160a01b03858116604483015260c06064830152600d60c48301526c3720446179732041636365737360981b60e48301529091169063bff451399061010401600060405180830381600087803b15801561179e57600080fd5b505af19250505080156117af575060015b505b505050565b6001600160a01b03811660009081526001602052604090206003015460609060ff166117f45760405162461bcd60e51b815260040161041b90613af0565b6001600160a01b038216600090815260036020908152604080832080548251818502810185019093528083529193909284015b82821015611c0957838290600052602060002090600902016040518061014001604052908160008201805461185b90613b36565b80601f016020809104026020016040519081016040528092919081815260200182805461188790613b36565b80156118d45780601f106118a9576101008083540402835291602001916118d4565b820191906000526020600020905b8154815290600101906020018083116118b757829003601f168201915b505050505081526020016001820180546118ed90613b36565b80601f016020809104026020016040519081016040528092919081815260200182805461191990613b36565b80156119665780601f1061193b57610100808354040283529160200191611966565b820191906000526020600020905b81548152906001019060200180831161194957829003601f168201915b5050505050815260200160028201805461197f90613b36565b80601f01602080910402602001604051908101604052809291908181526020018280546119ab90613b36565b80156119f85780601f106119cd576101008083540402835291602001916119f8565b820191906000526020600020905b8154815290600101906020018083116119db57829003601f168201915b50505050508152602001600382018054611a1190613b36565b80601f0160208091040260200160405190810160405280929190818152602001828054611a3d90613b36565b8015611a8a5780601f10611a5f57610100808354040283529160200191611a8a565b820191906000526020600020905b815481529060010190602001808311611a6d57829003601f168201915b50505050508152602001600482018054611aa390613b36565b80601f0160208091040260200160405190810160405280929190818152602001828054611acf90613b36565b8015611b1c5780601f10611af157610100808354040283529160200191611b1c565b820191906000526020600020905b815481529060010190602001808311611aff57829003601f168201915b50505091835250506005820154602082015260068201546001600160a01b0381166040830152600160a01b900460ff1615156060820152600782018054608090920191611b6890613b36565b80601f0160208091040260200160405190810160405280929190818152602001828054611b9490613b36565b8015611be15780601f10611bb657610100808354040283529160200191611be1565b820191906000526020600020905b815481529060010190602001808311611bc457829003601f168201915b50505091835250506008919091015460ff166020918201529082526001929092019101611827565b505050509050919050565b6001600160a01b0381166000908152600160205260409020600301546060908190819060ff16611c565760405162461bcd60e51b815260040161041b90613af0565b6001600160a01b038416600090815260016020526040808220815160808101909252805482908290611c8790613b36565b80601f0160208091040260200160405190810160405280929190818152602001828054611cb390613b36565b8015611d005780601f10611cd557610100808354040283529160200191611d00565b820191906000526020600020905b815481529060010190602001808311611ce357829003601f168201915b50505050508152602001600182018054611d1990613b36565b80601f0160208091040260200160405190810160405280929190818152602001828054611d4590613b36565b8015611d925780601f10611d6757610100808354040283529160200191611d92565b820191906000526020600020905b815481529060010190602001808311611d7557829003601f168201915b50505050508152602001600282018054611dab90613b36565b80601f0160208091040260200160405190810160405280929190818152602001828054611dd790613b36565b8015611e245780601f10611df957610100808354040283529160200191611e24565b820191906000526020600020905b815481529060010190602001808311611e0757829003601f168201915b50505091835250506003919091015460ff1615156020918201528151908201516040909201519097919650945092505050565b6001600160a01b03811660009081526001602052604090206003015460609060ff16611e955760405162461bcd60e51b815260040161041b90613af0565b336001600160a01b03831614611efb5760405162461bcd60e51b815260206004820152602560248201527f41636365737320616c6c6f776564206f6e6c7920666f722070617469656e742060448201526437bbb732b960d91b606482015260840161041b565b6000805b6001600160a01b038416600090815260036020526040902054811015611f83576001600160a01b0384166000908152600360205260409020805482908110611f4957611f49613b20565b906000526020600020906009020160060160149054906101000a900460ff1615611f7b5781611f7781613df0565b9250505b600101611eff565b5060008167ffffffffffffffff811115611f9f57611f9f6135ca565b604051908082528060200260200182016040528015611fd857816020015b611fc5613441565b815260200190600190039081611fbd5790505b5090506000805b6001600160a01b038616600090815260036020526040902054811015612475576001600160a01b038616600090815260036020526040902080548290811061202957612029613b20565b906000526020600020906009020160060160149054906101000a900460ff161561246d576001600160a01b038616600090815260036020526040902080548290811061207757612077613b20565b9060005260206000209060090201604051806101400160405290816000820180546120a190613b36565b80601f01602080910402602001604051908101604052809291908181526020018280546120cd90613b36565b801561211a5780601f106120ef5761010080835404028352916020019161211a565b820191906000526020600020905b8154815290600101906020018083116120fd57829003601f168201915b5050505050815260200160018201805461213390613b36565b80601f016020809104026020016040519081016040528092919081815260200182805461215f90613b36565b80156121ac5780601f10612181576101008083540402835291602001916121ac565b820191906000526020600020905b81548152906001019060200180831161218f57829003601f168201915b505050505081526020016002820180546121c590613b36565b80601f01602080910402602001604051908101604052809291908181526020018280546121f190613b36565b801561223e5780601f106122135761010080835404028352916020019161223e565b820191906000526020600020905b81548152906001019060200180831161222157829003601f168201915b5050505050815260200160038201805461225790613b36565b80601f016020809104026020016040519081016040528092919081815260200182805461228390613b36565b80156122d05780601f106122a5576101008083540402835291602001916122d0565b820191906000526020600020905b8154815290600101906020018083116122b357829003601f168201915b505050505081526020016004820180546122e990613b36565b80601f016020809104026020016040519081016040528092919081815260200182805461231590613b36565b80156123625780601f1061233757610100808354040283529160200191612362565b820191906000526020600020905b81548152906001019060200180831161234557829003601f168201915b50505091835250506005820154602082015260068201546001600160a01b0381166040830152600160a01b900460ff16151560608201526007820180546080909201916123ae90613b36565b80601f01602080910402602001604051908101604052809291908181526020018280546123da90613b36565b80156124275780601f106123fc57610100808354040283529160200191612427565b820191906000526020600020905b81548152906001019060200180831161240a57829003601f168201915b50505091835250506008919091015460ff16602090910152835184908490811061245357612453613b20565b6020026020010181905250818061246990613df0565b9250505b600101611fdf565b5090949350505050565b6001600160a01b0381811660008181526005602090815260408083203380855292528220546006546060959490921493429091119291161561252e57600654604051630bc1381960e21b81523360048201526001600160a01b0390911690632f04e06490602401600060405180830381865afa92505050801561252457506040513d6000823e601f3d908101601f191682016040526125219190810190613e56565b60015b1561252e57925050505b82806125375750815b8061253f5750805b61257b5760405162461bcd60e51b815260206004820152600d60248201526c1058d8d95cdcc819195b9a5959609a1b604482015260640161041b565b6000831561258b575060ff6125a5565b8115612599575060026125a5565b6125a233613274565b90505b6000805b6001600160a01b0388166000908152600360205260409020548110156129fb576001600160a01b03881660009081526003602052604081208054839081106125f3576125f3613b20565b90600052602060002090600902016040518061014001604052908160008201805461261d90613b36565b80601f016020809104026020016040519081016040528092919081815260200182805461264990613b36565b80156126965780601f1061266b57610100808354040283529160200191612696565b820191906000526020600020905b81548152906001019060200180831161267957829003601f168201915b505050505081526020016001820180546126af90613b36565b80601f01602080910402602001604051908101604052809291908181526020018280546126db90613b36565b80156127285780601f106126fd57610100808354040283529160200191612728565b820191906000526020600020905b81548152906001019060200180831161270b57829003601f168201915b5050505050815260200160028201805461274190613b36565b80601f016020809104026020016040519081016040528092919081815260200182805461276d90613b36565b80156127ba5780601f1061278f576101008083540402835291602001916127ba565b820191906000526020600020905b81548152906001019060200180831161279d57829003601f168201915b505050505081526020016003820180546127d390613b36565b80601f01602080910402602001604051908101604052809291908181526020018280546127ff90613b36565b801561284c5780601f106128215761010080835404028352916020019161284c565b820191906000526020600020905b81548152906001019060200180831161282f57829003601f168201915b5050505050815260200160048201805461286590613b36565b80601f016020809104026020016040519081016040528092919081815260200182805461289190613b36565b80156128de5780601f106128b3576101008083540402835291602001916128de565b820191906000526020600020905b8154815290600101906020018083116128c157829003601f168201915b50505091835250506005820154602082015260068201546001600160a01b0381166040830152600160a01b900460ff161515606082015260078201805460809092019161292a90613b36565b80601f016020809104026020016040519081016040528092919081815260200182805461295690613b36565b80156129a35780601f10612978576101008083540402835291602001916129a3565b820191906000526020600020905b81548152906001019060200180831161298657829003601f168201915b50505091835250506008919091015460ff1660209091015260e0810151909150156129f25786806129df57508360ff1681610120015160ff1611155b156129f257826129ee81613df0565b9350505b506001016125a9565b5060008167ffffffffffffffff811115612a1757612a176135ca565b604051908082528060200260200182016040528015612a5057816020015b612a3d613441565b815260200190600190039081612a355790505b5090506000805b6001600160a01b038a16600090815260036020526040902054811015612ec8576001600160a01b038a166000908152600360205260408120805483908110612aa157612aa1613b20565b906000526020600020906009020160405180610140016040529081600082018054612acb90613b36565b80601f0160208091040260200160405190810160405280929190818152602001828054612af790613b36565b8015612b445780601f10612b1957610100808354040283529160200191612b44565b820191906000526020600020905b815481529060010190602001808311612b2757829003601f168201915b50505050508152602001600182018054612b5d90613b36565b80601f0160208091040260200160405190810160405280929190818152602001828054612b8990613b36565b8015612bd65780601f10612bab57610100808354040283529160200191612bd6565b820191906000526020600020905b815481529060010190602001808311612bb957829003601f168201915b50505050508152602001600282018054612bef90613b36565b80601f0160208091040260200160405190810160405280929190818152602001828054612c1b90613b36565b8015612c685780601f10612c3d57610100808354040283529160200191612c68565b820191906000526020600020905b815481529060010190602001808311612c4b57829003601f168201915b50505050508152602001600382018054612c8190613b36565b80601f0160208091040260200160405190810160405280929190818152602001828054612cad90613b36565b8015612cfa5780601f10612ccf57610100808354040283529160200191612cfa565b820191906000526020600020905b815481529060010190602001808311612cdd57829003601f168201915b50505050508152602001600482018054612d1390613b36565b80601f0160208091040260200160405190810160405280929190818152602001828054612d3f90613b36565b8015612d8c5780601f10612d6157610100808354040283529160200191612d8c565b820191906000526020600020905b815481529060010190602001808311612d6f57829003601f168201915b50505091835250506005820154602082015260068201546001600160a01b0381166040830152600160a01b900460ff1615156060820152600782018054608090920191612dd890613b36565b80601f0160208091040260200160405190810160405280929190818152602001828054612e0490613b36565b8015612e515780601f10612e2657610100808354040283529160200191612e51565b820191906000526020600020905b815481529060010190602001808311612e3457829003601f168201915b50505091835250506008919091015460ff1660209091015260e081015190915015612ebf578880612e8d57508560ff1681610120015160ff1611155b15612ebf5780848481518110612ea557612ea5613b20565b60200260200101819052508280612ebb90613df0565b9350505b50600101612a57565b509098975050505050505050565b6000546001600160a01b03163314612f005760405162461bcd60e51b815260040161041b90613d86565b6001600160a01b03841660009081526001602052604090206003015460ff1615612f6c5760405162461bcd60e51b815260206004820152601a60248201527f50617469656e7420616c72656164792072656769737465726564000000000000604482015260640161041b565b6040805160808101825284815260208082018590528183018490526001606083018190526001600160a01b038816600090815291529190912081518190612fb39082613c12565b5060208201516001820190612fc89082613c12565b5060408201516002820190612fdd9082613c12565b50606091909101516003909101805460ff1916911515919091179055600280546001810182556000919091527f405787fa12a823e0f2b7631cc41b3ba8828b3321ca811111fa75cd3aa3bb5ace0180546001600160a01b0319166001600160a01b0386169081179091556040517f5aad8bc7ad9861b16c6d01a65f54118dfe585a51e408ac2e7b9499148d515c41906130799086908690613ed3565b60405180910390a26009546001600160a01b0316156117af5760095460405163bff4513960e01b81526001600160a01b039091169063bff45139906130c690339088908890600401613ef8565b600060405180830381600087803b1580156130e057600080fd5b505af19250505080156130f1575060015b5050505050565b6002818154811061310857600080fd5b6000918252602090912001546001600160a01b0316905081565b6000546001600160a01b0316331461314c5760405162461bcd60e51b815260040161041b90613d86565b600880546001600160a01b0319166001600160a01b0392909216919091179055565b6060336001600160a01b038316146131c85760405162461bcd60e51b815260206004820152601e60248201527f4f6e6c792070617469656e742063616e20766965772072657175657374730000604482015260640161041b565b6001600160a01b0382166000908152600a60209081526040918290208054835181840281018401909452808452909183018282801561323057602002820191906000526020600020905b81546001600160a01b03168152600190910190602001808311613212575b50505050509050919050565b600a602052816000526040600020818154811061325857600080fd5b6000918252602090912001546001600160a01b03169150829050565b6006546000906001600160a01b03161561330d57600654604051630bc1381960e21b81526001600160a01b03848116600483015290911690632f04e06490602401600060405180830381865afa9250505080156132f357506040513d6000823e601f3d908101601f191682016040526132f09190810190613e56565b60015b1561330d57801561330957506002949350505050565b5050505b6007546001600160a01b0316156133a3576007546040516387e5979360e01b81526001600160a01b038481166004830152909116906387e5979390602401600060405180830381865afa92505050801561338957506040513d6000823e601f3d908101601f191682016040526133869190810190613e56565b60015b156133a357801561339f57506001949350505050565b5050505b6008546001600160a01b031615613439576008546040516373f5d26160e11b81526001600160a01b0384811660048301529091169063e7eba4c290602401600060405180830381865afa92505050801561341f57506040513d6000823e601f3d908101601f1916820160405261341c9190810190613e56565b60015b1561343957801561343557506000949350505050565b5050505b506000919050565b60405180610140016040528060608152602001606081526020016060815260200160608152602001606081526020016000815260200160006001600160a01b0316815260200160001515815260200160608152602001600060ff1681525090565b80356001600160a01b03811681146134b957600080fd5b919050565b6000602082840312156134d057600080fd5b6134d9826134a2565b9392505050565b60005b838110156134fb5781810151838201526020016134e3565b50506000910152565b6000815180845261351c8160208601602086016134e0565b601f01601f19169290920160200192915050565b6080815260006135436080830187613504565b82810360208401526135558187613504565b905082810360408401526135698186613504565b915050821515606083015295945050505050565b6020808252825182820181905260009190848201906040850190845b818110156135be5783516001600160a01b031683529284019291840191600101613599565b50909695505050505050565b634e487b7160e01b600052604160045260246000fd5b604051601f8201601f1916810167ffffffffffffffff81118282101715613609576136096135ca565b604052919050565b600067ffffffffffffffff82111561362b5761362b6135ca565b50601f01601f191660200190565b600082601f83011261364a57600080fd5b813561365d61365882613611565b6135e0565b81815284602083860101111561367257600080fd5b816020850160208301376000918101602001919091529392505050565b803560ff811681146134b957600080fd5b600080600080600080600080610100898b0312156136bd57600080fd5b6136c6896134a2565b9750602089013567ffffffffffffffff808211156136e357600080fd5b6136ef8c838d01613639565b985060408b013591508082111561370557600080fd5b6137118c838d01613639565b975060608b013591508082111561372757600080fd5b6137338c838d01613639565b965060808b013591508082111561374957600080fd5b6137558c838d01613639565b955060a08b013591508082111561376b57600080fd5b6137778c838d01613639565b945060c08b013591508082111561378d57600080fd5b5061379a8b828c01613639565b9250506137a960e08a0161368f565b90509295985092959890939650565b600080604083850312156137cb57600080fd5b6137d4836134a2565b91506137e2602084016134a2565b90509250929050565b600080604083850312156137fe57600080fd5b613807836134a2565b946020939093013593505050565b60006101408083526138298184018e613504565b9050828103602084015261383d818d613504565b90508281036040840152613851818c613504565b90508281036060840152613865818b613504565b90508281036080840152613879818a613504565b60a084018990526001600160a01b03881660c085015286151560e085015283810361010085015290506138ac8186613504565b91505060ff83166101208301529b9a5050505050505050505050565b600060208083018184528085518083526040925060408601915060408160051b87010184880160005b83811015612ec857603f198984030185528151610140815181865261391882870182613504565b915050888201518582038a8701526139308282613504565b91505087820151858203898701526139488282613504565b915050606080830151868303828801526139628382613504565b925050506080808301518683038288015261397d8382613504565b9250505060a080830151818701525060c0808301516139a6828801826001600160a01b03169052565b505060e08281015115159086015261010080830151868303828801526139cc8382613504565b925050506101208083015192506139e78187018460ff169052565b5095880195935050908601906001016138f1565b606081526000613a0e6060830186613504565b8281036020840152613a208186613504565b90508281036040840152613a348185613504565b9695505050505050565b60008060008060808587031215613a5457600080fd5b613a5d856134a2565b9350602085013567ffffffffffffffff80821115613a7a57600080fd5b613a8688838901613639565b94506040870135915080821115613a9c57600080fd5b613aa888838901613639565b93506060870135915080821115613abe57600080fd5b50613acb87828801613639565b91505092959194509250565b600060208284031215613ae957600080fd5b5035919050565b60208082526016908201527514185d1a595b9d081b9bdd081c9959da5cdd195c995960521b604082015260600190565b634e487b7160e01b600052603260045260246000fd5b600181811c90821680613b4a57607f821691505b602082108103613b6a57634e487b7160e01b600052602260045260246000fd5b50919050565b60008251613b828184602087016134e0565b9190910192915050565b606081526000613b9f6060830186613504565b8281036020840152613bb18186613504565b915050826040830152949350505050565b601f8211156117b1576000816000526020600020601f850160051c81016020861015613beb5750805b601f850160051c820191505b81811015613c0a57828155600101613bf7565b505050505050565b815167ffffffffffffffff811115613c2c57613c2c6135ca565b613c4081613c3a8454613b36565b84613bc2565b602080601f831160018114613c755760008415613c5d5750858301515b600019600386901b1c1916600185901b178555613c0a565b600085815260208120601f198616915b82811015613ca457888601518255948401946001909101908401613c85565b5085821015613cc25787850151600019600388901b60f8161c191681555b5050505050600190811b01905550565b634e487b7160e01b600052601160045260246000fd5b81810381811115613cfb57613cfb613cd2565b92915050565b606081526000613d146060830186613504565b905083602083015260ff83166040830152949350505050565b6001600160a01b038481168252608060208301819052600c908301526b149150d3d49117d05111115160a21b60a08301528316604082015260c060608201819052600090613d7d90830184613504565b95945050505050565b60208082526021908201527f4f6e6c792061646d696e2063616e2063616c6c20746869732066756e6374696f6040820152603760f91b606082015260800190565b80820180821115613cfb57613cfb613cd2565b634e487b7160e01b600052603160045260246000fd5b600060018201613e0257613e02613cd2565b5060010190565b600082601f830112613e1a57600080fd5b8151613e2861365882613611565b818152846020838601011115613e3d57600080fd5b613e4e8260208301602087016134e0565b949350505050565b600080600060608486031215613e6b57600080fd5b835167ffffffffffffffff80821115613e8357600080fd5b613e8f87838801613e09565b94506020860151915080821115613ea557600080fd5b50613eb286828701613e09565b92505060408401518015158114613ec857600080fd5b809150509250925092565b604081526000613ee66040830185613504565b8281036020840152613d7d8185613504565b6001600160a01b038481168252608060208301819052601290830152711410551251539517d49151d254d51154915160721b60a08301528316604082015260c060608201819052600090613d7d9083018461350456fea2646970667358221220fab6194b0271c3b4c431b9406e04a841397c8e025b2229bb0d439d26fe74680964736f6c63430008180033",
  "linkReferences": {},
  "deployedLinkReferences": {}
}