{
  "_format": "hh-sol-artifact-1",
  "contractName": "PatientManagement",
  "sourceName": "contracts/patientcontract.sol",
  "abi": [
    {
      "inputs": [],
      "stateMutability": "nonpayable",
      "type": "constructor"
    },
    {
      "anonymous": false,
      "inputs": [
        {
          "indexed": true,
          "internalType": "address",
          "name": "patient",
          "type": "address"
        },
        {
          "indexed": true,
          "internalType": "address",
          "name": "viewer",
          "type": "address"
        },
        {
          "indexed": false,
          "internalType": "uint256",
          "name": "expiry",
          "type": "uint256"
        }
      ],
      "name": "AccessGranted",
      "type": "event"
    },
    {
      "anonymous": false,
      "inputs": [
        {
          "indexed": true,
          "internalType": "address",
          "name": "patient",
          "type": "address"
        },
        {
          "indexed": true,
          "internalType": "address",
          "name": "viewer",
          "type": "address"
        }
      ],
      "name": "AccessRequested",
      "type": "event"
    },
    {
      "anonymous": false,
      "inputs": [
        {
          "indexed": true,
          "internalType": "address",
          "name": "patient",
          "type": "address"
        },
        {
          "indexed": true,
          "internalType": "address",
          "name": "viewer",
          "type": "address"
        }
      ],
      "name": "AccessRevoked",
      "type": "event"
    },
    {
      "anonymous": false,
      "inputs": [
        {
          "indexed": true,
          "internalType": "address",
          "name": "patientAddress",
          "type": "address"
        },
        {
          "indexed": true,
          "internalType": "address",
          "name": "doctorAddress",
          "type": "address"
        },
        {
          "indexed": false,
          "internalType": "string",
          "name": "ipfsHash",
          "type": "string"
        },
        {
          "indexed": false,
          "internalType": "uint256",
          "name": "timestamp",
          "type": "uint256"
        },
        {
          "indexed": false,
          "internalType": "uint8",
          "name": "privacyLevel",
          "type": "uint8"
        }
      ],
      "name": "MedicalRecordAdded",
      "type": "event"
    },
    {
      "anonymous": false,
      "inputs": [
        {
          "indexed": true,
          "internalType": "address",
          "name": "patientAddress",
          "type": "address"
        },
        {
          "indexed": false,
          "internalType": "string",
          "name": "oldIpfsHash",
          "type": "string"
        },
        {
          "indexed": false,
          "internalType": "string",
          "name": "newIpfsHash",
          "type": "string"
        },
        {
          "indexed": false,
          "internalType": "uint256",
          "name": "timestamp",
          "type": "uint256"
        }
      ],
      "name": "MedicalRecordUpdated",
      "type": "event"
    },
    {
      "anonymous": false,
      "inputs": [
        {
          "indexed": true,
          "internalType": "address",
          "name": "patientAddress",
          "type": "address"
        },
        {
          "indexed": false,
          "internalType": "string",
          "name": "username",
          "type": "string"
        },
        {
          "indexed": false,
          "internalType": "string",
          "name": "role",
          "type": "string"
        }
      ],
      "name": "PatientRegistered",
      "type": "event"
    },
    {
      "inputs": [
        {
          "internalType": "address",
          "name": "",
          "type": "address"
        },
        {
          "internalType": "address",
          "name": "",
          "type": "address"
        }
      ],
      "name": "accessExpiry",
      "outputs": [
        {
          "internalType": "uint256",
          "name": "",
          "type": "uint256"
        }
      ],
      "stateMutability": "view",
      "type": "function"
    },
    {
      "inputs": [
        {
          "internalType": "address",
          "name": "_patientAddress",
          "type": "address"
        },
        {
          "internalType": "string",
          "name": "_ipfsHash",
          "type": "string"
        },
        {
          "internalType": "string",
          "name": "_fileType",
          "type": "string"
        },
        {
          "internalType": "string",
          "name": "_fileName",
          "type": "string"
        },
        {
          "internalType": "string",
          "name": "_title",
          "type": "string"
        },
        {
          "internalType": "string",
          "name": "_resume",
          "type": "string"
        },
        {
          "internalType": "string",
          "name": "_previousVersion",
          "type": "string"
        },
        {
          "internalType": "uint8",
          "name": "_privacyLevel",
          "type": "uint8"
        }
      ],
      "name": "addMedicalRecord",
      "outputs": [],
      "stateMutability": "nonpayable",
      "type": "function"
    },
    {
      "inputs": [],
      "name": "admin",
      "outputs": [
        {
          "internalType": "address",
          "name": "",
          "type": "address"
        }
      ],
      "stateMutability": "view",
      "type": "function"
    },
    {
      "inputs": [
        {
          "internalType": "uint256",
          "name": "",
          "type": "uint256"
        }
      ],
      "name": "allPatients",
      "outputs": [
        {
          "internalType": "address",
          "name": "",
          "type": "address"
        }
      ],
      "stateMutability": "view",
      "type": "function"
    },
    {
      "inputs": [],
      "name": "auditContractAddress",
      "outputs": [
        {
          "internalType": "address",
          "name": "",
          "type": "address"
        }
      ],
      "stateMutability": "view",
      "type": "function"
    },
    {
      "inputs": [],
      "name": "doctorContractAddress",
      "outputs": [
        {
          "internalType": "address",
          "name": "",
          "type": "address"
        }
      ],
      "stateMutability": "view",
      "type": "function"
    },
    {
      "inputs": [
        {
          "internalType": "address",
          "name": "_patientAddress",
          "type": "address"
        }
      ],
      "name": "getActiveRecords",
      "outputs": [
        {
          "components": [
            {
              "internalType": "string",
              "name": "ipfsHash",
              "type": "string"
            },
            {
              "internalType": "string",
              "name": "fileType",
              "type": "string"
            },
            {
              "internalType": "string",
              "name": "fileName",
              "type": "string"
            },
            {
              "internalType": "string",
              "name": "title",
              "type": "string"
            },
            {
              "internalType": "string",
              "name": "resume",
              "type": "string"
            },
            {
              "internalType": "uint256",
              "name": "timestamp",
              "type": "uint256"
            },
            {
              "internalType": "address",
              "name": "doctor",
              "type": "address"
            },
            {
              "internalType": "bool",
              "name": "isActive",
              "type": "bool"
            },
            {
              "internalType": "string",
              "name": "previousVersion",
              "type": "string"
            },
            {
              "internalType": "uint8",
              "name": "privacyLevel",
              "type": "uint8"
            }
          ],
          "internalType": "struct PatientManagement.MedicalRecord[]",
          "name": "",
          "type": "tuple[]"
        }
      ],
      "stateMutability": "view",
      "type": "function"
    },
    {
      "inputs": [],
      "name": "getAllPatients",
      "outputs": [
        {
          "internalType": "address[]",
          "name": "",
          "type": "address[]"
        }
      ],
      "stateMutability": "view",
      "type": "function"
    },
    {
      "inputs": [
        {
          "internalType": "address",
          "name": "_patientAddress",
          "type": "address"
        }
      ],
      "name": "getMedicalRecords",
      "outputs": [
        {
          "components": [
            {
              "internalType": "string",
              "name": "ipfsHash",
              "type": "string"
            },
            {
              "internalType": "string",
              "name": "fileType",
              "type": "string"
            },
            {
              "internalType": "string",
              "name": "fileName",
              "type": "string"
            },
            {
              "internalType": "string",
              "name": "title",
              "type": "string"
            },
            {
              "internalType": "string",
              "name": "resume",
              "type": "string"
            },
            {
              "internalType": "uint256",
              "name": "timestamp",
              "type": "uint256"
            },
            {
              "internalType": "address",
              "name": "doctor",
              "type": "address"
            },
            {
              "internalType": "bool",
              "name": "isActive",
              "type": "bool"
            },
            {
              "internalType": "string",
              "name": "previousVersion",
              "type": "string"
            },
            {
              "internalType": "uint8",
              "name": "privacyLevel",
              "type": "uint8"
            }
          ],
          "internalType": "struct PatientManagement.MedicalRecord[]",
          "name": "",
          "type": "tuple[]"
        }
      ],
      "stateMutability": "view",
      "type": "function"
    },
    {
      "inputs": [
        {
          "internalType": "address",
          "name": "_patientAddress",
          "type": "address"
        }
      ],
      "name": "getPatient",
      "outputs": [
        {
          "internalType": "string",
          "name": "username",
          "type": "string"
        },
        {
          "internalType": "string",
          "name": "role",
          "type": "string"
        }
      ],
      "stateMutability": "view",
      "type": "function"
    },
    {
      "inputs": [
        {
          "internalType": "address",
          "name": "_patientAddress",
          "type": "address"
        }
      ],
      "name": "getPatientAccessRequests",
      "outputs": [
        {
          "internalType": "address[]",
          "name": "",
          "type": "address[]"
        }
      ],
      "stateMutability": "view",
      "type": "function"
    },
    {
      "inputs": [
        {
          "internalType": "address",
          "name": "_patientAddress",
          "type": "address"
        }
      ],
      "name": "getSharedRecords",
      "outputs": [
        {
          "components": [
            {
              "internalType": "string",
              "name": "ipfsHash",
              "type": "string"
            },
            {
              "internalType": "string",
              "name": "fileType",
              "type": "string"
            },
            {
              "internalType": "string",
              "name": "fileName",
              "type": "string"
            },
            {
              "internalType": "string",
              "name": "title",
              "type": "string"
            },
            {
              "internalType": "string",
              "name": "resume",
              "type": "string"
            },
            {
              "internalType": "uint256",
              "name": "timestamp",
              "type": "uint256"
            },
            {
              "internalType": "address",
              "name": "doctor",
              "type": "address"
            },
            {
              "internalType": "bool",
              "name": "isActive",
              "type": "bool"
            },
            {
              "internalType": "string",
              "name": "previousVersion",
              "type": "string"
            },
            {
              "internalType": "uint8",
              "name": "privacyLevel",
              "type": "uint8"
            }
          ],
          "internalType": "struct PatientManagement.MedicalRecord[]",
          "name": "",
          "type": "tuple[]"
        }
      ],
      "stateMutability": "view",
      "type": "function"
    },
    {
      "inputs": [
        {
          "internalType": "address",
          "name": "_viewer",
          "type": "address"
        },
        {
          "internalType": "uint256",
          "name": "_durationSeconds",
          "type": "uint256"
        }
      ],
      "name": "grantAccess",
      "outputs": [],
      "stateMutability": "nonpayable",
      "type": "function"
    },
    {
      "inputs": [],
      "name": "insuranceContractAddress",
      "outputs": [
        {
          "internalType": "address",
          "name": "",
          "type": "address"
        }
      ],
      "stateMutability": "view",
      "type": "function"
    },
    {
      "inputs": [
        {
          "internalType": "address",
          "name": "",
          "type": "address"
        },
        {
          "internalType": "uint256",
          "name": "",
          "type": "uint256"
        }
      ],
      "name": "patientAccessRequests",
      "outputs": [
        {
          "internalType": "address",
          "name": "",
          "type": "address"
        }
      ],
      "stateMutability": "view",
      "type": "function"
    },
    {
      "inputs": [
        {
          "internalType": "address",
          "name": "",
          "type": "address"
        },
        {
          "internalType": "uint256",
          "name": "",
          "type": "uint256"
        }
      ],
      "name": "patientRecords",
      "outputs": [
        {
          "internalType": "string",
          "name": "ipfsHash",
          "type": "string"
        },
        {
          "internalType": "string",
          "name": "fileType",
          "type": "string"
        },
        {
          "internalType": "string",
          "name": "fileName",
          "type": "string"
        },
        {
          "internalType": "string",
          "name": "title",
          "type": "string"
        },
        {
          "internalType": "string",
          "name": "resume",
          "type": "string"
        },
        {
          "internalType": "uint256",
          "name": "timestamp",
          "type": "uint256"
        },
        {
          "internalType": "address",
          "name": "doctor",
          "type": "address"
        },
        {
          "internalType": "bool",
          "name": "isActive",
          "type": "bool"
        },
        {
          "internalType": "string",
          "name": "previousVersion",
          "type": "string"
        },
        {
          "internalType": "uint8",
          "name": "privacyLevel",
          "type": "uint8"
        }
      ],
      "stateMutability": "view",
      "type": "function"
    },
    {
      "inputs": [
        {
          "internalType": "address",
          "name": "",
          "type": "address"
        }
      ],
      "name": "patients",
      "outputs": [
        {
          "internalType": "string",
          "name": "username",
          "type": "string"
        },
        {
          "internalType": "string",
          "name": "role",
          "type": "string"
        },
        {
          "internalType": "bool",
          "name": "isRegistered",
          "type": "bool"
        }
      ],
      "stateMutability": "view",
      "type": "function"
    },
    {
      "inputs": [
        {
          "internalType": "address",
          "name": "_patientAddress",
          "type": "address"
        },
        {
          "internalType": "string",
          "name": "_username",
          "type": "string"
        },
        {
          "internalType": "string",
          "name": "_role",
          "type": "string"
        }
      ],
      "name": "registerPatient",
      "outputs": [],
      "stateMutability": "nonpayable",
      "type": "function"
    },
    {
      "inputs": [
        {
          "internalType": "address",
          "name": "_patientAddress",
          "type": "address"
        }
      ],
      "name": "requestAccess",
      "outputs": [],
      "stateMutability": "nonpayable",
      "type": "function"
    },
    {
      "inputs": [],
      "name": "researcherContractAddress",
      "outputs": [
        {
          "internalType": "address",
          "name": "",
          "type": "address"
        }
      ],
      "stateMutability": "view",
      "type": "function"
    },
    {
      "inputs": [
        {
          "internalType": "address",
          "name": "_viewer",
          "type": "address"
        }
      ],
      "name": "revokeAccess",
      "outputs": [],
      "stateMutability": "nonpayable",
      "type": "function"
    },
    {
      "inputs": [
        {
          "internalType": "address",
          "name": "_auditContractAddress",
          "type": "address"
        }
      ],
      "name": "setAuditContractAddress",
      "outputs": [],
      "stateMutability": "nonpayable",
      "type": "function"
    },
    {
      "inputs": [
        {
          "internalType": "address",
          "name": "_doctorContractAddress",
          "type": "address"
        }
      ],
      "name": "setDoctorContractAddress",
      "outputs": [],
      "stateMutability": "nonpayable",
      "type": "function"
    },
    {
      "inputs": [
        {
          "internalType": "address",
          "name": "_insuranceContractAddress",
          "type": "address"
        }
      ],
      "name": "setInsuranceContractAddress",
      "outputs": [],
      "stateMutability": "nonpayable",
      "type": "function"
    },
    {
      "inputs": [
        {
          "internalType": "address",
          "name": "_researcherContractAddress",
          "type": "address"
        }
      ],
      "name": "setResearcherContractAddress",
      "outputs": [],
      "stateMutability": "nonpayable",
      "type": "function"
    }
  ],
  "bytecode": "0x60806040523480156200001157600080fd5b50336000806101000a81548173ffffffffffffffffffffffffffffffffffffffff021916908373ffffffffffffffffffffffffffffffffffffffff16021790555060405180606001604052806040518060400160405280600581526020017f61646d696e00000000000000000000000000000000000000000000000000000081525081526020016040518060400160405280600581526020017f61646d696e000000000000000000000000000000000000000000000000000000815250815260200160011515815250600160003373ffffffffffffffffffffffffffffffffffffffff1673ffffffffffffffffffffffffffffffffffffffff1681526020019081526020016000206000820151816000019081620001309190620003ec565b506020820151816001019081620001489190620003ec565b5060408201518160020160006101000a81548160ff021916908315150217905550905050620004d3565b600081519050919050565b7f4e487b7100000000000000000000000000000000000000000000000000000000600052604160045260246000fd5b7f4e487b7100000000000000000000000000000000000000000000000000000000600052602260045260246000fd5b60006002820490506001821680620001f457607f821691505b6020821081036200020a5762000209620001ac565b5b50919050565b60008190508160005260206000209050919050565b60006020601f8301049050919050565b600082821b905092915050565b600060088302620002747fffffffffffffffffffffffffffffffffffffffffffffffffffffffffffffffff8262000235565b62000280868362000235565b95508019841693508086168417925050509392505050565b6000819050919050565b6000819050919050565b6000620002cd620002c7620002c18462000298565b620002a2565b62000298565b9050919050565b6000819050919050565b620002e983620002ac565b62000301620002f882620002d4565b84845462000242565b825550505050565b600090565b6200031862000309565b62000325818484620002de565b505050565b5b818110156200034d57620003416000826200030e565b6001810190506200032b565b5050565b601f8211156200039c57620003668162000210565b620003718462000225565b8101602085101562000381578190505b62000399620003908562000225565b8301826200032a565b50505b505050565b600082821c905092915050565b6000620003c160001984600802620003a1565b1980831691505092915050565b6000620003dc8383620003ae565b9150826002028217905092915050565b620003f78262000172565b67ffffffffffffffff8111156200041357620004126200017d565b5b6200041f8254620001db565b6200042c82828562000351565b600060209050601f8311600181146200046457600084156200044f578287015190505b6200045b8582620003ce565b865550620004cb565b601f198416620004748662000210565b60005b828110156200049e5784890151825560018201915060208501945060208101905062000477565b86831015620004be5784890151620004ba601f891682620003ae565b8355505b6001600288020188555050505b505050505050565b6162a280620004e36000396000f3fe608060405234801561001057600080fd5b50600436106101735760003560e01c806394f0df61116100de578063bcbf718111610097578063e08b9d9c11610071578063e08b9d9c1461047a578063eeaaa07514610496578063f851a440146104c6578063fb6be4ec146104e457610173565b8063bcbf7181146103fc578063cb9b859f1461042c578063d8f608df1461044a57610173565b806394f0df61146102f85780639df8925614610331578063a25b0bf01461034d578063afd8297c1461036b578063b5368e201461039b578063b717a67c146103cc57610173565b806337d917991161013057806337d917991461023c5780636df32cd4146102585780637933ef8b1461027457806385e685311461029057806389413f42146102ac57806391f20596146102c857610173565b8063022cb271146101785780630869cfbc146101945780630ac1f2c5146101c657806314c179c0146101e457806318a231a914610202578063197547a114610220575b600080fd5b610192600480360381019061018d91906149d8565b610514565b005b6101ae60048036038101906101a991906149d8565b610938565b6040516101bd93929190614ab0565b60405180910390f35b6101ce610a7f565b6040516101db9190614b04565b60405180910390f35b6101ec610aa5565b6040516101f99190614b04565b60405180910390f35b61020a610acb565b6040516102179190614bdd565b60405180910390f35b61023a60048036038101906102359190614d6d565b610b59565b005b61025660048036038101906102519190614ecb565b6110db565b005b610272600480360381019061026d91906149d8565b61143f565b005b61028e600480360381019061028991906149d8565b611511565b005b6102aa60048036038101906102a591906149d8565b6115e3565b005b6102c660048036038101906102c191906149d8565b611ad1565b005b6102e260048036038101906102dd9190614f56565b611ba3565b6040516102ef9190614faf565b60405180910390f35b610312600480360381019061030d9190614ff6565b611bc8565b6040516103289a99989796959493929190615045565b60405180910390f35b61034b60048036038101906103469190614ff6565b611fa3565b005b6103556126e6565b6040516103629190614b04565b60405180910390f35b610385600480360381019061038091906149d8565b61270c565b6040516103929190615341565b60405180910390f35b6103b560048036038101906103b091906149d8565b612c3e565b6040516103c3929190615363565b60405180910390f35b6103e660048036038101906103e191906149d8565b612e71565b6040516103f39190615341565b60405180910390f35b610416600480360381019061041191906149d8565b613620565b6040516104239190615341565b60405180910390f35b6104346142e5565b6040516104419190614b04565b60405180910390f35b610464600480360381019061045f919061539a565b61430b565b6040516104719190614b04565b60405180910390f35b610494600480360381019061048f91906149d8565b61434a565b005b6104b060048036038101906104ab91906149d8565b61441c565b6040516104bd9190614bdd565b60405180910390f35b6104ce614557565b6040516104db9190614b04565b60405180910390f35b6104fe60048036038101906104f99190614ff6565b61457b565b60405161050b9190614b04565b60405180910390f35b600160008273ffffffffffffffffffffffffffffffffffffffff1673ffffffffffffffffffffffffffffffffffffffff16815260200190815260200160002060020160009054906101000a900460ff166105a3576040517f08c379a000000000000000000000000000000000000000000000000000000000815260040161059a90615413565b60405180910390fd5b3373ffffffffffffffffffffffffffffffffffffffff168173ffffffffffffffffffffffffffffffffffffffff1603610611576040517f08c379a00000000000000000000000000000000000000000000000000000000081526004016106089061547f565b60405180910390fd5b42600560008373ffffffffffffffffffffffffffffffffffffffff1673ffffffffffffffffffffffffffffffffffffffff16815260200190815260200160002060003373ffffffffffffffffffffffffffffffffffffffff1673ffffffffffffffffffffffffffffffffffffffff1681526020019081526020016000205411156106d0576040517f08c379a00000000000000000000000000000000000000000000000000000000081526004016106c7906154eb565b60405180910390fd5b6000600a60008373ffffffffffffffffffffffffffffffffffffffff1673ffffffffffffffffffffffffffffffffffffffff16815260200190815260200160002080548060200260200160405190810160405280929190818152602001828054801561079157602002820191906000526020600020905b8160009054906101000a900473ffffffffffffffffffffffffffffffffffffffff1673ffffffffffffffffffffffffffffffffffffffff1681526020019060010190808311610747575b5050505050905060005b8151811015610839573373ffffffffffffffffffffffffffffffffffffffff168282815181106107ce576107cd61550b565b5b602002602001015173ffffffffffffffffffffffffffffffffffffffff160361082c576040517f08c379a000000000000000000000000000000000000000000000000000000000815260040161082390615586565b60405180910390fd5b808060010191505061079b565b50600a60008373ffffffffffffffffffffffffffffffffffffffff1673ffffffffffffffffffffffffffffffffffffffff168152602001908152602001600020339080600181540180825580915050600190039060005260206000200160009091909190916101000a81548173ffffffffffffffffffffffffffffffffffffffff021916908373ffffffffffffffffffffffffffffffffffffffff1602179055503373ffffffffffffffffffffffffffffffffffffffff168273ffffffffffffffffffffffffffffffffffffffff167f40c7749b16fdfb0d550f20273a7767875059d647af94f5a9610c63ad73dcc79f60405160405180910390a35050565b600160205280600052604060002060009150905080600001805461095b906155d5565b80601f0160208091040260200160405190810160405280929190818152602001828054610987906155d5565b80156109d45780601f106109a9576101008083540402835291602001916109d4565b820191906000526020600020905b8154815290600101906020018083116109b757829003601f168201915b5050505050908060010180546109e9906155d5565b80601f0160208091040260200160405190810160405280929190818152602001828054610a15906155d5565b8015610a625780601f10610a3757610100808354040283529160200191610a62565b820191906000526020600020905b815481529060010190602001808311610a4557829003601f168201915b5050505050908060020160009054906101000a900460ff16905083565b600660009054906101000a900473ffffffffffffffffffffffffffffffffffffffff1681565b600760009054906101000a900473ffffffffffffffffffffffffffffffffffffffff1681565b60606002805480602002602001604051908101604052809291908181526020018280548015610b4f57602002820191906000526020600020905b8160009054906101000a900473ffffffffffffffffffffffffffffffffffffffff1673ffffffffffffffffffffffffffffffffffffffff1681526020019060010190808311610b05575b5050505050905090565b600160008973ffffffffffffffffffffffffffffffffffffffff1673ffffffffffffffffffffffffffffffffffffffff16815260200190815260200160002060020160009054906101000a900460ff16610be8576040517f08c379a0000000000000000000000000000000000000000000000000000000008152600401610bdf90615413565b60405180910390fd5b60028160ff161115610c2f576040517f08c379a0000000000000000000000000000000000000000000000000000000008152600401610c2690615652565b60405180910390fd5b600082511115610d2b576000600483604051610c4b91906156ae565b90815260200160405180910390205490506000600360008b73ffffffffffffffffffffffffffffffffffffffff1673ffffffffffffffffffffffffffffffffffffffff1681526020019081526020016000208281548110610caf57610cae61550b565b5b906000526020600020906009020160060160146101000a81548160ff0219169083151502179055508873ffffffffffffffffffffffffffffffffffffffff167f265a47e189bdaf1e4e75ca93474dba2ad21591bb54b62e3b8633029a440dcbf6848a42604051610d21939291906156c5565b60405180910390a2505b60006040518061014001604052808981526020018881526020018781526020018681526020018581526020014281526020013373ffffffffffffffffffffffffffffffffffffffff1681526020016001151581526020018481526020018360ff168152509050600360008a73ffffffffffffffffffffffffffffffffffffffff1673ffffffffffffffffffffffffffffffffffffffff1681526020019081526020016000208190806001815401808255809150506001900390600052602060002090600902016000909190919091506000820151816000019081610e0f91906158b6565b506020820151816001019081610e2591906158b6565b506040820151816002019081610e3b91906158b6565b506060820151816003019081610e5191906158b6565b506080820151816004019081610e6791906158b6565b5060a0820151816005015560c08201518160060160006101000a81548173ffffffffffffffffffffffffffffffffffffffff021916908373ffffffffffffffffffffffffffffffffffffffff16021790555060e08201518160060160146101000a81548160ff021916908315150217905550610100820151816007019081610eef91906158b6565b506101208201518160080160006101000a81548160ff021916908360ff16021790555050506001600360008b73ffffffffffffffffffffffffffffffffffffffff1673ffffffffffffffffffffffffffffffffffffffff16815260200190815260200160002080549050610f6391906159b7565b600489604051610f7391906156ae565b9081526020016040518091039020819055503373ffffffffffffffffffffffffffffffffffffffff168973ffffffffffffffffffffffffffffffffffffffff167f77f7fbc747ad443f3ea5f507abbc21d187ecb84679a348cbd91c6fbcfd405c288a4286604051610fe6939291906159eb565b60405180910390a3600073ffffffffffffffffffffffffffffffffffffffff16600960009054906101000a900473ffffffffffffffffffffffffffffffffffffffff1673ffffffffffffffffffffffffffffffffffffffff16146110d057600960009054906101000a900473ffffffffffffffffffffffffffffffffffffffff1673ffffffffffffffffffffffffffffffffffffffff1663bff45139338b8b6040518463ffffffff1660e01b81526004016110a393929190615a75565b600060405180830381600087803b1580156110bd57600080fd5b505af19250505080156110ce575060015b505b505050505050505050565b60008054906101000a900473ffffffffffffffffffffffffffffffffffffffff1673ffffffffffffffffffffffffffffffffffffffff163373ffffffffffffffffffffffffffffffffffffffff1614611169576040517f08c379a000000000000000000000000000000000000000000000000000000000815260040161116090615b38565b60405180910390fd5b600160008473ffffffffffffffffffffffffffffffffffffffff1673ffffffffffffffffffffffffffffffffffffffff16815260200190815260200160002060020160009054906101000a900460ff16156111f9576040517f08c379a00000000000000000000000000000000000000000000000000000000081526004016111f090615ba4565b60405180910390fd5b604051806060016040528083815260200182815260200160011515815250600160008573ffffffffffffffffffffffffffffffffffffffff1673ffffffffffffffffffffffffffffffffffffffff168152602001908152602001600020600082015181600001908161126b91906158b6565b50602082015181600101908161128191906158b6565b5060408201518160020160006101000a81548160ff0219169083151502179055509050506002839080600181540180825580915050600190039060005260206000200160009091909190916101000a81548173ffffffffffffffffffffffffffffffffffffffff021916908373ffffffffffffffffffffffffffffffffffffffff1602179055508273ffffffffffffffffffffffffffffffffffffffff167f5aad8bc7ad9861b16c6d01a65f54118dfe585a51e408ac2e7b9499148d515c418383604051611350929190615363565b60405180910390a2600073ffffffffffffffffffffffffffffffffffffffff16600960009054906101000a900473ffffffffffffffffffffffffffffffffffffffff1673ffffffffffffffffffffffffffffffffffffffff161461143a57600960009054906101000a900473ffffffffffffffffffffffffffffffffffffffff1673ffffffffffffffffffffffffffffffffffffffff1663bff451393385856040518463ffffffff1660e01b815260040161140d93929190615c10565b600060405180830381600087803b15801561142757600080fd5b505af1925050508015611438575060015b505b505050565b60008054906101000a900473ffffffffffffffffffffffffffffffffffffffff1673ffffffffffffffffffffffffffffffffffffffff163373ffffffffffffffffffffffffffffffffffffffff16146114cd576040517f08c379a00000000000000000000000000000000000000000000000000000000081526004016114c490615b38565b60405180910390fd5b80600760006101000a81548173ffffffffffffffffffffffffffffffffffffffff021916908373ffffffffffffffffffffffffffffffffffffffff16021790555050565b60008054906101000a900473ffffffffffffffffffffffffffffffffffffffff1673ffffffffffffffffffffffffffffffffffffffff163373ffffffffffffffffffffffffffffffffffffffff161461159f576040517f08c379a000000000000000000000000000000000000000000000000000000000815260040161159690615b38565b60405180910390fd5b80600660006101000a81548173ffffffffffffffffffffffffffffffffffffffff021916908373ffffffffffffffffffffffffffffffffffffffff16021790555050565b600160003373ffffffffffffffffffffffffffffffffffffffff1673ffffffffffffffffffffffffffffffffffffffff16815260200190815260200160002060020160009054906101000a900460ff16611672576040517f08c379a000000000000000000000000000000000000000000000000000000000815260040161166990615cad565b60405180910390fd5b6000600560003373ffffffffffffffffffffffffffffffffffffffff1673ffffffffffffffffffffffffffffffffffffffff16815260200190815260200160002060008373ffffffffffffffffffffffffffffffffffffffff1673ffffffffffffffffffffffffffffffffffffffff168152602001908152602001600020819055508073ffffffffffffffffffffffffffffffffffffffff163373ffffffffffffffffffffffffffffffffffffffff167f825c8be24eb0df19500f63e86c29e7d0d951e73056b889b891d85e40938d9b6e60405160405180910390a3600073ffffffffffffffffffffffffffffffffffffffff16600660009054906101000a900473ffffffffffffffffffffffffffffffffffffffff1673ffffffffffffffffffffffffffffffffffffffff161461182e57600660009054906101000a900473ffffffffffffffffffffffffffffffffffffffff1673ffffffffffffffffffffffffffffffffffffffff1663177870c282336040518363ffffffff1660e01b8152600401611801929190615ccd565b600060405180830381600087803b15801561181b57600080fd5b505af192505050801561182c575060015b505b600073ffffffffffffffffffffffffffffffffffffffff16600760009054906101000a900473ffffffffffffffffffffffffffffffffffffffff1673ffffffffffffffffffffffffffffffffffffffff161461190e57600760009054906101000a900473ffffffffffffffffffffffffffffffffffffffff1673ffffffffffffffffffffffffffffffffffffffff1663177870c282336040518363ffffffff1660e01b81526004016118e1929190615ccd565b600060405180830381600087803b1580156118fb57600080fd5b505af192505050801561190c575060015b505b600073ffffffffffffffffffffffffffffffffffffffff16600860009054906101000a900473ffffffffffffffffffffffffffffffffffffffff1673ffffffffffffffffffffffffffffffffffffffff16146119ee57600860009054906101000a900473ffffffffffffffffffffffffffffffffffffffff1673ffffffffffffffffffffffffffffffffffffffff1663177870c282336040518363ffffffff1660e01b81526004016119c1929190615ccd565b600060405180830381600087803b1580156119db57600080fd5b505af19250505080156119ec575060015b505b600073ffffffffffffffffffffffffffffffffffffffff16600960009054906101000a900473ffffffffffffffffffffffffffffffffffffffff1673ffffffffffffffffffffffffffffffffffffffff1614611ace57600960009054906101000a900473ffffffffffffffffffffffffffffffffffffffff1673ffffffffffffffffffffffffffffffffffffffff1663bff4513933836040518363ffffffff1660e01b8152600401611aa1929190615d8e565b600060405180830381600087803b158015611abb57600080fd5b505af1925050508015611acc575060015b505b50565b60008054906101000a900473ffffffffffffffffffffffffffffffffffffffff1673ffffffffffffffffffffffffffffffffffffffff163373ffffffffffffffffffffffffffffffffffffffff1614611b5f576040517f08c379a0000000000000000000000000000000000000000000000000000000008152600401611b5690615b38565b60405180910390fd5b80600960006101000a81548173ffffffffffffffffffffffffffffffffffffffff021916908373ffffffffffffffffffffffffffffffffffffffff16021790555050565b6005602052816000526040600020602052806000526040600020600091509150505481565b60036020528160005260406000208181548110611be457600080fd5b906000526020600020906009020160009150915050806000018054611c08906155d5565b80601f0160208091040260200160405190810160405280929190818152602001828054611c34906155d5565b8015611c815780601f10611c5657610100808354040283529160200191611c81565b820191906000526020600020905b815481529060010190602001808311611c6457829003601f168201915b505050505090806001018054611c96906155d5565b80601f0160208091040260200160405190810160405280929190818152602001828054611cc2906155d5565b8015611d0f5780601f10611ce457610100808354040283529160200191611d0f565b820191906000526020600020905b815481529060010190602001808311611cf257829003601f168201915b505050505090806002018054611d24906155d5565b80601f0160208091040260200160405190810160405280929190818152602001828054611d50906155d5565b8015611d9d5780601f10611d7257610100808354040283529160200191611d9d565b820191906000526020600020905b815481529060010190602001808311611d8057829003601f168201915b505050505090806003018054611db2906155d5565b80601f0160208091040260200160405190810160405280929190818152602001828054611dde906155d5565b8015611e2b5780601f10611e0057610100808354040283529160200191611e2b565b820191906000526020600020905b815481529060010190602001808311611e0e57829003601f168201915b505050505090806004018054611e40906155d5565b80601f0160208091040260200160405190810160405280929190818152602001828054611e6c906155d5565b8015611eb95780601f10611e8e57610100808354040283529160200191611eb9565b820191906000526020600020905b815481529060010190602001808311611e9c57829003601f168201915b5050505050908060050154908060060160009054906101000a900473ffffffffffffffffffffffffffffffffffffffff16908060060160149054906101000a900460ff1690806007018054611f0d906155d5565b80601f0160208091040260200160405190810160405280929190818152602001828054611f39906155d5565b8015611f865780601f10611f5b57610100808354040283529160200191611f86565b820191906000526020600020905b815481529060010190602001808311611f6957829003601f168201915b5050505050908060080160009054906101000a900460ff1690508a565b600160003373ffffffffffffffffffffffffffffffffffffffff1673ffffffffffffffffffffffffffffffffffffffff16815260200190815260200160002060020160009054906101000a900460ff16612032576040517f08c379a000000000000000000000000000000000000000000000000000000000815260040161202990615cad565b60405180910390fd5b600073ffffffffffffffffffffffffffffffffffffffff168273ffffffffffffffffffffffffffffffffffffffff16036120a1576040517f08c379a000000000000000000000000000000000000000000000000000000000815260040161209890615e29565b60405180910390fd5b80426120ad9190615e49565b600560003373ffffffffffffffffffffffffffffffffffffffff1673ffffffffffffffffffffffffffffffffffffffff16815260200190815260200160002060008473ffffffffffffffffffffffffffffffffffffffff1673ffffffffffffffffffffffffffffffffffffffff168152602001908152602001600020819055508173ffffffffffffffffffffffffffffffffffffffff163373ffffffffffffffffffffffffffffffffffffffff167f65d0cc1e52d49938ca4ad9f423c79c1b84d914b9a683fbc5d3f93ac3cc5635f583426121889190615e49565b6040516121959190614faf565b60405180910390a3600073ffffffffffffffffffffffffffffffffffffffff16600660009054906101000a900473ffffffffffffffffffffffffffffffffffffffff1673ffffffffffffffffffffffffffffffffffffffff161461227d57600660009054906101000a900473ffffffffffffffffffffffffffffffffffffffff1673ffffffffffffffffffffffffffffffffffffffff16630ff4218883336040518363ffffffff1660e01b8152600401612250929190615ccd565b600060405180830381600087803b15801561226a57600080fd5b505af192505050801561227b575060015b505b600073ffffffffffffffffffffffffffffffffffffffff16600760009054906101000a900473ffffffffffffffffffffffffffffffffffffffff1673ffffffffffffffffffffffffffffffffffffffff161461235d57600760009054906101000a900473ffffffffffffffffffffffffffffffffffffffff1673ffffffffffffffffffffffffffffffffffffffff16630ff4218883336040518363ffffffff1660e01b8152600401612330929190615ccd565b600060405180830381600087803b15801561234a57600080fd5b505af192505050801561235b575060015b505b600073ffffffffffffffffffffffffffffffffffffffff16600860009054906101000a900473ffffffffffffffffffffffffffffffffffffffff1673ffffffffffffffffffffffffffffffffffffffff161461243d57600860009054906101000a900473ffffffffffffffffffffffffffffffffffffffff1673ffffffffffffffffffffffffffffffffffffffff16630ff4218883336040518363ffffffff1660e01b8152600401612410929190615ccd565b600060405180830381600087803b15801561242a57600080fd5b505af192505050801561243b575060015b505b6000600a60003373ffffffffffffffffffffffffffffffffffffffff1673ffffffffffffffffffffffffffffffffffffffff168152602001908152602001600020905060005b8180549050811015612600578373ffffffffffffffffffffffffffffffffffffffff168282815481106124b9576124b861550b565b5b9060005260206000200160009054906101000a900473ffffffffffffffffffffffffffffffffffffffff1673ffffffffffffffffffffffffffffffffffffffff16036125f357816001838054905061251191906159b7565b815481106125225761252161550b565b5b9060005260206000200160009054906101000a900473ffffffffffffffffffffffffffffffffffffffff168282815481106125605761255f61550b565b5b9060005260206000200160006101000a81548173ffffffffffffffffffffffffffffffffffffffff021916908373ffffffffffffffffffffffffffffffffffffffff160217905550818054806125b9576125b8615e7d565b5b6001900381819060005260206000200160006101000a81549073ffffffffffffffffffffffffffffffffffffffff02191690559055612600565b8080600101915050612483565b50600073ffffffffffffffffffffffffffffffffffffffff16600960009054906101000a900473ffffffffffffffffffffffffffffffffffffffff1673ffffffffffffffffffffffffffffffffffffffff16146126e157600960009054906101000a900473ffffffffffffffffffffffffffffffffffffffff1673ffffffffffffffffffffffffffffffffffffffff1663bff4513933856040518363ffffffff1660e01b81526004016126b4929190615f44565b600060405180830381600087803b1580156126ce57600080fd5b505af19250505080156126df575060015b505b505050565b600860009054906101000a900473ffffffffffffffffffffffffffffffffffffffff1681565b6060600160008373ffffffffffffffffffffffffffffffffffffffff1673ffffffffffffffffffffffffffffffffffffffff16815260200190815260200160002060020160009054906101000a900460ff1661279d576040517f08c379a000000000000000000000000000000000000000000000000000000000815260040161279490615413565b60405180910390fd5b600360008373ffffffffffffffffffffffffffffffffffffffff1673ffffffffffffffffffffffffffffffffffffffff168152602001908152602001600020805480602002602001604051908101604052809291908181526020016000905b82821015612c33578382906000526020600020906009020160405180610140016040529081600082018054612830906155d5565b80601f016020809104026020016040519081016040528092919081815260200182805461285c906155d5565b80156128a95780601f1061287e576101008083540402835291602001916128a9565b820191906000526020600020905b81548152906001019060200180831161288c57829003601f168201915b505050505081526020016001820180546128c2906155d5565b80601f01602080910402602001604051908101604052809291908181526020018280546128ee906155d5565b801561293b5780601f106129105761010080835404028352916020019161293b565b820191906000526020600020905b81548152906001019060200180831161291e57829003601f168201915b50505050508152602001600282018054612954906155d5565b80601f0160208091040260200160405190810160405280929190818152602001828054612980906155d5565b80156129cd5780601f106129a2576101008083540402835291602001916129cd565b820191906000526020600020905b8154815290600101906020018083116129b057829003601f168201915b505050505081526020016003820180546129e6906155d5565b80601f0160208091040260200160405190810160405280929190818152602001828054612a12906155d5565b8015612a5f5780601f10612a3457610100808354040283529160200191612a5f565b820191906000526020600020905b815481529060010190602001808311612a4257829003601f168201915b50505050508152602001600482018054612a78906155d5565b80601f0160208091040260200160405190810160405280929190818152602001828054612aa4906155d5565b8015612af15780601f10612ac657610100808354040283529160200191612af1565b820191906000526020600020905b815481529060010190602001808311612ad457829003601f168201915b50505050508152602001600582015481526020016006820160009054906101000a900473ffffffffffffffffffffffffffffffffffffffff1673ffffffffffffffffffffffffffffffffffffffff1673ffffffffffffffffffffffffffffffffffffffff1681526020016006820160149054906101000a900460ff16151515158152602001600782018054612b85906155d5565b80601f0160208091040260200160405190810160405280929190818152602001828054612bb1906155d5565b8015612bfe5780601f10612bd357610100808354040283529160200191612bfe565b820191906000526020600020905b815481529060010190602001808311612be157829003601f168201915b505050505081526020016008820160009054906101000a900460ff1660ff1660ff1681525050815260200190600101906127fc565b505050509050919050565b606080600160008473ffffffffffffffffffffffffffffffffffffffff1673ffffffffffffffffffffffffffffffffffffffff16815260200190815260200160002060020160009054906101000a900460ff16612cd0576040517f08c379a0000000000000000000000000000000000000000000000000000000008152600401612cc790615413565b60405180910390fd5b6000600160008573ffffffffffffffffffffffffffffffffffffffff1673ffffffffffffffffffffffffffffffffffffffff168152602001908152602001600020604051806060016040529081600082018054612d2c906155d5565b80601f0160208091040260200160405190810160405280929190818152602001828054612d58906155d5565b8015612da55780601f10612d7a57610100808354040283529160200191612da5565b820191906000526020600020905b815481529060010190602001808311612d8857829003601f168201915b50505050508152602001600182018054612dbe906155d5565b80601f0160208091040260200160405190810160405280929190818152602001828054612dea906155d5565b8015612e375780601f10612e0c57610100808354040283529160200191612e37565b820191906000526020600020905b815481529060010190602001808311612e1a57829003601f168201915b505050505081526020016002820160009054906101000a900460ff1615151515815250509050806000015181602001519250925050915091565b6060600160008373ffffffffffffffffffffffffffffffffffffffff1673ffffffffffffffffffffffffffffffffffffffff16815260200190815260200160002060020160009054906101000a900460ff16612f02576040517f08c379a0000000000000000000000000000000000000000000000000000000008152600401612ef990615413565b60405180910390fd5b8173ffffffffffffffffffffffffffffffffffffffff163373ffffffffffffffffffffffffffffffffffffffff1614612f70576040517f08c379a0000000000000000000000000000000000000000000000000000000008152600401612f6790616005565b60405180910390fd5b6000805b600360008573ffffffffffffffffffffffffffffffffffffffff1673ffffffffffffffffffffffffffffffffffffffff1681526020019081526020016000208054905081101561304f57600360008573ffffffffffffffffffffffffffffffffffffffff1673ffffffffffffffffffffffffffffffffffffffff168152602001908152602001600020818154811061300f5761300e61550b565b5b906000526020600020906009020160060160149054906101000a900460ff161561304257818061303e90616025565b9250505b8080600101915050612f74565b5060008167ffffffffffffffff81111561306c5761306b614c09565b5b6040519080825280602002602001820160405280156130a557816020015b6130926148f8565b81526020019060019003908161308a5790505b5090506000805b600360008773ffffffffffffffffffffffffffffffffffffffff1673ffffffffffffffffffffffffffffffffffffffff1681526020019081526020016000208054905081101561361457600360008773ffffffffffffffffffffffffffffffffffffffff1673ffffffffffffffffffffffffffffffffffffffff16815260200190815260200160002081815481106131475761314661550b565b5b906000526020600020906009020160060160149054906101000a900460ff161561360757600360008773ffffffffffffffffffffffffffffffffffffffff1673ffffffffffffffffffffffffffffffffffffffff16815260200190815260200160002081815481106131bc576131bb61550b565b5b9060005260206000209060090201604051806101400160405290816000820180546131e6906155d5565b80601f0160208091040260200160405190810160405280929190818152602001828054613212906155d5565b801561325f5780601f106132345761010080835404028352916020019161325f565b820191906000526020600020905b81548152906001019060200180831161324257829003601f168201915b50505050508152602001600182018054613278906155d5565b80601f01602080910402602001604051908101604052809291908181526020018280546132a4906155d5565b80156132f15780601f106132c6576101008083540402835291602001916132f1565b820191906000526020600020905b8154815290600101906020018083116132d457829003601f168201915b5050505050815260200160028201805461330a906155d5565b80601f0160208091040260200160405190810160405280929190818152602001828054613336906155d5565b80156133835780601f1061335857610100808354040283529160200191613383565b820191906000526020600020905b81548152906001019060200180831161336657829003601f168201915b5050505050815260200160038201805461339c906155d5565b80601f01602080910402602001604051908101604052809291908181526020018280546133c8906155d5565b80156134155780601f106133ea57610100808354040283529160200191613415565b820191906000526020600020905b8154815290600101906020018083116133f857829003601f168201915b5050505050815260200160048201805461342e906155d5565b80601f016020809104026020016040519081016040528092919081815260200182805461345a906155d5565b80156134a75780601f1061347c576101008083540402835291602001916134a7565b820191906000526020600020905b81548152906001019060200180831161348a57829003601f168201915b50505050508152602001600582015481526020016006820160009054906101000a900473ffffffffffffffffffffffffffffffffffffffff1673ffffffffffffffffffffffffffffffffffffffff1673ffffffffffffffffffffffffffffffffffffffff1681526020016006820160149054906101000a900460ff1615151515815260200160078201805461353b906155d5565b80601f0160208091040260200160405190810160405280929190818152602001828054613567906155d5565b80156135b45780601f10613589576101008083540402835291602001916135b4565b820191906000526020600020905b81548152906001019060200180831161359757829003601f168201915b505050505081526020016008820160009054906101000a900460ff1660ff1660ff16815250508383815181106135ed576135ec61550b565b5b6020026020010181905250818061360390616025565b9250505b80806001019150506130ac565b50819350505050919050565b606060003373ffffffffffffffffffffffffffffffffffffffff168373ffffffffffffffffffffffffffffffffffffffff16149050600042600560008673ffffffffffffffffffffffffffffffffffffffff1673ffffffffffffffffffffffffffffffffffffffff16815260200190815260200160002060003373ffffffffffffffffffffffffffffffffffffffff1673ffffffffffffffffffffffffffffffffffffffff1681526020019081526020016000205411905060008073ffffffffffffffffffffffffffffffffffffffff16600660009054906101000a900473ffffffffffffffffffffffffffffffffffffffff1673ffffffffffffffffffffffffffffffffffffffff16146137d657600660009054906101000a900473ffffffffffffffffffffffffffffffffffffffff1673ffffffffffffffffffffffffffffffffffffffff16632f04e064336040518263ffffffff1660e01b815260040161378a9190614b04565b600060405180830381865afa9250505080156137c957506040513d6000823e3d601f19601f820116820180604052508101906137c69190616109565b60015b156137d5578093505050505b5b82806137df5750815b806137e75750805b613826576040517f08c379a000000000000000000000000000000000000000000000000000000000815260040161381d906161e0565b60405180910390fd5b600083156138375760ff9050613853565b81156138465760029050613852565b61384f336145c9565b90505b5b6000805b600360008973ffffffffffffffffffffffffffffffffffffffff1673ffffffffffffffffffffffffffffffffffffffff16815260200190815260200160002080549050811015613d58576000600360008a73ffffffffffffffffffffffffffffffffffffffff1673ffffffffffffffffffffffffffffffffffffffff16815260200190815260200160002082815481106138f4576138f361550b565b5b90600052602060002090600902016040518061014001604052908160008201805461391e906155d5565b80601f016020809104026020016040519081016040528092919081815260200182805461394a906155d5565b80156139975780601f1061396c57610100808354040283529160200191613997565b820191906000526020600020905b81548152906001019060200180831161397a57829003601f168201915b505050505081526020016001820180546139b0906155d5565b80601f01602080910402602001604051908101604052809291908181526020018280546139dc906155d5565b8015613a295780601f106139fe57610100808354040283529160200191613a29565b820191906000526020600020905b815481529060010190602001808311613a0c57829003601f168201915b50505050508152602001600282018054613a42906155d5565b80601f0160208091040260200160405190810160405280929190818152602001828054613a6e906155d5565b8015613abb5780601f10613a9057610100808354040283529160200191613abb565b820191906000526020600020905b815481529060010190602001808311613a9e57829003601f168201915b50505050508152602001600382018054613ad4906155d5565b80601f0160208091040260200160405190810160405280929190818152602001828054613b00906155d5565b8015613b4d5780601f10613b2257610100808354040283529160200191613b4d565b820191906000526020600020905b815481529060010190602001808311613b3057829003601f168201915b50505050508152602001600482018054613b66906155d5565b80601f0160208091040260200160405190810160405280929190818152602001828054613b92906155d5565b8015613bdf5780601f10613bb457610100808354040283529160200191613bdf565b820191906000526020600020905b815481529060010190602001808311613bc257829003601f168201915b50505050508152602001600582015481526020016006820160009054906101000a900473ffffffffffffffffffffffffffffffffffffffff1673ffffffffffffffffffffffffffffffffffffffff1673ffffffffffffffffffffffffffffffffffffffff1681526020016006820160149054906101000a900460ff16151515158152602001600782018054613c73906155d5565b80601f0160208091040260200160405190810160405280929190818152602001828054613c9f906155d5565b8015613cec5780601f10613cc157610100808354040283529160200191613cec565b820191906000526020600020905b815481529060010190602001808311613ccf57829003601f168201915b505050505081526020016008820160009054906101000a900460ff1660ff1660ff168152505090508060e0015115613d4a578680613d3557508360ff1681610120015160ff1611155b15613d49578280613d4590616025565b9350505b5b508080600101915050613857565b5060008167ffffffffffffffff811115613d7557613d74614c09565b5b604051908082528060200260200182016040528015613dae57816020015b613d9b6148f8565b815260200190600190039081613d935790505b5090506000805b600360008b73ffffffffffffffffffffffffffffffffffffffff1673ffffffffffffffffffffffffffffffffffffffff168152602001908152602001600020805490508110156142d5576000600360008c73ffffffffffffffffffffffffffffffffffffffff1673ffffffffffffffffffffffffffffffffffffffff1681526020019081526020016000208281548110613e5257613e5161550b565b5b906000526020600020906009020160405180610140016040529081600082018054613e7c906155d5565b80601f0160208091040260200160405190810160405280929190818152602001828054613ea8906155d5565b8015613ef55780601f10613eca57610100808354040283529160200191613ef5565b820191906000526020600020905b815481529060010190602001808311613ed857829003601f168201915b50505050508152602001600182018054613f0e906155d5565b80601f0160208091040260200160405190810160405280929190818152602001828054613f3a906155d5565b8015613f875780601f10613f5c57610100808354040283529160200191613f87565b820191906000526020600020905b815481529060010190602001808311613f6a57829003601f168201915b50505050508152602001600282018054613fa0906155d5565b80601f0160208091040260200160405190810160405280929190818152602001828054613fcc906155d5565b80156140195780601f10613fee57610100808354040283529160200191614019565b820191906000526020600020905b815481529060010190602001808311613ffc57829003601f168201915b50505050508152602001600382018054614032906155d5565b80601f016020809104026020016040519081016040528092919081815260200182805461405e906155d5565b80156140ab5780601f10614080576101008083540402835291602001916140ab565b820191906000526020600020905b81548152906001019060200180831161408e57829003601f168201915b505050505081526020016004820180546140c4906155d5565b80601f01602080910402602001604051908101604052809291908181526020018280546140f0906155d5565b801561413d5780601f106141125761010080835404028352916020019161413d565b820191906000526020600020905b81548152906001019060200180831161412057829003601f168201915b50505050508152602001600582015481526020016006820160009054906101000a900473ffffffffffffffffffffffffffffffffffffffff1673ffffffffffffffffffffffffffffffffffffffff1673ffffffffffffffffffffffffffffffffffffffff1681526020016006820160149054906101000a900460ff161515151581526020016007820180546141d1906155d5565b80601f01602080910402602001604051908101604052809291908181526020018280546141fd906155d5565b801561424a5780601f1061421f5761010080835404028352916020019161424a565b820191906000526020600020905b81548152906001019060200180831161422d57829003601f168201915b505050505081526020016008820160009054906101000a900460ff1660ff1660ff168152505090508060e00151156142c757888061429357508560ff1681610120015160ff1611155b156142c657808484815181106142ac576142ab61550b565b5b602002602001018190525082806142c290616025565b9350505b5b508080600101915050613db5565b5081975050505050505050919050565b600960009054906101000a900473ffffffffffffffffffffffffffffffffffffffff1681565b6002818154811061431b57600080fd5b906000526020600020016000915054906101000a900473ffffffffffffffffffffffffffffffffffffffff1681565b60008054906101000a900473ffffffffffffffffffffffffffffffffffffffff1673ffffffffffffffffffffffffffffffffffffffff163373ffffffffffffffffffffffffffffffffffffffff16146143d8576040517f08c379a00000000000000000000000000000000000000000000000000000000081526004016143cf90615b38565b60405180910390fd5b80600860006101000a81548173ffffffffffffffffffffffffffffffffffffffff021916908373ffffffffffffffffffffffffffffffffffffffff16021790555050565b60608173ffffffffffffffffffffffffffffffffffffffff163373ffffffffffffffffffffffffffffffffffffffff161461448c576040517f08c379a00000000000000000000000000000000000000000000000000000000081526004016144839061624c565b60405180910390fd5b600a60008373ffffffffffffffffffffffffffffffffffffffff1673ffffffffffffffffffffffffffffffffffffffff16815260200190815260200160002080548060200260200160405190810160405280929190818152602001828054801561454b57602002820191906000526020600020905b8160009054906101000a900473ffffffffffffffffffffffffffffffffffffffff1673ffffffffffffffffffffffffffffffffffffffff1681526020019060010190808311614501575b50505050509050919050565b60008054906101000a900473ffffffffffffffffffffffffffffffffffffffff1681565b600a602052816000526040600020818154811061459757600080fd5b906000526020600020016000915091509054906101000a900473ffffffffffffffffffffffffffffffffffffffff1681565b60008073ffffffffffffffffffffffffffffffffffffffff16600660009054906101000a900473ffffffffffffffffffffffffffffffffffffffff1673ffffffffffffffffffffffffffffffffffffffff16146146d657600660009054906101000a900473ffffffffffffffffffffffffffffffffffffffff1673ffffffffffffffffffffffffffffffffffffffff16632f04e064836040518263ffffffff1660e01b815260040161467b9190614b04565b600060405180830381865afa9250505080156146ba57506040513d6000823e3d601f19601f820116820180604052508101906146b79190616109565b60015b156146d55780156146d157600293505050506148f3565b5050505b5b600073ffffffffffffffffffffffffffffffffffffffff16600760009054906101000a900473ffffffffffffffffffffffffffffffffffffffff1673ffffffffffffffffffffffffffffffffffffffff16146147e257600760009054906101000a900473ffffffffffffffffffffffffffffffffffffffff1673ffffffffffffffffffffffffffffffffffffffff166387e59793836040518263ffffffff1660e01b81526004016147879190614b04565b600060405180830381865afa9250505080156147c657506040513d6000823e3d601f19601f820116820180604052508101906147c39190616109565b60015b156147e15780156147dd57600193505050506148f3565b5050505b5b600073ffffffffffffffffffffffffffffffffffffffff16600860009054906101000a900473ffffffffffffffffffffffffffffffffffffffff1673ffffffffffffffffffffffffffffffffffffffff16146148ee57600860009054906101000a900473ffffffffffffffffffffffffffffffffffffffff1673ffffffffffffffffffffffffffffffffffffffff1663e7eba4c2836040518263ffffffff1660e01b81526004016148939190614b04565b600060405180830381865afa9250505080156148d257506040513d6000823e3d601f19601f820116820180604052508101906148cf9190616109565b60015b156148ed5780156148e957600093505050506148f3565b5050505b5b600090505b919050565b604051806101400160405280606081526020016060815260200160608152602001606081526020016060815260200160008152602001600073ffffffffffffffffffffffffffffffffffffffff16815260200160001515815260200160608152602001600060ff1681525090565b6000604051905090565b600080fd5b600080fd5b600073ffffffffffffffffffffffffffffffffffffffff82169050919050565b60006149a58261497a565b9050919050565b6149b58161499a565b81146149c057600080fd5b50565b6000813590506149d2816149ac565b92915050565b6000602082840312156149ee576149ed614970565b5b60006149fc848285016149c3565b91505092915050565b600081519050919050565b600082825260208201905092915050565b60005b83811015614a3f578082015181840152602081019050614a24565b60008484015250505050565b6000601f19601f8301169050919050565b6000614a6782614a05565b614a718185614a10565b9350614a81818560208601614a21565b614a8a81614a4b565b840191505092915050565b60008115159050919050565b614aaa81614a95565b82525050565b60006060820190508181036000830152614aca8186614a5c565b90508181036020830152614ade8185614a5c565b9050614aed6040830184614aa1565b949350505050565b614afe8161499a565b82525050565b6000602082019050614b196000830184614af5565b92915050565b600081519050919050565b600082825260208201905092915050565b6000819050602082019050919050565b614b548161499a565b82525050565b6000614b668383614b4b565b60208301905092915050565b6000602082019050919050565b6000614b8a82614b1f565b614b948185614b2a565b9350614b9f83614b3b565b8060005b83811015614bd0578151614bb78882614b5a565b9750614bc283614b72565b925050600181019050614ba3565b5085935050505092915050565b60006020820190508181036000830152614bf78184614b7f565b905092915050565b600080fd5b600080fd5b7f4e487b7100000000000000000000000000000000000000000000000000000000600052604160045260246000fd5b614c4182614a4b565b810181811067ffffffffffffffff82111715614c6057614c5f614c09565b5b80604052505050565b6000614c73614966565b9050614c7f8282614c38565b919050565b600067ffffffffffffffff821115614c9f57614c9e614c09565b5b614ca882614a4b565b9050602081019050919050565b82818337600083830152505050565b6000614cd7614cd284614c84565b614c69565b905082815260208101848484011115614cf357614cf2614c04565b5b614cfe848285614cb5565b509392505050565b600082601f830112614d1b57614d1a614bff565b5b8135614d2b848260208601614cc4565b91505092915050565b600060ff82169050919050565b614d4a81614d34565b8114614d5557600080fd5b50565b600081359050614d6781614d41565b92915050565b600080600080600080600080610100898b031215614d8e57614d8d614970565b5b6000614d9c8b828c016149c3565b985050602089013567ffffffffffffffff811115614dbd57614dbc614975565b5b614dc98b828c01614d06565b975050604089013567ffffffffffffffff811115614dea57614de9614975565b5b614df68b828c01614d06565b965050606089013567ffffffffffffffff811115614e1757614e16614975565b5b614e238b828c01614d06565b955050608089013567ffffffffffffffff811115614e4457614e43614975565b5b614e508b828c01614d06565b94505060a089013567ffffffffffffffff811115614e7157614e70614975565b5b614e7d8b828c01614d06565b93505060c089013567ffffffffffffffff811115614e9e57614e9d614975565b5b614eaa8b828c01614d06565b92505060e0614ebb8b828c01614d58565b9150509295985092959890939650565b600080600060608486031215614ee457614ee3614970565b5b6000614ef2868287016149c3565b935050602084013567ffffffffffffffff811115614f1357614f12614975565b5b614f1f86828701614d06565b925050604084013567ffffffffffffffff811115614f4057614f3f614975565b5b614f4c86828701614d06565b9150509250925092565b60008060408385031215614f6d57614f6c614970565b5b6000614f7b858286016149c3565b9250506020614f8c858286016149c3565b9150509250929050565b6000819050919050565b614fa981614f96565b82525050565b6000602082019050614fc46000830184614fa0565b92915050565b614fd381614f96565b8114614fde57600080fd5b50565b600081359050614ff081614fca565b92915050565b6000806040838503121561500d5761500c614970565b5b600061501b858286016149c3565b925050602061502c85828601614fe1565b9150509250929050565b61503f81614d34565b82525050565b6000610140820190508181036000830152615060818d614a5c565b90508181036020830152615074818c614a5c565b90508181036040830152615088818b614a5c565b9050818103606083015261509c818a614a5c565b905081810360808301526150b08189614a5c565b90506150bf60a0830188614fa0565b6150cc60c0830187614af5565b6150d960e0830186614aa1565b8181036101008301526150ec8185614a5c565b90506150fc610120830184615036565b9b9a5050505050505050505050565b600081519050919050565b600082825260208201905092915050565b6000819050602082019050919050565b600082825260208201905092915050565b600061515382614a05565b61515d8185615137565b935061516d818560208601614a21565b61517681614a4b565b840191505092915050565b61518a81614f96565b82525050565b61519981614a95565b82525050565b6151a881614d34565b82525050565b60006101408301600083015184820360008601526151cc8282615148565b915050602083015184820360208601526151e68282615148565b915050604083015184820360408601526152008282615148565b9150506060830151848203606086015261521a8282615148565b915050608083015184820360808601526152348282615148565b91505060a083015161524960a0860182615181565b5060c083015161525c60c0860182614b4b565b5060e083015161526f60e0860182615190565b506101008301518482036101008601526152898282615148565b9150506101208301516152a061012086018261519f565b508091505092915050565b60006152b783836151ae565b905092915050565b6000602082019050919050565b60006152d78261510b565b6152e18185615116565b9350836020820285016152f385615127565b8060005b8581101561532f578484038952815161531085826152ab565b945061531b836152bf565b925060208a019950506001810190506152f7565b50829750879550505050505092915050565b6000602082019050818103600083015261535b81846152cc565b905092915050565b6000604082019050818103600083015261537d8185614a5c565b905081810360208301526153918184614a5c565b90509392505050565b6000602082840312156153b0576153af614970565b5b60006153be84828501614fe1565b91505092915050565b7f50617469656e74206e6f74207265676973746572656400000000000000000000600082015250565b60006153fd601683614a10565b9150615408826153c7565b602082019050919050565b6000602082019050818103600083015261542c816153f0565b9050919050565b7f43616e6e6f7420726571756573742061636365737320746f2073656c66000000600082015250565b6000615469601d83614a10565b915061547482615433565b602082019050919050565b600060208201905081810360008301526154988161545c565b9050919050565b7f416c726561647920686173206163636573730000000000000000000000000000600082015250565b60006154d5601283614a10565b91506154e08261549f565b602082019050919050565b60006020820190508181036000830152615504816154c8565b9050919050565b7f4e487b7100000000000000000000000000000000000000000000000000000000600052603260045260246000fd5b7f5265717565737420616c72656164792070656e64696e67000000000000000000600082015250565b6000615570601783614a10565b915061557b8261553a565b602082019050919050565b6000602082019050818103600083015261559f81615563565b9050919050565b7f4e487b7100000000000000000000000000000000000000000000000000000000600052602260045260246000fd5b600060028204905060018216806155ed57607f821691505b602082108103615600576155ff6155a6565b5b50919050565b7f496e76616c69642070726976616379206c6576656c0000000000000000000000600082015250565b600061563c601583614a10565b915061564782615606565b602082019050919050565b6000602082019050818103600083015261566b8161562f565b9050919050565b600081905092915050565b600061568882614a05565b6156928185615672565b93506156a2818560208601614a21565b80840191505092915050565b60006156ba828461567d565b915081905092915050565b600060608201905081810360008301526156df8186614a5c565b905081810360208301526156f38185614a5c565b90506157026040830184614fa0565b949350505050565b60008190508160005260206000209050919050565b60006020601f8301049050919050565b600082821b905092915050565b60006008830261576c7fffffffffffffffffffffffffffffffffffffffffffffffffffffffffffffffff8261572f565b615776868361572f565b95508019841693508086168417925050509392505050565b6000819050919050565b60006157b36157ae6157a984614f96565b61578e565b614f96565b9050919050565b6000819050919050565b6157cd83615798565b6157e16157d9826157ba565b84845461573c565b825550505050565b600090565b6157f66157e9565b6158018184846157c4565b505050565b5b818110156158255761581a6000826157ee565b600181019050615807565b5050565b601f82111561586a5761583b8161570a565b6158448461571f565b81016020851015615853578190505b61586761585f8561571f565b830182615806565b50505b505050565b600082821c905092915050565b600061588d6000198460080261586f565b1980831691505092915050565b60006158a6838361587c565b9150826002028217905092915050565b6158bf82614a05565b67ffffffffffffffff8111156158d8576158d7614c09565b5b6158e282546155d5565b6158ed828285615829565b600060209050601f831160018114615920576000841561590e578287015190505b615918858261589a565b865550615980565b601f19841661592e8661570a565b60005b8281101561595657848901518255600182019150602085019450602081019050615931565b86831015615973578489015161596f601f89168261587c565b8355505b6001600288020188555050505b505050505050565b7f4e487b7100000000000000000000000000000000000000000000000000000000600052601160045260246000fd5b60006159c282614f96565b91506159cd83614f96565b92508282039050818111156159e5576159e4615988565b5b92915050565b60006060820190508181036000830152615a058186614a5c565b9050615a146020830185614fa0565b615a216040830184615036565b949350505050565b7f5245434f52445f41444445440000000000000000000000000000000000000000600082015250565b6000615a5f600c83614a10565b9150615a6a82615a29565b602082019050919050565b6000608082019050615a8a6000830186614af5565b8181036020830152615a9b81615a52565b9050615aaa6040830185614af5565b8181036060830152615abc8184614a5c565b9050949350505050565b7f4f6e6c792061646d696e2063616e2063616c6c20746869732066756e6374696f60008201527f6e00000000000000000000000000000000000000000000000000000000000000602082015250565b6000615b22602183614a10565b9150615b2d82615ac6565b604082019050919050565b60006020820190508181036000830152615b5181615b15565b9050919050565b7f50617469656e7420616c72656164792072656769737465726564000000000000600082015250565b6000615b8e601a83614a10565b9150615b9982615b58565b602082019050919050565b60006020820190508181036000830152615bbd81615b81565b9050919050565b7f50415449454e545f524547495354455245440000000000000000000000000000600082015250565b6000615bfa601283614a10565b9150615c0582615bc4565b602082019050919050565b6000608082019050615c256000830186614af5565b8181036020830152615c3681615bed565b9050615c456040830185614af5565b8181036060830152615c578184614a5c565b9050949350505050565b7f53656e64657220696e76616c6964000000000000000000000000000000000000600082015250565b6000615c97600e83614a10565b9150615ca282615c61565b602082019050919050565b60006020820190508181036000830152615cc681615c8a565b9050919050565b6000604082019050615ce26000830185614af5565b615cef6020830184614af5565b9392505050565b7f4143434553535f5245564f4b4544000000000000000000000000000000000000600082015250565b6000615d2c600e83614a10565b9150615d3782615cf6565b602082019050919050565b7f4d616e75616c205265766f6b6500000000000000000000000000000000000000600082015250565b6000615d78600d83614a10565b9150615d8382615d42565b602082019050919050565b6000608082019050615da36000830185614af5565b8181036020830152615db481615d1f565b9050615dc36040830184614af5565b8181036060830152615dd481615d6b565b90509392505050565b7f496e76616c696420766965776572206164647265737300000000000000000000600082015250565b6000615e13601683614a10565b9150615e1e82615ddd565b602082019050919050565b60006020820190508181036000830152615e4281615e06565b9050919050565b6000615e5482614f96565b9150615e5f83614f96565b9250828201905080821115615e7757615e76615988565b5b92915050565b7f4e487b7100000000000000000000000000000000000000000000000000000000600052603160045260246000fd5b7f4143434553535f4752414e544544000000000000000000000000000000000000600082015250565b6000615ee2600e83614a10565b9150615eed82615eac565b602082019050919050565b7f3720446179732041636365737300000000000000000000000000000000000000600082015250565b6000615f2e600d83614a10565b9150615f3982615ef8565b602082019050919050565b6000608082019050615f596000830185614af5565b8181036020830152615f6a81615ed5565b9050615f796040830184614af5565b8181036060830152615f8a81615f21565b90509392505050565b7f41636365737320616c6c6f776564206f6e6c7920666f722070617469656e742060008201527f6f776e6572000000000000000000000000000000000000000000000000000000602082015250565b6000615fef602583614a10565b9150615ffa82615f93565b604082019050919050565b6000602082019050818103600083015261601e81615fe2565b9050919050565b600061603082614f96565b91507fffffffffffffffffffffffffffffffffffffffffffffffffffffffffffffffff820361606257616061615988565b5b600182019050919050565b600061608061607b84614c84565b614c69565b90508281526020810184848401111561609c5761609b614c04565b5b6160a7848285614a21565b509392505050565b600082601f8301126160c4576160c3614bff565b5b81516160d484826020860161606d565b91505092915050565b6160e681614a95565b81146160f157600080fd5b50565b600081519050616103816160dd565b92915050565b60008060006060848603121561612257616121614970565b5b600084015167ffffffffffffffff8111156161405761613f614975565b5b61614c868287016160af565b935050602084015167ffffffffffffffff81111561616d5761616c614975565b5b616179868287016160af565b925050604061618a868287016160f4565b9150509250925092565b7f4163636573732064656e69656400000000000000000000000000000000000000600082015250565b60006161ca600d83614a10565b91506161d582616194565b602082019050919050565b600060208201905081810360008301526161f9816161bd565b9050919050565b7f4f6e6c792070617469656e742063616e20766965772072657175657374730000600082015250565b6000616236601e83614a10565b915061624182616200565b602082019050919050565b6000602082019050818103600083015261626581616229565b905091905056fea26469706673582212207eb866dd07fe41f0d421661e646f36481c3a7289b65d7837212ef52e7437f89e64736f6c63430008180033",
  "linkReferences": {},
  "deployedLinkReferences": {}
}