{
  "_format": "hh-sol-artifact-1",
  "contractName": "DoctorManagement",
  "sourceName": "contracts/doctorcontract.sol",
  "abi": [
    {
      "inputs": [],
      "stateMutability": "nonpayable",
      "type": "constructor"
    },
    {
      "anonymous": false,
      "inputs": [
        {
          "indexed": true,
          "internalType": "address",
          "name": "doctorAddress",
          "type": "address"
        },
        {
          "indexed": false,
          "internalType": "string",
          "name": "username",
          "type": "string"
        },
        {
          "indexed": false,
          "internalType": "string",
          "name": "role",
          "type": "string"
        }
      ],
      "name": "DoctorRegistered",
      "type": "event"
    },
    {
      "anonymous": false,
      "inputs": [
        {
          "indexed": true,
          "internalType": "address",
          "name": "doctorAddress",
          "type": "address"
        },
        {
          "indexed": true,
          "internalType": "address",
          "name": "patientAddress",
          "type": "address"
        }
      ],
      "name": "PatientAccessGranted",
      "type": "event"
    },
    {
      "anonymous": false,
      "inputs": [
        {
          "indexed": true,
          "internalType": "address",
          "name": "doctorAddress",
          "type": "address"
        },
        {
          "indexed": true,
          "internalType": "address",
          "name": "patientAddress",
          "type": "address"
        }
      ],
      "name": "PatientAccessRevoked",
      "type": "event"
    },
    {
      "inputs": [
        {
          "internalType": "address",
          "name": "_doctorAddress",
          "type": "address"
        },
        {
          "internalType": "address",
          "name": "_patientAddress",
          "type": "address"
        }
      ],
      "name": "addPatientAccess",
      "outputs": [],
      "stateMutability": "nonpayable",
      "type": "function"
    },
    {
      "inputs": [],
      "name": "admin",
      "outputs": [
        {
          "internalType": "address",
          "name": "",
          "type": "address"
        }
      ],
      "stateMutability": "view",
      "type": "function"
    },
    {
      "inputs": [
        {
          "internalType": "address",
          "name": "",
          "type": "address"
        },
        {
          "internalType": "address",
          "name": "",
          "type": "address"
        }
      ],
      "name": "doctorPatientAccess",
      "outputs": [
        {
          "internalType": "bool",
          "name": "",
          "type": "bool"
        }
      ],
      "stateMutability": "view",
      "type": "function"
    },
    {
      "inputs": [
        {
          "internalType": "address",
          "name": "",
          "type": "address"
        },
        {
          "internalType": "uint256",
          "name": "",
          "type": "uint256"
        }
      ],
      "name": "doctorPatients",
      "outputs": [
        {
          "internalType": "address",
          "name": "",
          "type": "address"
        }
      ],
      "stateMutability": "view",
      "type": "function"
    },
    {
      "inputs": [
        {
          "internalType": "address",
          "name": "",
          "type": "address"
        }
      ],
      "name": "doctors",
      "outputs": [
        {
          "internalType": "string",
          "name": "username",
          "type": "string"
        },
        {
          "internalType": "string",
          "name": "role",
          "type": "string"
        },
        {
          "internalType": "string",
          "name": "phoneNumber",
          "type": "string"
        },
        {
          "internalType": "bool",
          "name": "isRegistered",
          "type": "bool"
        }
      ],
      "stateMutability": "view",
      "type": "function"
    },
    {
      "inputs": [],
      "name": "getAllDoctors",
      "outputs": [
        {
          "internalType": "address[]",
          "name": "",
          "type": "address[]"
        }
      ],
      "stateMutability": "view",
      "type": "function"
    },
    {
      "inputs": [
        {
          "internalType": "address",
          "name": "_doctorAddress",
          "type": "address"
        }
      ],
      "name": "getAuthorizedPatients",
      "outputs": [
        {
          "internalType": "address[]",
          "name": "",
          "type": "address[]"
        }
      ],
      "stateMutability": "view",
      "type": "function"
    },
    {
      "inputs": [
        {
          "internalType": "address",
          "name": "_doctorAddress",
          "type": "address"
        }
      ],
      "name": "getDoctor",
      "outputs": [
        {
          "internalType": "string",
          "name": "username",
          "type": "string"
        },
        {
          "internalType": "string",
          "name": "role",
          "type": "string"
        },
        {
          "internalType": "string",
          "name": "phoneNumber",
          "type": "string"
        },
        {
          "internalType": "bool",
          "name": "isRegistered",
          "type": "bool"
        }
      ],
      "stateMutability": "view",
      "type": "function"
    },
    {
      "inputs": [
        {
          "internalType": "address",
          "name": "_doctorAddress",
          "type": "address"
        },
        {
          "internalType": "address",
          "name": "_patientAddress",
          "type": "address"
        }
      ],
      "name": "isAuthorized",
      "outputs": [
        {
          "internalType": "bool",
          "name": "",
          "type": "bool"
        }
      ],
      "stateMutability": "view",
      "type": "function"
    },
    {
      "inputs": [],
      "name": "patientContractAddress",
      "outputs": [
        {
          "internalType": "address",
          "name": "",
          "type": "address"
        }
      ],
      "stateMutability": "view",
      "type": "function"
    },
    {
      "inputs": [
        {
          "internalType": "address",
          "name": "_doctorAddress",
          "type": "address"
        },
        {
          "internalType": "string",
          "name": "_username",
          "type": "string"
        },
        {
          "internalType": "string",
          "name": "_role",
          "type": "string"
        },
        {
          "internalType": "string",
          "name": "_phoneNumber",
          "type": "string"
        }
      ],
      "name": "registerDoctor",
      "outputs": [],
      "stateMutability": "nonpayable",
      "type": "function"
    },
    {
      "inputs": [
        {
          "internalType": "address",
          "name": "_doctorAddress",
          "type": "address"
        },
        {
          "internalType": "address",
          "name": "_patientAddress",
          "type": "address"
        }
      ],
      "name": "revokePatientAccess",
      "outputs": [],
      "stateMutability": "nonpayable",
      "type": "function"
    },
    {
      "inputs": [
        {
          "internalType": "address",
          "name": "_patientContractAddress",
          "type": "address"
        }
      ],
      "name": "setPatientContractAddress",
      "outputs": [],
      "stateMutability": "nonpayable",
      "type": "function"
    }
  ],
  "bytecode": "0x60806040523480156200001157600080fd5b50600080546001600160a01b0319163390811782556040805160c0810182526005608082018181526430b236b4b760d91b60a08401819052908352835180850185529182526020828101919091528083019190915282518082018452858152828401526001606083018190529385529290925290912081518190620000979082620001d2565b5060208201516001820190620000ae9082620001d2565b5060408201516002820190620000c59082620001d2565b50606091909101516003909101805491151560ff19909216919091179055600280546001810182556000919091527f405787fa12a823e0f2b7631cc41b3ba8828b3321ca811111fa75cd3aa3bb5ace0180546001600160a01b031916331790556200029e565b634e487b7160e01b600052604160045260246000fd5b600181811c908216806200015657607f821691505b6020821081036200017757634e487b7160e01b600052602260045260246000fd5b50919050565b601f821115620001cd576000816000526020600020601f850160051c81016020861015620001a85750805b601f850160051c820191505b81811015620001c957828155600101620001b4565b5050505b505050565b81516001600160401b03811115620001ee57620001ee6200012b565b6200020681620001ff845462000141565b846200017d565b602080601f8311600181146200023e5760008415620002255750858301515b600019600386901b1c1916600185901b178555620001c9565b600085815260208120601f198616915b828110156200026f578886015182559484019460019091019084016200024e565b50858210156200028e5787850151600019600388901b60f8161c191681555b5050505050600190811b01905550565b6112d080620002ae6000396000f3fe608060405234801561001057600080fd5b50600436106100cf5760003560e01c80637c8b24e61161008c578063a9583c2211610066578063a9583c22146101e6578063d7b578cd146101f9578063f0d950901461020c578063f851a4401461021457600080fd5b80637c8b24e61461018557806393c095ff146101a5578063a133b27e146101b857600080fd5b80630ff42188146100d4578063177870c2146100e9578063191d52c6146100fc5780632f04e0641461012c5780634ac9e3001461014f57806365e4ad9e14610162575b600080fd5b6100e76100e2366004610e0a565b610227565b005b6100e76100f7366004610e0a565b6103e8565b60055461010f906001600160a01b031681565b6040516001600160a01b0390911681526020015b60405180910390f35b61013f61013a366004610e3d565b610692565b6040516101239493929190610ea5565b61010f61015d366004610ef2565b6108de565b610175610170366004610e0a565b610916565b6040519015158152602001610123565b610198610193366004610e3d565b610946565b6040516101239190610f1c565b6100e76101b336600461100c565b6109bc565b6101756101c6366004610e0a565b600460209081526000928352604080842090915290825290205460ff1681565b61013f6101f4366004610e3d565b610b43565b6100e7610207366004610e3d565b610d06565b610198610d8c565b60005461010f906001600160a01b031681565b6001600160a01b03821660009081526001602052604090206003015460ff1661026b5760405162461bcd60e51b8152600401610262906110a5565b60405180910390fd5b6001600160a01b0380831660009081526004602090815260408083209385168352929052205460ff16156102da5760405162461bcd60e51b81526020600482015260166024820152751058d8d95cdcc8185b1c9958591e4819dc985b9d195960521b6044820152606401610262565b336001600160a01b03821614806102fb57506005546001600160a01b031633145b6103605760405162461bcd60e51b815260206004820152603060248201527f4f6e6c792070617469656e74206f722050617469656e74436f6e74726163742060448201526f63616e206772616e742061636365737360801b6064820152608401610262565b6001600160a01b0382811660008181526003602090815260408083208054600180820183559185528385200180546001600160a01b031916968816968717905584845260048352818420868552909252808320805460ff1916909217909155517fa8d30211503e661fc2de68b2101d6be49294343e7f07c162a69eff23898ef0c19190a35050565b6001600160a01b03821660009081526001602052604090206003015460ff166104235760405162461bcd60e51b8152600401610262906110a5565b6001600160a01b0380831660009081526004602090815260408083209385168352929052205460ff1661048d5760405162461bcd60e51b81526020600482015260126024820152711058d8d95cdcc81b9bdd0819dc985b9d195960721b6044820152606401610262565b336001600160a01b03821614806104ae57506005546001600160a01b031633145b6105145760405162461bcd60e51b815260206004820152603160248201527f4f6e6c792070617469656e74206f722050617469656e74436f6e74726163742060448201527063616e207265766f6b652061636365737360781b6064820152608401610262565b6001600160a01b0380831660008181526004602090815260408083209486168352938152838220805460ff191690559181526003909152908120905b815481101561064c57826001600160a01b0316828281548110610575576105756110d4565b6000918252602090912001546001600160a01b031603610644578154829061059f906001906110ea565b815481106105af576105af6110d4565b9060005260206000200160009054906101000a90046001600160a01b03168282815481106105df576105df6110d4565b9060005260206000200160006101000a8154816001600160a01b0302191690836001600160a01b031602179055508180548061061d5761061d61110b565b600082815260209020810160001990810180546001600160a01b031916905501905561064c565b600101610550565b50816001600160a01b0316836001600160a01b03167f6869da424d3514d77420cdfa92bf9041b88dc6c70941bd7446fb7f013f95ddf160405160405180910390a3505050565b6001600160a01b038116600090815260016020526040812060030154606091829182919060ff166106d55760405162461bcd60e51b8152600401610262906110a5565b6001600160a01b03851660009081526001602052604080822081516080810190925280548290829061070690611121565b80601f016020809104026020016040519081016040528092919081815260200182805461073290611121565b801561077f5780601f106107545761010080835404028352916020019161077f565b820191906000526020600020905b81548152906001019060200180831161076257829003601f168201915b5050505050815260200160018201805461079890611121565b80601f01602080910402602001604051908101604052809291908181526020018280546107c490611121565b80156108115780601f106107e657610100808354040283529160200191610811565b820191906000526020600020905b8154815290600101906020018083116107f457829003601f168201915b5050505050815260200160028201805461082a90611121565b80601f016020809104026020016040519081016040528092919081815260200182805461085690611121565b80156108a35780601f10610878576101008083540402835291602001916108a3565b820191906000526020600020905b81548152906001019060200180831161088657829003601f168201915b50505091835250506003919091015460ff16151560209182015281519082015160408301516060909301519199909850919650945092505050565b600360205281600052604060002081815481106108fa57600080fd5b6000918252602090912001546001600160a01b03169150829050565b6001600160a01b0380831660009081526004602090815260408083209385168352929052205460ff165b92915050565b6001600160a01b0381166000908152600360209081526040918290208054835181840281018401909452808452606093928301828280156109b057602002820191906000526020600020905b81546001600160a01b03168152600190910190602001808311610992575b50505050509050919050565b6001600160a01b03841660009081526001602052604090206003015460ff1615610a285760405162461bcd60e51b815260206004820152601960248201527f446f63746f7220616c72656164792072656769737465726564000000000000006044820152606401610262565b6040805160808101825284815260208082018590528183018490526001606083018190526001600160a01b038816600090815291529190912081518190610a6f90826111ac565b5060208201516001820190610a8490826111ac565b5060408201516002820190610a9990826111ac565b50606091909101516003909101805460ff1916911515919091179055600280546001810182556000919091527f405787fa12a823e0f2b7631cc41b3ba8828b3321ca811111fa75cd3aa3bb5ace0180546001600160a01b0319166001600160a01b0386169081179091556040517fbc3a5b2aeb1bc52e3d56d3fd3423dd66cea5ecff8ae1f3bd0d75a0e608da7b8590610b35908690869061126c565b60405180910390a250505050565b600160205260009081526040902080548190610b5e90611121565b80601f0160208091040260200160405190810160405280929190818152602001828054610b8a90611121565b8015610bd75780601f10610bac57610100808354040283529160200191610bd7565b820191906000526020600020905b815481529060010190602001808311610bba57829003601f168201915b505050505090806001018054610bec90611121565b80601f0160208091040260200160405190810160405280929190818152602001828054610c1890611121565b8015610c655780601f10610c3a57610100808354040283529160200191610c65565b820191906000526020600020905b815481529060010190602001808311610c4857829003601f168201915b505050505090806002018054610c7a90611121565b80601f0160208091040260200160405190810160405280929190818152602001828054610ca690611121565b8015610cf35780601f10610cc857610100808354040283529160200191610cf3565b820191906000526020600020905b815481529060010190602001808311610cd657829003601f168201915b5050506003909301549192505060ff1684565b6000546001600160a01b03163314610d6a5760405162461bcd60e51b815260206004820152602160248201527f4f6e6c792061646d696e2063616e2063616c6c20746869732066756e6374696f6044820152603760f91b6064820152608401610262565b600580546001600160a01b0319166001600160a01b0392909216919091179055565b60606002805480602002602001604051908101604052809291908181526020018280548015610de457602002820191906000526020600020905b81546001600160a01b03168152600190910190602001808311610dc6575b5050505050905090565b80356001600160a01b0381168114610e0557600080fd5b919050565b60008060408385031215610e1d57600080fd5b610e2683610dee565b9150610e3460208401610dee565b90509250929050565b600060208284031215610e4f57600080fd5b610e5882610dee565b9392505050565b6000815180845260005b81811015610e8557602081850181015186830182015201610e69565b506000602082860101526020601f19601f83011685010191505092915050565b608081526000610eb86080830187610e5f565b8281036020840152610eca8187610e5f565b90508281036040840152610ede8186610e5f565b915050821515606083015295945050505050565b60008060408385031215610f0557600080fd5b610f0e83610dee565b946020939093013593505050565b6020808252825182820181905260009190848201906040850190845b81811015610f5d5783516001600160a01b031683529284019291840191600101610f38565b50909695505050505050565b634e487b7160e01b600052604160045260246000fd5b600082601f830112610f9057600080fd5b813567ffffffffffffffff80821115610fab57610fab610f69565b604051601f8301601f19908116603f01168101908282118183101715610fd357610fd3610f69565b81604052838152866020858801011115610fec57600080fd5b836020870160208301376000602085830101528094505050505092915050565b6000806000806080858703121561102257600080fd5b61102b85610dee565b9350602085013567ffffffffffffffff8082111561104857600080fd5b61105488838901610f7f565b9450604087013591508082111561106a57600080fd5b61107688838901610f7f565b9350606087013591508082111561108c57600080fd5b5061109987828801610f7f565b91505092959194509250565b602080825260159082015274111bd8dd1bdc881b9bdd081c9959da5cdd195c9959605a1b604082015260600190565b634e487b7160e01b600052603260045260246000fd5b8181038181111561094057634e487b7160e01b600052601160045260246000fd5b634e487b7160e01b600052603160045260246000fd5b600181811c9082168061113557607f821691505b60208210810361115557634e487b7160e01b600052602260045260246000fd5b50919050565b601f8211156111a7576000816000526020600020601f850160051c810160208610156111845750805b601f850160051c820191505b818110156111a357828155600101611190565b5050505b505050565b815167ffffffffffffffff8111156111c6576111c6610f69565b6111da816111d48454611121565b8461115b565b602080601f83116001811461120f57600084156111f75750858301515b600019600386901b1c1916600185901b1785556111a3565b600085815260208120601f198616915b8281101561123e5788860151825594840194600190910190840161121f565b508582101561125c5787850151600019600388901b60f8161c191681555b5050505050600190811b01905550565b60408152600061127f6040830185610e5f565b82810360208401526112918185610e5f565b9594505050505056fea26469706673582212204e893accc34f2fdbeda7e22cea55d2069d8b7f1c7237bef01c5db9ede51ab09564736f6c63430008180033",
  "linkReferences": {},
  "deployedLinkReferences": {}
}