{
  "_format": "hh-sol-artifact-1",
  "contractName": "DoctorManagement",
  "sourceName": "contracts/doctorcontract.sol",
  "abi": [
    {
      "inputs": [],
      "stateMutability": "nonpayable",
      "type": "constructor"
    },
    {
      "anonymous": false,
      "inputs": [
        {
          "indexed": true,
          "internalType": "address",
          "name": "doctorAddress",
          "type": "address"
        },
        {
          "indexed": false,
          "internalType": "string",
          "name": "username",
          "type": "string"
        },
        {
          "indexed": false,
          "internalType": "string",
          "name": "role",
          "type": "string"
        }
      ],
      "name": "DoctorRegistered",
      "type": "event"
    },
    {
      "anonymous": false,
      "inputs": [
        {
          "indexed": true,
          "internalType": "address",
          "name": "doctorAddress",
          "type": "address"
        },
        {
          "indexed": true,
          "internalType": "address",
          "name": "patientAddress",
          "type": "address"
        }
      ],
      "name": "PatientAccessGranted",
      "type": "event"
    },
    {
      "anonymous": false,
      "inputs": [
        {
          "indexed": true,
          "internalType": "address",
          "name": "doctorAddress",
          "type": "address"
        },
        {
          "indexed": true,
          "internalType": "address",
          "name": "patientAddress",
          "type": "address"
        }
      ],
      "name": "PatientAccessRevoked",
      "type": "event"
    },
    {
      "inputs": [
        {
          "internalType": "address",
          "name": "_doctorAddress",
          "type": "address"
        },
        {
          "internalType": "address",
          "name": "_patientAddress",
          "type": "address"
        }
      ],
      "name": "addPatientAccess",
      "outputs": [],
      "stateMutability": "nonpayable",
      "type": "function"
    },
    {
      "inputs": [],
      "name": "admin",
      "outputs": [
        {
          "internalType": "address",
          "name": "",
          "type": "address"
        }
      ],
      "stateMutability": "view",
      "type": "function"
    },
    {
      "inputs": [
        {
          "internalType": "address",
          "name": "",
          "type": "address"
        },
        {
          "internalType": "address",
          "name": "",
          "type": "address"
        }
      ],
      "name": "doctorPatientAccess",
      "outputs": [
        {
          "internalType": "bool",
          "name": "",
          "type": "bool"
        }
      ],
      "stateMutability": "view",
      "type": "function"
    },
    {
      "inputs": [
        {
          "internalType": "address",
          "name": "",
          "type": "address"
        },
        {
          "internalType": "uint256",
          "name": "",
          "type": "uint256"
        }
      ],
      "name": "doctorPatients",
      "outputs": [
        {
          "internalType": "address",
          "name": "",
          "type": "address"
        }
      ],
      "stateMutability": "view",
      "type": "function"
    },
    {
      "inputs": [
        {
          "internalType": "address",
          "name": "",
          "type": "address"
        }
      ],
      "name": "doctors",
      "outputs": [
        {
          "internalType": "string",
          "name": "username",
          "type": "string"
        },
        {
          "internalType": "string",
          "name": "role",
          "type": "string"
        },
        {
          "internalType": "bool",
          "name": "isRegistered",
          "type": "bool"
        }
      ],
      "stateMutability": "view",
      "type": "function"
    },
    {
      "inputs": [],
      "name": "getAllDoctors",
      "outputs": [
        {
          "internalType": "address[]",
          "name": "",
          "type": "address[]"
        }
      ],
      "stateMutability": "view",
      "type": "function"
    },
    {
      "inputs": [
        {
          "internalType": "address",
          "name": "_doctorAddress",
          "type": "address"
        }
      ],
      "name": "getAuthorizedPatients",
      "outputs": [
        {
          "internalType": "address[]",
          "name": "",
          "type": "address[]"
        }
      ],
      "stateMutability": "view",
      "type": "function"
    },
    {
      "inputs": [
        {
          "internalType": "address",
          "name": "_doctorAddress",
          "type": "address"
        }
      ],
      "name": "getDoctor",
      "outputs": [
        {
          "internalType": "string",
          "name": "username",
          "type": "string"
        },
        {
          "internalType": "string",
          "name": "role",
          "type": "string"
        }
      ],
      "stateMutability": "view",
      "type": "function"
    },
    {
      "inputs": [
        {
          "internalType": "address",
          "name": "_doctorAddress",
          "type": "address"
        },
        {
          "internalType": "address",
          "name": "_patientAddress",
          "type": "address"
        }
      ],
      "name": "isAuthorized",
      "outputs": [
        {
          "internalType": "bool",
          "name": "",
          "type": "bool"
        }
      ],
      "stateMutability": "view",
      "type": "function"
    },
    {
      "inputs": [],
      "name": "patientContractAddress",
      "outputs": [
        {
          "internalType": "address",
          "name": "",
          "type": "address"
        }
      ],
      "stateMutability": "view",
      "type": "function"
    },
    {
      "inputs": [
        {
          "internalType": "address",
          "name": "_doctorAddress",
          "type": "address"
        },
        {
          "internalType": "string",
          "name": "_username",
          "type": "string"
        },
        {
          "internalType": "string",
          "name": "_role",
          "type": "string"
        }
      ],
      "name": "registerDoctor",
      "outputs": [],
      "stateMutability": "nonpayable",
      "type": "function"
    },
    {
      "inputs": [
        {
          "internalType": "address",
          "name": "_doctorAddress",
          "type": "address"
        },
        {
          "internalType": "address",
          "name": "_patientAddress",
          "type": "address"
        }
      ],
      "name": "revokePatientAccess",
      "outputs": [],
      "stateMutability": "nonpayable",
      "type": "function"
    },
    {
      "inputs": [
        {
          "internalType": "address",
          "name": "_patientContractAddress",
          "type": "address"
        }
      ],
      "name": "setPatientContractAddress",
      "outputs": [],
      "stateMutability": "nonpayable",
      "type": "function"
    }
  ],
  "bytecode": "0x60806040523480156200001157600080fd5b50600080546001600160a01b0319163390811782556040805160a0810182526005606082018181526430b236b4b760d91b60808401819052908352835180850185529182526020828101919091528083019190915260018284018190529385529290925290912081518190620000889082620001aa565b50602082015160018201906200009f9082620001aa565b50604091909101516002918201805491151560ff1990921691909117905580546001810182556000919091527f405787fa12a823e0f2b7631cc41b3ba8828b3321ca811111fa75cd3aa3bb5ace0180546001600160a01b0319163317905562000276565b634e487b7160e01b600052604160045260246000fd5b600181811c908216806200012e57607f821691505b6020821081036200014f57634e487b7160e01b600052602260045260246000fd5b50919050565b601f821115620001a5576000816000526020600020601f850160051c81016020861015620001805750805b601f850160051c820191505b81811015620001a1578281556001016200018c565b5050505b505050565b81516001600160401b03811115620001c657620001c662000103565b620001de81620001d7845462000119565b8462000155565b602080601f831160018114620002165760008415620001fd5750858301515b600019600386901b1c1916600185901b178555620001a1565b600085815260208120601f198616915b82811015620002475788860151825594840194600190910190840162000226565b5085821015620002665787850151600019600388901b60f8161c191681555b5050505050600190811b01905550565b61117f80620002866000396000f3fe608060405234801561001057600080fd5b50600436106100cf5760003560e01c806365e4ad9e1161008c578063a9583c2211610066578063a9583c22146101e4578063d7b578cd14610206578063f0d9509014610219578063f851a4401461022157600080fd5b806365e4ad9e146101735780637c8b24e614610196578063a133b27e146101b657600080fd5b80630ff42188146100d4578063177870c2146100e9578063191d52c6146100fc5780632f04e0641461012c5780634ac9e3001461014d57806353d08ef414610160575b600080fd5b6100e76100e2366004610cb2565b610234565b005b6100e76100f7366004610cb2565b6103f5565b60055461010f906001600160a01b031681565b6040516001600160a01b0390911681526020015b60405180910390f35b61013f61013a366004610ce5565b61069f565b604051610123929190610d4d565b61010f61015b366004610d7b565b610845565b6100e761016e366004610e48565b61087d565b610186610181366004610cb2565b610a0d565b6040519015158152602001610123565b6101a96101a4366004610ce5565b610a3d565b6040516101239190610ebc565b6101866101c4366004610cb2565b600460209081526000928352604080842090915290825290205460ff1681565b6101f76101f2366004610ce5565b610ab3565b60405161012393929190610f09565b6100e7610214366004610ce5565b610be8565b6101a9610c34565b60005461010f906001600160a01b031681565b6001600160a01b03821660009081526001602052604090206002015460ff166102785760405162461bcd60e51b815260040161026f90610f41565b60405180910390fd5b6001600160a01b0380831660009081526004602090815260408083209385168352929052205460ff16156102e75760405162461bcd60e51b81526020600482015260166024820152751058d8d95cdcc8185b1c9958591e4819dc985b9d195960521b604482015260640161026f565b336001600160a01b038216148061030857506005546001600160a01b031633145b61036d5760405162461bcd60e51b815260206004820152603060248201527f4f6e6c792070617469656e74206f722050617469656e74436f6e74726163742060448201526f63616e206772616e742061636365737360801b606482015260840161026f565b6001600160a01b0382811660008181526003602090815260408083208054600180820183559185528385200180546001600160a01b031916968816968717905584845260048352818420868552909252808320805460ff1916909217909155517fa8d30211503e661fc2de68b2101d6be49294343e7f07c162a69eff23898ef0c19190a35050565b6001600160a01b03821660009081526001602052604090206002015460ff166104305760405162461bcd60e51b815260040161026f90610f41565b6001600160a01b0380831660009081526004602090815260408083209385168352929052205460ff1661049a5760405162461bcd60e51b81526020600482015260126024820152711058d8d95cdcc81b9bdd0819dc985b9d195960721b604482015260640161026f565b336001600160a01b03821614806104bb57506005546001600160a01b031633145b6105215760405162461bcd60e51b815260206004820152603160248201527f4f6e6c792070617469656e74206f722050617469656e74436f6e74726163742060448201527063616e207265766f6b652061636365737360781b606482015260840161026f565b6001600160a01b0380831660008181526004602090815260408083209486168352938152838220805460ff191690559181526003909152908120905b815481101561065957826001600160a01b031682828154811061058257610582610f70565b6000918252602090912001546001600160a01b03160361065157815482906105ac90600190610f86565b815481106105bc576105bc610f70565b9060005260206000200160009054906101000a90046001600160a01b03168282815481106105ec576105ec610f70565b9060005260206000200160006101000a8154816001600160a01b0302191690836001600160a01b031602179055508180548061062a5761062a610fa7565b600082815260209020810160001990810180546001600160a01b0319169055019055610659565b60010161055d565b50816001600160a01b0316836001600160a01b03167f6869da424d3514d77420cdfa92bf9041b88dc6c70941bd7446fb7f013f95ddf160405160405180910390a3505050565b6001600160a01b038116600090815260016020526040902060020154606090819060ff166106df5760405162461bcd60e51b815260040161026f90610f41565b6001600160a01b03831660009081526001602052604080822081516060810190925280548290829061071090610fbd565b80601f016020809104026020016040519081016040528092919081815260200182805461073c90610fbd565b80156107895780601f1061075e57610100808354040283529160200191610789565b820191906000526020600020905b81548152906001019060200180831161076c57829003601f168201915b505050505081526020016001820180546107a290610fbd565b80601f01602080910402602001604051908101604052809291908181526020018280546107ce90610fbd565b801561081b5780601f106107f05761010080835404028352916020019161081b565b820191906000526020600020905b8154815290600101906020018083116107fe57829003601f168201915b50505091835250506002919091015460ff1615156020918201528151910151909590945092505050565b6003602052816000526040600020818154811061086157600080fd5b6000918252602090912001546001600160a01b03169150829050565b6000546001600160a01b031633146108a75760405162461bcd60e51b815260040161026f90610ff7565b6001600160a01b03831660009081526001602052604090206002015460ff16156109135760405162461bcd60e51b815260206004820152601960248201527f446f63746f7220616c7265616479207265676973746572656400000000000000604482015260640161026f565b60408051606081018252838152602080820184905260018284018190526001600160a01b0387166000908152915291909120815181906109539082611089565b50602082015160018201906109689082611089565b506040918201516002918201805460ff191691151591909117905580546001810182556000919091527f405787fa12a823e0f2b7631cc41b3ba8828b3321ca811111fa75cd3aa3bb5ace0180546001600160a01b0319166001600160a01b03861690811790915590517fbc3a5b2aeb1bc52e3d56d3fd3423dd66cea5ecff8ae1f3bd0d75a0e608da7b8590610a009085908590610d4d565b60405180910390a2505050565b6001600160a01b0380831660009081526004602090815260408083209385168352929052205460ff165b92915050565b6001600160a01b038116600090815260036020908152604091829020805483518184028101840190945280845260609392830182828015610aa757602002820191906000526020600020905b81546001600160a01b03168152600190910190602001808311610a89575b50505050509050919050565b600160205260009081526040902080548190610ace90610fbd565b80601f0160208091040260200160405190810160405280929190818152602001828054610afa90610fbd565b8015610b475780601f10610b1c57610100808354040283529160200191610b47565b820191906000526020600020905b815481529060010190602001808311610b2a57829003601f168201915b505050505090806001018054610b5c90610fbd565b80601f0160208091040260200160405190810160405280929190818152602001828054610b8890610fbd565b8015610bd55780601f10610baa57610100808354040283529160200191610bd5565b820191906000526020600020905b815481529060010190602001808311610bb857829003601f168201915b5050506002909301549192505060ff1683565b6000546001600160a01b03163314610c125760405162461bcd60e51b815260040161026f90610ff7565b600580546001600160a01b0319166001600160a01b0392909216919091179055565b60606002805480602002602001604051908101604052809291908181526020018280548015610c8c57602002820191906000526020600020905b81546001600160a01b03168152600190910190602001808311610c6e575b5050505050905090565b80356001600160a01b0381168114610cad57600080fd5b919050565b60008060408385031215610cc557600080fd5b610cce83610c96565b9150610cdc60208401610c96565b90509250929050565b600060208284031215610cf757600080fd5b610d0082610c96565b9392505050565b6000815180845260005b81811015610d2d57602081850181015186830182015201610d11565b506000602082860101526020601f19601f83011685010191505092915050565b604081526000610d606040830185610d07565b8281036020840152610d728185610d07565b95945050505050565b60008060408385031215610d8e57600080fd5b610d9783610c96565b946020939093013593505050565b634e487b7160e01b600052604160045260246000fd5b600082601f830112610dcc57600080fd5b813567ffffffffffffffff80821115610de757610de7610da5565b604051601f8301601f19908116603f01168101908282118183101715610e0f57610e0f610da5565b81604052838152866020858801011115610e2857600080fd5b836020870160208301376000602085830101528094505050505092915050565b600080600060608486031215610e5d57600080fd5b610e6684610c96565b9250602084013567ffffffffffffffff80821115610e8357600080fd5b610e8f87838801610dbb565b93506040860135915080821115610ea557600080fd5b50610eb286828701610dbb565b9150509250925092565b6020808252825182820181905260009190848201906040850190845b81811015610efd5783516001600160a01b031683529284019291840191600101610ed8565b50909695505050505050565b606081526000610f1c6060830186610d07565b8281036020840152610f2e8186610d07565b9150508215156040830152949350505050565b602080825260159082015274111bd8dd1bdc881b9bdd081c9959da5cdd195c9959605a1b604082015260600190565b634e487b7160e01b600052603260045260246000fd5b81810381811115610a3757634e487b7160e01b600052601160045260246000fd5b634e487b7160e01b600052603160045260246000fd5b600181811c90821680610fd157607f821691505b602082108103610ff157634e487b7160e01b600052602260045260246000fd5b50919050565b60208082526021908201527f4f6e6c792061646d696e2063616e2063616c6c20746869732066756e6374696f6040820152603760f91b606082015260800190565b601f821115611084576000816000526020600020601f850160051c810160208610156110615750805b601f850160051c820191505b818110156110805782815560010161106d565b5050505b505050565b815167ffffffffffffffff8111156110a3576110a3610da5565b6110b7816110b18454610fbd565b84611038565b602080601f8311600181146110ec57600084156110d45750858301515b600019600386901b1c1916600185901b178555611080565b600085815260208120601f198616915b8281101561111b578886015182559484019460019091019084016110fc565b50858210156111395787850151600019600388901b60f8161c191681555b5050505050600190811b0190555056fea2646970667358221220ea1946cc1d2c390b1ac808e65655f4900a9815aa695279bfac22235adfeff70e64736f6c63430008180033",
  "linkReferences": {},
  "deployedLinkReferences": {}
}