{
  "_format": "hh-sol-artifact-1",
  "contractName": "PatientManagement",
  "sourceName": "contracts/patientcontract.sol",
  "abi": [
    {
      "inputs": [],
      "stateMutability": "nonpayable",
      "type": "constructor"
    },
    {
      "anonymous": false,
      "inputs": [
        {
          "indexed": true,
          "internalType": "address",
          "name": "patient",
          "type": "address"
        },
        {
          "indexed": true,
          "internalType": "address",
          "name": "viewer",
          "type": "address"
        },
        {
          "indexed": false,
          "internalType": "uint256",
          "name": "expiry",
          "type": "uint256"
        }
      ],
      "name": "AccessGranted",
      "type": "event"
    },
    {
      "anonymous": false,
      "inputs": [
        {
          "indexed": true,
          "internalType": "address",
          "name": "patient",
          "type": "address"
        },
        {
          "indexed": true,
          "internalType": "address",
          "name": "viewer",
          "type": "address"
        }
      ],
      "name": "AccessRequested",
      "type": "event"
    },
    {
      "anonymous": false,
      "inputs": [
        {
          "indexed": true,
          "internalType": "address",
          "name": "patient",
          "type": "address"
        },
        {
          "indexed": true,
          "internalType": "address",
          "name": "viewer",
          "type": "address"
        }
      ],
      "name": "AccessRevoked",
      "type": "event"
    },
    {
      "anonymous": false,
      "inputs": [
        {
          "indexed": true,
          "internalType": "address",
          "name": "patientAddress",
          "type": "address"
        },
        {
          "indexed": true,
          "internalType": "address",
          "name": "doctorAddress",
          "type": "address"
        },
        {
          "indexed": false,
          "internalType": "string",
          "name": "ipfsHash",
          "type": "string"
        },
        {
          "indexed": false,
          "internalType": "uint256",
          "name": "timestamp",
          "type": "uint256"
        },
        {
          "indexed": false,
          "internalType": "uint8",
          "name": "privacyLevel",
          "type": "uint8"
        }
      ],
      "name": "MedicalRecordAdded",
      "type": "event"
    },
    {
      "anonymous": false,
      "inputs": [
        {
          "indexed": true,
          "internalType": "address",
          "name": "patientAddress",
          "type": "address"
        },
        {
          "indexed": false,
          "internalType": "string",
          "name": "oldIpfsHash",
          "type": "string"
        },
        {
          "indexed": false,
          "internalType": "string",
          "name": "newIpfsHash",
          "type": "string"
        },
        {
          "indexed": false,
          "internalType": "uint256",
          "name": "timestamp",
          "type": "uint256"
        }
      ],
      "name": "MedicalRecordUpdated",
      "type": "event"
    },
    {
      "anonymous": false,
      "inputs": [
        {
          "indexed": true,
          "internalType": "address",
          "name": "patientAddress",
          "type": "address"
        },
        {
          "indexed": false,
          "internalType": "string",
          "name": "username",
          "type": "string"
        },
        {
          "indexed": false,
          "internalType": "string",
          "name": "role",
          "type": "string"
        }
      ],
      "name": "PatientRegistered",
      "type": "event"
    },
    {
      "inputs": [
        {
          "internalType": "address",
          "name": "",
          "type": "address"
        },
        {
          "internalType": "address",
          "name": "",
          "type": "address"
        }
      ],
      "name": "accessExpiry",
      "outputs": [
        {
          "internalType": "uint256",
          "name": "",
          "type": "uint256"
        }
      ],
      "stateMutability": "view",
      "type": "function"
    },
    {
      "inputs": [
        {
          "internalType": "address",
          "name": "_patientAddress",
          "type": "address"
        },
        {
          "internalType": "string",
          "name": "_ipfsHash",
          "type": "string"
        },
        {
          "internalType": "string",
          "name": "_fileType",
          "type": "string"
        },
        {
          "internalType": "string",
          "name": "_fileName",
          "type": "string"
        },
        {
          "internalType": "string",
          "name": "_title",
          "type": "string"
        },
        {
          "internalType": "string",
          "name": "_resume",
          "type": "string"
        },
        {
          "internalType": "string",
          "name": "_previousVersion",
          "type": "string"
        },
        {
          "internalType": "uint8",
          "name": "_privacyLevel",
          "type": "uint8"
        }
      ],
      "name": "addMedicalRecord",
      "outputs": [],
      "stateMutability": "nonpayable",
      "type": "function"
    },
    {
      "inputs": [],
      "name": "admin",
      "outputs": [
        {
          "internalType": "address",
          "name": "",
          "type": "address"
        }
      ],
      "stateMutability": "view",
      "type": "function"
    },
    {
      "inputs": [],
      "name": "doctorContractAddress",
      "outputs": [
        {
          "internalType": "address",
          "name": "",
          "type": "address"
        }
      ],
      "stateMutability": "view",
      "type": "function"
    },
    {
      "inputs": [
        {
          "internalType": "address",
          "name": "_patientAddress",
          "type": "address"
        }
      ],
      "name": "getActiveRecords",
      "outputs": [
        {
          "components": [
            {
              "internalType": "string",
              "name": "ipfsHash",
              "type": "string"
            },
            {
              "internalType": "string",
              "name": "fileType",
              "type": "string"
            },
            {
              "internalType": "string",
              "name": "fileName",
              "type": "string"
            },
            {
              "internalType": "string",
              "name": "title",
              "type": "string"
            },
            {
              "internalType": "string",
              "name": "resume",
              "type": "string"
            },
            {
              "internalType": "uint256",
              "name": "timestamp",
              "type": "uint256"
            },
            {
              "internalType": "address",
              "name": "doctor",
              "type": "address"
            },
            {
              "internalType": "bool",
              "name": "isActive",
              "type": "bool"
            },
            {
              "internalType": "string",
              "name": "previousVersion",
              "type": "string"
            },
            {
              "internalType": "uint8",
              "name": "privacyLevel",
              "type": "uint8"
            }
          ],
          "internalType": "struct PatientManagement.MedicalRecord[]",
          "name": "",
          "type": "tuple[]"
        }
      ],
      "stateMutability": "view",
      "type": "function"
    },
    {
      "inputs": [
        {
          "internalType": "address",
          "name": "_patientAddress",
          "type": "address"
        }
      ],
      "name": "getMedicalRecords",
      "outputs": [
        {
          "components": [
            {
              "internalType": "string",
              "name": "ipfsHash",
              "type": "string"
            },
            {
              "internalType": "string",
              "name": "fileType",
              "type": "string"
            },
            {
              "internalType": "string",
              "name": "fileName",
              "type": "string"
            },
            {
              "internalType": "string",
              "name": "title",
              "type": "string"
            },
            {
              "internalType": "string",
              "name": "resume",
              "type": "string"
            },
            {
              "internalType": "uint256",
              "name": "timestamp",
              "type": "uint256"
            },
            {
              "internalType": "address",
              "name": "doctor",
              "type": "address"
            },
            {
              "internalType": "bool",
              "name": "isActive",
              "type": "bool"
            },
            {
              "internalType": "string",
              "name": "previousVersion",
              "type": "string"
            },
            {
              "internalType": "uint8",
              "name": "privacyLevel",
              "type": "uint8"
            }
          ],
          "internalType": "struct PatientManagement.MedicalRecord[]",
          "name": "",
          "type": "tuple[]"
        }
      ],
      "stateMutability": "view",
      "type": "function"
    },
    {
      "inputs": [
        {
          "internalType": "address",
          "name": "_patientAddress",
          "type": "address"
        }
      ],
      "name": "getPatient",
      "outputs": [
        {
          "internalType": "string",
          "name": "username",
          "type": "string"
        },
        {
          "internalType": "string",
          "name": "role",
          "type": "string"
        }
      ],
      "stateMutability": "view",
      "type": "function"
    },
    {
      "inputs": [
        {
          "internalType": "address",
          "name": "_patientAddress",
          "type": "address"
        }
      ],
      "name": "getPatientAccessRequests",
      "outputs": [
        {
          "internalType": "address[]",
          "name": "",
          "type": "address[]"
        }
      ],
      "stateMutability": "view",
      "type": "function"
    },
    {
      "inputs": [
        {
          "internalType": "address",
          "name": "_patientAddress",
          "type": "address"
        }
      ],
      "name": "getSharedRecords",
      "outputs": [
        {
          "components": [
            {
              "internalType": "string",
              "name": "ipfsHash",
              "type": "string"
            },
            {
              "internalType": "string",
              "name": "fileType",
              "type": "string"
            },
            {
              "internalType": "string",
              "name": "fileName",
              "type": "string"
            },
            {
              "internalType": "string",
              "name": "title",
              "type": "string"
            },
            {
              "internalType": "string",
              "name": "resume",
              "type": "string"
            },
            {
              "internalType": "uint256",
              "name": "timestamp",
              "type": "uint256"
            },
            {
              "internalType": "address",
              "name": "doctor",
              "type": "address"
            },
            {
              "internalType": "bool",
              "name": "isActive",
              "type": "bool"
            },
            {
              "internalType": "string",
              "name": "previousVersion",
              "type": "string"
            },
            {
              "internalType": "uint8",
              "name": "privacyLevel",
              "type": "uint8"
            }
          ],
          "internalType": "struct PatientManagement.MedicalRecord[]",
          "name": "",
          "type": "tuple[]"
        }
      ],
      "stateMutability": "view",
      "type": "function"
    },
    {
      "inputs": [
        {
          "internalType": "address",
          "name": "_viewer",
          "type": "address"
        },
        {
          "internalType": "uint256",
          "name": "_durationSeconds",
          "type": "uint256"
        }
      ],
      "name": "grantAccess",
      "outputs": [],
      "stateMutability": "nonpayable",
      "type": "function"
    },
    {
      "inputs": [],
      "name": "insuranceContractAddress",
      "outputs": [
        {
          "internalType": "address",
          "name": "",
          "type": "address"
        }
      ],
      "stateMutability": "view",
      "type": "function"
    },
    {
      "inputs": [
        {
          "internalType": "address",
          "name": "",
          "type": "address"
        },
        {
          "internalType": "uint256",
          "name": "",
          "type": "uint256"
        }
      ],
      "name": "patientAccessRequests",
      "outputs": [
        {
          "internalType": "address",
          "name": "",
          "type": "address"
        }
      ],
      "stateMutability": "view",
      "type": "function"
    },
    {
      "inputs": [
        {
          "internalType": "address",
          "name": "",
          "type": "address"
        },
        {
          "internalType": "uint256",
          "name": "",
          "type": "uint256"
        }
      ],
      "name": "patientRecords",
      "outputs": [
        {
          "internalType": "string",
          "name": "ipfsHash",
          "type": "string"
        },
        {
          "internalType": "string",
          "name": "fileType",
          "type": "string"
        },
        {
          "internalType": "string",
          "name": "fileName",
          "type": "string"
        },
        {
          "internalType": "string",
          "name": "title",
          "type": "string"
        },
        {
          "internalType": "string",
          "name": "resume",
          "type": "string"
        },
        {
          "internalType": "uint256",
          "name": "timestamp",
          "type": "uint256"
        },
        {
          "internalType": "address",
          "name": "doctor",
          "type": "address"
        },
        {
          "internalType": "bool",
          "name": "isActive",
          "type": "bool"
        },
        {
          "internalType": "string",
          "name": "previousVersion",
          "type": "string"
        },
        {
          "internalType": "uint8",
          "name": "privacyLevel",
          "type": "uint8"
        }
      ],
      "stateMutability": "view",
      "type": "function"
    },
    {
      "inputs": [
        {
          "internalType": "address",
          "name": "",
          "type": "address"
        }
      ],
      "name": "patients",
      "outputs": [
        {
          "internalType": "string",
          "name": "username",
          "type": "string"
        },
        {
          "internalType": "string",
          "name": "role",
          "type": "string"
        },
        {
          "internalType": "bool",
          "name": "isRegistered",
          "type": "bool"
        }
      ],
      "stateMutability": "view",
      "type": "function"
    },
    {
      "inputs": [
        {
          "internalType": "address",
          "name": "_patientAddress",
          "type": "address"
        },
        {
          "internalType": "string",
          "name": "_username",
          "type": "string"
        },
        {
          "internalType": "string",
          "name": "_role",
          "type": "string"
        }
      ],
      "name": "registerPatient",
      "outputs": [],
      "stateMutability": "nonpayable",
      "type": "function"
    },
    {
      "inputs": [
        {
          "internalType": "address",
          "name": "_patientAddress",
          "type": "address"
        }
      ],
      "name": "requestAccess",
      "outputs": [],
      "stateMutability": "nonpayable",
      "type": "function"
    },
    {
      "inputs": [],
      "name": "researcherContractAddress",
      "outputs": [
        {
          "internalType": "address",
          "name": "",
          "type": "address"
        }
      ],
      "stateMutability": "view",
      "type": "function"
    },
    {
      "inputs": [
        {
          "internalType": "address",
          "name": "_viewer",
          "type": "address"
        }
      ],
      "name": "revokeAccess",
      "outputs": [],
      "stateMutability": "nonpayable",
      "type": "function"
    },
    {
      "inputs": [
        {
          "internalType": "address",
          "name": "_doctorContractAddress",
          "type": "address"
        }
      ],
      "name": "setDoctorContractAddress",
      "outputs": [],
      "stateMutability": "nonpayable",
      "type": "function"
    },
    {
      "inputs": [
        {
          "internalType": "address",
          "name": "_insuranceContractAddress",
          "type": "address"
        }
      ],
      "name": "setInsuranceContractAddress",
      "outputs": [],
      "stateMutability": "nonpayable",
      "type": "function"
    },
    {
      "inputs": [
        {
          "internalType": "address",
          "name": "_researcherContractAddress",
          "type": "address"
        }
      ],
      "name": "setResearcherContractAddress",
      "outputs": [],
      "stateMutability": "nonpayable",
      "type": "function"
    }
  ],
  "bytecode": "0x60806040523480156200001157600080fd5b50336000806101000a81548173ffffffffffffffffffffffffffffffffffffffff021916908373ffffffffffffffffffffffffffffffffffffffff16021790555060405180606001604052806040518060400160405280600581526020017f61646d696e00000000000000000000000000000000000000000000000000000081525081526020016040518060400160405280600581526020017f61646d696e000000000000000000000000000000000000000000000000000000815250815260200160011515815250600160003373ffffffffffffffffffffffffffffffffffffffff1673ffffffffffffffffffffffffffffffffffffffff1681526020019081526020016000206000820151816000019081620001309190620003ec565b506020820151816001019081620001489190620003ec565b5060408201518160020160006101000a81548160ff021916908315150217905550905050620004d3565b600081519050919050565b7f4e487b7100000000000000000000000000000000000000000000000000000000600052604160045260246000fd5b7f4e487b7100000000000000000000000000000000000000000000000000000000600052602260045260246000fd5b60006002820490506001821680620001f457607f821691505b6020821081036200020a5762000209620001ac565b5b50919050565b60008190508160005260206000209050919050565b60006020601f8301049050919050565b600082821b905092915050565b600060088302620002747fffffffffffffffffffffffffffffffffffffffffffffffffffffffffffffffff8262000235565b62000280868362000235565b95508019841693508086168417925050509392505050565b6000819050919050565b6000819050919050565b6000620002cd620002c7620002c18462000298565b620002a2565b62000298565b9050919050565b6000819050919050565b620002e983620002ac565b62000301620002f882620002d4565b84845462000242565b825550505050565b600090565b6200031862000309565b62000325818484620002de565b505050565b5b818110156200034d57620003416000826200030e565b6001810190506200032b565b5050565b601f8211156200039c57620003668162000210565b620003718462000225565b8101602085101562000381578190505b62000399620003908562000225565b8301826200032a565b50505b505050565b600082821c905092915050565b6000620003c160001984600802620003a1565b1980831691505092915050565b6000620003dc8383620003ae565b9150826002028217905092915050565b620003f78262000172565b67ffffffffffffffff8111156200041357620004126200017d565b5b6200041f8254620001db565b6200042c82828562000351565b600060209050601f8311600181146200046457600084156200044f578287015190505b6200045b8582620003ce565b865550620004cb565b601f198416620004748662000210565b60005b828110156200049e5784890151825560018201915060208501945060208101905062000477565b86831015620004be5784890151620004ba601f891682620003ae565b8355505b6001600288020188555050505b505050505050565b6157e680620004e36000396000f3fe608060405234801561001057600080fd5b50600436106101375760003560e01c806394f0df61116100b8578063b717a67c1161007c578063b717a67c14610356578063bcbf718114610386578063e08b9d9c146103b6578063eeaaa075146103d2578063f851a44014610402578063fb6be4ec1461042057610137565b806394f0df61146102825780639df89256146102bb578063a25b0bf0146102d7578063afd8297c146102f5578063b5368e201461032557610137565b806337d91799116100ff57806337d91799146101e25780636df32cd4146101fe5780637933ef8b1461021a57806385e685311461023657806391f205961461025257610137565b8063022cb2711461013c5780630869cfbc146101585780630ac1f2c51461018a57806314c179c0146101a8578063197547a1146101c6575b600080fd5b61015660048036038101906101519190614251565b610450565b005b610172600480360381019061016d9190614251565b610874565b60405161018193929190614329565b60405180910390f35b6101926109bb565b60405161019f919061437d565b60405180910390f35b6101b06109e1565b6040516101bd919061437d565b60405180910390f35b6101e060048036038101906101db9190614506565b610a07565b005b6101fc60048036038101906101f79190614664565b610ea7565b005b61021860048036038101906102139190614251565b6110c6565b005b610234600480360381019061022f9190614251565b611198565b005b610250600480360381019061024b9190614251565b61126a565b005b61026c600480360381019061026791906146ef565b611678565b6040516102799190614748565b60405180910390f35b61029c6004803603810190610297919061478f565b61169d565b6040516102b29a999897969594939291906147de565b60405180910390f35b6102d560048036038101906102d0919061478f565b611a78565b005b6102df6120db565b6040516102ec919061437d565b60405180910390f35b61030f600480360381019061030a9190614251565b612101565b60405161031c9190614ae9565b60405180910390f35b61033f600480360381019061033a9190614251565b612633565b60405161034d929190614b0b565b60405180910390f35b610370600480360381019061036b9190614251565b612866565b60405161037d9190614ae9565b60405180910390f35b6103a0600480360381019061039b9190614251565b613015565b6040516103ad9190614ae9565b60405180910390f35b6103d060048036038101906103cb9190614251565b613bc3565b005b6103ec60048036038101906103e79190614251565b613c95565b6040516103f99190614bf1565b60405180910390f35b61040a613dd0565b604051610417919061437d565b60405180910390f35b61043a6004803603810190610435919061478f565b613df4565b604051610447919061437d565b60405180910390f35b600160008273ffffffffffffffffffffffffffffffffffffffff1673ffffffffffffffffffffffffffffffffffffffff16815260200190815260200160002060020160009054906101000a900460ff166104df576040517f08c379a00000000000000000000000000000000000000000000000000000000081526004016104d690614c5f565b60405180910390fd5b3373ffffffffffffffffffffffffffffffffffffffff168173ffffffffffffffffffffffffffffffffffffffff160361054d576040517f08c379a000000000000000000000000000000000000000000000000000000000815260040161054490614ccb565b60405180910390fd5b42600460008373ffffffffffffffffffffffffffffffffffffffff1673ffffffffffffffffffffffffffffffffffffffff16815260200190815260200160002060003373ffffffffffffffffffffffffffffffffffffffff1673ffffffffffffffffffffffffffffffffffffffff16815260200190815260200160002054111561060c576040517f08c379a000000000000000000000000000000000000000000000000000000000815260040161060390614d37565b60405180910390fd5b6000600860008373ffffffffffffffffffffffffffffffffffffffff1673ffffffffffffffffffffffffffffffffffffffff1681526020019081526020016000208054806020026020016040519081016040528092919081815260200182805480156106cd57602002820191906000526020600020905b8160009054906101000a900473ffffffffffffffffffffffffffffffffffffffff1673ffffffffffffffffffffffffffffffffffffffff1681526020019060010190808311610683575b5050505050905060005b8151811015610775573373ffffffffffffffffffffffffffffffffffffffff1682828151811061070a57610709614d57565b5b602002602001015173ffffffffffffffffffffffffffffffffffffffff1603610768576040517f08c379a000000000000000000000000000000000000000000000000000000000815260040161075f90614dd2565b60405180910390fd5b80806001019150506106d7565b50600860008373ffffffffffffffffffffffffffffffffffffffff1673ffffffffffffffffffffffffffffffffffffffff168152602001908152602001600020339080600181540180825580915050600190039060005260206000200160009091909190916101000a81548173ffffffffffffffffffffffffffffffffffffffff021916908373ffffffffffffffffffffffffffffffffffffffff1602179055503373ffffffffffffffffffffffffffffffffffffffff168273ffffffffffffffffffffffffffffffffffffffff167f40c7749b16fdfb0d550f20273a7767875059d647af94f5a9610c63ad73dcc79f60405160405180910390a35050565b600160205280600052604060002060009150905080600001805461089790614e21565b80601f01602080910402602001604051908101604052809291908181526020018280546108c390614e21565b80156109105780601f106108e557610100808354040283529160200191610910565b820191906000526020600020905b8154815290600101906020018083116108f357829003601f168201915b50505050509080600101805461092590614e21565b80601f016020809104026020016040519081016040528092919081815260200182805461095190614e21565b801561099e5780601f106109735761010080835404028352916020019161099e565b820191906000526020600020905b81548152906001019060200180831161098157829003601f168201915b5050505050908060020160009054906101000a900460ff16905083565b600560009054906101000a900473ffffffffffffffffffffffffffffffffffffffff1681565b600660009054906101000a900473ffffffffffffffffffffffffffffffffffffffff1681565b600160008973ffffffffffffffffffffffffffffffffffffffff1673ffffffffffffffffffffffffffffffffffffffff16815260200190815260200160002060020160009054906101000a900460ff16610a96576040517f08c379a0000000000000000000000000000000000000000000000000000000008152600401610a8d90614c5f565b60405180910390fd5b60028160ff161115610add576040517f08c379a0000000000000000000000000000000000000000000000000000000008152600401610ad490614e9e565b60405180910390fd5b600082511115610bd9576000600383604051610af99190614efa565b90815260200160405180910390205490506000600260008b73ffffffffffffffffffffffffffffffffffffffff1673ffffffffffffffffffffffffffffffffffffffff1681526020019081526020016000208281548110610b5d57610b5c614d57565b5b906000526020600020906009020160060160146101000a81548160ff0219169083151502179055508873ffffffffffffffffffffffffffffffffffffffff167f265a47e189bdaf1e4e75ca93474dba2ad21591bb54b62e3b8633029a440dcbf6848a42604051610bcf93929190614f11565b60405180910390a2505b60006040518061014001604052808981526020018881526020018781526020018681526020018581526020014281526020013373ffffffffffffffffffffffffffffffffffffffff1681526020016001151581526020018481526020018360ff168152509050600260008a73ffffffffffffffffffffffffffffffffffffffff1673ffffffffffffffffffffffffffffffffffffffff1681526020019081526020016000208190806001815401808255809150506001900390600052602060002090600902016000909190919091506000820151816000019081610cbd9190615102565b506020820151816001019081610cd39190615102565b506040820151816002019081610ce99190615102565b506060820151816003019081610cff9190615102565b506080820151816004019081610d159190615102565b5060a0820151816005015560c08201518160060160006101000a81548173ffffffffffffffffffffffffffffffffffffffff021916908373ffffffffffffffffffffffffffffffffffffffff16021790555060e08201518160060160146101000a81548160ff021916908315150217905550610100820151816007019081610d9d9190615102565b506101208201518160080160006101000a81548160ff021916908360ff16021790555050506001600260008b73ffffffffffffffffffffffffffffffffffffffff1673ffffffffffffffffffffffffffffffffffffffff16815260200190815260200160002080549050610e119190615203565b600389604051610e219190614efa565b9081526020016040518091039020819055503373ffffffffffffffffffffffffffffffffffffffff168973ffffffffffffffffffffffffffffffffffffffff167f77f7fbc747ad443f3ea5f507abbc21d187ecb84679a348cbd91c6fbcfd405c288a4286604051610e9493929190615237565b60405180910390a3505050505050505050565b60008054906101000a900473ffffffffffffffffffffffffffffffffffffffff1673ffffffffffffffffffffffffffffffffffffffff163373ffffffffffffffffffffffffffffffffffffffff1614610f35576040517f08c379a0000000000000000000000000000000000000000000000000000000008152600401610f2c906152e7565b60405180910390fd5b600160008473ffffffffffffffffffffffffffffffffffffffff1673ffffffffffffffffffffffffffffffffffffffff16815260200190815260200160002060020160009054906101000a900460ff1615610fc5576040517f08c379a0000000000000000000000000000000000000000000000000000000008152600401610fbc90615353565b60405180910390fd5b604051806060016040528083815260200182815260200160011515815250600160008573ffffffffffffffffffffffffffffffffffffffff1673ffffffffffffffffffffffffffffffffffffffff16815260200190815260200160002060008201518160000190816110379190615102565b50602082015181600101908161104d9190615102565b5060408201518160020160006101000a81548160ff0219169083151502179055509050508273ffffffffffffffffffffffffffffffffffffffff167f5aad8bc7ad9861b16c6d01a65f54118dfe585a51e408ac2e7b9499148d515c4183836040516110b9929190614b0b565b60405180910390a2505050565b60008054906101000a900473ffffffffffffffffffffffffffffffffffffffff1673ffffffffffffffffffffffffffffffffffffffff163373ffffffffffffffffffffffffffffffffffffffff1614611154576040517f08c379a000000000000000000000000000000000000000000000000000000000815260040161114b906152e7565b60405180910390fd5b80600660006101000a81548173ffffffffffffffffffffffffffffffffffffffff021916908373ffffffffffffffffffffffffffffffffffffffff16021790555050565b60008054906101000a900473ffffffffffffffffffffffffffffffffffffffff1673ffffffffffffffffffffffffffffffffffffffff163373ffffffffffffffffffffffffffffffffffffffff1614611226576040517f08c379a000000000000000000000000000000000000000000000000000000000815260040161121d906152e7565b60405180910390fd5b80600560006101000a81548173ffffffffffffffffffffffffffffffffffffffff021916908373ffffffffffffffffffffffffffffffffffffffff16021790555050565b600160003373ffffffffffffffffffffffffffffffffffffffff1673ffffffffffffffffffffffffffffffffffffffff16815260200190815260200160002060020160009054906101000a900460ff166112f9576040517f08c379a00000000000000000000000000000000000000000000000000000000081526004016112f0906153bf565b60405180910390fd5b6000600460003373ffffffffffffffffffffffffffffffffffffffff1673ffffffffffffffffffffffffffffffffffffffff16815260200190815260200160002060008373ffffffffffffffffffffffffffffffffffffffff1673ffffffffffffffffffffffffffffffffffffffff168152602001908152602001600020819055508073ffffffffffffffffffffffffffffffffffffffff163373ffffffffffffffffffffffffffffffffffffffff167f825c8be24eb0df19500f63e86c29e7d0d951e73056b889b891d85e40938d9b6e60405160405180910390a3600073ffffffffffffffffffffffffffffffffffffffff16600560009054906101000a900473ffffffffffffffffffffffffffffffffffffffff1673ffffffffffffffffffffffffffffffffffffffff16146114b557600560009054906101000a900473ffffffffffffffffffffffffffffffffffffffff1673ffffffffffffffffffffffffffffffffffffffff1663177870c282336040518363ffffffff1660e01b81526004016114889291906153df565b600060405180830381600087803b1580156114a257600080fd5b505af19250505080156114b3575060015b505b600073ffffffffffffffffffffffffffffffffffffffff16600660009054906101000a900473ffffffffffffffffffffffffffffffffffffffff1673ffffffffffffffffffffffffffffffffffffffff161461159557600660009054906101000a900473ffffffffffffffffffffffffffffffffffffffff1673ffffffffffffffffffffffffffffffffffffffff1663177870c282336040518363ffffffff1660e01b81526004016115689291906153df565b600060405180830381600087803b15801561158257600080fd5b505af1925050508015611593575060015b505b600073ffffffffffffffffffffffffffffffffffffffff16600760009054906101000a900473ffffffffffffffffffffffffffffffffffffffff1673ffffffffffffffffffffffffffffffffffffffff161461167557600760009054906101000a900473ffffffffffffffffffffffffffffffffffffffff1673ffffffffffffffffffffffffffffffffffffffff1663177870c282336040518363ffffffff1660e01b81526004016116489291906153df565b600060405180830381600087803b15801561166257600080fd5b505af1925050508015611673575060015b505b50565b6004602052816000526040600020602052806000526040600020600091509150505481565b600260205281600052604060002081815481106116b957600080fd5b9060005260206000209060090201600091509150508060000180546116dd90614e21565b80601f016020809104026020016040519081016040528092919081815260200182805461170990614e21565b80156117565780601f1061172b57610100808354040283529160200191611756565b820191906000526020600020905b81548152906001019060200180831161173957829003601f168201915b50505050509080600101805461176b90614e21565b80601f016020809104026020016040519081016040528092919081815260200182805461179790614e21565b80156117e45780601f106117b9576101008083540402835291602001916117e4565b820191906000526020600020905b8154815290600101906020018083116117c757829003601f168201915b5050505050908060020180546117f990614e21565b80601f016020809104026020016040519081016040528092919081815260200182805461182590614e21565b80156118725780601f1061184757610100808354040283529160200191611872565b820191906000526020600020905b81548152906001019060200180831161185557829003601f168201915b50505050509080600301805461188790614e21565b80601f01602080910402602001604051908101604052809291908181526020018280546118b390614e21565b80156119005780601f106118d557610100808354040283529160200191611900565b820191906000526020600020905b8154815290600101906020018083116118e357829003601f168201915b50505050509080600401805461191590614e21565b80601f016020809104026020016040519081016040528092919081815260200182805461194190614e21565b801561198e5780601f106119635761010080835404028352916020019161198e565b820191906000526020600020905b81548152906001019060200180831161197157829003601f168201915b5050505050908060050154908060060160009054906101000a900473ffffffffffffffffffffffffffffffffffffffff16908060060160149054906101000a900460ff16908060070180546119e290614e21565b80601f0160208091040260200160405190810160405280929190818152602001828054611a0e90614e21565b8015611a5b5780601f10611a3057610100808354040283529160200191611a5b565b820191906000526020600020905b815481529060010190602001808311611a3e57829003601f168201915b5050505050908060080160009054906101000a900460ff1690508a565b600160003373ffffffffffffffffffffffffffffffffffffffff1673ffffffffffffffffffffffffffffffffffffffff16815260200190815260200160002060020160009054906101000a900460ff16611b07576040517f08c379a0000000000000000000000000000000000000000000000000000000008152600401611afe906153bf565b60405180910390fd5b600073ffffffffffffffffffffffffffffffffffffffff168273ffffffffffffffffffffffffffffffffffffffff1603611b76576040517f08c379a0000000000000000000000000000000000000000000000000000000008152600401611b6d90615454565b60405180910390fd5b8042611b829190615474565b600460003373ffffffffffffffffffffffffffffffffffffffff1673ffffffffffffffffffffffffffffffffffffffff16815260200190815260200160002060008473ffffffffffffffffffffffffffffffffffffffff1673ffffffffffffffffffffffffffffffffffffffff168152602001908152602001600020819055508173ffffffffffffffffffffffffffffffffffffffff163373ffffffffffffffffffffffffffffffffffffffff167f65d0cc1e52d49938ca4ad9f423c79c1b84d914b9a683fbc5d3f93ac3cc5635f58342611c5d9190615474565b604051611c6a9190614748565b60405180910390a3600073ffffffffffffffffffffffffffffffffffffffff16600560009054906101000a900473ffffffffffffffffffffffffffffffffffffffff1673ffffffffffffffffffffffffffffffffffffffff1614611d5257600560009054906101000a900473ffffffffffffffffffffffffffffffffffffffff1673ffffffffffffffffffffffffffffffffffffffff16630ff4218883336040518363ffffffff1660e01b8152600401611d259291906153df565b600060405180830381600087803b158015611d3f57600080fd5b505af1925050508015611d50575060015b505b600073ffffffffffffffffffffffffffffffffffffffff16600660009054906101000a900473ffffffffffffffffffffffffffffffffffffffff1673ffffffffffffffffffffffffffffffffffffffff1614611e3257600660009054906101000a900473ffffffffffffffffffffffffffffffffffffffff1673ffffffffffffffffffffffffffffffffffffffff16630ff4218883336040518363ffffffff1660e01b8152600401611e059291906153df565b600060405180830381600087803b158015611e1f57600080fd5b505af1925050508015611e30575060015b505b600073ffffffffffffffffffffffffffffffffffffffff16600760009054906101000a900473ffffffffffffffffffffffffffffffffffffffff1673ffffffffffffffffffffffffffffffffffffffff1614611f1257600760009054906101000a900473ffffffffffffffffffffffffffffffffffffffff1673ffffffffffffffffffffffffffffffffffffffff16630ff4218883336040518363ffffffff1660e01b8152600401611ee59291906153df565b600060405180830381600087803b158015611eff57600080fd5b505af1925050508015611f10575060015b505b6000600860003373ffffffffffffffffffffffffffffffffffffffff1673ffffffffffffffffffffffffffffffffffffffff168152602001908152602001600020905060005b81805490508110156120d5578373ffffffffffffffffffffffffffffffffffffffff16828281548110611f8e57611f8d614d57565b5b9060005260206000200160009054906101000a900473ffffffffffffffffffffffffffffffffffffffff1673ffffffffffffffffffffffffffffffffffffffff16036120c8578160018380549050611fe69190615203565b81548110611ff757611ff6614d57565b5b9060005260206000200160009054906101000a900473ffffffffffffffffffffffffffffffffffffffff1682828154811061203557612034614d57565b5b9060005260206000200160006101000a81548173ffffffffffffffffffffffffffffffffffffffff021916908373ffffffffffffffffffffffffffffffffffffffff1602179055508180548061208e5761208d6154a8565b5b6001900381819060005260206000200160006101000a81549073ffffffffffffffffffffffffffffffffffffffff021916905590556120d5565b8080600101915050611f58565b50505050565b600760009054906101000a900473ffffffffffffffffffffffffffffffffffffffff1681565b6060600160008373ffffffffffffffffffffffffffffffffffffffff1673ffffffffffffffffffffffffffffffffffffffff16815260200190815260200160002060020160009054906101000a900460ff16612192576040517f08c379a000000000000000000000000000000000000000000000000000000000815260040161218990614c5f565b60405180910390fd5b600260008373ffffffffffffffffffffffffffffffffffffffff1673ffffffffffffffffffffffffffffffffffffffff168152602001908152602001600020805480602002602001604051908101604052809291908181526020016000905b8282101561262857838290600052602060002090600902016040518061014001604052908160008201805461222590614e21565b80601f016020809104026020016040519081016040528092919081815260200182805461225190614e21565b801561229e5780601f106122735761010080835404028352916020019161229e565b820191906000526020600020905b81548152906001019060200180831161228157829003601f168201915b505050505081526020016001820180546122b790614e21565b80601f01602080910402602001604051908101604052809291908181526020018280546122e390614e21565b80156123305780601f1061230557610100808354040283529160200191612330565b820191906000526020600020905b81548152906001019060200180831161231357829003601f168201915b5050505050815260200160028201805461234990614e21565b80601f016020809104026020016040519081016040528092919081815260200182805461237590614e21565b80156123c25780601f10612397576101008083540402835291602001916123c2565b820191906000526020600020905b8154815290600101906020018083116123a557829003601f168201915b505050505081526020016003820180546123db90614e21565b80601f016020809104026020016040519081016040528092919081815260200182805461240790614e21565b80156124545780601f1061242957610100808354040283529160200191612454565b820191906000526020600020905b81548152906001019060200180831161243757829003601f168201915b5050505050815260200160048201805461246d90614e21565b80601f016020809104026020016040519081016040528092919081815260200182805461249990614e21565b80156124e65780601f106124bb576101008083540402835291602001916124e6565b820191906000526020600020905b8154815290600101906020018083116124c957829003601f168201915b50505050508152602001600582015481526020016006820160009054906101000a900473ffffffffffffffffffffffffffffffffffffffff1673ffffffffffffffffffffffffffffffffffffffff1673ffffffffffffffffffffffffffffffffffffffff1681526020016006820160149054906101000a900460ff1615151515815260200160078201805461257a90614e21565b80601f01602080910402602001604051908101604052809291908181526020018280546125a690614e21565b80156125f35780601f106125c8576101008083540402835291602001916125f3565b820191906000526020600020905b8154815290600101906020018083116125d657829003601f168201915b505050505081526020016008820160009054906101000a900460ff1660ff1660ff1681525050815260200190600101906121f1565b505050509050919050565b606080600160008473ffffffffffffffffffffffffffffffffffffffff1673ffffffffffffffffffffffffffffffffffffffff16815260200190815260200160002060020160009054906101000a900460ff166126c5576040517f08c379a00000000000000000000000000000000000000000000000000000000081526004016126bc90614c5f565b60405180910390fd5b6000600160008573ffffffffffffffffffffffffffffffffffffffff1673ffffffffffffffffffffffffffffffffffffffff16815260200190815260200160002060405180606001604052908160008201805461272190614e21565b80601f016020809104026020016040519081016040528092919081815260200182805461274d90614e21565b801561279a5780601f1061276f5761010080835404028352916020019161279a565b820191906000526020600020905b81548152906001019060200180831161277d57829003601f168201915b505050505081526020016001820180546127b390614e21565b80601f01602080910402602001604051908101604052809291908181526020018280546127df90614e21565b801561282c5780601f106128015761010080835404028352916020019161282c565b820191906000526020600020905b81548152906001019060200180831161280f57829003601f168201915b505050505081526020016002820160009054906101000a900460ff1615151515815250509050806000015181602001519250925050915091565b6060600160008373ffffffffffffffffffffffffffffffffffffffff1673ffffffffffffffffffffffffffffffffffffffff16815260200190815260200160002060020160009054906101000a900460ff166128f7576040517f08c379a00000000000000000000000000000000000000000000000000000000081526004016128ee90614c5f565b60405180910390fd5b8173ffffffffffffffffffffffffffffffffffffffff163373ffffffffffffffffffffffffffffffffffffffff1614612965576040517f08c379a000000000000000000000000000000000000000000000000000000000815260040161295c90615549565b60405180910390fd5b6000805b600260008573ffffffffffffffffffffffffffffffffffffffff1673ffffffffffffffffffffffffffffffffffffffff16815260200190815260200160002080549050811015612a4457600260008573ffffffffffffffffffffffffffffffffffffffff1673ffffffffffffffffffffffffffffffffffffffff1681526020019081526020016000208181548110612a0457612a03614d57565b5b906000526020600020906009020160060160149054906101000a900460ff1615612a37578180612a3390615569565b9250505b8080600101915050612969565b5060008167ffffffffffffffff811115612a6157612a606143a2565b5b604051908082528060200260200182016040528015612a9a57816020015b612a87614171565b815260200190600190039081612a7f5790505b5090506000805b600260008773ffffffffffffffffffffffffffffffffffffffff1673ffffffffffffffffffffffffffffffffffffffff1681526020019081526020016000208054905081101561300957600260008773ffffffffffffffffffffffffffffffffffffffff1673ffffffffffffffffffffffffffffffffffffffff1681526020019081526020016000208181548110612b3c57612b3b614d57565b5b906000526020600020906009020160060160149054906101000a900460ff1615612ffc57600260008773ffffffffffffffffffffffffffffffffffffffff1673ffffffffffffffffffffffffffffffffffffffff1681526020019081526020016000208181548110612bb157612bb0614d57565b5b906000526020600020906009020160405180610140016040529081600082018054612bdb90614e21565b80601f0160208091040260200160405190810160405280929190818152602001828054612c0790614e21565b8015612c545780601f10612c2957610100808354040283529160200191612c54565b820191906000526020600020905b815481529060010190602001808311612c3757829003601f168201915b50505050508152602001600182018054612c6d90614e21565b80601f0160208091040260200160405190810160405280929190818152602001828054612c9990614e21565b8015612ce65780601f10612cbb57610100808354040283529160200191612ce6565b820191906000526020600020905b815481529060010190602001808311612cc957829003601f168201915b50505050508152602001600282018054612cff90614e21565b80601f0160208091040260200160405190810160405280929190818152602001828054612d2b90614e21565b8015612d785780601f10612d4d57610100808354040283529160200191612d78565b820191906000526020600020905b815481529060010190602001808311612d5b57829003601f168201915b50505050508152602001600382018054612d9190614e21565b80601f0160208091040260200160405190810160405280929190818152602001828054612dbd90614e21565b8015612e0a5780601f10612ddf57610100808354040283529160200191612e0a565b820191906000526020600020905b815481529060010190602001808311612ded57829003601f168201915b50505050508152602001600482018054612e2390614e21565b80601f0160208091040260200160405190810160405280929190818152602001828054612e4f90614e21565b8015612e9c5780601f10612e7157610100808354040283529160200191612e9c565b820191906000526020600020905b815481529060010190602001808311612e7f57829003601f168201915b50505050508152602001600582015481526020016006820160009054906101000a900473ffffffffffffffffffffffffffffffffffffffff1673ffffffffffffffffffffffffffffffffffffffff1673ffffffffffffffffffffffffffffffffffffffff1681526020016006820160149054906101000a900460ff16151515158152602001600782018054612f3090614e21565b80601f0160208091040260200160405190810160405280929190818152602001828054612f5c90614e21565b8015612fa95780601f10612f7e57610100808354040283529160200191612fa9565b820191906000526020600020905b815481529060010190602001808311612f8c57829003601f168201915b505050505081526020016008820160009054906101000a900460ff1660ff1660ff1681525050838381518110612fe257612fe1614d57565b5b60200260200101819052508180612ff890615569565b9250505b8080600101915050612aa1565b50819350505050919050565b606060003373ffffffffffffffffffffffffffffffffffffffff168373ffffffffffffffffffffffffffffffffffffffff16149050600042600460008673ffffffffffffffffffffffffffffffffffffffff1673ffffffffffffffffffffffffffffffffffffffff16815260200190815260200160002060003373ffffffffffffffffffffffffffffffffffffffff1673ffffffffffffffffffffffffffffffffffffffff1681526020019081526020016000205411905081806130d65750805b613115576040517f08c379a000000000000000000000000000000000000000000000000000000000815260040161310c906155fd565b60405180910390fd5b600082156131265760ff9050613132565b61312f33613e42565b90505b6000805b600260008873ffffffffffffffffffffffffffffffffffffffff1673ffffffffffffffffffffffffffffffffffffffff16815260200190815260200160002080549050811015613637576000600260008973ffffffffffffffffffffffffffffffffffffffff1673ffffffffffffffffffffffffffffffffffffffff16815260200190815260200160002082815481106131d3576131d2614d57565b5b9060005260206000209060090201604051806101400160405290816000820180546131fd90614e21565b80601f016020809104026020016040519081016040528092919081815260200182805461322990614e21565b80156132765780601f1061324b57610100808354040283529160200191613276565b820191906000526020600020905b81548152906001019060200180831161325957829003601f168201915b5050505050815260200160018201805461328f90614e21565b80601f01602080910402602001604051908101604052809291908181526020018280546132bb90614e21565b80156133085780601f106132dd57610100808354040283529160200191613308565b820191906000526020600020905b8154815290600101906020018083116132eb57829003601f168201915b5050505050815260200160028201805461332190614e21565b80601f016020809104026020016040519081016040528092919081815260200182805461334d90614e21565b801561339a5780601f1061336f5761010080835404028352916020019161339a565b820191906000526020600020905b81548152906001019060200180831161337d57829003601f168201915b505050505081526020016003820180546133b390614e21565b80601f01602080910402602001604051908101604052809291908181526020018280546133df90614e21565b801561342c5780601f106134015761010080835404028352916020019161342c565b820191906000526020600020905b81548152906001019060200180831161340f57829003601f168201915b5050505050815260200160048201805461344590614e21565b80601f016020809104026020016040519081016040528092919081815260200182805461347190614e21565b80156134be5780601f10613493576101008083540402835291602001916134be565b820191906000526020600020905b8154815290600101906020018083116134a157829003601f168201915b50505050508152602001600582015481526020016006820160009054906101000a900473ffffffffffffffffffffffffffffffffffffffff1673ffffffffffffffffffffffffffffffffffffffff1673ffffffffffffffffffffffffffffffffffffffff1681526020016006820160149054906101000a900460ff1615151515815260200160078201805461355290614e21565b80601f016020809104026020016040519081016040528092919081815260200182805461357e90614e21565b80156135cb5780601f106135a0576101008083540402835291602001916135cb565b820191906000526020600020905b8154815290600101906020018083116135ae57829003601f168201915b505050505081526020016008820160009054906101000a900460ff1660ff1660ff168152505090508060e001511561362957858061361457508360ff1681610120015160ff1611155b1561362857828061362490615569565b9350505b5b508080600101915050613136565b5060008167ffffffffffffffff811115613654576136536143a2565b5b60405190808252806020026020018201604052801561368d57816020015b61367a614171565b8152602001906001900390816136725790505b5090506000805b600260008a73ffffffffffffffffffffffffffffffffffffffff1673ffffffffffffffffffffffffffffffffffffffff16815260200190815260200160002080549050811015613bb4576000600260008b73ffffffffffffffffffffffffffffffffffffffff1673ffffffffffffffffffffffffffffffffffffffff168152602001908152602001600020828154811061373157613730614d57565b5b90600052602060002090600902016040518061014001604052908160008201805461375b90614e21565b80601f016020809104026020016040519081016040528092919081815260200182805461378790614e21565b80156137d45780601f106137a9576101008083540402835291602001916137d4565b820191906000526020600020905b8154815290600101906020018083116137b757829003601f168201915b505050505081526020016001820180546137ed90614e21565b80601f016020809104026020016040519081016040528092919081815260200182805461381990614e21565b80156138665780601f1061383b57610100808354040283529160200191613866565b820191906000526020600020905b81548152906001019060200180831161384957829003601f168201915b5050505050815260200160028201805461387f90614e21565b80601f01602080910402602001604051908101604052809291908181526020018280546138ab90614e21565b80156138f85780601f106138cd576101008083540402835291602001916138f8565b820191906000526020600020905b8154815290600101906020018083116138db57829003601f168201915b5050505050815260200160038201805461391190614e21565b80601f016020809104026020016040519081016040528092919081815260200182805461393d90614e21565b801561398a5780601f1061395f5761010080835404028352916020019161398a565b820191906000526020600020905b81548152906001019060200180831161396d57829003601f168201915b505050505081526020016004820180546139a390614e21565b80601f01602080910402602001604051908101604052809291908181526020018280546139cf90614e21565b8015613a1c5780601f106139f157610100808354040283529160200191613a1c565b820191906000526020600020905b8154815290600101906020018083116139ff57829003601f168201915b50505050508152602001600582015481526020016006820160009054906101000a900473ffffffffffffffffffffffffffffffffffffffff1673ffffffffffffffffffffffffffffffffffffffff1673ffffffffffffffffffffffffffffffffffffffff1681526020016006820160149054906101000a900460ff16151515158152602001600782018054613ab090614e21565b80601f0160208091040260200160405190810160405280929190818152602001828054613adc90614e21565b8015613b295780601f10613afe57610100808354040283529160200191613b29565b820191906000526020600020905b815481529060010190602001808311613b0c57829003601f168201915b505050505081526020016008820160009054906101000a900460ff1660ff1660ff168152505090508060e0015115613ba6578780613b7257508560ff1681610120015160ff1611155b15613ba55780848481518110613b8b57613b8a614d57565b5b60200260200101819052508280613ba190615569565b9350505b5b508080600101915050613694565b50819650505050505050919050565b60008054906101000a900473ffffffffffffffffffffffffffffffffffffffff1673ffffffffffffffffffffffffffffffffffffffff163373ffffffffffffffffffffffffffffffffffffffff1614613c51576040517f08c379a0000000000000000000000000000000000000000000000000000000008152600401613c48906152e7565b60405180910390fd5b80600760006101000a81548173ffffffffffffffffffffffffffffffffffffffff021916908373ffffffffffffffffffffffffffffffffffffffff16021790555050565b60608173ffffffffffffffffffffffffffffffffffffffff163373ffffffffffffffffffffffffffffffffffffffff1614613d05576040517f08c379a0000000000000000000000000000000000000000000000000000000008152600401613cfc90615669565b60405180910390fd5b600860008373ffffffffffffffffffffffffffffffffffffffff1673ffffffffffffffffffffffffffffffffffffffff168152602001908152602001600020805480602002602001604051908101604052809291908181526020018280548015613dc457602002820191906000526020600020905b8160009054906101000a900473ffffffffffffffffffffffffffffffffffffffff1673ffffffffffffffffffffffffffffffffffffffff1681526020019060010190808311613d7a575b50505050509050919050565b60008054906101000a900473ffffffffffffffffffffffffffffffffffffffff1681565b60086020528160005260406000208181548110613e1057600080fd5b906000526020600020016000915091509054906101000a900473ffffffffffffffffffffffffffffffffffffffff1681565b60008073ffffffffffffffffffffffffffffffffffffffff16600560009054906101000a900473ffffffffffffffffffffffffffffffffffffffff1673ffffffffffffffffffffffffffffffffffffffff1614613f4f57600560009054906101000a900473ffffffffffffffffffffffffffffffffffffffff1673ffffffffffffffffffffffffffffffffffffffff16632f04e064836040518263ffffffff1660e01b8152600401613ef4919061437d565b600060405180830381865afa925050508015613f3357506040513d6000823e3d601f19601f82011682018060405250810190613f309190615725565b60015b15613f4e578015613f4a576002935050505061416c565b5050505b5b600073ffffffffffffffffffffffffffffffffffffffff16600660009054906101000a900473ffffffffffffffffffffffffffffffffffffffff1673ffffffffffffffffffffffffffffffffffffffff161461405b57600660009054906101000a900473ffffffffffffffffffffffffffffffffffffffff1673ffffffffffffffffffffffffffffffffffffffff166387e59793836040518263ffffffff1660e01b8152600401614000919061437d565b600060405180830381865afa92505050801561403f57506040513d6000823e3d601f19601f8201168201806040525081019061403c9190615725565b60015b1561405a578015614056576001935050505061416c565b5050505b5b600073ffffffffffffffffffffffffffffffffffffffff16600760009054906101000a900473ffffffffffffffffffffffffffffffffffffffff1673ffffffffffffffffffffffffffffffffffffffff161461416757600760009054906101000a900473ffffffffffffffffffffffffffffffffffffffff1673ffffffffffffffffffffffffffffffffffffffff1663e7eba4c2836040518263ffffffff1660e01b815260040161410c919061437d565b600060405180830381865afa92505050801561414b57506040513d6000823e3d601f19601f820116820180604052508101906141489190615725565b60015b15614166578015614162576000935050505061416c565b5050505b5b600090505b919050565b604051806101400160405280606081526020016060815260200160608152602001606081526020016060815260200160008152602001600073ffffffffffffffffffffffffffffffffffffffff16815260200160001515815260200160608152602001600060ff1681525090565b6000604051905090565b600080fd5b600080fd5b600073ffffffffffffffffffffffffffffffffffffffff82169050919050565b600061421e826141f3565b9050919050565b61422e81614213565b811461423957600080fd5b50565b60008135905061424b81614225565b92915050565b600060208284031215614267576142666141e9565b5b60006142758482850161423c565b91505092915050565b600081519050919050565b600082825260208201905092915050565b60005b838110156142b857808201518184015260208101905061429d565b60008484015250505050565b6000601f19601f8301169050919050565b60006142e08261427e565b6142ea8185614289565b93506142fa81856020860161429a565b614303816142c4565b840191505092915050565b60008115159050919050565b6143238161430e565b82525050565b6000606082019050818103600083015261434381866142d5565b9050818103602083015261435781856142d5565b9050614366604083018461431a565b949350505050565b61437781614213565b82525050565b6000602082019050614392600083018461436e565b92915050565b600080fd5b600080fd5b7f4e487b7100000000000000000000000000000000000000000000000000000000600052604160045260246000fd5b6143da826142c4565b810181811067ffffffffffffffff821117156143f9576143f86143a2565b5b80604052505050565b600061440c6141df565b905061441882826143d1565b919050565b600067ffffffffffffffff821115614438576144376143a2565b5b614441826142c4565b9050602081019050919050565b82818337600083830152505050565b600061447061446b8461441d565b614402565b90508281526020810184848401111561448c5761448b61439d565b5b61449784828561444e565b509392505050565b600082601f8301126144b4576144b3614398565b5b81356144c484826020860161445d565b91505092915050565b600060ff82169050919050565b6144e3816144cd565b81146144ee57600080fd5b50565b600081359050614500816144da565b92915050565b600080600080600080600080610100898b031215614527576145266141e9565b5b60006145358b828c0161423c565b985050602089013567ffffffffffffffff811115614556576145556141ee565b5b6145628b828c0161449f565b975050604089013567ffffffffffffffff811115614583576145826141ee565b5b61458f8b828c0161449f565b965050606089013567ffffffffffffffff8111156145b0576145af6141ee565b5b6145bc8b828c0161449f565b955050608089013567ffffffffffffffff8111156145dd576145dc6141ee565b5b6145e98b828c0161449f565b94505060a089013567ffffffffffffffff81111561460a576146096141ee565b5b6146168b828c0161449f565b93505060c089013567ffffffffffffffff811115614637576146366141ee565b5b6146438b828c0161449f565b92505060e06146548b828c016144f1565b9150509295985092959890939650565b60008060006060848603121561467d5761467c6141e9565b5b600061468b8682870161423c565b935050602084013567ffffffffffffffff8111156146ac576146ab6141ee565b5b6146b88682870161449f565b925050604084013567ffffffffffffffff8111156146d9576146d86141ee565b5b6146e58682870161449f565b9150509250925092565b60008060408385031215614706576147056141e9565b5b60006147148582860161423c565b92505060206147258582860161423c565b9150509250929050565b6000819050919050565b6147428161472f565b82525050565b600060208201905061475d6000830184614739565b92915050565b61476c8161472f565b811461477757600080fd5b50565b60008135905061478981614763565b92915050565b600080604083850312156147a6576147a56141e9565b5b60006147b48582860161423c565b92505060206147c58582860161477a565b9150509250929050565b6147d8816144cd565b82525050565b60006101408201905081810360008301526147f9818d6142d5565b9050818103602083015261480d818c6142d5565b90508181036040830152614821818b6142d5565b90508181036060830152614835818a6142d5565b9050818103608083015261484981896142d5565b905061485860a0830188614739565b61486560c083018761436e565b61487260e083018661431a565b81810361010083015261488581856142d5565b90506148956101208301846147cf565b9b9a5050505050505050505050565b600081519050919050565b600082825260208201905092915050565b6000819050602082019050919050565b600082825260208201905092915050565b60006148ec8261427e565b6148f681856148d0565b935061490681856020860161429a565b61490f816142c4565b840191505092915050565b6149238161472f565b82525050565b61493281614213565b82525050565b6149418161430e565b82525050565b614950816144cd565b82525050565b600061014083016000830151848203600086015261497482826148e1565b9150506020830151848203602086015261498e82826148e1565b915050604083015184820360408601526149a882826148e1565b915050606083015184820360608601526149c282826148e1565b915050608083015184820360808601526149dc82826148e1565b91505060a08301516149f160a086018261491a565b5060c0830151614a0460c0860182614929565b5060e0830151614a1760e0860182614938565b50610100830151848203610100860152614a3182826148e1565b915050610120830151614a48610120860182614947565b508091505092915050565b6000614a5f8383614956565b905092915050565b6000602082019050919050565b6000614a7f826148a4565b614a8981856148af565b935083602082028501614a9b856148c0565b8060005b85811015614ad75784840389528151614ab88582614a53565b9450614ac383614a67565b925060208a01995050600181019050614a9f565b50829750879550505050505092915050565b60006020820190508181036000830152614b038184614a74565b905092915050565b60006040820190508181036000830152614b2581856142d5565b90508181036020830152614b3981846142d5565b90509392505050565b600081519050919050565b600082825260208201905092915050565b6000819050602082019050919050565b6000614b7a8383614929565b60208301905092915050565b6000602082019050919050565b6000614b9e82614b42565b614ba88185614b4d565b9350614bb383614b5e565b8060005b83811015614be4578151614bcb8882614b6e565b9750614bd683614b86565b925050600181019050614bb7565b5085935050505092915050565b60006020820190508181036000830152614c0b8184614b93565b905092915050565b7f50617469656e74206e6f74207265676973746572656400000000000000000000600082015250565b6000614c49601683614289565b9150614c5482614c13565b602082019050919050565b60006020820190508181036000830152614c7881614c3c565b9050919050565b7f43616e6e6f7420726571756573742061636365737320746f2073656c66000000600082015250565b6000614cb5601d83614289565b9150614cc082614c7f565b602082019050919050565b60006020820190508181036000830152614ce481614ca8565b9050919050565b7f416c726561647920686173206163636573730000000000000000000000000000600082015250565b6000614d21601283614289565b9150614d2c82614ceb565b602082019050919050565b60006020820190508181036000830152614d5081614d14565b9050919050565b7f4e487b7100000000000000000000000000000000000000000000000000000000600052603260045260246000fd5b7f5265717565737420616c72656164792070656e64696e67000000000000000000600082015250565b6000614dbc601783614289565b9150614dc782614d86565b602082019050919050565b60006020820190508181036000830152614deb81614daf565b9050919050565b7f4e487b7100000000000000000000000000000000000000000000000000000000600052602260045260246000fd5b60006002820490506001821680614e3957607f821691505b602082108103614e4c57614e4b614df2565b5b50919050565b7f496e76616c69642070726976616379206c6576656c0000000000000000000000600082015250565b6000614e88601583614289565b9150614e9382614e52565b602082019050919050565b60006020820190508181036000830152614eb781614e7b565b9050919050565b600081905092915050565b6000614ed48261427e565b614ede8185614ebe565b9350614eee81856020860161429a565b80840191505092915050565b6000614f068284614ec9565b915081905092915050565b60006060820190508181036000830152614f2b81866142d5565b90508181036020830152614f3f81856142d5565b9050614f4e6040830184614739565b949350505050565b60008190508160005260206000209050919050565b60006020601f8301049050919050565b600082821b905092915050565b600060088302614fb87fffffffffffffffffffffffffffffffffffffffffffffffffffffffffffffffff82614f7b565b614fc28683614f7b565b95508019841693508086168417925050509392505050565b6000819050919050565b6000614fff614ffa614ff58461472f565b614fda565b61472f565b9050919050565b6000819050919050565b61501983614fe4565b61502d61502582615006565b848454614f88565b825550505050565b600090565b615042615035565b61504d818484615010565b505050565b5b818110156150715761506660008261503a565b600181019050615053565b5050565b601f8211156150b65761508781614f56565b61509084614f6b565b8101602085101561509f578190505b6150b36150ab85614f6b565b830182615052565b50505b505050565b600082821c905092915050565b60006150d9600019846008026150bb565b1980831691505092915050565b60006150f283836150c8565b9150826002028217905092915050565b61510b8261427e565b67ffffffffffffffff811115615124576151236143a2565b5b61512e8254614e21565b615139828285615075565b600060209050601f83116001811461516c576000841561515a578287015190505b61516485826150e6565b8655506151cc565b601f19841661517a86614f56565b60005b828110156151a25784890151825560018201915060208501945060208101905061517d565b868310156151bf57848901516151bb601f8916826150c8565b8355505b6001600288020188555050505b505050505050565b7f4e487b7100000000000000000000000000000000000000000000000000000000600052601160045260246000fd5b600061520e8261472f565b91506152198361472f565b9250828203905081811115615231576152306151d4565b5b92915050565b6000606082019050818103600083015261525181866142d5565b90506152606020830185614739565b61526d60408301846147cf565b949350505050565b7f4f6e6c792061646d696e2063616e2063616c6c20746869732066756e6374696f60008201527f6e00000000000000000000000000000000000000000000000000000000000000602082015250565b60006152d1602183614289565b91506152dc82615275565b604082019050919050565b60006020820190508181036000830152615300816152c4565b9050919050565b7f50617469656e7420616c72656164792072656769737465726564000000000000600082015250565b600061533d601a83614289565b915061534882615307565b602082019050919050565b6000602082019050818103600083015261536c81615330565b9050919050565b7f53656e64657220696e76616c6964000000000000000000000000000000000000600082015250565b60006153a9600e83614289565b91506153b482615373565b602082019050919050565b600060208201905081810360008301526153d88161539c565b9050919050565b60006040820190506153f4600083018561436e565b615401602083018461436e565b9392505050565b7f496e76616c696420766965776572206164647265737300000000000000000000600082015250565b600061543e601683614289565b915061544982615408565b602082019050919050565b6000602082019050818103600083015261546d81615431565b9050919050565b600061547f8261472f565b915061548a8361472f565b92508282019050808211156154a2576154a16151d4565b5b92915050565b7f4e487b7100000000000000000000000000000000000000000000000000000000600052603160045260246000fd5b7f41636365737320616c6c6f776564206f6e6c7920666f722070617469656e742060008201527f6f776e6572000000000000000000000000000000000000000000000000000000602082015250565b6000615533602583614289565b915061553e826154d7565b604082019050919050565b6000602082019050818103600083015261556281615526565b9050919050565b60006155748261472f565b91507fffffffffffffffffffffffffffffffffffffffffffffffffffffffffffffffff82036155a6576155a56151d4565b5b600182019050919050565b7f4163636573732064656e69656400000000000000000000000000000000000000600082015250565b60006155e7600d83614289565b91506155f2826155b1565b602082019050919050565b60006020820190508181036000830152615616816155da565b9050919050565b7f4f6e6c792070617469656e742063616e20766965772072657175657374730000600082015250565b6000615653601e83614289565b915061565e8261561d565b602082019050919050565b6000602082019050818103600083015261568281615646565b9050919050565b600061569c6156978461441d565b614402565b9050828152602081018484840111156156b8576156b761439d565b5b6156c384828561429a565b509392505050565b600082601f8301126156e0576156df614398565b5b81516156f0848260208601615689565b91505092915050565b6157028161430e565b811461570d57600080fd5b50565b60008151905061571f816156f9565b92915050565b60008060006060848603121561573e5761573d6141e9565b5b600084015167ffffffffffffffff81111561575c5761575b6141ee565b5b615768868287016156cb565b935050602084015167ffffffffffffffff811115615789576157886141ee565b5b615795868287016156cb565b92505060406157a686828701615710565b915050925092509256fea2646970667358221220f49aa7c60b7982229e7ff9e6b289d1516b06eb2b3b80f9c50d75772b7c81f1b264736f6c63430008180033",
  "linkReferences": {},
  "deployedLinkReferences": {}
}