{
  "_format": "hh-sol-artifact-1",
  "contractName": "PatientManagement",
  "sourceName": "contracts/patientcontract.sol",
  "abi": [
    {
      "inputs": [],
      "stateMutability": "nonpayable",
      "type": "constructor"
    },
    {
      "anonymous": false,
      "inputs": [
        {
          "indexed": true,
          "internalType": "address",
          "name": "patient",
          "type": "address"
        },
        {
          "indexed": true,
          "internalType": "address",
          "name": "viewer",
          "type": "address"
        },
        {
          "indexed": false,
          "internalType": "uint256",
          "name": "expiry",
          "type": "uint256"
        }
      ],
      "name": "AccessGranted",
      "type": "event"
    },
    {
      "anonymous": false,
      "inputs": [
        {
          "indexed": true,
          "internalType": "address",
          "name": "patient",
          "type": "address"
        },
        {
          "indexed": true,
          "internalType": "address",
          "name": "viewer",
          "type": "address"
        }
      ],
      "name": "AccessRequested",
      "type": "event"
    },
    {
      "anonymous": false,
      "inputs": [
        {
          "indexed": true,
          "internalType": "address",
          "name": "patient",
          "type": "address"
        },
        {
          "indexed": true,
          "internalType": "address",
          "name": "viewer",
          "type": "address"
        }
      ],
      "name": "AccessRevoked",
      "type": "event"
    },
    {
      "anonymous": false,
      "inputs": [
        {
          "indexed": true,
          "internalType": "address",
          "name": "patientAddress",
          "type": "address"
        },
        {
          "indexed": true,
          "internalType": "address",
          "name": "doctorAddress",
          "type": "address"
        },
        {
          "indexed": false,
          "internalType": "string",
          "name": "ipfsHash",
          "type": "string"
        },
        {
          "indexed": false,
          "internalType": "uint256",
          "name": "timestamp",
          "type": "uint256"
        }
      ],
      "name": "MedicalRecordAdded",
      "type": "event"
    },
    {
      "anonymous": false,
      "inputs": [
        {
          "indexed": true,
          "internalType": "address",
          "name": "patientAddress",
          "type": "address"
        },
        {
          "indexed": false,
          "internalType": "string",
          "name": "oldIpfsHash",
          "type": "string"
        },
        {
          "indexed": false,
          "internalType": "string",
          "name": "newIpfsHash",
          "type": "string"
        },
        {
          "indexed": false,
          "internalType": "uint256",
          "name": "timestamp",
          "type": "uint256"
        }
      ],
      "name": "MedicalRecordUpdated",
      "type": "event"
    },
    {
      "anonymous": false,
      "inputs": [
        {
          "indexed": true,
          "internalType": "address",
          "name": "patientAddress",
          "type": "address"
        },
        {
          "indexed": false,
          "internalType": "string",
          "name": "username",
          "type": "string"
        },
        {
          "indexed": false,
          "internalType": "string",
          "name": "role",
          "type": "string"
        }
      ],
      "name": "PatientRegistered",
      "type": "event"
    },
    {
      "inputs": [
        {
          "internalType": "address",
          "name": "",
          "type": "address"
        },
        {
          "internalType": "address",
          "name": "",
          "type": "address"
        }
      ],
      "name": "accessExpiry",
      "outputs": [
        {
          "internalType": "uint256",
          "name": "",
          "type": "uint256"
        }
      ],
      "stateMutability": "view",
      "type": "function"
    },
    {
      "inputs": [
        {
          "internalType": "address",
          "name": "_patientAddress",
          "type": "address"
        },
        {
          "internalType": "string",
          "name": "_ipfsHash",
          "type": "string"
        },
        {
          "internalType": "string",
          "name": "_fileType",
          "type": "string"
        },
        {
          "internalType": "string",
          "name": "_fileName",
          "type": "string"
        },
        {
          "internalType": "string",
          "name": "_title",
          "type": "string"
        },
        {
          "internalType": "string",
          "name": "_resume",
          "type": "string"
        },
        {
          "internalType": "string",
          "name": "_previousVersion",
          "type": "string"
        }
      ],
      "name": "addMedicalRecord",
      "outputs": [],
      "stateMutability": "nonpayable",
      "type": "function"
    },
    {
      "inputs": [],
      "name": "admin",
      "outputs": [
        {
          "internalType": "address",
          "name": "",
          "type": "address"
        }
      ],
      "stateMutability": "view",
      "type": "function"
    },
    {
      "inputs": [
        {
          "internalType": "address",
          "name": "_patientAddress",
          "type": "address"
        }
      ],
      "name": "getActiveRecords",
      "outputs": [
        {
          "components": [
            {
              "internalType": "string",
              "name": "ipfsHash",
              "type": "string"
            },
            {
              "internalType": "string",
              "name": "fileType",
              "type": "string"
            },
            {
              "internalType": "string",
              "name": "fileName",
              "type": "string"
            },
            {
              "internalType": "string",
              "name": "title",
              "type": "string"
            },
            {
              "internalType": "string",
              "name": "resume",
              "type": "string"
            },
            {
              "internalType": "uint256",
              "name": "timestamp",
              "type": "uint256"
            },
            {
              "internalType": "address",
              "name": "doctor",
              "type": "address"
            },
            {
              "internalType": "bool",
              "name": "isActive",
              "type": "bool"
            },
            {
              "internalType": "string",
              "name": "previousVersion",
              "type": "string"
            }
          ],
          "internalType": "struct PatientManagement.MedicalRecord[]",
          "name": "",
          "type": "tuple[]"
        }
      ],
      "stateMutability": "view",
      "type": "function"
    },
    {
      "inputs": [
        {
          "internalType": "address",
          "name": "_patientAddress",
          "type": "address"
        }
      ],
      "name": "getMedicalRecords",
      "outputs": [
        {
          "components": [
            {
              "internalType": "string",
              "name": "ipfsHash",
              "type": "string"
            },
            {
              "internalType": "string",
              "name": "fileType",
              "type": "string"
            },
            {
              "internalType": "string",
              "name": "fileName",
              "type": "string"
            },
            {
              "internalType": "string",
              "name": "title",
              "type": "string"
            },
            {
              "internalType": "string",
              "name": "resume",
              "type": "string"
            },
            {
              "internalType": "uint256",
              "name": "timestamp",
              "type": "uint256"
            },
            {
              "internalType": "address",
              "name": "doctor",
              "type": "address"
            },
            {
              "internalType": "bool",
              "name": "isActive",
              "type": "bool"
            },
            {
              "internalType": "string",
              "name": "previousVersion",
              "type": "string"
            }
          ],
          "internalType": "struct PatientManagement.MedicalRecord[]",
          "name": "",
          "type": "tuple[]"
        }
      ],
      "stateMutability": "view",
      "type": "function"
    },
    {
      "inputs": [
        {
          "internalType": "address",
          "name": "_patientAddress",
          "type": "address"
        }
      ],
      "name": "getPatient",
      "outputs": [
        {
          "internalType": "string",
          "name": "username",
          "type": "string"
        },
        {
          "internalType": "string",
          "name": "role",
          "type": "string"
        }
      ],
      "stateMutability": "view",
      "type": "function"
    },
    {
      "inputs": [
        {
          "internalType": "address",
          "name": "_patientAddress",
          "type": "address"
        }
      ],
      "name": "getPatientAccessRequests",
      "outputs": [
        {
          "internalType": "address[]",
          "name": "",
          "type": "address[]"
        }
      ],
      "stateMutability": "view",
      "type": "function"
    },
    {
      "inputs": [
        {
          "internalType": "address",
          "name": "_patientAddress",
          "type": "address"
        }
      ],
      "name": "getSharedRecords",
      "outputs": [
        {
          "components": [
            {
              "internalType": "string",
              "name": "ipfsHash",
              "type": "string"
            },
            {
              "internalType": "string",
              "name": "fileType",
              "type": "string"
            },
            {
              "internalType": "string",
              "name": "fileName",
              "type": "string"
            },
            {
              "internalType": "string",
              "name": "title",
              "type": "string"
            },
            {
              "internalType": "string",
              "name": "resume",
              "type": "string"
            },
            {
              "internalType": "uint256",
              "name": "timestamp",
              "type": "uint256"
            },
            {
              "internalType": "address",
              "name": "doctor",
              "type": "address"
            },
            {
              "internalType": "bool",
              "name": "isActive",
              "type": "bool"
            },
            {
              "internalType": "string",
              "name": "previousVersion",
              "type": "string"
            }
          ],
          "internalType": "struct PatientManagement.MedicalRecord[]",
          "name": "",
          "type": "tuple[]"
        }
      ],
      "stateMutability": "view",
      "type": "function"
    },
    {
      "inputs": [
        {
          "internalType": "address",
          "name": "_viewer",
          "type": "address"
        },
        {
          "internalType": "uint256",
          "name": "_durationSeconds",
          "type": "uint256"
        }
      ],
      "name": "grantAccess",
      "outputs": [],
      "stateMutability": "nonpayable",
      "type": "function"
    },
    {
      "inputs": [
        {
          "internalType": "address",
          "name": "",
          "type": "address"
        },
        {
          "internalType": "uint256",
          "name": "",
          "type": "uint256"
        }
      ],
      "name": "patientAccessRequests",
      "outputs": [
        {
          "internalType": "address",
          "name": "",
          "type": "address"
        }
      ],
      "stateMutability": "view",
      "type": "function"
    },
    {
      "inputs": [
        {
          "internalType": "address",
          "name": "",
          "type": "address"
        },
        {
          "internalType": "uint256",
          "name": "",
          "type": "uint256"
        }
      ],
      "name": "patientRecords",
      "outputs": [
        {
          "internalType": "string",
          "name": "ipfsHash",
          "type": "string"
        },
        {
          "internalType": "string",
          "name": "fileType",
          "type": "string"
        },
        {
          "internalType": "string",
          "name": "fileName",
          "type": "string"
        },
        {
          "internalType": "string",
          "name": "title",
          "type": "string"
        },
        {
          "internalType": "string",
          "name": "resume",
          "type": "string"
        },
        {
          "internalType": "uint256",
          "name": "timestamp",
          "type": "uint256"
        },
        {
          "internalType": "address",
          "name": "doctor",
          "type": "address"
        },
        {
          "internalType": "bool",
          "name": "isActive",
          "type": "bool"
        },
        {
          "internalType": "string",
          "name": "previousVersion",
          "type": "string"
        }
      ],
      "stateMutability": "view",
      "type": "function"
    },
    {
      "inputs": [
        {
          "internalType": "address",
          "name": "",
          "type": "address"
        }
      ],
      "name": "patients",
      "outputs": [
        {
          "internalType": "string",
          "name": "username",
          "type": "string"
        },
        {
          "internalType": "string",
          "name": "role",
          "type": "string"
        },
        {
          "internalType": "bool",
          "name": "isRegistered",
          "type": "bool"
        }
      ],
      "stateMutability": "view",
      "type": "function"
    },
    {
      "inputs": [
        {
          "internalType": "address",
          "name": "_patientAddress",
          "type": "address"
        },
        {
          "internalType": "string",
          "name": "_username",
          "type": "string"
        },
        {
          "internalType": "string",
          "name": "_role",
          "type": "string"
        }
      ],
      "name": "registerPatient",
      "outputs": [],
      "stateMutability": "nonpayable",
      "type": "function"
    },
    {
      "inputs": [
        {
          "internalType": "address",
          "name": "_patientAddress",
          "type": "address"
        }
      ],
      "name": "requestAccess",
      "outputs": [],
      "stateMutability": "nonpayable",
      "type": "function"
    },
    {
      "inputs": [
        {
          "internalType": "address",
          "name": "_viewer",
          "type": "address"
        }
      ],
      "name": "revokeAccess",
      "outputs": [],
      "stateMutability": "nonpayable",
      "type": "function"
    }
  ],
  "bytecode": "0x60806040523480156200001157600080fd5b50336000806101000a81548173ffffffffffffffffffffffffffffffffffffffff021916908373ffffffffffffffffffffffffffffffffffffffff16021790555060405180606001604052806040518060400160405280600581526020017f61646d696e00000000000000000000000000000000000000000000000000000081525081526020016040518060400160405280600581526020017f61646d696e000000000000000000000000000000000000000000000000000000815250815260200160011515815250600160003373ffffffffffffffffffffffffffffffffffffffff1673ffffffffffffffffffffffffffffffffffffffff1681526020019081526020016000206000820151816000019081620001309190620003ec565b506020820151816001019081620001489190620003ec565b5060408201518160020160006101000a81548160ff021916908315150217905550905050620004d3565b600081519050919050565b7f4e487b7100000000000000000000000000000000000000000000000000000000600052604160045260246000fd5b7f4e487b7100000000000000000000000000000000000000000000000000000000600052602260045260246000fd5b60006002820490506001821680620001f457607f821691505b6020821081036200020a5762000209620001ac565b5b50919050565b60008190508160005260206000209050919050565b60006020601f8301049050919050565b600082821b905092915050565b600060088302620002747fffffffffffffffffffffffffffffffffffffffffffffffffffffffffffffffff8262000235565b62000280868362000235565b95508019841693508086168417925050509392505050565b6000819050919050565b6000819050919050565b6000620002cd620002c7620002c18462000298565b620002a2565b62000298565b9050919050565b6000819050919050565b620002e983620002ac565b62000301620002f882620002d4565b84845462000242565b825550505050565b600090565b6200031862000309565b62000325818484620002de565b505050565b5b818110156200034d57620003416000826200030e565b6001810190506200032b565b5050565b601f8211156200039c57620003668162000210565b620003718462000225565b8101602085101562000381578190505b62000399620003908562000225565b8301826200032a565b50505b505050565b600082821c905092915050565b6000620003c160001984600802620003a1565b1980831691505092915050565b6000620003dc8383620003ae565b9150826002028217905092915050565b620003f78262000172565b67ffffffffffffffff8111156200041357620004126200017d565b5b6200041f8254620001db565b6200042c82828562000351565b600060209050601f8311600181146200046457600084156200044f578287015190505b6200045b8582620003ce565b865550620004cb565b601f198416620004748662000210565b60005b828110156200049e5784890151825560018201915060208501945060208101905062000477565b86831015620004be5784890151620004ba601f891682620003ae565b8355505b6001600288020188555050505b505050505050565b613cdd80620004e36000396000f3fe608060405234801561001057600080fd5b50600436106100f55760003560e01c80639df8925611610097578063bcbf718111610066578063bcbf7181146102b1578063eeaaa075146102e1578063f851a44014610311578063fb6be4ec1461032f576100f5565b80639df8925614610204578063afd8297c14610220578063b5368e2014610250578063b717a67c14610281576100f5565b80636bc75e24116100d35780636bc75e241461016457806385e685311461018057806391f205961461019c57806394f0df61146101cc576100f5565b8063022cb271146100fa5780630869cfbc1461011657806337d9179914610148575b600080fd5b610114600480360381019061010f9190612a33565b61035f565b005b610130600480360381019061012b9190612a33565b610783565b60405161013f93929190612b0b565b60405180910390f35b610162600480360381019061015d9190612c85565b6108ca565b005b61017e60048036038101906101799190612d10565b610ae9565b005b61019a60048036038101906101959190612a33565b610f14565b005b6101b660048036038101906101b19190612e5a565b611082565b6040516101c39190612eb3565b60405180910390f35b6101e660048036038101906101e19190612efa565b6110a7565b6040516101fb99989796959493929190612f49565b60405180910390f35b61021e60048036038101906102199190612efa565b61146f565b005b61023a60048036038101906102359190612a33565b611832565b6040516102479190613221565b60405180910390f35b61026a60048036038101906102659190612a33565b611d47565b604051610278929190613243565b60405180910390f35b61029b60048036038101906102969190612a33565b611f7a565b6040516102a89190613221565b60405180910390f35b6102cb60048036038101906102c69190612a33565b61269e565b6040516102d89190613221565b60405180910390f35b6102fb60048036038101906102f69190612a33565b6127b0565b6040516103089190613329565b60405180910390f35b6103196128eb565b604051610326919061334b565b60405180910390f35b61034960048036038101906103449190612efa565b61290f565b604051610356919061334b565b60405180910390f35b600160008273ffffffffffffffffffffffffffffffffffffffff1673ffffffffffffffffffffffffffffffffffffffff16815260200190815260200160002060020160009054906101000a900460ff166103ee576040517f08c379a00000000000000000000000000000000000000000000000000000000081526004016103e5906133b2565b60405180910390fd5b3373ffffffffffffffffffffffffffffffffffffffff168173ffffffffffffffffffffffffffffffffffffffff160361045c576040517f08c379a00000000000000000000000000000000000000000000000000000000081526004016104539061341e565b60405180910390fd5b42600460008373ffffffffffffffffffffffffffffffffffffffff1673ffffffffffffffffffffffffffffffffffffffff16815260200190815260200160002060003373ffffffffffffffffffffffffffffffffffffffff1673ffffffffffffffffffffffffffffffffffffffff16815260200190815260200160002054111561051b576040517f08c379a00000000000000000000000000000000000000000000000000000000081526004016105129061348a565b60405180910390fd5b6000600560008373ffffffffffffffffffffffffffffffffffffffff1673ffffffffffffffffffffffffffffffffffffffff1681526020019081526020016000208054806020026020016040519081016040528092919081815260200182805480156105dc57602002820191906000526020600020905b8160009054906101000a900473ffffffffffffffffffffffffffffffffffffffff1673ffffffffffffffffffffffffffffffffffffffff1681526020019060010190808311610592575b5050505050905060005b8151811015610684573373ffffffffffffffffffffffffffffffffffffffff16828281518110610619576106186134aa565b5b602002602001015173ffffffffffffffffffffffffffffffffffffffff1603610677576040517f08c379a000000000000000000000000000000000000000000000000000000000815260040161066e90613525565b60405180910390fd5b80806001019150506105e6565b50600560008373ffffffffffffffffffffffffffffffffffffffff1673ffffffffffffffffffffffffffffffffffffffff168152602001908152602001600020339080600181540180825580915050600190039060005260206000200160009091909190916101000a81548173ffffffffffffffffffffffffffffffffffffffff021916908373ffffffffffffffffffffffffffffffffffffffff1602179055503373ffffffffffffffffffffffffffffffffffffffff168273ffffffffffffffffffffffffffffffffffffffff167f40c7749b16fdfb0d550f20273a7767875059d647af94f5a9610c63ad73dcc79f60405160405180910390a35050565b60016020528060005260406000206000915090508060000180546107a690613574565b80601f01602080910402602001604051908101604052809291908181526020018280546107d290613574565b801561081f5780601f106107f45761010080835404028352916020019161081f565b820191906000526020600020905b81548152906001019060200180831161080257829003601f168201915b50505050509080600101805461083490613574565b80601f016020809104026020016040519081016040528092919081815260200182805461086090613574565b80156108ad5780601f10610882576101008083540402835291602001916108ad565b820191906000526020600020905b81548152906001019060200180831161089057829003601f168201915b5050505050908060020160009054906101000a900460ff16905083565b60008054906101000a900473ffffffffffffffffffffffffffffffffffffffff1673ffffffffffffffffffffffffffffffffffffffff163373ffffffffffffffffffffffffffffffffffffffff1614610958576040517f08c379a000000000000000000000000000000000000000000000000000000000815260040161094f90613617565b60405180910390fd5b600160008473ffffffffffffffffffffffffffffffffffffffff1673ffffffffffffffffffffffffffffffffffffffff16815260200190815260200160002060020160009054906101000a900460ff16156109e8576040517f08c379a00000000000000000000000000000000000000000000000000000000081526004016109df90613683565b60405180910390fd5b604051806060016040528083815260200182815260200160011515815250600160008573ffffffffffffffffffffffffffffffffffffffff1673ffffffffffffffffffffffffffffffffffffffff1681526020019081526020016000206000820151816000019081610a5a919061384f565b506020820151816001019081610a70919061384f565b5060408201518160020160006101000a81548160ff0219169083151502179055509050508273ffffffffffffffffffffffffffffffffffffffff167f5aad8bc7ad9861b16c6d01a65f54118dfe585a51e408ac2e7b9499148d515c418383604051610adc929190613243565b60405180910390a2505050565b600160008873ffffffffffffffffffffffffffffffffffffffff1673ffffffffffffffffffffffffffffffffffffffff16815260200190815260200160002060020160009054906101000a900460ff16610b78576040517f08c379a0000000000000000000000000000000000000000000000000000000008152600401610b6f906133b2565b60405180910390fd5b600081511115610c74576000600382604051610b94919061395d565b90815260200160405180910390205490506000600260008a73ffffffffffffffffffffffffffffffffffffffff1673ffffffffffffffffffffffffffffffffffffffff1681526020019081526020016000208281548110610bf857610bf76134aa565b5b906000526020600020906008020160060160146101000a81548160ff0219169083151502179055508773ffffffffffffffffffffffffffffffffffffffff167f265a47e189bdaf1e4e75ca93474dba2ad21591bb54b62e3b8633029a440dcbf6838942604051610c6a93929190613974565b60405180910390a2505b60006040518061012001604052808881526020018781526020018681526020018581526020018481526020014281526020013373ffffffffffffffffffffffffffffffffffffffff168152602001600115158152602001838152509050600260008973ffffffffffffffffffffffffffffffffffffffff1673ffffffffffffffffffffffffffffffffffffffff1681526020019081526020016000208190806001815401808255809150506001900390600052602060002090600802016000909190919091506000820151816000019081610d4f919061384f565b506020820151816001019081610d65919061384f565b506040820151816002019081610d7b919061384f565b506060820151816003019081610d91919061384f565b506080820151816004019081610da7919061384f565b5060a0820151816005015560c08201518160060160006101000a81548173ffffffffffffffffffffffffffffffffffffffff021916908373ffffffffffffffffffffffffffffffffffffffff16021790555060e08201518160060160146101000a81548160ff021916908315150217905550610100820151816007019081610e2f919061384f565b5050506001600260008a73ffffffffffffffffffffffffffffffffffffffff1673ffffffffffffffffffffffffffffffffffffffff16815260200190815260200160002080549050610e8191906139e8565b600388604051610e91919061395d565b9081526020016040518091039020819055503373ffffffffffffffffffffffffffffffffffffffff168873ffffffffffffffffffffffffffffffffffffffff167f3b557cf6e59b06b2be083cba1999cdbf37ecfe98219c0ca02b7a608470419fd18942604051610f02929190613a1c565b60405180910390a35050505050505050565b600160003373ffffffffffffffffffffffffffffffffffffffff1673ffffffffffffffffffffffffffffffffffffffff16815260200190815260200160002060020160009054906101000a900460ff16610fa3576040517f08c379a0000000000000000000000000000000000000000000000000000000008152600401610f9a90613a98565b60405180910390fd5b6000600460003373ffffffffffffffffffffffffffffffffffffffff1673ffffffffffffffffffffffffffffffffffffffff16815260200190815260200160002060008373ffffffffffffffffffffffffffffffffffffffff1673ffffffffffffffffffffffffffffffffffffffff168152602001908152602001600020819055508073ffffffffffffffffffffffffffffffffffffffff163373ffffffffffffffffffffffffffffffffffffffff167f825c8be24eb0df19500f63e86c29e7d0d951e73056b889b891d85e40938d9b6e60405160405180910390a350565b6004602052816000526040600020602052806000526040600020600091509150505481565b600260205281600052604060002081815481106110c357600080fd5b9060005260206000209060080201600091509150508060000180546110e790613574565b80601f016020809104026020016040519081016040528092919081815260200182805461111390613574565b80156111605780601f1061113557610100808354040283529160200191611160565b820191906000526020600020905b81548152906001019060200180831161114357829003601f168201915b50505050509080600101805461117590613574565b80601f01602080910402602001604051908101604052809291908181526020018280546111a190613574565b80156111ee5780601f106111c3576101008083540402835291602001916111ee565b820191906000526020600020905b8154815290600101906020018083116111d157829003601f168201915b50505050509080600201805461120390613574565b80601f016020809104026020016040519081016040528092919081815260200182805461122f90613574565b801561127c5780601f106112515761010080835404028352916020019161127c565b820191906000526020600020905b81548152906001019060200180831161125f57829003601f168201915b50505050509080600301805461129190613574565b80601f01602080910402602001604051908101604052809291908181526020018280546112bd90613574565b801561130a5780601f106112df5761010080835404028352916020019161130a565b820191906000526020600020905b8154815290600101906020018083116112ed57829003601f168201915b50505050509080600401805461131f90613574565b80601f016020809104026020016040519081016040528092919081815260200182805461134b90613574565b80156113985780601f1061136d57610100808354040283529160200191611398565b820191906000526020600020905b81548152906001019060200180831161137b57829003601f168201915b5050505050908060050154908060060160009054906101000a900473ffffffffffffffffffffffffffffffffffffffff16908060060160149054906101000a900460ff16908060070180546113ec90613574565b80601f016020809104026020016040519081016040528092919081815260200182805461141890613574565b80156114655780601f1061143a57610100808354040283529160200191611465565b820191906000526020600020905b81548152906001019060200180831161144857829003601f168201915b5050505050905089565b600160003373ffffffffffffffffffffffffffffffffffffffff1673ffffffffffffffffffffffffffffffffffffffff16815260200190815260200160002060020160009054906101000a900460ff166114fe576040517f08c379a00000000000000000000000000000000000000000000000000000000081526004016114f590613a98565b60405180910390fd5b600073ffffffffffffffffffffffffffffffffffffffff168273ffffffffffffffffffffffffffffffffffffffff160361156d576040517f08c379a000000000000000000000000000000000000000000000000000000000815260040161156490613b04565b60405180910390fd5b80426115799190613b24565b600460003373ffffffffffffffffffffffffffffffffffffffff1673ffffffffffffffffffffffffffffffffffffffff16815260200190815260200160002060008473ffffffffffffffffffffffffffffffffffffffff1673ffffffffffffffffffffffffffffffffffffffff168152602001908152602001600020819055508173ffffffffffffffffffffffffffffffffffffffff163373ffffffffffffffffffffffffffffffffffffffff167f65d0cc1e52d49938ca4ad9f423c79c1b84d914b9a683fbc5d3f93ac3cc5635f583426116549190613b24565b6040516116619190612eb3565b60405180910390a36000600560003373ffffffffffffffffffffffffffffffffffffffff1673ffffffffffffffffffffffffffffffffffffffff168152602001908152602001600020905060005b818054905081101561182c578373ffffffffffffffffffffffffffffffffffffffff168282815481106116e5576116e46134aa565b5b9060005260206000200160009054906101000a900473ffffffffffffffffffffffffffffffffffffffff1673ffffffffffffffffffffffffffffffffffffffff160361181f57816001838054905061173d91906139e8565b8154811061174e5761174d6134aa565b5b9060005260206000200160009054906101000a900473ffffffffffffffffffffffffffffffffffffffff1682828154811061178c5761178b6134aa565b5b9060005260206000200160006101000a81548173ffffffffffffffffffffffffffffffffffffffff021916908373ffffffffffffffffffffffffffffffffffffffff160217905550818054806117e5576117e4613b58565b5b6001900381819060005260206000200160006101000a81549073ffffffffffffffffffffffffffffffffffffffff0219169055905561182c565b80806001019150506116af565b50505050565b6060600160008373ffffffffffffffffffffffffffffffffffffffff1673ffffffffffffffffffffffffffffffffffffffff16815260200190815260200160002060020160009054906101000a900460ff166118c3576040517f08c379a00000000000000000000000000000000000000000000000000000000081526004016118ba906133b2565b60405180910390fd5b600260008373ffffffffffffffffffffffffffffffffffffffff1673ffffffffffffffffffffffffffffffffffffffff168152602001908152602001600020805480602002602001604051908101604052809291908181526020016000905b82821015611d3c57838290600052602060002090600802016040518061012001604052908160008201805461195690613574565b80601f016020809104026020016040519081016040528092919081815260200182805461198290613574565b80156119cf5780601f106119a4576101008083540402835291602001916119cf565b820191906000526020600020905b8154815290600101906020018083116119b257829003601f168201915b505050505081526020016001820180546119e890613574565b80601f0160208091040260200160405190810160405280929190818152602001828054611a1490613574565b8015611a615780601f10611a3657610100808354040283529160200191611a61565b820191906000526020600020905b815481529060010190602001808311611a4457829003601f168201915b50505050508152602001600282018054611a7a90613574565b80601f0160208091040260200160405190810160405280929190818152602001828054611aa690613574565b8015611af35780601f10611ac857610100808354040283529160200191611af3565b820191906000526020600020905b815481529060010190602001808311611ad657829003601f168201915b50505050508152602001600382018054611b0c90613574565b80601f0160208091040260200160405190810160405280929190818152602001828054611b3890613574565b8015611b855780601f10611b5a57610100808354040283529160200191611b85565b820191906000526020600020905b815481529060010190602001808311611b6857829003601f168201915b50505050508152602001600482018054611b9e90613574565b80601f0160208091040260200160405190810160405280929190818152602001828054611bca90613574565b8015611c175780601f10611bec57610100808354040283529160200191611c17565b820191906000526020600020905b815481529060010190602001808311611bfa57829003601f168201915b50505050508152602001600582015481526020016006820160009054906101000a900473ffffffffffffffffffffffffffffffffffffffff1673ffffffffffffffffffffffffffffffffffffffff1673ffffffffffffffffffffffffffffffffffffffff1681526020016006820160149054906101000a900460ff16151515158152602001600782018054611cab90613574565b80601f0160208091040260200160405190810160405280929190818152602001828054611cd790613574565b8015611d245780601f10611cf957610100808354040283529160200191611d24565b820191906000526020600020905b815481529060010190602001808311611d0757829003601f168201915b50505050508152505081526020019060010190611922565b505050509050919050565b606080600160008473ffffffffffffffffffffffffffffffffffffffff1673ffffffffffffffffffffffffffffffffffffffff16815260200190815260200160002060020160009054906101000a900460ff16611dd9576040517f08c379a0000000000000000000000000000000000000000000000000000000008152600401611dd0906133b2565b60405180910390fd5b6000600160008573ffffffffffffffffffffffffffffffffffffffff1673ffffffffffffffffffffffffffffffffffffffff168152602001908152602001600020604051806060016040529081600082018054611e3590613574565b80601f0160208091040260200160405190810160405280929190818152602001828054611e6190613574565b8015611eae5780601f10611e8357610100808354040283529160200191611eae565b820191906000526020600020905b815481529060010190602001808311611e9157829003601f168201915b50505050508152602001600182018054611ec790613574565b80601f0160208091040260200160405190810160405280929190818152602001828054611ef390613574565b8015611f405780601f10611f1557610100808354040283529160200191611f40565b820191906000526020600020905b815481529060010190602001808311611f2357829003601f168201915b505050505081526020016002820160009054906101000a900460ff1615151515815250509050806000015181602001519250925050915091565b6060600160008373ffffffffffffffffffffffffffffffffffffffff1673ffffffffffffffffffffffffffffffffffffffff16815260200190815260200160002060020160009054906101000a900460ff1661200b576040517f08c379a0000000000000000000000000000000000000000000000000000000008152600401612002906133b2565b60405180910390fd5b6000805b600260008573ffffffffffffffffffffffffffffffffffffffff1673ffffffffffffffffffffffffffffffffffffffff168152602001908152602001600020805490508110156120ea57600260008573ffffffffffffffffffffffffffffffffffffffff1673ffffffffffffffffffffffffffffffffffffffff16815260200190815260200160002081815481106120aa576120a96134aa565b5b906000526020600020906008020160060160149054906101000a900460ff16156120dd5781806120d990613b87565b9250505b808060010191505061200f565b5060008167ffffffffffffffff81111561210757612106612b5a565b5b60405190808252806020026020018201604052801561214057816020015b61212d61295d565b8152602001906001900390816121255790505b5090506000805b600260008773ffffffffffffffffffffffffffffffffffffffff1673ffffffffffffffffffffffffffffffffffffffff1681526020019081526020016000208054905081101561269257600260008773ffffffffffffffffffffffffffffffffffffffff1673ffffffffffffffffffffffffffffffffffffffff16815260200190815260200160002081815481106121e2576121e16134aa565b5b906000526020600020906008020160060160149054906101000a900460ff161561268557600260008773ffffffffffffffffffffffffffffffffffffffff1673ffffffffffffffffffffffffffffffffffffffff1681526020019081526020016000208181548110612257576122566134aa565b5b90600052602060002090600802016040518061012001604052908160008201805461228190613574565b80601f01602080910402602001604051908101604052809291908181526020018280546122ad90613574565b80156122fa5780601f106122cf576101008083540402835291602001916122fa565b820191906000526020600020905b8154815290600101906020018083116122dd57829003601f168201915b5050505050815260200160018201805461231390613574565b80601f016020809104026020016040519081016040528092919081815260200182805461233f90613574565b801561238c5780601f106123615761010080835404028352916020019161238c565b820191906000526020600020905b81548152906001019060200180831161236f57829003601f168201915b505050505081526020016002820180546123a590613574565b80601f01602080910402602001604051908101604052809291908181526020018280546123d190613574565b801561241e5780601f106123f35761010080835404028352916020019161241e565b820191906000526020600020905b81548152906001019060200180831161240157829003601f168201915b5050505050815260200160038201805461243790613574565b80601f016020809104026020016040519081016040528092919081815260200182805461246390613574565b80156124b05780601f10612485576101008083540402835291602001916124b0565b820191906000526020600020905b81548152906001019060200180831161249357829003601f168201915b505050505081526020016004820180546124c990613574565b80601f01602080910402602001604051908101604052809291908181526020018280546124f590613574565b80156125425780601f1061251757610100808354040283529160200191612542565b820191906000526020600020905b81548152906001019060200180831161252557829003601f168201915b50505050508152602001600582015481526020016006820160009054906101000a900473ffffffffffffffffffffffffffffffffffffffff1673ffffffffffffffffffffffffffffffffffffffff1673ffffffffffffffffffffffffffffffffffffffff1681526020016006820160149054906101000a900460ff161515151581526020016007820180546125d690613574565b80601f016020809104026020016040519081016040528092919081815260200182805461260290613574565b801561264f5780601f106126245761010080835404028352916020019161264f565b820191906000526020600020905b81548152906001019060200180831161263257829003601f168201915b50505050508152505083838151811061266b5761266a6134aa565b5b6020026020010181905250818061268190613b87565b9250505b8080600101915050612147565b50819350505050919050565b606060003373ffffffffffffffffffffffffffffffffffffffff168373ffffffffffffffffffffffffffffffffffffffff16149050600042600460008673ffffffffffffffffffffffffffffffffffffffff1673ffffffffffffffffffffffffffffffffffffffff16815260200190815260200160002060003373ffffffffffffffffffffffffffffffffffffffff1673ffffffffffffffffffffffffffffffffffffffff16815260200190815260200160002054119050818061275f5750805b61279e576040517f08c379a000000000000000000000000000000000000000000000000000000000815260040161279590613c1b565b60405180910390fd5b6127a784611f7a565b92505050919050565b60608173ffffffffffffffffffffffffffffffffffffffff163373ffffffffffffffffffffffffffffffffffffffff1614612820576040517f08c379a000000000000000000000000000000000000000000000000000000000815260040161281790613c87565b60405180910390fd5b600560008373ffffffffffffffffffffffffffffffffffffffff1673ffffffffffffffffffffffffffffffffffffffff1681526020019081526020016000208054806020026020016040519081016040528092919081815260200182805480156128df57602002820191906000526020600020905b8160009054906101000a900473ffffffffffffffffffffffffffffffffffffffff1673ffffffffffffffffffffffffffffffffffffffff1681526020019060010190808311612895575b50505050509050919050565b60008054906101000a900473ffffffffffffffffffffffffffffffffffffffff1681565b6005602052816000526040600020818154811061292b57600080fd5b906000526020600020016000915091509054906101000a900473ffffffffffffffffffffffffffffffffffffffff1681565b604051806101200160405280606081526020016060815260200160608152602001606081526020016060815260200160008152602001600073ffffffffffffffffffffffffffffffffffffffff168152602001600015158152602001606081525090565b6000604051905090565b600080fd5b600080fd5b600073ffffffffffffffffffffffffffffffffffffffff82169050919050565b6000612a00826129d5565b9050919050565b612a10816129f5565b8114612a1b57600080fd5b50565b600081359050612a2d81612a07565b92915050565b600060208284031215612a4957612a486129cb565b5b6000612a5784828501612a1e565b91505092915050565b600081519050919050565b600082825260208201905092915050565b60005b83811015612a9a578082015181840152602081019050612a7f565b60008484015250505050565b6000601f19601f8301169050919050565b6000612ac282612a60565b612acc8185612a6b565b9350612adc818560208601612a7c565b612ae581612aa6565b840191505092915050565b60008115159050919050565b612b0581612af0565b82525050565b60006060820190508181036000830152612b258186612ab7565b90508181036020830152612b398185612ab7565b9050612b486040830184612afc565b949350505050565b600080fd5b600080fd5b7f4e487b7100000000000000000000000000000000000000000000000000000000600052604160045260246000fd5b612b9282612aa6565b810181811067ffffffffffffffff82111715612bb157612bb0612b5a565b5b80604052505050565b6000612bc46129c1565b9050612bd08282612b89565b919050565b600067ffffffffffffffff821115612bf057612bef612b5a565b5b612bf982612aa6565b9050602081019050919050565b82818337600083830152505050565b6000612c28612c2384612bd5565b612bba565b905082815260208101848484011115612c4457612c43612b55565b5b612c4f848285612c06565b509392505050565b600082601f830112612c6c57612c6b612b50565b5b8135612c7c848260208601612c15565b91505092915050565b600080600060608486031215612c9e57612c9d6129cb565b5b6000612cac86828701612a1e565b935050602084013567ffffffffffffffff811115612ccd57612ccc6129d0565b5b612cd986828701612c57565b925050604084013567ffffffffffffffff811115612cfa57612cf96129d0565b5b612d0686828701612c57565b9150509250925092565b600080600080600080600060e0888a031215612d2f57612d2e6129cb565b5b6000612d3d8a828b01612a1e565b975050602088013567ffffffffffffffff811115612d5e57612d5d6129d0565b5b612d6a8a828b01612c57565b965050604088013567ffffffffffffffff811115612d8b57612d8a6129d0565b5b612d978a828b01612c57565b955050606088013567ffffffffffffffff811115612db857612db76129d0565b5b612dc48a828b01612c57565b945050608088013567ffffffffffffffff811115612de557612de46129d0565b5b612df18a828b01612c57565b93505060a088013567ffffffffffffffff811115612e1257612e116129d0565b5b612e1e8a828b01612c57565b92505060c088013567ffffffffffffffff811115612e3f57612e3e6129d0565b5b612e4b8a828b01612c57565b91505092959891949750929550565b60008060408385031215612e7157612e706129cb565b5b6000612e7f85828601612a1e565b9250506020612e9085828601612a1e565b9150509250929050565b6000819050919050565b612ead81612e9a565b82525050565b6000602082019050612ec86000830184612ea4565b92915050565b612ed781612e9a565b8114612ee257600080fd5b50565b600081359050612ef481612ece565b92915050565b60008060408385031215612f1157612f106129cb565b5b6000612f1f85828601612a1e565b9250506020612f3085828601612ee5565b9150509250929050565b612f43816129f5565b82525050565b6000610120820190508181036000830152612f64818c612ab7565b90508181036020830152612f78818b612ab7565b90508181036040830152612f8c818a612ab7565b90508181036060830152612fa08189612ab7565b90508181036080830152612fb48188612ab7565b9050612fc360a0830187612ea4565b612fd060c0830186612f3a565b612fdd60e0830185612afc565b818103610100830152612ff08184612ab7565b90509a9950505050505050505050565b600081519050919050565b600082825260208201905092915050565b6000819050602082019050919050565b600082825260208201905092915050565b600061304882612a60565b613052818561302c565b9350613062818560208601612a7c565b61306b81612aa6565b840191505092915050565b61307f81612e9a565b82525050565b61308e816129f5565b82525050565b61309d81612af0565b82525050565b60006101208301600083015184820360008601526130c1828261303d565b915050602083015184820360208601526130db828261303d565b915050604083015184820360408601526130f5828261303d565b9150506060830151848203606086015261310f828261303d565b91505060808301518482036080860152613129828261303d565b91505060a083015161313e60a0860182613076565b5060c083015161315160c0860182613085565b5060e083015161316460e0860182613094565b5061010083015184820361010086015261317e828261303d565b9150508091505092915050565b600061319783836130a3565b905092915050565b6000602082019050919050565b60006131b782613000565b6131c1818561300b565b9350836020820285016131d38561301c565b8060005b8581101561320f57848403895281516131f0858261318b565b94506131fb8361319f565b925060208a019950506001810190506131d7565b50829750879550505050505092915050565b6000602082019050818103600083015261323b81846131ac565b905092915050565b6000604082019050818103600083015261325d8185612ab7565b905081810360208301526132718184612ab7565b90509392505050565b600081519050919050565b600082825260208201905092915050565b6000819050602082019050919050565b60006132b28383613085565b60208301905092915050565b6000602082019050919050565b60006132d68261327a565b6132e08185613285565b93506132eb83613296565b8060005b8381101561331c57815161330388826132a6565b975061330e836132be565b9250506001810190506132ef565b5085935050505092915050565b6000602082019050818103600083015261334381846132cb565b905092915050565b60006020820190506133606000830184612f3a565b92915050565b7f50617469656e74206e6f74207265676973746572656400000000000000000000600082015250565b600061339c601683612a6b565b91506133a782613366565b602082019050919050565b600060208201905081810360008301526133cb8161338f565b9050919050565b7f43616e6e6f7420726571756573742061636365737320746f2073656c66000000600082015250565b6000613408601d83612a6b565b9150613413826133d2565b602082019050919050565b60006020820190508181036000830152613437816133fb565b9050919050565b7f416c726561647920686173206163636573730000000000000000000000000000600082015250565b6000613474601283612a6b565b915061347f8261343e565b602082019050919050565b600060208201905081810360008301526134a381613467565b9050919050565b7f4e487b7100000000000000000000000000000000000000000000000000000000600052603260045260246000fd5b7f5265717565737420616c72656164792070656e64696e67000000000000000000600082015250565b600061350f601783612a6b565b915061351a826134d9565b602082019050919050565b6000602082019050818103600083015261353e81613502565b9050919050565b7f4e487b7100000000000000000000000000000000000000000000000000000000600052602260045260246000fd5b6000600282049050600182168061358c57607f821691505b60208210810361359f5761359e613545565b5b50919050565b7f4f6e6c792061646d696e2063616e2063616c6c20746869732066756e6374696f60008201527f6e00000000000000000000000000000000000000000000000000000000000000602082015250565b6000613601602183612a6b565b915061360c826135a5565b604082019050919050565b60006020820190508181036000830152613630816135f4565b9050919050565b7f50617469656e7420616c72656164792072656769737465726564000000000000600082015250565b600061366d601a83612a6b565b915061367882613637565b602082019050919050565b6000602082019050818103600083015261369c81613660565b9050919050565b60008190508160005260206000209050919050565b60006020601f8301049050919050565b600082821b905092915050565b6000600883026137057fffffffffffffffffffffffffffffffffffffffffffffffffffffffffffffffff826136c8565b61370f86836136c8565b95508019841693508086168417925050509392505050565b6000819050919050565b600061374c61374761374284612e9a565b613727565b612e9a565b9050919050565b6000819050919050565b61376683613731565b61377a61377282613753565b8484546136d5565b825550505050565b600090565b61378f613782565b61379a81848461375d565b505050565b5b818110156137be576137b3600082613787565b6001810190506137a0565b5050565b601f821115613803576137d4816136a3565b6137dd846136b8565b810160208510156137ec578190505b6138006137f8856136b8565b83018261379f565b50505b505050565b600082821c905092915050565b600061382660001984600802613808565b1980831691505092915050565b600061383f8383613815565b9150826002028217905092915050565b61385882612a60565b67ffffffffffffffff81111561387157613870612b5a565b5b61387b8254613574565b6138868282856137c2565b600060209050601f8311600181146138b957600084156138a7578287015190505b6138b18582613833565b865550613919565b601f1984166138c7866136a3565b60005b828110156138ef578489015182556001820191506020850194506020810190506138ca565b8683101561390c5784890151613908601f891682613815565b8355505b6001600288020188555050505b505050505050565b600081905092915050565b600061393782612a60565b6139418185613921565b9350613951818560208601612a7c565b80840191505092915050565b6000613969828461392c565b915081905092915050565b6000606082019050818103600083015261398e8186612ab7565b905081810360208301526139a28185612ab7565b90506139b16040830184612ea4565b949350505050565b7f4e487b7100000000000000000000000000000000000000000000000000000000600052601160045260246000fd5b60006139f382612e9a565b91506139fe83612e9a565b9250828203905081811115613a1657613a156139b9565b5b92915050565b60006040820190508181036000830152613a368185612ab7565b9050613a456020830184612ea4565b9392505050565b7f53656e64657220696e76616c6964000000000000000000000000000000000000600082015250565b6000613a82600e83612a6b565b9150613a8d82613a4c565b602082019050919050565b60006020820190508181036000830152613ab181613a75565b9050919050565b7f496e76616c696420766965776572206164647265737300000000000000000000600082015250565b6000613aee601683612a6b565b9150613af982613ab8565b602082019050919050565b60006020820190508181036000830152613b1d81613ae1565b9050919050565b6000613b2f82612e9a565b9150613b3a83612e9a565b9250828201905080821115613b5257613b516139b9565b5b92915050565b7f4e487b7100000000000000000000000000000000000000000000000000000000600052603160045260246000fd5b6000613b9282612e9a565b91507fffffffffffffffffffffffffffffffffffffffffffffffffffffffffffffffff8203613bc457613bc36139b9565b5b600182019050919050565b7f4163636573732064656e69656400000000000000000000000000000000000000600082015250565b6000613c05600d83612a6b565b9150613c1082613bcf565b602082019050919050565b60006020820190508181036000830152613c3481613bf8565b9050919050565b7f4f6e6c792070617469656e742063616e20766965772072657175657374730000600082015250565b6000613c71601e83612a6b565b9150613c7c82613c3b565b602082019050919050565b60006020820190508181036000830152613ca081613c64565b905091905056fea2646970667358221220325b037c0ab691a9120c75cbf919569d76c95067ef9a304c5f841f511644a40664736f6c63430008180033",
  "linkReferences": {},
  "deployedLinkReferences": {}
}