{
  "_format": "hh-sol-artifact-1",
  "contractName": "PatientManagement",
  "sourceName": "contracts/patientcontract.sol",
  "abi": [
    {
      "inputs": [],
      "stateMutability": "nonpayable",
      "type": "constructor"
    },
    {
      "anonymous": false,
      "inputs": [
        {
          "indexed": true,
          "internalType": "address",
          "name": "patient",
          "type": "address"
        },
        {
          "indexed": true,
          "internalType": "address",
          "name": "viewer",
          "type": "address"
        },
        {
          "indexed": false,
          "internalType": "uint256",
          "name": "expiry",
          "type": "uint256"
        }
      ],
      "name": "AccessGranted",
      "type": "event"
    },
    {
      "anonymous": false,
      "inputs": [
        {
          "indexed": true,
          "internalType": "address",
          "name": "patient",
          "type": "address"
        },
        {
          "indexed": true,
          "internalType": "address",
          "name": "viewer",
          "type": "address"
        }
      ],
      "name": "AccessRequested",
      "type": "event"
    },
    {
      "anonymous": false,
      "inputs": [
        {
          "indexed": true,
          "internalType": "address",
          "name": "patient",
          "type": "address"
        },
        {
          "indexed": true,
          "internalType": "address",
          "name": "viewer",
          "type": "address"
        }
      ],
      "name": "AccessRevoked",
      "type": "event"
    },
    {
      "anonymous": false,
      "inputs": [
        {
          "indexed": true,
          "internalType": "address",
          "name": "patientAddress",
          "type": "address"
        },
        {
          "indexed": true,
          "internalType": "address",
          "name": "doctorAddress",
          "type": "address"
        },
        {
          "indexed": false,
          "internalType": "string",
          "name": "ipfsHash",
          "type": "string"
        },
        {
          "indexed": false,
          "internalType": "uint256",
          "name": "timestamp",
          "type": "uint256"
        },
        {
          "indexed": false,
          "internalType": "uint8",
          "name": "privacyLevel",
          "type": "uint8"
        }
      ],
      "name": "MedicalRecordAdded",
      "type": "event"
    },
    {
      "anonymous": false,
      "inputs": [
        {
          "indexed": true,
          "internalType": "address",
          "name": "patientAddress",
          "type": "address"
        },
        {
          "indexed": false,
          "internalType": "string",
          "name": "oldIpfsHash",
          "type": "string"
        },
        {
          "indexed": false,
          "internalType": "string",
          "name": "newIpfsHash",
          "type": "string"
        },
        {
          "indexed": false,
          "internalType": "uint256",
          "name": "timestamp",
          "type": "uint256"
        }
      ],
      "name": "MedicalRecordUpdated",
      "type": "event"
    },
    {
      "anonymous": false,
      "inputs": [
        {
          "indexed": true,
          "internalType": "address",
          "name": "patientAddress",
          "type": "address"
        },
        {
          "indexed": false,
          "internalType": "string",
          "name": "username",
          "type": "string"
        },
        {
          "indexed": false,
          "internalType": "string",
          "name": "role",
          "type": "string"
        }
      ],
      "name": "PatientRegistered",
      "type": "event"
    },
    {
      "inputs": [
        {
          "internalType": "address",
          "name": "",
          "type": "address"
        },
        {
          "internalType": "address",
          "name": "",
          "type": "address"
        }
      ],
      "name": "accessExpiry",
      "outputs": [
        {
          "internalType": "uint256",
          "name": "",
          "type": "uint256"
        }
      ],
      "stateMutability": "view",
      "type": "function"
    },
    {
      "inputs": [
        {
          "internalType": "address",
          "name": "_patientAddress",
          "type": "address"
        },
        {
          "internalType": "string",
          "name": "_ipfsHash",
          "type": "string"
        },
        {
          "internalType": "string",
          "name": "_fileType",
          "type": "string"
        },
        {
          "internalType": "string",
          "name": "_fileName",
          "type": "string"
        },
        {
          "internalType": "string",
          "name": "_title",
          "type": "string"
        },
        {
          "internalType": "string",
          "name": "_resume",
          "type": "string"
        },
        {
          "internalType": "string",
          "name": "_previousVersion",
          "type": "string"
        },
        {
          "internalType": "uint8",
          "name": "_privacyLevel",
          "type": "uint8"
        }
      ],
      "name": "addMedicalRecord",
      "outputs": [],
      "stateMutability": "nonpayable",
      "type": "function"
    },
    {
      "inputs": [],
      "name": "admin",
      "outputs": [
        {
          "internalType": "address",
          "name": "",
          "type": "address"
        }
      ],
      "stateMutability": "view",
      "type": "function"
    },
    {
      "inputs": [],
      "name": "auditContractAddress",
      "outputs": [
        {
          "internalType": "address",
          "name": "",
          "type": "address"
        }
      ],
      "stateMutability": "view",
      "type": "function"
    },
    {
      "inputs": [],
      "name": "doctorContractAddress",
      "outputs": [
        {
          "internalType": "address",
          "name": "",
          "type": "address"
        }
      ],
      "stateMutability": "view",
      "type": "function"
    },
    {
      "inputs": [
        {
          "internalType": "address",
          "name": "_patientAddress",
          "type": "address"
        }
      ],
      "name": "getActiveRecords",
      "outputs": [
        {
          "components": [
            {
              "internalType": "string",
              "name": "ipfsHash",
              "type": "string"
            },
            {
              "internalType": "string",
              "name": "fileType",
              "type": "string"
            },
            {
              "internalType": "string",
              "name": "fileName",
              "type": "string"
            },
            {
              "internalType": "string",
              "name": "title",
              "type": "string"
            },
            {
              "internalType": "string",
              "name": "resume",
              "type": "string"
            },
            {
              "internalType": "uint256",
              "name": "timestamp",
              "type": "uint256"
            },
            {
              "internalType": "address",
              "name": "doctor",
              "type": "address"
            },
            {
              "internalType": "bool",
              "name": "isActive",
              "type": "bool"
            },
            {
              "internalType": "string",
              "name": "previousVersion",
              "type": "string"
            },
            {
              "internalType": "uint8",
              "name": "privacyLevel",
              "type": "uint8"
            }
          ],
          "internalType": "struct PatientManagement.MedicalRecord[]",
          "name": "",
          "type": "tuple[]"
        }
      ],
      "stateMutability": "view",
      "type": "function"
    },
    {
      "inputs": [
        {
          "internalType": "address",
          "name": "_patientAddress",
          "type": "address"
        }
      ],
      "name": "getMedicalRecords",
      "outputs": [
        {
          "components": [
            {
              "internalType": "string",
              "name": "ipfsHash",
              "type": "string"
            },
            {
              "internalType": "string",
              "name": "fileType",
              "type": "string"
            },
            {
              "internalType": "string",
              "name": "fileName",
              "type": "string"
            },
            {
              "internalType": "string",
              "name": "title",
              "type": "string"
            },
            {
              "internalType": "string",
              "name": "resume",
              "type": "string"
            },
            {
              "internalType": "uint256",
              "name": "timestamp",
              "type": "uint256"
            },
            {
              "internalType": "address",
              "name": "doctor",
              "type": "address"
            },
            {
              "internalType": "bool",
              "name": "isActive",
              "type": "bool"
            },
            {
              "internalType": "string",
              "name": "previousVersion",
              "type": "string"
            },
            {
              "internalType": "uint8",
              "name": "privacyLevel",
              "type": "uint8"
            }
          ],
          "internalType": "struct PatientManagement.MedicalRecord[]",
          "name": "",
          "type": "tuple[]"
        }
      ],
      "stateMutability": "view",
      "type": "function"
    },
    {
      "inputs": [
        {
          "internalType": "address",
          "name": "_patientAddress",
          "type": "address"
        }
      ],
      "name": "getPatient",
      "outputs": [
        {
          "internalType": "string",
          "name": "username",
          "type": "string"
        },
        {
          "internalType": "string",
          "name": "role",
          "type": "string"
        }
      ],
      "stateMutability": "view",
      "type": "function"
    },
    {
      "inputs": [
        {
          "internalType": "address",
          "name": "_patientAddress",
          "type": "address"
        }
      ],
      "name": "getPatientAccessRequests",
      "outputs": [
        {
          "internalType": "address[]",
          "name": "",
          "type": "address[]"
        }
      ],
      "stateMutability": "view",
      "type": "function"
    },
    {
      "inputs": [
        {
          "internalType": "address",
          "name": "_patientAddress",
          "type": "address"
        }
      ],
      "name": "getSharedRecords",
      "outputs": [
        {
          "components": [
            {
              "internalType": "string",
              "name": "ipfsHash",
              "type": "string"
            },
            {
              "internalType": "string",
              "name": "fileType",
              "type": "string"
            },
            {
              "internalType": "string",
              "name": "fileName",
              "type": "string"
            },
            {
              "internalType": "string",
              "name": "title",
              "type": "string"
            },
            {
              "internalType": "string",
              "name": "resume",
              "type": "string"
            },
            {
              "internalType": "uint256",
              "name": "timestamp",
              "type": "uint256"
            },
            {
              "internalType": "address",
              "name": "doctor",
              "type": "address"
            },
            {
              "internalType": "bool",
              "name": "isActive",
              "type": "bool"
            },
            {
              "internalType": "string",
              "name": "previousVersion",
              "type": "string"
            },
            {
              "internalType": "uint8",
              "name": "privacyLevel",
              "type": "uint8"
            }
          ],
          "internalType": "struct PatientManagement.MedicalRecord[]",
          "name": "",
          "type": "tuple[]"
        }
      ],
      "stateMutability": "view",
      "type": "function"
    },
    {
      "inputs": [
        {
          "internalType": "address",
          "name": "_viewer",
          "type": "address"
        },
        {
          "internalType": "uint256",
          "name": "_durationSeconds",
          "type": "uint256"
        }
      ],
      "name": "grantAccess",
      "outputs": [],
      "stateMutability": "nonpayable",
      "type": "function"
    },
    {
      "inputs": [],
      "name": "insuranceContractAddress",
      "outputs": [
        {
          "internalType": "address",
          "name": "",
          "type": "address"
        }
      ],
      "stateMutability": "view",
      "type": "function"
    },
    {
      "inputs": [
        {
          "internalType": "address",
          "name": "",
          "type": "address"
        },
        {
          "internalType": "uint256",
          "name": "",
          "type": "uint256"
        }
      ],
      "name": "patientAccessRequests",
      "outputs": [
        {
          "internalType": "address",
          "name": "",
          "type": "address"
        }
      ],
      "stateMutability": "view",
      "type": "function"
    },
    {
      "inputs": [
        {
          "internalType": "address",
          "name": "",
          "type": "address"
        },
        {
          "internalType": "uint256",
          "name": "",
          "type": "uint256"
        }
      ],
      "name": "patientRecords",
      "outputs": [
        {
          "internalType": "string",
          "name": "ipfsHash",
          "type": "string"
        },
        {
          "internalType": "string",
          "name": "fileType",
          "type": "string"
        },
        {
          "internalType": "string",
          "name": "fileName",
          "type": "string"
        },
        {
          "internalType": "string",
          "name": "title",
          "type": "string"
        },
        {
          "internalType": "string",
          "name": "resume",
          "type": "string"
        },
        {
          "internalType": "uint256",
          "name": "timestamp",
          "type": "uint256"
        },
        {
          "internalType": "address",
          "name": "doctor",
          "type": "address"
        },
        {
          "internalType": "bool",
          "name": "isActive",
          "type": "bool"
        },
        {
          "internalType": "string",
          "name": "previousVersion",
          "type": "string"
        },
        {
          "internalType": "uint8",
          "name": "privacyLevel",
          "type": "uint8"
        }
      ],
      "stateMutability": "view",
      "type": "function"
    },
    {
      "inputs": [
        {
          "internalType": "address",
          "name": "",
          "type": "address"
        }
      ],
      "name": "patients",
      "outputs": [
        {
          "internalType": "string",
          "name": "username",
          "type": "string"
        },
        {
          "internalType": "string",
          "name": "role",
          "type": "string"
        },
        {
          "internalType": "bool",
          "name": "isRegistered",
          "type": "bool"
        }
      ],
      "stateMutability": "view",
      "type": "function"
    },
    {
      "inputs": [
        {
          "internalType": "address",
          "name": "_patientAddress",
          "type": "address"
        },
        {
          "internalType": "string",
          "name": "_username",
          "type": "string"
        },
        {
          "internalType": "string",
          "name": "_role",
          "type": "string"
        }
      ],
      "name": "registerPatient",
      "outputs": [],
      "stateMutability": "nonpayable",
      "type": "function"
    },
    {
      "inputs": [
        {
          "internalType": "address",
          "name": "_patientAddress",
          "type": "address"
        }
      ],
      "name": "requestAccess",
      "outputs": [],
      "stateMutability": "nonpayable",
      "type": "function"
    },
    {
      "inputs": [],
      "name": "researcherContractAddress",
      "outputs": [
        {
          "internalType": "address",
          "name": "",
          "type": "address"
        }
      ],
      "stateMutability": "view",
      "type": "function"
    },
    {
      "inputs": [
        {
          "internalType": "address",
          "name": "_viewer",
          "type": "address"
        }
      ],
      "name": "revokeAccess",
      "outputs": [],
      "stateMutability": "nonpayable",
      "type": "function"
    },
    {
      "inputs": [
        {
          "internalType": "address",
          "name": "_auditContractAddress",
          "type": "address"
        }
      ],
      "name": "setAuditContractAddress",
      "outputs": [],
      "stateMutability": "nonpayable",
      "type": "function"
    },
    {
      "inputs": [
        {
          "internalType": "address",
          "name": "_doctorContractAddress",
          "type": "address"
        }
      ],
      "name": "setDoctorContractAddress",
      "outputs": [],
      "stateMutability": "nonpayable",
      "type": "function"
    },
    {
      "inputs": [
        {
          "internalType": "address",
          "name": "_insuranceContractAddress",
          "type": "address"
        }
      ],
      "name": "setInsuranceContractAddress",
      "outputs": [],
      "stateMutability": "nonpayable",
      "type": "function"
    },
    {
      "inputs": [
        {
          "internalType": "address",
          "name": "_researcherContractAddress",
          "type": "address"
        }
      ],
      "name": "setResearcherContractAddress",
      "outputs": [],
      "stateMutability": "nonpayable",
      "type": "function"
    }
  ],
  "bytecode": "0x60806040523480156200001157600080fd5b50336000806101000a81548173ffffffffffffffffffffffffffffffffffffffff021916908373ffffffffffffffffffffffffffffffffffffffff16021790555060405180606001604052806040518060400160405280600581526020017f61646d696e00000000000000000000000000000000000000000000000000000081525081526020016040518060400160405280600581526020017f61646d696e000000000000000000000000000000000000000000000000000000815250815260200160011515815250600160003373ffffffffffffffffffffffffffffffffffffffff1673ffffffffffffffffffffffffffffffffffffffff1681526020019081526020016000206000820151816000019081620001309190620003ec565b506020820151816001019081620001489190620003ec565b5060408201518160020160006101000a81548160ff021916908315150217905550905050620004d3565b600081519050919050565b7f4e487b7100000000000000000000000000000000000000000000000000000000600052604160045260246000fd5b7f4e487b7100000000000000000000000000000000000000000000000000000000600052602260045260246000fd5b60006002820490506001821680620001f457607f821691505b6020821081036200020a5762000209620001ac565b5b50919050565b60008190508160005260206000209050919050565b60006020601f8301049050919050565b600082821b905092915050565b600060088302620002747fffffffffffffffffffffffffffffffffffffffffffffffffffffffffffffffff8262000235565b62000280868362000235565b95508019841693508086168417925050509392505050565b6000819050919050565b6000819050919050565b6000620002cd620002c7620002c18462000298565b620002a2565b62000298565b9050919050565b6000819050919050565b620002e983620002ac565b62000301620002f882620002d4565b84845462000242565b825550505050565b600090565b6200031862000309565b62000325818484620002de565b505050565b5b818110156200034d57620003416000826200030e565b6001810190506200032b565b5050565b601f8211156200039c57620003668162000210565b620003718462000225565b8101602085101562000381578190505b62000399620003908562000225565b8301826200032a565b50505b505050565b600082821c905092915050565b6000620003c160001984600802620003a1565b1980831691505092915050565b6000620003dc8383620003ae565b9150826002028217905092915050565b620003f78262000172565b67ffffffffffffffff8111156200041357620004126200017d565b5b6200041f8254620001db565b6200042c82828562000351565b600060209050601f8311600181146200046457600084156200044f578287015190505b6200045b8582620003ce565b865550620004cb565b601f198416620004748662000210565b60005b828110156200049e5784890151825560018201915060208501945060208101905062000477565b86831015620004be5784890151620004ba601f891682620003ae565b8355505b6001600288020188555050505b505050505050565b615fba80620004e36000396000f3fe608060405234801561001057600080fd5b506004361061014d5760003560e01c806394f0df61116100c3578063bcbf71811161007c578063bcbf7181146103b8578063cb9b859f146103e8578063e08b9d9c14610406578063eeaaa07514610422578063f851a44014610452578063fb6be4ec146104705761014d565b806394f0df61146102b45780639df89256146102ed578063a25b0bf014610309578063afd8297c14610327578063b5368e2014610357578063b717a67c146103885761014d565b806337d917991161011557806337d91799146101f85780636df32cd4146102145780637933ef8b1461023057806385e685311461024c57806389413f421461026857806391f20596146102845761014d565b8063022cb271146101525780630869cfbc1461016e5780630ac1f2c5146101a057806314c179c0146101be578063197547a1146101dc575b600080fd5b61016c6004803603810190610167919061471d565b6104a0565b005b6101886004803603810190610183919061471d565b6108c4565b604051610197939291906147f5565b60405180910390f35b6101a8610a0b565b6040516101b59190614849565b60405180910390f35b6101c6610a31565b6040516101d39190614849565b60405180910390f35b6101f660048036038101906101f191906149d2565b610a57565b005b610212600480360381019061020d9190614b30565b610fd9565b005b61022e6004803603810190610229919061471d565b6112da565b005b61024a6004803603810190610245919061471d565b6113ac565b005b6102666004803603810190610261919061471d565b61147e565b005b610282600480360381019061027d919061471d565b61196c565b005b61029e60048036038101906102999190614bbb565b611a3e565b6040516102ab9190614c14565b60405180910390f35b6102ce60048036038101906102c99190614c5b565b611a63565b6040516102e49a99989796959493929190614caa565b60405180910390f35b61030760048036038101906103029190614c5b565b611e3e565b005b610311612581565b60405161031e9190614849565b60405180910390f35b610341600480360381019061033c919061471d565b6125a7565b60405161034e9190614fb5565b60405180910390f35b610371600480360381019061036c919061471d565b612ad9565b60405161037f929190614fd7565b60405180910390f35b6103a2600480360381019061039d919061471d565b612d0c565b6040516103af9190614fb5565b60405180910390f35b6103d260048036038101906103cd919061471d565b6134bb565b6040516103df9190614fb5565b60405180910390f35b6103f0614069565b6040516103fd9190614849565b60405180910390f35b610420600480360381019061041b919061471d565b61408f565b005b61043c6004803603810190610437919061471d565b614161565b60405161044991906150bd565b60405180910390f35b61045a61429c565b6040516104679190614849565b60405180910390f35b61048a60048036038101906104859190614c5b565b6142c0565b6040516104979190614849565b60405180910390f35b600160008273ffffffffffffffffffffffffffffffffffffffff1673ffffffffffffffffffffffffffffffffffffffff16815260200190815260200160002060020160009054906101000a900460ff1661052f576040517f08c379a00000000000000000000000000000000000000000000000000000000081526004016105269061512b565b60405180910390fd5b3373ffffffffffffffffffffffffffffffffffffffff168173ffffffffffffffffffffffffffffffffffffffff160361059d576040517f08c379a000000000000000000000000000000000000000000000000000000000815260040161059490615197565b60405180910390fd5b42600460008373ffffffffffffffffffffffffffffffffffffffff1673ffffffffffffffffffffffffffffffffffffffff16815260200190815260200160002060003373ffffffffffffffffffffffffffffffffffffffff1673ffffffffffffffffffffffffffffffffffffffff16815260200190815260200160002054111561065c576040517f08c379a000000000000000000000000000000000000000000000000000000000815260040161065390615203565b60405180910390fd5b6000600960008373ffffffffffffffffffffffffffffffffffffffff1673ffffffffffffffffffffffffffffffffffffffff16815260200190815260200160002080548060200260200160405190810160405280929190818152602001828054801561071d57602002820191906000526020600020905b8160009054906101000a900473ffffffffffffffffffffffffffffffffffffffff1673ffffffffffffffffffffffffffffffffffffffff16815260200190600101908083116106d3575b5050505050905060005b81518110156107c5573373ffffffffffffffffffffffffffffffffffffffff1682828151811061075a57610759615223565b5b602002602001015173ffffffffffffffffffffffffffffffffffffffff16036107b8576040517f08c379a00000000000000000000000000000000000000000000000000000000081526004016107af9061529e565b60405180910390fd5b8080600101915050610727565b50600960008373ffffffffffffffffffffffffffffffffffffffff1673ffffffffffffffffffffffffffffffffffffffff168152602001908152602001600020339080600181540180825580915050600190039060005260206000200160009091909190916101000a81548173ffffffffffffffffffffffffffffffffffffffff021916908373ffffffffffffffffffffffffffffffffffffffff1602179055503373ffffffffffffffffffffffffffffffffffffffff168273ffffffffffffffffffffffffffffffffffffffff167f40c7749b16fdfb0d550f20273a7767875059d647af94f5a9610c63ad73dcc79f60405160405180910390a35050565b60016020528060005260406000206000915090508060000180546108e7906152ed565b80601f0160208091040260200160405190810160405280929190818152602001828054610913906152ed565b80156109605780601f1061093557610100808354040283529160200191610960565b820191906000526020600020905b81548152906001019060200180831161094357829003601f168201915b505050505090806001018054610975906152ed565b80601f01602080910402602001604051908101604052809291908181526020018280546109a1906152ed565b80156109ee5780601f106109c3576101008083540402835291602001916109ee565b820191906000526020600020905b8154815290600101906020018083116109d157829003601f168201915b5050505050908060020160009054906101000a900460ff16905083565b600560009054906101000a900473ffffffffffffffffffffffffffffffffffffffff1681565b600660009054906101000a900473ffffffffffffffffffffffffffffffffffffffff1681565b600160008973ffffffffffffffffffffffffffffffffffffffff1673ffffffffffffffffffffffffffffffffffffffff16815260200190815260200160002060020160009054906101000a900460ff16610ae6576040517f08c379a0000000000000000000000000000000000000000000000000000000008152600401610add9061512b565b60405180910390fd5b60028160ff161115610b2d576040517f08c379a0000000000000000000000000000000000000000000000000000000008152600401610b249061536a565b60405180910390fd5b600082511115610c29576000600383604051610b4991906153c6565b90815260200160405180910390205490506000600260008b73ffffffffffffffffffffffffffffffffffffffff1673ffffffffffffffffffffffffffffffffffffffff1681526020019081526020016000208281548110610bad57610bac615223565b5b906000526020600020906009020160060160146101000a81548160ff0219169083151502179055508873ffffffffffffffffffffffffffffffffffffffff167f265a47e189bdaf1e4e75ca93474dba2ad21591bb54b62e3b8633029a440dcbf6848a42604051610c1f939291906153dd565b60405180910390a2505b60006040518061014001604052808981526020018881526020018781526020018681526020018581526020014281526020013373ffffffffffffffffffffffffffffffffffffffff1681526020016001151581526020018481526020018360ff168152509050600260008a73ffffffffffffffffffffffffffffffffffffffff1673ffffffffffffffffffffffffffffffffffffffff1681526020019081526020016000208190806001815401808255809150506001900390600052602060002090600902016000909190919091506000820151816000019081610d0d91906155ce565b506020820151816001019081610d2391906155ce565b506040820151816002019081610d3991906155ce565b506060820151816003019081610d4f91906155ce565b506080820151816004019081610d6591906155ce565b5060a0820151816005015560c08201518160060160006101000a81548173ffffffffffffffffffffffffffffffffffffffff021916908373ffffffffffffffffffffffffffffffffffffffff16021790555060e08201518160060160146101000a81548160ff021916908315150217905550610100820151816007019081610ded91906155ce565b506101208201518160080160006101000a81548160ff021916908360ff16021790555050506001600260008b73ffffffffffffffffffffffffffffffffffffffff1673ffffffffffffffffffffffffffffffffffffffff16815260200190815260200160002080549050610e6191906156cf565b600389604051610e7191906153c6565b9081526020016040518091039020819055503373ffffffffffffffffffffffffffffffffffffffff168973ffffffffffffffffffffffffffffffffffffffff167f77f7fbc747ad443f3ea5f507abbc21d187ecb84679a348cbd91c6fbcfd405c288a4286604051610ee493929190615703565b60405180910390a3600073ffffffffffffffffffffffffffffffffffffffff16600860009054906101000a900473ffffffffffffffffffffffffffffffffffffffff1673ffffffffffffffffffffffffffffffffffffffff1614610fce57600860009054906101000a900473ffffffffffffffffffffffffffffffffffffffff1673ffffffffffffffffffffffffffffffffffffffff1663bff45139338b8b6040518463ffffffff1660e01b8152600401610fa19392919061578d565b600060405180830381600087803b158015610fbb57600080fd5b505af1925050508015610fcc575060015b505b505050505050505050565b60008054906101000a900473ffffffffffffffffffffffffffffffffffffffff1673ffffffffffffffffffffffffffffffffffffffff163373ffffffffffffffffffffffffffffffffffffffff1614611067576040517f08c379a000000000000000000000000000000000000000000000000000000000815260040161105e90615850565b60405180910390fd5b600160008473ffffffffffffffffffffffffffffffffffffffff1673ffffffffffffffffffffffffffffffffffffffff16815260200190815260200160002060020160009054906101000a900460ff16156110f7576040517f08c379a00000000000000000000000000000000000000000000000000000000081526004016110ee906158bc565b60405180910390fd5b604051806060016040528083815260200182815260200160011515815250600160008573ffffffffffffffffffffffffffffffffffffffff1673ffffffffffffffffffffffffffffffffffffffff168152602001908152602001600020600082015181600001908161116991906155ce565b50602082015181600101908161117f91906155ce565b5060408201518160020160006101000a81548160ff0219169083151502179055509050508273ffffffffffffffffffffffffffffffffffffffff167f5aad8bc7ad9861b16c6d01a65f54118dfe585a51e408ac2e7b9499148d515c4183836040516111eb929190614fd7565b60405180910390a2600073ffffffffffffffffffffffffffffffffffffffff16600860009054906101000a900473ffffffffffffffffffffffffffffffffffffffff1673ffffffffffffffffffffffffffffffffffffffff16146112d557600860009054906101000a900473ffffffffffffffffffffffffffffffffffffffff1673ffffffffffffffffffffffffffffffffffffffff1663bff451393385856040518463ffffffff1660e01b81526004016112a893929190615928565b600060405180830381600087803b1580156112c257600080fd5b505af19250505080156112d3575060015b505b505050565b60008054906101000a900473ffffffffffffffffffffffffffffffffffffffff1673ffffffffffffffffffffffffffffffffffffffff163373ffffffffffffffffffffffffffffffffffffffff1614611368576040517f08c379a000000000000000000000000000000000000000000000000000000000815260040161135f90615850565b60405180910390fd5b80600660006101000a81548173ffffffffffffffffffffffffffffffffffffffff021916908373ffffffffffffffffffffffffffffffffffffffff16021790555050565b60008054906101000a900473ffffffffffffffffffffffffffffffffffffffff1673ffffffffffffffffffffffffffffffffffffffff163373ffffffffffffffffffffffffffffffffffffffff161461143a576040517f08c379a000000000000000000000000000000000000000000000000000000000815260040161143190615850565b60405180910390fd5b80600560006101000a81548173ffffffffffffffffffffffffffffffffffffffff021916908373ffffffffffffffffffffffffffffffffffffffff16021790555050565b600160003373ffffffffffffffffffffffffffffffffffffffff1673ffffffffffffffffffffffffffffffffffffffff16815260200190815260200160002060020160009054906101000a900460ff1661150d576040517f08c379a0000000000000000000000000000000000000000000000000000000008152600401611504906159c5565b60405180910390fd5b6000600460003373ffffffffffffffffffffffffffffffffffffffff1673ffffffffffffffffffffffffffffffffffffffff16815260200190815260200160002060008373ffffffffffffffffffffffffffffffffffffffff1673ffffffffffffffffffffffffffffffffffffffff168152602001908152602001600020819055508073ffffffffffffffffffffffffffffffffffffffff163373ffffffffffffffffffffffffffffffffffffffff167f825c8be24eb0df19500f63e86c29e7d0d951e73056b889b891d85e40938d9b6e60405160405180910390a3600073ffffffffffffffffffffffffffffffffffffffff16600560009054906101000a900473ffffffffffffffffffffffffffffffffffffffff1673ffffffffffffffffffffffffffffffffffffffff16146116c957600560009054906101000a900473ffffffffffffffffffffffffffffffffffffffff1673ffffffffffffffffffffffffffffffffffffffff1663177870c282336040518363ffffffff1660e01b815260040161169c9291906159e5565b600060405180830381600087803b1580156116b657600080fd5b505af19250505080156116c7575060015b505b600073ffffffffffffffffffffffffffffffffffffffff16600660009054906101000a900473ffffffffffffffffffffffffffffffffffffffff1673ffffffffffffffffffffffffffffffffffffffff16146117a957600660009054906101000a900473ffffffffffffffffffffffffffffffffffffffff1673ffffffffffffffffffffffffffffffffffffffff1663177870c282336040518363ffffffff1660e01b815260040161177c9291906159e5565b600060405180830381600087803b15801561179657600080fd5b505af19250505080156117a7575060015b505b600073ffffffffffffffffffffffffffffffffffffffff16600760009054906101000a900473ffffffffffffffffffffffffffffffffffffffff1673ffffffffffffffffffffffffffffffffffffffff161461188957600760009054906101000a900473ffffffffffffffffffffffffffffffffffffffff1673ffffffffffffffffffffffffffffffffffffffff1663177870c282336040518363ffffffff1660e01b815260040161185c9291906159e5565b600060405180830381600087803b15801561187657600080fd5b505af1925050508015611887575060015b505b600073ffffffffffffffffffffffffffffffffffffffff16600860009054906101000a900473ffffffffffffffffffffffffffffffffffffffff1673ffffffffffffffffffffffffffffffffffffffff161461196957600860009054906101000a900473ffffffffffffffffffffffffffffffffffffffff1673ffffffffffffffffffffffffffffffffffffffff1663bff4513933836040518363ffffffff1660e01b815260040161193c929190615aa6565b600060405180830381600087803b15801561195657600080fd5b505af1925050508015611967575060015b505b50565b60008054906101000a900473ffffffffffffffffffffffffffffffffffffffff1673ffffffffffffffffffffffffffffffffffffffff163373ffffffffffffffffffffffffffffffffffffffff16146119fa576040517f08c379a00000000000000000000000000000000000000000000000000000000081526004016119f190615850565b60405180910390fd5b80600860006101000a81548173ffffffffffffffffffffffffffffffffffffffff021916908373ffffffffffffffffffffffffffffffffffffffff16021790555050565b6004602052816000526040600020602052806000526040600020600091509150505481565b60026020528160005260406000208181548110611a7f57600080fd5b906000526020600020906009020160009150915050806000018054611aa3906152ed565b80601f0160208091040260200160405190810160405280929190818152602001828054611acf906152ed565b8015611b1c5780601f10611af157610100808354040283529160200191611b1c565b820191906000526020600020905b815481529060010190602001808311611aff57829003601f168201915b505050505090806001018054611b31906152ed565b80601f0160208091040260200160405190810160405280929190818152602001828054611b5d906152ed565b8015611baa5780601f10611b7f57610100808354040283529160200191611baa565b820191906000526020600020905b815481529060010190602001808311611b8d57829003601f168201915b505050505090806002018054611bbf906152ed565b80601f0160208091040260200160405190810160405280929190818152602001828054611beb906152ed565b8015611c385780601f10611c0d57610100808354040283529160200191611c38565b820191906000526020600020905b815481529060010190602001808311611c1b57829003601f168201915b505050505090806003018054611c4d906152ed565b80601f0160208091040260200160405190810160405280929190818152602001828054611c79906152ed565b8015611cc65780601f10611c9b57610100808354040283529160200191611cc6565b820191906000526020600020905b815481529060010190602001808311611ca957829003601f168201915b505050505090806004018054611cdb906152ed565b80601f0160208091040260200160405190810160405280929190818152602001828054611d07906152ed565b8015611d545780601f10611d2957610100808354040283529160200191611d54565b820191906000526020600020905b815481529060010190602001808311611d3757829003601f168201915b5050505050908060050154908060060160009054906101000a900473ffffffffffffffffffffffffffffffffffffffff16908060060160149054906101000a900460ff1690806007018054611da8906152ed565b80601f0160208091040260200160405190810160405280929190818152602001828054611dd4906152ed565b8015611e215780601f10611df657610100808354040283529160200191611e21565b820191906000526020600020905b815481529060010190602001808311611e0457829003601f168201915b5050505050908060080160009054906101000a900460ff1690508a565b600160003373ffffffffffffffffffffffffffffffffffffffff1673ffffffffffffffffffffffffffffffffffffffff16815260200190815260200160002060020160009054906101000a900460ff16611ecd576040517f08c379a0000000000000000000000000000000000000000000000000000000008152600401611ec4906159c5565b60405180910390fd5b600073ffffffffffffffffffffffffffffffffffffffff168273ffffffffffffffffffffffffffffffffffffffff1603611f3c576040517f08c379a0000000000000000000000000000000000000000000000000000000008152600401611f3390615b41565b60405180910390fd5b8042611f489190615b61565b600460003373ffffffffffffffffffffffffffffffffffffffff1673ffffffffffffffffffffffffffffffffffffffff16815260200190815260200160002060008473ffffffffffffffffffffffffffffffffffffffff1673ffffffffffffffffffffffffffffffffffffffff168152602001908152602001600020819055508173ffffffffffffffffffffffffffffffffffffffff163373ffffffffffffffffffffffffffffffffffffffff167f65d0cc1e52d49938ca4ad9f423c79c1b84d914b9a683fbc5d3f93ac3cc5635f583426120239190615b61565b6040516120309190614c14565b60405180910390a3600073ffffffffffffffffffffffffffffffffffffffff16600560009054906101000a900473ffffffffffffffffffffffffffffffffffffffff1673ffffffffffffffffffffffffffffffffffffffff161461211857600560009054906101000a900473ffffffffffffffffffffffffffffffffffffffff1673ffffffffffffffffffffffffffffffffffffffff16630ff4218883336040518363ffffffff1660e01b81526004016120eb9291906159e5565b600060405180830381600087803b15801561210557600080fd5b505af1925050508015612116575060015b505b600073ffffffffffffffffffffffffffffffffffffffff16600660009054906101000a900473ffffffffffffffffffffffffffffffffffffffff1673ffffffffffffffffffffffffffffffffffffffff16146121f857600660009054906101000a900473ffffffffffffffffffffffffffffffffffffffff1673ffffffffffffffffffffffffffffffffffffffff16630ff4218883336040518363ffffffff1660e01b81526004016121cb9291906159e5565b600060405180830381600087803b1580156121e557600080fd5b505af19250505080156121f6575060015b505b600073ffffffffffffffffffffffffffffffffffffffff16600760009054906101000a900473ffffffffffffffffffffffffffffffffffffffff1673ffffffffffffffffffffffffffffffffffffffff16146122d857600760009054906101000a900473ffffffffffffffffffffffffffffffffffffffff1673ffffffffffffffffffffffffffffffffffffffff16630ff4218883336040518363ffffffff1660e01b81526004016122ab9291906159e5565b600060405180830381600087803b1580156122c557600080fd5b505af19250505080156122d6575060015b505b6000600960003373ffffffffffffffffffffffffffffffffffffffff1673ffffffffffffffffffffffffffffffffffffffff168152602001908152602001600020905060005b818054905081101561249b578373ffffffffffffffffffffffffffffffffffffffff1682828154811061235457612353615223565b5b9060005260206000200160009054906101000a900473ffffffffffffffffffffffffffffffffffffffff1673ffffffffffffffffffffffffffffffffffffffff160361248e5781600183805490506123ac91906156cf565b815481106123bd576123bc615223565b5b9060005260206000200160009054906101000a900473ffffffffffffffffffffffffffffffffffffffff168282815481106123fb576123fa615223565b5b9060005260206000200160006101000a81548173ffffffffffffffffffffffffffffffffffffffff021916908373ffffffffffffffffffffffffffffffffffffffff1602179055508180548061245457612453615b95565b5b6001900381819060005260206000200160006101000a81549073ffffffffffffffffffffffffffffffffffffffff0219169055905561249b565b808060010191505061231e565b50600073ffffffffffffffffffffffffffffffffffffffff16600860009054906101000a900473ffffffffffffffffffffffffffffffffffffffff1673ffffffffffffffffffffffffffffffffffffffff161461257c57600860009054906101000a900473ffffffffffffffffffffffffffffffffffffffff1673ffffffffffffffffffffffffffffffffffffffff1663bff4513933856040518363ffffffff1660e01b815260040161254f929190615c5c565b600060405180830381600087803b15801561256957600080fd5b505af192505050801561257a575060015b505b505050565b600760009054906101000a900473ffffffffffffffffffffffffffffffffffffffff1681565b6060600160008373ffffffffffffffffffffffffffffffffffffffff1673ffffffffffffffffffffffffffffffffffffffff16815260200190815260200160002060020160009054906101000a900460ff16612638576040517f08c379a000000000000000000000000000000000000000000000000000000000815260040161262f9061512b565b60405180910390fd5b600260008373ffffffffffffffffffffffffffffffffffffffff1673ffffffffffffffffffffffffffffffffffffffff168152602001908152602001600020805480602002602001604051908101604052809291908181526020016000905b82821015612ace5783829060005260206000209060090201604051806101400160405290816000820180546126cb906152ed565b80601f01602080910402602001604051908101604052809291908181526020018280546126f7906152ed565b80156127445780601f1061271957610100808354040283529160200191612744565b820191906000526020600020905b81548152906001019060200180831161272757829003601f168201915b5050505050815260200160018201805461275d906152ed565b80601f0160208091040260200160405190810160405280929190818152602001828054612789906152ed565b80156127d65780601f106127ab576101008083540402835291602001916127d6565b820191906000526020600020905b8154815290600101906020018083116127b957829003601f168201915b505050505081526020016002820180546127ef906152ed565b80601f016020809104026020016040519081016040528092919081815260200182805461281b906152ed565b80156128685780601f1061283d57610100808354040283529160200191612868565b820191906000526020600020905b81548152906001019060200180831161284b57829003601f168201915b50505050508152602001600382018054612881906152ed565b80601f01602080910402602001604051908101604052809291908181526020018280546128ad906152ed565b80156128fa5780601f106128cf576101008083540402835291602001916128fa565b820191906000526020600020905b8154815290600101906020018083116128dd57829003601f168201915b50505050508152602001600482018054612913906152ed565b80601f016020809104026020016040519081016040528092919081815260200182805461293f906152ed565b801561298c5780601f106129615761010080835404028352916020019161298c565b820191906000526020600020905b81548152906001019060200180831161296f57829003601f168201915b50505050508152602001600582015481526020016006820160009054906101000a900473ffffffffffffffffffffffffffffffffffffffff1673ffffffffffffffffffffffffffffffffffffffff1673ffffffffffffffffffffffffffffffffffffffff1681526020016006820160149054906101000a900460ff16151515158152602001600782018054612a20906152ed565b80601f0160208091040260200160405190810160405280929190818152602001828054612a4c906152ed565b8015612a995780601f10612a6e57610100808354040283529160200191612a99565b820191906000526020600020905b815481529060010190602001808311612a7c57829003601f168201915b505050505081526020016008820160009054906101000a900460ff1660ff1660ff168152505081526020019060010190612697565b505050509050919050565b606080600160008473ffffffffffffffffffffffffffffffffffffffff1673ffffffffffffffffffffffffffffffffffffffff16815260200190815260200160002060020160009054906101000a900460ff16612b6b576040517f08c379a0000000000000000000000000000000000000000000000000000000008152600401612b629061512b565b60405180910390fd5b6000600160008573ffffffffffffffffffffffffffffffffffffffff1673ffffffffffffffffffffffffffffffffffffffff168152602001908152602001600020604051806060016040529081600082018054612bc7906152ed565b80601f0160208091040260200160405190810160405280929190818152602001828054612bf3906152ed565b8015612c405780601f10612c1557610100808354040283529160200191612c40565b820191906000526020600020905b815481529060010190602001808311612c2357829003601f168201915b50505050508152602001600182018054612c59906152ed565b80601f0160208091040260200160405190810160405280929190818152602001828054612c85906152ed565b8015612cd25780601f10612ca757610100808354040283529160200191612cd2565b820191906000526020600020905b815481529060010190602001808311612cb557829003601f168201915b505050505081526020016002820160009054906101000a900460ff1615151515815250509050806000015181602001519250925050915091565b6060600160008373ffffffffffffffffffffffffffffffffffffffff1673ffffffffffffffffffffffffffffffffffffffff16815260200190815260200160002060020160009054906101000a900460ff16612d9d576040517f08c379a0000000000000000000000000000000000000000000000000000000008152600401612d949061512b565b60405180910390fd5b8173ffffffffffffffffffffffffffffffffffffffff163373ffffffffffffffffffffffffffffffffffffffff1614612e0b576040517f08c379a0000000000000000000000000000000000000000000000000000000008152600401612e0290615d1d565b60405180910390fd5b6000805b600260008573ffffffffffffffffffffffffffffffffffffffff1673ffffffffffffffffffffffffffffffffffffffff16815260200190815260200160002080549050811015612eea57600260008573ffffffffffffffffffffffffffffffffffffffff1673ffffffffffffffffffffffffffffffffffffffff1681526020019081526020016000208181548110612eaa57612ea9615223565b5b906000526020600020906009020160060160149054906101000a900460ff1615612edd578180612ed990615d3d565b9250505b8080600101915050612e0f565b5060008167ffffffffffffffff811115612f0757612f0661486e565b5b604051908082528060200260200182016040528015612f4057816020015b612f2d61463d565b815260200190600190039081612f255790505b5090506000805b600260008773ffffffffffffffffffffffffffffffffffffffff1673ffffffffffffffffffffffffffffffffffffffff168152602001908152602001600020805490508110156134af57600260008773ffffffffffffffffffffffffffffffffffffffff1673ffffffffffffffffffffffffffffffffffffffff1681526020019081526020016000208181548110612fe257612fe1615223565b5b906000526020600020906009020160060160149054906101000a900460ff16156134a257600260008773ffffffffffffffffffffffffffffffffffffffff1673ffffffffffffffffffffffffffffffffffffffff168152602001908152602001600020818154811061305757613056615223565b5b906000526020600020906009020160405180610140016040529081600082018054613081906152ed565b80601f01602080910402602001604051908101604052809291908181526020018280546130ad906152ed565b80156130fa5780601f106130cf576101008083540402835291602001916130fa565b820191906000526020600020905b8154815290600101906020018083116130dd57829003601f168201915b50505050508152602001600182018054613113906152ed565b80601f016020809104026020016040519081016040528092919081815260200182805461313f906152ed565b801561318c5780601f106131615761010080835404028352916020019161318c565b820191906000526020600020905b81548152906001019060200180831161316f57829003601f168201915b505050505081526020016002820180546131a5906152ed565b80601f01602080910402602001604051908101604052809291908181526020018280546131d1906152ed565b801561321e5780601f106131f35761010080835404028352916020019161321e565b820191906000526020600020905b81548152906001019060200180831161320157829003601f168201915b50505050508152602001600382018054613237906152ed565b80601f0160208091040260200160405190810160405280929190818152602001828054613263906152ed565b80156132b05780601f10613285576101008083540402835291602001916132b0565b820191906000526020600020905b81548152906001019060200180831161329357829003601f168201915b505050505081526020016004820180546132c9906152ed565b80601f01602080910402602001604051908101604052809291908181526020018280546132f5906152ed565b80156133425780601f1061331757610100808354040283529160200191613342565b820191906000526020600020905b81548152906001019060200180831161332557829003601f168201915b50505050508152602001600582015481526020016006820160009054906101000a900473ffffffffffffffffffffffffffffffffffffffff1673ffffffffffffffffffffffffffffffffffffffff1673ffffffffffffffffffffffffffffffffffffffff1681526020016006820160149054906101000a900460ff161515151581526020016007820180546133d6906152ed565b80601f0160208091040260200160405190810160405280929190818152602001828054613402906152ed565b801561344f5780601f106134245761010080835404028352916020019161344f565b820191906000526020600020905b81548152906001019060200180831161343257829003601f168201915b505050505081526020016008820160009054906101000a900460ff1660ff1660ff168152505083838151811061348857613487615223565b5b6020026020010181905250818061349e90615d3d565b9250505b8080600101915050612f47565b50819350505050919050565b606060003373ffffffffffffffffffffffffffffffffffffffff168373ffffffffffffffffffffffffffffffffffffffff16149050600042600460008673ffffffffffffffffffffffffffffffffffffffff1673ffffffffffffffffffffffffffffffffffffffff16815260200190815260200160002060003373ffffffffffffffffffffffffffffffffffffffff1673ffffffffffffffffffffffffffffffffffffffff16815260200190815260200160002054119050818061357c5750805b6135bb576040517f08c379a00000000000000000000000000000000000000000000000000000000081526004016135b290615dd1565b60405180910390fd5b600082156135cc5760ff90506135d8565b6135d53361430e565b90505b6000805b600260008873ffffffffffffffffffffffffffffffffffffffff1673ffffffffffffffffffffffffffffffffffffffff16815260200190815260200160002080549050811015613add576000600260008973ffffffffffffffffffffffffffffffffffffffff1673ffffffffffffffffffffffffffffffffffffffff168152602001908152602001600020828154811061367957613678615223565b5b9060005260206000209060090201604051806101400160405290816000820180546136a3906152ed565b80601f01602080910402602001604051908101604052809291908181526020018280546136cf906152ed565b801561371c5780601f106136f15761010080835404028352916020019161371c565b820191906000526020600020905b8154815290600101906020018083116136ff57829003601f168201915b50505050508152602001600182018054613735906152ed565b80601f0160208091040260200160405190810160405280929190818152602001828054613761906152ed565b80156137ae5780601f10613783576101008083540402835291602001916137ae565b820191906000526020600020905b81548152906001019060200180831161379157829003601f168201915b505050505081526020016002820180546137c7906152ed565b80601f01602080910402602001604051908101604052809291908181526020018280546137f3906152ed565b80156138405780601f1061381557610100808354040283529160200191613840565b820191906000526020600020905b81548152906001019060200180831161382357829003601f168201915b50505050508152602001600382018054613859906152ed565b80601f0160208091040260200160405190810160405280929190818152602001828054613885906152ed565b80156138d25780601f106138a7576101008083540402835291602001916138d2565b820191906000526020600020905b8154815290600101906020018083116138b557829003601f168201915b505050505081526020016004820180546138eb906152ed565b80601f0160208091040260200160405190810160405280929190818152602001828054613917906152ed565b80156139645780601f1061393957610100808354040283529160200191613964565b820191906000526020600020905b81548152906001019060200180831161394757829003601f168201915b50505050508152602001600582015481526020016006820160009054906101000a900473ffffffffffffffffffffffffffffffffffffffff1673ffffffffffffffffffffffffffffffffffffffff1673ffffffffffffffffffffffffffffffffffffffff1681526020016006820160149054906101000a900460ff161515151581526020016007820180546139f8906152ed565b80601f0160208091040260200160405190810160405280929190818152602001828054613a24906152ed565b8015613a715780601f10613a4657610100808354040283529160200191613a71565b820191906000526020600020905b815481529060010190602001808311613a5457829003601f168201915b505050505081526020016008820160009054906101000a900460ff1660ff1660ff168152505090508060e0015115613acf578580613aba57508360ff1681610120015160ff1611155b15613ace578280613aca90615d3d565b9350505b5b5080806001019150506135dc565b5060008167ffffffffffffffff811115613afa57613af961486e565b5b604051908082528060200260200182016040528015613b3357816020015b613b2061463d565b815260200190600190039081613b185790505b5090506000805b600260008a73ffffffffffffffffffffffffffffffffffffffff1673ffffffffffffffffffffffffffffffffffffffff1681526020019081526020016000208054905081101561405a576000600260008b73ffffffffffffffffffffffffffffffffffffffff1673ffffffffffffffffffffffffffffffffffffffff1681526020019081526020016000208281548110613bd757613bd6615223565b5b906000526020600020906009020160405180610140016040529081600082018054613c01906152ed565b80601f0160208091040260200160405190810160405280929190818152602001828054613c2d906152ed565b8015613c7a5780601f10613c4f57610100808354040283529160200191613c7a565b820191906000526020600020905b815481529060010190602001808311613c5d57829003601f168201915b50505050508152602001600182018054613c93906152ed565b80601f0160208091040260200160405190810160405280929190818152602001828054613cbf906152ed565b8015613d0c5780601f10613ce157610100808354040283529160200191613d0c565b820191906000526020600020905b815481529060010190602001808311613cef57829003601f168201915b50505050508152602001600282018054613d25906152ed565b80601f0160208091040260200160405190810160405280929190818152602001828054613d51906152ed565b8015613d9e5780601f10613d7357610100808354040283529160200191613d9e565b820191906000526020600020905b815481529060010190602001808311613d8157829003601f168201915b50505050508152602001600382018054613db7906152ed565b80601f0160208091040260200160405190810160405280929190818152602001828054613de3906152ed565b8015613e305780601f10613e0557610100808354040283529160200191613e30565b820191906000526020600020905b815481529060010190602001808311613e1357829003601f168201915b50505050508152602001600482018054613e49906152ed565b80601f0160208091040260200160405190810160405280929190818152602001828054613e75906152ed565b8015613ec25780601f10613e9757610100808354040283529160200191613ec2565b820191906000526020600020905b815481529060010190602001808311613ea557829003601f168201915b50505050508152602001600582015481526020016006820160009054906101000a900473ffffffffffffffffffffffffffffffffffffffff1673ffffffffffffffffffffffffffffffffffffffff1673ffffffffffffffffffffffffffffffffffffffff1681526020016006820160149054906101000a900460ff16151515158152602001600782018054613f56906152ed565b80601f0160208091040260200160405190810160405280929190818152602001828054613f82906152ed565b8015613fcf5780601f10613fa457610100808354040283529160200191613fcf565b820191906000526020600020905b815481529060010190602001808311613fb257829003601f168201915b505050505081526020016008820160009054906101000a900460ff1660ff1660ff168152505090508060e001511561404c57878061401857508560ff1681610120015160ff1611155b1561404b578084848151811061403157614030615223565b5b6020026020010181905250828061404790615d3d565b9350505b5b508080600101915050613b3a565b50819650505050505050919050565b600860009054906101000a900473ffffffffffffffffffffffffffffffffffffffff1681565b60008054906101000a900473ffffffffffffffffffffffffffffffffffffffff1673ffffffffffffffffffffffffffffffffffffffff163373ffffffffffffffffffffffffffffffffffffffff161461411d576040517f08c379a000000000000000000000000000000000000000000000000000000000815260040161411490615850565b60405180910390fd5b80600760006101000a81548173ffffffffffffffffffffffffffffffffffffffff021916908373ffffffffffffffffffffffffffffffffffffffff16021790555050565b60608173ffffffffffffffffffffffffffffffffffffffff163373ffffffffffffffffffffffffffffffffffffffff16146141d1576040517f08c379a00000000000000000000000000000000000000000000000000000000081526004016141c890615e3d565b60405180910390fd5b600960008373ffffffffffffffffffffffffffffffffffffffff1673ffffffffffffffffffffffffffffffffffffffff16815260200190815260200160002080548060200260200160405190810160405280929190818152602001828054801561429057602002820191906000526020600020905b8160009054906101000a900473ffffffffffffffffffffffffffffffffffffffff1673ffffffffffffffffffffffffffffffffffffffff1681526020019060010190808311614246575b50505050509050919050565b60008054906101000a900473ffffffffffffffffffffffffffffffffffffffff1681565b600960205281600052604060002081815481106142dc57600080fd5b906000526020600020016000915091509054906101000a900473ffffffffffffffffffffffffffffffffffffffff1681565b60008073ffffffffffffffffffffffffffffffffffffffff16600560009054906101000a900473ffffffffffffffffffffffffffffffffffffffff1673ffffffffffffffffffffffffffffffffffffffff161461441b57600560009054906101000a900473ffffffffffffffffffffffffffffffffffffffff1673ffffffffffffffffffffffffffffffffffffffff16632f04e064836040518263ffffffff1660e01b81526004016143c09190614849565b600060405180830381865afa9250505080156143ff57506040513d6000823e3d601f19601f820116820180604052508101906143fc9190615ef9565b60015b1561441a5780156144165760029350505050614638565b5050505b5b600073ffffffffffffffffffffffffffffffffffffffff16600660009054906101000a900473ffffffffffffffffffffffffffffffffffffffff1673ffffffffffffffffffffffffffffffffffffffff161461452757600660009054906101000a900473ffffffffffffffffffffffffffffffffffffffff1673ffffffffffffffffffffffffffffffffffffffff166387e59793836040518263ffffffff1660e01b81526004016144cc9190614849565b600060405180830381865afa92505050801561450b57506040513d6000823e3d601f19601f820116820180604052508101906145089190615ef9565b60015b156145265780156145225760019350505050614638565b5050505b5b600073ffffffffffffffffffffffffffffffffffffffff16600760009054906101000a900473ffffffffffffffffffffffffffffffffffffffff1673ffffffffffffffffffffffffffffffffffffffff161461463357600760009054906101000a900473ffffffffffffffffffffffffffffffffffffffff1673ffffffffffffffffffffffffffffffffffffffff1663e7eba4c2836040518263ffffffff1660e01b81526004016145d89190614849565b600060405180830381865afa92505050801561461757506040513d6000823e3d601f19601f820116820180604052508101906146149190615ef9565b60015b1561463257801561462e5760009350505050614638565b5050505b5b600090505b919050565b604051806101400160405280606081526020016060815260200160608152602001606081526020016060815260200160008152602001600073ffffffffffffffffffffffffffffffffffffffff16815260200160001515815260200160608152602001600060ff1681525090565b6000604051905090565b600080fd5b600080fd5b600073ffffffffffffffffffffffffffffffffffffffff82169050919050565b60006146ea826146bf565b9050919050565b6146fa816146df565b811461470557600080fd5b50565b600081359050614717816146f1565b92915050565b600060208284031215614733576147326146b5565b5b600061474184828501614708565b91505092915050565b600081519050919050565b600082825260208201905092915050565b60005b83811015614784578082015181840152602081019050614769565b60008484015250505050565b6000601f19601f8301169050919050565b60006147ac8261474a565b6147b68185614755565b93506147c6818560208601614766565b6147cf81614790565b840191505092915050565b60008115159050919050565b6147ef816147da565b82525050565b6000606082019050818103600083015261480f81866147a1565b9050818103602083015261482381856147a1565b905061483260408301846147e6565b949350505050565b614843816146df565b82525050565b600060208201905061485e600083018461483a565b92915050565b600080fd5b600080fd5b7f4e487b7100000000000000000000000000000000000000000000000000000000600052604160045260246000fd5b6148a682614790565b810181811067ffffffffffffffff821117156148c5576148c461486e565b5b80604052505050565b60006148d86146ab565b90506148e4828261489d565b919050565b600067ffffffffffffffff8211156149045761490361486e565b5b61490d82614790565b9050602081019050919050565b82818337600083830152505050565b600061493c614937846148e9565b6148ce565b90508281526020810184848401111561495857614957614869565b5b61496384828561491a565b509392505050565b600082601f8301126149805761497f614864565b5b8135614990848260208601614929565b91505092915050565b600060ff82169050919050565b6149af81614999565b81146149ba57600080fd5b50565b6000813590506149cc816149a6565b92915050565b600080600080600080600080610100898b0312156149f3576149f26146b5565b5b6000614a018b828c01614708565b985050602089013567ffffffffffffffff811115614a2257614a216146ba565b5b614a2e8b828c0161496b565b975050604089013567ffffffffffffffff811115614a4f57614a4e6146ba565b5b614a5b8b828c0161496b565b965050606089013567ffffffffffffffff811115614a7c57614a7b6146ba565b5b614a888b828c0161496b565b955050608089013567ffffffffffffffff811115614aa957614aa86146ba565b5b614ab58b828c0161496b565b94505060a089013567ffffffffffffffff811115614ad657614ad56146ba565b5b614ae28b828c0161496b565b93505060c089013567ffffffffffffffff811115614b0357614b026146ba565b5b614b0f8b828c0161496b565b92505060e0614b208b828c016149bd565b9150509295985092959890939650565b600080600060608486031215614b4957614b486146b5565b5b6000614b5786828701614708565b935050602084013567ffffffffffffffff811115614b7857614b776146ba565b5b614b848682870161496b565b925050604084013567ffffffffffffffff811115614ba557614ba46146ba565b5b614bb18682870161496b565b9150509250925092565b60008060408385031215614bd257614bd16146b5565b5b6000614be085828601614708565b9250506020614bf185828601614708565b9150509250929050565b6000819050919050565b614c0e81614bfb565b82525050565b6000602082019050614c296000830184614c05565b92915050565b614c3881614bfb565b8114614c4357600080fd5b50565b600081359050614c5581614c2f565b92915050565b60008060408385031215614c7257614c716146b5565b5b6000614c8085828601614708565b9250506020614c9185828601614c46565b9150509250929050565b614ca481614999565b82525050565b6000610140820190508181036000830152614cc5818d6147a1565b90508181036020830152614cd9818c6147a1565b90508181036040830152614ced818b6147a1565b90508181036060830152614d01818a6147a1565b90508181036080830152614d1581896147a1565b9050614d2460a0830188614c05565b614d3160c083018761483a565b614d3e60e08301866147e6565b818103610100830152614d5181856147a1565b9050614d61610120830184614c9b565b9b9a5050505050505050505050565b600081519050919050565b600082825260208201905092915050565b6000819050602082019050919050565b600082825260208201905092915050565b6000614db88261474a565b614dc28185614d9c565b9350614dd2818560208601614766565b614ddb81614790565b840191505092915050565b614def81614bfb565b82525050565b614dfe816146df565b82525050565b614e0d816147da565b82525050565b614e1c81614999565b82525050565b6000610140830160008301518482036000860152614e408282614dad565b91505060208301518482036020860152614e5a8282614dad565b91505060408301518482036040860152614e748282614dad565b91505060608301518482036060860152614e8e8282614dad565b91505060808301518482036080860152614ea88282614dad565b91505060a0830151614ebd60a0860182614de6565b5060c0830151614ed060c0860182614df5565b5060e0830151614ee360e0860182614e04565b50610100830151848203610100860152614efd8282614dad565b915050610120830151614f14610120860182614e13565b508091505092915050565b6000614f2b8383614e22565b905092915050565b6000602082019050919050565b6000614f4b82614d70565b614f558185614d7b565b935083602082028501614f6785614d8c565b8060005b85811015614fa35784840389528151614f848582614f1f565b9450614f8f83614f33565b925060208a01995050600181019050614f6b565b50829750879550505050505092915050565b60006020820190508181036000830152614fcf8184614f40565b905092915050565b60006040820190508181036000830152614ff181856147a1565b9050818103602083015261500581846147a1565b90509392505050565b600081519050919050565b600082825260208201905092915050565b6000819050602082019050919050565b60006150468383614df5565b60208301905092915050565b6000602082019050919050565b600061506a8261500e565b6150748185615019565b935061507f8361502a565b8060005b838110156150b0578151615097888261503a565b97506150a283615052565b925050600181019050615083565b5085935050505092915050565b600060208201905081810360008301526150d7818461505f565b905092915050565b7f50617469656e74206e6f74207265676973746572656400000000000000000000600082015250565b6000615115601683614755565b9150615120826150df565b602082019050919050565b6000602082019050818103600083015261514481615108565b9050919050565b7f43616e6e6f7420726571756573742061636365737320746f2073656c66000000600082015250565b6000615181601d83614755565b915061518c8261514b565b602082019050919050565b600060208201905081810360008301526151b081615174565b9050919050565b7f416c726561647920686173206163636573730000000000000000000000000000600082015250565b60006151ed601283614755565b91506151f8826151b7565b602082019050919050565b6000602082019050818103600083015261521c816151e0565b9050919050565b7f4e487b7100000000000000000000000000000000000000000000000000000000600052603260045260246000fd5b7f5265717565737420616c72656164792070656e64696e67000000000000000000600082015250565b6000615288601783614755565b915061529382615252565b602082019050919050565b600060208201905081810360008301526152b78161527b565b9050919050565b7f4e487b7100000000000000000000000000000000000000000000000000000000600052602260045260246000fd5b6000600282049050600182168061530557607f821691505b602082108103615318576153176152be565b5b50919050565b7f496e76616c69642070726976616379206c6576656c0000000000000000000000600082015250565b6000615354601583614755565b915061535f8261531e565b602082019050919050565b6000602082019050818103600083015261538381615347565b9050919050565b600081905092915050565b60006153a08261474a565b6153aa818561538a565b93506153ba818560208601614766565b80840191505092915050565b60006153d28284615395565b915081905092915050565b600060608201905081810360008301526153f781866147a1565b9050818103602083015261540b81856147a1565b905061541a6040830184614c05565b949350505050565b60008190508160005260206000209050919050565b60006020601f8301049050919050565b600082821b905092915050565b6000600883026154847fffffffffffffffffffffffffffffffffffffffffffffffffffffffffffffffff82615447565b61548e8683615447565b95508019841693508086168417925050509392505050565b6000819050919050565b60006154cb6154c66154c184614bfb565b6154a6565b614bfb565b9050919050565b6000819050919050565b6154e5836154b0565b6154f96154f1826154d2565b848454615454565b825550505050565b600090565b61550e615501565b6155198184846154dc565b505050565b5b8181101561553d57615532600082615506565b60018101905061551f565b5050565b601f8211156155825761555381615422565b61555c84615437565b8101602085101561556b578190505b61557f61557785615437565b83018261551e565b50505b505050565b600082821c905092915050565b60006155a560001984600802615587565b1980831691505092915050565b60006155be8383615594565b9150826002028217905092915050565b6155d78261474a565b67ffffffffffffffff8111156155f0576155ef61486e565b5b6155fa82546152ed565b615605828285615541565b600060209050601f8311600181146156385760008415615626578287015190505b61563085826155b2565b865550615698565b601f19841661564686615422565b60005b8281101561566e57848901518255600182019150602085019450602081019050615649565b8683101561568b5784890151615687601f891682615594565b8355505b6001600288020188555050505b505050505050565b7f4e487b7100000000000000000000000000000000000000000000000000000000600052601160045260246000fd5b60006156da82614bfb565b91506156e583614bfb565b92508282039050818111156156fd576156fc6156a0565b5b92915050565b6000606082019050818103600083015261571d81866147a1565b905061572c6020830185614c05565b6157396040830184614c9b565b949350505050565b7f5245434f52445f41444445440000000000000000000000000000000000000000600082015250565b6000615777600c83614755565b915061578282615741565b602082019050919050565b60006080820190506157a2600083018661483a565b81810360208301526157b38161576a565b90506157c2604083018561483a565b81810360608301526157d481846147a1565b9050949350505050565b7f4f6e6c792061646d696e2063616e2063616c6c20746869732066756e6374696f60008201527f6e00000000000000000000000000000000000000000000000000000000000000602082015250565b600061583a602183614755565b9150615845826157de565b604082019050919050565b600060208201905081810360008301526158698161582d565b9050919050565b7f50617469656e7420616c72656164792072656769737465726564000000000000600082015250565b60006158a6601a83614755565b91506158b182615870565b602082019050919050565b600060208201905081810360008301526158d581615899565b9050919050565b7f50415449454e545f524547495354455245440000000000000000000000000000600082015250565b6000615912601283614755565b915061591d826158dc565b602082019050919050565b600060808201905061593d600083018661483a565b818103602083015261594e81615905565b905061595d604083018561483a565b818103606083015261596f81846147a1565b9050949350505050565b7f53656e64657220696e76616c6964000000000000000000000000000000000000600082015250565b60006159af600e83614755565b91506159ba82615979565b602082019050919050565b600060208201905081810360008301526159de816159a2565b9050919050565b60006040820190506159fa600083018561483a565b615a07602083018461483a565b9392505050565b7f4143434553535f5245564f4b4544000000000000000000000000000000000000600082015250565b6000615a44600e83614755565b9150615a4f82615a0e565b602082019050919050565b7f4d616e75616c205265766f6b6500000000000000000000000000000000000000600082015250565b6000615a90600d83614755565b9150615a9b82615a5a565b602082019050919050565b6000608082019050615abb600083018561483a565b8181036020830152615acc81615a37565b9050615adb604083018461483a565b8181036060830152615aec81615a83565b90509392505050565b7f496e76616c696420766965776572206164647265737300000000000000000000600082015250565b6000615b2b601683614755565b9150615b3682615af5565b602082019050919050565b60006020820190508181036000830152615b5a81615b1e565b9050919050565b6000615b6c82614bfb565b9150615b7783614bfb565b9250828201905080821115615b8f57615b8e6156a0565b5b92915050565b7f4e487b7100000000000000000000000000000000000000000000000000000000600052603160045260246000fd5b7f4143434553535f4752414e544544000000000000000000000000000000000000600082015250565b6000615bfa600e83614755565b9150615c0582615bc4565b602082019050919050565b7f3720446179732041636365737300000000000000000000000000000000000000600082015250565b6000615c46600d83614755565b9150615c5182615c10565b602082019050919050565b6000608082019050615c71600083018561483a565b8181036020830152615c8281615bed565b9050615c91604083018461483a565b8181036060830152615ca281615c39565b90509392505050565b7f41636365737320616c6c6f776564206f6e6c7920666f722070617469656e742060008201527f6f776e6572000000000000000000000000000000000000000000000000000000602082015250565b6000615d07602583614755565b9150615d1282615cab565b604082019050919050565b60006020820190508181036000830152615d3681615cfa565b9050919050565b6000615d4882614bfb565b91507fffffffffffffffffffffffffffffffffffffffffffffffffffffffffffffffff8203615d7a57615d796156a0565b5b600182019050919050565b7f4163636573732064656e69656400000000000000000000000000000000000000600082015250565b6000615dbb600d83614755565b9150615dc682615d85565b602082019050919050565b60006020820190508181036000830152615dea81615dae565b9050919050565b7f4f6e6c792070617469656e742063616e20766965772072657175657374730000600082015250565b6000615e27601e83614755565b9150615e3282615df1565b602082019050919050565b60006020820190508181036000830152615e5681615e1a565b9050919050565b6000615e70615e6b846148e9565b6148ce565b905082815260208101848484011115615e8c57615e8b614869565b5b615e97848285614766565b509392505050565b600082601f830112615eb457615eb3614864565b5b8151615ec4848260208601615e5d565b91505092915050565b615ed6816147da565b8114615ee157600080fd5b50565b600081519050615ef381615ecd565b92915050565b600080600060608486031215615f1257615f116146b5565b5b600084015167ffffffffffffffff811115615f3057615f2f6146ba565b5b615f3c86828701615e9f565b935050602084015167ffffffffffffffff811115615f5d57615f5c6146ba565b5b615f6986828701615e9f565b9250506040615f7a86828701615ee4565b915050925092509256fea264697066735822122044849cf8f9920c3df964418c75b2b43703bc42aec4e77e3289cccc1504eacc5364736f6c63430008180033",
  "linkReferences": {},
  "deployedLinkReferences": {}
}